:020000040000FA
:040200006BEF03F0AD
:020204000000F8
:040208000EEF01F004
:080218002DEF01F0D8CF01F039
:10022000E0CF02F0006EF3CF03F0F4CF04F0F0ACB7
:100230001DEF01F0F0B03DEC0DF0A2A023EF01F0B6
:10024000A1B0CDEC0AF003C0F3FF04C0F4FF0050EE
:1002500002C0E0FF01C0D8FF1000D8CF06F0E8CF01
:1002600005F0E0CF07F0F3CF08F0F4CF09F0F0BCD1
:100270003DEF01F0F0B03DEC0DF0A2B043EF01F026
:10028000A1B0CDEC0AF0A2B04CEF01F0AECFE8FF88
:100290006ECFE8FF52EF01F09EBA57EC12F0A4BA0D
:1002A000C2EC12F008C0F3FF09C0F4FF07C0E0FF82
:0A02B00005C0E8FF06C0D8FF1000EB
:10030000F95000011150F926BBEF33F0BDEF33F087
:10031000CAEF33F0DFEF33F0EDEF33F0FBEF33F004
:1003200009EF34F017EF34F027EF34F035EF34F005
:1003300037EF34F045EF34F01200E8B81200E8BAB5
:100340001200E8BC1200E8BE12000F0BD8A4AFEFF9
:1003500001F00001000E0F6E000E106E1200E80694
:10036000030B0A0DF9CFE8FFF350F92685C00FF013
:1003700086C010F0120087C00FF088C010F0120085
:1003800089C00FF08AC010F012008BC00FF08CC033
:0403900010F0120057
:10040000EFCFE8FFE806070B0A0DF9CFE8FFF3503E
:10041000F9263EC050F03FC051F012003CC050F0F1
:100420003DC051F0120040C050F041C051F01200E8
:1004300042C050F043C051F0120044C050F045C0DB
:1004400051F0120046C050F047C051F0120048C0B1
:1004500050F049C051F012004AC050F04BC051F06A
:1004600012000F0B060DF9CFE8FFF350F926BBC2BF
:10047000E8FF1200BCC2E8FF1200BDC2E8FF120094
:10048000BEC2E8FF1200BFC2E8FF1200C0C2E8FF10
:100490001200C1C2E8FF1200C2C2E8FF1200C3C2CC
:1004A000E8FF1200C4C2E8FF1200C5C2E8FF120054
:1004B000C6C2E8FF1200C7C2E8FF1200C8C2E8FFC8
:0E04C0001200C9C2E8FF1200CAC2E8FF120013
:100500000001E806070B0A0DF9CFE8FFF350F926C2
:1005100093510D6E94510E6E120095510D6E9651C1
:100520000E6E120097510D6E98510E6E1200995179
:100530000D6E9A510E6E12009B510D6E9C510E6EF7
:1005400012009D510D6E9E510E6E12009F510D6E48
:10055000A0510E6E1200A1510D6EA2510E6E12002E
:100600000001E8BE33EF03F0E806070B0A0DF9CF4F
:10061000E8FFF350F9260D5075270E50762312008F
:100620000D5077270E50782312000D5079270E5069
:100630007A2312000D507B270E507C2312000D50A0
:100640007D270E507E2312000D507F270E508023F1
:1006500012000D5081270E50822312000D50832767
:100660000E5084231200E806070B0A0DF9CFE8FFAD
:10067000F350F9260D50756F0E50766F12000D5025
:10068000776F0E50786F12000D50796F0E507A6FA1
:1006900012000D507B6F0E507C6F12000D507D6F5D
:1006A0000E507E6F12000D507F6F0E50806F120043
:1006B0000D50816F0E50826F12000D50836F0E50DF
:0406C000846F120031
:0C06C400F2AE12000001010EA76FA76744
:1006D00067EF03F012007FEC0DF0928802C5E8FF8F
:1006E000E81EE86676EF03F092988098939C819CD0
:1006F00000015D6A5E6A8BEC09F00001566A640EC7
:1007000074EC0DF0280EE8CFD4F20001500E386ED4
:10071000C30E396E83CFE8FF0001306E316E326E4A
:10072000E81EF96F84CFE8FF0001336E346E356E3A
:10073000E81EFA6F0F0199908780949693948296A1
:1007400081940001000E176E000E186E000E196ED7
:10075000000E1A6E0001000E1B6E000E1C6E000EC5
:100760001D6E000E1E6E0001000E136E000E146E44
:10077000000E156E000E166E0001000EB16F000E19
:10078000B26F0001000EB36F000EB46F0001000ED7
:10079000B56F000EB66F0001000EB76F000EB86F98
:1007A0000101000E5D6F000E5E6F02010F0EDC6F27
:1007B000000EDD6F0001606B616B626BA76BA86B55
:1007C000A96BED69EF6BF06BFB6BFE6BE86AE8CF32
:1007D000DBF2E8CFD2F0E8CF11F1E8CFBAF2E8CF00
:1007E00060F1E8CFF6F0000EF86E840EF76E7A0E28
:1007F000F66E0900F5CF58F109000900F5CF59F15F
:100800000900F5CF5AF1EFEC3EF002010051000172
:10081000AB6F040EB0EC09F0040EB0EC09F000016F
:10082000C350CB6FC450CC6F050EB0EC09F0050E71
:10083000B0EC09F00001C350CD6FC450CE6F030E71
:10084000B0EC09F06BC06DF16CC06EF137EC0FF0DD
:10085000FA0E74EC0DF0FA0E74EC0DF0FA0E74EC66
:100860000DF0FA0E74EC0DF07DEC0AF0D5EC2DF0E5
:10087000E3EC11F0F7EC11F032EC3FF0F28EF28C79
:10088000D08E0F01D89083B6D880D8B04DEF04F049
:100890000A0E74EC0DF00F01D89083B6D880D8B052
:1008A00063EF04F00F01D89084B2D880D8B05EEF27
:1008B00004F00A0E74EC0DF00F01D89084B2D880C9
:1008C000D8A085EF04F043EC25F00201A50EA76344
:1008D00070EF04F0E70EA86370EF04F074EF04F01B
:1008E000EFEC3EF0F2EC0DF000C2E8FFCEEC25F0AC
:1008F0000301AD510201A56FC8EC0CF043EC0CF004
:100900000101F20E066F80EC0CF00F01D89084B25A
:10091000D880D8A085EF04F00A0E74EC0DF00F011A
:10092000D89084B2D880D8A085EF04F0809802C512
:10093000E8FFE8668078D2C2E8FFE866A5EF04F039
:10094000808802C5E8FFE866807892985EEC10F037
:100950001E0EE8CF15F0840EE8CF14F0800EE8CF1D
:1009600013F0D4C217F0E86AE8CF18F03AEC15F0AB
:10097000D5C2E8FF00011326E86A142213C038F03C
:1009800014C039F0040EB0EC09F0040EB0EC09F01C
:100990000001C350CB6FC450CC6F050EB0EC09F012
:1009A000050EB0EC09F00001C350CD6FC450CE6FFE
:1009B0000F01D89084B4D880D8B0E4EF04F00A0EC8
:1009C00074EC0DF00F01D89084B4D880D8B0FAEF51
:1009D00004F00F01D89083B6D880D8B0F5EF04F0BA
:1009E0000A0E74EC0DF00F01D89083B6D880D8A011
:1009F00001EF08F0E86AE8CFDBF20F01D89084B489
:100A0000D880D8B009EF05F00A0E74EC0DF00F0194
:100A1000D89084B4D8800101D8B05D690201A0C229
:100A20000AF00201FF0E0AB0A56FA5617BEF05F089
:100A30000301A6A15BEF05F00F0183BE5BEF05F09C
:100A4000800E12EC10F0000EF86E850EF76E3C0E64
:100A5000F66EBCEC10F0C00E12EC10F0000EF86E4A
:100A6000840EF76EDC0EF66EBCEC10F00F01D89021
:100A700084B4D880D8B042EF05F00A0E74EC0DF0C3
:100A80000F01D89084B4D880D8B036EF05F00F01AC
:100A9000D89084B4D880D8A047EF05F00A0E74EC43
:100AA0000DF00F01D89084B4D880D8A047EF05F09E
:100AB000C80E74EC0DF00201D1B162EF05F0D1A3C4
:100AC0007BEF05F0800E0001A36F94EC3DF0D89011
:100AD00079EC30F0D8B072EF05F00201FF0EA56F8F
:100AE0007BEF05F0C8EC0CF043EC0CF080EC0CF064
:100AF0000A0E74EC0DF00001010E366EA3C254F024
:100B0000A4C255F00401495100014F6EA1EC2AF036
:100B100026EC26F0C00EE8CF90F0E8CF92F0E8CFB8
:100B2000FDF0979EFCAE98EF05F00F019394819431
:100B3000000133B0B8EF05F0010E366230EF06F079
:100B40000001050EE8CF5FF0070E07EC0CF0020E77
:100B5000366E0001AB5102010063B1EF05F030EFDA
:100B600006F0006FCEEC25F026EC26F030EF06F014
:100B7000010E366E41EC2AF000EC1DF06EEC1FF019
:100B8000C7EC07F00201A1A1EBEF05F00301B6519C
:100B9000B7EC2BF0D8A0EBEF05F00201B767E3EF5D
:100BA00005F0B1C075F0B2C076F0B3C077F0B4C054
:100BB00078F0B5C079F0B6C07AF0B7C07BF0B8C0B5
:100BC0007CF0EBEF05F0F08CF086A290E868E8CFBF
:100BD000F5F0F1EF05F0F09CF086A280E86AE8CF2E
:100BE000F5F00201A0B11EEF06F032EC1CF0D8B413
:100BF0001EEF06F001EC1FF094EC1EF0BCEC21F0AF
:100C000014EC23F05FEC1FF03DEC20F00BEC2CF02B
:100C10007CEC28F0BFEC26F084EC28F0BAEC28F04D
:100C200060EC22F033EC21F04AEC3FF00001EF677A
:100C30000BEC14F00001F0670BEC14F062EC03F025
:100C4000FAEC23F06BEC13F09CEC11F00001A867B8
:100C50002EEF06F00A0EA86F89EC06F091EF05F072
:100C6000800E12EC10F0000EF86E860EF76EDA0EA3
:100C7000F66EBCEC10F0C00E12EC10F0000EF86E28
:100C8000840EF76EDC0EF66EBCEC10F00D0EB0ECC0
:100C900009F06BC05BF16CC05CF131EC25F0D8A0C1
:100CA00054EF06F053EC2EF000EC1DF06EEC1FF04C
:100CB00001EC1FF094EC1EF0BCEC21F014EC23F0DE
:100CC0005FEC1FF03DEC20F00BEC2CF07CEC28F0FE
:100CD000BFEC26F084EC28F0BAEC28F060EC22F0AF
:100CE00033EC21F0FAEC23F09CEC11F091EF05F0DD
:100CF0000001100E0B6EC00E12EC10F0000EE16E33
:100D0000030EE26EE65003EC10F00B2E82EF06F0BD
:100D10001200000133B293EF06F035A293EF06F014
:100D200035920201DB1F5DC1E8FFE81EE8667FEF38
:100D30001BF04AC1E8FFE866BDEF40F00001840EF9
:100D400012EC10F0200E03EC10F00201520EA5BFC1
:100D5000200E000103EC10F00601CE51B7EC2BF091
:100D6000410ED8A0200E03EC10F00301B251B7ECF5
:100D70002BF04D0ED8A02D0E03EC10F00301B35153
:100D8000B7EC2BF04D0ED8A02D0E03EC10F00301A4
:100D9000B451B7EC2BF04D0ED8A02D0E03EC10F093
:100DA000200E03EC10F0CEEC08F00301B651B7ECC6
:100DB0002BF0D8A0F8EF06F0A1C2E8FFE81EE86625
:100DC000EFEF06F0800E12EC10F0000EF86E850EBC
:100DD000F76E120EF66EBCEC10F0F8EF06F0800E17
:100DE00012EC10F000C513F001C514F029EC11F05D
:100DF0000201B8AF11EF07F0B86B000EE8CF0DF0AD
:100E0000E86AE8CF0EF000C5E8FFAEEC0DF0010E89
:100E1000E8CF0DF0E86AE8CF0EF001C5E8FFAEECD0
:100E20000DF0F0EC07F0D8B03DEF07F04AEC09F018
:100E3000D8B03DEF07F0DAEC2DF0D8B03DEF07F079
:100E4000D5EC2AF00001A951E812D8A43DEF07F033
:100E50000201A0A139EF07F0C00E12EC10F0000E55
:100E6000F86E840EF76EF60EF66EBCEC10F03DEFE9
:100E700007F078EC06F075EC2DF031EC25F0D8A0F9
:100E800055EF07F027EC2DF0D8B055EF07F0000133
:100E9000566654EF07F0562ABEC35AF0BFC35BF044
:100EA000D06BD16B55EF07F05606000156A088EFC6
:100EB00007F05B6688EF07F03B0E5C6267EF07F0B8
:100EC000050E5F6E0A0E07EC0CF088EF07F01E0EA1
:100ED0005C6272EF07F0030E5F6E0A0E07EC0CF017
:100EE00088EF07F00A0E5C627DEF07F0010E5F6E7F
:100EF0000A0E07EC0CF088EF07F0060E5C6088EF36
:100F000007F0010E5F6E0A0E07EC0CF088EF07F099
:100F10007F0E5C6E5850D46F5950D56F010E5662DB
:100F2000B1EF07F05A505B10D8B4A0EF07F05A5059
:100F3000D46F5B50D56F000E0301BD63B1EF07F0B6
:100F4000020E0301BD5DD8B4ADEF07F00001D05132
:100F5000D46FD151D56FB1EF07F0E86A0001D46FBB
:100F6000D56F00018B0E12EC10F0D551E8CF13F0C5
:100F7000146A156A166A21EC11F03A0E03EC10F0AF
:100F8000D4C0E8FFE8CF13F021EC11F01200030108
:100F9000C051B7EC2BF0D8A0EDEF07F00301000E25
:100FA000C165EAEF07F000017CBFEDEF07F0030138
:100FB000C15100010D6E0E6A00010A0E0F6E000E87
:100FC000106E36EC14F07B51135E7C511458D8B07F
:100FD000EDEF07F00001ED6912000001ED6B12006A
:100FE000D8900001D2AF1200C00E12EC10F0000E2B
:100FF000F86E850EF76EA80EF66EBCEC10F0D88079
:1010000012000F01D89084B4D880D8A001EF08F066
:101010000A0E74EC0DF00F01D89084B4D880D8A0DB
:1010200001EF08F00F01D89083B6D880D8A012EF56
:1010300008F00A0E74EC0DF00F01D89083B6D8803A
:10104000D8A012EF08F0800E12EC10F00F018350C0
:10105000CCEC10F00F018450CCEC10F0C00E12EC70
:1010600010F00F018650CCEC10F00F018150CCEC49
:1010700010F00F01835082868184E8B08296E8B236
:1010800081948098E8B48088320E74EC0DF00F01E2
:10109000D89084B4D880D8B053EF08F00A0E74EC1E
:1010A0000DF00F01D89084B4D880D8B023EF08F0A9
:1010B0000F01D89084B4D880D8A058EF08F00A0E59
:1010C00074EC0DF00F01D89084B4D880D8A058EFFC
:1010D00008F0C00E12EC10F0000EF86E840EF76EE1
:1010E0004C0EF66EBCEC10F00001116A800E12EC92
:1010F00010F0000EF86E840EF76E820EF66EBCECE9
:1011000010F0870E12EC10F000011150D9EC10F025
:10111000B0EC09F0F8C0E8FFE86695EF08F0D89069
:10112000C432C332D890C432C3328C0E12EC10F0E9
:10113000C3CF13F0C4CF14F00001156A166A19EC7E
:1011400011F0320E74EC0DF00F01D89084B4D880F9
:10115000D8B0B0EF08F00A0E74EC0DF00F01D89083
:1011600084B4D880D8B076EF08F00F01D89084B45A
:10117000D880D8A0B5EF08F00A0E74EC0DF00F017E
:10118000D89084B4D880D8A0B5EF08F00001112A17
:101190000C0E116476EF08F023EF08F0800E12ECCD
:1011A00010F0B9C20DF0BAC20EF00E6A0001640E62
:1011B0000F6E000E106E36EC14F013C011F014C058
:1011C00012F01BEC09F013C20FF014C210F036EC51
:1011D00014F01450E8CF13F01550E8CF14F0156A4E
:1011E000010111B104EF09F000011150135C12501C
:1011F0001458E8AE04EF09F0C90E00015F6E050E49
:1012000007EC0CF001011169000153EC11F0200E04
:10121000E8CF0AF0300E25640AC025F0255003EC13
:1012200010F0265003EC10F02E0E03EC10F02750B7
:1012300003EC10F012006DC10DF06EC10EF0000154
:10124000300E0F6E000E106E36EC14F0010113C05C
:10125000E8FF6C5F14C0E8FF6D5B15C0E8FF6E5BD4
:101260008DC00DF08EC00EF00001300E0F6E000E1E
:10127000106E36EC14F0010113C0E8FF6C2714C0A7
:10128000E8FF6D2315C0E8FF6E236DC10DF06EC140
:101290000EF012000D0EB0EC09F00D0EB0EC09F0DE
:1012A0006BC00DF06CC00EF0A9C20FF0AAC210F016
:1012B00036EC14F000011450136E1550146E1650D5
:1012C000156E166A53EC11F00001255026100F0B15
:1012D000D890D8B41200C00E12EC10F0000EF86EC8
:1012E000850EF76E960EF66EBCEC10F0CB0E12EC7F
:1012F00010F00001255003EC10F0265003EC10F024
:101300002E0E03EC10F0275003EC10F0285003ECE5
:1013100010F0D8801200E86AE8CFF8F03F0EF86EBF
:10132000FF0EF76EFF0EF66E0800F5504A0AFF0E2C
:10133000D8B4E8CFF8F012000101616B626B636B07
:101340000A6E0B6A0A50B0EC09F00101C350612724
:10135000C4506223D8B0632B0B2EA2EF09F0120009
:101360000A6E31EC02F0E8A8BEEF09F0F5EC09F0E6
:10137000D8B0F5EC09F00AC0E8FF1200C3EC09F0A0
:101380000AC0E8FF1200C16AE8AEC188E89EE844DE
:10139000E844C26EA10EC06E040EE8CF0CF000014E
:1013A000000E6B6F000E6C6FC2800000000000002A
:1013B000C282C2B2D9EF09F00001C3506B27C450FA
:1013C0006C2300010C06F0E1F8C0E8FFE81EE866B7
:1013D000F0EF09F0D8906C336B33D8906C336B33EB
:1013E0006BC0C3FF6CC0C4FF12000DC064F10EC01F
:1013F00065F10FC066F110C067F113C068F114C049
:1014000069F115C06AF116C06BF1030E31EC02F000
:10141000C3EC09F06BC017F06CC018F00AC0E8FF0D
:1014200031EC02F0E898C3EC09F06BC00DF06CC031
:101430000EF0030E31EC02F0C3EC09F0000117C00E
:10144000E8FF6B5F18C0E8FF6C5B6CAF2DEF0AF034
:101450006B1F6C1F6B2BD8B46C2B6C51D8A45AEF3C
:101460000AF06B510201DC5DD8A05AEF0AF00001CE
:10147000000E0F6E080E106E36EC14F03AEC15F0FC
:1014800013C06BF014C06CF06BC0C3FF6CC0C4FF22
:1014900064C10DF065C10EF066C10FF067C110F0B8
:1014A00068C113F069C114F06AC115F06BC116F080
:1014B000D89012000001000E0F6E080E106E36EC70
:1014C00014F03AEC15F013C06BF014C06CF06BC064
:1014D000C3FF6CC0C4FF64C10DF065C10EF066C1EE
:1014E0000FF067C110F068C113F069C114F06AC150
:1014F00015F06BC116F0D880120000014E6A586AD0
:10150000596AD4C2E8FFE8CF57F00001900E546E3C
:10151000010E556E0001900E506E010E516E526A12
:10152000536A100E0001E8CF4FF03A6A3C6A3E6AF7
:10153000406A426A446A466A486A4A6A4C6A080EC5
:10154000E8CF3BF0E8CF3DF0E8CF3FF0E8CF41F007
:10155000E8CF43F0E8CF45F0E8CF47F0E8CF49F0D7
:10156000E8CF4BF0E8CF4DF0858E000154500F01CD
:10157000E8CFBBFF000155500F01E8CFBCFF0A0EBA
:101580000F01E8CFBAFF0F01A0800F019E900F015D
:10159000080EE8CFB1FFB18012000001F5A1857EF1
:1015A0000201BAAFD7EF0AF08770DFEF0AF000014F
:1015B000EBB1DEEF0AF08780DFEF0AF087900001E1
:1015C000BBCFE8FF5026BCCFE8FF512250C0E8FF58
:1015D000E8CFBBFF51C0E8FFE8CFBCFF0001E86ADD
:1015E0004E6458EC0BF000014E2A4EC0E8FFFE0B93
:1015F0004F600EEF0BF04E6A38C0E8FFE8CF50F0B6
:1016000052C0E8FF505E39C0E8FFE8CF51F053C048
:10161000E8FF515A526A536A55EF0BF04EA023EF80
:101620000BF054C0E8FFE8CF50F055C0E8FFE8CF1A
:1016300051F0BAC2E8FF0001EB814E624FEF0BF0B0
:10164000EB914FEF0BF0120E4E623BEF0BF052C0DE
:10165000E8FFE8CF50F053C0E8FFE8CF51F0513237
:1016600050325132503251325032513250320F0ECC
:1016700051164FEF0BF0040EE8CFEAFF000EE8CF53
:10168000E9FF4EC0E8FFE830E89EE804E92600ECF8
:1016900002F054C0E8FF505E55C0E8FF515A50C0F8
:1016A000E8FF522651C0E8FF53220F01A19012001B
:1016B000D1EC11F0DBEC11F00001010E366267EFA6
:1016C0000BF000018286C3B18296FF0EC36F030147
:1016D000CDBF70EF0BF00001F5A1859E73EF0BF00D
:1016E0000001F5A1858E0201BAAF7EEF0BF0BAB111
:1016F0007DEF0BF087907EEF0BF087800001572E77
:10170000C5EF0BF0D8EC2DF0000156A0B4EF0BF0B4
:101710000001FF0EED63B4EF0BF05AC0E8FF5B1061
:10172000D8B4ACEF0BF05A6699EF0BF03C0E5A6E42
:101730005B065A065A505C6E0301E86ABD11D8B4C4
:10174000ACEF0BF000015A505B10D8B4ACEF0BF0CB
:10175000D06BD16BB4EF0BF00001D02B3C0ED063FB
:10176000B4EF0BF0D06BD12BD4C2E8FFE8CF57F029
:10177000582A3C0E5862C5EF0BF0586A592A0501E9
:10178000002BD8B4012B0201B8690201A1A1CEEF50
:101790000BF0530E10EC12F00001AE6B83CFE8FF9C
:1017A0000001311AD8A4306E316E30C0E8FF321219
:1017B000E81EF91332C0E8FFF91784CFE8FF0001F3
:1017C000341AD8A4336E346E33C0E8FF3512E81EE5
:1017D000FA1335C0E8FFFA17000160676007616718
:1017E000610762676207A767A707A867A807A967D5
:1017F000A9075E66FDEF0BF012005E2E12008078E6
:101800005F4E12005DC0E8FFE8CF5EF01200E8CF47
:101810005DF0E8CF5EF0D2C2E8FFE86616EF0CF0AC
:10182000809802C5E8FFE86680781200808802C5CB
:10183000E8FFE8668078120000010ABE23EF0CF092
:10184000819E24EF0CF0818E828A829A0A460B2EAA
:101850001CEF0CF012000201AD510A6E080E0B6E67
:101860001CEC0CF00201AC510A6E080E0B6E1CEC65
:101870000CF00201AB510A6E080E0B6E1CEC0CF062
:101880008686869612000BC113F00CC114F00DC1B0
:1018900015F009C117F00AC118F03AEC15F0020171
:1018A000A55101010F03F35000011326D8B0142AEB
:1018B000D8B0152A0101006B016B026B00011350B7
:1018C000E846E846E880E8921F0B13B6E88E01016F
:1018D000006F0001133614361536133614361536DC
:1018E00013361436153613361436153614500101D6
:1018F000016F000115501F0B01011009026F12004A
:1019000043EC0CF0010108510A6E080E0B6E1CEC42
:101910000CF0010107510A6E080E0B6E1CEC0CF066
:10192000010106510A6E080E0B6E1CEC0CF0868647
:101930008696010105510A6E080E0B6E1CEC0CF028
:10194000010104510A6E080E0B6E1CEC0CF0010133
:1019500003510A6E080E0B6E1CEC0CF08686869600
:10196000010102510A6E080E0B6E1CEC0CF0010115
:1019700001510A6E080E0B6E1CEC0CF001010051B7
:101980000A6E080E0B6E1CEC0CF086868696120012
:101990000F01939E949A939C819C819E829A989623
:1019A00086960201010ED163F5EF0CF004C206F138
:1019B00005C207F106C208F101C203F102C204F137
:1019C00003C205F10101700E0B6FC60E0C6F000E05
:1019D0000D6F0101140E096F000E0A6F01010E6BED
:1019E0000A0E106F010E0F6F1200020ED16318EF76
:1019F0000DF00AC206F10BC207F10CC208F107C2D2
:101A000003F108C204F109C205F101016C0E0B6F6C
:101A1000CF0E0C6F000E0D6F0101140E096F000E3A
:101A20000A6F01010E6B080E106F050E0F6F12008A
:101A3000030ED1633CEF0DF010C206F111C207F1A5
:101A400012C208F10DC203F10EC204F10FC205F17A
:101A500001014A0E0B6F190E0C6F010E0D6F010183
:101A60000A0E096F000E0A6F01010B0E0E6F320E87
:101A7000106F020E0F6F1200120087B25BEF0DF0B5
:101A8000D5AE4DEF0DF0D6CFC7F0D7CFC8F00001DF
:101A9000C92BD8B4CA2BF09012000001C951CA1149
:101AA000F090D8A41200E86AE8CFD7FFE8CFD6FFBD
:101AB000D58EF0901200F17AF0AC6DEF0DF00301CD
:101AC000CDA169EF0DF0F1AA858EF1BA859E6DEF7B
:101AD0000DF0F1AA859EF1BA858EF09012000000FB
:101AE000E82E6FEF0DF012000A6EFA0E6FEC0DF09B
:101AF000FA0E6FEC0DF00A2E75EF0DF01200050EC8
:101B0000E26EE86AE16EE86AAA6EE86AA96EA69ECD
:101B1000A69CA680A850E66EA92AF9E112000EC084
:101B2000E8FFE26E0DC0E8FFE16EE86AAA6E0DC044
:101B3000E8FFA96EA69EA69CA680A850E66EA92ADC
:101B40000A06F8E112000EC0E8FFAA6E0DC0E8FF19
:101B5000A96EA69EA69CA680A8501200A198A86E69
:101B60000EC0E8FFAA6E0DC0E8FFA96EA69EA69C57
:101B7000A684F29E550EA76EAA0EA76EA682F28EBE
:101B8000A1A8C0EF0DF0A19812000FC0E8FFAEECC5
:101B90000DF000010D2AD8B40E2A10C0E8FFAEECFB
:101BA0000DF012000EC0E8FFE26E0DC0E8FFE16E1E
:101BB000E86AAA6E0DC0E8FFA96EA198E650A86E6B
:101BC000A69EA69CA684F29E550EA76EAA0EA76E90
:101BD000A682F28EA1A8EAEF0DF0A198A92A0A0622
:101BE000EDE11200800E12EC10F0000EF86E850E82
:101BF000F76E4E0EF66EBCEC10F0FA0E74EC0DF0B3
:101C0000C00E12EC10F0000EF86E840EF76ECA0EC5
:101C1000F66EBCEC10F0C2EC30F0D8A01200C00E92
:101C200012EC10F0000EF86E850EF76E600EF66E78
:101C3000BCEC10F0EFEC3EF068EC25F00001600E1B
:101C4000A46F00C2E8FFF9EC25F00201002B0301AC
:101C5000072B3A0E076330EF0EF0062B300E076F9E
:101C60000001A42F21EF0EF043EC25F000C2E8FFA5
:101C7000CEEC25F012000001030EBC19D8B445EFDC
:101C80000EF0040EBC19D8A41200600EE8CF0CF0C0
:101C90000001BA6BBB513F0B880FB96F050EBA2319
:101CA000BBC013F0BCC014F0156AC00E1316030EAF
:101CB000145E000E1326010E1422010E15220001DF
:101CC000880E0D6E050E0E6E400EE8CF0AF087EC02
:101CD0000EF0010EE8CF0AF09EEC0EF0BDC00AF047
:101CE0008EEC2AF00AC0BDF00001880E0D6E050EC4
:101CF0000E6E010EE8CF0AF0BBEC0EF00001020EF2
:101D00001426D8B4152A0C2E5FEF0EF01200000135
:101D10001550F86E1450F76E1350F66E00010E5009
:101D2000E26E0D50E16E0900F550E66E0A060900FC
:101D3000F550E66E0A2E93EF0EF0120000011550DA
:101D4000F86E1450F76E1350F66EA68EA69CA684FD
:101D5000A688F29E550EA76EAA0EA76EA682000058
:101D6000F28E0A4E12000001400E1326000E1422BD
:101D700015229EEF0EF062EC03F000011550F86E94
:101D80001450F76E1350F66EA68EA69CA684A688F5
:101D9000F29E550EA76EAA0EA76EA682F28E0A00BC
:101DA00000010E50E26E0D50E16E400E0B6EE6CF5C
:101DB000E8FFF56E0F000B2EFAD7A68EA69CA68420
:101DC000F29E550EA76EAA0EA76EA682F28EA6945C
:101DD0000A4E12000001400E1326000E1422152296
:101DE0000001400E0D26000E0E22BBEF0EF000018A
:101DF0001550F86E1450F76E1350F66EA68EA69C12
:101E0000A684A688F29E550EA76EAA0EA76EA6827D
:101E10000000F28E0A00080E0B6E00010E50E26EFA
:101E20000D50E16E080E0C6EE6CFE8FFF56E0F0068
:101E30000C2EFAD7A68EA69CA684F29E550EA76EEF
:101E4000AA0EA76EA6820000F28E0B2EEBD7A694E8
:101E50000001400E1326000E142215220001400E30
:101E60000D26000E0E220A2EF7EF0EF012000F01C3
:101E70009A6A886A9396939A93988186818A8188D0
:101E8000140E74EC0DF003C5E8FFE81EE86688EF59
:101E90000FF0390E12EC10F0050E74EC0DF0390E47
:101EA00012EC10F0010E74EC0DF0390E12EC10F083
:101EB000010E74EC0DF0390E12EC10F01C0E12EC49
:101EC00010F0520E12EC10F0690E12EC10F0740EBD
:101ED00012EC10F00C0E12EC10F0010E12EC10F0DF
:101EE000060E12EC10F0380E12EC10F0400E12EC50
:101EF00010F0400EE8CF0AF0000EF86E200EF76EDC
:101F0000EE0EF66E0AC0E8FFBFEC10F0B9EF0FF06E
:101F1000380E12EC10F0050E74EC0DF0380E12ECC9
:101F200010F0010E74EC0DF0380E12EC10F0010EF2
:101F300074EC0DF0380E12EC10F0060E12EC10F0EE
:101F40000C0E12EC10F0010E12EC10F0800E12ECE0
:101F500010F0400E12EC10F0400EE8CF0AF0000E28
:101F6000F86E200EF76EEE0EF66E0AC0E8FFBFECBC
:101F700010F0800E12EC10F0840EF76E5E0EF66E0E
:101F8000BCEC10F0C00E12EC10F0840EF76E700E68
:101F9000F66EBCEC10F012000101F30E4163D4EFB9
:101FA0000FF06F0E416F1200F20E4163DAEF0FF087
:101FB000D1EF0FF0E00E4163E1EF0FF0610E416FE2
:101FC0001200E90E4163E8EF0FF0650E416F120059
:101FD000E70E4163EFEF0FF0630E416F1200ED0E5D
:101FE0004163F6EF0FF0690E416F1200E80E416396
:101FF000FDEF0FF0650E416F1200FA0E4163120003
:10200000750E416F120021EC10F044EC10F0818A43
:102010008198000000008186000000008196000089
:102020000000120021EC10F044EC10F0819A81982D
:102030000000000081860000000081960000000082
:10204000120028EC10F0D8B021EF10F09A6A1200BC
:102050009A688188819A0000000081860000000053
:10206000D890E8CF41F102C5E8FFE8663EEF10F0F6
:1020700088BED880819641C1E8FF120088B0D88020
:10208000819641C1E8FF1200886E02C5E8FFE81E94
:10209000E866120088CFE8FF886AE8B08888E8B26E
:1020A000888AE8B4888CE8B6888EE8B88886E8BA6A
:1020B0008884E8BC8882E8BE8880120003C5E8FFF7
:1020C000E81EE8661200390E12EC10F0E1C2E8FFDB
:1020D000E83A030B500912EC10F0E1C2E8FF0F0BD5
:1020E000700912EC10F0380E12EC10F01200101003
:1020F00010101010101018181818181818181C1C88
:102100001C1C1C1C1C1C1E1E1E1E1E1E1E1E010135
:102110000101010101010303030303030303070793
:102120000707070707070F0F0F0F0F0F0F0F1F1FCF
:102130001F1F1F1F1F1F800E12EC10F00DC0F6FF97
:102140000EC0F7FFF86ABCEC10F01200C00E12ECE3
:1021500010F00DC0F6FF0EC0F7FFF86ABCEC10F0EF
:102160001200C00E12EC10F0D4C0F6FFD5C0F7FF7D
:10217000F86ABCEC10F01200100EBFEF10F00A6EFF
:102180000900F5CFE8FFE812D8B4120003EC10F014
:102190000A4E1200C0EF10F00A6E080E0B6E300EE1
:1021A0000ABE310E03EC10F00A360B2ECFEF10F002
:1021B00012000A6E3A0E0B6E0AC0E8FFF00BE842FE
:1021C000E842E842E84230090B64070F03EC10F0E4
:1021D0000AC0E8FF0F0B30090B64070F03EC10F087
:1021E0000AC0E8FF1200000EE8CF15F0E8CF16F0A5
:1021F0000001200E14BE2D0E03EC10F0000114AEF1
:102200001200131E141E132AD8B4142A120053EC01
:1022100011F0255003EC10F0265003EC10F027507D
:1022200003EC10F0285003EC10F0295003EC10F0F0
:10223000120053EC11F00CEF11F053EC11F00FEF12
:1022400011F053EC11F012EF11F053EC11F015EF07
:1022500011F053EC11F03DEC11F0255003EC10F0AF
:10226000265003EC10F0275003EC10F0285003EC3C
:1022700010F0295003EC10F012000001300E25621E
:102280001200200E256E300E26621200200E266EE1
:10229000300E27621200200E276E300E28621200C8
:1022A000200E286E12000001196A1A6A100E176EAD
:1022B000270E186E3AEC15F0300E1310256E1BC069
:1022C00013F01CC014F01DC015F01EC016F0196AE2
:1022D0001A6AE80E176E030E186E3AEC15F0300EFF
:1022E0001310266E1BC013F01CC014F01DC015F097
:1022F0001EC016F0196A1A6A640E176E000E186E68
:102300003AEC15F0300E1310276E1BC013F01CC0F2
:1023100014F01DC015F01EC016F0196A1A6A0A0ED4
:10232000176E000E186E3AEC15F0300E1310286E72
:10233000300E1B10296E12000001310E3762A5EF1E
:1023400011F043EC25F0CFEF11F0320E3762AFEF12
:1023500011F000C2E8FFCEEC25F0CFEF11F0330E04
:102360003762B7EF11F068EC25F0CFEF11F0340EC3
:102370003762BFEF11F000C2E8FFF9EC25F0350E2F
:102380003762CFEF11F00001FF0E0D6E030E0E6EDF
:10239000E8CF0EF0FF0EAEEC0DF0CFEF11F0376A84
:1023A00012000F01ABA21200AB98AB880F01AE5028
:1023B0000001636B12000F016BA212006B986B8817
:1023C0000F016E5012000C0EE8CFAFFF220EE8CFC7
:1023D000ACFF900EE8CFABFF0001636B9F9A9D8A24
:1023E0001200ACA2F1EF11F0E8CFADFF12000C0E1D
:1023F000E8CF6FFFD6C2E8FFE86602EF12F0030EE7
:10240000E8CF6FFF7C96260EE8CF6CFF900EE8CFEA
:102410006BFFA59AA38A12006CA20CEF12F01200B7
:102420006CA210EF12F0E8CF6DFF1200E1CF21F0A7
:10243000E2CF22F0000167C0E1FF000166C0E2FFC9
:102440006A6BACA221EF12F0E6CFE8FF00016A2729
:10245000E8CFADFF0001682F21EF12F021C0E1FFAE
:1024600022C0E2FF1200E1CF21F0E2CF22F0000112
:1024700067C0E1FF000166C0E2FF6A6B0001050E64
:10248000606FE86A606552EF12F09EAA42EF12F0A8
:10249000AECFE8FFE8CFE6FF00016A270001682F12
:1024A0003EEF12F021C0E1FF22C0E2FF12009EAA1F
:1024B00012000001000E63636AEF12F0AECFE8FF76
:1024C000E8CF64F0550E64631200280EE8CF61F087
:1024D000632B1200010E636374EF12F0AECFE8FFBE
:1024E000E8CF65F0632B1200020E63637EEF12F0FB
:1024F000AECFE8FFE8CF66F0632B1200030E6363F4
:1025000088EF12F0AECFE8FFE8CF67F0632B120040
:10251000040E636391EF12F0AECFE8FFE8CF68F0EE
:10252000632B050E63639DEF12F0010E65639BEF55
:1025300012F033EC12F0632B1200060E6363C0EF4F
:1025400012F0AECFE8FFE8CF69F0020E6563B1EF9D
:1025500012F016EC12F06AC0E8FFF1EC11F0636BB8
:1025600012006AC0E8FF6963BBEF12F00C0EF1ECD9
:1025700011F0636B12000D0EF1EC11F0636B1200A1
:10258000636B1200A4AA12006ECFE8FF0201A1B192
:1025900005EF13F0530AD8A412000201A0A1120003
:1025A00000010F0E7615100910EC12F075C0E8FF4F
:1025B00010EC12F00CEC12F0050E6FEC0DF00001B7
:1025C0000F0E7815200910EC12F0775110EC12F074
:1025D0000CEC12F0050E6FEC0DF000010F0E7A15E9
:1025E000300910EC12F0795110EC12F00CEC12F0F2
:1025F000050E6FEC0DF000010F0E7C15400910EC7C
:1026000012F07B5110EC12F012000001AEB10CEF91
:1026100013F0B06FAE2B1200AF6FAE2B020EAE6395
:1026200025EF13F0B051F00B100AD8A46AEF13F0A5
:102630000F0EB017B0A71FEF13F0F00EB013AFC01E
:10264000B1F0B0C0B2F06AEF13F0040EAE633CEF2D
:1026500013F0B051F00B200AD8A46AEF13F00F0E5C
:10266000B017B0A736EF13F0F00EB013AFC0B3F051
:10267000B0C0B4F06AEF13F0060EAE6353EF13F080
:10268000B051F00B300AD8A46AEF13F00F0EB01758
:10269000B0A74DEF13F0F00EB013AFC0B5F0B0C05F
:1026A000B6F06AEF13F0080EAE636AEF13F0B051A4
:1026B000F00B400AD8A46AEF13F00F0EB017B0A7C2
:1026C00064EF13F0F00EB013AFC0B7F0B0C0B8F0C5
:1026D0006AEF13F01200D6C2E8FFE81EE8661200A7
:1026E000AA0E10EC12F0AA0E10EC12F00A6A0B6A95
:1026F000040EE26E000EE16E0AC0E8FFE3CF0DF0BB
:10270000000EE26E3A0EE16E0DC0E8FFE806D890CA
:10271000E836E3CF0DF0E82AE3CF0EF000010E3AE1
:10272000F00E0E160AC0E8FFE82A0E120E3A0BC091
:10273000E8FF0D240E24E8CF0BF00DC0E8FF10ECED
:1027400012F00EC0E8FF10EC12F00A2A080E0A6020
:10275000B1EF13F049C4E8FFD890E8320A6478EF8B
:1027600013F00BC0E8FF10EC12F0ED0E10EC12F0BD
:10277000ED0E10EC12F012000001EF67CAEF13F03B
:102780007E960C0E0F01AF6E220EAC6E900EE8CF4F
:10279000ABFF12007C960C0E0F016F6E220E6C6E5A
:1027A000900EE8CF6BFF12000001E80E0D26030E1D
:1027B0000E220EAEE1EF13F0E86AE8CF0DF0E8CF9D
:1027C0000EF0780E0D5C070E0E58D8A0EBEF13F04C
:1027D000EF0EF2EF13F00E320D320E320D320E32DA
:1027E0000D320D500001EF6710EF12F0F1EF11F014
:1027F00000010EAE01EF14F0E86AE8CF0DF0E8CF6B
:102800000EF0BC0E0D5C030E0E58D8A0EDEF13F0C9
:10281000EF0EF2EF13F0F00EF2EC13F0800EF2EC8C
:1028200013F075C00DF076C00EF0D4EC13F077C045
:102830000DF078C00EF0D4EC13F079C00DF07AC032
:102840000EF0D4EC13F07BC00DF07CC00EF0F8EC71
:1028500013F07DC00DF07EC00EF0D4EC13F07FC0FD
:102860000DF080C00EF0D4EC13F0120047EC14F021
:1028700010AE3FEF14F00D50155E0E50165A0EAE0E
:1028800046EF14F00F50155E1050165A120000015A
:10289000136A146A156A166A0F500D02F3CF13F00B
:1028A000F4CF14F00F500E02F3501426F4501522FA
:1028B000D8B0162A10500D02F3501426F4501522E9
:1028C000D8B0162A10500E02F3501526F4501622D6
:1028D00012000001246A1B6A14501310D8B4000CB3
:1028E00014501718E8BE241EAA6B000E17AE7BEF1B
:1028F00014F0171E172A14AE82EF14F0131E141EC4
:10290000132A142214501710E8BE0EEF15F01750BA
:102910001B5E143614341B3617501B261436143421
:102920001B36175014B01B5E14A01B26143614342B
:102930001B36175014B01B5E14A01B26143614341B
:102940001B36175014B01B5E14A01B26143614340B
:102950001B36175014B01B5E14A01B2614361434FB
:102960001B36175014B01B5E14A01B2614361434EB
:102970001B36175014B01B5E14A01B2614361334DC
:102980001B36175014B01B5E14A01B2613361334CD
:102990001B36175013B01B5E13A01B2613361334BF
:1029A0001B36175013B01B5E13A01B2613361334AF
:1029B0001B36175013B01B5E13A01B26133613349F
:1029C0001B36175013B01B5E13A01B26133613348F
:1029D0001B36175013B01B5E13A01B26133613347F
:1029E0001B36175013B01B5E13A01B26133613346F
:1029F0001B36175013B01B5E13A01B26133613A0F3
:102A00001B26AAB12CEF15F024AE000C131E141EC9
:102A1000E86A132A14221B1E1B2A000C17AE27EF8C
:102A200015F014BE23EF15F0E8CFA3F01350E8CF54
:102A30001BF01B9E133614361450E8CF13F0A3512D
:102A4000146A04EF15F0136A132A146A000C141E9A
:102A5000131EAA2B87EF14F01B2A17501B6204EFDA
:102A600015F01B6A000E132A142214AE04EF15F0A1
:102A70002388FF0C0001246A1C6A1B6A155014107D
:102A80001310D8B4000C15501818E8BE241EAA6BF9
:102A9000000E18AE50EF15F0171E181E172A182238
:102AA00015AE59EF15F0131E141E151E132A14220D
:102AB000152215501810E8BEE3EF16F017501B5EF4
:102AC00018501C5A153615341B361C3617501B2649
:102AD00018501C22153615341B361C36175015A0FD
:102AE00077EF15F01B5E18501C5A7AEF15F01B2675
:102AF00018501C22153615341B361C36175015A0DD
:102B000087EF15F01B5E18501C5A8AEF15F01B2634
:102B100018501C22153615341B361C36175015A0BC
:102B200097EF15F01B5E18501C5A9AEF15F01B26F4
:102B300018501C22153615341B361C36175015A09C
:102B4000A7EF15F01B5E18501C5AAAEF15F01B26B4
:102B500018501C22153615341B361C36175015A07C
:102B6000B7EF15F01B5E18501C5ABAEF15F01B2674
:102B700018501C22153615341B361C36175015A05C
:102B8000C7EF15F01B5E18501C5ACAEF15F01B2634
:102B900018501C22153614341B361C36175015A03D
:102BA000D7EF15F01B5E18501C5ADAEF15F01B26F4
:102BB00018501C22143614341B361C36175014A01F
:102BC000E7EF15F01B5E18501C5AEAEF15F01B26B4
:102BD00018501C22143614341B361C36175014A0FF
:102BE000F7EF15F01B5E18501C5AFAEF15F01B2674
:102BF00018501C22143614341B361C36175014A0DF
:102C000007EF16F01B5E18501C5A0AEF16F01B2631
:102C100018501C22143614341B361C36175014A0BE
:102C200017EF16F01B5E18501C5A1AEF16F01B26F1
:102C300018501C22143614341B361C36175014A09E
:102C400027EF16F01B5E18501C5A2AEF16F01B26B1
:102C500018501C22143614341B361C36175014A07E
:102C600037EF16F01B5E18501C5A3AEF16F01B2671
:102C700018501C22143614341B361C36175014A05E
:102C800047EF16F01B5E18501C5A4AEF16F01B2631
:102C900018501C22143613341B361C36175014A03F
:102CA00057EF16F01B5E18501C5A5AEF16F01B26F1
:102CB00018501C22133613341B361C36175013A021
:102CC00067EF16F01B5E18501C5A6AEF16F01B26B1
:102CD00018501C22133613341B361C36175013A001
:102CE00077EF16F01B5E18501C5A7AEF16F01B2671
:102CF00018501C22133613341B361C36175013A0E1
:102D000087EF16F01B5E18501C5A8AEF16F01B2630
:102D100018501C22133613341B361C36175013A0C0
:102D200097EF16F01B5E18501C5A9AEF16F01B26F0
:102D300018501C22133613341B361C36175013A0A0
:102D4000A7EF16F01B5E18501C5AAAEF16F01B26B0
:102D500018501C22133613341B361C36175013A080
:102D6000B7EF16F01B5E18501C5ABAEF16F01B2670
:102D700018501C22133613341B361C36175013A060
:102D8000C7EF16F01B5E18501C5ACAEF16F01B2630
:102D900018501C22133613B0D2EF16F017501B2612
:102DA00018501C22AAB107EF17F024AE000C131E16
:102DB000141E151E000E132A142215221B1E1C1E83
:102DC0001B2A1C22000C18AE01EF17F015BEFCEFF9
:102DD00016F0E8CFA3F01450E8CF1CF01350E8CF62
:102DE0001BF01C9E143615361550E8CF13F0A35176
:102DF000156A146AD5EF16F0136A132A146A156A55
:102E0000000C151E141E131EAA2B5EEF15F01B2AB4
:102E1000E86A1C2217501B62D5EF16F018501C628E
:102E2000D5EF16F01C6A1B6A000E132A1422152215
:102E300015AED5EF16F02388FF0C00011E6A1D6A3F
:102E40001C6A1B6A16341B361C361D361E3617507C
:102E50001B5E18501C5A19501D5A1A501E5AAA6B44
:102E6000AA5B163616341B361C361D361E36AA379C
:102E7000175016A047EF17F01B5E18501C5A195038
:102E80001D5A1A501E5AE86AAA5B50EF17F01B260B
:102E900018501C2219501D221A501E22E86AAA231B
:102EA000163616341B361C361D361E36AA371750FA
:102EB00016A066EF17F01B5E18501C5A19501D5AC9
:102EC0001A501E5AE86AAA5B6FEF17F01B261850BB
:102ED0001C2219501D221A501E22E86AAA231636F7
:102EE00016341B361C361D361E36AA37175016A050
:102EF00085EF17F01B5E18501C5A19501D5A1A50B6
:102F00001E5AE86AAA5B8EEF17F01B2618501C2287
:102F100019501D221A501E22E86AAA2316361634AA
:102F20001B361C361D361E36AA37175016A0A4EFC6
:102F300017F01B5E18501C5A19501D5A1A501E5A71
:102F4000E86AAA5BADEF17F01B2618501C22195037
:102F50001D221A501E22E86AAA23163616341B3682
:102F60001C361D361E36AA37175016A0C3EF17F0B1
:102F70001B5E18501C5A19501D5A1A501E5AE86AE6
:102F8000AA5BCCEF17F01B2618501C2219501D22EB
:102F90001A501E22E86AAA23163616341B361C362F
:102FA0001D361E36AA37175016A0E2EF17F01B5E2B
:102FB00018501C5A19501D5A1A501E5AE86AAA5B1A
:102FC000EBEF17F01B2618501C2219501D221A5027
:102FD0001E22E86AAA23163616341B361C361D3606
:102FE0001E36AA37175016A001EF18F01B5E1850B6
:102FF0001C5A19501D5A1A501E5AE86AAA5B0AEF49
:1030000018F01B2618501C2219501D221A501E227F
:10301000E86AAA23163615341B361C361D361E36B2
:10302000AA37175016A020EF18F01B5E18501C5A34
:1030300019501D5A1A501E5AE86AAA5B29EF18F057
:103040001B2618501C2219501D221A501E22E86AF5
:10305000AA23153615341B361C361D361E36AA37E4
:10306000175015A03FEF18F01B5E18501C5A19504E
:103070001D5A1A501E5AE86AAA5B48EF18F01B2620
:1030800018501C2219501D221A501E22E86AAA2329
:10309000153615341B361C361D361E36AA3717500A
:1030A00015A05EEF18F01B5E18501C5A19501D5ADF
:1030B0001A501E5AE86AAA5B67EF18F01B261850D0
:1030C0001C2219501D221A501E22E86AAA23153606
:1030D00015341B361C361D361E36AA37175015A060
:1030E0007DEF18F01B5E18501C5A19501D5A1A50CB
:1030F0001E5AE86AAA5B86EF18F01B2618501C229D
:1031000019501D221A501E22E86AAA2315361534BA
:103110001B361C361D361E36AA37175015A09CEFDD
:1031200018F01B5E18501C5A19501D5A1A501E5A7E
:10313000E86AAA5BA5EF18F01B2618501C2219504C
:103140001D221A501E22E86AAA23153615341B3692
:103150001C361D361E36AA37175015A0BBEF18F0C7
:103160001B5E18501C5A19501D5A1A501E5AE86AF4
:10317000AA5BC4EF18F01B2618501C2219501D2200
:103180001A501E22E86AAA23153615341B361C363F
:103190001D361E36AA37175015A0DAEF18F01B5E41
:1031A00018501C5A19501D5A1A501E5AE86AAA5B28
:1031B000E3EF18F01B2618501C2219501D221A503C
:1031C0001E22E86AAA23153615341B361C361D3616
:1031D0001E36AA37175015A0F9EF18F01B5E1850CD
:1031E0001C5A19501D5A1A501E5AE86AAA5B02EF5F
:1031F00019F01B2618501C2219501D221A501E228D
:10320000E86AAA23153614341B361C361D361E36C2
:10321000AA37175015A018EF19F01B5E18501C5A4A
:1032200019501D5A1A501E5AE86AAA5B21EF19F06C
:103230001B2618501C2219501D221A501E22E86A03
:10324000AA23143614341B361C361D361E36AA37F4
:10325000175014A037EF19F01B5E18501C5A195064
:103260001D5A1A501E5AE86AAA5B40EF19F01B2635
:1032700018501C2219501D221A501E22E86AAA2337
:10328000143614341B361C361D361E36AA3717501A
:1032900014A056EF19F01B5E18501C5A19501D5AF5
:1032A0001A501E5AE86AAA5B5FEF19F01B261850E5
:1032B0001C2219501D221A501E22E86AAA23143615
:1032C00014341B361C361D361E36AA37175014A070
:1032D00075EF19F01B5E18501C5A19501D5A1A50E0
:1032E0001E5AE86AAA5B7EEF19F01B2618501C22B2
:1032F00019501D221A501E22E86AAA2314361434CB
:103300001B361C361D361E36AA37175014A094EFF4
:1033100019F01B5E18501C5A19501D5A1A501E5A8B
:10332000E86AAA5B9DEF19F01B2618501C22195061
:103330001D221A501E22E86AAA23143614341B36A2
:103340001C361D361E36AA37175014A0B3EF19F0DD
:103350001B5E18501C5A19501D5A1A501E5AE86A02
:10336000AA5BBCEF19F01B2618501C2219501D2215
:103370001A501E22E86AAA23143614341B361C364F
:103380001D361E36AA37175014A0D2EF19F01B5E57
:1033900018501C5A19501D5A1A501E5AE86AAA5B36
:1033A000DBEF19F01B2618501C2219501D221A5051
:1033B0001E22E86AAA23143614341B361C361D3626
:1033C0001E36AA37175014A0F1EF19F01B5E1850E3
:1033D0001C5A19501D5A1A501E5AE86AAA5BFAEF75
:1033E00019F01B2618501C2219501D221A501E229B
:1033F000E86AAA23143613341B361C361D361E36D3
:10340000AA37175014A010EF1AF01B5E18501C5A60
:1034100019501D5A1A501E5AE86AAA5B19EF1AF081
:103420001B2618501C2219501D221A501E22E86A11
:10343000AA23133613341B361C361D361E36AA3704
:10344000175013A02FEF1AF01B5E18501C5A19507A
:103450001D5A1A501E5AE86AAA5B38EF1AF01B264A
:1034600018501C2219501D221A501E22E86AAA2345
:10347000133613341B361C361D361E36AA3717502A
:1034800013A04EEF1AF01B5E18501C5A19501D5A0B
:103490001A501E5AE86AAA5B57EF1AF01B261850FA
:1034A0001C2219501D221A501E22E86AAA23133624
:1034B00013341B361C361D361E36AA37175013A080
:1034C0006DEF1AF01B5E18501C5A19501D5A1A50F5
:1034D0001E5AE86AAA5B76EF1AF01B2618501C22C7
:1034E00019501D221A501E22E86AAA2313361334DB
:1034F0001B361C361D361E36AA37175013A08CEF0C
:103500001AF01B5E18501C5A19501D5A1A501E5A98
:10351000E86AAA5B95EF1AF01B2618501C22195076
:103520001D221A501E22E86AAA23133613341B36B2
:103530001C361D361E36AA37175013A0ABEF1AF0F3
:103540001B5E18501C5A19501D5A1A501E5AE86A10
:10355000AA5BB4EF1AF01B2618501C2219501D222A
:103560001A501E22E86AAA23133613341B361C365F
:103570001D361E36AA37175013A0CAEF1AF01B5E6D
:1035800018501C5A19501D5A1A501E5AE86AAA5B44
:10359000D3EF1AF01B2618501C2219501D221A5066
:1035A0001E22E86AAA23133613341B361C361D3636
:1035B0001E36AA37175013A0E9EF1AF01B5E1850F9
:1035C0001C5A19501D5A1A501E5AE86AAA5BF2EF8B
:1035D0001AF01B2618501C2219501D221A501E22A8
:1035E000E86AAA23133613B0FEEF1AF017501B2611
:1035F00018501C2219501D221A501E22000C4C205B
:103600002041696C20207878782520202052552090
:1036100020456C65202078787825202020444C2097
:1036200020527564202078787825202020524C2064
:103630002054687420207878782520202048412064
:1036400020434835202078787825202020425520B6
:1036500020434836202078787825202020445520A3
:1036600020434837202078787825202020444320A4
:103670002043483820207878782520202041456C48
:10368000657661746F7220202020202020204169FF
:103690006C65726F6E202020202020202020527523
:1036A000646465722020202020202020202054687F
:1036B000726F74746C6520202020202020204348E5
:1036C000352020202020202020202020202043489A
:1036D0003620202020202020202020202020434889
:1036E0003720202020202020202020202020434878
:1036F00038202020202020202020202020200001F1
:10370000FE0E0D6E350E0E6E5EC1E8FFE83A00014A
:103710000D26D8B00E2A9BEC10F0C9EC1BF0D8B0E7
:10372000C1EF1BF00F01750EE16E000EE26E5EC17F
:10373000E8FF070BE846E126D8B0E22AE650E8CFDA
:103740000DF0E650E8CF0EF00DC013F00EC014F0EF
:103750000A0E176E69EC14F0870E12EC10F0F3EC01
:1037600010F01DEC11F0E1CFE8FF7D0AD8A4BDEF09
:103770001BF0C1EC41F0C1EF1BF0E3EC40F048EC72
:1037800041F031EC25F00101D8B05E2B0F0E5E1731
:103790001200D8905EC1E8FFE8A612000F013C0EAF
:1037A000E16E000EE26E5EC1E8FF070BE846E1261F
:1037B000D8B0E22AE650E8CF13F0E550E8CF14F095
:1037C000890E12EC10F014EC1CF0E650E8CF0DF06E
:1037D000E550E8CF0EF0EFEC1BF0D88012000001AE
:1037E000AEC2E8FF0D5EAFC2E8FF0E5A0001E80E60
:1037F0000F6E030E106E36EC14F0B0C217F0B1C2AB
:1038000018F00001AEC2E8FF175EAFC2E8FF185A19
:103810003AEC15F0C00E12EC10F013C00DF014C00D
:103820000EF0C1EC41F012000001D89014321332B6
:10383000156A166A53EC11F0265003EC10F02E0EA8
:1038400003EC10F0275003EC10F0285003EC10F0BC
:10385000295003EC10F06D0E03EC10F0530E03EC46
:1038600010F012000F01D89083B6D880D8B03EEF88
:103870001CF00A0E74EC0DF00F01D89083B6D880BE
:10388000D8B0B4EF1CF00F01D89084B2D880D8B073
:103890004FEF1CF00A0E74EC0DF00F01D89084B2BB
:1038A000D880D8B0B4EF1CF00001D26776EF1CF0DE
:1038B0000001D269030132C30DF033C30EF00001E1
:1038C000E80E0F6E030E106E36EC14F014C01CF1EF
:1038D00015C01DF10301345101011C2703013551AD
:1038E00001011D2334C31AF135C31BF154EC33F02D
:1038F000D8B087EF1CF0D8A48EEF1CF001011A0796
:10390000D8A01B071A07D8A01B078EEF1CF00101D7
:103910001A2BD8B41B2B1A2BD8B41B2B1CC10DF09F
:103920001DC10EF001011A5100010D5E01011B5174
:1039300000010E5A0001000E0F6E010E106E36ECE3
:1039400014F00001E80E176E030E186E3AEC15F035
:1039500013C032F314C033F31AC134F31BC135F36F
:103960003DEC20F0D88412000001D267BAEF1CF0C1
:10397000D8941200D26B43EC26F0D89412000001C8
:103980006B51E8CF0DF06C51E8CF0EF06F510D5E2A
:1039900070510E5AD8A0DCEF1CF06D51E8CF0FF03B
:1039A0006E51E8CF10F036EC14F01450E8CF73F0FD
:1039B0001550E8CF74F012007151E8CF0FF072513A
:1039C000E8CF10F036EC14F01450E8CF73F0155037
:1039D000E8CF74F012006BC00DF06CC00EF06F51A8
:1039E0000D5E70510E5A6DC00FF06EC010F036ECC7
:1039F00014F01450E8CF73F01550E8CF74F01200B3
:103A00000001750EBB6F000EBC6F0001750EB96F23
:103A1000000EBA6F080EE8CFBAF0260EBD6F8EEC1E
:103A20002AF0040EB0EC09F015C26DF016C26EF06B
:103A300017C26FF018C270F019C271F01AC272F09A
:103A4000BFEC1CF073C00DF074C00EF043C40BF05B
:103A50000B3A10EC29F00DC034F10EC035F10DC059
:103A600075F00EC076F0050EB0EC09F01BC26DF0DB
:103A70001CC26EF01DC26FF01EC270F01FC271F04A
:103A800020C272F0BFEC1CF073C00DF074C00EF0D9
:103A900044C40BF00B3A10EC29F00DC036F10EC007
:103AA00037F10DC077F00EC078F0060EB0EC09F0DB
:103AB00021C26DF022C26EF023C26FF024C270F0FA
:103AC00025C271F026C272F0BFEC1CF073C00DF07D
:103AD00074C00EF045C40BF00B3A10EC29F00DC089
:103AE00038F10EC039F10DC079F00EC07AF0070E32
:103AF000B0EC09F0070EB0EC09F027C26DF028C257
:103B00006EF029C26FF02AC270F0EBEC1CF073C0AB
:103B10000DF074C00EF046C40BF00B3A10EC29F017
:103B20000DC03AF10EC03BF10DC07BF00EC07CF031
:103B30000DC027F40EC028F4030EB0EC09F000010C
:103B40000F01C3CFE8FFE8CF8DF0C4CFE8FFE8CF87
:103B50008EF0080EB0EC09F02DC26FF02EC270F09E
:103B60002BC26DF02CC26EF0EBEC1CF073C085F034
:103B700074C086F0090EB0EC09F031C26FF032C2A9
:103B800070F02FC26DF030C26EF0EBEC1CF073C021
:103B900087F074C088F00A0EB0EC09F035C26FF0FF
:103BA00036C270F033C26DF034C26EF0EBEC1CF034
:103BB00073C089F074C08AF00B0EB0EC09F039C202
:103BC0006FF03AC270F037C26DF038C26EF0EBECB5
:103BD0001CF073C08BF074C08CF00301B551B7ECCE
:103BE0002BF0D8A0FBEF1DF00001E80E7D6F030E57
:103BF0007E6F00EF1EF00001180E7D6FFC0E7E6FD1
:103C0000000EB0EC09F03BC26DF03CC26EF03DC25C
:103C10006FF03EC270F0EBEC1CF073C00DF074C09E
:103C20000EF047C40BF00B3A10EC29F00DC07FF0FA
:103C30000EC080F0010EB0EC09F03FC26DF040C242
:103C40006EF041C26FF042C270F0EBEC1CF073C03A
:103C50000DF074C00EF048C40BF00B3A10EC29F0D4
:103C60000DC081F00EC082F00301B751B7EC2BF00C
:103C7000D8A042EF1EF00001E80E836F030E846FA0
:103C80005CEF1EF00301B951B7EC2BF0D8A050EF58
:103C90001EF00001180E836FFC0E846F5CEF1EF0A7
:103CA0000301B851B7EC2BF0D8A05CEF1EF0000177
:103CB000000E836F000E846F12000001106A0FBEA9
:103CC000101E36EC14F00001640E176E000E186E14
:103CD0003AEC15F013C011F014C012F013C00FF03D
:103CE00014C010F00EAE7AEF1EF00F1E101E0F2A39
:103CF000D8B0102A36EC14F000010A0E176E000E30
:103D0000186E3AEC15F00B50E8CF17F0186A17BE92
:103D1000181E3AEC15F011500D5E12500E5A135049
:103D20000D2614500E2212000301AE51B7EC2BF0F9
:103D300075C00DF076C00EF0D8A0AAEF1EF00301FA
:103D40001B510001E8CF0FF003011751E8CF0BF032
:103D5000B2EF1EF003011A510001E8CF0FF0640E1C
:103D6000E8CF0BF05DEC1EF00DC075F00EC076F0E4
:103D70000301AF51B7EC2BF077C00DF078C00EF017
:103D8000D8A0CEEF1EF0030126510001E8CF0FF0BE
:103D900003012251E8CF0BF0D6EF1EF003012551AD
:103DA0000001E8CF0FF0640EE8CF0BF05DEC1EF0E1
:103DB0000DC077F00EC078F00301B051B7EC2BF0D6
:103DC00079C00DF07AC00EF0D8A0F2EF1EF003011A
:103DD00031510001E8CF0FF003012D51E8CF0BF076
:103DE000FAEF1EF0030130510001E8CF0FF0640E2E
:103DF000E8CF0BF05DEC1EF00DC079F00EC07AF04C
:103E000012000301AE51B7EC2BF0D8A020EF1FF049
:103E100075C00FF076C010F017C30DF018C30EF088
:103E20000E6A0DBE0E1E36EC14F00001640E176E05
:103E3000000E186E3AEC15F013C075F014C076F051
:103E40000301AF51B7EC2BF0D8A03FEF1FF077C0C4
:103E50000FF078C010F022C30DF023C30EF00E6AED
:103E60000DBE0E1E36EC14F00001640E176E000E2F
:103E7000186E3AEC15F013C077F014C078F0030117
:103E8000B051B7EC2BF0D8A05EEF1FF079C00FF067
:103E90007AC010F02DC30DF02EC30EF00E6A0DBEC9
:103EA0000E1E36EC14F00001640E176E000E186E34
:103EB0003AEC15F013C079F014C07AF0120057C133
:103EC000E8FFE81EE8661200E86AE8CF57F1030E43
:103ED00000015F6E030E07EC0CF01200D3C2E8FF86
:103EE000E81EE866C2EF1FF080C50FF081C510F034
:103EF0000201B2519DEC01F00FC00DF010C00EF0A8
:103F00004BC10FF04CC110F00CEC20F0E868D8B0B9
:103F1000E8CF57F10FC04BF110C04CF182C50FF044
:103F200083C510F00201B3519DEC01F00FC00DF0FC
:103F300010C00EF04DC10FF04EC110F00CEC20F08F
:103F4000E868D8B0E8CF57F10FC04DF110C04EF17E
:103F500084C50FF085C510F00201B4519DEC01F04D
:103F60000FC00DF010C00EF04FC10FF050C110F097
:103F70000CEC20F0E868D8B0E8CF57F10FC04FF153
:103F800010C050F1D7C2E8FFE81EE866E2EF1FF06C
:103F900086C50FF087C510F00201B5519DEC01F008
:103FA0000FC00DF010C00EF051C10FF052C110F053
:103FB0000CEC20F0E868D8B0E8CF57F10FC051F111
:103FC00010C052F1D8C2E8FFE81EE86612007FC0B8
:103FD0000DF080C00EF053C10FF054C110F00CEC86
:103FE00020F0E868D8B0E8CF57F10FC053F110C007
:103FF00054F181C00DF082C00EF055C10FF056C1D2
:1040000010F00CEC20F0E868D8B0E8CF57F10FC002
:1040100055F110C056F112000DC011F00EC012F093
:1040200000010FC0E8FF115E10C0E8FF125A12AE87
:104030001FEF20F0111E121E112AD8B4122AD89098
:1040400012321132D89012321132D890123211320B
:10405000D89012321132D8901232113211C0E8FFCA
:104060001212D890D8B412000EC0E8FF1018E8362B
:104070000DC00FF00EC010F0120080C50FF081C50A
:1040800010F00201B2519DEC01F00301A7510001B3
:104090000F260301A8510001102218C30DF019C307
:1040A0000EF000010E6AFF0E0DBE0E6E36EC14F01F
:1040B0000001640E176E186A196A1A6A3AEC15F054
:1040C00000010301195100010D6E0E6A0DBE0E1E96
:1040D0000D360E360D5013260E5014221350752730
:1040E0001450762382C50FF083C510F00201B3513E
:1040F0009DEC01F00301A95100010F260301AA5113
:104100000001102223C30DF024C30EF000010E6A3B
:10411000FF0E0DBE0E6E36EC14F00001640E176E2D
:10412000186A196A1A6A3AEC15F000010301245161
:1041300000010D6E0E6A0DBE0E1E0D360E360D50B0
:1041400013260E501422135077271450782384C559
:104150000FF085C510F00201B4519DEC01F0030190
:10416000AB5100010F260301AC51000110222EC3F8
:104170000DF02FC30EF000010E6AFF0E0DBE0E6E85
:1041800036EC14F00001640E176E186A196A1A6A88
:104190003AEC15F0000103012F5100010D6E0E6A7B
:1041A0000DBE0E1E0D360E360D5013260E50142267
:1041B0001350792714507A2386C50FF087C510F065
:1041C0000201B5519DEC01F036C30DF037C30EF07E
:1041D00000010E6AFF0E0DBE0E6E36EC14F00001EB
:1041E000640E176E186A196A1A6A3AEC15F0030120
:1041F000010E376313EF21F00001030E0E6E186EEF
:10420000E80E0D6E176E7B510D5E7C510E5A196AC9
:104210001A6A13C00FF014C010F036EC14F03AEC28
:1042200015F02DEF21F0020E37632DEF21F0000184
:104230007B510D6E7C510E6E13C00FF014C010F048
:1042400036EC14F00001030EE8CF18F0E80EE8CFCA
:1042500017F0196A1A6A3AEC15F0000113507B271F
:1042600014507C23120000010E6A08C40DF00DBE2C
:104270000E6800010A0E0F6E000E106E36EC14F080
:10428000135075271450762300010E6A09C40DF0EF
:104290000DBE0E6800010A0E0F6E000E106E36EC99
:1042A00014F0135077271450782300010E6A0AC4C3
:1042B0000DF00DBE0E6800010A0E0F6E000E106E9E
:1042C00036EC14F01350792714507A2300010E6A4B
:1042D0000BC40DF00DBE0E6800010A0E0F6E000E2D
:1042E000106E36EC14F013507B2714507C23000121
:1042F0000E6A0CC40DF00DBE0E6800010A0E0F6EA2
:10430000000E106E36EC14F013507D2714507E23EF
:1043100000010E6A0DC40DF00DBE0E6800010A0EFC
:104320000F6E000E106E36EC14F013507F271450F1
:10433000802300010E6A0EC40DF00DBE0E68000150
:104340000A0E0F6E000E106E36EC14F0135081271B
:104350001450822300010E6A0FC40DF00DBE0E68CA
:1043600000010A0E0F6E000E106E36EC14F01350A2
:10437000832714508423120000010A0E0D6E000ED4
:104380000E6E0301BB51B7EC2BF0D8A00DEF22F05D
:1043900003014DAFDAEF21F04CC30FF0106A0FBEEE
:1043A000106836EC14F0000113C0E8FF752714C044
:1043B000E8FF762303014FAFECEF21F04EC30FF07F
:1043C000106A0FBE106836EC14F0000113C0E8FF4D
:1043D000772714C0E8FF7823030151AFFEEF21F0E7
:1043E00050C30FF0106A0FBE106836EC14F00001D5
:1043F00013C0E8FF792714C0E8FF7A23030153AF05
:104400000DEF22F052C30FF0106A0FBE106836ECA9
:1044100014F013C07BF014C07CF00301BC51B7EC66
:104420002BF0D8A059EF22F0030155AF26EF22F070
:1044300054C30FF0106A0FBE106836EC14F0000180
:1044400013C0E8FF752714C0E8FF7623030157AFB8
:1044500038EF22F056C30FF0106A0FBE106836EC2A
:1044600014F0000113C0E8FF772714C0E8FF782399
:10447000030159AF4AEF22F058C30FF0106A0FBE84
:10448000106836EC14F0000113C0E8FF792714C05F
:10449000E8FF7A2303015BAF59EF22F05AC30FF014
:1044A000106A0FBE106836EC14F013C07BF014C015
:1044B0007CF000017CAF1200E86A7B6F7C6F120019
:1044C00090C0E8FFC00A32E07DC00DF07EC00EF063
:1044D00000018FC0E8FF0D5E90C0E8FF0E5A0EBECF
:1044E00084EF22F019C4E8FF0D5E1AC4E8FF0E5AEB
:1044F0000EBE96EF22F0000119C4E8FF8F271AC400
:10450000E8FF90239AEF22F019C4E8FF0D261AC4A1
:10451000E8FF0E220EAE96EF22F0000119C4E8FF6C
:104520008F5F1AC4E8FF905B9AEF22F07DC08FF096
:104530007EC090F092C0E8FFC00A32E083C00DF068
:1045400084C00EF0000191C0E8FF0D5E92C0E8FF4C
:104550000E5A0EBEBEEF22F01BC4E8FF0D5E1CC457
:10456000E8FF0E5A0EBED0EF22F000011BC4E8FF98
:1045700091271CC4E8FF9223D4EF22F01BC4E8FF6C
:104580000D261CC4E8FF0E220EAED0EF22F0000173
:104590001BC4E8FF915F1CC4E8FF925BD4EF22F0DC
:1045A00083C091F084C092F0FDC0E8FFC00A32E001
:1045B0007BC00DF07CC00EF00001FCC0E8FF0D5E7A
:1045C000FDC0E8FF0E5A0EBEF8EF22F03FC4E8FF30
:1045D0000D5E40C4E8FF0E5A0EBE0AEF23F0000144
:1045E0003FC4E8FFFC2740C4E8FFFD2313EF23F09E
:1045F0003FC4E8FF0D2640C4E8FF0E220EAE0AEFCE
:1046000023F000013FC4E8FFFC5F40C4E8FFFD5B0E
:1046100013EF23F07BC0FCF07CC0FDF00401D00E52
:104620003F6F070E406F12000201B6B31200020185
:10463000A1B112000301B651B7EC2BF0D8A01200C3
:1046400000016267120002019F510001626F0201C6
:10465000010EB66335EF23F0010E00015F6E050E0B
:1046600007EC0CF0280E0001626F75C00DF076C0EB
:104670000EF0D8EC23F0D8A46BEF23F00201B6675C
:1046800044EF23F002019E51000176BF52EF23F068
:104690000301192719AF5CEF23F0D8A65CEF23F0D4
:1046A0005FEF23F00301195F19BF5CEF23F0D8A679
:1046B0005CEF23F064EF23F019BF64EF23F0640E86
:1046C0001961196F69EF23F0640EE81EE82A196575
:1046D000196F43EC26F077C00DF078C00EF0D8ECDF
:1046E00023F0D8A4A1EF23F00201B6677AEF23F0FC
:1046F00002019E51000178BF88EF23F003012427B7
:1047000024AF92EF23F0D8A692EF23F095EF23F099
:104710000301245F24BF92EF23F0D8A692EF23F089
:104720009AEF23F024BF9AEF23F0640E2461246FE4
:104730009FEF23F0640EE81EE82A2465246F43EC03
:1047400026F079C00DF07AC00EF0D8EC23F0D8A492
:10475000D7EF23F00201B667B0EF23F002019E51BC
:1047600000017ABFBEEF23F003012F272FAFC8EF60
:1047700023F0D8A6C8EF23F0CBEF23F003012F5F7F
:104780002FBFC8EF23F0D8A6C8EF23F0D0EF23F057
:104790002FBFD0EF23F0640E2F612F6FD5EF23F0E2
:1047A000640EE81EE82A2F652F6F43EC26F01200F6
:1047B00000010EAEE1EF23F00D1E0E1E0D2AD8B043
:1047C0000E2AD8900E320D320E66EBEF23F0640EF7
:1047D0000D64F0EF23F00001640E0D6E000E0E6EFE
:1047E0000DC0E8FFE8460201E05D0001D894D8A0C2
:1047F000D88412000001C36B000176BF0CEF24F0D7
:1048000011C30DF012C30EF075C00FF076C010F09A
:1048100036EC14F016EF24F015C30DF016C30EF0AD
:1048200075C00FF076C010F036EC14F013C30DF025
:1048300014C30EF0000114500D2615500E2212EC78
:1048400025F00DC03EF00EC03FF0000178BF35EFFF
:1048500024F01CC30DF01DC30EF077C00FF078C01C
:1048600010F036EC14F03FEF24F020C30DF021C31C
:104870000EF077C00FF078C010F036EC14F01EC3C5
:104880000DF01FC30EF0000114500D2615500E221E
:1048900012EC25F00DC03CF00EC03DF000017ABFD7
:1048A0005EEF24F027C30DF028C30EF079C00FF09F
:1048B0007AC010F036EC14F068EF24F02BC30DF042
:1048C0002CC30EF079C00FF07AC010F036EC14F063
:1048D00029C30DF02AC30EF0000114500D26155007
:1048E0000E2212EC25F00DC040F00EC041F032C394
:1048F0000DF033C30EF0FCC00FF0FDC010F036EC2D
:1049000014F034C30DF035C30EF0000114500D2621
:1049100015500E2212EC25F00DC042F00EC043F0EF
:104920003AC30DF03BC30EF08FC00FF090C010F0F3
:1049300036EC14F03CC30DF03DC30EF000011450F2
:104940000D2615500E2212EC25F00DC044F00EC0BD
:1049500045F03EC30DF03FC30EF07FC00FF080C0A6
:1049600010F036EC14F040C30DF041C30EF000011E
:1049700014500D2615500E2212EC25F00DC046F0F5
:104980000EC047F042C30DF043C30EF081C00FF0DC
:1049900082C010F036EC14F044C30DF045C30EF0A5
:1049A000000114500D2615500E2212EC25F00DC0FA
:1049B00048F00EC049F091C00DF092C00EF00EBE4E
:1049C000EAEF24F046C30FF047C310F036EC14F0C2
:1049D000F0EF24F04AC30FF04BC310F036EC14F0A4
:1049E00048C30DF049C30EF00D5014260E50152289
:1049F00014C00DF015C00EF012EC25F00DC04AF0F9
:104A00000EC04BF00001D26711EF25F00301B15148
:104A1000B7EC2BF0D8A011EF25F038C342F039C322
:104A200043F012000201AE5100010D5C0201AF51D2
:104A300000010E58E8AE22EF25F0AEC20DF0AFC275
:104A40000EF012000201B05100010D5C0201B151E3
:104A500000010E58E8BE1200B0C20DF0B1C20EF057
:104A600012000001FAA541EF25F0FA9535A441EFB7
:104A700025F03594010E5F6E050E07EC0CF0D88022
:104A80001200D89012000001000E0D6E020E0E6E84
:104A90000001000E136E000E146E010E156EE86A12
:104AA0000A6E87EC0EF0020100510001AB6F000EA0
:104AB000F86E840EF76E7A0EF66E0900F5CFDDF211
:104AC00009000900F5CFDEF20900F5CFDFF2120090
:104AD0000001000E0D6E020E0E6E0001000E136E30
:104AE000000E146E010E156E040E0A6EBBEC0EF075
:104AF0001200E846E8060B6E0001000E0D6E030E74
:104B00000E6E0001000E136E000E146E010E156E77
:104B10000B501426E86A1522100E0A6E87EC0EF070
:104B20001200E846E8060B6E0001000E0D6E080E3E
:104B30000E6E0001000E136E000E146E010E156E47
:104B40000B501426E86A1522400E0A6E87EC0EF010
:104B50000001000EBB6F030EBC6F0001000EB96FA9
:104B6000030EBA6F0001080EBA6F100EBD6F8EEC07
:104B70002AF00001000E0D6E080E0E6E0001000EF0
:104B8000136E000E146E010E156E0B501426E86A9B
:104B90001522010E0A6EBBEC0EF01200E846E80684
:104BA0000B6E0001000E0D6E030E0E6E0001000E66
:104BB000136E000E146E010E156E0B501426E86A6B
:104BC00015220A6E87EC0EF00001000E0D6E040E29
:104BD0000E6E0001000E136E000E146E010E156EA7
:104BE0000B50E82A1426E86A15220A6E87EC0EF0AC
:104BF0001200E846E8060C6E0001000E0D6E030E72
:104C00000E6E0001000E136E000E146E010E156E76
:104C10000C501426E86A1522040E0A6EBBEC0EF046
:104C20000001000E0D6E040E0E6E0001000E136EDC
:104C3000000E146E010E156E0C50E82A1426E86A58
:104C40001522040E0A6EBBEC0EF012000001000EDD
:104C5000BB6F030EBC6F0001000EB96F060EBA6F7A
:104C6000000EBD6F8EEC2AF00001000EBB6F040E2B
:104C7000BC6F0001000EB96F070EBA6F000EBD6F5A
:104C80008EEC2AF0120002010051E846E8060A6E96
:104C90000001000E0D6E030E0E6E0001000E136E6D
:104CA000000E146E010E156E0A501426E86A1522C5
:104CB000010E0A6EBBEC0EF0120075C093F076C0C8
:104CC00094F077C095F078C096F079C097F07AC0EC
:104CD00098F07BC099F07CC09AF0FCC099F0FDC0C0
:104CE0009AF08FC09BF090C09CF07FC09DF080C078
:104CF0009EF081C09FF082C0A0F091C0A1F092C050
:104D0000A2F0030EE26E5C0EE16E0C0EE8CF0AF02C
:104D1000E6CFE8FF0F0BD8B4B8EF26F0E7180F0B7B
:104D2000D8A4B8EF26F0E7CFE8FFF00B0409E7625C
:104D3000A0EF26F07BC099F07CC09AF0B8EF26F087
:104D4000E7CFE8FFF00B0509E762ADEF26F08FC073
:104D50009BF090C09CF0B8EF26F0E7CFE8FFF00B97
:104D60000809E762B8EF26F091C0A1F092C0A2F066
:104D7000040EE1260A06D8A488EF26F012005DECA6
:104D800026F00301B251B7EC2BF0D8A0DAEF26F0F1
:104D9000030EE26E5C0EE16EABEC29F0610EE16E8B
:104DA000ABEC29F0660EE16EABEC29F06B0EE16E18
:104DB000ABEC29F05DEC26F00301B351B7EC2BF01E
:104DC000D8A0FBEF26F0030EE26E700EE16EABECA6
:104DD00029F05DEC26F0750EE16EABEC29F05DEC90
:104DE00026F07A0EE16EABEC29F05DEC26F07F0E3A
:104DF000E16EABEC29F05DEC26F00301B451B7ECA9
:104E00002BF0D8A016EF27F0030EE26E840EE16EB1
:104E1000ABEC29F0890EE16EABEC29F08E0EE16E61
:104E2000ABEC29F0930EE16EABEC29F0120093C0CD
:104E30000DF094C00EF010C40FF000010EBE11C4AE
:104E40000FF0106A0FBE106836EC14F00001640E0B
:104E5000176E000E186E3AEC15F0000113C0E8FF53
:104E6000972714C0E8FF982397C00DF098C00EF064
:104E700012C40FF000010EBE13C40FF0106A0FBE73
:104E8000106836EC14F00001640E176E000E186EF8
:104E90003AEC15F0000113C0E8FF932714C0E8FFB7
:104EA000942397C00DF098C00EF014C40FF00001C9
:104EB0000EBE15C40FF0106A0FBE106836EC14F069
:104EC0000001640E176E000E186E3AEC15F000012A
:104ED00013C0E8FF952714C0E8FF962399C00DF092
:104EE0009AC00EF016C40FF000010EBE106A0FBE7D
:104EF000106836EC14F00001640E176E000E186E88
:104F00003AEC15F0000113C0E8FF952714C0E8FF44
:104F1000962393C075F094C076F095C077F096C054
:104F200078F097C079F098C07AF099C0FCF09AC0F8
:104F3000FDF0040117A1A1EF27F095C07FF096C006
:104F400080F0030198A1BEEF27F095C00DF096C048
:104F50000EF097C00FF098C010F000010DC077F070
:104F60000EC078F00DC079F00EC07AF00F5079279E
:104F700010507A230F50775F1050785B030199A18E
:104F8000DBEF27F095C00DF096C00EF093C00FF048
:104F900094C010F000010DC077F00EC078F00DC085
:104FA00075F00EC076F00F507527105076230F5015
:104FB000775F1050785B03019AA17BEF28F093C0D4
:104FC0000DF094C00EF00DC075F00EC076F00DC05F
:104FD00081F00EC082F00001811F821F814B822B65
:104FE0000001640E176E000E186E03019C51E8124A
:104FF000D8B444EF28F0E8BE22EF28F0640800019E
:105000000F6E106A76BF13EF28F075C00DF076C0F2
:105010000EF036EC14F03AEC15F013C075F014C035
:1050200076F044EF28F0000181C00DF082C00EF050
:1050300036EC14F03AEC15F013C081F014C082F095
:1050400044EF28F0640F00010F6E106A76AF37EF5F
:1050500028F075C00DF076C00EF036EC14F03AEC86
:1050600015F013C075F014C076F044EF28F000017D
:1050700081C00DF082C00EF036EC14F03AEC15F061
:1050800013C081F014C082F00001640E176E000E90
:10509000186E0301C651E812D8B461EF28F003017D
:1050A000C551B7EC2BF0D8A07BEF28F00001E80E3B
:1050B0000D6E030E0E6E99510D5E9A510E5A65EFEC
:1050C00028F09FC00DF0A0C00EF09DC30FF00001AE
:1050D0000EBE9BC30FF0106A0FBE101E36EC14F00C
:1050E0003AEC15F013507527145076230001135035
:1050F00081271450822312000301A4A112005DEC49
:1051000026F017EC27F012000301A4B18CEF28F071
:105110005DEC26F017EC27F00301A0A1B9EF28F011
:105120000301C351B7EC2BF0D8A09BEF28F003018B
:10513000A151A4EF28F00301C451B7EC2BF0D8A083
:10514000B9EF28F00301A25100010D6E0E6A0001B3
:105150000A0E0F6E000E106E36EC14F013507B5DCD
:1051600014507C59E8AEB9EF28F013C07BF014C09E
:105170007CF01200040126A112001DC4E8FFE81211
:10518000D8B4120075C00DF076C00EF077C00FF0E5
:1051900078C010F07FC075F080C076F07FC077F0E7
:1051A00080C078F000010DC0E8FF75270EC0E8FF51
:1051B00076230DC0E8FF7F5F0EC0E8FF805B0FC065
:1051C000E8FF772710C0E8FF78231DC4E8FF030835
:1051D000D8B412000001D89010BED88010320F321F
:1051E00000010FC0E8FF7F5F10C0E8FF805B0FC0C9
:1051F000E8FF755F10C0E8FF765B1DC4E8FF01089B
:10520000D8B4120000010FC0E8FF7F5F10C0E8FFB4
:10521000805B0FC0E8FF755F10C0E8FF765B12008F
:105220000BC0E8FFF00BD8B412000DC06BF00EC03D
:105230006CF00EAE21EF29F00D1E0E1E0D2AD8B017
:105240000E2A0DC013F00EC014F0640E176E69EC38
:1052500014F000011C6A090E13603BEF29F00BC02B
:10526000E8FFE83AE8060F0BE8CF0BF0E8B659EF95
:1052700029F04FEF29F0136E0DC01BF00EC01CF08B
:10528000840E00011B5E030E1C5A0BC0E8FFE83AB7
:10529000E8060F0BE8CF0BF0E8B659EF29F0020E45
:1052A000E8CFDAFF0BC0E8FF0B0DF350460F62EFBB
:1052B00029F0030EE8CFDAFF0BC0E8FFE8960B0DEC
:1052C000F350DA0FE8CFD9FFDFCF0CF013C0E8FFBF
:1052D000D926DECF0AF0DFCF0BF000010BC00DF0B6
:1052E0000E6A0BBE0E680AC0E8FF0D5E000E0ABE15
:1052F000FF0E0E5A1BC00FF01CC010F036EC14F05D
:1053000000010A0E176E000E186E3AEC15F00A50E6
:105310000A0D0A0E0ABEF45EF3CFE8FF1326F4CF9F
:10532000E8FF142213C00DF014C00EF000016CAFA2
:1053300012000CC0E8FF140D140E0CBEF45EF3CF87
:105340000DF0F4CF0EF0000113C0E8FF0D5E14C0A5
:10535000E8FF0E5A1200E650E8CF0BF00F0BD8B45E
:1053600012000BC0E8FF80EC02F010EC29F00DC039
:1053700011F00EC012F0E6CF0AF0E6CFE8FF000110
:10538000E8CF0DF00E6A0DBE0E1E00010A0E0F6E64
:10539000000E106E36EC14F011C00DF012C00EF0BD
:1053A00013500D5E14500E5A0EBE0CEF2AF0E6CFCD
:1053B000E8FF00010AACF5EF29F0E8CF13F0E9CFE0
:1053C00014F00DC011F00EC012F0135080EC02F07A
:1053D0000DC013F00EC014F00A0E176E69EC14F035
:1053E00011C00DF012C00EF013500F6E106A0FBEF8
:1053F000101E36EC14F00001640E176E000E186ECD
:10540000196A1A6A3AEC15F013C00DF014C00EF0C8
:105410000A5000EC03F01200E6CFE8FFE6CFE8FF09
:1054200000010AAA2AEF2AF0E8CF13F00DC011F00C
:105430000EC012F0135080EC02F00DC013F00EC03D
:1054400014F00A0E176E69EC14F011C00DF012C0C2
:105450000EF013500F6E106A0FBE101E36EC14F0D3
:105460000001640E176E000E186E196A1A6A3AEC83
:1054700015F013C00DF014C00EF00A5000EC03F04C
:1054800012000001BD0EBB6F030EBC6F0001120EB7
:10549000B96F010EBA6F050EBD6F8EEC2AF0CE0EFD
:1054A0000B0FE8CFD9FF060EE8CFDAFF060EE8CFE4
:1054B0000CF0DDCFE8FFE812D8B466EF2AF0DFCFBA
:1054C000E8FFB7EC2BF0D8B072EF2AF0DDCFE8FFA1
:1054D0000C2E59EF2AF0ABC0E8FF020100637BEF0E
:1054E0002AF01200DECFE8FFDECFE8FF0201006302
:1054F0007BEF2AF01200E8CF00F2CEEC25F000019D
:10550000120EBB6F010EBC6F0001BD0EB96F030E12
:10551000BA6F050EBD6F8EEC2AF012000001BB5170
:10552000E16EBC51E26E0001B951D96EBA51DA6E2A
:10553000E6CFE8FFE8CFDEFF0001BD2F98EF2AF0AD
:1055400012000001C56B0301AE51B7EC2BF0000156
:10555000D8B0C5810301AF51B7EC2BF00001D8B032
:10556000C5830301B051B7EC2BF00001D8B0C5855D
:105570000301B151B7EC2BF00001D8B0C58703018E
:10558000B651B7EC2BF00001D8B0C5890301BB516F
:10559000B7EC2BF00001D8B0C58B0301BC51B7ECC0
:1055A0002BF00001D8B0C58D1200C00E12EC10F027
:1055B0000301AE51B7EC2BF00001E86AE880C51595
:1055C000D8A0F1EF2AF0D8A402EF2BF0C571000E9D
:1055D000F86E860EF76E380EF66EBCEC10F0B3EF78
:1055E0002BF0D8B002EF2BF0D8B402EF2BF0C5713E
:1055F000000EF86E860EF76E260EF66EBCEC10F0FE
:10560000B3EF2BF00301AF51B7EC2BF00001E86AC8
:10561000E882C515D8A01BEF2BF0D8A42CEF2BF0F7
:10562000C573000EF86E860EF76E5C0EF66EBCEC5F
:1056300010F0B3EF2BF0D8B02CEF2BF0D8B42CEF48
:105640002BF0C573000EF86E860EF76E4A0EF66EDE
:10565000BCEC10F0B3EF2BF00301B051B7EC2BF022
:105660000001E86AE884C515D8A045EF2BF0D8A45E
:1056700056EF2BF0C575000EF86E860EF76E800E95
:10568000F66EBCEC10F0B3EF2BF0D8B056EF2BF069
:10569000D8B456EF2BF0C575000EF86E860EF76E77
:1056A0006E0EF66EBCEC10F0B3EF2BF00301B151AF
:1056B000B7EC2BF00001D8A06CEF2BF0C5B76DEF65
:1056C0002BF0C577000EF86E860EF76EC80EF66EDC
:1056D000BCEC10F0B3EF2BF0C5970301B651B7EC5B
:1056E0002BF00001D8A083EF2BF0C5B984EF2BF08D
:1056F000C579000EF86E860EF76EB60EF66EBCEC2F
:1057000010F0B3EF2BF0C5990301BB51B7EC2BF0B0
:105710000001D8A09AEF2BF0C5BB9BEF2BF0C57B07
:10572000000EF86E860EF76E920EF66EBCEC10F060
:10573000B3EF2BF0C59B0301BC51B7EC2BF000017C
:10574000D8A0B1EF2BF0C5BDB2EF2BF0C57D000E98
:10575000F86E860EF76EA40EF66EBCEC10F0B3EF8A
:105760002BF0C59D1200500EE8CFA9F01200E8AA58
:10577000EFEF2BF0E8A8EFEF2BF00A6E070BC90F45
:10578000E16E030EE26EE65000010D6E0E6AE8BE99
:105790000E6800010A0E0F6E000E106E36EC14F04B
:1057A0000A50070BE846340FE16E010EE26EE6CFB9
:1057B0000DF0E6CF0EF000010EAEE3EF2BF00D1E64
:1057C0000E1E0D4A0E2A0DC0E8FF135E0EC0E8FF44
:1057D0001458E836D8700ABE1200D8701200D8905B
:1057E000E8BA1200D880E8B8120000011F6E206AE3
:1057F000E8BC2080070BE82AD8802036E82EFDEF91
:105800002BF030501FB633502014D8802062D8902F
:105810001FBED8701200040126A112006FEC2CF0FC
:10582000D8A0D2EC2CF004012F51B7EC2BF0D8A06B
:1058300036EF2CF00401305100010D6E0E6A0001AC
:105840000A0E0F6E000E106E36EC14F013C07BF0D3
:1058500014C07CF00001FE51D8A440EF2CF0FE698A
:1058600041C43FF442C440F440EF2CF00001FE512B
:10587000D8B440EF2CF0FE6B41C43FF442C440F476
:10588000040129A14AEF2CF000017F1F801F7F2B0C
:10589000D8B4802B36C30DF000010E6AFF0E0DBE8A
:1058A0000E6E7FC00FF080C010F036EC14F00001D7
:1058B000640E176E186A196A1A6A3AEC15F013C06A
:1058C0007FF014C080F0AAEC2CF000010DC0E8FFBE
:1058D0007F270EC0E8FF8023F3EC2CF0120039C4C0
:1058E000E8FFB7EC2BF0D8A080EF2CF03DC4E8FF28
:1058F000B7EC2BF0D8A012003EC40BF099EF2CF0BF
:1059000033C4E8FFB7EC2BF0D8A091EF2CF037C4EC
:10591000E8FFB7EC2BF0D8A0120038C40BF099EFD9
:105920002CF02DC4E8FFB7EC2BF0D8A012002EC449
:105930000BF000010BC00DF00E6A00010A0E0F6E95
:10594000000E106E36EC14F013C07BF014C07CF027
:10595000D88012002CC40BF033C4E8FFB7EC2BF056
:10596000D8B036C40BF039C4E8FFB7EC2BF0D8B090
:105970003CC40BF02FC4E8FFB7EC2BF0D8B032C416
:105980000BF027C40DF028C40EF010EC29F0040130
:1059900029A1D1EF2CF000010D1E0E1E0D2AD8B446
:1059A0000E2A12002BC40BF033C4E8FFB7EC2BF027
:1059B000D8B035C40BF039C4E8FFB7EC2BF0D8B041
:1059C0003BC40BF02FC4E8FFB7EC2BF0D8B00B6A48
:1059D0007BC00DF07CC00EF010EC29F00DC07BF008
:1059E0000EC07CF0120081C07DF082C07EF000010C
:1059F000FB51D8A412002AC40BF033C4E8FFB7EC63
:105A00002BF0D8B034C40BF039C4E8FFB7EC2BF05E
:105A1000D8B03AC40BF02FC4E8FFB7EC2BF0D8B0E5
:105A200031C40BF00BC0E8FFCE0FE8CF0DF0000142
:105A30000E6A0DBE0E680001140E0F6E000E106E81
:105A400036EC14F013C07DF014C07EF01200D89034
:105A5000040126A112000001FB51D8B41200030E6C
:105A6000E8CF5FF0020E07EC0CF081C013F082C0AB
:105A700014F00001E80E1326030E1422156A140E0A
:105A8000E8CF17F069EC14F02FC4E8FFB7EC2BF067
:105A9000D8A04FEF2DF013C031F468EF2DF039C4CA
:105AA000E8FFB7EC2BF0D8A05AEF2DF013C03AF472
:105AB00068EF2DF033C4E8FFB7EC2BF0D8A065EF0A
:105AC0002DF013C034F468EF2DF013C02AF4D88001
:105AD00000C2E8FF0001AB19D880D8A4120000C2B0
:105AE000E8FFF9EC25F0D8801200040126A112008D
:105AF000CE0E12EC10F02FC4E8FFB7EC2BF0D8B0AC
:105B000091EF2DF039C4E8FFB7EC2BF0D8B0A3EF3C
:105B10002DF033C4E8FFB7EC2BF0D8B09AEF2DF09E
:105B20001200000EF86E5B0EF76E580EF66EBCECAF
:105B300010F01200000EF86E5B0EF76E5C0EF66E43
:105B4000BCEC10F01200000EF86E5B0EF76E600EEB
:105B5000F66EBCEC10F01200544800005331000007
:105B600053320000E86AE8CF15F00001F40E136E1E
:105B7000010E146E41C417F042C418F03AEC15F04F
:105B800013C041F414C042F4E86AE8CF42F441C4BF
:105B9000E8FF120041C4E8FFE866B2EF2DF004010F
:105BA000D00E416F070E426F1200040ED56E120028
:105BB000D59E1200D89087B21200D880D5BE1200B0
:105BC000C9C00DF0CAC00EF000013C0E0F6E000EF1
:105BD000106E47EC14F013C00DF014C00EF000016D
:105BE000240E0F6EF40E106E47EC14F00001000E40
:105BF000176E000E186E000E196E000E1A6EC7C0DA
:105C000017F0C8C018F01DEC17F0A5C317F0A6C315
:105C100018F00001186A3AEC15F0C00E12EC10F002
:105C2000000EF86E850EF76E2A0EF66EBCEC10F0C4
:105C3000CB0E12EC10F029EC11F0A5C313F0A6C3A3
:105C400014F0146AC00E12EC10F025EC11F00001F3
:105C5000000EC96F000ECA6FD88012000001020E3C
:105C600036621200000133A01200FC6A91EF05F0C9
:105C700047EC2EF0D8A01200FC6A68EC25F000C2B8
:105C8000E8FFF9EC25F026EC26F091EF05F0000195
:105C900030B651EF2EF032A651EF2EF03296D8806A
:105CA0001200D89012000001860E0E6EEC0E0D6EE2
:105CB0009AEC2EF09BEC10F00001115080EC01F0FA
:105CC00012001EC10DF01FC10EF09BEC10F012006F
:105CD0000001F651D8B41200E1CF3EF1E2CF3FF11E
:105CE00000EC1DF00001000E756F000E766F0001D4
:105CF000000E776F000E786F01EC1FF094EC1EF031
:105D0000BCEC21F014EC23F03DEC20F07CEC28F00E
:105D1000BFEC26F084EC28F033EC21F0FAEC23F011
:105D20009CEC11F03EC1E1FF3FC1E2FF1200000117
:105D3000F66912002EEC2EF00001D36BE16BF16BD3
:105D4000F26BC00E12EC10F00DC0F6FF0EC0F7FFA4
:105D5000F86A0DC00FF00EC010F0BCEC10F0FA0E97
:105D600074EC0DF02EEC33F0D8A4BDEF2EF0110E34
:105D70000D26D8B00E2AC4EF2EF0D8A0D1EF2EF009
:105D8000130E0D26D8B00E2A0DC0F6FF0EC0F7FF79
:105D9000F86A0900F5CF0DF00900F5CF0EF0A1EF7C
:105DA0002EF038EC2EF031EC25F0D8A0A1EF2EF03B
:105DB000150E0D26D8B00E2A0DC0F6FF0EC0F7FF47
:105DC000F86A0900F5CF11F00900F5CF12F00FC005
:105DD0000DF010C00EF00900F5CF0FF00900F5CF5F
:105DE00010F00900F5CFD4F00900F5CFD5F000018F
:105DF000BF6BC06BC1697F0EE8CFC2F012AC0DEF74
:105E00002FF00900F5CFBFF00900F5CFC0F0090071
:105E1000F5CFC1F00900F5CFC2F012A416EF2FF0B4
:105E20000900F5CFF1F00900F5CFF2F012A21FEF53
:105E30002FF00900F5CFF3F00900F5CFF4F012AE22
:105E400024EF2FF09BEC10F012A629EF2FF0B1EC0D
