:020000040000FA
:040200006BEF03F0AD
:020204000000F8
:040208000EEF01F004
:080218002DEF01F0D8CF01F039
:10022000E0CF02F0006EF3CF03F0F4CF04F0F0ACB7
:100230001DEF01F0F0B008EC0DF0A2A023EF01F0EB
:10024000A1B097EC0AF003C0F3FF04C0F4FF005024
:1002500002C0E0FF01C0D8FF1000D8CF06F0E8CF01
:1002600005F0E0CF07F0F3CF08F0F4CF09F0F0BCD1
:100270003DEF01F0F0B008EC0DF0A2B043EF01F05B
:10028000A1B097EC0AF0A2B04CEF01F0AECFE8FFBE
:100290006ECFE8FF52EF01F09EBA94EC11F0A4BAD1
:1002A000FFEC11F008C0F3FF09C0F4FF07C0E0FF46
:0A02B00005C0E8FF06C0D8FF1000EB
:10030000F95000011150F926B7EF32F0B9EF32F091
:10031000C6EF32F0DBEF32F0E9EF32F0F7EF32F018
:1003200005EF33F013EF33F023EF33F031EF33F019
:1003300033EF33F041EF33F01200E8B81200E8BABF
:100340001200E8BC1200E8BE12000F0BD8A4AFEFF9
:1003500001F00001000E0F6E000E106E1200E80694
:10036000030B0A0DF9CFE8FFF350F92685C00FF013
:1003700086C010F0120087C00FF088C010F0120085
:1003800089C00FF08AC010F012008BC00FF08CC033
:0403900010F0120057
:10040000EFCFE8FFE806070B0A0DF9CFE8FFF3503E
:10041000F9263EC050F03FC051F012003CC050F0F1
:100420003DC051F0120040C050F041C051F01200E8
:1004300042C050F043C051F0120044C050F045C0DB
:1004400051F0120046C050F047C051F0120048C0B1
:1004500050F049C051F012004AC050F04BC051F06A
:1004600012000F0B060DF9CFE8FFF350F926BBC2BF
:10047000E8FF1200BCC2E8FF1200BDC2E8FF120094
:10048000BEC2E8FF1200BFC2E8FF1200C0C2E8FF10
:100490001200C1C2E8FF1200C2C2E8FF1200C3C2CC
:1004A000E8FF1200C4C2E8FF1200C5C2E8FF120054
:1004B000C6C2E8FF1200C7C2E8FF1200C8C2E8FFC8
:0E04C0001200C9C2E8FF1200CAC2E8FF120013
:100500000001E806070B0A0DF9CFE8FFF350F926C2
:1005100093510D6E94510E6E120095510D6E9651C1
:100520000E6E120097510D6E98510E6E1200995179
:100530000D6E9A510E6E12009B510D6E9C510E6EF7
:1005400012009D510D6E9E510E6E12009F510D6E48
:10055000A0510E6E1200A1510D6EA2510E6E12002E
:100600000001E8BE33EF03F0E806070B0A0DF9CF4F
:10061000E8FFF350F9260D5075270E50762312008F
:100620000D5077270E50782312000D5079270E5069
:100630007A2312000D507B270E507C2312000D50A0
:100640007D270E507E2312000D507F270E508023F1
:1006500012000D5081270E50822312000D50832767
:100660000E5084231200E806070B0A0DF9CFE8FFAD
:10067000F350F9260D50756F0E50766F12000D5025
:10068000776F0E50786F12000D50796F0E507A6FA1
:1006900012000D507B6F0E507C6F12000D507D6F5D
:1006A0000E507E6F12000D507F6F0E50806F120043
:1006B0000D50816F0E50826F12000D50836F0E50DF
:0406C000846F120031
:0C06C400F2AE12000001010EA76FA76744
:1006D00067EF03F012004AEC0DF0928802C5E8FFC4
:1006E000E81EE86676EF03F092988098939C819CD0
:1006F00000015D6A5E6A55EC09F00001566A640EFD
:100700003FEC0DF0280EE8CFD4F20001500E386E09
:10071000C30E396E83CFE8FF0001306E316E326E4A
:10072000E81EF96F84CFE8FF0001336E346E356E3A
:10073000E81EFA6F0F0199908780949693948296A1
:1007400081940001000E176E000E186E000E196ED7
:10075000000E1A6E0001000E1B6E000E1C6E000EC5
:100760001D6E000E1E6E0001000E136E000E146E44
:10077000000E156E000E166E0001000EB16F000E19
:10078000B26F0001000EB36F000EB46F0001000ED7
:10079000B56F000EB66F0001000EB76F000EB86F98
:1007A0000101000E5D6F000E5E6F02010F0EDC6F27
:1007B000000EDD6F0001606B616B626BA76BA86B55
:1007C000A96BED69EF6BF06BFB6BFE6BE86AE8CF32
:1007D000DBF2E8CFD2F0E8CF11F1E8CFBAF2E8CF00
:1007E00060F1E8CFF6F0000EF86E810EF76E380E6D
:1007F000F66E0900F5CF58F109000900F5CF59F15F
:100800000900F5CF5AF14EEC3DF002010051000114
:10081000AB6F040E7AEC09F0040E7AEC09F00001DB
:10082000C350CB6FC450CC6F050E7AEC09F0050EA7
:100830007AEC09F00001C350CD6FC450CE6FB6EC16
:100840000EF0FA0E3FEC0DF0FA0E3FEC0DF0FA0E42
:100850003FEC0DF0FA0E3FEC0DF047EC0AF003EC24
:100860002DF020EC11F034EC11F091EC3DF0F28E13
:10087000F28CD08E0F01D89083B6D880D8B046EFD6
:1008800004F00A0E3FEC0DF00F01D89083B6D8802B
:10089000D8B05CEF04F00F01D89084B2D880D8B003
:1008A00057EF04F00A0E3FEC0DF00F01D89084B220
:1008B000D880D8A07EEF04F071EC24F00201A50EE0
:1008C000A76369EF04F0E70EA86369EF04F06DEF2A
:1008D00004F04EEC3DF0BDEC0DF000C2E8FFFCEC86
:1008E00024F00301AD510201A56F93EC0CF00EEC66
:1008F0000CF00101F20E066F4BEC0CF00F01D890DA
:1009000084B2D880D8A07EEF04F00A0E3FEC0DF040
:100910000F01D89084B2D880D8A07EEF04F08098E0
:1009200002C5E8FFE8668078D2C2E8FFE8669EEF7D
:1009300004F0808802C5E8FFE866807892981E0E71
:10094000E8CF15F0840EE8CF14F0800EE8CF13F056
:10095000D4C217F0E86AE8CF18F077EC14F0D5C2EB
:10096000E8FF00011326E86A142213C038F014C00F
:1009700039F0040E7AEC09F0040E7AEC09F000016B
:10098000C350CB6FC450CC6F050E7AEC09F0050E46
:100990007AEC09F00001C350CD6FC450CE6F0F0147
:1009A000D89084B4D880D8B0DBEF04F00A0E3FECC6
:1009B0000DF00F01D89084B4D880D8B0F1EF04F0D6
:1009C0000F01D89083B6D880D8B0ECEF04F00A0EAF
:1009D0003FEC0DF00F01D89083B6D880D8A0F8EF87
:1009E00007F0E86AE8CFDBF20F01D89084B4D88032
:1009F000D8B000EF05F00A0E3FEC0DF00F01D890D3
:100A000084B4D8800101D8B05D690201A0C20AF0A7
:100A10000201FF0E0AB0A56FA56172EF05F0030198
:100A2000A6A152EF05F00F0183BE52EF05F0800E34
:100A30007CEC0FF0000EF86E810EF76EFA0EF66E7B
:100A40000DEC10F0C00E7CEC0FF0000EF86E810E75
:100A5000F76E9A0EF66E0DEC10F00F01D89084B47C
:100A6000D880D8B039EF05F00A0E3FEC0DF00F0139
:100A7000D89084B4D880D8B02DEF05F00F01D8906D
:100A800084B4D880D8A03EEF05F00A0E3FEC0DF0FC
:100A90000F01D89084B4D880D8A03EEF05F0C80EDE
:100AA0003FEC0DF00201D1B159EF05F0D1A372EF87
:100AB00005F0800E0001A36FF3EC3BF0D890A0ECA2
:100AC0002FF0D8B069EF05F00201FF0EA56F72EFAD
:100AD00005F093EC0CF00EEC0CF04BEC0CF00A0E65
:100AE0003FEC0DF00001010E366EA3C254F0A4C21B
:100AF00055F00401495100014F6ECFEC29F054EC40
:100B000025F0C00EE8CF90F0E8CF92F0E8CFFDF0EE
:100B1000979EFCAE8FEF05F00F0193948194000136
:100B200033B0AFEF05F0010E366227EF06F000019B
:100B3000050EE8CF5FF0070ED2EC0BF0020E366E1A
:100B40000001AB5102010063A8EF05F027EF06F0AA
:100B5000006FFCEC24F054EC25F027EF06F0010EBA
:100B6000366E6FEC29F02EEC1CF09CEC1EF0BEEC07
:100B700007F00201A1A1E2EF05F00301B651E5EC97
:100B80002AF0D8A0E2EF05F00201B767DAEF05F02E
:100B9000B1C075F0B2C076F0B3C077F0B4C078F0F1
:100BA000B5C079F0B6C07AF0B7C07BF0B8C07CF0C1
:100BB000E2EF05F0F08CF086A290E868E8CFF5F05F
:100BC000E8EF05F0F09CF086A280E86AE8CFF5F047
:100BD0000201A0B115EF06F060EC1BF0D8B415EFE0
:100BE00006F02FEC1EF0C2EC1DF0EAEC20F042EC17
:100BF00022F08DEC1EF06BEC1FF039EC2BF0AAEC20
:100C000027F0EDEC25F0B2EC27F0E8EC27F08EECC5
:100C100021F061EC20F0A9EC3DF00001EF6748EC19
:100C200013F00001F06748EC13F062EC03F028ECDD
:100C300023F0A8EC12F0D9EC10F00001A86725EF22
:100C400006F00A0EA86F80EC06F088EF05F0800E23
:100C50007CEC0FF0000EF86E830EF76E2C0EF66E25
:100C60000DEC10F0C00E7CEC0FF0000EF86E810E53
:100C7000F76E9A0EF66E0DEC10F00D0E7AEC09F090
:100C80006BC05BF16CC05CF15FEC24F0D8A04BEF63
:100C900006F081EC2DF02EEC1CF09CEC1EF02FECFD
:100CA0001EF0C2EC1DF0EAEC20F042EC22F08DECDC
:100CB0001EF06BEC1FF039EC2BF0AAEC27F0EDECFA
:100CC00025F0B2EC27F0E8EC27F08EEC21F061EC97
:100CD00020F028EC23F0D9EC10F088EF05F00001AB
:100CE000100E0B6EC00E7CEC0FF0000EE16E030ECA
:100CF000E26EE6506DEC0FF00B2E79EF06F012006D
:100D0000000133B28AEF06F035A28AEF06F0359281
:100D10000201DB1F5DC1E8FFE81EE866BCEF1AF0C8
:100D20004AC1E8FFE8661CEF3FF00001840E7CEC4E
:100D30000FF0200E6DEC0FF00201520EA5BF200E39
:100D400000016DEC0FF00601CE51E5EC2AF0410EEA
:100D5000D8A0200E6DEC0FF00301B251E5EC2AF0A3
:100D60004D0ED8A02D0E6DEC0FF00301B351E5EC44
:100D70002AF04D0ED8A02D0E6DEC0FF00301B451EA
:100D8000E5EC2AF04D0ED8A02D0E6DEC0FF0200EE4
:100D90006DEC0FF0C5EC08F00301B651E5EC2AF05C
:100DA000D8A0EFEF06F0A1C2E8FFE81EE866E6EF84
:100DB00006F0800E7CEC0FF0000EF86E810EF76EE0
:100DC000D00EF66E0DEC10F0EFEF06F0800E7CEC1E
:100DD0000FF000C513F001C514F066EC10F002012D
:100DE000B8AF08EF07F0B86B000EE8CF0DF0E86A77
:100DF000E8CF0EF000C5E8FF79EC0DF0010EE8CF6A
:100E00000DF0E86AE8CF0EF001C5E8FF79EC0DF0CF
:100E1000E7EC07F0D8B034EF07F014EC09F0D8B0E5
:100E200034EF07F008EC2DF0D8B034EF07F003EC06
:100E30002AF00001A951E812D8A434EF07F002010A
:100E4000A0A130EF07F0C00E7CEC0FF0000EF86EA2
:100E5000810EF76EB40EF66E0DEC10F034EF07F065
:100E60006FEC06F0A3EC2CF05FEC24F0D8A04CEF74
:100E700007F055EC2CF0D8B04CEF07F000015666A7
:100E80004BEF07F0562ABEC35AF0BFC35BF0D06BDE
:100E9000D16B4CEF07F05606000156A07FEF07F02C
:100EA0005B667FEF07F03B0E5C625EEF07F0050EBE
:100EB0005F6E0A0ED2EC0BF07FEF07F01E0E5C6245
:100EC00069EF07F0030E5F6E0A0ED2EC0BF07FEFB6
:100ED00007F00A0E5C6274EF07F0010E5F6E0A0EF7
:100EE000D2EC0BF07FEF07F0060E5C607FEF07F0AF
:100EF000010E5F6E0A0ED2EC0BF07FEF07F07F0E53
:100F00005C6E5850D46F5950D56F010E5662A8EFE1
:100F100007F05A505B10D8B497EF07F05A50D46FCF
:100F20005B50D56F000E0301BD63A8EF07F0020E02
:100F30000301BD5DD8B4A4EF07F00001D051D46F18
:100F4000D151D56FA8EF07F0E86A0001D46FD56FD3
:100F500000018B0E7CEC0FF0D551E8CF13F0146A32
:100F6000156A166A5EEC10F03A0E6DEC0FF0D4C004
:100F7000E8FFE8CF13F05EEC10F012000301C0515F
:100F8000E5EC2AF0D8A0E4EF07F00301000EC165FC
:100F9000E1EF07F000017CBFE4EF07F00301C1516E
:100FA00000010D6E0E6A00010A0E0F6E000E106E2B
:100FB00073EC13F07B51135E7C511458D8B0E4EFFE
:100FC00007F00001ED6912000001ED6B1200D890EE
:100FD0000001D2AF1200C00E7CEC0FF0000EF86ED4
:100FE000820EF76E660EF66E0DEC10F0D8801200D1
:100FF0000F01D89084B4D880D8A0F8EF07F00A0E7B
:101000003FEC0DF00F01D89084B4D880D8A0F8EF51
:1010100007F00F01D89083B6D880D8A009EF08F068
:101020000A0E3FEC0DF00F01D89083B6D880D8A0FF
:1010300009EF08F0800E7CEC0FF00F0183501DECDF
:1010400010F00F0184501DEC10F0C00E7CEC0FF07E
:101050000F0186501DEC10F00F0181501DEC10F0B7
:101060000F01835082868184E8B08296E8B2819431
:101070008098E8B48088320E3FEC0DF00F01D890D4
:1010800084B4D880D8B04AEF08F00A0E3FEC0DF0D7
:101090000F01D89084B4D880D8B01AEF08F00F01AF
:1010A000D89084B4D880D8A04FEF08F00A0E3FEC57
:1010B0000DF00F01D89084B4D880D8A04FEF08F07D
:1010C000C00E7CEC0FF0000EF86E810EF76E0A0E6B
:1010D000F66E0DEC10F00001116A800E7CEC0FF042
:1010E000000EF86E810EF76E400EF66E0DEC10F0ED
:1010F000870E7CEC0FF0000111502AEC10F07AEC16
:1011000009F0F8C0E8FFE8668CEF08F0D890C43228
:10111000C332D890C432C3328C0E7CEC0FF0C3CFF4
:1011200013F0C4CF14F00001156A166A56EC10F0E3
:10113000320E3FEC0DF00F01D89084B4D880D8B0B7
:10114000A7EF08F00A0E3FEC0DF00F01D89084B421
:10115000D880D8B06DEF08F00F01D89084B4D88053
:10116000D8A0ACEF08F00A0E3FEC0DF00F01D890BC
:1011700084B4D880D8A0ACEF08F00001112A0C0E7E
:1011800011646DEF08F01AEF08F0800E7CEC0FF0A0
:10119000B9C20DF0BAC20EF00E6A0001640E0F6EF5
:1011A000000E106E73EC13F013C011F014C012F0A7
:1011B0008DC00DF08EC00EF013C20FF014C210F0EF
:1011C00073EC13F01450E8CF13F01550E8CF14F07F
:1011D000156A010111B1FDEF08F000011150135C17
:1011E00012501458E8AEFDEF08F0C90E00015F6E12
:1011F000050ED2EC0BF001011169000190EC10F02A
:10120000200EE8CF0AF0300E25640AC025F02550E4
:101210006DEC0FF026506DEC0FF02E0E6DEC0FF014
:1012200027506DEC0FF012000D0E7AEC09F00D0E48
:101230007AEC09F06BC00DF06CC00EF0A9C20FF093
:10124000AAC210F073EC13F000011450136E155085
:10125000146E1650156E166A90EC10F000012550B1
:1012600026100F0BD890D8B41200C00E7CEC0FF0F3
:10127000000EF86E820EF76E540EF66E0DEC10F046
:10128000CB0E7CEC0FF0000125506DEC0FF02650DA
:101290006DEC0FF02E0E6DEC0FF027506DEC0FF093
:1012A00028506DEC0FF0D8801200E86AE8CFF8F013
:1012B0003F0EF86EFF0EF76EFF0EF66E0800F5504B
:1012C0004A0AFF0ED8B4E8CFF8F012000101616BB2
:1012D000626B636B0A6E0B6A0A507AEC09F00101CB
:1012E000C3506127C4506223D8B0632B0B2E6CEF20
:1012F00009F012000A6E31EC02F0E8A888EF09F05C
:10130000BFEC09F0D8B0BFEC09F00AC0E8FF12004A
:101310008DEC09F00AC0E8FF1200C16AE8AEC1888E
:10132000E89EE844E844C26EA10EC06E040EE8CF09
:101330000CF00001000E6B6F000E6C6FC28000009D
:1013400000000000C282C2B2A3EF09F00001C35046
:101350006B27C4506C2300010C06F0E1F8C0E8FFD5
:10136000E81EE866BAEF09F0D8906C336B33D8907A
:101370006C336B336BC0C3FF6CC0C4FF12000DC075
:1013800064F10EC065F10FC066F110C067F113C0C3
:1013900068F114C069F115C06AF116C06BF1030E53
:1013A00031EC02F08DEC09F06BC017F06CC018F056
:1013B0000AC0E8FF31EC02F0E8988DEC09F06BC050
:1013C0000DF06CC00EF0030E31EC02F08DEC09F064
:1013D000000117C0E8FF6B5F18C0E8FF6C5B6CAFE3
:1013E000F7EF09F06B1F6C1F6B2BD8B46C2B6C5193
:1013F000D8A424EF0AF06B510201DC5DD8A024EFE1
:101400000AF00001000E0F6E080E106E73EC13F060
:1014100077EC14F013C06BF014C06CF06BC0C3FF1A
:101420006CC0C4FF64C10DF065C10EF066C10FF061
:1014300067C110F068C113F069C114F06AC115F0FA
:101440006BC116F0D89012000001000E0F6E080E4E
:10145000106E73EC13F077EC14F013C06BF014C043
:101460006CF06BC0C3FF6CC0C4FF64C10DF065C1FC
:101470000EF066C10FF067C110F068C113F069C1CA
:1014800014F06AC115F06BC116F0D880120000018B
:101490004E6A586A596AD4C2E8FFE8CF57F0000193
:1014A000900E546E010E556E0001900E506E010E9E
:1014B000516E526A536A100E0001E8CF4FF03A6A3B
:1014C0003C6A3E6A406A426A446A466A486A4A6AB4
:1014D0004C6A080EE8CF3BF0E8CF3DF0E8CF3FF094
:1014E000E8CF41F0E8CF43F0E8CF45F0E8CF47F050
:1014F000E8CF49F0E8CF4BF0E8CF4DF0858E000102
:1015000054500F01E8CFBBFF000155500F01E8CF49
:10151000BCFF0A0E0F01E8CFBAFF0F01A0800F0138
:101520009E900F01080EE8CFB1FFB18012000001BC
:10153000F5A1857E0201BAAFA1EF0AF08770A9EF8D
:101540000AF00001EBB1A8EF0AF08780A9EF0AF0DA
:1015500087900001BBCFE8FF5026BCCFE8FF5122A7
:1015600050C0E8FFE8CFBBFF51C0E8FFE8CFBCFFA9
:101570000001E86A4E6422EC0BF000014E2A4EC0D6
:10158000E8FFFE0B4F60D8EF0AF04E6A38C0E8FF64
:10159000E8CF50F052C0E8FF505E39C0E8FFE8CF16
:1015A00051F053C0E8FF515A526A536A1FEF0BF0D3
:1015B0004EA0EDEF0AF054C0E8FFE8CF50F055C060
:1015C000E8FFE8CF51F0BAC2E8FF0001EB814E62BC
:1015D00019EF0BF0EB9119EF0BF0120E4E6205EFC5
:1015E0000BF052C0E8FFE8CF50F053C0E8FFE8CF5F
:1015F00051F0513250325132503251325032513218
:1016000050320F0E511619EF0BF0040EE8CFEAFF1F
:10161000000EE8CFE9FF4EC0E8FFE830E89EE8049E
:10162000E92600EC02F054C0E8FF505E55C0E8FF28
:10163000515A50C0E8FF522651C0E8FF53220F0113
:10164000A19012000EEC11F018EC11F00001010E47
:10165000366231EF0BF000018286C3B18296FF0E35
:10166000C36F0301CDBF3AEF0BF00001F5A1859EDA
:101670003DEF0BF00001F5A1858E0201BAAF49EFF5
:101680000BF00301CDBF48EF0BF0879049EF0BF053
:1016900087800001572E90EF0BF006EC2DF0000133
:1016A00056A07FEF0BF00001FF0EED637FEF0BF014
:1016B0005AC0E8FF5B10D8B477EF0BF05A6664EFBE
:1016C0000BF03C0E5A6E5B065A065A505C6E0301D4
:1016D000E86ABD11D8B477EF0BF000015A505B10E7
:1016E000D8B477EF0BF0D06BD16B7FEF0BF000012C
:1016F000D02B3C0ED0637FEF0BF0D06BD12BD4C23C
:10170000E8FFE8CF57F0582A3C0E586290EF0BF0F4
:10171000586A592A0501002BD8B4012B0201B86977
:101720000201A1A199EF0BF0530E4DEC11F0000155
:10173000AE6B83CFE8FF0001311AD8A4306E316E52
:1017400030C0E8FF3212E81EF91332C0E8FFF91783
:1017500084CFE8FF0001341AD8A4336E346E33C04E
:10176000E8FF3512E81EFA1335C0E8FFFA1700014A
:10177000606760076167610762676207A767A7071D
:10178000A867A807A967A9075E66C8EF0BF0120053
:101790005E2E120080785F4E12005DC0E8FFE8CF39
:1017A0005EF01200E8CF5DF0E8CF5EF0D2C2E8FF55
:1017B000E866E1EF0BF0809802C5E8FFE866807804
:1017C0001200808802C5E8FFE866807812000001F8
:1017D0000ABEEEEF0BF0819EEFEF0BF0818E828A56
:1017E000829A0A460B2EE7EF0BF012000201AD5170
:1017F0000A6E080E0B6EE7EC0BF00201AC510A6E9C
:10180000080E0B6EE7EC0BF00201AB510A6E080EEE
:101810000B6EE7EC0BF08686869612000BC113F078
:101820000CC114F00DC115F009C117F00AC118F070
:1018300077EC14F00201A55101010F03F3500001F0
:101840001326D8B0142AD8B0152A0101006B016BF9
:10185000026B00011350E846E846E880E8921F0B4F
:1018600013B6E88E0101006F0001133614361536E9
:101870001336143615361336143615361336143619
:10188000153614500101016F000115501F0B0101A5
:101890001009026F12000EEC0CF0010108510A6EE3
:1018A000080E0B6EE7EC0BF0010107510A6E080EF3
:1018B0000B6EE7EC0BF0010106510A6E080E0B6E81
:1018C000E7EC0BF086868696010105510A6E080E3C
:1018D0000B6EE7EC0BF0010104510A6E080E0B6E63
:1018E000E7EC0BF0010103510A6E080E0B6EE7ECFA
:1018F0000BF086868696010102510A6E080E0B6E69
:10190000E7EC0BF0010101510A6E080E0B6EE7ECDB
:101910000BF0010100510A6E080E0B6EE7EC0BF0A4
:101920008686869612000F01939E949A939C819CC2
:10193000819E829A989686960201010ED163C0EF2D
:101940000CF004C206F105C207F106C208F101C29B
:1019500003F102C204F103C205F10101700E0B6F25
:10196000C60E0C6F000E0D6F0101140E096F000EF4
:101970000A6F01010E6B0A0E106F010E0F6F12003D
:10198000020ED163E3EF0CF00AC206F10BC207F1BD
:101990000CC208F107C203F108C204F109C205F143
:1019A00001016C0E0B6FCF0E0C6F000E0D6F01015D
:1019B000140E096F000E0A6F01010E6B080E106FF6
:1019C000050E0F6F1200030ED16307EF0DF010C26A
:1019D00006F111C207F112C208F10DC203F10EC2E5
:1019E00004F10FC205F101014A0E0B6F190E0C6FC5
:1019F000010E0D6F01010A0E096F000E0A6F010141
:101A00000B0E0E6F320E106F020E0F6F12001200CF
:101A100087B226EF0DF0D5AE18EF0DF0D6CFC7F098
:101A2000D7CFC8F00001C92BD8B4CA2BF090120050
:101A30000001C951CA11F090D8A41200E86AE8CF99
:101A4000D7FFE8CFD6FFD58EF0901200F17AF0AC38
:101A500038EF0DF00301CDA134EF0DF0F1AA858E22
:101A6000F1BA859E38EF0DF0F1AA859EF1BA858E08
:101A7000F09012000000E82E3AEF0DF012000A6E0E
:101A8000FA0E3AEC0DF0FA0E3AEC0DF00A2E40EF99
:101A90000DF01200050EE26EE86AE16EE86AAA6EC9
:101AA000E86AA96EA69EA69CA680A850E66EA92A02
:101AB000F9E112000EC0E8FFE26E0DC0E8FFE16E32
:101AC000E86AAA6E0DC0E8FFA96EA69EA69CA68035
:101AD000A850E66EA92A0A06F8E112000EC0E8FF37
:101AE000AA6E0DC0E8FFA96EA69EA69CA680A8506F
:101AF0001200A198A86E0EC0E8FFAA6E0DC0E8FF04
:101B0000A96EA69EA69CA684F29E550EA76EAA0E4E
:101B1000A76EA682F28EA1A88BEF0DF0A1981200FD
:101B20000FC0E8FF79EC0DF000010D2AD8B40E2AA1
:101B300010C0E8FF79EC0DF012000EC0E8FFE26E75
:101B40000DC0E8FFE16EE86AAA6E0DC0E8FFA96E5D
:101B5000A198E650A86EA69EA69CA684F29E550E5D
:101B6000A76EAA0EA76EA682F28EA1A8B5EF0DF001
:101B7000A198A92A0A06EDE11200800E7CEC0FF074
:101B8000000EF86E820EF76E0C0EF66E0DEC10F075
:101B9000FA0E3FEC0DF0C00E7CEC0FF0000EF86E6C
:101BA000810EF76E880EF66E0DEC10F0E9EC2FF05A
:101BB000D8A01200C00E7CEC0FF0000EF86E820E62
:101BC000F76E1E0EF66E0DEC10F04EEC3DF096EC3E
:101BD00024F00001600EA46F00C2E8FF27EC25F09E
:101BE0000201002B0301072B3A0E0763FBEF0DF0F8
:101BF000062B300E076F0001A42FECEF0DF071ECF7
:101C000024F000C2E8FFFCEC24F0120000011550A3
:101C1000F86E1450F76E1350F66E00010E50E26E1F
:101C20000D50E16E0900F550E66E0A060900F55008
:101C3000E66E0A2E12EF0EF0120000011550F86E3B
:101C40001450F76E1350F66EA68EA69CA684A68836
:101C5000F29E550EA76EAA0EA76EA6820000F28E07
:101C60000001400E1326000E142215220A2E1DEF2D
:101C70000EF0120062EC03F000011550F86E1450E3
:101C8000F76E1350F66EA68EA69CA684A688F29ECA
:101C9000550EA76EAA0EA76EA682F28E0A0000014C
:101CA0000E50E26E0D50E16E400E0B6EE6CFE8FF77
:101CB000F56E0F000B2EFAD7A68EA69CA684F29E78
:101CC000550EA76EAA0EA76EA682F28EA6940001EC
:101CD000400E1326000E142215220001400E0D2680
:101CE000000E0E220A2E3AEF0EF0120000011550DF
:101CF000F86E1450F76E1350F66EA68EA69CA6844E
:101D0000A688F29E550EA76EAA0EA76EA6820000A8
:101D1000F28E0A00080E0B6E00010E50E26E0D509E
:101D2000E16E080E0C6EE6CFE8FFF56E0F000C2E8C
:101D3000FAD7A68EA69CA684F29E550EA76EAA0E72
:101D4000A76EA6820000F28E0B2EEBD7A6940001A0
:101D5000400E1326000E142215220001400E0D26FF
:101D6000000E0E220A2E76EF0EF012000F019A6A74
:101D7000886A9396939A93988186818A8188140EB3
:101D80003FEC0DF003C5E8FFE81EE86607EF0FF033
:101D9000390E7CEC0FF0050E3FEC0DF0390E7CECAB
:101DA0000FF0010E3FEC0DF0390E7CEC0FF0010E40
:101DB0003FEC0DF0390E7CEC0FF01C0E7CEC0FF0BC
:101DC000520E7CEC0FF0690E7CEC0FF0740E7CEC84
:101DD0000FF00C0E7CEC0FF0010E7CEC0FF0060EF9
:101DE0007CEC0FF0380E7CEC0FF0400E7CEC0FF02A
:101DF000400EE8CF0AF0000EF86E1F0EF76E900E40
:101E0000F66E0AC0E8FF10EC10F038EF0FF0380E55
:101E10007CEC0FF0050E3FEC0DF0380E7CEC0FF073
:101E2000010E3FEC0DF0380E7CEC0FF0010E3FEC94
:101E30000DF0380E7CEC0FF0060E7CEC0FF00C0E63
:101E40007CEC0FF0010E7CEC0FF0800E7CEC0FF0C0
:101E5000400E7CEC0FF0400EE8CF0AF0000EF86E5A
:101E60001F0EF76E900EF66E0AC0E8FF10EC10F031
:101E7000800E7CEC0FF0810EF76E1C0EF66E0DECF2
:101E800010F0C00E7CEC0FF0810EF76E2E0EF66E89
:101E90000DEC10F012000101F30E416353EF0FF04F
:101EA0006F0E416F1200F20E416359EF0FF050EFC9
:101EB0000FF0E00E416360EF0FF0610E416F120012
:101EC000E90E416367EF0FF0650E416F1200E70EF8
:101ED00041631200630E416F12008BEC0FF0AEEC09
:101EE0000FF0818A819800000000818600000000C8
:101EF00081960000000012008BEC0FF0AEEC0FF0AA
:101F0000819A81980000000081860000000081967F
:101F100000000000120092EC0FF0D8B08BEF0FF031
:101F20009A6A12009A688188819A0000000081866E
:101F300000000000D890E8CF41F102C5E8FFE86654
:101F4000A8EF0FF088BED880819641C1E8FF12004B
:101F500088B0D880819641C1E8FF1200886E02C522
:101F6000E8FFE81EE866120088CFE8FF886AE8B05C
:101F70008888E8B2888AE8B4888CE8B6888EE8B8A1
:101F80008886E8BA8884E8BC8882E8BE8880120027
:101F90001010101010101010181818181818181801
:101FA0001C1C1C1C1C1C1C1C1E1E1E1E1E1E1E1E61
:101FB0000101010101010101030303030303030301
:101FC00007070707070707070F0F0F0F0F0F0F0F61
:101FD0001F1F1F1F1F1F1F1F800E7CEC0FF00DC047
:101FE000F6FF0EC0F7FFF86A0DEC10F01200C00EFD
:101FF0007CEC0FF00DC0F6FF0EC0F7FFF86A0DEC99
:1020000010F01200C00E7CEC0FF0D4C0F6FFD5C06B
:10201000F7FFF86A0DEC10F01200100E10EF10F040
:102020000A6E0900F5CFE8FFE812D8B412006DEC93
:102030000FF00A4E120011EF10F00A6E080E0B6E30
:10204000300E0ABE310E6DEC0FF00A360B2E20EF6B
:1020500010F012000A6E3A0E0B6E0AC0E8FFF00B89
:10206000E842E842E842E84230090B64070F6DECB1
:102070000FF00AC0E8FF0F0B30090B64070F6DEC7F
:102080000FF00AC0E8FF120090EC10F025506DEC44
:102090000FF026506DEC0FF027506DEC0FF028502C
:1020A0006DEC0FF029506DEC0FF0120090EC10F079
:1020B00049EF10F090EC10F04CEF10F090EC10F0B5
:1020C0004FEF10F090EC10F052EF10F090EC10F099
:1020D0007AEC10F025506DEC0FF026506DEC0FF0FF
:1020E00027506DEC0FF028506DEC0FF029506DEC7F
:1020F0000FF012000001300E25621200200E256E36
:10210000300E26621200200E266E300E276212005C
:10211000200E276E300E28621200200E286E12004C
:102120000001196A1A6A100E176E270E186E77ECE6
:1021300014F0300E1310256E1BC013F01CC014F0E9
:102140001DC015F01EC016F0196A1A6AE80E176E47
:10215000030E186E77EC14F0300E1310266E1BC0B1
:1021600013F01CC014F01DC015F01EC016F0196A43
:102170001A6A640E176E000E186E77EC14F0300EAB
:102180001310276E1BC013F01CC014F01DC015F0F7
:102190001EC016F0196A1A6A0A0E176E000E186E23
:1021A00077EC14F0300E1310286E300E1B10296ED1
:1021B00012000001310E3762E2EF10F071EC24F0F2
:1021C0000CEF11F0320E3762ECEF10F000C2E8FFB6
:1021D000FCEC24F00CEF11F0330E3762F4EF10F04A
:1021E00096EC24F00CEF11F0340E3762FCEF10F097
:1021F00000C2E8FF27EC25F0350E37620CEF11F036
:102200000001FF0E0D6E030E0E6EE8CF0EF0FF0EF6
:1022100079EC0DF00CEF11F0376A12000F01ABA250
:102220001200AB98AB880F01AE500001636B120037
:102230000F016BA212006B986B880F016E50120099
:102240000C0EE8CFAFFF220EE8CFACFF900EE8CF28
:10225000ABFF0001636B9F9A9D8A1200ACA22EEF28
:1022600011F0E8CFADFF12000C0EE8CF6FFFD6C221
:10227000E8FFE8663FEF11F0030EE8CF6FFF7C96B2
:10228000260EE8CF6CFF900EE8CF6BFFA59AA38ACD
:1022900012006CA249EF11F012006CA24DEF11F088
:1022A000E8CF6DFF1200E1CF21F0E2CF22F0000174
:1022B00067C0E1FF000166C0E2FF6A6BACA25EEF9F
:1022C00011F0E6CFE8FF00016A27E8CFADFF00017B
:1022D000682F5EEF11F021C0E1FF22C0E2FF120083
:1022E000E1CF21F0E2CF22F0000167C0E1FF000161
:1022F00066C0E2FF6A6B0001050E606FE86A606508
:102300008FEF11F09EAA7FEF11F0AECFE8FFE8CF7C
:10231000E6FF00016A270001682F7BEF11F021C062
:10232000E1FF22C0E2FF12009EAA12000001000E8F
:102330006363A7EF11F0AECFE8FFE8CF64F0550E6E
:1023400064631200280EE8CF61F0632B1200010EC7
:102350006363B1EF11F0AECFE8FFE8CF65F0632B18
:102360001200020E6363BBEF11F0AECFE8FFE8CFBF
:1023700066F0632B1200030E6363C5EF11F0AECF5E
:10238000E8FFE8CF67F0632B1200040E6363CEEF23
:1023900011F0AECFE8FFE8CF68F0632B050E636362
:1023A000DAEF11F0010E6563D8EF11F070EC11F067
:1023B000632B1200060E6363FDEF11F0AECFE8FF52
:1023C000E8CF69F0020E6563EEEF11F053EC11F007
:1023D0006AC0E8FF2EEC11F0636B12006AC0E8FFE0
:1023E0006963F8EF11F00C0E2EEC11F0636B120024
:1023F0000D0E2EEC11F0636B1200636B1200A4AA99
:1024000012006ECFE8FF0201A1B142EF12F0530AB1
:10241000D8A412000201A0A1120000010F0E76152F
:1024200010094DEC11F075C0E8FF4DEC11F049ECCE
:1024300011F0050E3AEC0DF000010F0E7815200991
:102440004DEC11F077514DEC11F049EC11F0050E07
:102450003AEC0DF000010F0E7A1530094DEC11F039
:1024600079514DEC11F049EC11F0050E3AEC0DF0FC
:1024700000010F0E7C1540094DEC11F07B514DEC25
:1024800011F012000001AEB149EF12F0B06FAE2BA7
:102490001200AF6FAE2B020EAE6362EF12F0B051BE
:1024A000F00B100AD8A4A7EF12F00F0EB017B0A7C8
:1024B0005CEF12F0F00EB013AFC0B1F0B0C0B2F0EC
:1024C000A7EF12F0040EAE6379EF12F0B051F00BEB
:1024D000200AD8A4A7EF12F00F0EB017B0A773EF21
:1024E00012F0F00EB013AFC0B3F0B0C0B4F0A7EF6D
:1024F00012F0060EAE6390EF12F0B051F00B300AFE
:10250000D8A4A7EF12F00F0EB017B0A78AEF12F001
:10251000F00EB013AFC0B5F0B0C0B6F0A7EF12F038
:10252000080EAE63A7EF12F0B051F00B400AD8A42A
:10253000A7EF12F00F0EB017B0A7A1EF12F0F00E38
:10254000B013AFC0B7F0B0C0B8F0A7EF12F01200F0
:10255000D6C2E8FFE81EE8661200AA0E4DEC11F0A4
:10256000AA0E4DEC11F00A6A0B6A040EE26E000E20
:10257000E16E0AC0E8FFE3CF0DF0000EE26E3A0E06
:10258000E16E0DC0E8FFE806D890E836E3CF0DF025
:10259000E82AE3CF0EF000010E3AF00E0E160AC044
:1025A000E8FFE82A0E120E3A0BC0E8FF0D240E24B5
:1025B000E8CF0BF00DC0E8FF4DEC11F00EC0E8FFC6
:1025C0004DEC11F00A2A080E0A60EEEF12F049C431
:1025D000E8FFD890E8320A64B5EF12F00BC0E8FFCC
:1025E0004DEC11F0ED0E4DEC11F0ED0E4DEC11F047
:1025F00012000001EF6707EF13F07E960C0E0F013B
:10260000AF6E220EAC6E900EE8CFABFF12007C9640
:102610000C0E0F016F6E220E6C6E900EE8CF6BFFEA
:1026200012000001E80E0D26030E0E220EAE1EEF64
:1026300013F0E86AE8CF0DF0E8CF0EF0780E0D5CED
:10264000070E0E58D8A028EF13F0EF0E2FEF13F05F
:102650000E320D320E320D320E320D320D5000019F
:10266000EF674DEF11F02EEF11F000010EAE3EEFCF
:1026700013F0E86AE8CF0DF0E8CF0EF0BC0E0D5C69
:10268000030E0E58D8A02AEF13F0EF0E2FEF13F021
:10269000F00E2FEC13F0800E2FEC13F075C00DF040
:1026A00076C00EF011EC13F077C00DF078C00EF08C
:1026B00011EC13F079C00DF07AC00EF011EC13F0AC
:1026C0007BC00DF07CC00EF035EC13F07DC00DF03A
:1026D0007EC00EF011EC13F07FC00DF080C00EF044
:1026E00011EC13F0120084EC13F010AE7CEF13F039
:1026F0000D50155E0E50165A0EAE83EF13F00F50AC
:10270000155E1050165A12000001136A146A156AF9
:10271000166A0F500D02F3CF13F0F4CF14F00F50E0
:102720000E02F3501426F4501522D8B0162A105079
:102730000D02F3501426F4501522D8B0162A10506A
:102740000E02F3501526F450162212000001246ADE
:102750001B6A14501310D8B4000C14501718E8BE9C
:10276000241EAA6B000E17AEB8EF13F0171E172A1F
:1027700014AEBFEF13F0131E141E132A14221450AC
:102780001710E8BE4BEF14F017501B5E14361434CC
:102790001B3617501B26143614341B36175014B032
:1027A0001B5E14A01B26143614341B36175014B0AD
:1027B0001B5E14A01B26143614341B36175014B09D
:1027C0001B5E14A01B26143614341B36175014B08D
:1027D0001B5E14A01B26143614341B36175014B07D
:1027E0001B5E14A01B26143614341B36175014B06D
:1027F0001B5E14A01B26143613341B36175014B05E
:102800001B5E14A01B26133613341B36175013B04F
:102810001B5E13A01B26133613341B36175013B040
:102820001B5E13A01B26133613341B36175013B030
:102830001B5E13A01B26133613341B36175013B020
:102840001B5E13A01B26133613341B36175013B010
:102850001B5E13A01B26133613341B36175013B000
:102860001B5E13A01B26133613341B36175013B0F0
:102870001B5E13A01B26133613A01B26AAB169EFFB
:1028800014F024AE000C131E141EE86A132A14223E
:102890001B1E1B2A000C17AE64EF14F014BE60EF71
:1028A00014F0E8CFA3F01350E8CF1BF01B9E1336B3
:1028B00014361450E8CF13F0A351146A41EF14F00A
:1028C000136A132A146A000C141E131EAA2BC4EFD9
:1028D00013F01B2A17501B6241EF14F01B6A000E05
:1028E000132A142214AE41EF14F02388FF0C0001C8
:1028F000246A1C6A1B6A155014101310D8B4000CFB
:1029000015501818E8BE241EAA6B000E18AE8DEFE5
:1029100014F0171E181E172A182215AE96EF14F081
:10292000131E141E151E132A1422152215501810DA
:10293000E8BE20EF16F017501B5E18501C5A1536D3
:1029400015341B361C3617501B2618501C22153602
:1029500015341B361C36175015A0B4EF14F01B5E4F
:1029600018501C5AB7EF14F01B2618501C221536AD
:1029700015341B361C36175015A0C4EF14F01B5E1F
:1029800018501C5AC7EF14F01B2618501C2215367D
:1029900015341B361C36175015A0D4EF14F01B5EEF
:1029A00018501C5AD7EF14F01B2618501C2215364D
:1029B00015341B361C36175015A0E4EF14F01B5EBF
:1029C00018501C5AE7EF14F01B2618501C2215361D
:1029D00015341B361C36175015A0F4EF14F01B5E8F
:1029E00018501C5AF7EF14F01B2618501C221536ED
:1029F00015341B361C36175015A004EF15F01B5E5E
:102A000018501C5A07EF15F01B2618501C221536BB
:102A100014341B361C36175015A014EF15F01B5E2E
:102A200018501C5A17EF15F01B2618501C2214368C
:102A300014341B361C36175014A024EF15F01B5EFF
:102A400018501C5A27EF15F01B2618501C2214365C
:102A500014341B361C36175014A034EF15F01B5ECF
:102A600018501C5A37EF15F01B2618501C2214362C
:102A700014341B361C36175014A044EF15F01B5E9F
:102A800018501C5A47EF15F01B2618501C221436FC
:102A900014341B361C36175014A054EF15F01B5E6F
:102AA00018501C5A57EF15F01B2618501C221436CC
:102AB00014341B361C36175014A064EF15F01B5E3F
:102AC00018501C5A67EF15F01B2618501C2214369C
:102AD00014341B361C36175014A074EF15F01B5E0F
:102AE00018501C5A77EF15F01B2618501C2214366C
:102AF00014341B361C36175014A084EF15F01B5EDF
:102B000018501C5A87EF15F01B2618501C2214363B
:102B100013341B361C36175014A094EF15F01B5EAF
:102B200018501C5A97EF15F01B2618501C2213360C
:102B300013341B361C36175013A0A4EF15F01B5E80
:102B400018501C5AA7EF15F01B2618501C221336DC
:102B500013341B361C36175013A0B4EF15F01B5E50
:102B600018501C5AB7EF15F01B2618501C221336AC
:102B700013341B361C36175013A0C4EF15F01B5E20
:102B800018501C5AC7EF15F01B2618501C2213367C
:102B900013341B361C36175013A0D4EF15F01B5EF0
:102BA00018501C5AD7EF15F01B2618501C2213364C
:102BB00013341B361C36175013A0E4EF15F01B5EC0
:102BC00018501C5AE7EF15F01B2618501C2213361C
:102BD00013341B361C36175013A0F4EF15F01B5E90
:102BE00018501C5AF7EF15F01B2618501C221336EC
:102BF00013341B361C36175013A004EF16F01B5E5F
:102C000018501C5A07EF16F01B2618501C221336BA
:102C100013B00FEF16F017501B2618501C22AAB144
:102C200044EF16F024AE000C131E141E151E000EE9
:102C3000132A142215221B1E1C1E1B2A1C22000CE8
:102C400018AE3EEF16F015BE39EF16F0E8CFA3F040
:102C50001450E8CF1CF01350E8CF1BF01C9E143624
:102C600015361550E8CF13F0A351156A146A12EF08
:102C700016F0136A132A146A156A000C151E141E26
:102C8000131EAA2B9BEF14F01B2AE86A1C22175074
:102C90001B6212EF16F018501C6212EF16F01C6A3D
:102CA0001B6A000E132A1422152215AE12EF16F01D
:102CB0002388FF0C00011E6A1D6A1C6A1B6A1634F9
:102CC0001B361C361D361E3617501B5E18501C5AFC
:102CD00019501D5A1A501E5AAA6BAA5B1636163482
:102CE0001B361C361D361E36AA37175016A084EF29
:102CF00016F01B5E18501C5A19501D5A1A501E5AB5
:102D0000E86AAA5B8DEF16F01B2618501C2219509A
:102D10001D221A501E22E86AAA23163616341B36C4
:102D20001C361D361E36AA37175016A0A3EF16F014
:102D30001B5E18501C5A19501D5A1A501E5AE86A28
:102D4000AA5BACEF16F01B2618501C2219501D224E
:102D50001A501E22E86AAA23163616341B361C3671
:102D60001D361E36AA37175016A0C2EF16F01B5E8E
:102D700018501C5A19501D5A1A501E5AE86AAA5B5C
:102D8000CBEF16F01B2618501C2219501D221A508A
:102D90001E22E86AAA23163616341B361C361D3648
:102DA0001E36AA37175016A0E1EF16F01B5E18501A
:102DB0001C5A19501D5A1A501E5AE86AAA5BEAEFAB
:102DC00016F01B2618501C2219501D221A501E22C4
:102DD000E86AAA23163616341B361C361D361E36F4
:102DE000AA37175016A000EF17F01B5E18501C5A98
:102DF00019501D5A1A501E5AE86AAA5B09EF17F0BB
:102E00001B2618501C2219501D221A501E22E86A37
:102E1000AA23163616341B361C361D361E36AA3724
:102E2000175016A01FEF17F01B5E18501C5A1950B0
:102E30001D5A1A501E5AE86AAA5B28EF17F01B2683
:102E400018501C2219501D221A501E22E86AAA236B
:102E5000163616341B361C361D361E36AA3717504A
:102E600016A03EEF17F01B5E18501C5A19501D5A41
:102E70001A501E5AE86AAA5B47EF17F01B26185033
:102E80001C2219501D221A501E22E86AAA23163647
:102E900015341B361C361D361E36AA37175016A0A1
:102EA0005DEF17F01B5E18501C5A19501D5A1A502E
:102EB0001E5AE86AAA5B66EF17F01B2618501C2200
:102EC00019501D221A501E22E86AAA2315361534FD
:102ED0001B361C361D361E36AA37175015A07CEF40
:102EE00017F01B5E18501C5A19501D5A1A501E5AC2
:102EF000E86AAA5B85EF17F01B2618501C221950B0
:102F00001D221A501E22E86AAA23153615341B36D4
:102F10001C361D361E36AA37175015A09BEF17F02A
:102F20001B5E18501C5A19501D5A1A501E5AE86A36
:102F3000AA5BA4EF17F01B2618501C2219501D2263
:102F40001A501E22E86AAA23153615341B361C3681
:102F50001D361E36AA37175015A0BAEF17F01B5EA4
:102F600018501C5A19501D5A1A501E5AE86AAA5B6A
:102F7000C3EF17F01B2618501C2219501D221A509F
:102F80001E22E86AAA23153615341B361C361D3658
:102F90001E36AA37175015A0D9EF17F01B5E185030
:102FA0001C5A19501D5A1A501E5AE86AAA5BE2EFC1
:102FB00017F01B2618501C2219501D221A501E22D1
:102FC000E86AAA23153615341B361C361D361E3604
:102FD000AA37175015A0F8EF17F01B5E18501C5AAF
:102FE00019501D5A1A501E5AE86AAA5B01EF18F0D0
:102FF0001B2618501C2219501D221A501E22E86A46
:10300000AA23153615341B361C361D361E36AA3734
:10301000175015A017EF18F01B5E18501C5A1950C6
:103020001D5A1A501E5AE86AAA5B20EF18F01B2698
:1030300018501C2219501D221A501E22E86AAA2379
:10304000153615341B361C361D361E36AA3717505A
:1030500015A036EF18F01B5E18501C5A19501D5A57
:103060001A501E5AE86AAA5B3FEF18F01B26185048
:103070001C2219501D221A501E22E86AAA23153656
:1030800014341B361C361D361E36AA37175015A0B1
:1030900055EF18F01B5E18501C5A19501D5A1A5043
:1030A0001E5AE86AAA5B5EEF18F01B2618501C2215
:1030B00019501D221A501E22E86AAA23143614340D
:1030C0001B361C361D361E36AA37175014A074EF57
:1030D00018F01B5E18501C5A19501D5A1A501E5ACF
:1030E000E86AAA5B7DEF18F01B2618501C221950C5
:1030F0001D221A501E22E86AAA23143614341B36E5
:103100001C361D361E36AA37175014A093EF18F040
:103110001B5E18501C5A19501D5A1A501E5AE86A44
:10312000AA5B9CEF18F01B2618501C2219501D2278
:103130001A501E22E86AAA23143614341B361C3691
:103140001D361E36AA37175014A0B2EF18F01B5EBA
:1031500018501C5A19501D5A1A501E5AE86AAA5B78
:10316000BBEF18F01B2618501C2219501D221A50B4
:103170001E22E86AAA23143614341B361C361D3668
:103180001E36AA37175014A0D1EF18F01B5E185046
:103190001C5A19501D5A1A501E5AE86AAA5BDAEFD7
:1031A00018F01B2618501C2219501D221A501E22DE
:1031B000E86AAA23143614341B361C361D361E3614
:1031C000AA37175014A0F0EF18F01B5E18501C5AC5
:1031D00019501D5A1A501E5AE86AAA5BF9EF18F0E6
:1031E0001B2618501C2219501D221A501E22E86A54
:1031F000AA23143614341B361C361D361E36AA3745
:10320000175014A00FEF19F01B5E18501C5A1950DC
:103210001D5A1A501E5AE86AAA5B18EF19F01B26AD
:1032200018501C2219501D221A501E22E86AAA2387
:10323000143614341B361C361D361E36AA3717506A
:1032400014A02EEF19F01B5E18501C5A19501D5A6D
:103250001A501E5AE86AAA5B37EF19F01B2618505D
:103260001C2219501D221A501E22E86AAA23143665
:1032700013341B361C361D361E36AA37175014A0C1
:103280004DEF19F01B5E18501C5A19501D5A1A5058
:103290001E5AE86AAA5B56EF19F01B2618501C222A
:1032A00019501D221A501E22E86AAA23133613341D
:1032B0001B361C361D361E36AA37175013A06CEF6E
:1032C00019F01B5E18501C5A19501D5A1A501E5ADC
:1032D000E86AAA5B75EF19F01B2618501C221950DA
:1032E0001D221A501E22E86AAA23133613341B36F5
:1032F0001C361D361E36AA37175013A08BEF19F057
:103300001B5E18501C5A19501D5A1A501E5AE86A52
:10331000AA5B94EF19F01B2618501C2219501D228D
:103320001A501E22E86AAA23133613341B361C36A1
:103330001D361E36AA37175013A0AAEF19F01B5ED0
:1033400018501C5A19501D5A1A501E5AE86AAA5B86
:10335000B3EF19F01B2618501C2219501D221A50C9
:103360001E22E86AAA23133613341B361C361D3678
:103370001E36AA37175013A0C9EF19F01B5E18505C
:103380001C5A19501D5A1A501E5AE86AAA5BD2EFED
:1033900019F01B2618501C2219501D221A501E22EB
:1033A000E86AAA23133613341B361C361D361E3624
:1033B000AA37175013A0E8EF19F01B5E18501C5ADB
:1033C00019501D5A1A501E5AE86AAA5BF1EF19F0FB
:1033D0001B2618501C2219501D221A501E22E86A62
:1033E000AA23133613341B361C361D361E36AA3755
:1033F000175013A007EF1AF01B5E18501C5A1950F3
:103400001D5A1A501E5AE86AAA5B10EF1AF01B26C2
:1034100018501C2219501D221A501E22E86AAA2395
:10342000133613341B361C361D361E36AA3717507A
:1034300013A026EF1AF01B5E18501C5A19501D5A83
:103440001A501E5AE86AAA5B2FEF1AF01B26185072
:103450001C2219501D221A501E22E86AAA23133674
:1034600013B03BEF1AF017501B2618501C221950AE
:103470001D221A501E22000C4C20202041696C6530
:10348000726F6E202020205255202020456C6576DA
:1034900061746F72202020444C20202020527564DB
:1034A00064657220202020524C2020205468726FC6
:1034B00074746C652020204841202020202043483F
:1034C0002035202020202042552020202020434845
:1034D0002036202020202044552020202020434832
:1034E0002037202020202044432020202020434833
:1034F0002038202020202041456C657661746F7251
:10350000202020202020202041696C65726F6E20D1
:103510002020202020202020527564646572202005
:1035200020202020202020205468726F74746C6545
:10353000202020202020202043483520202020202B
:10354000202020202020202043483620202020201A
:103550002020202020202020434837202020202009
:1035600020202020202020204348382020202020F8
:1035700020202020202020200001780E0D6E340E07
:103580000E6E5EC1E8FFE83A00010D26D8B00E2AA3
:10359000ECEC0FF0F7EC1AF0D8B0EFEF1AF00F01E7
:1035A000750EE16E000EE26E5EC1E8FF070BE846A5
:1035B000E126D8B0E22AE650E8CF0DF0E650E8CF99
:1035C0000EF0E1CFE8FF7D0AD8A4EBEF1AF020EC73
:1035D00040F0EFEF1AF042EC3FF0A7EC3FF05FEC69
:1035E00024F00101D8B05E2B0F0E5E171200D890A8
:1035F0005EC1E8FFE8A612000F013C0EE16E000E6E
:10360000E26E5EC1E8FF070BE846E126D8B0E22A89
:10361000E650E8CF13F0E550E8CF14F0890E7CECCB
:103620000FF042EC1BF0E650E8CF0DF0E550E8CF8C
:103630000EF01DEC1BF0D88012000001AEC2E8FFB6
:103640000D5EAFC2E8FF0E5A0001E80E0F6E030ECA
:10365000106E73EC13F0B0C217F0B1C218F0000195
:10366000AEC2E8FF175EAFC2E8FF185A77EC14F05D
:10367000C00E7CEC0FF013C00DF014C00EF020EC67
:1036800040F012000001D89014321332156A166A05
:1036900090EC10F026506DEC0FF02E0E6DEC0FF04C
:1036A00027506DEC0FF028506DEC0FF029506DECA9
:1036B0000FF06D0E6DEC0FF0530E6DEC0FF012006D
:1036C0000F01D89083B6D880D8B06CEF1BF00A0EEB
:1036D0003FEC0DF00F01D89083B6D880D8B0E2EF60
:1036E0001BF00F01D89084B2D880D8B07DEF1BF0CA
:1036F0000A0E3FEC0DF00F01D89084B2D880D8B0FC
:10370000E2EF1BF00001D267A4EF1BF00001D269C9
:10371000030132C30DF033C30EF00001E80E0F6E4B
:10372000030E106E73EC13F014C01CF115C01DF1E4
:103730000301345101011C270301355101011D23EF
:1037400034C31AF135C31BF17BEC32F0D8B0B5EFBE
:103750001BF0D8A4BCEF1BF001011A07D8A01B076F
:103760001A07D8A01B07BCEF1BF001011A2BD8B415
:103770001B2B1A2BD8B41B2B1CC10DF01DC10EF036
:1037800001011A5100010D5E01011B5100010E5A89
:103790000001000E0F6E010E106E73EC13F00001AD
:1037A000E80E176E030E186E77EC14F013C032F3A8
:1037B00014C033F31AC134F31BC135F36BEC1FF0A3
:1037C000D88412000001D267E8EF1BF0D8941200F1
:1037D000D26B71EC25F0D894120000016B51E8CF48
:1037E0000DF06C51E8CF0EF06F510D5E70510E5A16
:1037F000D8A00AEF1CF06D51E8CF0FF06E51E8CF62
:1038000010F073EC13F01450E8CF73F01550E8CFBC
:1038100074F012007151E8CF0FF07251E8CF10F040
:1038200073EC13F01450E8CF73F01550E8CF74F038
:1038300012006BC00DF06CC00EF06F510D5E705138
:103840000E5A6DC00FF06EC010F073EC13F01450F0
:10385000E8CF73F01550E8CF74F012000001750E38
:10386000BB6F000EBC6F0001750EB96F000EBA6F12
:10387000080EE8CFBAF0260EBD6FBCEC29F0040E9E
:103880007AEC09F015C26DF016C26EF017C26FF037
:1038900018C270F019C271F01AC272F0EDEC1BF090
:1038A00073C00DF074C00EF043C40BF00B3A3EEC45
:1038B00028F00DC034F10EC035F10DC075F00EC00A
:1038C00076F0050E7AEC09F01BC26DF01CC26EF0AA
:1038D0001DC26FF01EC270F01FC271F020C272F0E4
:1038E000EDEC1BF073C00DF074C00EF044C40BF08F
:1038F0000B3A3EEC28F00DC036F10EC037F10DC08A
:1039000077F00EC078F0060E7AEC09F021C26DF067
:1039100022C26EF023C26FF024C270F025C271F093
:1039200026C272F0EDEC1BF073C00DF074C00EF007
:1039300045C40BF00B3A3EEC28F00DC038F10EC038
:1039400039F10DC079F00EC07AF0070E7AEC09F06B
:10395000070E7AEC09F027C26DF028C26EF029C27A
:103960006FF02AC270F019EC1CF073C00DF074C037
:103970000EF046C40BF00B3A3EEC28F00DC03AF1C5
:103980000EC03BF10DC07BF00EC07CF00DC027F4E3
:103990000EC028F4030E7AEC09F000010F01C3CF2A
:1039A000E8FFE8CF8DF0C4CFE8FFE8CF8EF0080E37
:1039B0007AEC09F02DC26FF02EC270F02BC26DF0C0
:1039C0002CC26EF019EC1CF073C085F074C086F048
:1039D000090E7AEC09F031C26FF032C270F02FC2DA
:1039E0006DF030C26EF019EC1CF073C087F074C03B
:1039F00088F00A0E7AEC09F035C26FF036C270F02A
:103A000033C26DF034C26EF019EC1CF073C089F053
:103A100074C08AF00B0E7AEC09F039C26FF03AC22A
:103A200070F037C26DF038C26EF019EC1CF073C044
:103A30008BF074C08CF00301B551E5EC2AF0D8A0EE
:103A400029EF1DF00001E80E7D6F030E7E6F2EEF53
:103A50001DF00001180E7D6FFC0E7E6F000E7AECDB
:103A600009F03BC26DF03CC26EF03DC26FF03EC249
:103A700070F019EC1CF073C00DF074C00EF047C468
:103A80000BF00B3A3EEC28F00DC07FF00EC080F03A
:103A9000010E7AEC09F03FC26DF040C26EF041C2F7
:103AA0006FF042C270F019EC1CF073C00DF074C0DE
:103AB0000EF048C40BF00B3A3EEC28F00DC081F03C
:103AC0000EC082F00301B751E5EC2AF0D8A070EFE8
:103AD0001DF00001E80E836F030E846F8AEF1DF066
:103AE0000301B951E5EC2AF0D8A07EEF1DF00001EA
:103AF000180E836FFC0E846F8AEF1DF00301B8511E
:103B0000E5EC2AF0D8A08AEF1DF00001000E836FCB
:103B1000000E846F12000001106A0FBE101E73ECBD
:103B200013F00001640E176E000E186E77EC14F09F
:103B300013C011F014C012F013C00FF014C010F035
:103B40000EAEA8EF1DF00F1E101E0F2AD8B0102ABF
:103B500073EC13F000010A0E176E000E186E77EC6E
:103B600014F00B50E8CF17F0186A17BE181E77EC48
:103B700014F011500D5E12500E5A13500D261450B1
:103B80000E2212000301AE51E5EC2AF075C00DF0D3
:103B900076C00EF0D8A0D8EF1DF003011B51000134
:103BA000E8CF0FF003011751E8CF0BF0E0EF1DF065
:103BB00003011A510001E8CF0FF0640EE8CF0BF0BB
:103BC0008BEC1DF00DC075F00EC076F00301AF5107
:103BD000E5EC2AF077C00DF078C00EF0D8A0FCEF2D
:103BE0001DF0030126510001E8CF0FF0030122511F
:103BF000E8CF0BF004EF1EF0030125510001E8CFE0
:103C00000FF0640EE8CF0BF08BEC1DF00DC077F0D9
:103C10000EC078F00301B051E5EC2AF079C00DF048
:103C20007AC00EF0D8A020EF1EF003013151000140
:103C3000E8CF0FF003012D51E8CF0BF028EF1EF075
:103C4000030130510001E8CF0FF0640EE8CF0BF014
:103C50008BEC1DF00DC079F00EC07AF0120003015C
:103C6000AE51E5EC2AF0D8A04EEF1EF075C00FF073
:103C700076C010F017C30DF018C30EF00E6A0DBE1B
:103C80000E1E73EC13F00001640E176E000E186E1A
:103C900077EC14F013C075F014C076F00301AF5147
:103CA000E5EC2AF0D8A06DEF1EF077C00FF078C0D9
:103CB00010F022C30DF023C30EF00E6A0DBE0E1ECF
:103CC00073EC13F00001640E176E000E186E77ECA3
:103CD00014F013C077F014C078F00301B051E5EC94
:103CE0002AF0D8A08CEF1EF079C00FF07AC010F047
:103CF0002DC30DF02EC30EF00E6A0DBE0E1E73EC1A
:103D000013F00001640E176E000E186E77EC14F0BD
:103D100013C079F014C07AF0120057C1E8FFE81E12
:103D2000E8661200E86AE8CF57F1030E00015F6E03
:103D3000030ED2EC0BF01200D3C2E8FFE81EE866D7
:103D4000F0EF1EF080C50FF081C510F00201B251F6
:103D50009DEC01F00FC00DF010C00EF04BC10FF044
:103D60004CC110F03AEC1FF0E868D8B0E8CF57F13A
:103D70000FC04BF110C04CF182C50FF083C510F09D
:103D80000201B3519DEC01F00FC00DF010C00EF018
:103D90004DC10FF04EC110F03AEC1FF0E868D8B0FA
:103DA000E8CF57F10FC04DF110C04EF184C50FF0B0
:103DB00085C510F00201B4519DEC01F00FC00DF06B
:103DC00010C00EF04FC10FF050C110F03AEC1FF0D0
:103DD000E868D8B0E8CF57F10FC04FF110C050F1EC
:103DE000D7C2E8FFE81EE86610EF1FF086C50FF0A7
:103DF00087C510F00201B5519DEC01F00FC00DF028
:103E000010C00EF051C10FF052C110F03AEC1FF08B
:103E1000E868D8B0E8CF57F10FC051F110C052F1A7
:103E2000D8C2E8FFE81EE86612007FC00DF080C02F
:103E30000EF053C10FF054C110F03AEC1FF0E868D7
:103E4000D8B0E8CF57F10FC053F110C054F181C082
:103E50000DF082C00EF055C10FF056C110F03AECD3
:103E60001FF0E868D8B0E8CF57F10FC055F110C087
:103E700056F112000DC011F00EC012F000010FC07B
:103E8000E8FF115E10C0E8FF125A12AE4DEF1FF0AE
:103E9000111E121E112AD8B4122AD89012321132D1
:103EA000D89012321132D89012321132D890123288
:103EB0001132D8901232113211C0E8FF1212D8908C
:103EC000D8B412000EC0E8FF1018E8360DC00FF08D
:103ED0000EC010F0120080C50FF081C510F0020175
:103EE000B2519DEC01F00301A75100010F2603011F
:103EF000A8510001102218C30DF019C30EF00001E3
:103F00000E6AFF0E0DBE0E6E73EC13F00001640E10
:103F1000176E186A196A1A6A77EC14F00001030127
:103F2000195100010D6E0E6A0DBE0E1E0D360E36B5
:103F30000D5013260E50142213507527145076235B
:103F400082C50FF083C510F00201B3519DEC01F062
:103F50000301A95100010F260301AA5100011022FB
:103F600023C30DF024C30EF000010E6AFF0E0DBE38
:103F70000E6E73EC13F00001640E176E186A196A66
:103F80001A6A77EC14F000010301245100010D6E50
:103F90000E6A0DBE0E1E0D360E360D5013260E5037
:103FA0001422135077271450782384C50FF085C549
:103FB00010F00201B4519DEC01F00301AB5100017E
:103FC0000F260301AC51000110222EC30DF02FC3A8
:103FD0000EF000010E6AFF0E0DBE0E6E73EC13F0B4
:103FE0000001640E176E186A196A1A6A77EC14F0E9
:103FF000000103012F5100010D6E0E6A0DBE0E1E51
:104000000D360E360D5013260E50142213507927FC
:1040100014507A2386C50FF087C510F00201B55100
:104020009DEC01F036C30DF037C30EF000010E6AAF
:10403000FF0E0DBE0E6E73EC13F00001640E176ED2
:10404000186A196A1A6A77EC14F00301010E3763D3
:1040500041EF20F00001030E0E6E186EE80E0D6E9B
:10406000176E7B510D5E7C510E5A196A1A6A13C085
:104070000FF014C010F073EC13F077EC14F05BEF5A
:1040800020F0020E37635BEF20F000017B510D6ED4
:104090007C510E6E13C00FF014C010F073EC13F0CF
:1040A0000001030EE8CF18F0E80EE8CF17F0196A08
:1040B0001A6A77EC14F0000113507B2714507C230C
:1040C000120000010E6A08C40DF00DBE0E6800015A
:1040D0000A0E0F6E000E106E73EC13F0135075275E
:1040E0001450762300010E6A09C40DF00DBE0E684F
:1040F00000010A0E0F6E000E106E73EC13F01350D9
:1041000077271450782300010E6A0AC40DF00DBE03
:104110000E6800010A0E0F6E000E106E73EC13F0A5
:104120001350792714507A2300010E6A0BC40DF046
:104130000DBE0E6800010A0E0F6E000E106E73ECBD
:1041400013F013507B2714507C2300010E6A0CC41B
:104150000DF00DBE0E6800010A0E0F6E000E106EFF
:1041600073EC13F013507D2714507E2300010E6A68
:104170000DC40DF00DBE0E6800010A0E0F6E000E8C
:10418000106E73EC13F013507F271450802300013E
:104190000E6A0EC40DF00DBE0E6800010A0E0F6E01
:1041A000000E106E73EC13F013508127145082230D
:1041B00000010E6A0FC40DF00DBE0E6800010A0E5C
:1041C0000F6E000E106E73EC13F013508327145013
:1041D0008423120000010A0E0D6E000E0E6E030104
:1041E000BB51E5EC2AF0D8A03BEF21F003014DAF25
:1041F00008EF21F04CC30FF0106A0FBE106873EC8B
:1042000013F0000113C0E8FF752714C0E8FF762300
:1042100003014FAF1AEF21F04EC30FF0106A0FBE2B
:10422000106873EC13F0000113C0E8FF772714C087
:10423000E8FF7823030151AF2CEF21F050C30FF0BA
:10424000106A0FBE106873EC13F0000113C0E8FF92
:10425000792714C0E8FF7A23030153AF3BEF21F025
:1042600052C30FF0106A0FBE106873EC13F013C046
:104270007BF014C07CF00301BC51E5EC2AF0D8A01F
:1042800087EF21F0030155AF54EF21F054C30FF035
:10429000106A0FBE106873EC13F0000113C0E8FF42
:1042A000752714C0E8FF7623030157AF66EF21F0AE
:1042B00056C30FF0106A0FBE106873EC13F00001C4
:1042C00013C0E8FF772714C0E8FF7823030159AF34
:1042D00078EF21F058C30FF0106A0FBE106873EC2E
:1042E00013F0000113C0E8FF792714C0E8FF7A2318
:1042F00003015BAF87EF21F05AC30FF0106A0FBEC6
:10430000106873EC13F013C07BF014C07CF0000154
:104310007CAF1200E86A7B6F7C6F120090C0E8FFF0
:10432000C00A32E07DC00DF07EC00EF000018FC0EB
:10433000E8FF0D5E90C0E8FF0E5A0EBEB2EF21F00E
:1043400019C4E8FF0D5E1AC4E8FF0E5A0EBEC4EF92
:1043500021F0000119C4E8FF8F271AC4E8FF902359
:10436000C8EF21F019C4E8FF0D261AC4E8FF0E2299
:104370000EAEC4EF21F0000119C4E8FF8F5F1AC42C
:10438000E8FF905BC8EF21F07DC08FF07EC090F019
:1043900092C0E8FFC00A32E083C00DF084C00EF086
:1043A000000191C0E8FF0D5E92C0E8FF0E5A0EBEFC
:1043B000ECEF21F01BC4E8FF0D5E1CC4E8FF0E5AB1
:1043C0000EBEFEEF21F000011BC4E8FF91271CC4C4
:1043D000E8FF922302EF22F01BC4E8FF0D261CC465
:1043E000E8FF0E220EAEFEEF21F000011BC4E8FF35
:1043F000915F1CC4E8FF925B02EF22F083C091F052
:1044000084C092F0FDC0E8FFC00A32E07BC00DF02E
:104410007CC00EF00001FCC0E8FF0D5EFDC0E8FFAF
:104420000E5A0EBE26EF22F03FC4E8FF0D5E40C4D8
:10443000E8FF0E5A0EBE38EF22F000013FC4E8FF3D
:10444000FC2740C4E8FFFD2341EF22F03FC4E8FF12
:104450000D2640C4E8FF0E220EAE38EF22F0000118
:104460003FC4E8FFFC5F40C4E8FFFD5B41EF22F082
:104470007BC0FCF07CC0FDF00401D00E3F6F070E46
:10448000406F12000201B6B312000201A1B1120086
:104490000301B651E5EC2AF0D8A0120000016267D2
:1044A000120002019F510001626F0201010EB6630A
:1044B00063EF22F0010E00015F6E050ED2EC0BF0EF
:1044C000280E0001626F75C00DF076C00EF006EC8C
:1044D00023F0D8A499EF22F00201B66772EF22F020
:1044E00002019E51000176BF80EF22F003011927DF
:1044F00019AF8AEF22F0D8A68AEF22F08DEF22F0D2
:104500000301195F19BF8AEF22F0D8A68AEF22F0C3
:1045100092EF22F019BF92EF22F0640E1961196F29
:1045200097EF22F0640EE81EE82A1965196F71EC06
:1045300025F077C00DF078C00EF006EC23F0D8A47B
:10454000CFEF22F00201B667A8EF22F002019E51E0
:10455000000178BFB6EF22F00301242724AFC0EF9B
:1045600022F0D8A6C0EF22F0C3EF22F00301245FAF
:1045700024BFC0EF22F0D8A6C0EF22F0C8EF22F08F
:1045800024BFC8EF22F0640E2461246FCDEF22F027
:10459000640EE81EE82A2465246F71EC25F079C0CA
:1045A0000DF07AC00EF006EC23F0D8A405EF23F04E
:1045B0000201B667DEEF22F002019E5100017ABFD0
:1045C000ECEF22F003012F272FAFF6EF22F0D8A651
:1045D000F6EF22F0F9EF22F003012F5F2FBFF6EF85
:1045E00022F0D8A6F6EF22F0FEEF22F02FBFFEEF6A
:1045F00022F0640E2F612F6F03EF23F0640EE81E8C
:10460000E82A2F652F6F71EC25F0120000010EAE25
:104610000FEF23F00D1E0E1E0D2AD8B00E2AD890D3
:104620000E320D320E6619EF23F0640E0D641EEF8C
:1046300023F00001640E0D6E000E0E6E0DC0E8FF3B
:10464000E8460201E05D0001D894D8A0D8841200A9
:104650000001C36B000176BF3AEF23F011C30DF0E8
:1046600012C30EF075C00FF076C010F073EC13F0AB
:1046700044EF23F015C30DF016C30EF075C00FF014
:1046800076C010F073EC13F013C30DF014C30EF0EA
:10469000000114500D2615500E2240EC24F00DC0E0
:1046A0003EF00EC03FF0000178BF63EF23F01CC363
:1046B0000DF01DC30EF077C00FF078C010F073EC52
:1046C00013F06DEF23F020C30DF021C30EF077C07F
:1046D0000FF078C010F073EC13F01EC30DF01FC381
:1046E0000EF0000114500D2615500E2240EC24F05F
:1046F0000DC03CF00EC03DF000017ABF8CEF23F0FE
:1047000027C30DF028C30EF079C00FF07AC010F067
:1047100073EC13F096EF23F02BC30DF02CC30EF0C7
:1047200079C00FF07AC010F073EC13F029C30DF0CC
:104730002AC30EF0000114500D2615500E2240EC35
:1047400024F00DC040F00EC041F032C30DF033C371
:104750000EF0FCC00FF0FDC010F073EC13F034C38A
:104760000DF035C30EF0000114500D2615500E2229
:1047700040EC24F00DC042F00EC043F03AC30DF0FF
:104780003BC30EF08FC00FF090C010F073EC13F02D
:104790003CC30DF03DC30EF0000114500D26155022
:1047A0000E2240EC24F00DC044F00EC045F03EC394
:1047B0000DF03FC30EF07FC00FF080C010F073EC1F
:1047C00013F040C30DF041C30EF0000114500D264C
:1047D00015500E2240EC24F00DC046F00EC047F0FC
:1047E00042C30DF043C30EF081C00FF082C010F041
:1047F00073EC13F044C30DF045C30EF000011450E8
:104800000D2615500E2240EC24F00DC048F00EC0CD
:1048100049F091C00DF092C00EF00EBE18EF24F0DA
:1048200046C30FF047C310F073EC13F01EEF24F0F3
:104830004AC30FF04BC310F073EC13F048C30DF0F4
:1048400049C30EF00D5014260E50152214C00DF061
:1048500015C00EF040EC24F00DC04AF00EC04BF035
:104860000001D2673FEF24F00301B151E5EC2AF0DB
:10487000D8A03FEF24F038C342F039C343F0120010
:104880000201AE5100010D5C0201AF5100010E5852
:10489000E8AE50EF24F0AEC20DF0AFC20EF0120041
:1048A0000201B05100010D5C0201B15100010E582E
:1048B000E8BE1200B0C20DF0B1C20EF0120000014D
:1048C000FAA56FEF24F0FA9535A46FEF24F0359434
:1048D000010E5F6E050ED2EC0BF0D8801200D8905E
:1048E00012000001000E0D6E020E0E6E0001000E91
:1048F000136E000E146E010E156EE86A0A6E06EC59
:104900000EF0020100510001AB6F000EF86E810E37
:10491000F76E380EF66E0900F5CFDDF209000900DA
:10492000F5CFDEF20900F5CFDFF212000001000E34
:104930000D6E020E0E6E0001000E136E000E146E50
:10494000010E156E040E0A6E3AEC0EF01200E846E7
:10495000E8060B6E0001000E0D6E030E0E6E0001D8
:10496000000E136E000E146E010E156E0B50142601
:10497000E86A1522100E0A6E06EC0EF01200E846E8
:10498000E8060B6E0001000E0D6E080E0E6E0001A3
:10499000000E136E000E146E010E156E0B501426D1
:1049A000E86A1522400E0A6E06EC0EF00001000EB9
:1049B000BB6F030EBC6F0001000EB96F030EBA6F20
:1049C0000001080EBA6F100EBD6FBCEC29F000019B
:1049D000000E0D6E080E0E6E0001000E136E000E1E
:1049E000146E010E156E0B501426E86A1522010E86
:1049F0000A6E3AEC0EF01200E846E8060B6E000173
:104A0000000E0D6E030E0E6E0001000E136E000EF2
:104A1000146E010E156E0B501426E86A15220A6EEC
:104A200006EC0EF00001000E0D6E040E0E6E00017D
:104A3000000E136E000E146E010E156E0B50E82A58
:104A40001426E86A15220A6E06EC0EF01200E846FB
:104A5000E8060C6E0001000E0D6E030E0E6E0001D6
:104A6000000E136E000E146E010E156E0C501426FF
:104A7000E86A1522040E0A6E3AEC0EF00001000EF0
:104A80000D6E040E0E6E0001000E136E000E146EFD
:104A9000010E156E0C50E82A1426E86A1522040E41
:104AA0000A6E3AEC0EF012000001000EBB6F030E0E
:104AB000BC6F0001000EB96F060EBA6F000EBD6F1D
:104AC000BCEC29F00001000EBB6F040EBC6F0001AE
:104AD000000EB96F070EBA6F000EBD6FBCEC29F067
:104AE000120002010051E846E8060A6E0001000EBD
:104AF0000D6E030E0E6E0001000E136E000E146E8E
:104B0000010E156E0A501426E86A1522010E0A6E6F
:104B10003AEC0EF0120075C093F076C094F077C0B6
:104B200095F078C096F079C097F07AC098F07BC085
:104B300099F07CC09AF0FCC099F0FDC09AF08FC04B
:104B40009BF090C09CF07FC09DF080C09EF081C023
:104B50009FF082C0A0F091C0A1F092C0A2F0030E1D
:104B6000E26E5C0EE16E0C0EE8CF0AF0E6CFE8FFD5
:104B70000F0BD8B4E6EF25F0E7180F0BD8A4E6EF3B
:104B800025F0E7CFE8FFF00B0409E762CEEF25F050
:104B90007BC099F07CC09AF0E6EF25F0E7CFE8FF04
:104BA000F00B0509E762DBEF25F08FC09BF090C0AA
:104BB0009CF0E6EF25F0E7CFE8FFF00B0809E7628D
:104BC000E6EF25F091C0A1F092C0A2F0050EE1261B
:104BD0000A06D8A4B6EF25F012008BEC25F00301ED
:104BE000B251E5EC2AF0D8A008EF26F0030EE26EF1
:104BF0005C0EE16ED9EC28F0610EE16ED9EC28F084
:104C0000660EE16ED9EC28F06B0EE16ED9EC28F05F
:104C10008BEC25F00301B351E5EC2AF0D8A029EF85
:104C200026F0030EE26E700EE16ED9EC28F08BECEC
:104C300025F0750EE16ED9EC28F08BEC25F07A0E9C
:104C4000E16ED9EC28F08BEC25F07F0EE16ED9EC0B
:104C500028F08BEC25F00301B451E5EC2AF0D8A044
:104C600044EF26F0030EE26E840EE16ED9EC28F0DC
:104C7000890EE16ED9EC28F08E0EE16ED9EC28F0A9
:104C8000930EE16ED9EC28F0120093C00DF094C0A1
:104C90000EF010C40FF000010EBE11C40FF0106A28
:104CA0000FBE106873EC13F00001640E176E000E57
:104CB000186E77EC14F0000113C0E8FF972714C0BA
:104CC000E8FF982397C00DF098C00EF012C40FF0C3
:104CD00000010EBE13C40FF0106A0FBE106873EC13
:104CE00013F00001640E176E000E186E77EC14F0CE
:104CF000000113C0E8FF932714C0E8FF942397C076
:104D00000DF098C00EF014C40FF000010EBE15C4D3
:104D10000FF0106A0FBE106873EC13F00001640E00
:104D2000176E000E186E77EC14F0000113C0E8FF48
:104D3000952714C0E8FF962399C00DF09AC00EF095
:104D400016C40FF000010EBE106A0FBE106873EC9F
:104D500013F00001640E176E000E186E77EC14F05D
:104D6000000113C0E8FF952714C0E8FF962393C005
:104D700075F094C076F095C077F096C078F097C043
:104D800079F098C07AF099C0FCF09AC0FDF0040167
:104D900017A1CFEF26F095C07FF096C080F00301F9
:104DA00098A1ECEF26F095C00DF096C00EF097C0DC
:104DB0000FF098C010F000010DC077F00EC078F031
:104DC0000DC079F00EC07AF00F50792710507A2379
:104DD0000F50775F1050785B030199A109EF27F01E
:104DE00095C00DF096C00EF093C00FF094C010F077
:104DF00000010DC077F00EC078F00DC075F00EC048
:104E000076F00F507527105076230F50775F1050B3
:104E1000785B03019AA1A9EF27F093C00DF094C02D
:104E20000EF00DC075F00EC076F00DC081F00EC012
:104E300082F00001811F821F814B822B0001640ED2
:104E4000176E000E186E03019C51E812D8B472EF71
:104E500027F0E8BE50EF27F0640800010F6E106ADB
:104E600076BF41EF27F075C00DF076C00EF073EC01
:104E700013F077EC14F013C075F014C076F072EFF5
:104E800027F0000181C00DF082C00EF073EC13F02A
:104E900077EC14F013C081F014C082F072EF27F0A9
:104EA000640F00010F6E106A76AF65EF27F075C0D2
:104EB0000DF076C00EF073EC13F077EC14F013C025
:104EC00075F014C076F072EF27F0000181C00DF08C
:104ED00082C00EF073EC13F077EC14F013C081F085
:104EE00014C082F00001640E176E000E186E0301EC
:104EF000C651E812D8B48FEF27F00301C551E5EC95
:104F00002AF0D8A0A9EF27F00001E80E0D6E030EDD
:104F10000E6E99510D5E9A510E5A93EF27F09FC075
:104F20000DF0A0C00EF09DC30FF000010EBE9BC39C
:104F30000FF0106A0FBE101E73EC13F077EC14F034
:104F400013507527145076230001135081271450F5
:104F5000822312000301A4A112008BEC25F045EC82
:104F600026F012000301A4B1BAEF27F08BEC25F074
:104F700045EC26F00301A0A1E7EF27F00301C351A0
:104F8000E5EC2AF0D8A0C9EF27F00301A151D2EF38
:104F900027F00301C451E5EC2AF0D8A0E7EF27F091
:104FA0000301A25100010D6E0E6A00010A0E0F6E80
:104FB000000E106E73EC13F013507B5D14507C598F
:104FC000E8AEE7EF27F013C07BF014C07CF01200CE
:104FD000040126A112001DC4E8FFE812D8B4120093
:104FE00075C00DF076C00EF077C00FF078C010F0ED
:104FF0007FC075F080C076F07FC077F080C078F019
:1050000000010DC0E8FF75270EC0E8FF76230DC034
:10501000E8FF7F5F0EC0E8FF805B0FC0E8FF7727E7
:1050200010C0E8FF78231DC4E8FF0308D8B41200BD
:105030000001D89010BED88010320F3200010FC08E
:10504000E8FF7F5F10C0E8FF805B0FC0E8FF755F7F
:1050500010C0E8FF765B1DC4E8FF0108D8B4120059
:1050600000010FC0E8FF7F5F10C0E8FF805B0FC04A
:10507000E8FF755F10C0E8FF765B12000BC0E8FF29
:10508000F00BD8B412000DC06BF00EC06CF00EAE79
:105090004FEF28F00D1E0E1E0D2AD8B00E2A0DC09F
:1050A00013F00EC014F0640E176EA6EC13F000019E
:1050B0001C6A090E136069EF28F00BC0E8FFE83A9C
:1050C000E8060F0BE8CF0BF0E8B687EF28F07DEF8E
:1050D00028F0136E0DC01BF00EC01CF0840E0001F2
:1050E0001B5E030E1C5A0BC0E8FFE83AE8060F0BE4
:1050F000E8CF0BF0E8B687EF28F0020EE8CFDAFF32
:105100000BC0E8FF0B0DF350460F90EF28F0030E95
:10511000E8CFDAFF0BC0E8FFE8960B0DF350DA0F8B
:10512000E8CFD9FFDFCF0CF013C0E8FFD926DECFE0
:105130000AF0DFCF0BF000010BC00DF00E6A0BBEC2
:105140000E680AC0E8FF0D5E000E0ABEFF0E0E5A82
:105150001BC00FF01CC010F073EC13F000010A0E1E
:10516000176E000E186E77EC14F00A500A0D0A0E36
:105170000ABEF45EF3CFE8FF1326F4CFE8FF142253
:1051800013C00DF014C00EF000016CAF12000CC083
:10519000E8FF140D140E0CBEF45EF3CF0DF0F4CF47
:1051A0000EF0000113C0E8FF0D5E14C0E8FF0E5AB8
:1051B0001200E650E8CF0BF00F0BD8B412000BC072
:1051C000E8FF80EC02F03EEC28F00DC011F00EC0BC
:1051D00012F0E6CF0AF0E6CFE8FF0001E8CF0DF0CD
:1051E0000E6A0DBE0E1E00010A0E0F6E000E106E2E
:1051F00073EC13F011C00DF012C00EF013500D5EE1
:1052000014500E5A0EBE3AEF29F0E6CFE8FF000127
:105210000AAC23EF29F0E8CF13F0E9CF14F00DC06A
:1052200011F00EC012F0135080EC02F00DC013F01C
:105230000EC014F00A0E176EA6EC13F011C00DF09C
:1052400012C00EF013500F6E106A0FBE101E73ECDA
:1052500013F00001640E176E000E186E196A1A6AB8
:1052600077EC14F013C00DF014C00EF00A5000ECEF
:1052700003F01200E6CFE8FFE6CFE8FF00010AAA3C
:1052800058EF29F0E8CF13F00DC011F00EC012F066
:10529000135080EC02F00DC013F00EC014F00A0E93
:1052A000176EA6EC13F011C00DF012C00EF01350E3
:1052B0000F6E106A0FBE101E73EC13F00001640E27
:1052C000176E000E186E196A1A6A77EC14F013C084
:1052D0000DF014C00EF00A5000EC03F012000001B3
:1052E000BD0EBB6F030EBC6F0001120EB96F010E35
:1052F000BA6F050EBD6FBCEC29F0CE0E0B0FE8CFD8
:10530000D9FF060EE8CFDAFF060EE8CF0CF0DDCFAE
:10531000E8FFE812D8B494EF29F0DFCFE8FFE5EC1E
:105320002AF0D8B0A0EF29F0DDCFE8FF0C2E87EFF0
:1053300029F0ABC0E8FF02010063A9EF29F01200D9
:10534000DECFE8FFDECFE8FF02010063A9EF29F01E
:105350001200E8CF00F2FCEC24F00001120EBB6F4B
:10536000010EBC6F0001BD0EB96F030EBA6F050EC2
:10537000BD6FBCEC29F012000001BB51E16EBC51C5
:10538000E26E0001B951D96EBA51DA6EE6CFE8FF8C
:10539000E8CFDEFF0001BD2FC6EF29F012000001AB
:1053A000C56B0301AE51E5EC2AF00001D8B0C58110
:1053B0000301AF51E5EC2AF00001D8B0C583030129
:1053C000B051E5EC2AF00001D8B0C5850301B15118
:1053D000E5EC2AF00001D8B0C5870301B651E5EC31
:1053E0002AF00001D8B0C5890301BB51E5EC2AF0D1
:1053F0000001D8B0C58B0301BC51E5EC2AF00001D7
:10540000D8B0C58D1200C00E7CEC0FF00301AE5178
:10541000E5EC2AF00001E86AE880C515D8A01FEF86
:105420002AF0D8A430EF2AF0C571000EF86E820E73
:10543000F76E8A0EF66E0DEC10F0E1EF2AF0D8B0A0
:1054400030EF2AF0D8B430EF2AF0C571000EF86EB4
:10545000820EF76E780EF66E0DEC10F0E1EF2AF08A
:105460000301AF51E5EC2AF00001E86AE882C515B6
:10547000D8A049EF2AF0D8A45AEF2AF0C573000E3D
:10548000F86E820EF76EAE0EF66E0DEC10F0E1EFD8
:105490002AF0D8B05AEF2AF0D8B45AEF2AF0C573E0
:1054A000000EF86E820EF76E9C0EF66E0DEC10F08C
:1054B000E1EF2AF00301B051E5EC2AF00001E86ABF
:1054C000E884C515D8A073EF2AF0D8A484EF2AF099
:1054D000C575000EF86E820EF76ED20EF66E0DECEC
:1054E00010F0E1EF2AF0D8B084EF2AF0D8B484EFBE
:1054F0002AF0C575000EF86E820EF76EC00EF66EBD
:105500000DEC10F0E1EF2AF00301B151E5EC2AF0C7
:105510000001D8A09AEF2AF0C5B79BEF2AF0C57713
:10552000000EF86E830EF76E1A0EF66E0DEC10F08C
:10553000E1EF2AF0C5970301B651E5EC2AF000012E
:10554000D8A0B1EF2AF0C5B9B2EF2AF0C579000EA4
:10555000F86E830EF76E080EF66E0DEC10F0E1EFAC
:105560002AF0C5990301BB51E5EC2AF00001D8A04F
:10557000C8EF2AF0C5BBC9EF2AF0C57B000EF86E54
:10558000820EF76EE40EF66E0DEC10F0E1EF2AF0ED
:10559000C59B0301BC51E5EC2AF00001D8A0DFEF68
:1055A0002AF0C5BDE0EF2AF0C57D000EF86E820E30
:1055B000F76EF60EF66E0DEC10F0E1EF2AF0C59DD9
:1055C0001200500EE8CFA9F01200E8AA1DEF2BF050
:1055D000E8A81DEF2BF00A6E070BC90FE16E030E52
:1055E000E26EE65000010D6E0E6AE8BE0E68000124
:1055F0000A0E0F6E000E106E73EC13F00A50070BBC
:10560000E846340FE16E010EE26EE6CF0DF0E6CF14
:105610000EF000010EAE11EF2BF00D1E0E1E0D4A06
:105620000E2A0DC0E8FF135E0EC0E8FF1458E836DE
:10563000D8700ABE1200D8701200D890E8BA1200D2
:10564000D880E8B8120000011F6E206AE8BC2080F4
:10565000070BE82AD8802036E82E2BEF2BF03050AD
:105660001FB633502014D8802062D8901FBED87047
:105670001200040126A112009DEC2BF0D8A000EC32
:105680002CF004012F51E5EC2AF0D8A064EF2BF0A8
:105690000401305100010D6E0E6A00010A0E0F6EFA
:1056A000000E106E73EC13F013C07BF014C07CF08E
:1056B0000001FE51D8A46EEF2BF0FE6941C43FF407
:1056C00042C440F46EEF2BF00001FE51D8B46EEFEF
:1056D0002BF0FE6B41C43FF442C440F4040129A105
:1056E00078EF2BF000017F1F801F7F2BD8B4802B19
:1056F00036C30DF000010E6AFF0E0DBE0E6E7FC0A8
:105700000FF080C010F073EC13F00001640E176E00
:10571000186A196A1A6A77EC14F013C07FF014C083
:1057200080F0D8EC2BF000010DC0E8FF7F270EC001
:10573000E8FF802321EC2CF0120039C4E8FFE5ECEF
:105740002AF0D8A0AEEF2BF03DC4E8FFE5EC2AF03C
:10575000D8A012003EC40BF0C7EF2BF033C4E8FF13
:10576000E5EC2AF0D8A0BFEF2BF037C4E8FFE5EC5A
:105770002AF0D8A0120038C40BF0C7EF2BF02DC4CC
:10578000E8FFE5EC2AF0D8A012002EC40BF00001CF
:105790000BC00DF00E6A00010A0E0F6E000E106EA7
:1057A00073EC13F013C07BF014C07CF0D8801200AF
:1057B0002CC40BF033C4E8FFE5EC2AF0D8B036C4B3
:1057C0000BF039C4E8FFE5EC2AF0D8B03CC40BF08C
:1057D0002FC4E8FFE5EC2AF0D8B032C40BF027C4A0
:1057E0000DF028C40EF03EEC28F0040129A1FFEFD3
:1057F0002BF000010D1E0E1E0D2AD8B40E2A120029
:105800002BC40BF033C4E8FFE5EC2AF0D8B035C464
:105810000BF039C4E8FFE5EC2AF0D8B03BC40BF03C
:105820002FC4E8FFE5EC2AF0D8B00B6A7BC00DF07E
:105830007CC00EF03EEC28F00DC07BF00EC07CF07A
:10584000120081C07DF082C07EF00001FB51D8A41F
:1058500012002AC40BF033C4E8FFE5EC2AF0D8B0FC
:1058600034C40BF039C4E8FFE5EC2AF0D8B03AC4F0
:105870000BF02FC4E8FFE5EC2AF0D8B031C40BF0F0
:105880000BC0E8FFCE0FE8CF0DF000010E6A0DBE91
:105890000E680001140E0F6E000E106E73EC13F004
:1058A00013C07DF014C07EF01200D890040126A130
:1058B00012000001FB51D8B41200030EE8CF5FF0D4
:1058C000020ED2EC0BF081C013F082C014F0000184
:1058D000E80E1326030E1422156A140EE8CF17F0F3
:1058E000A6EC13F02FC4E8FFE5EC2AF0D8A07DEF7A
:1058F0002CF013C031F496EF2CF039C4E8FFE5EC3E
:105900002AF0D8A088EF2CF013C03AF496EF2CF0D0
:1059100033C4E8FFE5EC2AF0D8A093EF2CF013C0D5
:1059200034F496EF2CF013C02AF4D88000C2E8FFBC
:105930000001AB19D880D8A4120000C2E8FF27EC00
:1059400025F0D8801200040126A11200CE0E7CECB6
:105950000FF02FC4E8FFE5EC2AF0D8B0BFEF2CF031
:1059600039C4E8FFE5EC2AF0D8B0D1EF2CF033C40D
:10597000E8FFE5EC2AF0D8B0C8EF2CF01200000EDA
:10598000F86E590EF76EB40EF66E0DEC10F01200B4
:10599000000EF86E590EF76EB80EF66E0DEC10F0A4
:1059A0001200000EF86E590EF76EBC0EF66E0DEC7E
:1059B00010F0120054480000533100005332000030
:1059C000E86AE8CF15F00001F40E136E010E146EB4
:1059D00041C417F042C418F077EC14F013C041F43E
:1059E00014C042F4E86AE8CF42F441C4E8FF120070
:1059F00041C4E8FFE866E0EF2CF00401D00E416FEF
:105A0000070E426F1200040ED56E1200D59E1200D2
:105A1000D89087B21200D880D5BE1200C9C00DF050
:105A2000CAC00EF000013C0E0F6E000E106E84EC2A
:105A300013F013C00DF014C00EF00001240E0F6E11
:105A4000F40E106E84EC13F00001000E176E000EC1
:105A5000186E000E196E000E1A6EC7C017F0C8C07F
:105A600018F05AEC16F0A5C317F0A6C318F0000101
:105A7000186A77EC14F0C00E7CEC0FF0000EF86E94
:105A8000810EF76EE80EF66E0DEC10F0CB0E7CEC8E
:105A90000FF066EC10F0A5C313F0A6C314F0146A5F
:105AA000C00E7CEC0FF062EC10F00001000EC96F2C
:105AB000000ECA6FD88012000001020E366212007A
:105AC000000133A01200FC6A88EF05F075EC2DF0A0
:105AD000D8A01200FC6A96EC24F000C2E8FF27EC84
:105AE00025F054EC25F088EF05F0000130B67FEF8B
:105AF0002DF032A67FEF2DF03296D8801200D8908C
:105B000012000001830E0E6E3E0E0D6EC8EC2DF0DD
:105B1000ECEC0FF00001115080EC01F012001EC1FE
:105B20000DF01FC10EF0ECEC0FF012000001F65169
:105B3000D8B41200E1CF3EF1E2CF3FF12EEC1CF0E1
:105B40000001000E756F000E766F0001000E776F7A
:105B5000000E786F2FEC1EF0C2EC1DF0EAEC20F086
:105B600042EC22F06BEC1FF0AAEC27F0EDEC25F0F4
:105B7000B2EC27F061EC20F028EC23F0D9EC10F027
:105B80003EC1E1FF3FC1E2FF12000001F6691200D1
:105B90005CEC2DF00001D36BE16BF16BF26BC00E8E
:105BA0007CEC0FF00DC0F6FF0EC0F7FFF86A0DC0D9
:105BB0000FF00EC010F00DEC10F0FA0E3FEC0DF0EF
:105BC00055EC32F0D8A4EBEF2DF0110E0D26D8B025
:105BD0000E2AF2EF2DF0D8A0FFEF2DF0130E0D26B8
:105BE000D8B00E2A0DC0F6FF0EC0F7FFF86A090004
:105BF000F5CF0DF00900F5CF0EF0CFEF2DF066ECEC
:105C00002DF05FEC24F0D8A0CFEF2DF0150E0D266F
:105C1000D8B00E2A0DC0F6FF0EC0F7FFF86A0900D3
:105C2000F5CF11F00900F5CF12F00FC00DF010C044
:105C30000EF00900F5CF0FF00900F5CF10F00900C4
:105C4000F5CFD4F00900F5CFD5F00001BF6BC06BE4
:105C5000C1697F0EE8CFC2F012AC3BEF2EF0090015
:105C6000F5CFBFF00900F5CFC0F00900F5CFC1F0C6
:105C70000900F5CFC2F012A444EF2EF00900F5CFD1
:105C8000F1F00900F5CFF2F012A24DEF2EF009006D
:105C9000F5CFF3F00900F5CFF4F012AE52EF2EF08D
:105CA000ECEC0FF012A657EF2EF002EC10F012A25F
:105CB00012000001E86AE8CFFBFFF4C0E8FFE8CF7C
:105CC000FAFFF3C0E8FFF96EE8CF0AF00FC01BF04F
:105CD00010C01CF00FC0F6FF10C0F7FFF86A150ED9
:105CE000F626D8B0F72A0900F5CFE8FF0A627AEF66
:105CF0002EF012000FC0F6FF10C0F7FF110EF626AF
:105D0000D8B0F72A0900F5CF0FF00900F5CF10F051
:105D10000FC0E8FF1B626AEF2EF010C0E8FF1C62A4
:105D20006AEF2EF01200000110500F10D8B41200CC
:105D3000E86AFB6E1050E8CFFAFF0F50F96E0001D1
:105D40000F50E16E1050E26E0001000E1162BDEFC7
:105D50002EF00FC0F6FF10C0F7FFF86A160EF626F9
:105D6000D8B0F72AD4C0E1FFD5C0E2FFE7CFE8FF03
:105D700064EC2EF0C2EC31F01200010E1162C7EF9C
:105D80002EF0250EE8CF40F198EC30F01200020E14
:105D90001162F1EF2EF0000112A0D2EF2EF0D451DB
:105DA0000001BE6FE6CF0AF0E5CF0BF000010AC09C
:105DB00011F00BC012F0129E129CF5EC30F00001B5
:105DC0000FC0E1FF10C0E2FF11C00AF012C00BF0DB
:105DD0000AC0E6FFE7CFE8FFC00B0B120BC0E5FFE0
:105DE0001200030E116206EF2FF0E7CFE8FFE8364E
:105DF000E9EC2FF0000ED8B0E81E0A6E00010FC0CB
:105E0000E1FF10C0E2FF0AC0E7FF1200040E1162BA
:105E100017EF2FF0E7CFE8FF09EC32F00A6E000130
:105E20000FC0E1FF10C0E2FF0AC0E7FF1200050E3D
:105E3000116229EF2FF0E7CFE8FF3EEC30F0E8CF1A
:105E40000AF000010FC0E1FF10C0E2FF0AC0E7FF47
