:020000040000FA
:040200006FEF01F0AB
:040208000EEF01F004
:0802180021EF01F0D8CF01F045
:10022000E0CF02F0006EF3CF03F0F4CF04F003C090
:10023000F3FF04C0F4FF005002C0E0FF01C0D8FF8C
:100240001000D8CF06F0E8CF05F0E0CF07F0F3CFED
:1002500008F0F4CF09F0A4B6C6EC02F008C0F3FF32
:1002600009C0F4FF07C0E0FF05C0E8FF06C0D8FFE3
:1002700010000F0B060DF9CFE8FFF350F926BBC2B3
:10028000E8FF1200BCC2E8FF1200BDC2E8FF120086
:10029000BEC2E8FF1200BFC2E8FF1200C0C2E8FF02
:1002A0001200C1C2E8FF1200C2C2E8FF1200C3C2BE
:1002B000E8FF1200C4C2E8FF1200C5C2E8FF120046
:1002C000C6C2E8FF1200C7C2E8FF1200C8C2E8FFBA
:1002D0001200C9C2E8FF1200CAC2E8FF1200640E91
:1002E000D6EC01F0DDEC02F047EC03F09298979E1B
:1002F000C0EC03F0400EE8CFBBF2410EE8CFBCF2F9
:10030000820EE8CFBDF2830EE8CFBEF2440EE8CFF6
:10031000BFF2450EE8CFC0F2460EE8CFC1F2470E5D
:10032000E8CFC2F2640EE8CFC3F2650EE8CFC4F2A4
:10033000660EE8CFC5F2670EE8CFC6F20C0EE8CF26
:10034000C7F20D0EE8CFC8F2F28EF28CD08EA386E3
:10035000A49627EC03F0D890E8B4D880D8B0B9EFD1
:1003600001F00A0ED6EC01F027EC03F0D890E8B4C7
:10037000D880D8B0CFEF01F010EC03F0D890E8B6F9
:10038000D880D8B0CCEF01F00A0ED6EC01F010EC1A
:1003900003F0D890E8B6D880D8A0FCEF01F0CFEFFA
:1003A00001F00000E82ED1EF01F012000A6EFA0E03
:1003B000D1EC01F0FA0ED1EC01F00A2ED7EF01F0EA
:1003C000120020204D6963726F50726F5374617216
:1003D00020200000202056657273696F6E20322E37
:1003E000306E20200000414443204348202020203C
:1003F0003D20585858580000A39666EC04F027ECAE
:1004000003F0D890E8B4D880D8A0FFEF01F00A0E2E
:10041000D6EC01F027EC03F0D890E8B4D880D8A04F
:10042000FFEF01F010EC03F0D890E8B6D880D8A028
:1004300012EF02F00A0ED6EC01F010EC03F0D890A7
:10044000E8B6D880D8A012EF02F0800E94EC03F04A
:1004500010EC03F096EC04F0C00E94EC03F027ECE3
:1004600003F096EC04F010EC03F0E8B0858EE8A001
:10047000859E8098E8B480883EEC03F0320ED6EC7E
:1004800001F027EC03F0D890E8B4D880D8B051EF51
:1004900002F00A0ED6EC01F027EC03F0D890E8B495
:1004A000D880D8B025EF02F027EC03F0D890E8B45C
:1004B000D880D8A054EF02F00A0ED6EC01F027EC59
:1004C00003F0D890E8B4D880D8A054EF02F000012F
:1004D0000D6A800E94EC03F0000EF86E030EF76EBA
:1004E000E60EF66E6AEC04F0860E94EC03F0000162
:1004F0000D50A3EC04F0E6EC03F0F8C0E8FFE8666A
:1005000088EF02F0D890C432C332D890C432C332DC
:10051000C40E94EC03F00F01C4CFE8FFA3EC04F089
:100520000F01C3CFE8FFA3EC04F0320ED6EC01F0CC
:1005300027EC03F0D890E8B4D880D8B0A8EF02F048
:100540000A0ED6EC01F027EC03F0D890E8B4D8807E
:10055000D8B069EF02F027EC03F0D890E8B4D88067
:10056000D8A0ABEF02F00A0ED6EC01F027EC03F0B6
:10057000D890E8B4D880D8A0ABEF02F000010D2AE3
:100580000C0E0D6469EF02F025EF02F0D8908FB8E1
:10059000D888D8B0DBEF02F00001FF2B190EFF6303
:1005A000D4EF02F04AEC04F0320EFF63DBEF02F00E
:1005B00066EC04F0FF6BA49612000F0194909492E5
:1005C0009494948694880F018290828282840F0191
:1005D0008880888288848886888AE8680F01966E79
:1005E000E86A0F01956E0F01836EE86AE8CFFFF0AD
:1005F0007F0E766EE868776EA386A496A5961200A5
:10060000836E96688280000084508290E8CF8DFFD0
:100610001200E8CF83FF966A82808290966812006B
:100620008F88280E00EC03F0E86A8DB6E8888DB854
:10063000E88A8DBAE88C8DB0E8828DB2E8808DB4FE
:10064000E88488B0E88E88BAE8868F9812008F8890
:10065000280E00EC03F0E86A8DBCE88C8DBEE88EB5
:1006600082B6E88682B8E88888B6E88088B2E884EE
:1006700088B4E88A88BEE8828F981200200E846AC7
:1006800080B884808F8809EC03F08F9812009396CD
:10069000939A93988186818A8188140ED6EC01F012
:1006A0003F0E97EC03F0050ED6EC01F03F0E97ECF1
:1006B00003F0010ED6EC01F03F0E97EC03F0010EB3
:1006C000D6EC01F03F0E94EC03F00C0E94EC03F02A
:1006D000060E94EC03F0800E94EC03F0010E94EC03
:1006E00003F0030EF76EC20EF66E6AEC04F0880E8D
:1006F00094EC03F0030EF76ED40EF66E6AEC04F081
:1007000012008F88B2EC03F0380E41C184FF09EC6F
:1007100003F0818A8198818600000000819681889B
:10072000819A00008F9812008F88B2EC03F08F88B6
:10073000E8CF41F1380E41C184FF09EC03F0819A02
:100740008198818600000000819681888F98120030
:100750008188819A8186E8CF41F1300E00EC03F068
:1007600081961200B8EC03F0D8B0B2EF03F012009B
:10077000A8EC03F0D890E8BED88041C1E8FF120091
:10078000E86AE8CFF8F03F0EF86EFF0EF76EFF0E46
:10079000F66E0800F5504A0AFF0ED8B4E8CFF8F01C
:1007A00012000001136A146A156A166A0A6E0B6A4F
:1007B0000A50E6EC03F00001C3501326C450142283
:1007C000D8B0152A0B2ED8EF03F012000A6EA10E36
:1007D000C06E000EC16E0AC0E8FF39EC01F0E8AE51
:1007E000C188E89EE8BCC18AE8ACC19AE8BA818AAF
:1007F000E8AA819A0F0BE844E844C26E040EE8CFE1
:100800000CF00001000E6B6F000E6C6FC2800000D8
:1008100000000000C282C2B20BEF04F00001C3501E
:100820006B27C4506C2300010C06F0E1F8C0E8FF10
:10083000E81EE86622EF04F0D8906C336B33D89052
:100840006C336B336BC0C3FF6CC0C4FF0AC0E8FFDE
:100850001200800E94EC03F00DC0F6FF0EC0F7FFFF
:10086000F86A6AEC04F01200880E94EC03F00DC0F4
:10087000F6FF0EC0F7FFF86A6AEC04F01200880E6B
:1008800094EC03F0D4C0F6FFD5C0F7FFF86A6AEC29
:1008900004F01200020E94EC03F0180E94EC03F036
:1008A000180E94EC03F0180E94EC03F0180E94EC70
:1008B00003F0180E94EC03F0180E94EC03F0180EED
:1008C00094EC03F0180E94EC03F01200020E94EC7A
:1008D00003F01200100E6DEF04F00A6E0900F5CF60
:1008E000E8FFE812D8B4120081EC03F0B2EC03F098
:1008F000A8EC03F07F0BE8CF41F10101400E41610C
:1009000092EF04F0100E41638BEF04F0C80E94ECEC
:1009100003F092EF04F0080E416392EF04F0C00E72
:1009200094EC03F00A4E12006EEF04F00A6E080E0B
:100930000B6E300E0ABE310E81EC03F00A360B2E20
:1009400099EF04F012000A6E3A0E0B6E0AC0E8FF2F
:10095000F00BE842E842E842E84230090B64070F36
:1009600081EC03F00AC0E8FF0F0B30090B64070F9E
:1009700081EC03F00AC0E8FF120009EC05F02550F5
:1009800081EC03F0265081EC03F0275081EC03F05A
:10099000285081EC03F0295081EC03F0120009EC9F
:1009A00005F0C2EF04F009EC05F0C5EF04F009EC26
:1009B00005F0C8EF04F009EC05F0CBEF04F009EC0A
:1009C00005F0F3EC04F0255081EC03F0265081ECA7
:1009D00003F0275081EC03F0285081EC03F02950FC
:1009E00081EC03F012000001300E25621200200E8F
:1009F000256E300E26621200200E266E300E276203
:100A00001200200E276E300E28621200200E286E73
:100A100012000001196A1A6A100E176E270E186E5E
:100A200056EC06F0300E1310256E1BC013F01CC0E0
:100A300014F01DC015F01EC016F0196A1A6AE80EEF
:100A4000176E030E186E56EC06F0300E1310266E5D
:100A50001BC013F01CC014F01DC015F01EC016F012
:100A6000196A1A6A640E176E000E186E56EC06F0BC
:100A7000300E1310276E1BC013F01CC014F01DC0E5
:100A800015F01EC016F0196A1A6A0A0E176E000ECB
:100A9000186E56EC06F0300E1310286E300E1B1038
:100AA000296E120063EC05F010AE5BEF05F00D50FF
:100AB000155E0E50165A0EAE62EF05F00F50155E21
:100AC0001050165A12000001136A146A156A166A49
:100AD0000F500D02F3CF13F0F4CF14F00F500E02AD
:100AE000F3501426F4501522D8B0162A10500D02D7
:100AF000F3501426F4501522D8B0162A10500E02C6
:100B0000F3501526F450162212000001246A1B6AC5
:100B100014501310D8B4000C14501718E8BE241E3B
:100B2000AA6B000E17AE97EF05F0171E172A14AE2A
:100B30009EEF05F0131E141E132A142214501710D2
:100B4000E8BE2AEF06F017501B5E143614341B362D
:100B500017501B26143614341B36175014B01B5E66
:100B600014A01B26143614341B36175014B01B5E09
:100B700014A01B26143614341B36175014B01B5EF9
:100B800014A01B26143614341B36175014B01B5EE9
:100B900014A01B26143614341B36175014B01B5ED9
:100BA00014A01B26143614341B36175014B01B5EC9
:100BB00014A01B26143613341B36175014B01B5EBA
:100BC00014A01B26133613341B36175013B01B5EAC
:100BD00013A01B26133613341B36175013B01B5E9D
:100BE00013A01B26133613341B36175013B01B5E8D
:100BF00013A01B26133613341B36175013B01B5E7D
:100C000013A01B26133613341B36175013B01B5E6C
:100C100013A01B26133613341B36175013B01B5E5C
:100C200013A01B26133613341B36175013B01B5E4C
:100C300013A01B26133613A01B26AAB148EF06F0FB
:100C400024AE000C131E141EE86A132A14221B1E65
:100C50001B2A000C17AE43EF06F014BE3FEF06F060
:100C6000E8CFA3F01350E8CF1BF01B9E13361436C9
:100C70001450E8CF13F0A351146A20EF06F0136A62
:100C8000132A146A000C141E131EAA2BA3EF05F0DE
:100C90001B2A17501B6220EF06F01B6A000E132A56
:100CA000142214AE20EF06F02388FF0C0001246A02
:100CB0001C6A1B6A155014101310D8B4000C155080
:100CC0001818E8BE241EAA6B000E18AE6CEF06F0D2
:100CD000171E181E172A182215AE75EF06F0131EE0
:100CE000141E151E132A1422152215501810E8BEC2
:100CF000FFEF07F017501B5E18501C5A15361534BD
:100D00001B361C3617501B2618501C22153615345E
:100D10001B361C36175015A093EF06F01B5E1850BB
:100D20001C5A96EF06F01B2618501C221536153457
:100D30001B361C36175015A0A3EF06F01B5E18508B
:100D40001C5AA6EF06F01B2618501C221536153427
:100D50001B361C36175015A0B3EF06F01B5E18505B
:100D60001C5AB6EF06F01B2618501C2215361534F7
:100D70001B361C36175015A0C3EF06F01B5E18502B
:100D80001C5AC6EF06F01B2618501C2215361534C7
:100D90001B361C36175015A0D3EF06F01B5E1850FB
:100DA0001C5AD6EF06F01B2618501C221536153497
:100DB0001B361C36175015A0E3EF06F01B5E1850CB
:100DC0001C5AE6EF06F01B2618501C221536143468
:100DD0001B361C36175015A0F3EF06F01B5E18509B
:100DE0001C5AF6EF06F01B2618501C221436143439
:100DF0001B361C36175014A003EF07F01B5E18506B
:100E00001C5A06EF07F01B2618501C221436143407
:100E10001B361C36175014A013EF07F01B5E18503A
:100E20001C5A16EF07F01B2618501C2214361434D7
:100E30001B361C36175014A023EF07F01B5E18500A
:100E40001C5A26EF07F01B2618501C2214361434A7
:100E50001B361C36175014A033EF07F01B5E1850DA
:100E60001C5A36EF07F01B2618501C221436143477
:100E70001B361C36175014A043EF07F01B5E1850AA
:100E80001C5A46EF07F01B2618501C221436143447
:100E90001B361C36175014A053EF07F01B5E18507A
:100EA0001C5A56EF07F01B2618501C221436143417
:100EB0001B361C36175014A063EF07F01B5E18504A
:100EC0001C5A66EF07F01B2618501C2214361334E8
:100ED0001B361C36175014A073EF07F01B5E18501A
:100EE0001C5A76EF07F01B2618501C2213361334B9
:100EF0001B361C36175013A083EF07F01B5E1850EB
:100F00001C5A86EF07F01B2618501C221336133488
:100F10001B361C36175013A093EF07F01B5E1850BA
:100F20001C5A96EF07F01B2618501C221336133458
:100F30001B361C36175013A0A3EF07F01B5E18508A
:100F40001C5AA6EF07F01B2618501C221336133428
:100F50001B361C36175013A0B3EF07F01B5E18505A
:100F60001C5AB6EF07F01B2618501C2213361334F8
:100F70001B361C36175013A0C3EF07F01B5E18502A
:100F80001C5AC6EF07F01B2618501C2213361334C8
:100F90001B361C36175013A0D3EF07F01B5E1850FA
:100FA0001C5AD6EF07F01B2618501C221336133498
:100FB0001B361C36175013A0E3EF07F01B5E1850CA
:100FC0001C5AE6EF07F01B2618501C22133613B0EC
:100FD000EEEF07F017501B2618501C22AAB123EF82
:100FE00008F024AE000C131E141E151E000E132A4A
:100FF000142215221B1E1C1E1B2A1C22000C18AEBC
:101000001DEF08F015BE18EF08F0E8CFA3F014505C
:10101000E8CF1CF01350E8CF1BF01C9E1436153699
:101020001550E8CF13F0A351156A146AF1EF07F0D9
:10103000136A132A146A156A000C151E141E131E57
:10104000AA2B7AEF06F01B2AE86A1C2217501B62B3
:10105000F1EF07F018501C62F1EF07F01C6A1B6AF1
:10106000000E132A1422152215AEF1EF07F0238883
:10107000FF0C00011E6A1D6A1C6A1B6A16341B36AF
:101080001C361D361E3617501B5E18501C5A195040
:101090001D5A1A501E5AAA6BAA5B163616341B36F6
:1010A0001C361D361E36AA37175016A063EF08F0FF
:1010B0001B5E18501C5A19501D5A1A501E5AE86AC5
:1010C000AA5B6CEF08F01B2618501C2219501D2239
:1010D0001A501E22E86AAA23163616341B361C360E
:1010E0001D361E36AA37175016A082EF08F01B5E79
:1010F00018501C5A19501D5A1A501E5AE86AAA5BF9
:101100008BEF08F01B2618501C2219501D221A5074
:101110001E22E86AAA23163616341B361C361D36E4
:101120001E36AA37175016A0A1EF08F01B5E185004
:101130001C5A19501D5A1A501E5AE86AAA5BAAEF87
:1011400008F01B2618501C2219501D221A501E226E
:10115000E86AAA23163616341B361C361D361E3690
:10116000AA37175016A0C0EF08F01B5E18501C5A83
:1011700019501D5A1A501E5AE86AAA5BC9EF08F0A6
:101180001B2618501C2219501D221A501E22E86AD4
:10119000AA23163616341B361C361D361E36AA37C1
:1011A000175016A0DFEF08F01B5E18501C5A19509C
:1011B0001D5A1A501E5AE86AAA5BE8EF08F01B266F
:1011C00018501C2219501D221A501E22E86AAA2308
:1011D000163616341B361C361D361E36AA371750E7
:1011E00016A0FEEF08F01B5E18501C5A19501D5A2D
:1011F0001A501E5AE86AAA5B07EF09F01B2618501E
:101200001C2219501D221A501E22E86AAA231636E3
:1012100016341B361C361D361E36AA37175016A03C
:101220001DEF09F01B5E18501C5A19501D5A1A5018
:101230001E5AE86AAA5B26EF09F01B2618501C22EA
:1012400019501D221A501E22E86AAA231636153498
:101250001B361C361D361E36AA37175016A03CEF1B
:1012600009F01B5E18501C5A19501D5A1A501E5A6C
:10127000E86AAA5B45EF09F01B2618501C2219509A
:101280001D221A501E22E86AAA23153615341B3671
:101290001C361D361E36AA37175015A05BEF09F015
:1012A0001B5E18501C5A19501D5A1A501E5AE86AD3
:1012B000AA5B64EF09F01B2618501C2219501D224E
:1012C0001A501E22E86AAA23153615341B361C361E
:1012D0001D361E36AA37175015A07AEF09F01B5E8F
:1012E00018501C5A19501D5A1A501E5AE86AAA5B07
:1012F00083EF09F01B2618501C2219501D221A508A
:101300001E22E86AAA23153615341B361C361D36F4
:101310001E36AA37175015A099EF09F01B5E18501A
:101320001C5A19501D5A1A501E5AE86AAA5BA2EF9D
:1013300009F01B2618501C2219501D221A501E227B
:10134000E86AAA23153615341B361C361D361E36A0
:10135000AA37175015A0B8EF09F01B5E18501C5A99
:1013600019501D5A1A501E5AE86AAA5BC1EF09F0BB
:101370001B2618501C2219501D221A501E22E86AE2
:10138000AA23153615341B361C361D361E36AA37D1
:10139000175015A0D7EF09F01B5E18501C5A1950B2
:1013A0001D5A1A501E5AE86AAA5BE0EF09F01B2684
:1013B00018501C2219501D221A501E22E86AAA2316
:1013C000153615341B361C361D361E36AA371750F7
:1013D00015A0F6EF09F01B5E18501C5A19501D5A43
:1013E0001A501E5AE86AAA5BFFEF09F01B26185034
:1013F0001C2219501D221A501E22E86AAA231536F3
:1014000015341B361C361D361E36AA37175015A04C
:1014100015EF0AF01B5E18501C5A19501D5A1A502D
:101420001E5AE86AAA5B1EEF0AF01B2618501C22FF
:1014300019501D221A501E22E86AAA2315361434A8
:101440001B361C361D361E36AA37175015A034EF32
:101450000AF01B5E18501C5A19501D5A1A501E5A79
:10146000E86AAA5B3DEF0AF01B2618501C221950AF
:101470001D221A501E22E86AAA23143614341B3681
:101480001C361D361E36AA37175014A053EF0AF02B
:101490001B5E18501C5A19501D5A1A501E5AE86AE1
:1014A000AA5B5CEF0AF01B2618501C2219501D2263
:1014B0001A501E22E86AAA23143614341B361C362E
:1014C0001D361E36AA37175014A072EF0AF01B5EA5
:1014D00018501C5A19501D5A1A501E5AE86AAA5B15
:1014E0007BEF0AF01B2618501C2219501D221A509F
:1014F0001E22E86AAA23143614341B361C361D3605
:101500001E36AA37175014A091EF0AF01B5E185030
:101510001C5A19501D5A1A501E5AE86AAA5B9AEFB3
:101520000AF01B2618501C2219501D221A501E2288
:10153000E86AAA23143614341B361C361D361E36B0
:10154000AA37175014A0B0EF0AF01B5E18501C5AAF
:1015500019501D5A1A501E5AE86AAA5BB9EF0AF0D0
:101560001B2618501C2219501D221A501E22E86AF0
:10157000AA23143614341B361C361D361E36AA37E1
:10158000175014A0CFEF0AF01B5E18501C5A1950C8
:101590001D5A1A501E5AE86AAA5BD8EF0AF01B2699
:1015A00018501C2219501D221A501E22E86AAA2324
:1015B000143614341B361C361D361E36AA37175007
:1015C00014A0EEEF0AF01B5E18501C5A19501D5A59
:1015D0001A501E5AE86AAA5BF7EF0AF01B26185049
:1015E0001C2219501D221A501E22E86AAA23143602
:1015F00014341B361C361D361E36AA37175014A05D
:101600000DEF0BF01B5E18501C5A19501D5A1A5042
:101610001E5AE86AAA5B16EF0BF01B2618501C2214
:1016200019501D221A501E22E86AAA2314361334B8
:101630001B361C361D361E36AA37175014A02CEF49
:101640000BF01B5E18501C5A19501D5A1A501E5A86
:10165000E86AAA5B35EF0BF01B2618501C221950C4
:101660001D221A501E22E86AAA23133613341B3691
:101670001C361D361E36AA37175013A04BEF0BF041
:101680001B5E18501C5A19501D5A1A501E5AE86AEF
:10169000AA5B54EF0BF01B2618501C2219501D2278
:1016A0001A501E22E86AAA23133613341B361C363E
:1016B0001D361E36AA37175013A06AEF0BF01B5EBB
:1016C00018501C5A19501D5A1A501E5AE86AAA5B23
:1016D00073EF0BF01B2618501C2219501D221A50B4
:1016E0001E22E86AAA23133613341B361C361D3615
:1016F0001E36AA37175013A089EF0BF01B5E185047
:101700001C5A19501D5A1A501E5AE86AAA5B92EFC9
:101710000BF01B2618501C2219501D221A501E2295
:10172000E86AAA23133613341B361C361D361E36C0
:10173000AA37175013A0A8EF0BF01B5E18501C5AC5
:1017400019501D5A1A501E5AE86AAA5BB1EF0BF0E5
:101750001B2618501C2219501D221A501E22E86AFE
:10176000AA23133613341B361C361D361E36AA37F1
:10177000175013A0C7EF0BF01B5E18501C5A1950DE
:101780001D5A1A501E5AE86AAA5BD0EF0BF01B26AE
:1017900018501C2219501D221A501E22E86AAA2332
:1017A000133613341B361C361D361E36AA37175017
:1017B00013A0E6EF0BF01B5E18501C5A19501D5A6F
:1017C0001A501E5AE86AAA5BEFEF0BF01B2618505E
:1017D0001C2219501D221A501E22E86AAA23133611
:1017E00013341B361C361D361E36AA37175013A06D
:1017F00005EF0CF01B5E18501C5A19501D5A1A5058
:101800001E5AE86AAA5B0EEF0CF01B2618501C2229
:1018100019501D221A501E22E86AAA23133613B04B
:101820001AEF0CF017501B2618501C2219501D22BD
:061830001A501E22000CFC
:00000001FF
