:020000040000FA
:040200006BEF03F0AD
:020204000000F8
:040208000EEF01F004
:080218002DEF01F0D8CF01F039
:10022000E0CF02F0006EF3CF03F0F4CF04F0F0ACB7
:100230001DEF01F0F0B03DEC0DF0A2A023EF01F0B6
:10024000A1B0CDEC0AF003C0F3FF04C0F4FF0050EE
:1002500002C0E0FF01C0D8FF1000D8CF06F0E8CF01
:1002600005F0E0CF07F0F3CF08F0F4CF09F0F0BCD1
:100270003DEF01F0F0B03DEC0DF0A2B043EF01F026
:10028000A1B0CDEC0AF0A2B04CEF01F0AECFE8FF88
:100290006ECFE8FF52EF01F09EBA50EC12F0A4BA14
:1002A000BBEC12F008C0F3FF09C0F4FF07C0E0FF89
:0A02B00005C0E8FF06C0D8FF1000EB
:10030000F95000011150F926B7EF33F0B9EF33F08F
:10031000C6EF33F0DBEF33F0E9EF33F0F7EF33F014
:1003200005EF34F013EF34F023EF34F031EF34F015
:1003300033EF34F041EF34F01200E8B81200E8BABD
:100340001200E8BC1200E8BE12000F0BD8A4AFEFF9
:1003500001F00001000E0F6E000E106E1200E80694
:10036000030B0A0DF9CFE8FFF350F92685C00FF013
:1003700086C010F0120087C00FF088C010F0120085
:1003800089C00FF08AC010F012008BC00FF08CC033
:0403900010F0120057
:10040000EFCFE8FFE806070B0A0DF9CFE8FFF3503E
:10041000F9263EC050F03FC051F012003CC050F0F1
:100420003DC051F0120040C050F041C051F01200E8
:1004300042C050F043C051F0120044C050F045C0DB
:1004400051F0120046C050F047C051F0120048C0B1
:1004500050F049C051F012004AC050F04BC051F06A
:1004600012000F0B060DF9CFE8FFF350F926BBC2BF
:10047000E8FF1200BCC2E8FF1200BDC2E8FF120094
:10048000BEC2E8FF1200BFC2E8FF1200C0C2E8FF10
:100490001200C1C2E8FF1200C2C2E8FF1200C3C2CC
:1004A000E8FF1200C4C2E8FF1200C5C2E8FF120054
:1004B000C6C2E8FF1200C7C2E8FF1200C8C2E8FFC8
:0E04C0001200C9C2E8FF1200CAC2E8FF120013
:100500000001E806070B0A0DF9CFE8FFF350F926C2
:1005100093510D6E94510E6E120095510D6E9651C1
:100520000E6E120097510D6E98510E6E1200995179
:100530000D6E9A510E6E12009B510D6E9C510E6EF7
:1005400012009D510D6E9E510E6E12009F510D6E48
:10055000A0510E6E1200A1510D6EA2510E6E12002E
:100600000001E8BE33EF03F0E806070B0A0DF9CF4F
:10061000E8FFF350F9260D5075270E50762312008F
:100620000D5077270E50782312000D5079270E5069
:100630007A2312000D507B270E507C2312000D50A0
:100640007D270E507E2312000D507F270E508023F1
:1006500012000D5081270E50822312000D50832767
:100660000E5084231200E806070B0A0DF9CFE8FFAD
:10067000F350F9260D50756F0E50766F12000D5025
:10068000776F0E50786F12000D50796F0E507A6FA1
:1006900012000D507B6F0E507C6F12000D507D6F5D
:1006A0000E507E6F12000D507F6F0E50806F120043
:1006B0000D50816F0E50826F12000D50836F0E50DF
:0406C000846F120031
:0C06C400F2AE12000001010EA76FA76744
:1006D00067EF03F012007FEC0DF0928802C5E8FF8F
:1006E000E81EE86676EF03F092988098939C819CD0
:1006F00000015D6A5E6A8BEC09F00001566A640EC7
:1007000074EC0DF0280EE8CFD4F20001500E386ED4
:10071000C30E396E83CFE8FF0001306E316E326E4A
:10072000E81EF96F84CFE8FF0001336E346E356E3A
:10073000E81EFA6F0F0199908780949693948296A1
:1007400081940001000E176E000E186E000E196ED7
:10075000000E1A6E0001000E1B6E000E1C6E000EC5
:100760001D6E000E1E6E0001000E136E000E146E44
:10077000000E156E000E166E0001000EB16F000E19
:10078000B26F0001000EB36F000EB46F0001000ED7
:10079000B56F000EB66F0001000EB76F000EB86F98
:1007A0000101000E5D6F000E5E6F02010F0EDC6F27
:1007B000000EDD6F0001606B616B626BA76BA86B55
:1007C000A96BED69EF6BF06BFB6BFE6BE86AE8CF32
:1007D000DBF2E8CFD2F0E8CF11F1E8CFBAF2E8CF00
:1007E00060F1E8CFF6F0000EF86E840EF76E640E3E
:1007F000F66E0900F5CF58F109000900F5CF59F15F
:100800000900F5CF5AF1E4EC3EF00201005100017D
:10081000AB6F040EB0EC09F0040EB0EC09F000016F
:10082000C350CB6FC450CC6F050EB0EC09F0050E71
:10083000B0EC09F00001C350CD6FC450CE6F030E71
:10084000B0EC09F06BC06DF16CC06EF137EC0FF0DD
:10085000FA0E74EC0DF0FA0E74EC0DF0FA0E74EC66
:100860000DF0FA0E74EC0DF07DEC0AF0CEEC2DF0EC
:10087000DCEC11F0F0EC11F027EC3FF0F28EF28C92
:10088000D08E0F01D89083B6D880D8B04DEF04F049
:100890000A0E74EC0DF00F01D89083B6D880D8B052
:1008A00063EF04F00F01D89084B2D880D8B05EEF27
:1008B00004F00A0E74EC0DF00F01D89084B2D880C9
:1008C000D8A085EF04F03CEC25F00201A50EA7634B
:1008D00070EF04F0E70EA86370EF04F074EF04F01B
:1008E000E4EC3EF0F2EC0DF000C2E8FFC7EC25F0BE
:1008F0000301AD510201A56FC8EC0CF043EC0CF004
:100900000101F20E066F80EC0CF00F01D89084B25A
:10091000D880D8A085EF04F00A0E74EC0DF00F011A
:10092000D89084B2D880D8A085EF04F0809802C512
:10093000E8FFE8668078D2C2E8FFE866A5EF04F039
:10094000808802C5E8FFE866807892985EEC10F037
:100950001E0EE8CF15F0840EE8CF14F0800EE8CF1D
:1009600013F0D4C217F0E86AE8CF18F033EC15F0B2
:10097000D5C2E8FF00011326E86A142213C038F03C
:1009800014C039F0040EB0EC09F0040EB0EC09F01C
:100990000001C350CB6FC450CC6F050EB0EC09F012
:1009A000050EB0EC09F00001C350CD6FC450CE6FFE
:1009B0000F01D89084B4D880D8B0E4EF04F00A0EC8
:1009C00074EC0DF00F01D89084B4D880D8B0FAEF51
:1009D00004F00F01D89083B6D880D8B0F5EF04F0BA
:1009E0000A0E74EC0DF00F01D89083B6D880D8A011
:1009F00001EF08F0E86AE8CFDBF20F01D89084B489
:100A0000D880D8B009EF05F00A0E74EC0DF00F0194
:100A1000D89084B4D8800101D8B05D690201A0C229
:100A20000AF00201FF0E0AB0A56FA5617BEF05F089
:100A30000301A6A15BEF05F00F0183BE5BEF05F09C
:100A4000800E12EC10F0000EF86E850EF76E260E7A
:100A5000F66EB5EC10F0C00E12EC10F0000EF86E51
:100A6000840EF76EC60EF66EB5EC10F00F01D8903E
:100A700084B4D880D8B042EF05F00A0E74EC0DF0C3
:100A80000F01D89084B4D880D8B036EF05F00F01AC
:100A9000D89084B4D880D8A047EF05F00A0E74EC43
:100AA0000DF00F01D89084B4D880D8A047EF05F09E
:100AB000C80E74EC0DF00201D1B162EF05F0D1A3C4
:100AC0007BEF05F0800E0001A36F89EC3DF0D8901C
:100AD00075EC30F0D8B072EF05F00201FF0EA56F93
:100AE0007BEF05F0C8EC0CF043EC0CF080EC0CF064
:100AF0000A0E74EC0DF00001010E366EA3C254F024
:100B0000A4C255F00401495100014F6E9AEC2AF03D
:100B10001FEC26F0C00EE8CF90F0E8CF92F0E8CFBF
:100B2000FDF0979EFCAE98EF05F00F019394819431
:100B3000000133B0B8EF05F0010E366230EF06F079
:100B40000001050EE8CF5FF0070E07EC0CF0020E77
:100B5000366E0001AB5102010063B1EF05F030EFDA
:100B600006F0006FC7EC25F01FEC26F030EF06F022
:100B7000010E366E3AEC2AF0F9EC1CF067EC1FF02F
:100B8000C7EC07F00201A1A1EBEF05F00301B6519C
:100B9000B0EC2BF0D8A0EBEF05F00201B767E3EF64
:100BA00005F0B1C075F0B2C076F0B3C077F0B4C054
:100BB00078F0B5C079F0B6C07AF0B7C07BF0B8C0B5
:100BC0007CF0EBEF05F0F08CF086A290E868E8CFBF
:100BD000F5F0F1EF05F0F09CF086A280E86AE8CF2E
:100BE000F5F00201A0B11EEF06F02BEC1CF0D8B41A
:100BF0001EEF06F0FAEC1EF08DEC1EF0B5EC21F0C5
:100C00000DEC23F058EC1FF036EC20F004EC2CF047
:100C100075EC28F0B8EC26F07DEC28F0B3EC28F069
:100C200059EC22F02CEC21F03FEC3FF00001EF6793
:100C300004EC14F00001F06704EC14F062EC03F033
:100C4000F3EC23F064EC13F095EC11F00001A867CD
:100C50002EEF06F00A0EA86F89EC06F091EF05F072
:100C6000800E12EC10F0000EF86E860EF76EC40EB9
:100C7000F66EB5EC10F0C00E12EC10F0000EF86E2F
:100C8000840EF76EC60EF66EB5EC10F00D0EB0ECDD
:100C900009F06BC05BF16CC05CF12AEC25F0D8A0C8
:100CA00054EF06F04CEC2EF0F9EC1CF067EC1FF062
:100CB000FAEC1EF08DEC1EF0B5EC21F00DEC23F0FB
:100CC00058EC1FF036EC20F004EC2CF075EC28F01A
:100CD000B8EC26F07DEC28F0B3EC28F059EC22F0CB
:100CE0002CEC21F0F3EC23F095EC11F091EF05F0F2
:100CF0000001100E0B6EC00E12EC10F0000EE16E33
:100D0000030EE26EE65003EC10F00B2E82EF06F0BD
:100D10001200000133B293EF06F035A293EF06F014
:100D200035920201DB1F5DC1E8FFE81EE86678EF3F
:100D30001BF04AC1E8FFE866B2EF40F00001840E04
:100D400012EC10F0200E03EC10F00201520EA5BFC1
:100D5000200E000103EC10F00601CE51B0EC2BF098
:100D6000410ED8A0200E03EC10F00301B251B0ECFC
:100D70002BF04D0ED8A02D0E03EC10F00301B35153
:100D8000B0EC2BF04D0ED8A02D0E03EC10F00301AB
:100D9000B451B0EC2BF04D0ED8A02D0E03EC10F09A
:100DA000200E03EC10F0CEEC08F00301B651B0ECCD
:100DB0002BF0D8A0F8EF06F0A1C2E8FFE81EE86625
:100DC000EFEF06F0800E12EC10F0000EF86E840EBD
:100DD000F76EFC0EF66EB5EC10F0F8EF06F0800E34
:100DE00012EC10F000C513F001C514F022EC11F064
:100DF0000201B8AF11EF07F0B86B000EE8CF0DF0AD
:100E0000E86AE8CF0EF000C5E8FFAEEC0DF0010E89
:100E1000E8CF0DF0E86AE8CF0EF001C5E8FFAEECD0
:100E20000DF0F0EC07F0D8B03DEF07F04AEC09F018
:100E3000D8B03DEF07F0D3EC2DF0D8B03DEF07F080
:100E4000CEEC2AF00001A951E812D8A43DEF07F03A
:100E50000201A0A139EF07F0C00E12EC10F0000E55
:100E6000F86E840EF76EE00EF66EB5EC10F03DEF06
:100E700007F078EC06F06EEC2DF02AEC25F0D8A007
:100E800055EF07F020EC2DF0D8B055EF07F000013A
:100E9000566654EF07F0562ABEC35AF0BFC35BF044
:100EA000D06BD16B55EF07F05606000156A088EFC6
:100EB00007F05B6688EF07F03B0E5C6267EF07F0B8
:100EC000050E5F6E0A0E07EC0CF088EF07F01E0EA1
:100ED0005C6272EF07F0030E5F6E0A0E07EC0CF017
:100EE00088EF07F00A0E5C627DEF07F0010E5F6E7F
:100EF0000A0E07EC0CF088EF07F0060E5C6088EF36
:100F000007F0010E5F6E0A0E07EC0CF088EF07F099
:100F10007F0E5C6E5850D46F5950D56F010E5662DB
:100F2000B1EF07F05A505B10D8B4A0EF07F05A5059
:100F3000D46F5B50D56F000E0301BD63B1EF07F0B6
:100F4000020E0301BD5DD8B4ADEF07F00001D05132
:100F5000D46FD151D56FB1EF07F0E86A0001D46FBB
:100F6000D56F00018B0E12EC10F0D551E8CF13F0C5
:100F7000146A156A166A1AEC11F03A0E03EC10F0B6
:100F8000D4C0E8FFE8CF13F01AEC11F0120003010F
:100F9000C051B0EC2BF0D8A0EDEF07F00301000E2C
:100FA000C165EAEF07F000017CBFEDEF07F0030138
:100FB000C15100010D6E0E6A00010A0E0F6E000E87
:100FC000106E2FEC14F07B51135E7C511458D8B086
:100FD000EDEF07F00001ED6912000001ED6B12006A
:100FE000D8900001D2AF1200C00E12EC10F0000E2B
:100FF000F86E850EF76E920EF66EB5EC10F0D88096
:1010000012000F01D89084B4D880D8A001EF08F066
:101010000A0E74EC0DF00F01D89084B4D880D8A0DB
:1010200001EF08F00F01D89083B6D880D8A012EF56
:1010300008F00A0E74EC0DF00F01D89083B6D8803A
:10104000D8A012EF08F0800E12EC10F00F018350C0
:10105000C5EC10F00F018450C5EC10F0C00E12EC7E
:1010600010F00F018650C5EC10F00F018150C5EC57
:1010700010F00F01835082868184E8B08296E8B236
:1010800081948098E8B48088320E74EC0DF00F01E2
:10109000D89084B4D880D8B053EF08F00A0E74EC1E
:1010A0000DF00F01D89084B4D880D8B023EF08F0A9
:1010B0000F01D89084B4D880D8A058EF08F00A0E59
:1010C00074EC0DF00F01D89084B4D880D8A058EFFC
:1010D00008F0C00E12EC10F0000EF86E840EF76EE1
:1010E000360EF66EB5EC10F00001116A800E12ECAF
:1010F00010F0000EF86E840EF76E6C0EF66EB5EC06
:1011000010F0870E12EC10F000011150D2EC10F02C
:10111000B0EC09F0F8C0E8FFE86695EF08F0D89069
:10112000C432C332D890C432C3328C0E12EC10F0E9
:10113000C3CF13F0C4CF14F00001156A166A12EC85
:1011400011F0320E74EC0DF00F01D89084B4D880F9
:10115000D8B0B0EF08F00A0E74EC0DF00F01D89083
:1011600084B4D880D8B076EF08F00F01D89084B45A
:10117000D880D8A0B5EF08F00A0E74EC0DF00F017E
:10118000D89084B4D880D8A0B5EF08F00001112A17
:101190000C0E116476EF08F023EF08F0800E12ECCD
:1011A00010F0B9C20DF0BAC20EF00E6A0001640E62
:1011B0000F6E000E106E2FEC14F013C011F014C05F
:1011C00012F01BEC09F013C20FF014C210F02FEC58
:1011D00014F01450E8CF13F01550E8CF14F0156A4E
:1011E000010111B104EF09F000011150135C12501C
:1011F0001458E8AE04EF09F0C90E00015F6E050E49
:1012000007EC0CF00101116900014CEC11F0200E0B
:10121000E8CF0AF0300E25640AC025F0255003EC13
:1012200010F0265003EC10F02E0E03EC10F02750B7
:1012300003EC10F012006DC10DF06EC10EF0000154
:10124000300E0F6E000E106E2FEC14F0010113C063
:10125000E8FF6C5F14C0E8FF6D5B15C0E8FF6E5BD4
:101260008DC00DF08EC00EF00001300E0F6E000E1E
:10127000106E2FEC14F0010113C0E8FF6C2714C0AE
:10128000E8FF6D2315C0E8FF6E236DC10DF06EC140
:101290000EF012000D0EB0EC09F00D0EB0EC09F0DE
:1012A0006BC00DF06CC00EF0A9C20FF0AAC210F016
:1012B0002FEC14F000011450136E1550146E1650DC
:1012C000156E166A4CEC11F00001255026100F0B1C
:1012D000D890D8B41200C00E12EC10F0000EF86EC8
:1012E000850EF76E800EF66EB5EC10F0CB0E12EC9C
:1012F00010F00001255003EC10F0265003EC10F024
:101300002E0E03EC10F0275003EC10F0285003ECE5
:1013100010F0D8801200E86AE8CFF8F03F0EF86EBF
:10132000FF0EF76EFF0EF66E0800F5504A0AFF0E2C
:10133000D8B4E8CFF8F012000101616B626B636B07
:101340000A6E0B6A0A50B0EC09F00101C350612724
:10135000C4506223D8B0632B0B2EA2EF09F0120009
:101360000A6E31EC02F0E8A8BEEF09F0F5EC09F0E6
:10137000D8B0F5EC09F00AC0E8FF1200C3EC09F0A0
:101380000AC0E8FF1200C16AE8AEC188E89EE844DE
:10139000E844C26EA10EC06E040EE8CF0CF000014E
:1013A000000E6B6F000E6C6FC2800000000000002A
:1013B000C282C2B2D9EF09F00001C3506B27C450FA
:1013C0006C2300010C06F0E1F8C0E8FFE81EE866B7
:1013D000F0EF09F0D8906C336B33D8906C336B33EB
:1013E0006BC0C3FF6CC0C4FF12000DC064F10EC01F
:1013F00065F10FC066F110C067F113C068F114C049
:1014000069F115C06AF116C06BF1030E31EC02F000
:10141000C3EC09F06BC017F06CC018F00AC0E8FF0D
:1014200031EC02F0E898C3EC09F06BC00DF06CC031
:101430000EF0030E31EC02F0C3EC09F0000117C00E
:10144000E8FF6B5F18C0E8FF6C5B6CAF2DEF0AF034
:101450006B1F6C1F6B2BD8B46C2B6C51D8A45AEF3C
:101460000AF06B510201DC5DD8A05AEF0AF00001CE
:10147000000E0F6E080E106E2FEC14F033EC15F00A
:1014800013C06BF014C06CF06BC0C3FF6CC0C4FF22
:1014900064C10DF065C10EF066C10FF067C110F0B8
:1014A00068C113F069C114F06AC115F06BC116F080
:1014B000D89012000001000E0F6E080E106E2FEC77
:1014C00014F033EC15F013C06BF014C06CF06BC06B
:1014D000C3FF6CC0C4FF64C10DF065C10EF066C1EE
:1014E0000FF067C110F068C113F069C114F06AC150
:1014F00015F06BC116F0D880120000014E6A586AD0
:10150000596AD4C2E8FFE8CF57F00001900E546E3C
:10151000010E556E0001900E506E010E516E526A12
:10152000536A100E0001E8CF4FF03A6A3C6A3E6AF7
:10153000406A426A446A466A486A4A6A4C6A080EC5
:10154000E8CF3BF0E8CF3DF0E8CF3FF0E8CF41F007
:10155000E8CF43F0E8CF45F0E8CF47F0E8CF49F0D7
:10156000E8CF4BF0E8CF4DF0858E000154500F01CD
:10157000E8CFBBFF000155500F01E8CFBCFF0A0EBA
:101580000F01E8CFBAFF0F01A0800F019E900F015D
:10159000080EE8CFB1FFB18012000001F5A1857EF1
:1015A0000201BAAFD7EF0AF08770DFEF0AF000014F
:1015B000EBB1DEEF0AF08780DFEF0AF087900001E1
:1015C000BBCFE8FF5026BCCFE8FF512250C0E8FF58
:1015D000E8CFBBFF51C0E8FFE8CFBCFF0001E86ADD
:1015E0004E6458EC0BF000014E2A4EC0E8FFFE0B93
:1015F0004F600EEF0BF04E6A38C0E8FFE8CF50F0B6
:1016000052C0E8FF505E39C0E8FFE8CF51F053C048
:10161000E8FF515A526A536A55EF0BF04EA023EF80
:101620000BF054C0E8FFE8CF50F055C0E8FFE8CF1A
:1016300051F0BAC2E8FF0001EB814E624FEF0BF0B0
:10164000EB914FEF0BF0120E4E623BEF0BF052C0DE
:10165000E8FFE8CF50F053C0E8FFE8CF51F0513237
:1016600050325132503251325032513250320F0ECC
:1016700051164FEF0BF0040EE8CFEAFF000EE8CF53
:10168000E9FF4EC0E8FFE830E89EE804E92600ECF8
:1016900002F054C0E8FF505E55C0E8FF515A50C0F8
:1016A000E8FF522651C0E8FF53220F01A19012001B
:1016B000CAEC11F0D4EC11F00001010E366267EFB4
:1016C0000BF000018286C3B18296FF0EC36F030147
:1016D000CDBF70EF0BF00001F5A1859E73EF0BF00D
:1016E0000001F5A1858E0201BAAF7EEF0BF0BAB111
:1016F0007DEF0BF087907EEF0BF087800001572E77
:10170000C5EF0BF0D1EC2DF0000156A0B4EF0BF0BB
:101710000001FF0EED63B4EF0BF05AC0E8FF5B1061
:10172000D8B4ACEF0BF05A6699EF0BF03C0E5A6E42
:101730005B065A065A505C6E0301E86ABD11D8B4C4
:10174000ACEF0BF000015A505B10D8B4ACEF0BF0CB
:10175000D06BD16BB4EF0BF00001D02B3C0ED063FB
:10176000B4EF0BF0D06BD12BD4C2E8FFE8CF57F029
:10177000582A3C0E5862C5EF0BF0586A592A0501E9
:10178000002BD8B4012B0201B8690201A1A1CEEF50
:101790000BF0530E09EC12F00001AE6B83CFE8FFA3
:1017A0000001311AD8A4306E316E30C0E8FF321219
:1017B000E81EF91332C0E8FFF91784CFE8FF0001F3
:1017C000341AD8A4336E346E33C0E8FF3512E81EE5
:1017D000FA1335C0E8FFFA17000160676007616718
:1017E000610762676207A767A707A867A807A967D5
:1017F000A9075E66FDEF0BF012005E2E12008078E6
:101800005F4E12005DC0E8FFE8CF5EF01200E8CF47
:101810005DF0E8CF5EF0D2C2E8FFE86616EF0CF0AC
:10182000809802C5E8FFE86680781200808802C5CB
:10183000E8FFE8668078120000010ABE23EF0CF092
:10184000819E24EF0CF0818E828A829A0A460B2EAA
:101850001CEF0CF012000201AD510A6E080E0B6E67
:101860001CEC0CF00201AC510A6E080E0B6E1CEC65
:101870000CF00201AB510A6E080E0B6E1CEC0CF062
:101880008686869612000BC113F00CC114F00DC1B0
:1018900015F009C117F00AC118F033EC15F0020178
:1018A000A55101010F03F35000011326D8B0142AEB
:1018B000D8B0152A0101006B016B026B00011350B7
:1018C000E846E846E880E8921F0B13B6E88E01016F
:1018D000006F0001133614361536133614361536DC
:1018E00013361436153613361436153614500101D6
:1018F000016F000115501F0B01011009026F12004A
:1019000043EC0CF0010108510A6E080E0B6E1CEC42
:101910000CF0010107510A6E080E0B6E1CEC0CF066
:10192000010106510A6E080E0B6E1CEC0CF0868647
:101930008696010105510A6E080E0B6E1CEC0CF028
:10194000010104510A6E080E0B6E1CEC0CF0010133
:1019500003510A6E080E0B6E1CEC0CF08686869600
:10196000010102510A6E080E0B6E1CEC0CF0010115
:1019700001510A6E080E0B6E1CEC0CF001010051B7
:101980000A6E080E0B6E1CEC0CF086868696120012
:101990000F01939E949A939C819C819E829A989623
:1019A00086960201010ED163F5EF0CF004C206F138
:1019B00005C207F106C208F101C203F102C204F137
:1019C00003C205F10101700E0B6FC60E0C6F000E05
:1019D0000D6F0101140E096F000E0A6F01010E6BED
:1019E0000A0E106F010E0F6F1200020ED16318EF76
:1019F0000DF00AC206F10BC207F10CC208F107C2D2
:101A000003F108C204F109C205F101016C0E0B6F6C
:101A1000CF0E0C6F000E0D6F0101140E096F000E3A
:101A20000A6F01010E6B080E106F050E0F6F12008A
:101A3000030ED1633CEF0DF010C206F111C207F1A5
:101A400012C208F10DC203F10EC204F10FC205F17A
:101A500001014A0E0B6F190E0C6F010E0D6F010183
:101A60000A0E096F000E0A6F01010B0E0E6F320E87
:101A7000106F020E0F6F1200120087B25BEF0DF0B5
:101A8000D5AE4DEF0DF0D6CFC7F0D7CFC8F00001DF
:101A9000C92BD8B4CA2BF09012000001C951CA1149
:101AA000F090D8A41200E86AE8CFD7FFE8CFD6FFBD
:101AB000D58EF0901200F17AF0AC6DEF0DF00301CD
:101AC000CDA169EF0DF0F1AA858EF1BA859E6DEF7B
:101AD0000DF0F1AA859EF1BA858EF09012000000FB
:101AE000E82E6FEF0DF012000A6EFA0E6FEC0DF09B
:101AF000FA0E6FEC0DF00A2E75EF0DF01200050EC8
:101B0000E26EE86AE16EE86AAA6EE86AA96EA69ECD
:101B1000A69CA680A850E66EA92AF9E112000EC084
:101B2000E8FFE26E0DC0E8FFE16EE86AAA6E0DC044
:101B3000E8FFA96EA69EA69CA680A850E66EA92ADC
:101B40000A06F8E112000EC0E8FFAA6E0DC0E8FF19
:101B5000A96EA69EA69CA680A8501200A198A86E69
:101B60000EC0E8FFAA6E0DC0E8FFA96EA69EA69C57
:101B7000A684F29E550EA76EAA0EA76EA682F28EBE
:101B8000A1A8C0EF0DF0A19812000FC0E8FFAEECC5
:101B90000DF000010D2AD8B40E2A10C0E8FFAEECFB
:101BA0000DF012000EC0E8FFE26E0DC0E8FFE16E1E
:101BB000E86AAA6E0DC0E8FFA96EA198E650A86E6B
:101BC000A69EA69CA684F29E550EA76EAA0EA76E90
:101BD000A682F28EA1A8EAEF0DF0A198A92A0A0622
:101BE000EDE11200800E12EC10F0000EF86E850E82
:101BF000F76E380EF66EB5EC10F0FA0E74EC0DF0D0
:101C0000C00E12EC10F0000EF86E840EF76EB40EDB
:101C1000F66EB5EC10F0BEEC30F0D8A01200C00E9D
:101C200012EC10F0000EF86E850EF76E4A0EF66E8E
:101C3000B5EC10F0E4EC3EF061EC25F00001600E34
:101C4000A46F00C2E8FFF2EC25F00201002B0301B3
:101C5000072B3A0E076330EF0EF0062B300E076F9E
:101C60000001A42F21EF0EF03CEC25F000C2E8FFAC
:101C7000C7EC25F012000001030EBC19D8B445EFE3
:101C80000EF0040EBC19D8A41200600EE8CF0CF0C0
:101C90000001BA6BBB513F0B880FB96F050EBA2319
:101CA000BBC013F0BCC014F0156AC00E1316030EAF
:101CB000145E000E1326010E1422010E15220001DF
:101CC000880E0D6E050E0E6E400EE8CF0AF087EC02
:101CD0000EF0010EE8CF0AF09EEC0EF0BDC00AF047
:101CE00087EC2AF00AC0BDF00001880E0D6E050ECB
:101CF0000E6E010EE8CF0AF0BBEC0EF00001020EF2
:101D00001426D8B4152A0C2E5FEF0EF01200000135
:101D10001550F86E1450F76E1350F66E00010E5009
:101D2000E26E0D50E16E0900F550E66E0A060900FC
:101D3000F550E66E0A2E93EF0EF0120000011550DA
:101D4000F86E1450F76E1350F66EA68EA69CA684FD
:101D5000A688F29E550EA76EAA0EA76EA682000058
:101D6000F28E0A4E12000001400E1326000E1422BD
:101D700015229EEF0EF062EC03F000011550F86E94
:101D80001450F76E1350F66EA68EA69CA684A688F5
:101D9000F29E550EA76EAA0EA76EA682F28E0A00BC
:101DA00000010E50E26E0D50E16E400E0B6EE6CF5C
:101DB000E8FFF56E0F000B2EFAD7A68EA69CA68420
:101DC000F29E550EA76EAA0EA76EA682F28EA6945C
:101DD0000A4E12000001400E1326000E1422152296
:101DE0000001400E0D26000E0E22BBEF0EF000018A
:101DF0001550F86E1450F76E1350F66EA68EA69C12
:101E0000A684A688F29E550EA76EAA0EA76EA6827D
:101E10000000F28E0A00080E0B6E00010E50E26EFA
:101E20000D50E16E080E0C6EE6CFE8FFF56E0F0068
:101E30000C2EFAD7A68EA69CA684F29E550EA76EEF
:101E4000AA0EA76EA6820000F28E0B2EEBD7A694E8
:101E50000001400E1326000E142215220001400E30
:101E60000D26000E0E220A2EF7EF0EF012000F01C3
:101E70009A6A886A9396939A93988186818A8188D0
:101E8000140E74EC0DF003C5E8FFE81EE86688EF59
:101E90000FF0390E12EC10F0050E74EC0DF0390E47
:101EA00012EC10F0010E74EC0DF0390E12EC10F083
:101EB000010E74EC0DF0390E12EC10F01C0E12EC49
:101EC00010F0520E12EC10F0690E12EC10F0740EBD
:101ED00012EC10F00C0E12EC10F0010E12EC10F0DF
:101EE000060E12EC10F0380E12EC10F0400E12EC50
:101EF00010F0400EE8CF0AF0000EF86E200EF76EDC
:101F0000E00EF66E0AC0E8FFB8EC10F0B9EF0FF083
:101F1000380E12EC10F0050E74EC0DF0380E12ECC9
:101F200010F0010E74EC0DF0380E12EC10F0010EF2
:101F300074EC0DF0380E12EC10F0060E12EC10F0EE
:101F40000C0E12EC10F0010E12EC10F0800E12ECE0
:101F500010F0400E12EC10F0400EE8CF0AF0000E28
:101F6000F86E200EF76EE00EF66E0AC0E8FFB8ECD1
:101F700010F0800E12EC10F0840EF76E480EF66E24
:101F8000B5EC10F0C00E12EC10F0840EF76E5A0E85
:101F9000F66EB5EC10F012000101F30E4163D4EFC0
:101FA0000FF06F0E416F1200F20E4163DAEF0FF087
:101FB000D1EF0FF0E00E4163E1EF0FF0610E416FE2
:101FC0001200E90E4163E8EF0FF0650E416F120059
:101FD000E70E4163EFEF0FF0630E416F1200ED0E5D
:101FE0004163F6EF0FF0690E416F1200E80E416396
:101FF000FDEF0FF0650E416F1200FA0E4163120003
:10200000750E416F120021EC10F044EC10F0818A43
:102010008198000000008186000000008196000089
:102020000000120021EC10F044EC10F0819A81982D
:102030000000000081860000000081960000000082
:10204000120028EC10F0D8B021EF10F09A6A1200BC
:102050009A688188819A0000000081860000000053
:10206000D890E8CF41F102C5E8FFE8663EEF10F0F6
:1020700088BED880819641C1E8FF120088B0D88020
:10208000819641C1E8FF1200886E02C5E8FFE81E94
:10209000E866120088CFE8FF886AE8B08888E8B26E
:1020A000888AE8B4888CE8B6888EE8B88886E8BA6A
:1020B0008884E8BC8882E8BE8880120003C5E8FFF7
:1020C000E81EE8661200390E12EC10F0E1C2E8FFDB
:1020D0000F0B700912EC10F0380E12EC10F0120019
:1020E00010101010101010101818181818181818B0
:1020F0001C1C1C1C1C1C1C1C1E1E1E1E1E1E1E1E10
:1021000001010101010101010303030303030303AF
:1021100007070707070707070F0F0F0F0F0F0F0F0F
:102120001F1F1F1F1F1F1F1F800E12EC10F00DC05E
:10213000F6FF0EC0F7FFF86AB5EC10F01200C00E03
:1021400012EC10F00DC0F6FF0EC0F7FFF86AB5EC08
:1021500010F01200C00E12EC10F0D4C0F6FFD5C083
:10216000F7FFF86AB5EC10F01200100EB8EF10F09F
:102170000A6E0900F5CFE8FFE812D8B4120003ECAC
:1021800010F00A4E1200B9EF10F00A6E080E0B6E36
:10219000300E0ABE310E03EC10F00A360B2EC8EFDB
:1021A00010F012000A6E3A0E0B6E0AC0E8FFF00B38
:1021B000E842E842E842E84230090B64070F03ECCA
:1021C00010F00AC0E8FF0F0B30090B64070F03EC97
:1021D00010F00AC0E8FF1200000EE8CF15F0E8CFBB
:1021E00016F00001200E14BE2D0E03EC10F00001BD
:1021F00014AE1200131E141E132AD8B4142A12008F
:102200004CEC11F0255003EC10F0265003EC10F0CC
:10221000275003EC10F0285003EC10F0295003EC89
:1022200010F012004CEC11F005EF11F04CEC11F035
:1022300008EF11F04CEC11F00BEF11F04CEC11F039
:102240000EEF11F04CEC11F036EC11F0255003ECD0
:1022500010F0265003EC10F0275003EC10F028503B
:1022600003EC10F0295003EC10F012000001300EC6
:1022700025621200200E256E300E26621200200EFE
:10228000266E300E27621200200E276E300E286256
:102290001200200E286E12000001196A1A6A100E30
:1022A000176E270E186E33EC15F0300E1310256ED6
:1022B0001BC013F01CC014F01DC015F01EC016F09A
:1022C000196A1A6AE80E176E030E186E33EC15F0D1
:1022D000300E1310266E1BC013F01CC014F01DC06E
:1022E00015F01EC016F0196A1A6A640E176E000EF9
:1022F000186E33EC15F0300E1310276E1BC013F060
:102300001CC014F01DC015F01EC016F0196A1A6A20
:102310000A0E176E000E186E33EC15F0300E131007
:10232000286E300E1B10296E12000001310E37622C
:102330009EEF11F03CEC25F0C8EF11F0320E376241
:10234000A8EF11F000C2E8FFC7EC25F0C8EF11F0CC
:10235000330E3762B0EF11F061EC25F0C8EF11F0E9
:10236000340E3762B8EF11F000C2E8FFF2EC25F04E
:10237000350E3762C8EF11F00001FF0E0D6E030E2F
:102380000E6EE8CF0EF0FF0EAEEC0DF0C8EF11F0C0
:10239000376A12000F01ABA21200AB98AB880F0195
:1023A000AE500001636B12000F016BA212006B981C
:1023B0006B880F016E5012000C0EE8CFAFFF220E9B
:1023C000E8CFACFF900EE8CFABFF0001636B9F9AA4
:1023D0009D8A1200ACA2EAEF11F0E8CFADFF120027
:1023E0000C0EE8CF6FFFD6C2E8FFE866FBEF11F0F6
:1023F000030EE8CF6FFF7C96260EE8CF6CFF900EA1
:10240000E8CF6BFFA59AA38A12006CA205EF12F029
:1024100012006CA209EF12F0E8CF6DFF1200E1CFBD
:1024200021F0E2CF22F0000167C0E1FF000166C0A9
:10243000E2FF6A6BACA21AEF12F0E6CFE8FF0001F0
:102440006A27E8CFADFF0001682F1AEF12F021C014
:10245000E1FF22C0E2FF1200E1CF21F0E2CF22F043
:10246000000167C0E1FF000166C0E2FF6A6B000186
:10247000050E606FE86A60654BEF12F09EAA3BEFB5
:1024800012F0AECFE8FFE8CFE6FF00016A270001B7
:10249000682F37EF12F021C0E1FF22C0E2FF1200E7
:1024A0009EAA12000001000E636363EF12F0AECF2C
:1024B000E8FFE8CF64F0550E64631200280EE8CF01
:1024C00061F0632B1200010E63636DEF12F0AECF6B
:1024D000E8FFE8CF65F0632B1200020E636377EF2D
:1024E00012F0AECFE8FFE8CF66F0632B1200030EC8
:1024F000636381EF12F0AECFE8FFE8CF67F0632BA4
:102500001200040E63638AEF12F0AECFE8FFE8CF4B
:1025100068F0632B050E636396EF12F0010E65639E
:1025200094EF12F02CEC12F0632B1200060E636392
:10253000B9EF12F0AECFE8FFE8CF69F0020E6563A5
:10254000AAEF12F00FEC12F06AC0E8FFEAEC11F00B
:10255000636B12006AC0E8FF6963B4EF12F00C0EFF
:10256000EAEC11F0636B12000D0EEAEC11F0636BF4
:102570001200636B1200A4AA12006ECFE8FF0201E2
:10258000A1B1FEEF12F0530AD8A412000201A0A1DB
:10259000120000010F0E7615100909EC12F075C03B
:1025A000E8FF09EC12F005EC12F0050E6FEC0DF0EF
:1025B00000010F0E7815200909EC12F0775109EC93
:1025C00012F005EC12F0050E6FEC0DF000010F0E8D
:1025D0007A15300909EC12F0795109EC12F005EC8A
:1025E00012F0050E6FEC0DF000010F0E7C15400986
:1025F00009EC12F07B5109EC12F012000001AEB1AF
:1026000005EF13F0B06FAE2B1200AF6FAE2B020EC2
:10261000AE631EEF13F0B051F00B100AD8A463EFB5
:1026200013F00F0EB017B0A718EF13F0F00EB013A1
:10263000AFC0B1F0B0C0B2F063EF13F0040EAE6300
:1026400035EF13F0B051F00B200AD8A463EF13F06C
:102650000F0EB017B0A72FEF13F0F00EB013AFC0EE
:10266000B3F0B0C0B4F063EF13F0060EAE634CEFFE
:1026700013F0B051F00B300AD8A463EF13F00F0E33
:10268000B017B0A746EF13F0F00EB013AFC0B5F01F
:10269000B0C0B6F063EF13F0080EAE6363EF13F053
:1026A000B051F00B400AD8A463EF13F00F0EB0172F
:1026B000B0A75DEF13F0F00EB013AFC0B7F0B0C02D
:1026C000B8F063EF13F01200D6C2E8FFE81EE86628
:1026D0001200AA0E09EC12F0AA0E09EC12F00A6A16
:1026E0000B6A040EE26E000EE16E0AC0E8FFE3CF53
:1026F0000DF0000EE26E3A0EE16E0DC0E8FFE80646
:10270000D890E836E3CF0DF0E82AE3CF0EF00001D1
:102710000E3AF00E0E160AC0E8FFE82A0E120E3A24
:102720000BC0E8FF0D240E24E8CF0BF00DC0E8FF2E
:1027300009EC12F00EC0E8FF09EC12F00A2A080EAC
:102740000A60AAEF13F049C4E8FFD890E8320A649F
:1027500071EF13F00BC0E8FF09EC12F0ED0E09EC7D
:1027600012F0ED0E09EC12F012000001EF67C3EF5A
:1027700013F07E960C0E0F01AF6E220EAC6E900E13
:10278000E8CFABFF12007C960C0E0F016F6E220E8D
:102790006C6E900EE8CF6BFF12000001E80E0D2664
:1027A000030E0E220EAEDAEF13F0E86AE8CF0DF05A
:1027B000E8CF0EF0780E0D5C070E0E58D8A0E4EFAF
:1027C00013F0EF0EEBEF13F00E320D320E320D322E
:1027D0000E320D320D500001EF6709EF12F0EAEFF3
:1027E00011F000010EAEFAEF13F0E86AE8CF0DF039
:1027F000E8CF0EF0BC0E0D5C030E0E58D8A0E6EF2D
:1028000013F0EF0EEBEF13F0F00EEBEC13F0800E85
:10281000EBEC13F075C00DF076C00EF0CDEC13F0BC
:1028200077C00DF078C00EF0CDEC13F079C00DF04C
:102830007AC00EF0CDEC13F07BC00DF07CC00EF032
:10284000F1EC13F07DC00DF07EC00EF0CDEC13F076
:102850007FC00DF080C00EF0CDEC13F0120040EC04
:1028600014F010AE38EF14F00D50155E0E50165ADD
:102870000EAE3FEF14F00F50155E1050165A1200B6
:102880000001136A146A156A166A0F500D02F3CF1D
:1028900013F0F4CF14F00F500E02F3501426F4503E
:1028A0001522D8B0162A10500D02F3501426F450F9
:1028B0001522D8B0162A10500E02F3501526F450E7
:1028C000162212000001246A1B6A14501310D8B497
:1028D000000C14501718E8BE241EAA6B000E17AE89
:1028E00074EF14F0171E172A14AE7BEF14F0131EAA
:1028F000141E132A142214501710E8BE07EF15F007
:1029000017501B5E143614341B3617501B26143612
:1029100014341B36175014B01B5E14A01B2614363B
:1029200014341B36175014B01B5E14A01B2614362B
:1029300014341B36175014B01B5E14A01B2614361B
:1029400014341B36175014B01B5E14A01B2614360B
:1029500014341B36175014B01B5E14A01B261436FB
:1029600014341B36175014B01B5E14A01B261436EB
:1029700013341B36175014B01B5E14A01B261336DD
:1029800013341B36175013B01B5E13A01B261336CF
:1029900013341B36175013B01B5E13A01B261336BF
:1029A00013341B36175013B01B5E13A01B261336AF
:1029B00013341B36175013B01B5E13A01B2613369F
:1029C00013341B36175013B01B5E13A01B2613368F
:1029D00013341B36175013B01B5E13A01B2613367F
:1029E00013341B36175013B01B5E13A01B2613366F
:1029F00013A01B26AAB125EF15F024AE000C131E60
:102A0000141EE86A132A14221B1E1B2A000C17AE80
:102A100020EF15F014BE1CEF15F0E8CFA3F0135013
:102A2000E8CF1BF01B9E133614361450E8CF13F07A
:102A3000A351146AFDEF14F0136A132A146A000CF0
:102A4000141E131EAA2B80EF14F01B2A17501B62B2
:102A5000FDEF14F01B6A000E132A142214AEFDEFD2
:102A600014F02388FF0C0001246A1C6A1B6A1550AD
:102A700014101310D8B4000C15501818E8BE241EFA
:102A8000AA6B000E18AE49EF15F0171E181E172A74
:102A9000182215AE52EF15F0131E141E151E132A20
:102AA0001422152215501810E8BEDCEF16F017504E
:102AB0001B5E18501C5A153615341B361C36175021
:102AC0001B2618501C22153615341B361C36175081
:102AD00015A070EF15F01B5E18501C5A73EF15F01F
:102AE0001B2618501C22153615341B361C36175061
:102AF00015A080EF15F01B5E18501C5A83EF15F0DF
:102B00001B2618501C22153615341B361C36175040
:102B100015A090EF15F01B5E18501C5A93EF15F09E
:102B20001B2618501C22153615341B361C36175020
:102B300015A0A0EF15F01B5E18501C5AA3EF15F05E
:102B40001B2618501C22153615341B361C36175000
:102B500015A0B0EF15F01B5E18501C5AB3EF15F01E
:102B60001B2618501C22153615341B361C361750E0
:102B700015A0C0EF15F01B5E18501C5AC3EF15F0DE
:102B80001B2618501C22153614341B361C361750C1
:102B900015A0D0EF15F01B5E18501C5AD3EF15F09E
:102BA0001B2618501C22143614341B361C361750A2
:102BB00014A0E0EF15F01B5E18501C5AE3EF15F05F
:102BC0001B2618501C22143614341B361C36175082
:102BD00014A0F0EF15F01B5E18501C5AF3EF15F01F
:102BE0001B2618501C22143614341B361C36175062
:102BF00014A000EF16F01B5E18501C5A03EF16F0DD
:102C00001B2618501C22143614341B361C36175041
:102C100014A010EF16F01B5E18501C5A13EF16F09C
:102C20001B2618501C22143614341B361C36175021
:102C300014A020EF16F01B5E18501C5A23EF16F05C
:102C40001B2618501C22143614341B361C36175001
:102C500014A030EF16F01B5E18501C5A33EF16F01C
:102C60001B2618501C22143614341B361C361750E1
:102C700014A040EF16F01B5E18501C5A43EF16F0DC
:102C80001B2618501C22143613341B361C361750C2
:102C900014A050EF16F01B5E18501C5A53EF16F09C
:102CA0001B2618501C22133613341B361C361750A3
:102CB00013A060EF16F01B5E18501C5A63EF16F05D
:102CC0001B2618501C22133613341B361C36175083
:102CD00013A070EF16F01B5E18501C5A73EF16F01D
:102CE0001B2618501C22133613341B361C36175063
:102CF00013A080EF16F01B5E18501C5A83EF16F0DD
:102D00001B2618501C22133613341B361C36175042
:102D100013A090EF16F01B5E18501C5A93EF16F09C
:102D20001B2618501C22133613341B361C36175022
:102D300013A0A0EF16F01B5E18501C5AA3EF16F05C
:102D40001B2618501C22133613341B361C36175002
:102D500013A0B0EF16F01B5E18501C5AB3EF16F01C
:102D60001B2618501C22133613341B361C361750E2
:102D700013A0C0EF16F01B5E18501C5AC3EF16F0DC
:102D80001B2618501C22133613B0CBEF16F0175029
:102D90001B2618501C22AAB100EF17F024AE000C1D
:102DA000131E141E151E000E132A142215221B1E9C
:102DB0001C1E1B2A1C22000C18AEFAEF16F015BEC2
:102DC000F5EF16F0E8CFA3F01450E8CF1CF0135045
:102DD000E8CF1BF01C9E143615361550E8CF13F0C3
:102DE000A351156A146ACEEF16F0136A132A146AF7
:102DF000156A000C151E141E131EAA2B57EF15F092
:102E00001B2AE86A1C2217501B62CEEF16F01850DE
:102E10001C62CEEF16F01C6A1B6A000E132A1422E5
:102E2000152215AECEEF16F02388FF0C00011E6AA6
:102E30001D6A1C6A1B6A16341B361C361D361E366C
:102E400017501B5E18501C5A19501D5A1A501E5A02
:102E5000AA6BAA5B163616341B361C361D361E3678
:102E6000AA37175016A040EF17F01B5E18501C5AD7
:102E700019501D5A1A501E5AE86AAA5B49EF17F0FA
:102E80001B2618501C2219501D221A501E22E86AB7
:102E9000AA23163616341B361C361D361E36AA37A4
:102EA000175016A05FEF17F01B5E18501C5A1950F0
:102EB0001D5A1A501E5AE86AAA5B68EF17F01B26C3
:102EC00018501C2219501D221A501E22E86AAA23EB
:102ED000163616341B361C361D361E36AA371750CA
:102EE00016A07EEF17F01B5E18501C5A19501D5A81
:102EF0001A501E5AE86AAA5B87EF17F01B26185073
:102F00001C2219501D221A501E22E86AAA231636C6
:102F100016341B361C361D361E36AA37175016A01F
:102F20009DEF17F01B5E18501C5A19501D5A1A506D
:102F30001E5AE86AAA5BA6EF17F01B2618501C223F
:102F400019501D221A501E22E86AAA23163616347A
:102F50001B361C361D361E36AA37175016A0BCEF7E
:102F600017F01B5E18501C5A19501D5A1A501E5A41
:102F7000E86AAA5BC5EF17F01B2618501C221950EF
:102F80001D221A501E22E86AAA23163616341B3652
:102F90001C361D361E36AA37175016A0DBEF17F069
:102FA0001B5E18501C5A19501D5A1A501E5AE86AB6
:102FB000AA5BE4EF17F01B2618501C2219501D22A3
:102FC0001A501E22E86AAA23163616341B361C36FF
:102FD0001D361E36AA37175016A0FAEF17F01B5EE3
:102FE00018501C5A19501D5A1A501E5AE86AAA5BEA
:102FF00003EF18F01B2618501C2219501D221A50DE
:103000001E22E86AAA23163615341B361C361D36D6
:103010001E36AA37175016A019EF18F01B5E18506D
:103020001C5A19501D5A1A501E5AE86AAA5B22EF00
:1030300018F01B2618501C2219501D221A501E224F
:10304000E86AAA23153615341B361C361D361E3683
:10305000AA37175015A038EF18F01B5E18501C5AED
:1030600019501D5A1A501E5AE86AAA5B41EF18F00F
:103070001B2618501C2219501D221A501E22E86AC5
:10308000AA23153615341B361C361D361E36AA37B4
:10309000175015A057EF18F01B5E18501C5A195006
:1030A0001D5A1A501E5AE86AAA5B60EF18F01B26D8
:1030B00018501C2219501D221A501E22E86AAA23F9
:1030C000153615341B361C361D361E36AA371750DA
:1030D00015A076EF18F01B5E18501C5A19501D5A97
:1030E0001A501E5AE86AAA5B7FEF18F01B26185088
:1030F0001C2219501D221A501E22E86AAA231536D6
:1031000015341B361C361D361E36AA37175015A02F
:1031100095EF18F01B5E18501C5A19501D5A1A5082
:103120001E5AE86AAA5B9EEF18F01B2618501C2254
:1031300019501D221A501E22E86AAA23153615348A
:103140001B361C361D361E36AA37175015A0B4EF95
:1031500018F01B5E18501C5A19501D5A1A501E5A4E
:10316000E86AAA5BBDEF18F01B2618501C22195004
:103170001D221A501E22E86AAA23153615341B3662
:103180001C361D361E36AA37175015A0D3EF18F07F
:103190001B5E18501C5A19501D5A1A501E5AE86AC4
:1031A000AA5BDCEF18F01B2618501C2219501D22B8
:1031B0001A501E22E86AAA23153615341B361C360F
:1031C0001D361E36AA37175015A0F2EF18F01B5EF9
:1031D00018501C5A19501D5A1A501E5AE86AAA5BF8
:1031E000FBEF18F01B2618501C2219501D221A50F4
:1031F0001E22E86AAA23153614341B361C361D36E7
:103200001E36AA37175015A011EF19F01B5E185083
:103210001C5A19501D5A1A501E5AE86AAA5B1AEF16
:1032200019F01B2618501C2219501D221A501E225C
:10323000E86AAA23143614341B361C361D361E3693
:10324000AA37175014A030EF19F01B5E18501C5A03
:1032500019501D5A1A501E5AE86AAA5B39EF19F024
:103260001B2618501C2219501D221A501E22E86AD3
:10327000AA23143614341B361C361D361E36AA37C4
:10328000175014A04FEF19F01B5E18501C5A19501C
:103290001D5A1A501E5AE86AAA5B58EF19F01B26ED
:1032A00018501C2219501D221A501E22E86AAA2307
:1032B000143614341B361C361D361E36AA371750EA
:1032C00014A06EEF19F01B5E18501C5A19501D5AAD
:1032D0001A501E5AE86AAA5B77EF19F01B2618509D
:1032E0001C2219501D221A501E22E86AAA231436E5
:1032F00014341B361C361D361E36AA37175014A040
:103300008DEF19F01B5E18501C5A19501D5A1A5097
:103310001E5AE86AAA5B96EF19F01B2618501C2269
:1033200019501D221A501E22E86AAA23143614349A
:103330001B361C361D361E36AA37175014A0ACEFAC
:1033400019F01B5E18501C5A19501D5A1A501E5A5B
:10335000E86AAA5BB5EF19F01B2618501C22195019
:103360001D221A501E22E86AAA23143614341B3672
:103370001C361D361E36AA37175014A0CBEF19F095
:103380001B5E18501C5A19501D5A1A501E5AE86AD2
:10339000AA5BD4EF19F01B2618501C2219501D22CD
:1033A0001A501E22E86AAA23143614341B361C361F
:1033B0001D361E36AA37175014A0EAEF19F01B5E0F
:1033C00018501C5A19501D5A1A501E5AE86AAA5B06
:1033D000F3EF19F01B2618501C2219501D221A5009
:1033E0001E22E86AAA23143613341B361C361D36F7
:1033F0001E36AA37175014A009EF1AF01B5E18509A
:103400001C5A19501D5A1A501E5AE86AAA5B12EF2C
:103410001AF01B2618501C2219501D221A501E2269
:10342000E86AAA23133613341B361C361D361E36A3
:10343000AA37175013A028EF1AF01B5E18501C5A19
:1034400019501D5A1A501E5AE86AAA5B31EF1AF039
:103450001B2618501C2219501D221A501E22E86AE1
:10346000AA23133613341B361C361D361E36AA37D4
:10347000175013A047EF1AF01B5E18501C5A195032
:103480001D5A1A501E5AE86AAA5B50EF1AF01B2602
:1034900018501C2219501D221A501E22E86AAA2315
:1034A000133613341B361C361D361E36AA371750FA
:1034B00013A066EF1AF01B5E18501C5A19501D5AC3
:1034C0001A501E5AE86AAA5B6FEF1AF01B261850B2
:1034D0001C2219501D221A501E22E86AAA231336F4
:1034E00013341B361C361D361E36AA37175013A050
:1034F00085EF1AF01B5E18501C5A19501D5A1A50AD
:103500001E5AE86AAA5B8EEF1AF01B2618501C227E
:1035100019501D221A501E22E86AAA2313361334AA
:103520001B361C361D361E36AA37175013A0A4EFC3
:103530001AF01B5E18501C5A19501D5A1A501E5A68
:10354000E86AAA5BADEF1AF01B2618501C2219502E
:103550001D221A501E22E86AAA23133613341B3682
:103560001C361D361E36AA37175013A0C3EF1AF0AB
:103570001B5E18501C5A19501D5A1A501E5AE86AE0
:10358000AA5BCCEF1AF01B2618501C2219501D22E2
:103590001A501E22E86AAA23133613341B361C362F
:1035A0001D361E36AA37175013A0E2EF1AF01B5E25
:1035B00018501C5A19501D5A1A501E5AE86AAA5B14
:1035C000EBEF1AF01B2618501C2219501D221A501E
:1035D0001E22E86AAA23133613B0F7EF1AF0175029
:1035E0001B2618501C2219501D221A501E22000C96
:1035F0004C202041696C20207878782520202052AA
:10360000552020456C65202078787825202020449E
:103610004C20205275642020787878252020205274
:103620004C20205468742020787878252020204869
:1036300041202043483520207878782520202042DA
:1036400055202043483620207878782520202044B3
:1036500055202043483720207878782520202044A2
:1036600043202043483820207878782520202041A6
:10367000456C657661746F72202020202020202008
:1036800041696C65726F6E20202020202020202050
:103690005275646465722020202020202020202084
:1036A0005468726F74746C652020202020202020C4
:1036B00043483520202020202020202020202020AA
:1036C0004348362020202020202020202020202099
:1036D0004348372020202020202020202020202088
:1036E0004348382020202020202020202020202077
:1036F0000001F00E0D6E350E0E6E5EC1E8FFE83A69
:1037000000010D26D8B00E2A94EC10F0C2EC1BF08C
:10371000D8B0BAEF1BF00F01750EE16E000EE26E2D
:103720005EC1E8FF070BE846E126D8B0E22AE65082
:10373000E8CF0DF0E650E8CF0EF00DC013F00EC04C
:1037400014F00A0E176E62EC14F0870E12EC10F0F3
:10375000ECEC10F016EC11F0E1CFE8FF7D0AD8A4F4
:10376000B6EF1BF0B6EC41F0BAEF1BF0D8EC40F02E
:103770003DEC41F02AEC25F00101D8B05E2B0F0E94
:103780005E171200D8905EC1E8FFE8A612000F0194
:103790003C0EE16E000EE26E5EC1E8FF070BE846EC
:1037A000E126D8B0E22AE650E8CF13F0E550E8CFA2
:1037B00014F0890E12EC10F00DEC1CF0E650E8CF7E
:1037C0000DF0E550E8CF0EF0E8EC1BF0D8801200C9
:1037D0000001AEC2E8FF0D5EAFC2E8FF0E5A000165
:1037E000E80E0F6E030E106E2FEC14F0B0C217F03F
:1037F000B1C218F00001AEC2E8FF175EAFC2E8FF29
:10380000185A33EC15F0C00E12EC10F013C00DF086
:1038100014C00EF0B6EC41F012000001D890143242
:103820001332156A166A4CEC11F0265003EC10F0B6
:103830002E0E03EC10F0275003EC10F0285003EC90
:1038400010F0295003EC10F06D0E03EC10F0530E45
:1038500003EC10F012000F01D89083B6D880D8B0D6
:1038600037EF1CF00A0E74EC0DF00F01D89083B600
:10387000D880D8B0ADEF1CF00F01D89084B2D880BA
:10388000D8B048EF1CF00A0E74EC0DF00F01D89080
:1038900084B2D880D8B0ADEF1CF00001D2676FEFD2
:1038A0001CF00001D269030132C30DF033C30EF0E6
:1038B0000001E80E0F6E030E106E2FEC14F014C012
:1038C0001CF115C01DF10301345101011C27030136
:1038D000355101011D2334C31AF135C31BF150ECDE
:1038E00033F0D8B080EF1CF0D8A487EF1CF00101B2
:1038F0001A07D8A01B071A07D8A01B0787EF1CF0D0
:1039000001011A2BD8B41B2B1A2BD8B41B2B1CC1AA
:103910000DF01DC10EF001011A5100010D5E0101F3
:103920001B5100010E5A0001000E0F6E010E106EA9
:103930002FEC14F00001E80E176E030E186E33EC36
:1039400015F013C032F314C033F31AC134F31BC1A2
:1039500035F336EC20F0D88412000001D267B3EFC3
:103960001CF0D8941200D26B3CEC26F0D8941200D4
:1039700000016B51E8CF0DF06C51E8CF0EF06F51A4
:103980000D5E70510E5AD8A0D5EF1CF06D51E8CFE6
:103990000FF06E51E8CF10F02FEC14F01450E8CF78
:1039A00073F01550E8CF74F012007151E8CF0FF0AA
:1039B0007251E8CF10F02FEC14F01450E8CF73F0F0
:1039C0001550E8CF74F012006BC00DF06CC00EF013
:1039D0006F510D5E70510E5A6DC00FF06EC010F039
:1039E0002FEC14F01450E8CF73F01550E8CF74F0BA
:1039F00012000001750EBB6F000EBC6F0001750E4A
:103A0000B96F000EBA6F080EE8CFBAF0260EBD6F80
:103A100087EC2AF0040EB0EC09F015C26DF016C266
:103A20006EF017C26FF018C270F019C271F01AC2AE
:103A300072F0B8EC1CF073C00DF074C00EF043C40B
:103A40000BF00B3A09EC29F00DC034F10EC035F142
:103A50000DC075F00EC076F0050EB0EC09F01BC27B
:103A60006DF01CC26EF01DC26FF01EC270F01FC25E
:103A700071F020C272F0B8EC1CF073C00DF074C08D
:103A80000EF044C40BF00B3A09EC29F00DC036F1EE
:103A90000EC037F10DC077F00EC078F0060EB0EC16
:103AA00009F021C26DF022C26EF023C26FF024C271
:103AB00070F025C271F026C272F0B8EC1CF073C031
:103AC0000DF074C00EF045C40BF00B3A09EC29F070
:103AD0000DC038F10EC039F10DC079F00EC07AF08A
:103AE000070EB0EC09F0070EB0EC09F027C26DF03C
:103AF00028C26EF029C26FF02AC270F0E4EC1CF00C
:103B000073C00DF074C00EF046C40BF00B3A09EC14
:103B100029F00DC03AF10EC03BF10DC07BF00EC094
:103B20007CF00DC027F40EC028F4030EB0EC09F0B1
:103B300000010F01C3CFE8FFE8CF8DF0C4CFE8FF4D
:103B4000E8CF8EF0080EB0EC09F02DC26FF02EC257
:103B500070F02BC26DF02CC26EF0E4EC1CF073C060
:103B600085F074C086F0090EB0EC09F031C26FF038
:103B700032C270F02FC26DF030C26EF0E4EC1CF077
:103B800073C087F074C088F00A0EB0EC09F035C23B
:103B90006FF036C270F033C26DF034C26EF0E4ECF8
:103BA0001CF073C089F074C08AF00B0EB0EC09F001
:103BB00039C26FF03AC270F037C26DF038C26EF0A1
:103BC000E4EC1CF073C08BF074C08CF00301B551B1
:103BD000B0EC2BF0D8A0F4EF1DF00001E80E7D6FE3
:103BE000030E7E6FF9EF1DF00001180E7D6FFC0EC5
:103BF0007E6F000EB0EC09F03BC26DF03CC26EF07F
:103C00003DC26FF03EC270F0E4EC1CF073C00DF0EA
:103C100074C00EF047C40BF00B3A09EC29F00DC04C
:103C20007FF00EC080F0010EB0EC09F03FC26DF0E5
:103C300040C26EF041C26FF042C270F0E4EC1CF082
:103C400073C00DF074C00EF048C40BF00B3A09ECD1
:103C500029F00DC081F00EC082F00301B751B0EC25
:103C60002BF0D8A03BEF1EF00001E80E836F030E8F
:103C7000846F55EF1EF00301B951B0EC2BF0D8A0C2
:103C800049EF1EF00001180E836FFC0E846F55EF94
:103C90001EF00301B851B0EC2BF0D8A055EF1EF088
:103CA0000001000E836F000E846F12000001106A85
:103CB0000FBE101E2FEC14F00001640E176E000EE4
:103CC000186E33EC15F013C011F014C012F013C0CD
:103CD0000FF014C010F00EAE73EF1EF00F1E101E8A
:103CE0000F2AD8B0102A2FEC14F000010A0E176E1C
:103CF000000E186E33EC15F00B50E8CF17F0186A71
:103D000017BE181E33EC15F011500D5E12500E5AEE
:103D100013500D2614500E2212000301AE51B0ECC8
:103D20002BF075C00DF076C00EF0D8A0A3EF1EF0FA
:103D300003011B510001E8CF0FF003011751E8CF39
:103D40000BF0ABEF1EF003011A510001E8CF0FF0AA
:103D5000640EE8CF0BF056EC1EF00DC075F00EC0EF
:103D600076F00301AF51B0EC2BF077C00DF078C0C6
:103D70000EF0D8A0C7EF1EF0030126510001E8CFD6
:103D80000FF003012251E8CF0BF0CFEF1EF003013B
:103D900025510001E8CF0FF0640EE8CF0BF056EC90
:103DA0001EF00DC077F00EC078F00301B051B0ECFA
:103DB0002BF079C00DF07AC00EF0D8A0EBEF1EF01A
:103DC000030131510001E8CF0FF003012D51E8CF7D
:103DD0000BF0F3EF1EF0030130510001E8CF0FF0BC
:103DE000640EE8CF0BF056EC1EF00DC079F00EC05B
:103DF0007AF012000301AE51B0EC2BF0D8A019EF0D
:103E00001FF075C00FF076C010F017C30DF018C387
:103E10000EF00E6A0DBE0E1E2FEC14F00001640EA3
:103E2000176E000E186E33EC15F013C075F014C049
:103E300076F00301AF51B0EC2BF0D8A038EF1FF0B3
:103E400077C00FF078C010F022C30DF023C30EF03E
:103E50000E6A0DBE0E1E2FEC14F00001640E176EDC
:103E6000000E186E33EC15F013C077F014C078F024
:103E70000301B051B0EC2BF0D8A057EF1FF079C080
:103E80000FF07AC010F02DC30DF02EC30EF00E6AA5
:103E90000DBE0E1E2FEC14F00001640E176E000E06
:103EA000186E33EC15F013C079F014C07AF01200DC
:103EB00057C1E8FFE81EE8661200E86AE8CF57F14C
:103EC000030E00015F6E030E07EC0CF01200D3C26C
:103ED000E8FFE81EE866BBEF1FF080C50FF081C564
:103EE00010F00201B2519DEC01F00FC00DF010C0B6
:103EF0000EF04BC10FF04CC110F005EC20F0E8685B
:103F0000D8B0E8CF57F10FC04BF110C04CF182C5CB
:103F10000FF083C510F00201B3519DEC01F00FC00A
:103F20000DF010C00EF04DC10FF04EC110F005ECB9
:103F300020F0E868D8B0E8CF57F10FC04DF110C0BD
:103F40004EF184C50FF085C510F00201B4519DEC0F
:103F500001F00FC00DF010C00EF04FC10FF050C1B6
:103F600010F005EC20F0E868D8B0E8CF57F10FC0AA
:103F70004FF110C050F1D7C2E8FFE81EE866DBEF52
:103F80001FF086C50FF087C510F00201B5519DECFA
:103F900001F00FC00DF010C00EF051C10FF052C172
:103FA00010F005EC20F0E868D8B0E8CF57F10FC06A
:103FB00051F110C052F1D8C2E8FFE81EE8661200C5
:103FC0007FC00DF080C00EF053C10FF054C110F04F
:103FD00005EC20F0E868D8B0E8CF57F10FC053F1F6
:103FE00010C054F181C00DF082C00EF055C10FF029
:103FF00056C110F005EC20F0E868D8B0E8CF57F1D2
:104000000FC055F110C056F112000DC011F00EC0D6
:1040100012F000010FC0E8FF115E10C0E8FF125A55
:1040200012AE18EF20F0111E121E112AD8B4122A57
:10403000D89012321132D89012321132D8901232F6
:104040001132D89012321132D8901232113211C07E
:10405000E8FF1212D890D8B412000EC0E8FF101872
:10406000E8360DC00FF00EC010F0120080C50FF042
:1040700081C510F00201B2519DEC01F00301A7517E
:1040800000010F260301A8510001102218C30DF0F2
:1040900019C30EF000010E6AFF0E0DBE0E6E2FEC5E
:1040A00014F00001640E176E186A196A1A6A33EC6C
:1040B00015F000010301195100010D6E0E6A0DBECD
:1040C0000E1E0D360E360D5013260E5014221350B0
:1040D00075271450762382C50FF083C510F00201B6
:1040E000B3519DEC01F00301A95100010F2603011A
:1040F000AA510001102223C30DF024C30EF00001C9
:104100000E6AFF0E0DBE0E6E2FEC14F00001640E51
:10411000176E186A196A1A6A33EC15F00001030168
:10412000245100010D6E0E6A0DBE0E1E0D360E36A8
:104130000D5013260E501422135077271450782355
:1041400084C50FF085C510F00201B4519DEC01F05B
:104150000301AB5100010F260301AC5100011022F5
:104160002EC30DF02FC30EF000010E6AFF0E0DBE20
:104170000E6E2FEC14F00001640E176E186A196AA7
:104180001A6A33EC15F0000103012F5100010D6E86
:104190000E6A0DBE0E1E0D360E360D5013260E5035
:1041A00014221350792714507A2386C50FF087C53F
:1041B00010F00201B5519DEC01F036C30DF037C38C
:1041C0000EF000010E6AFF0E0DBE0E6E2FEC14F005
:1041D0000001640E176E186A196A1A6A33EC15F03A
:1041E0000301010E37630CEF21F00001030E0E6E88
:1041F000186EE80E0D6E176E7B510D5E7C510E5AD7
:10420000196A1A6A13C00FF014C010F02FEC14F0E2
:1042100033EC15F026EF21F0020E376326EF21F084
:1042200000017B510D6E7C510E6E13C00FF014C057
:1042300010F02FEC14F00001030EE8CF18F0E80E98
:10424000E8CF17F0196A1A6A33EC15F00001135021
:104250007B2714507C23120000010E6A08C40DF065
:104260000DBE0E6800010A0E0F6E000E106E2FECD0
:1042700014F0135075271450762300010E6A09C4F8
:104280000DF00DBE0E6800010A0E0F6E000E106ECE
:104290002FEC14F0135077271450782300010E6A86
:1042A0000AC40DF00DBE0E6800010A0E0F6E000E5E
:1042B000106E2FEC14F01350792714507A2300015C
:1042C0000E6A0BC40DF00DBE0E6800010A0E0F6ED3
:1042D000000E106E2FEC14F013507B2714507C232B
:1042E00000010E6A0CC40DF00DBE0E6800010A0E2E
:1042F0000F6E000E106E2FEC14F013507D2714502B
:104300007E2300010E6A0DC40DF00DBE0E68000183
:104310000A0E0F6E000E106E2FEC14F013507F2754
:104320001450802300010E6A0EC40DF00DBE0E68FD
:1043300000010A0E0F6E000E106E2FEC14F01350D9
:1043400081271450822300010E6A0FC40DF00DBEA8
:104350000E6800010A0E0F6E000E106E2FEC14F0A6
:104360001350832714508423120000010A0E0D6E8F
:10437000000E0E6E0301BB51B0EC2BF0D8A006EF7F
:1043800022F003014DAFD3EF21F04CC30FF0106AC0
:104390000FBE10682FEC14F0000113C0E8FF752762
:1043A00014C0E8FF762303014FAFE5EF21F04EC3C1
:1043B0000FF0106A0FBE10682FEC14F0000113C04C
:1043C000E8FF772714C0E8FF7823030151AFF7EF28
:1043D00021F050C30FF0106A0FBE10682FEC14F0DC
:1043E000000113C0E8FF792714C0E8FF7A23030116
:1043F00053AF06EF22F052C30FF0106A0FBE1068E1
:104400002FEC14F013C07BF014C07CF00301BC51FE
:10441000B0EC2BF0D8A052EF22F0030155AF1FEF04
:1044200022F054C30FF0106A0FBE10682FEC14F086
:10443000000113C0E8FF752714C0E8FF76230301CD
:1044400057AF31EF22F056C30FF0106A0FBE10685D
:104450002FEC14F0000113C0E8FF772714C0E8FF29
:104460007823030159AF43EF22F058C30FF0106ACD
:104470000FBE10682FEC14F0000113C0E8FF79277D
:1044800014C0E8FF7A2303015BAF52EF22F05AC356
:104490000FF0106A0FBE10682FEC14F013C07BF001
:1044A00014C07CF000017CAF1200E86A7B6F7C6F67
:1044B000120090C0E8FFC00A32E07DC00DF07EC05F
:1044C0000EF000018FC0E8FF0D5E90C0E8FF0E5AAD
:1044D0000EBE7DEF22F019C4E8FF0D5E1AC4E8FF9E
:1044E0000E5A0EBE8FEF22F0000119C4E8FF8F278D
:1044F0001AC4E8FF902393EF22F019C4E8FF0D26B9
:104500001AC4E8FF0E220EAE8FEF22F0000119C48C
:10451000E8FF8F5F1AC4E8FF905B93EF22F07DC045
:104520008FF07EC090F092C0E8FFC00A32E083C0F6
:104530000DF084C00EF0000191C0E8FF0D5E92C046
:10454000E8FF0E5A0EBEB7EF22F01BC4E8FF0D5E67
:104550001CC4E8FF0E5A0EBEC9EF22F000011BC4B6
:10456000E8FF91271CC4E8FF9223CDEF22F01BC483
:10457000E8FF0D261CC4E8FF0E220EAEC9EF22F0A4
:1045800000011BC4E8FF915F1CC4E8FF925BCDEF04
:1045900022F083C091F084C092F0FDC0E8FFC00A11
:1045A00032E07BC00DF07CC00EF00001FCC0E8FFE3
:1045B0000D5EFDC0E8FF0E5A0EBEF1EF22F03FC4C3
:1045C000E8FF0D5E40C4E8FF0E5A0EBE03EF23F075
:1045D00000013FC4E8FFFC2740C4E8FFFD230CEFC7
:1045E00023F03FC4E8FF0D2640C4E8FF0E220EAEC4
:1045F00003EF23F000013FC4E8FFFC5F40C4E8FF85
:10460000FD5B0CEF23F07BC0FCF07CC0FDF00401EF
:10461000D00E3F6F070E406F12000201B6B31200BA
:104620000201A1B112000301B651B0EC2BF0D8A0E9
:10463000120000016267120002019F510001626FC7
:104640000201010EB6632EEF23F0010E00015F6E32
:10465000050E07EC0CF0280E0001626F75C00DF01E
:1046600076C00EF0D1EC23F0D8A464EF23F0020161
:10467000B6673DEF23F002019E51000176BF4BEF7C
:1046800023F00301192719AF55EF23F0D8A655EFF2
:1046900023F058EF23F00301195F19BF55EF23F002
:1046A000D8A655EF23F05DEF23F019BF5DEF23F09F
:1046B000640E1961196F62EF23F0640EE81EE82A98
:1046C0001965196F3CEC26F077C00DF078C00EF03C
:1046D000D1EC23F0D8A49AEF23F00201B66773EF70
:1046E00023F002019E51000178BF81EF23F0030106
:1046F000242724AF8BEF23F0D8A68BEF23F08EEF87
:1047000023F00301245F24BF8BEF23F0D8A68BEFA7
:1047100023F093EF23F024BF93EF23F0640E246182
:10472000246F98EF23F0640EE81EE82A2465246FB6
:104730003CEC26F079C00DF07AC00EF0D1EC23F0FD
:10474000D8A4D0EF23F00201B667A9EF23F002014D
:104750009E5100017ABFB7EF23F003012F272FAF3F
:10476000C1EF23F0D8A6C1EF23F0C4EF23F003017B
:104770002F5F2FBFC1EF23F0D8A6C1EF23F0C9EF01
:1047800023F02FBFC9EF23F0640E2F612F6FCEEF00
:1047900023F0640EE81EE82A2F652F6F3CEC26F00C
:1047A000120000010EAEDAEF23F00D1E0E1E0D2AD0
:1047B000D8B00E2AD8900E320D320E66E4EF23F0F8
:1047C000640E0D64E9EF23F00001640E0D6E000E1F
:1047D0000E6E0DC0E8FFE8460201E05D0001D894CE
:1047E000D8A0D88412000001C36B000176BF05EF8A
:1047F00024F011C30DF012C30EF075C00FF076C097
:1048000010F02FEC14F00FEF24F015C30DF016C3C9
:104810000EF075C00FF076C010F02FEC14F013C33B
:104820000DF014C30EF0000114500D2615500E2289
:104830000BEC25F00DC03EF00EC03FF0000178BF3C
:104840002EEF24F01CC30DF01DC30EF077C00FF047
:1048500078C010F02FEC14F038EF24F020C30DF0E6
:1048600021C30EF077C00FF078C010F02FEC14F0D9
:104870001EC30DF01FC30EF0000114500D2615507D
:104880000E220BEC25F00DC03CF00EC03DF00001F7
:104890007ABF57EF24F027C30DF028C30EF079C07C
:1048A0000FF07AC010F02FEC14F061EF24F02BC35E
:1048B0000DF02CC30EF079C00FF07AC010F02FEC81
:1048C00014F029C30DF02AC30EF0000114500D2678
:1048D00015500E220BEC25F00DC040F00EC041F03B
:1048E00032C30DF033C30EF0FCC00FF0FDC010F06A
:1048F0002FEC14F034C30DF035C30EF0000114504A
:104900000D2615500E220BEC25F00DC042F00EC006
:1049100043F03AC30DF03BC30EF08FC00FF090C0D0
:1049200010F02FEC14F03CC30DF03DC30EF000016D
:1049300014500D2615500E220BEC25F00DC044F03E
:104940000EC045F03EC30DF03FC30EF07FC00FF028
:1049500080C010F02FEC14F040C30DF041C30EF0F6
:10496000000114500D2615500E220BEC25F00DC041
:1049700046F00EC047F042C30DF043C30EF081C0B5
:104980000FF082C010F02FEC14F044C30DF045C3BB
:104990000EF0000114500D2615500E220BEC25F0E0
:1049A0000DC048F00EC049F091C00DF092C00EF05D
:1049B0000EBEE3EF24F046C30FF047C310F02FEC18
:1049C00014F0E9EF24F04AC30FF04BC310F02FECC2
:1049D00014F048C30DF049C30EF00D5014260E50CC
:1049E000152214C00DF015C00EF00BEC25F00DC013
:1049F0004AF00EC04BF00001D2670AEF25F0030128
:104A0000B151B0EC2BF0D8A00AEF25F038C342F03A
:104A100039C343F012000201AE5100010D5C0201E6
:104A2000AF5100010E58E8AE1BEF25F0AEC20DF0FD
:104A3000AFC20EF012000201B05100010D5C020184
:104A4000B15100010E58E8BE1200B0C20DF0B1C263
:104A50000EF012000001FAA53AEF25F0FA9535A400
:104A60003AEF25F03594010E5F6E050E07EC0CF061
:104A7000D8801200D89012000001000E0D6E020EB8
:104A80000E6E0001000E136E000E146E010E156EF8
:104A9000E86A0A6E87EC0EF0020100510001AB6F6C
:104AA000000EF86E840EF76E640EF66E0900F5CFF8
:104AB000DDF209000900F5CFDEF20900F5CFDFF2E3
:104AC00012000001000E0D6E020E0E6E0001000EAF
:104AD000136E000E146E010E156E040E0A6EBBEC02
:104AE0000EF01200E846E8060B6E0001000E0D6E97
:104AF000030E0E6E0001000E136E000E146E010EFA
:104B0000156E0B501426E86A1522100E0A6E87ECFB
:104B10000EF01200E846E8060B6E0001000E0D6E66
:104B2000080E0E6E0001000E136E000E146E010EC4
:104B3000156E0B501426E86A1522400E0A6E87EC9B
:104B40000EF00001000EBB6F030EBC6F0001000EE3
:104B5000B96F030EBA6F0001080EBA6F100EBD6F69
:104B600087EC2AF00001000E0D6E080E0E6E00019B
:104B7000000E136E000E146E010E156E0B501426EF
:104B8000E86A1522010E0A6EBBEC0EF01200E84630
:104B9000E8060B6E0001000E0D6E030E0E6E000196
:104BA000000E136E000E146E010E156E0B501426BF
:104BB000E86A15220A6E87EC0EF00001000E0D6EF9
:104BC000040E0E6E0001000E136E000E146E010E28
:104BD000156E0B50E82A1426E86A15220A6E87EC37
:104BE0000EF01200E846E8060C6E0001000E0D6E95
:104BF000030E0E6E0001000E136E000E146E010EF9
:104C0000156E0C501426E86A1522040E0A6EBBECD1
:104C10000EF00001000E0D6E040E0E6E0001000E6F
:104C2000136E000E146E010E156E0C50E82A142639
:104C3000E86A1522040E0A6EBBEC0EF012000001A9
:104C4000000EBB6F030EBC6F0001000EB96F060EA5
:104C5000BA6F000EBD6F87EC2AF00001000EBB6F2B
:104C6000040EBC6F0001000EB96F070EBA6F000E84
:104C7000BD6F87EC2AF0120002010051E846E806F9
:104C80000A6E0001000E0D6E030E0E6E0001000E86
:104C9000136E000E146E010E156E0A501426E86A8B
:104CA0001522010E0A6EBBEC0EF0120075C093F0D7
:104CB00076C094F077C095F078C096F079C097F000
:104CC0007AC098F07BC099F07CC09AF0FCC099F053
:104CD000FDC09AF08FC09BF090C09CF07FC09DF00B
:104CE00080C09EF081C09FF082C0A0F091C0A1F072
:104CF00092C0A2F0030EE26E5C0EE16E0C0EE8CFE5
:104D00000AF0E6CFE8FF0F0BD8B4B1EF26F0E718B2
:104D10000F0BD8A4B1EF26F0E7CFE8FFF00B0409A2
:104D2000E76299EF26F07BC099F07CC09AF0B1EF72
:104D300026F0E7CFE8FFF00B0509E762A6EF26F0C3
:104D40008FC09BF090C09CF0B1EF26F0E7CFE8FF5A
:104D5000F00B0809E762B1EF26F091C0A1F092C014
:104D6000A2F0040EE1260A06D8A481EF26F0120074
:104D700056EC26F00301B251B0EC2BF0D8A0D3EFE3
:104D800026F0030EE26E5C0EE16EA4EC29F0610EDB
:104D9000E16EA4EC29F0660EE16EA4EC29F06B0E36
:104DA000E16EA4EC29F056EC26F00301B351B0EC0F
:104DB0002BF0D8A0F4EF26F0030EE26E700EE16E39
:104DC000A4EC29F056EC26F0750EE16EA4EC29F067
:104DD00056EC26F07A0EE16EA4EC29F056EC26F0A3
:104DE0007F0EE16EA4EC29F056EC26F00301B451DD
:104DF000B0EC2BF0D8A00FEF27F0030EE26E840E7C
:104E0000E16EA4EC29F0890EE16EA4EC29F08E0E7F
:104E1000E16EA4EC29F0930EE16EA4EC29F01200EF
:104E200093C00DF094C00EF010C40FF000010EBE40
:104E300011C40FF0106A0FBE10682FEC14F00001BF
:104E4000640E176E000E186E33EC15F0000113C0DF
:104E5000E8FF972714C0E8FF982397C00DF098C08B
:104E60000EF012C40FF000010EBE13C40FF0106A52
:104E70000FBE10682FEC14F00001640E176E000EC8
:104E8000186E33EC15F0000113C0E8FF932714C02F
:104E9000E8FF942397C00DF098C00EF014C40FF0F3
:104EA00000010EBE15C40FF0106A0FBE10682FEC83
:104EB00014F00001640E176E000E186E33EC15F03E
:104EC000000113C0E8FF952714C0E8FF962399C09E
:104ED0000DF09AC00EF016C40FF000010EBE106A5D
:104EE0000FBE10682FEC14F00001640E176E000E58
:104EF000186E33EC15F0000113C0E8FF952714C0BD
:104F0000E8FF962393C075F094C076F095C077F0D3
:104F100096C078F097C079F098C07AF099C0FCF00C
:104F20009AC0FDF0040117A19AEF27F095C07FF019
:104F300096C080F0030198A1B7EF27F095C00DF05F
:104F400096C00EF097C00FF098C010F000010DC091
:104F500077F00EC078F00DC079F00EC07AF00F50E7
:104F6000792710507A230F50775F1050785B030138
:104F700099A1D4EF27F095C00DF096C00EF093C024
:104F80000FF094C010F000010DC077F00EC078F063
:104F90000DC075F00EC076F00F50752710507623B7
:104FA0000F50775F1050785B03019AA174EF28F0DF
:104FB00093C00DF094C00EF00DC075F00EC076F0E9
:104FC0000DC081F00EC082F00001811F821F814B55
:104FD000822B0001640E176E000E186E03019C51A7
:104FE000E812D8B43DEF28F0E8BE1BEF28F06408C3
:104FF00000010F6E106A76BF0CEF28F075C00DF03F
:1050000076C00EF02FEC14F033EC15F013C075F0F1
:1050100014C076F03DEF28F0000181C00DF082C091
:105020000EF02FEC14F033EC15F013C081F014C027
:1050300082F03DEF28F0640F00010F6E106A76AF2A
:1050400030EF28F075C00DF076C00EF02FEC14F0A4
:1050500033EC15F013C075F014C076F03DEF28F076
:10506000000181C00DF082C00EF02FEC14F033EC83
:1050700015F013C081F014C082F00001640E176EA9
:10508000000E186E0301C651E812D8B45AEF28F08A
:105090000301C551B0EC2BF0D8A074EF28F000014B
:1050A000E80E0D6E030E0E6E99510D5E9A510E5A5A
:1050B0005EEF28F09FC00DF0A0C00EF09DC30FF072
:1050C00000010EBE9BC30FF0106A0FBE101E2FEC26
:1050D00014F033EC15F013507527145076230001AB
:1050E000135081271450822312000301A4A112003F
:1050F00056EC26F010EC27F012000301A4B185EF66
:1051000028F056EC26F010EC27F00301A0A1B2EF36
:1051100028F00301C351B0EC2BF0D8A094EF28F095
:105120000301A1519DEF28F00301C451B0EC2BF015
:10513000D8A0B2EF28F00301A25100010D6E0E6A53
:1051400000010A0E0F6E000E106E2FEC14F01350BB
:105150007B5D14507C59E8AEB2EF28F013C07BF0B1
:1051600014C07CF01200040126A112001DC4E8FF47
:10517000E812D8B4120075C00DF076C00EF077C0FA
:105180000FF078C010F07FC075F080C076F07FC05F
:1051900077F080C078F000010DC0E8FF75270EC0E1
:1051A000E8FF76230DC0E8FF7F5F0EC0E8FF805B5D
:1051B0000FC0E8FF772710C0E8FF78231DC4E8FF81
:1051C0000308D8B412000001D89010BED880103265
:1051D0000F3200010FC0E8FF7F5F10C0E8FF805B67
:1051E0000FC0E8FF755F10C0E8FF765B1DC4E8FFE5
:1051F0000108D8B4120000010FC0E8FF7F5F10C0A3
:10520000E8FF805B0FC0E8FF755F10C0E8FF765BCA
:1052100012000BC0E8FFF00BD8B412000DC06BF009
:105220000EC06CF00EAE1AEF29F00D1E0E1E0D2AE8
:10523000D8B00E2A0DC013F00EC014F0640E176E15
:1052400062EC14F000011C6A090E136034EF29F0BF
:105250000BC0E8FFE83AE8060F0BE8CF0BF0E8B622
:1052600052EF29F048EF29F0136E0DC01BF00EC06D
:105270001CF0840E00011B5E030E1C5A0BC0E8FFDD
:10528000E83AE8060F0BE8CF0BF0E8B652EF29F04A
:10529000020EE8CFDAFF0BC0E8FF0B0DF350460F0C
:1052A0005BEF29F0030EE8CFDAFF0BC0E8FFE896CA
:1052B0000B0DF350DA0FE8CFD9FFDFCF0CF013C09E
:1052C000E8FFD926DECF0AF0DFCF0BF000010BC0DC
:1052D0000DF00E6A0BBE0E680AC0E8FF0D5E000EF0
:1052E0000ABEFF0E0E5A1BC00FF01CC010F02FECB0
:1052F00014F000010A0E176E000E186E33EC15F054
:105300000A500A0D0A0E0ABEF45EF3CFE8FF132618
:10531000F4CFE8FF142213C00DF014C00EF000010A
:105320006CAF12000CC0E8FF140D140E0CBEF45E3E
:10533000F3CF0DF0F4CF0EF0000113C0E8FF0D5EC7
:1053400014C0E8FF0E5A1200E650E8CF0BF00F0B26
:10535000D8B412000BC0E8FF80EC02F009EC29F091
:105360000DC011F00EC012F0E6CF0AF0E6CFE8FF54
:105370000001E8CF0DF00E6A0DBE0E1E00010A0EF0
:105380000F6E000E106E2FEC14F011C00DF012C055
:105390000EF013500D5E14500E5A0EBE05EF2AF09B
:1053A000E6CFE8FF00010AACEEEF29F0E8CF13F0FA
:1053B000E9CF14F00DC011F00EC012F0135080ECC4
:1053C00002F00DC013F00EC014F00A0E176E62EC5E
:1053D00014F011C00DF012C00EF013500F6E106AD1
:1053E0000FBE101E2FEC14F00001640E176E000E9D
:1053F000186E196A1A6A33EC15F013C00DF014C058
:105400000EF00A5000EC03F01200E6CFE8FFE6CF02
:10541000E8FF00010AAA23EF2AF0E8CF13F00DC03D
:1054200011F00EC012F0135080EC02F00DC013F01A
:105430000EC014F00A0E176E62EC14F011C00DF0DD
:1054400012C00EF013500F6E106A0FBE101E2FEC1C
:1054500014F00001640E176E000E186E196A1A6AB5
:1054600033EC15F013C00DF014C00EF00A5000EC30
:1054700003F012000001BD0EBB6F030EBC6F0001F4
:10548000120EB96F010EBA6F050EBD6F87EC2AF0D0
:10549000CE0E0B0FE8CFD9FF060EE8CFDAFF060ECF
:1054A000E8CF0CF0DDCFE8FFE812D8B45FEF2AF0C8
:1054B000DFCFE8FFB0EC2BF0D8B06BEF2AF0DDCFF8
:1054C000E8FF0C2E52EF2AF0ABC0E8FF02010063A8
:1054D00074EF2AF01200DECFE8FFDECFE8FF020112
:1054E000006374EF2AF01200E8CF00F2C7EC25F059
:1054F0000001120EBB6F010EBC6F0001BD0EB96F33
:10550000030EBA6F050EBD6F87EC2AF01200000182
:10551000BB51E16EBC51E26E0001B951D96EBA5176
:10552000DA6EE6CFE8FFE8CFDEFF0001BD2F91EF96
:105530002AF012000001C56B0301AE51B0EC2BF054
:105540000001D8B0C5810301AF51B0EC2BF00001D0
:10555000D8B0C5830301B051B0EC2BF00001D8B036
:10556000C5850301B151B0EC2BF00001D8B0C5875F
:105570000301B651B0EC2BF00001D8B0C58903018E
:10558000BB51B0EC2BF00001D8B0C58B0301BC516E
:10559000B0EC2BF00001D8B0C58D1200C00E12EC9B
:1055A00010F00301AE51B0EC2BF00001E86AE88086
:1055B000C515D8A0EAEF2AF0D8A4FBEF2AF0C571F0
:1055C000000EF86E860EF76E220EF66EB5EC10F039
:1055D000ACEF2BF0D8B0FBEF2AF0D8B4FBEF2AF0F9
:1055E000C571000EF86E860EF76E100EF66EB5ECF5
:1055F00010F0ACEF2BF00301AF51B0EC2BF0000139
:10560000E86AE882C515D8A014EF2BF0D8A425EFDE
:105610002BF0C573000EF86E860EF76E460EF66E12
:10562000B5EC10F0ACEF2BF0D8B025EF2BF0D8B4E0
:1056300025EF2BF0C573000EF86E860EF76E340E54
:10564000F66EB5EC10F0ACEF2BF00301B051B0ECFE
:105650002BF00001E86AE884C515D8A03EEF2BF0D6
:10566000D8A44FEF2BF0C575000EF86E860EF76EBE
:105670006A0EF66EB5EC10F0ACEF2BF0D8B04FEF31
:105680002BF0D8B44FEF2BF0C575000EF86E860ED8
:10569000F76E580EF66EB5EC10F0ACEF2BF0030180
:1056A000B151B0EC2BF00001D8A065EF2BF0C5B7DD
:1056B00066EF2BF0C577000EF86E860EF76EB20E11
:1056C000F66EB5EC10F0ACEF2BF0C5970301B651B8
:1056D000B0EC2BF00001D8A07CEF2BF0C5B97DEF2A
:1056E0002BF0C579000EF86E860EF76EA00EF66EE2
:1056F000B5EC10F0ACEF2BF0C5990301BB51B0EC49
:105700002BF00001D8A093EF2BF0C5BB94EF2BF04A
:10571000C57B000EF86E860EF76E7C0EF66EB5EC4D
:1057200010F0ACEF2BF0C59B0301BC51B0EC2BF09B
:105730000001D8A0AAEF2BF0C5BDABEF2BF0C57DC3
:10574000000EF86E860EF76E8E0EF66EB5EC10F04B
:10575000ACEF2BF0C59D1200500EE8CFA9F012005F
:10576000E8AAE8EF2BF0E8A8E8EF2BF00A6E070BA9
:10577000C90FE16E030EE26EE65000010D6E0E6A77
:10578000E8BE0E6800010A0E0F6E000E106E2FECC0
:1057900014F00A50070BE846340FE16E010EE26E7A
:1057A000E6CF0DF0E6CF0EF000010EAEDCEF2BF0F1
:1057B0000D1E0E1E0D4A0E2A0DC0E8FF135E0EC010
:1057C000E8FF1458E836D8700ABE1200D8701200EC
:1057D000D890E8BA1200D880E8B8120000011F6E15
:1057E000206AE8BC2080070BE82AD8802036E82E03
:1057F000F6EF2BF030501FB633502014D8802062C3
:10580000D8901FBED8701200040126A1120068ECC7
:105810002CF0D8A0CBEC2CF004012F51B0EC2BF0E5
:10582000D8A02FEF2CF00401305100010D6E0E6A4C
:1058300000010A0E0F6E000E106E2FEC14F013C054
:105840007BF014C07CF00001FE51D8A439EF2CF09D
:10585000FE6941C43FF442C440F439EF2CF000012A
:10586000FE51D8B439EF2CF0FE6B41C43FF442C472
:1058700040F4040129A143EF2CF000017F1F801F99
:105880007F2BD8B4802B36C30DF000010E6AFF0EBB
:105890000DBE0E6E7FC00FF080C010F02FEC14F024
:1058A0000001640E176E186A196A1A6A33EC15F053
:1058B00013C07FF014C080F0A3EC2CF000010DC0E9
:1058C000E8FF7F270EC0E8FF8023ECEC2CF01200ED
:1058D00039C4E8FFB0EC2BF0D8A079EF2CF03DC430
:1058E000E8FFB0EC2BF0D8A012003EC40BF092EF12
:1058F0002CF033C4E8FFB0EC2BF0D8A08AEF2CF0EA
:1059000037C4E8FFB0EC2BF0D8A0120038C40BF07D
:1059100092EF2CF02DC4E8FFB0EC2BF0D8A01200D1
:105920002EC40BF000010BC00DF00E6A00010A0E30
:105930000F6E000E106E2FEC14F013C07BF014C02D
:105940007CF0D88012002CC40BF033C4E8FFB0EC1C
:105950002BF0D8B036C40BF039C4E8FFB0EC2BF014
:10596000D8B03CC40BF02FC4E8FFB0EC2BF0D8B09B
:1059700032C40BF027C40DF028C40EF009EC29F056
:10598000040129A1CAEF2CF000010D1E0E1E0D2AE4
:10599000D8B40E2A12002BC40BF033C4E8FFB0ECCD
:1059A0002BF0D8B035C40BF039C4E8FFB0EC2BF0C5
:1059B000D8B03BC40BF02FC4E8FFB0EC2BF0D8B04C
:1059C0000B6A7BC00DF07CC00EF009EC29F00DC015
:1059D0007BF00EC07CF0120081C07DF082C07EF0B2
:1059E0000001FB51D8A412002AC40BF033C4E8FF15
:1059F000B0EC2BF0D8B034C40BF039C4E8FFB0ECF5
:105A00002BF0D8B03AC40BF02FC4E8FFB0EC2BF069
:105A1000D8B031C40BF00BC0E8FFCE0FE8CF0DF0CB
:105A200000010E6A0DBE0E680001140E0F6E000E0E
:105A3000106E2FEC14F013C07DF014C07EF0120035
:105A4000D890040126A112000001FB51D8B4120025
:105A5000030EE8CF5FF0020E07EC0CF081C013F0EC
:105A600082C014F00001E80E1326030E1422156AFA
:105A7000140EE8CF17F062EC14F02FC4E8FFB0EC7E
:105A80002BF0D8A048EF2DF013C031F461EF2DF0CA
:105A900039C4E8FFB0EC2BF0D8A053EF2DF013C0C1
:105AA0003AF461EF2DF033C4E8FFB0EC2BF0D8A04E
:105AB0005EEF2DF013C034F461EF2DF013C02AF423
:105AC000D88000C2E8FF0001AB19D880D8A412002A
:105AD00000C2E8FFF2EC25F0D8801200040126A1F4
:105AE0001200CE0E12EC10F02FC4E8FFB0EC2BF039
:105AF000D8B08AEF2DF039C4E8FFB0EC2BF0D8B065
:105B00009CEF2DF033C4E8FFB0EC2BF0D8B093EF4E
:105B10002DF01200000EF86E5B0EF76E4A0EF66E58
:105B2000B5EC10F01200000EF86E5B0EF76E4E0E24
:105B3000F66EB5EC10F01200000EF86E5B0EF76E0C
:105B4000520EF66EB5EC10F01200544800005331BE
:105B5000000053320000E86AE8CF15F00001F40EAF
:105B6000136E010E146E41C417F042C418F033ECEA
:105B700015F013C041F414C042F4E86AE8CF42F4CF
:105B800041C4E8FF120041C4E8FFE866ABEF2DF026
:105B90000401D00E416F070E426F1200040ED56E45
:105BA0001200D59E1200D89087B21200D880D5BEC0
:105BB0001200C9C00DF0CAC00EF000013C0E0F6EFD
:105BC000000E106E40EC14F013C00DF014C00EF077
:105BD0000001240E0F6EF40E106E40EC14F0000164
:105BE000000E176E000E186E000E196E000E1A6E63
:105BF000C7C017F0C8C018F016EC17F0A5C317F00F
:105C0000A6C318F00001186A33EC15F0C00E12ECB0
:105C100010F0000EF86E850EF76E140EF66EB5ECF1
:105C200010F0CB0E12EC10F022EC11F0A5C313F023
:105C3000A6C314F0146AC00E12EC10F01EEC11F0A2
:105C40000001000EC96F000ECA6FD880120000015B
:105C5000020E36621200000133A01200FC6A91EFBE
:105C600005F040EC2EF0D8A01200FC6A61EC25F0A3
:105C700000C2E8FFF2EC25F01FEC26F091EF05F0F2
:105C8000000130B64AEF2EF032A64AEF2EF03296DF
:105C9000D8801200D89012000001860E0E6ED60E2B
:105CA0000D6E93EC2EF094EC10F00001115080EC8E
:105CB00001F012001EC10DF01FC10EF094EC10F0A7
:105CC00012000001F651D8B41200E1CF3EF1E2CF4C
:105CD0003FF1F9EC1CF00001000E756F000E766FBD
:105CE0000001000E776F000E786FFAEC1EF08DEC5D
:105CF0001EF0B5EC21F00DEC23F036EC20F075EC45
:105D000028F0B8EC26F07DEC28F02CEC21F0F3EC38
:105D100023F095EC11F03EC1E1FF3FC1E2FF12001C
:105D20000001F669120027EC2EF00001D36BE16B45
:105D3000F16BF26BC00E12EC10F00DC0F6FF0EC04E
:105D4000F7FFF86A0DC00FF00EC010F0B5EC10F0C0
:105D5000FA0E74EC0DF02AEC33F0D8A4B6EF2EF066
:105D6000110E0D26D8B00E2ABDEF2EF0D8A0CAEF26
:105D70002EF0130E0D26D8B00E2A0DC0F6FF0EC061
:105D8000F7FFF86A0900F5CF0DF00900F5CF0EF026
:105D90009AEF2EF031EC2EF02AEC25F0D8A09AEFF5
:105DA0002EF0150E0D26D8B00E2A0DC0F6FF0EC02F
:105DB000F7FFF86A0900F5CF11F00900F5CF12F0EE
:105DC0000FC00DF010C00EF00900F5CF0FF0090064
:105DD000F5CF10F00900F5CFD4F00900F5CFD5F0DC
:105DE0000001BF6BC06BC1697F0EE8CFC2F012AC7F
:105DF00006EF2FF00900F5CFBFF00900F5CFC0F096
:105E00000900F5CFC1F00900F5CFC2F012A40FEFE1
:105E10002FF00900F5CFF1F00900F5CFF2F012A252
:105E200018EF2FF00900F5CFF3F00900F5CFF4F0EB
:105E300012AE1DEF2FF094EC10F012A622EF2FF00F
:105E4000AAEC10F012A212000001E86AE8CFFBFFF2
