:020000040000FA
:040200006BEF03F0AD
:040208000EEF01F004
:080218002DEF01F0D8CF01F039
:10022000E0CF02F0006EF3CF03F0F4CF04F0F0ACB7
:100230001DEF01F0F0B061EC0CF0A2A023EF01F093
:10024000A1B0F0EC09F003C0F3FF04C0F4FF0050CC
:1002500002C0E0FF01C0D8FF1000D8CF06F0E8CF01
:1002600005F0E0CF07F0F3CF08F0F4CF09F0F0BCD1
:100270003DEF01F0F0B061EC0CF0A2B043EF01F003
:10028000A1B0F0EC09F0A2B04CEF01F0AECFE8FF66
:100290006ECFE8FF52EF01F09EBACCEC10F0A4BA9A
:1002A00037EC11F008C0F3FF09C0F4FF07C0E0FF0E
:0A02B00005C0E8FF06C0D8FF1000EB
:10030000F95000011150F9268FEF31F091EF31F0E3
:100310009EEF31F0B3EF31F0C1EF31F0CFEF31F0BC
:10032000DDEF31F0EBEF31F0FBEF31F009EF32F0C0
:1003300017EF32F019EF32F027EF32F01200E8B881
:100340001200E8BA1200E8BC1200E8BE12000F0B5F
:10035000D8A4B1EF01F00001000E0F6E000E106E78
:100360001200E806030B0A0DF9CFE8FFF350F92657
:1003700085C00FF086C010F0120087C00FF088C053
:1003800010F0120089C00FF08AC010F012008BC06C
:080390000FF08CC010F0120008
:10040000EFCFE8FFE806070B0A0DF9CFE8FFF3503E
:10041000F9263EC050F03FC051F012003CC050F0F1
:100420003DC051F0120040C050F041C051F01200E8
:1004300042C050F043C051F0120044C050F045C0DB
:1004400051F0120046C050F047C051F0120048C0B1
:1004500050F049C051F012004AC050F04BC051F06A
:1004600012000F0B060DF9CFE8FFF350F926BBC2BF
:10047000E8FF1200BCC2E8FF1200BDC2E8FF120094
:10048000BEC2E8FF1200BFC2E8FF1200C0C2E8FF10
:100490001200C1C2E8FF1200C2C2E8FF1200C3C2CC
:1004A000E8FF1200C4C2E8FF1200C5C2E8FF120054
:1004B000C6C2E8FF1200C7C2E8FF1200C8C2E8FFC8
:0E04C0001200C9C2E8FF1200CAC2E8FF120013
:100500000001E806070B0A0DF9CFE8FFF350F926C2
:1005100093510D6E94510E6E120095510D6E9651C1
:100520000E6E120097510D6E98510E6E1200995179
:100530000D6E9A510E6E12009B510D6E9C510E6EF7
:1005400012009D510D6E9E510E6E12009F510D6E48
:10055000A0510E6E1200A1510D6EA2510E6E12002E
:100600000001E8BE33EF03F0E806070B0A0DF9CF4F
:10061000E8FFF350F9260D5075270E50762312008F
:100620000D5077270E50782312000D5079270E5069
:100630007A2312000D507B270E507C2312000D50A0
:100640007D270E507E2312000D507F270E508023F1
:1006500012000D5081270E50822312000D50832767
:100660000E5084231200E806070B0A0DF9CFE8FFAD
:10067000F350F9260D50756F0E50766F12000D5025
:10068000776F0E50786F12000D50796F0E507A6FA1
:1006900012000D507B6F0E507C6F12000D507D6F5D
:1006A0000E507E6F12000D507F6F0E50806F120043
:1006B0000D50816F0E50826F12000D50836F0E50DF
:1006C000846F1200F2AE12000001010EA76FA7673F
:1006D00067EF03F01200A3EC0CF0928802C5E8FF6C
:1006E000E81EE86676EF03F092988098939C819CD0
:1006F00000015D6A5E6A3FEC09F00001566A640E13
:1007000098EC0CF0280EE8CFD4F20001500E386EB1
:10071000C30E396E83CFE8FF0001306E316E326E4A
:10072000E81EF96F84CFE8FF0001336E346E356E3A
:10073000E81EFA6F0F0199908780949693948296A1
:1007400081940001000E176E000E186E0001000E5D
:10075000196E000E1A6E0001000E1B6E000E1C6E4C
:100760000001000E1D6E000E1E6E0001000E136EC5
:10077000000E146E0001000E156E000E166E0001C4
:10078000000EB16F000EB26F0001000EB36F000ECD
:10079000B46F0001000EB56F000EB66F0001000EC1
:1007A000B76F000EB86F0101000E5D6F000E5E6F37
:1007B0000001606B616B626BA76BA86BA96BED6945
:1007C000EF6BF06BFB6BFE6B0201BA6B0101116BFF
:1007D0000001D26B000EF86E780EF76E860EF66E84
:1007E0000900F5CF58F109000900F5CF59F10900CA
:1007F000F5CF5AF1E9EC3BF0020100510001AB6F7B
:10080000040E65EC09F0040E65EC09F00001C3501C
:10081000CB6FC450CC6F050E65EC09F0050E65EC8E
:1008200009F00001C350CD6FC450CE6F10EC0EF034
:10083000FA0E98EC0CF0FA0E98EC0CF0FA0E98EC1C
:100840000CF0FA0E98EC0CF09FEC09F0DFEC2BF0BA
:1008500058EC10F06CEC10F0A8EC53F0F28EF28C27
:10086000D08E0F01D89083B6D880D8B03DEF04F079
:100870000A0E98EC0CF00F01D89083B6D880D8B04F
:1008800053EF04F00F01D89084B2D880D8B04EEF67
:1008900004F00A0E98EC0CF00F01D89084B2D880C6
:1008A000D8A075EF04F065EC23F00201A50EA76354
:1008B00060EF04F0E70EA86360EF04F064EF04F06B
:1008C000E9EC3BF016EC0DF000C2E8FFE0EC23F0A1
:1008D0000301AD510201A56FECEC0BF067EC0BF0DE
:1008E0000101F20E066FA4EC0BF00F01D89084B258
:1008F000D880D8A075EF04F00A0E98EC0CF00F0128
:10090000D89084B2D880D8A075EF04F0809802C542
:10091000E8FFE8668078D2C2E8FFE86695EF04F069
:10092000808802C5E8FFE866807892981E0EE8CFBE
:1009300015F0840EE8CF14F0800EE8CF13F0D4C287
:1009400017F0E86AE8CF18F0AFEC13F0D5C2E8FF73
:1009500000011326E86A142213C038F014C039F0DD
:10096000040E65EC09F0040E65EC09F00001C350BB
:10097000CB6FC450CC6F050E65EC09F0050E65EC2D
:1009800009F00001C350CD6FC450CE6F0F01D89055
:1009900084B4D880D8B0D2EF04F00A0E98EC0CF0F2
:1009A0000F01D89084B4D880D8B0E8EF04F00F01DC
:1009B000D89083B6D880D8B0E3EF04F00A0E98EC54
:1009C0000CF00F01D89083B6D880D8A0E1EF07F0E3
:1009D0000F01D89084B4D880D8B0F4EF04F00A0E98
:1009E00098EC0CF00F01D89084B4D8800101D8B0F5
:1009F0005D690201A0C20AF00201FF0E0AB0A56FF4
:100A0000A56166EF05F00301A6A146EF05F00F0111
:100A100083BE46EF05F0800EB4EC0EF0000EF86ECB
:100A2000790EF76E480EF66E45EC0FF0C00EB4EC82
:100A30000EF0000EF86E780EF76EE80EF66E45ECCE
:100A40000FF00F01D89084B4D880D8B02DEF05F006
:100A50000A0E98EC0CF00F01D89084B4D880D8B06E
:100A600021EF05F00F01D89084B4D880D8A032EFE0
:100A700005F00A0E98EC0CF00F01D89084B4D880E1
:100A8000D8A032EF05F0C80E98EC0CF00201D1B1FD
:100A90004DEF05F0D1A366EF05F0800E0001A36FC6
:100AA0008EEC3AF0D89078EC2EF0D8B05DEF05F0EF
:100AB0000201FF0EA56F66EF05F0ECEC0BF067ECA2
:100AC0000BF0A4EC0BF00A0E98EC0CF00001010EF8
:100AD000366EA3C254F0A4C255F00201A251000127
:100AE0004F6EABEC28F038EC24F0C00EE8CF90F05D
:100AF000E8CF92F0E8CFFDF0FCAE82EF05F00F01F9
:100B000093948194000133B0A2EF05F0010E366298
:100B10001AEF06F00001050EE8CF5FF0070E2BEC90
:100B20000BF0020E366E0001AB51020100639BEF29
:100B300005F01AEF06F0006FE0EC23F038EC24F03B
:100B40001AEF06F0010E366E4CEC28F066EC1BF046
:100B50009EEC1DF0A7EC07F00201A1A1D5EF05F076
:100B60000301B651C1EC29F0D8A0D5EF05F0020180
:100B7000B767CDEF05F0B1C075F0B2C076F0B3C085
:100B800077F0B4C078F0B5C079F0B6C07AF0B7C0ED
:100B90007BF0B8C07CF0D5EF05F0F08CF086A29029
:100BA000E868E8CFF5F0DBEF05F0F09CF086A28076
:100BB000E86AE8CFF5F00201A0B108EF06F098EC82
:100BC0001AF0D8B408EF06F031EC1DF0C4EC1CF0BC
:100BD000ECEC1FF03BEC21F08FEC1DF06DEC1EF007
:100BE00015EC2AF08EEC26F0D1EC24F096EC26F0F1
:100BF000CCEC26F087EC20F063EC1FF0C0EC53F057
:100C00000001EF6780EC12F00001F06780EC12F059
:100C100062EC03F01CEC22F0E0EC11F011EC10F0AF
:100C20000001A86718EF06F00A0EA86F73EC06F033
:100C30007CEF05F0800EB4EC0EF0000EF86E7A0E2C
:100C4000F76E7A0EF66E45EC0FF0C00EB4EC0EF0B7
:100C5000000EF86E780EF76EE80EF66E45EC0FF0AB
:100C60000D0E65EC09F06BC05BF16CC05CF153ECF0
:100C700023F0D8A03EEF06F059EC2CF066EC1BF008
:100C80009EEC1DF031EC1DF0C4EC1CF0ECEC1FF000
:100C90003BEC21F08FEC1DF06DEC1EF015EC2AF012
:100CA0008EEC26F0D1EC24F096EC26F0CCEC26F07D
:100CB00087EC20F063EC1FF01CEC22F011EC10F03C
:100CC0007CEF05F00001100E0B6EC00EB4EC0EF0C0
:100CD000000EE16E030EE26EE650A5EC0EF00B2E58
:100CE0006CEF06F012005DC1E8FFE81EE866F4EF65
:100CF00019F04AC1E8FFE86633EF55F00001840EB1
:100D0000B4EC0EF0200EA5EC0EF00201520EA5BFC1
:100D1000200E0001A5EC0EF00601CE51C1EC29F029
:100D2000410ED8A0200EA5EC0EF00301B251C1EC8B
:100D300029F04D0ED8A02D0EA5EC0EF00301B351F5
:100D4000C1EC29F04D0ED8A02D0EA5EC0EF003013C
:100D5000B451C1EC29F04D0ED8A02D0EA5EC0EF02B
:100D6000200EA5EC0EF0AFEC08F00301B651C1EC7B
:100D700029F0D8A0D8EF06F0A1C2E8FFE81EE86687
:100D8000CFEF06F0800EB4EC0EF0000EF86E790E88
:100D9000F76E1E0EF66E45EC0FF0D8EF06F0800EE3
:100DA000B4EC0EF000C513F001C514F09EEC0FF08A
:100DB0000201B8AFF1EF06F0B86B000EE8CF0DF00E
:100DC000E86AE8CF0EF000C5E8FFD2EC0CF0010EA7
:100DD000E8CF0DF0E86AE8CF0EF001C5E8FFD2ECED
:100DE0000CF0D0EC07F0D8B01DEF07F0FEEC08F0E7
:100DF000D8B01DEF07F0E4EC2BF0D8B01DEF07F0F2
:100E0000DFEC28F00001A951E812D8A41DEF07F08B
:100E10000201A0A119EF07F0C00EB4EC0EF0000E15
:100E2000F86E790EF76E020EF66E45EC0FF01DEFC0
:100E300007F062EC06F07FEC2BF053EC23F0D8A027
:100E400035EF07F031EC2BF0D8B035EF07F00001AB
:100E5000566634EF07F0562ABEC35AF0BFC35BF0A4
:100E6000D06BD16B35EF07F05606000156A068EF46
:100E700007F05B6668EF07F03B0E5C6247EF07F038
:100E8000050E5F6E0A0E2BEC0BF068EF07F01E0EDE
:100E90005C6252EF07F0030E5F6E0A0E2BEC0BF054
:100EA00068EF07F00A0E5C625DEF07F0010E5F6EFF
:100EB0000A0E2BEC0BF068EF07F0060E5C6068EF93
:100EC00007F0010E5F6E0A0E2BEC0BF068EF07F0D7
:100ED0007F0E5C6E5850D46F5950D56F010E56621C
:100EE00091EF07F05A505B10D8B480EF07F05A50DA
:100EF000D46F5B50D56F000E0301BD6391EF07F017
:100F0000020E0301BD5DD8B48DEF07F00001D05192
:100F1000D46FD151D56F91EF07F0E86A0001D46F1B
:100F2000D56F00018B0EB4EC0EF0D551E8CF13F065
:100F3000146A156A166A96EC0FF03A0EA5EC0EF0DC
:100F4000D4C0E8FFE8CF13F096EC0FF012000301D5
:100F5000C051C1EC29F0D8A0CDEF07F00301000E7D
:100F6000C165CAEF07F000017CBFCDEF07F00301B8
:100F7000C15100010D6E0E6A00010A0E0F6E000EC7
:100F8000106EABEC12F07B51135E7C511458D8B04C
:100F9000CDEF07F00001ED6912000001ED6B1200CA
:100FA000D8900001D2AF1200C00EB4EC0EF0000ECB
:100FB000F86E790EF76EB40EF66E45EC0FF0D88031
:100FC00012000F01D89084B4D880D8A0E1EF07F0C8
:100FD0000A0E98EC0CF00F01D89084B4D880D8A0F9
:100FE000E1EF07F00F01D89083B6D880D8A0F2EFD8
:100FF00007F00A0E98EC0CF00F01D89083B6D88059
:10100000D8A0F2EF07F0800EB4EC0EF00F01835081
:1010100055EC0FF00F01845055EC0FF0C00EB4ECFE
:101020000EF00F01865055EC0FF00F01815055EC7A
:101030000FF00F01835082868184E8B08296E8B277
:1010400081948098E8B48088320E98EC0CF00F01FF
:10105000D89084B4D880D8B033EF08F00A0E98EC5A
:101060000CF00F01D89084B4D880D8B003EF08F00A
:101070000F01D89084B4D880D8A038EF08F00A0EB9
:1010800098EC0CF00F01D89084B4D880D8A038EF39
:1010900008F0C00EB4EC0EF0000EF86E780EF76E8D
:1010A000580EF66E45EC0FF000010D6A800EB4ECA0
:1010B0000EF0000EF86E780EF76E8E0EF66E45ECA2
:1010C0000FF0870EB4EC0EF000010D5062EC0FF043
:1010D00065EC09F0F8C0E8FFE86675EF08F0D89015
:1010E000C432C332D890C432C3328C0EB4EC0EF08A
:1010F0000F01C4CFE8FF62EC0FF00F01C3CFE8FF90
:1011000062EC0FF0320E98EC0CF00F01D89084B422
:10111000D880D8B091EF08F00A0E98EC0CF00F01CF
:10112000D89084B4D880D8B056EF08F00F01D8908A
:1011300084B4D880D8A096EF08F00A0E98EC0CF092
:101140000F01D89084B4D880D8A096EF08F00001A1
:101150000D2A0C0E0D6456EF08F003EF08F0800E18
:10116000B4EC0EF0B9C20DF0BAC20EF00E6A000176
:10117000640E0F6E000E106EABEC12F013C011F087
:1011800014C012F08DC00DF08EC00EF013C20FF01F
:1011900014C210F0ABEC12F01450E8CF13F015505D
:1011A000E8CF14F0156A010111B1E7EF08F0000172
:1011B0001150135C12501458E8AEE7EF08F0C90E56
:1011C00000015F6E050E2BEC0BF0010111690001AF
:1011D000C8EC0FF0200EE8CF0AF0300E25640AC0EC
:1011E00025F02550A5EC0EF02650A5EC0EF02E0EA5
:1011F000A5EC0EF02750A5EC0EF012000D0E65ECDC
:1012000009F00D0E65EC09F06BC00DF06CC00EF02E
:10121000A9C20FF0AAC210F0ABEC12F000011450FA
:10122000136E1550146E1650156E166AC8EC0FF03A
:101230000001255026100F0BD890D8B41200C00E14
:10124000B4EC0EF0000EF86E790EF76EA20EF66E8C
:1012500045EC0FF0CB0EB4EC0EF000012550A5ECE0
:101260000EF02650A5EC0EF02E0EA5EC0EF0275039
:10127000A5EC0EF02850A5EC0EF0D8801200E86A1C
:10128000E8CFF8F03F0EF86EFF0EF76EFF0EF66E29
:101290000800F5504A0AFF0ED8B4E8CFF8F0120063
:1012A0000001136A146A156A166A0A6E0B6A0A50FC
:1012B00065EC09F00001C3501326C4501422D8B0C5
:1012C000152A0B2E57EF09F012000A6EA10EC06E00
:1012D000000EC16E0AC0E8FF31EC02F0E8AEC18832
:1012E000E89EE844E844C26E040EE8CF0CF000012A
:1012F000000E6B6F000E6C6FC280000000000000DB
:10130000C282C2B281EF09F00001C3506B27C45002
:101310006C2300010C06F0E1F8C0E8FFE81EE86667
:1013200098EF09F0D8906C336B33D8906C336B33F3
:101330006BC0C3FF6CC0C4FF0AC0E8FF120000010D
:101340004E6A586A596AD4C2E8FFE8CF57F00001E4
:10135000900E546E010E556E0001900E506E010EEF
:10136000516E526A536A100E0001E8CF4FF03A6A8C
:101370003C6A3E6A406A426A446A466A486A4A6A05
:101380004C6A080EE8CF3BF0E8CF3DF0E8CF3FF0E5
:10139000E8CF41F0E8CF43F0E8CF45F0E8CF47F0A1
:1013A000E8CF49F0E8CF4BF0E8CF4DF0979E858E1F
:1013B000000154500F01E8CFBBFF010155500F0150
:1013C000E8CFBCFF0A0E0F01E8CFBAFF0F01A080E3
:1013D0000F019E900F01080EE8CFB1FFB1801200FF
:1013E0000001F5A1857E0201BAAFFAEF09F087701E
:1013F00002EF0AF00001EBB101EF0AF0878002EF83
:101400000AF087900001BBCFE8FF5026BCCFE8FF71
:10141000512250C0E8FFE8CFBBFF51C0E8FFE8CF42
:10142000BCFF0001E86A4E647BEC0AF000014E2A22
:101430004EC0E8FFFE0B4F6031EF0AF04E6A38C035
:10144000E8FFE8CF50F052C0E8FF505E39C0E8FF37
:10145000E8CF51F053C0E8FF515A526A536A78EF0F
:101460000AF04EA046EF0AF054C0E8FFE8CF50F073
:1014700055C0E8FFE8CF51F0BAC2E8FF0001EB81A8
:101480004E6272EF0AF0EB9172EF0AF0120E4E62AA
:101490005EEF0AF052C0E8FFE8CF50F053C0E8FF1B
:1014A000E8CF51F051325032513250325132503235
:1014B000513250320F0E511672EF0AF0040EE8CF7F
:1014C000EAFF000EE8CFE9FF4EC0E8FFE830E89EF3
:1014D000E804E92600EC02F054C0E8FF505E55C075
:1014E000E8FF515A50C0E8FF522651C0E8FF53228E
:1014F0000F01A190120046EC10F050EC10F000012A
:10150000010E36628AEF0AF000018286C3B182962C
:10151000FF0EC36F0301CDBF93EF0AF00001F5A1E9
:10152000859E96EF0AF00001F5A1858E0201BAAF03
:10153000A2EF0AF00301CDBFA1EF0AF08790A2EF5E
:101540000AF087800001572EE9EF0AF0E2EC2BF059
:10155000000156A0D8EF0AF00001FF0EED63D8EFAE
:101560000AF05AC0E8FF5B10D8B4D0EF0AF05A6610
:10157000BDEF0AF03C0E5A6E5B065A065A505C6E7E
:101580000301E86ABD11D8B4D0EF0AF000015A5047
:101590005B10D8B4D0EF0AF0D06BD16BD8EF0AF063
:1015A0000001D02B3C0ED063D8EF0AF0D06BD12BCA
:1015B000D4C2E8FFE8CF57F0582A3C0E5862E9EF52
:1015C0000AF0586A592A0501002BD8B4012B0201F0
:1015D000B8690201A1A1F2EF0AF0530E85EC10F0F8
:1015E0000001AE6B83CFE8FF0001311AD8A4306E42
:1015F000316E30C0E8FF3212E81EF91332C0E8FF46
:10160000F91784CFE8FF0001341AD8A4336E346E82
:1016100033C0E8FF3512E81EFA1335C0E8FFFA17A9
:101620000001606760076167610762676207A7671B
:10163000A707A867A807A967A9075E6621EF0BF0AF
:1016400012005E2E120080785F4E12005DC0E8FF2F
:10165000E8CF5EF01200E8CF5DF0E8CF5EF0D2C2D6
:10166000E8FFE8663AEF0BF0809802C5E8FFE8660D
:1016700080781200808802C5E8FFE8668078120052
:1016800000010ABE47EF0BF0819E48EF0BF0818E00
:10169000828A829A0A460B2E40EF0BF0120002015A
:1016A000AD510A6E080E0B6E40EC0BF00201AC510E
:1016B0000A6E080E0B6E40EC0BF00201AB510A6E85
:1016C000080E0B6E40EC0BF08686869612000BC15E
:1016D00013F00CC114F00DC115F009C117F00AC1C7
:1016E00018F0AFEC13F00201A55101010F03F35004
:1016F00000011326D8B0142AD8B0152A0101006BB6
:10170000016B026B00011350E846E846E880E8925E
:101710001F0B13B6E88E0101006F0001133614365B
:101720001536133614361536133614361536133669
:101730001436153614500101016F000115501F0BAE
:1017400001011009026F120067EC0BF00101085152
:101750000A6E080E0B6E40EC0BF0010107510A6E89
:10176000080E0B6E40EC0BF0010106510A6E080EDC
:101770000B6E40EC0BF086868696010105510A6ED1
:10178000080E0B6E40EC0BF0010104510A6E080EBE
:101790000B6E40EC0BF0010103510A6E080E0B6E4C
:1017A00040EC0BF086868696010102510A6E080E07
:1017B0000B6E40EC0BF0010101510A6E080E0B6E2E
:1017C00040EC0BF0010100510A6E080E0B6E40EC6C
:1017D0000BF08686869612000F01939E949A939C36
:1017E000819C819E829A989686960201010ED16311
:1017F00019EF0CF004C206F105C207F106C208F1A8
:1018000001C203F102C204F103C205F10101700E2D
:101810000B6FC60E0C6F000E0D6F0101140E096FD9
:10182000000E0A6F01010E6B0A0E106F010E0F6F92
:101830001200020ED1633CEF0CF00AC206F10BC29B
:1018400007F10CC208F107C203F108C204F109C292
:1018500005F101016C0E0B6FCF0E0C6F000E0D6FBA
:101860000101140E096F000E0A6F01010E6B080EC4
:10187000106F050E0F6F1200030ED16360EF0CF0B6
:1018800010C206F111C207F112C208F10DC203F134
:101890000EC204F10FC205F101014A0E0B6F190EC1
:1018A0000C6F010E0D6F01010A0E096F000E0A6F19
:1018B00001010B0E0E6F320E106F020E0F6F120031
:1018C000120087B27FEF0CF0D5AE71EF0CF0D6CFDF
:1018D000C7F0D7CFC8F00001C92BD8B4CA2BF090FD
:1018E00012000001C951CA11F090D8A41200E86A90
:1018F000E8CFD7FFE8CFD6FFD58EF0901200F17A6F
:10190000F0AC91EF0CF00301CDA18DEF0CF0F1AA3A
:10191000858EF1BA859E91EF0CF0F1AA859EF1BA01
:10192000858EF09012000000E82E93EF0CF012006C
:101930000A6EFA0E93EC0CF0FA0E93EC0CF00A2EF1
:1019400099EF0CF01200050EE26EE86AE16EE86AAB
:10195000AA6EE86AA96EA69EA69CA680A850E66E0E
:10196000A92AF9E112000EC0E8FFE26E0DC0E8FFFF
:10197000E16EE86AAA6E0DC0E8FFA96EA69EA69C5D
:10198000A680A850E66EA92A0A06F8E112000EC049
:10199000E8FFAA6E0DC0E8FFA96EA69EA69CA680D1
:1019A000A8501200A198A86E0EC0E8FFAA6E0DC044
:1019B000E8FFA96EA69EA69CA684F29E550EA76E71
:1019C000AA0EA76EA682F28EA1A8E4EF0CF0A19851
:1019D00012000FC0E8FFD2EC0CF000010D2AD8B4C1
:1019E0000E2A10C0E8FFD2EC0CF012000EC0E8FF87
:1019F000E26E0DC0E8FFE16EE86AAA6E0DC0E8FF76
:101A0000A96EA198E650A86EA69EA69CA684F29EFA
:101A1000550EA76EAA0EA76EA682F28EA1A80EEF93
:101A20000DF0A198A92A0A06EDE11200800EB4EC8F
:101A30000EF0000EF86E790EF76E5A0EF66E45EC4B
:101A40000FF0FA0E98EC0CF0C00EB4EC0EF0000E95
:101A5000F86E780EF76ED60EF66E45EC0FF0C1EC10
:101A60002EF0D8A059EF0DF0C00EB4EC0EF0000E21
:101A7000F86E790EF76E6C0EF66E45EC0FF0E9EC31
:101A80003BF07AEC23F00001600EA46F00C2E8FF87
:101A90000BEC24F00201002B0301072B3A0E076325
:101AA00055EF0DF0062B300E076F0001A42F46EF07
:101AB0000DF065EC23F000C2E8FFE0EC23F012002B
:101AC00000011550F86E1450F76E1350F66E0001B9
:101AD0000E50E26E0D50E16E0900F550E66E0A06FA
:101AE0000900F550E66E0A2E6CEF0DF012000001B1
:101AF0001550F86E1450F76E1350F66EA68EA69C15
:101B0000A684A688F29E550EA76EAA0EA76EA68280
:101B10000000F28E0001400E1326000E1422152242
:101B20000A2E77EF0DF0120062EC03F00001155061
:101B3000F86E1450F76E1350F66EA68EA69CA6840F
:101B4000A688F29E550EA76EAA0EA76EA682F28EEA
:101B50000A0000010E50E26E0D50E16E400E0B6E59
:101B6000E6CFE8FFF56E0F000B2EFAD7A68EA69CE7
:101B7000A684F29E550EA76EAA0EA76EA682F28EBE
:101B8000A6940001400E1326000E14221522000117
:101B9000400E0D26000E0E220A2E94EF0DF01200BC
:101BA00000011550F86E1450F76E1350F66EA68EA5
:101BB000A69CA684A688F29E550EA76EAA0EA76EB6
:101BC000A6820000F28E0A00080E0B6E00010E5075
:101BD000E26E0D50E16E080E0C6EE6CFE8FFF56E7A
:101BE0000F000C2EFAD7A68EA69CA684F29E550E48
:101BF000A76EAA0EA76EA6820000F28E0B2EEBD760
:101C0000A6940001400E1326000E14221522000196
:101C1000400E0D26000E0E220A2ED0EF0DF01200FF
:101C20000F019A6A886A9396939A93988186818A1B
:101C30008188140E98EC0CF003C5E8FFE81EE866F6
:101C400061EF0EF0390EB4EC0EF0050E98EC0CF0CE
:101C5000390EB4EC0EF0010E98EC0CF0390EB4EC29
:101C60000EF0010E98EC0CF0390EB4EC0EF01C0ED8
:101C7000B4EC0EF0520EB4EC0EF0690EB4EC0EF0B3
:101C8000740EB4EC0EF00C0EB4EC0EF0010EB4ECCD
:101C90000EF0060EB4EC0EF0380EB4EC0EF0400E62
:101CA000B4EC0EF0400EE8CF0AF0000EF86E1E0EF7
:101CB000F76E000EF66E0AC0E8FF48EC0FF092EFE8
:101CC0000EF0380EB4EC0EF0050E98EC0CF0380E59
:101CD000B4EC0EF0010E98EC0CF0380EB4EC0EF0F3
:101CE000010E98EC0CF0380EB4EC0EF0060EB4ECCD
:101CF0000EF00C0EB4EC0EF0010EB4EC0EF0800EF3
:101D0000B4EC0EF0400EB4EC0EF0400EE8CF0AF04A
:101D1000000EF86E1E0EF76E000EF66E0AC0E8FF9B
:101D200048EC0FF0800EB4EC0EF0780EF76E6A0EF1
:101D3000F66E45EC0FF0C00EB4EC0EF0780EF76EB8
:101D40007C0EF66E45EC0FF01200C3EC0EF0E6ECE4
:101D50000EF0818A8198000000008186000000005A
:101D60008196000000001200C3EC0EF0E6EC0EF0CD
:101D7000819A819800000000818600000000819611
:101D8000000000001200CAEC0EF0D8B0C3EF0EF055
:101D90009A6A12009A688188819A00000000818600
:101DA00000000000D890E8CF41F102C5E8FFE866E6
:101DB000E0EF0EF088BED880819641C1E8FF1200A6
:101DC00088B0D880819641C1E8FF1200886E02C5B4
:101DD000E8FFE81EE866120088CFE8FF886AE8B0EE
:101DE0008888E8B2888AE8B4888CE8B6888EE8B833
:101DF0008886E8BA8884E8BC8882E8BE88801200B9
:101E00001010101010101010181818181818181892
:101E10001C1C1C1C1C1C1C1C1E1E1E1E1E1E1E1EF2
:101E20000101010101010101030303030303030392
:101E300007070707070707070F0F0F0F0F0F0F0FF2
:101E40001F1F1F1F1F1F1F1F800EB4EC0EF00DC0A1
:101E5000F6FF0EC0F7FFF86A45EC0FF01200C00E57
:101E6000B4EC0EF00DC0F6FF0EC0F7FFF86A45ECBB
:101E70000FF01200C00EB4EC0EF0D4C0F6FFD5C0C7
:101E8000F7FFF86A45EC0FF01200100E48EF0FF064
:101E90000A6E0900F5CFE8FFE812D8B41200A5ECED
:101EA0000EF00A4E120049EF0FF00A6E080E0B6E8C
:101EB000300E0ABE310EA5EC0EF00A360B2E58EF8E
:101EC0000FF012000A6E3A0E0B6E0AC0E8FFF00B1C
:101ED000E842E842E842E84230090B64070FA5EC0B
:101EE0000EF00AC0E8FF0F0B30090B64070FA5ECDA
:101EF0000EF00AC0E8FF1200C8EC0FF02550A5EC68
:101F00000EF02650A5EC0EF02750A5EC0EF0285050
:101F1000A5EC0EF02950A5EC0EF01200C8EC0FF065
:101F200081EF0FF0C8EC0FF084EF0FF0C8EC0FF06A
:101F300087EF0FF0C8EC0FF08AEF0FF0C8EC0FF04E
:101F4000B2EC0FF02550A5EC0EF02650A5EC0EF0EB
:101F50002750A5EC0EF02850A5EC0EF02950A5EC6A
:101F60000EF012000001300E25621200200E256EC8
:101F7000300E26621200200E266E300E27621200EE
:101F8000200E276E300E28621200200E286E1200DE
:101F90000001196A1A6A100E176E270E186EAFEC40
:101FA00013F0300E1310256E1BC013F01CC014F07C
:101FB0001DC015F01EC016F0196A1A6AE80E176ED9
:101FC000030E186EAFEC13F0300E1310266E1BC00C
:101FD00013F01CC014F01DC015F01EC016F0196AD5
:101FE0001A6A640E176E000E186EAFEC13F0300E06
:101FF0001310276E1BC013F01CC014F01DC015F089
:102000001EC016F0196A1A6A0A0E176E000E186EB4
:10201000AFEC13F0300E1310286E300E1B10296E2B
:1020200012000001310E37621AEF10F065EC23F058
:1020300044EF10F0320E376224EF10F000C2E8FFD8
:10204000E0EC23F044EF10F0330E37622CEF10F089
:102050007AEC23F044EF10F0340E376234EF10F0D6
:1020600000C2E8FF0BEC24F0350E376244EF10F0AD
:102070000001FF0E0D6E030E0E6EE8CF0EF0FF0E88
:10208000D2EC0CF044EF10F0376A12000F01ABA253
:102090001200AB98AB880F01AE500001636B1200C9
:1020A0000F016BA212006B986B880F016E5012002B
:1020B0000C0EE8CFAFFF220EE8CFACFF900EE8CFBA
:1020C000ABFF0001636B9F9A9D8A1200ACA266EF82
:1020D00010F0E8CFADFF12000C0EE8CF6FFFD6C2B4
:1020E000E8FFE86677EF10F0030EE8CF6FFF7C960D
:1020F000260EE8CF6CFF900EE8CF6BFFA59AA38A5F
:1021000012006CA281EF10F012006CA285EF10F0AB
:10211000E8CF6DFF1200E1CF21F0E2CF22F0000105
:1021200067C0E1FF000166C0E2FF6A6BACA296EFF8
:1021300010F0E6CFE8FF00016A27E8CFADFF00010D
:10214000682F96EF10F021C0E1FF22C0E2FF1200DD
:10215000E1CF21F0E2CF22F0000167C0E1FF0001F2
:1021600066C0E2FF6A6B0001050E606FE86A606599
:10217000C7EF10F09EAAB7EF10F0AECFE8FFE8CFA0
:10218000E6FF00016A270001682FB3EF10F021C0BD
:10219000E1FF22C0E2FF12009EAA12000001000E21
:1021A0006363DFEF10F0AECFE8FFE8CF64F0550EC9
:1021B00064631200280EE8CF61F0632B1200010E59
:1021C0006363E9EF10F0AECFE8FFE8CF65F0632B73
:1021D0001200020E6363F3EF10F0AECFE8FFE8CF1A
:1021E00066F0632B1200030E6363FDEF10F0AECFB9
:1021F000E8FFE8CF67F0632B1200040E636306EF7D
:1022000011F0AECFE8FFE8CF68F0632B050E6363F3
:1022100012EF11F0010E656310EF11F0A8EC10F051
:10222000632B1200060E636335EF11F0AECFE8FFAB
:10223000E8CF69F0020E656326EF11F08BEC10F029
:102240006AC0E8FF66EC10F0636B12006AC0E8FF3A
:10225000696330EF11F00C0E66EC10F0636B120046
:102260000D0E66EC10F0636B1200636B1200A4AAF3
:1022700012006ECFE8FF0201A1B17AEF11F0530A0C
:10228000D8A412000201A0A1120000010F0E7615C1
:10229000100985EC10F075C0E8FF85EC10F081ECBA
:1022A00010F0050E93EC0CF000010F0E78152009CC
:1022B00085EC10F0775185EC10F081EC10F0050EF4
:1022C00093EC0CF000010F0E7A15300985EC10F03C
:1022D000795185EC10F081EC10F0050E93EC0CF0C8
:1022E00000010F0E7C15400985EC10F07B5185EC48
:1022F00010F012000001AEB181EF11F0B06FAE2B03
:102300001200AF6FAE2B020EAE639AEF11F0B05118
:10231000F00B100AD8A4DFEF11F00F0EB017B0A722
:1023200094EF11F0F00EB013AFC0B1F0B0C0B2F046
:10233000DFEF11F0040EAE63B1EF11F0B051F00B0E
:10234000200AD8A4DFEF11F00F0EB017B0A7ABEF43
:1023500011F0F00EB013AFC0B3F0B0C0B4F0DFEFC7
:1023600011F0060EAE63C8EF11F0B051F00B300A59
:10237000D8A4DFEF11F00F0EB017B0A7C2EF11F025
:10238000F00EB013AFC0B5F0B0C0B6F0DFEF11F093
:10239000080EAE63DFEF11F0B051F00B400AD8A485
:1023A000DFEF11F00F0EB017B0A7D9EF11F0F00E5C
:1023B000B013AFC0B7F0B0C0B8F0DFEF11F012004B
:1023C000D6C2E8FFE81EE8661200AA0E85EC10F0FF
:1023D000AA0E85EC10F00A6A0B6A040EE26E000E7B
:1023E000E16E0AC0E8FFE3CF0DF0000EE26E3A0E98
:1023F000E16E0DC0E8FFE806D890E836E3CF0DF0B7
:10240000E82AE3CF0EF000010E3AF00E0E160AC0D5
:10241000E8FFE82A0E120E3A0BC0E8FF0D240E2446
:10242000E8CF0BF00DC0E8FF85EC10F00EC0E8FF20
:1024300085EC10F00A2A080E0A6026EF12F0A2C2FC
:10244000E8FFD890E8320A64EDEF11F00BC0E8FF26
:1024500085EC10F0ED0E85EC10F0ED0E85EC10F033
:1024600012000001EF673FEF12F07E960C0E0F0195
:10247000AF6E220EAC6E900EE8CFABFF12007C96D2
:102480000C0E0F016F6E220E6C6E900EE8CF6BFF7C
:1024900012000001E80E0D26030E0E220EAE56EFBE
:1024A00012F0E86AE8CF0DF0E8CF0EF0780E0D5C80
:1024B000070E0E58D8A060EF12F0EF0E67EF12F083
:1024C0000E320D320E320D320E320D320D50000131
:1024D000EF6785EF10F066EF10F000010EAE76EFBB
:1024E00012F0E86AE8CF0DF0E8CF0EF0BC0E0D5CFC
:1024F000030E0E58D8A062EF12F0EF0E67EF12F045
:10250000F00E67EC12F0800E67EC12F075C00DF063
:1025100076C00EF049EC12F077C00DF078C00EF0E6
:1025200049EC12F079C00DF07AC00EF049EC12F0CF
:102530007BC00DF07CC00EF06DEC12F07DC00DF094
:102540007EC00EF049EC12F07FC00DF080C00EF09E
:1025500049EC12F01200BCEC12F010AEB4EF12F025
:102560000D50155E0E50165A0EAEBBEF12F00F5006
:10257000155E1050165A12000001136A146A156A8B
:10258000166A0F500D02F3CF13F0F4CF14F00F5072
:102590000E02F3501426F4501522D8B0162A10500B
:1025A0000D02F3501426F4501522D8B0162A1050FC
:1025B0000E02F3501526F450162212000001246A70
:1025C0001B6A14501310D8B4000C14501718E8BE2E
:1025D000241EAA6B000E17AEF0EF12F0171E172A7A
:1025E00014AEF7EF12F0131E141E132A1422145007
:1025F0001710E8BE83EF13F017501B5E1436143427
:102600001B3617501B26143614341B36175014B0C3
:102610001B5E14A01B26143614341B36175014B03E
:102620001B5E14A01B26143614341B36175014B02E
:102630001B5E14A01B26143614341B36175014B01E
:102640001B5E14A01B26143614341B36175014B00E
:102650001B5E14A01B26143614341B36175014B0FE
:102660001B5E14A01B26143613341B36175014B0EF
:102670001B5E14A01B26133613341B36175013B0E1
:102680001B5E13A01B26133613341B36175013B0D2
:102690001B5E13A01B26133613341B36175013B0C2
:1026A0001B5E13A01B26133613341B36175013B0B2
:1026B0001B5E13A01B26133613341B36175013B0A2
:1026C0001B5E13A01B26133613341B36175013B092
:1026D0001B5E13A01B26133613341B36175013B082
:1026E0001B5E13A01B26133613A01B26AAB1A1EF55
:1026F00013F024AE000C131E141EE86A132A1422D1
:102700001B1E1B2A000C17AE9CEF13F014BE98EF93
:1027100013F0E8CFA3F01350E8CF1BF01B9E133645
:1027200014361450E8CF13F0A351146A79EF13F064
:10273000136A132A146A000C141E131EAA2BFCEF32
:1027400012F01B2A17501B6279EF13F01B6A000E60
:10275000132A142214AE79EF13F02388FF0C000122
:10276000246A1C6A1B6A155014101310D8B4000C8C
:1027700015501818E8BE241EAA6B000E18AEC5EF3F
:1027800013F0171E181E172A182215AECEEF13F0DD
:10279000131E141E151E132A14221522155018106C
:1027A000E8BE58EF15F017501B5E18501C5A15362E
:1027B00015341B361C3617501B2618501C22153694
:1027C00015341B361C36175015A0ECEF13F01B5EAA
:1027D00018501C5AEFEF13F01B2618501C22153608
:1027E00015341B361C36175015A0FCEF13F01B5E7A
:1027F00018501C5AFFEF13F01B2618501C221536D8
:1028000015341B361C36175015A00CEF14F01B5E48
:1028100018501C5A0FEF14F01B2618501C221536A6
:1028200015341B361C36175015A01CEF14F01B5E18
:1028300018501C5A1FEF14F01B2618501C22153676
:1028400015341B361C36175015A02CEF14F01B5EE8
:1028500018501C5A2FEF14F01B2618501C22153646
:1028600015341B361C36175015A03CEF14F01B5EB8
:1028700018501C5A3FEF14F01B2618501C22153616
:1028800014341B361C36175015A04CEF14F01B5E89
:1028900018501C5A4FEF14F01B2618501C221436E7
:1028A00014341B361C36175014A05CEF14F01B5E5A
:1028B00018501C5A5FEF14F01B2618501C221436B7
:1028C00014341B361C36175014A06CEF14F01B5E2A
:1028D00018501C5A6FEF14F01B2618501C22143687
:1028E00014341B361C36175014A07CEF14F01B5EFA
:1028F00018501C5A7FEF14F01B2618501C22143657
:1029000014341B361C36175014A08CEF14F01B5EC9
:1029100018501C5A8FEF14F01B2618501C22143626
:1029200014341B361C36175014A09CEF14F01B5E99
:1029300018501C5A9FEF14F01B2618501C221436F6
:1029400014341B361C36175014A0ACEF14F01B5E69
:1029500018501C5AAFEF14F01B2618501C221436C6
:1029600014341B361C36175014A0BCEF14F01B5E39
:1029700018501C5ABFEF14F01B2618501C22143696
:1029800013341B361C36175014A0CCEF14F01B5E0A
:1029900018501C5ACFEF14F01B2618501C22133667
:1029A00013341B361C36175013A0DCEF14F01B5EDB
:1029B00018501C5ADFEF14F01B2618501C22133637
:1029C00013341B361C36175013A0ECEF14F01B5EAB
:1029D00018501C5AEFEF14F01B2618501C22133607
:1029E00013341B361C36175013A0FCEF14F01B5E7B
:1029F00018501C5AFFEF14F01B2618501C221336D7
:102A000013341B361C36175013A00CEF15F01B5E49
:102A100018501C5A0FEF15F01B2618501C221336A5
:102A200013341B361C36175013A01CEF15F01B5E19
:102A300018501C5A1FEF15F01B2618501C22133675
:102A400013341B361C36175013A02CEF15F01B5EE9
:102A500018501C5A2FEF15F01B2618501C22133645
:102A600013341B361C36175013A03CEF15F01B5EB9
:102A700018501C5A3FEF15F01B2618501C22133615
:102A800013B047EF15F017501B2618501C22AAB19F
:102A90007CEF15F024AE000C131E141E151E000E44
:102AA000132A142215221B1E1C1E1B2A1C22000C7A
:102AB00018AE76EF15F015BE71EF15F0E8CFA3F064
:102AC0001450E8CF1CF01350E8CF1BF01C9E1436B6
:102AD00015361550E8CF13F0A351156A146A4AEF62
:102AE00015F0136A132A146A156A000C151E141EB9
:102AF000131EAA2BD3EF13F01B2AE86A1C221750CF
:102B00001B624AEF15F018501C624AEF15F01C6A60
:102B10001B6A000E132A1422152215AE4AEF15F077
:102B20002388FF0C00011E6A1D6A1C6A1B6A16348A
:102B30001B361C361D361E3617501B5E18501C5A8D
:102B400019501D5A1A501E5AAA6BAA5B1636163413
:102B50001B361C361D361E36AA37175016A0BCEF82
:102B600015F01B5E18501C5A19501D5A1A501E5A47
:102B7000E86AAA5BC5EF15F01B2618501C221950F5
:102B80001D221A501E22E86AAA23163616341B3656
:102B90001C361D361E36AA37175016A0DBEF15F06F
:102BA0001B5E18501C5A19501D5A1A501E5AE86ABA
:102BB000AA5BE4EF15F01B2618501C2219501D22A9
:102BC0001A501E22E86AAA23163616341B361C3603
:102BD0001D361E36AA37175016A0FAEF15F01B5EE9
:102BE00018501C5A19501D5A1A501E5AE86AAA5BEE
:102BF00003EF16F01B2618501C2219501D221A50E4
:102C00001E22E86AAA23163616341B361C361D36D9
:102C10001E36AA37175016A019EF16F01B5E185073
:102C20001C5A19501D5A1A501E5AE86AAA5B22EF04
:102C300016F01B2618501C2219501D221A501E2255
:102C4000E86AAA23163616341B361C361D361E3685
:102C5000AA37175016A038EF16F01B5E18501C5AF2
:102C600019501D5A1A501E5AE86AAA5B41EF16F015
:102C70001B2618501C2219501D221A501E22E86AC9
:102C8000AA23163616341B361C361D361E36AA37B6
:102C9000175016A057EF16F01B5E18501C5A19500B
:102CA0001D5A1A501E5AE86AAA5B60EF16F01B26DE
:102CB00018501C2219501D221A501E22E86AAA23FD
:102CC000163616341B361C361D361E36AA371750DC
:102CD00016A076EF16F01B5E18501C5A19501D5A9C
:102CE0001A501E5AE86AAA5B7FEF16F01B2618508E
:102CF0001C2219501D221A501E22E86AAA231636D9
:102D000015341B361C361D361E36AA37175016A032
:102D100095EF16F01B5E18501C5A19501D5A1A5088
:102D20001E5AE86AAA5B9EEF16F01B2618501C225A
:102D300019501D221A501E22E86AAA23153615348E
:102D40001B361C361D361E36AA37175015A0B4EF99
:102D500016F01B5E18501C5A19501D5A1A501E5A54
:102D6000E86AAA5BBDEF16F01B2618501C2219500A
:102D70001D221A501E22E86AAA23153615341B3666
:102D80001C361D361E36AA37175015A0D3EF16F085
:102D90001B5E18501C5A19501D5A1A501E5AE86AC8
:102DA000AA5BDCEF16F01B2618501C2219501D22BE
:102DB0001A501E22E86AAA23153615341B361C3613
:102DC0001D361E36AA37175015A0F2EF16F01B5EFF
:102DD00018501C5A19501D5A1A501E5AE86AAA5BFC
:102DE000FBEF16F01B2618501C2219501D221A50FA
:102DF0001E22E86AAA23153615341B361C361D36EA
:102E00001E36AA37175015A011EF17F01B5E185089
:102E10001C5A19501D5A1A501E5AE86AAA5B1AEF1A
:102E200017F01B2618501C2219501D221A501E2262
:102E3000E86AAA23153615341B361C361D361E3695
:102E4000AA37175015A030EF17F01B5E18501C5A08
:102E500019501D5A1A501E5AE86AAA5B39EF17F02A
:102E60001B2618501C2219501D221A501E22E86AD7
:102E7000AA23153615341B361C361D361E36AA37C6
:102E8000175015A04FEF17F01B5E18501C5A195021
:102E90001D5A1A501E5AE86AAA5B58EF17F01B26F3
:102EA00018501C2219501D221A501E22E86AAA230B
:102EB000153615341B361C361D361E36AA371750EC
:102EC00015A06EEF17F01B5E18501C5A19501D5AB2
:102ED0001A501E5AE86AAA5B77EF17F01B261850A3
:102EE0001C2219501D221A501E22E86AAA231536E8
:102EF00014341B361C361D361E36AA37175015A043
:102F00008DEF17F01B5E18501C5A19501D5A1A509D
:102F10001E5AE86AAA5B96EF17F01B2618501C226F
:102F200019501D221A501E22E86AAA23143614349E
:102F30001B361C361D361E36AA37175014A0ACEFB0
:102F400017F01B5E18501C5A19501D5A1A501E5A61
:102F5000E86AAA5BB5EF17F01B2618501C2219501F
:102F60001D221A501E22E86AAA23143614341B3676
:102F70001C361D361E36AA37175014A0CBEF17F09B
:102F80001B5E18501C5A19501D5A1A501E5AE86AD6
:102F9000AA5BD4EF17F01B2618501C2219501D22D3
:102FA0001A501E22E86AAA23143614341B361C3623
:102FB0001D361E36AA37175014A0EAEF17F01B5E15
:102FC00018501C5A19501D5A1A501E5AE86AAA5B0A
:102FD000F3EF17F01B2618501C2219501D221A500F
:102FE0001E22E86AAA23143614341B361C361D36FA
:102FF0001E36AA37175014A009EF18F01B5E1850A0
:103000001C5A19501D5A1A501E5AE86AAA5B12EF30
:1030100018F01B2618501C2219501D221A501E226F
:10302000E86AAA23143614341B361C361D361E36A5
:10303000AA37175014A028EF18F01B5E18501C5A1E
:1030400019501D5A1A501E5AE86AAA5B31EF18F03F
:103050001B2618501C2219501D221A501E22E86AE5
:10306000AA23143614341B361C361D361E36AA37D6
:10307000175014A047EF18F01B5E18501C5A195037
:103080001D5A1A501E5AE86AAA5B50EF18F01B2608
:1030900018501C2219501D221A501E22E86AAA2319
:1030A000143614341B361C361D361E36AA371750FC
:1030B00014A066EF18F01B5E18501C5A19501D5AC8
:1030C0001A501E5AE86AAA5B6FEF18F01B261850B8
:1030D0001C2219501D221A501E22E86AAA231436F7
:1030E00013341B361C361D361E36AA37175014A053
:1030F00085EF18F01B5E18501C5A19501D5A1A50B3
:103100001E5AE86AAA5B8EEF18F01B2618501C2284
:1031100019501D221A501E22E86AAA2313361334AE
:103120001B361C361D361E36AA37175013A0A4EFC7
:1031300018F01B5E18501C5A19501D5A1A501E5A6E
:10314000E86AAA5BADEF18F01B2618501C22195034
:103150001D221A501E22E86AAA23133613341B3686
:103160001C361D361E36AA37175013A0C3EF18F0B1
:103170001B5E18501C5A19501D5A1A501E5AE86AE4
:10318000AA5BCCEF18F01B2618501C2219501D22E8
:103190001A501E22E86AAA23133613341B361C3633
:1031A0001D361E36AA37175013A0E2EF18F01B5E2B
:1031B00018501C5A19501D5A1A501E5AE86AAA5B18
:1031C000EBEF18F01B2618501C2219501D221A5024
:1031D0001E22E86AAA23133613341B361C361D360A
:1031E0001E36AA37175013A001EF19F01B5E1850B6
:1031F0001C5A19501D5A1A501E5AE86AAA5B0AEF47
:1032000019F01B2618501C2219501D221A501E227C
:10321000E86AAA23133613341B361C361D361E36B5
:10322000AA37175013A020EF19F01B5E18501C5A34
:1032300019501D5A1A501E5AE86AAA5B29EF19F054
:103240001B2618501C2219501D221A501E22E86AF3
:10325000AA23133613341B361C361D361E36AA37E6
:10326000175013A03FEF19F01B5E18501C5A19504D
:103270001D5A1A501E5AE86AAA5B48EF19F01B261D
:1032800018501C2219501D221A501E22E86AAA2327
:10329000133613341B361C361D361E36AA3717500C
:1032A00013A05EEF19F01B5E18501C5A19501D5ADE
:1032B0001A501E5AE86AAA5B67EF19F01B261850CD
:1032C0001C2219501D221A501E22E86AAA23133606
:1032D00013B073EF19F017501B2618501C22195009
:1032E0001D221A501E22000C4C20202041696C65C2
:1032F000726F6E202020205255202020456C65766C
:1033000061746F72202020444C202020205275646C
:1033100064657220202020524C2020205468726F57
:1033200074746C65202020484120202020204348D0
:1033300020352020202020425520202020204348D6
:1033400020362020202020445520202020204348C3
:1033500020372020202020444320202020204348C4
:103360002038202020202041456C657661746F72E2
:10337000202020202020202041696C65726F6E2063
:103380002020202020202020527564646572202097
:1033900020202020202020205468726F74746C65D7
:1033A00020202020202020204348352020202020BD
:1033B00020202020202020204348362020202020AC
:1033C000202020202020202043483720202020209B
:1033D000202020202020202043483820202020208A
:1033E00020202020202020200001E80E0D6E320E2B
:1033F0000E6E5EC1E8FFE83A00010D26D8B00E2A35
:1034000024EC0FF02FEC1AF0D8B027EF1AF00F01D0
:10341000750EE16E000EE26E5EC1E8FF070BE84636
:10342000E126D8B0E22AE650E8CF0DF0E650E8CF2A
:103430000EF0E1CFE8FF7D0AD8A423EF1AF037ECB5
:1034400056F027EF1AF059EC55F0BEEC55F053EC5E
:1034500023F00101D8B05E2B0F0E5E171200D8903A
:103460005EC1E8FFE8A612000F013C0EE16E000EFF
:10347000E26E5EC1E8FF070BE846E126D8B0E22A1B
:10348000E650E8CF13F0E550E8CF14F0890EB4EC25
:103490000EF07AEC1AF0E650E8CF0DF0E550E8CFE8
:1034A0000EF055EC1AF0D88012000001AEC2E8FF11
:1034B0000D5EAFC2E8FF0E5A0001E80E0F6E030E5C
:1034C000106EABEC12F0B0C217F0B1C218F00001F0
:1034D000AEC2E8FF175EAFC2E8FF185AAFEC13F0B8
:1034E000C00EB4EC0EF013C00DF014C00EF037ECAB
:1034F00056F012000001D89014321332156A166A81
:10350000C8EC0FF02650A5EC0EF02E0EA5EC0EF038
:103510002750A5EC0EF02850A5EC0EF02950A5EC94
:103520000EF06D0EA5EC0EF0530EA5EC0EF0120091
:103530000F01D89083B6D880D8B0A4EF1AF00A0E45
:1035400098EC0CF00F01D89083B6D880D8B01AEF61
:103550001BF00F01D89084B2D880D8B0B5EF1AF024
:103560000A0E98EC0CF00F01D89084B2D880D8B035
:103570001AEF1BF00001D267DCEF1AF00001D269EC
:10358000030132C30DF033C30EF00001E80E0F6EDD
:10359000030E106EABEC12F014C01CF115C01DF13F
:1035A0000301345101011C270301355101011D2381
:1035B00034C31AF135C31BF153EC31F0D8B0EDEF41
:1035C0001AF0D8A4F4EF1AF001011A07D8A01B07CB
:1035D0001A07D8A01B07F4EF1AF001011A2BD8B470
:1035E0001B2B1A2BD8B41B2B1CC10DF01DC10EF0C8
:1035F00001011A5100010D5E01011B5100010E5A1B
:103600000001000E0F6E010E106EABEC12F0000107
:10361000E80E176E030E186EAFEC13F013C032F302
:1036200014C033F31AC134F31BC135F36DEC1EF033
:10363000D88412000001D26720EF1BF0D89412004A
:10364000D26B55EC24F0D894120000016B51E8CFF6
:103650000DF06C51E8CF0EF06F510D5E70510E5AA7
:10366000D8A042EF1BF06D51E8CF0FF06E51E8CFBC
:1036700010F0ABEC12F01450E8CF73F01550E8CF17
:1036800074F012007151E8CF0FF07251E8CF10F0D2
:10369000ABEC12F01450E8CF73F01550E8CF74F093
:1036A00012006BC00DF06CC00EF06F510D5E7051CA
:1036B0000E5A6DC00FF06EC010F0ABEC12F014504B
:1036C000E8CF73F01550E8CF74F012000001750ECA
:1036D000BB6F000EBC6F0001750EB96F000EBA6FA4
:1036E000080EE8CFBAF0260EBD6F98EC28F0040E55
:1036F00065EC09F015C26DF016C26EF017C26FF0DE
:1037000018C270F019C271F01AC272F025EC1BF0E9
:1037100073C034F174C035F173C075F074C076F0C5
:10372000050E65EC09F01BC26DF01CC26EF01DC2E7
:103730006FF01EC270F01FC271F020C272F025EC53
:103740001BF073C036F174C037F173C077F074C0EA
:1037500078F0060E65EC09F021C26DF022C26EF021
:1037600023C26FF024C270F025C271F026C272F03D
:1037700025EC1BF073C038F174C039F173C079F0D7
:1037800074C07AF0070E65EC09F0070E65EC09F0DD
:1037900027C26DF028C26EF029C26FF02AC270F005
:1037A00051EC1BF073C03AF174C03BF173C07BF075
:1037B00074C07CF073C027F474C028F4030E65EC69
:1037C00009F000010F01C3CFE8FFE8CF8DF0C4CFAF
:1037D000E8FFE8CF8EF0080E65EC09F02DC26FF01F
:1037E0002EC270F02BC26DF02CC26EF051EC1BF0AB
:1037F00073C085F074C086F0090E65EC09F031C223
:103800006FF032C270F02FC26DF030C26EF051EC2A
:103810001BF073C087F074C088F00A0E65EC09F0E5
:1038200035C26FF036C270F033C26DF034C26EF044
:1038300051EC1BF073C089F074C08AF00B0E65EC7C
:1038400009F039C26FF03AC270F037C26DF038C279
:103850006EF051EC1BF073C08BF074C08CF0030160
:10386000B551C1EC29F0D8A03DEF1CF00001E80EE5
:103870007D6F030E7E6F42EF1CF00001180E7D6F0E
:10388000FC0E7E6F000E65EC09F03BC26DF03CC291
:103890006EF03DC26FF03EC270F051EC1BF073C091
:1038A0007FF074C080F0010E65EC09F03FC26DF04E
:1038B00040C26EF041C26FF042C270F051EC1BF09A
:1038C00073C081F074C082F00301B751C1EC29F0DC
:1038D000D8A072EF1CF00001E80E836F030E846F16
:1038E0008CEF1CF00301B951C1EC29F0D8A080EF96
:1038F0001CF00001180E836FFC0E846F8CEF1CF01F
:103900000301B851C1EC29F0D8A08CEF1CF00001E4
:10391000000E836F000E846F12000001106A0FBE4C
:10392000101EABEC12F00001640E176E000E186E44
:10393000AFEC13F013C011F014C012F013C00FF06D
:1039400014C010F00EAEAAEF1CF00F1E101E0F2AAE
:10395000D8B0102AABEC12F000010A0E176E000E60
:10396000186EAFEC13F00B50E8CF17F0186A17BEC3
:10397000181EAFEC13F011500D5E12500E5A13507A
:103980000D2614500E2212000301AE51C1EC29F095
:1039900075C00DF076C00EF0D8A0DAEF1CF0030170
:1039A0001B510001E8CF0FF003011751E8CF0BF0D6
:1039B000E2EF1CF003011A510001E8CF0FF0640E92
:1039C000E8CF0BF08DEC1CF00DC075F00EC076F05A
:1039D0000301AF51C1EC29F077C00DF078C00EF0B3
:1039E000D8A0FEEF1CF0030126510001E8CF0FF034
:1039F00003012251E8CF0BF006EF1DF00301255122
:103A00000001E8CF0FF0640EE8CF0BF08DEC1CF056
:103A10000DC077F00EC078F00301B051C1EC29F071
:103A200079C00DF07AC00EF0D8A022EF1DF003018E
:103A300031510001E8CF0FF003012D51E8CF0BF019
:103A40002AEF1DF0030130510001E8CF0FF0640EA2
:103A5000E8CF0BF08DEC1CF00DC079F00EC07AF0C1
:103A600012000301AE51C1EC29F0D8A050EF1DF0B7
:103A700075C00FF076C010F017C30DF018C30EF02C
:103A80000E6A0DBE0E1EABEC12F00001640E176E36
:103A9000000E186EAFEC13F013C075F014C076F082
:103AA0000301AF51C1EC29F0D8A06FEF1DF077C032
:103AB0000FF078C010F022C30DF023C30EF00E6A91
:103AC0000DBE0E1EABEC12F00001640E176E000E60
:103AD000186EAFEC13F013C077F014C078F0030148
:103AE000B051C1EC29F0D8A08EEF1DF079C00FF0D5
:103AF0007AC010F02DC30DF02EC30EF00E6A0DBE6D
:103B00000E1EABEC12F00001640E176E000E186E64
:103B1000AFEC13F013C079F014C07AF0120057C163
:103B2000E8FFE81EE8661200E86AE8CF57F1030EE6
:103B300000015F6E030E2BEC0BF01200D3C2E8FF06
:103B4000E81EE866F2EF1DF080C50FF081C510F0A9
:103B50000201B2519FEC01F00FC00DF010C00EF049
:103B60004BC10FF04CC110F03CEC1EF0E868D8B02F
:103B7000E8CF57F10FC04BF110C04CF182C50FF0E8
:103B800083C510F00201B3519FEC01F00FC00DF09E
:103B900010C00EF04DC10FF04EC110F03CEC1EF005
:103BA000E868D8B0E8CF57F10FC04DF110C04EF122
:103BB00084C50FF085C510F00201B4519FEC01F0EF
:103BC0000FC00DF010C00EF04FC10FF050C110F03B
:103BD0003CEC1EF0E868D8B0E8CF57F10FC04FF1C9
:103BE00010C050F1D7C2E8FFE81EE86612EF1EF0E1
:103BF00086C50FF087C510F00201B5519FEC01F0AA
:103C00000FC00DF010C00EF051C10FF052C110F0F6
:103C10003CEC1EF0E868D8B0E8CF57F10FC051F186
:103C200010C052F1D8C2E8FFE81EE86612007FC05B
:103C30000DF080C00EF053C10FF054C110F03CECF9
:103C40001EF0E868D8B0E8CF57F10FC053F110C0AC
:103C500054F181C00DF082C00EF055C10FF056C175
:103C600010F03CEC1EF0E868D8B0E8CF57F10FC078
:103C700055F110C056F112000DC011F00EC012F037
:103C800000010FC0E8FF115E10C0E8FF125A12AE2B
:103C90004FEF1EF0111E121E112AD8B4122AD8900E
:103CA00012321132D89012321132D89012321132AF
:103CB000D89012321132D8901232113211C0E8FF6E
:103CC0001212D890D8B412000EC0E8FF1018E836CF
:103CD0000DC00FF00EC010F0120080C50FF081C5AE
:103CE00010F00201B2519FEC01F00301A751000155
:103CF0000F260301A8510001102218C30DF019C3AB
:103D00000EF000010E6AFF0E0DBE0E6EABEC12F04F
:103D10000001640E176E186A196A1A6AAFEC13F084
:103D200000010301195100010D6E0E6A0DBE0E1E39
:103D30000D360E360D5013260E50142213507527D3
:103D40001450762382C50FF083C510F00201B351E1
:103D50009FEC01F00301A95100010F260301AA51B4
:103D60000001102223C30DF024C30EF000010E6ADF
:103D7000FF0E0DBE0E6EABEC12F00001640E176E5E
:103D8000186A196A1A6AAFEC13F000010301245192
:103D900000010D6E0E6A0DBE0E1E0D360E360D5054
:103DA00013260E501422135077271450782384C5FD
:103DB0000FF085C510F00201B4519FEC01F0030132
:103DC000AB5100010F260301AC51000110222EC39C
:103DD0000DF02FC30EF000010E6AFF0E0DBE0E6E29
:103DE000ABEC12F00001640E176E186A196A1A6AB9
:103DF000AFEC13F0000103012F5100010D6E0E6AAC
:103E00000DBE0E1E0D360E360D5013260E5014220A
:103E10001350792714507A2386C50FF087C510F008
:103E20000201B5519FEC01F036C30DF037C30EF01F
:103E300000010E6AFF0E0DBE0E6EABEC12F000011B
:103E4000640E176E186A196A1A6AAFEC13F0030150
:103E5000010E376343EF1FF00001030E0E6E186E64
:103E6000E80E0D6E176E7B510D5E7C510E5A196A6D
:103E70001A6A13C00FF014C010F0ABEC12F0AFECE4
:103E800013F05DEF1FF0020E37635DEF1FF00001CE
:103E90007B510D6E7C510E6E13C00FF014C010F0EC
:103EA000ABEC12F00001030EE8CF18F0E80EE8CFFB
:103EB00017F0196A1A6AAFEC13F0000113507B2750
:103EC00014507C23120000010E6A08C40DF00DBED0
:103ED0000E6800010A0E0F6E000E106EABEC12F0B1
:103EE000135075271450762300010E6A09C40DF093
:103EF0000DBE0E6800010A0E0F6E000E106EABECC8
:103F000012F0135077271450782300010E6A0AC468
:103F10000DF00DBE0E6800010A0E0F6E000E106E41
:103F2000ABEC12F01350792714507A2300010E6A7B
:103F30000BC40DF00DBE0E6800010A0E0F6E000ED0
:103F4000106EABEC12F013507B2714507C23000151
:103F50000E6A0CC40DF00DBE0E6800010A0E0F6E45
:103F6000000E106EABEC12F013507D2714507E2320
:103F700000010E6A0DC40DF00DBE0E6800010A0EA0
:103F80000F6E000E106EABEC12F013507F27145022
:103F9000802300010E6A0EC40DF00DBE0E680001F4
:103FA0000A0E0F6E000E106EABEC12F0135081274C
:103FB0001450822300010E6A0FC40DF00DBE0E686E
:103FC00000010A0E0F6E000E106EABEC12F01350D3
:103FD000832714508423120000010A0E0D6E000E78
:103FE0000E6E0301BB51C1EC29F0D8A03DEF20F0CB
:103FF00003014DAF0AEF20F04CC30FF0106A0FBE63
:104000001068ABEC12F0000113C0E8FF752714C074
:10401000E8FF762303014FAF1CEF20F04EC30FF0F3
:10402000106A0FBE1068ABEC12F0000113C0E8FF7D
:10403000772714C0E8FF7823030151AF2EEF20F05B
:1040400050C30FF0106A0FBE1068ABEC12F0000105
:1040500013C0E8FF792714C0E8FF7A23030153AFA8
:104060003DEF20F052C30FF0106A0FBE1068ABECAA
:1040700012F013C07BF014C07CF00301BC51C1EC02
:1040800029F0D8A080EF20F0030155AF53EF20F0C6
:1040900054C30FF0106A0FBE1068ABEC12F013C0DF
:1040A00075F014C076F0030157AF62EF20F056C3ED
:1040B0000FF0106A0FBE1068ABEC12F013C077F06F
:1040C00014C078F0030159AF71EF20F058C30FF01E
:1040D000106A0FBE1068ABEC12F013C079F014C078
:1040E0007AF003015BAF80EF20F05AC30FF0106A43
:1040F0000FBE1068ABEC12F013C07BF014C07CF064
:1041000000017CAF1200E86A7B6F7C6F120090C0E8
:10411000E8FFC00A32E07DC00DF07EC00EF0000165
:104120008FC0E8FF0D5E90C0E8FF0E5A0EBEABEFE9
:1041300020F019C4E8FF0D5E1AC4E8FF0E5A0EBE47
:10414000BDEF20F0000119C4E8FF8F271AC4E8FF73
:104150009023C1EF20F019C4E8FF0D261AC4E8FF30
:104160000E220EAEBDEF20F0000119C4E8FF8F5FF4
:104170001AC4E8FF905BC1EF20F07DC08FF07EC0D5
:1041800090F092C0E8FFC00A32E083C00DF084C016
:104190000EF0000191C0E8FF0D5E92C0E8FF0E5ADC
:1041A0000EBEE5EF20F01BC4E8FF0D5E1CC4E8FF67
:1041B0000E5A0EBEF7EF20F000011BC4E8FF912756
:1041C0001CC4E8FF9223FBEF20F01BC4E8FF0D2680
:1041D0001CC4E8FF0E220EAEF7EF20F000011BC456
:1041E000E8FF915F1CC4E8FF925BFBEF20F083C007
:1041F00091F084C092F0FDC0E8FFC00A32E07BC0BD
:104200000DF07CC00EF00001FCC0E8FF0D5EFDC0AB
:10421000E8FF0E5A0EBE1FEF21F03FC4E8FF0D5E0F
:1042200040C4E8FF0E5A0EBE31EF21F000013FC43A
:10423000E8FFFC2740C4E8FFFD233AEF21F03FC42C
:10424000E8FF0D2640C4E8FF0E220EAE31EF21F04C
:1042500000013FC4E8FFFC5F40C4E8FFFD5B3AEFAC
:1042600021F07BC0FCF07CC0FDF00401D00E3F6F5C
:10427000070E406F12000201A1B112000301B651F6
:10428000C1EC29F0D8A012000001626712000201FF
:104290009F510001626F0201010EB66359EF21F0D8
:1042A000010E00015F6E050E2BEC0BF0280E0001D5
:1042B000626F75C00DF076C00EF0FCEC21F0D8A452
:1042C0008FEF21F00201B66768EF21F002019E51E5
:1042D000000176BF76EF21F00301192719AF80EFB7
:1042E00021F0D8A680EF21F083EF21F00301195FC0
:1042F00019BF80EF21F0D8A680EF21F088EF21F0E0
:1043000019BF88EF21F0640E1961196F8DEF21F04C
:10431000640EE81EE82A1965196F55EC24F077C081
:104320000DF078C00EF0FCEC21F0D8A4C5EF21F020
:104330000201B6679EEF21F002019E51000178BF95
:10434000ACEF21F00301242724AFB6EF21F0D8A66B
:10435000B6EF21F0B9EF21F00301245F24BFB6EFDF
:1043600021F0D8A6B6EF21F0BEEF21F024BFBEEFBA
:1043700021F0640E2461246FC3EF21F0640EE81E67
:10438000E82A2465246F55EC24F079C00DF07AC03A
:104390000EF0FCEC21F0D8A4FBEF21F00201B6678F
:1043A000D4EF21F002019E5100017ABFE2EF21F02B
:1043B00003012F272FAFECEF21F0D8A6ECEF21F06F
:1043C000EFEF21F003012F5F2FBFECEF21F0D8A614
:1043D000ECEF21F0F4EF21F02FBFF4EF21F0640EA9
:1043E0002F612F6FF9EF21F0640EE81EE82A2F6588
:1043F0002F6F55EC24F0120000010EAE05EF22F0F5
:104400000D1E0E1E0D2AD8B00E2AD8900E320D3277
:104410000E660FEF22F0640E0D6414EF22F000011F
:10442000640E0D6E000E0E6E0D50E832E8321F0B5A
:10443000D8740DC0E8FF12000001C36B000176BF05
:104440002EEF22F011C30DF012C30EF075C00FF065
:1044500076C010F0ABEC12F038EF22F015C30DF07F
:1044600016C30EF075C00FF076C010F0ABEC12F072
:1044700013C30DF014C30EF0000114500D26155097
:104480000E2234EC23F00DC03EF00EC03FF00001D0
:1044900078BF57EF22F01CC30DF01DC30EF077C09C
:1044A0000FF078C010F0ABEC12F061EF22F020C3F7
:1044B0000DF021C30EF077C00FF078C010F0ABEC18
:1044C00012F01EC30DF01FC30EF0000114500D2694
:1044D00015500E2234EC23F00DC03CF00EC03DF020
:1044E00000017ABF80EF22F027C30DF028C30EF041
:1044F00079C00FF07AC010F0ABEC12F08AEF22F026
:104500002BC30DF02CC30EF079C00FF07AC010F061
:10451000ABEC12F029C30DF02AC30EF000011450C9
:104520000D2615500E2234EC23F00DC040F00EC0C5
:1045300041F032C30DF033C30EF0FCC00FF0FDC0EC
:1045400010F0ABEC12F034C30DF035C30EF00001E7
:1045500014500D2615500E2234EC23F00DC042F0FD
:104560000EC043F03AC30DF03BC30EF08FC00FF006
:1045700090C010F0ABEC12F03CC30DF03DC30EF058
:10458000000114500D2615500E2234EC23F00DC0FE
:1045900044F00EC045F03EC30DF03FC30EF07FC0A7
:1045A0000FF080C010F0ABEC12F040C30DF041C32F
:1045B0000EF0000114500D2615500E2234EC23F09D
:1045C0000DC046F00EC047F042C30DF043C30EF0DD
:1045D00081C00FF082C010F0ABEC12F044C30DF0BC
:1045E00045C30EF0000114500D2615500E2234EC78
:1045F00023F00DC048F00EC049F091C00DF092C0FC
:104600000EF00EBE0CEF23F046C30FF047C310F0C0
:10461000ABEC12F012EF23F04AC30FF04BC310F0D3
:10462000ABEC12F048C30DF049C30EF00D50142648
:104630000E50152214C00DF015C00EF034EC23F00E
:104640000DC04AF00EC04BF00001D26733EF23F0EB
:104650000301B151C1EC29F0D8A033EF23F038C3E6
:1046600042F039C343F012000201AE5100010D5C6B
:104670000201AF5100010E58E8AE44EF23F0AEC284
:104680000DF0AFC20EF012000201B05100010D5C3E
:104690000201B15100010E58E8BE1200B0C20DF087
:1046A000B1C20EF012000001FAA563EF23F0FA95F3
:1046B00035A463EF23F03594010E5F6E050E2BECED
:1046C0000BF0D8801200D89012000001000E0D6E81
:1046D000020E0E6E0001000E136E000E146E010E1F
:1046E000156EE86A0A6E60EC0DF0020100510001DF
:1046F000AB6F12000001000E0D6E020E0E6E000177
:10470000000E136E000E146E010E156E040E0A6E6E
:1047100094EC0DF01200E846E8060B6E0001000E66
:104720000D6E030E0E6E0001000E136E000E146E61
:10473000010E156E0B501426E86A1522100E0A6E33
:1047400060EC0DF01200E846E8060B6E0001000E6A
:104750000D6E080E0E6E0001000E136E000E146E2C
:10476000010E156E0B501426E86A1522400E0A6ED3
:1047700060EC0DF00001000EBB6F030EBC6F00017A
:10478000000EB96F030EBA6F0001080EBA6F100E5B
:10479000BD6F98EC28F00001000E0D6E080E0E6E35
:1047A0000001000E136E000E146E010E156E0B50FC
:1047B0001426E86A1522010E0A6E94EC0DF0120020
:1047C000E846E8060B6E0001000E0D6E030E0E6E3D
:1047D0000001000E136E000E146E010E156E0B50CC
:1047E0001426E86A15220A6E60EC0DF00001000E36
:1047F0000D6E040E0E6E0001000E136E000E146E90
:10480000010E156E0B50E82A1426E86A15220A6E6E
:1048100060EC0DF01200E846E8060C6E0001000E98
:104820000D6E030E0E6E0001000E136E000E146E60
:10483000010E156E0C501426E86A1522040E0A6E3D
:1048400094EC0DF00001000E0D6E040E0E6E0001D2
:10485000000E136E000E146E010E156E0C50E82A39
:104860001426E86A1522040E0A6E94EC0DF012006C
:104870000001000EBB6F030EBC6F0001000EB96F8C
:10488000060EBA6F000EBD6F98EC28F00001000E06
:10489000BB6F040EBC6F0001000EB96F070EBA6F3C
:1048A000000EBD6F98EC28F0120002010051E8469E
:1048B000E8060A6E0001000E0D6E030E0E6E00017A
:1048C000000E136E000E146E010E156E0A501426A3
:1048D000E86A1522010E0A6E94EC0DF0120075C004
:1048E00093F076C094F077C095F078C096F079C0D8
:1048F00097F07AC098F07BC099F07CC09AF0FCC029
:1049000099F0FDC09AF08FC09BF090C09CF07FC0E2
:104910009DF080C09EF081C09FF082C0A0F091C049
:10492000A1F092C0A2F0030EE26E5C0EE16E0C0EDE
:10493000E8CF0AF0E6CFE8FF0F0BD8B4CAEF24F0B7
:10494000E7180F0BD8A4CAEF24F0E7CFE8FFF00B6D
:104950000409E762B2EF24F07BC099F07CC09AF0C2
:10496000CAEF24F0E7CFE8FFF00B0509E762BFEFDD
:1049700024F08FC09BF090C09CF0CAEF24F0E7CFEA
:10498000E8FFF00B0809E762CAEF24F091C0A1F03C
:1049900092C0A2F0050EE1260A06D8A49AEF24F0F0
:1049A00012006FEC24F00301B251C1EC29F0D8A041
:1049B000ECEF24F0030EE26E5C0EE16EB6EC27F035
:1049C000610EE16EB6EC27F0660EE16EB6EC27F0F4
:1049D0006B0EE16EB6EC27F06FEC24F00301B351DF
:1049E000C1EC29F0D8A00DEF25F0030EE26E700E99
:1049F000E16EB6EC27F06FEC24F0750EE16EB6ECCC
:104A000027F06FEC24F07A0EE16EB6EC27F06FEC35
:104A100024F07F0EE16EB6EC27F06FEC24F003017A
:104A2000B451C1EC29F0D8A028EF25F0030EE26EB6
:104A3000840EE16EB6EC27F0890EE16EB6EC27F03D
:104A40008E0EE16EB6EC27F0930EE16EB6EC27F019
:104A5000120093C00DF094C00EF010C40FF00001CE
:104A60000EBE11C40FF0106A0FBE1068ABEC12F04E
:104A70000001640E176E000E186EAFEC13F000010B
:104A800013C0E8FF972714C0E8FF982397C00DF0E4
:104A900098C00EF012C40FF000010EBE13C40FF048
:104AA000106A0FBE1068ABEC12F00001640E176EB6
:104AB000000E186EAFEC13F0000113C0E8FF93274F
:104AC00014C0E8FF942397C00DF098C00EF014C4F2
:104AD0000FF000010EBE15C40FF0106A0FBE106873
:104AE000ABEC12F00001640E176E000E186EAFEC06
:104AF00013F0000113C0E8FF952714C0E8FF9623C8
:104B000099C00DF09AC00EF016C40FF000010EBE51
:104B1000106A0FBE1068ABEC12F00001640E176E45
:104B2000000E186EAFEC13F0000113C0E8FF9527DC
:104B300014C0E8FF962393C075F094C076F095C03A
:104B400077F096C078F097C079F098C07AF099C065
:104B5000FCF09AC0FDF0040117A1B3EF25F095C059
:104B60007FF096C080F0030198A1D0EF25F095C0AA
:104B70000DF096C00EF097C00FF098C010F0000135
:104B80000DC077F00EC078F00DC079F00EC07AF04D
:104B90000F50792710507A230F50775F1050785BB1
:104BA000030199A1EDEF25F095C00DF096C00EF030
:104BB00093C00FF094C010F000010DC077F00EC04C
:104BC00078F00DC075F00EC076F00F5075271050BC
:104BD00076230F50775F1050785B03019AA18DEF19
:104BE00026F093C00DF094C00EF00DC075F00EC00D
:104BF00076F00DC081F00EC082F00001811F821F8F
:104C0000814B822B0001640E176E000E186E03019B
:104C10009C51E812D8B456EF26F0E8BE34EF26F0E7
:104C2000640800010F6E106A76BF25EF26F075C08C
:104C30000DF076C00EF0ABEC12F0AFEC13F013C039
:104C400075F014C076F056EF26F0000181C00DF02B
:104C500082C00EF0ABEC12F0AFEC13F013C081F099
:104C600014C082F056EF26F0640F00010F6E106A38
:104C700076AF49EF26F075C00DF076C00EF0ABECC4
:104C800012F0AFEC13F013C075F014C076F056EFCD
:104C900026F0000181C00DF082C00EF0ABEC12F0E6
:104CA000AFEC13F013C081F014C082F00001640E69
:104CB000176E000E186E0301C651E812D8B473EFD8
:104CC00026F00301C551C1EC29F0D8A08DEF26F0E4
:104CD0000001E80E0D6E030E0E6E99510D5E9A5195
:104CE0000E5A77EF26F09FC00DF0A0C00EF09DC3C6
:104CF0000FF000010EBE9BC30FF0106A0FBE101E16
:104D0000ABEC12F0AFEC13F0135075271450762370
:104D10000001135081271450822312000301A4A123
:104D200012006FEC24F029EC25F012000301A4B16D
:104D30009EEF26F06FEC24F029EC25F00301A0A1F2
:104D4000CBEF26F00301C351C1EC29F0D8A0ADEFA1
:104D500026F00301A151B6EF26F00301C451C1ECC6
:104D600029F0D8A0CBEF26F00301A25100010D6E6F
:104D70000E6A00010A0E0F6E000E106EABEC12F000
:104D800013507B5D14507C59E8AECBEF26F013C076
:104D90007BF014C07CF01200040126A112001DC497
:104DA000E8FFE812D8B4120075C00DF076C00EF01E
:104DB00077C00FF078C010F07FC075F080C076F03B
:104DC0007FC077F080C078F000010DC0E8FF752744
:104DD0000EC0E8FF76230DC0E8FF7F5F0EC0E8FF3E
:104DE000805B0FC0E8FF772710C0E8FF78231DC461
:104DF000E8FF0308D8B412000001D89010BED88094
:104E000010320F3200010FC0E8FF7F5F10C0E8FFD3
:104E1000805B0FC0E8FF755F10C0E8FF765B1DC4C4
:104E2000E8FF0108D8B4120000010FC0E8FF7F5F5F
:104E300010C0E8FF805B0FC0E8FF755F10C0E8FF9F
:104E4000765B12000BC0E8FFF00BD8B412000DC067
:104E50006BF00EC06CF00EAE33EF27F00D1E0E1E81
:104E60000D2AD8B00E2A0DC013F00EC014F0640E37
:104E7000176EDEEC12F000011C6A090E13604DEF94
:104E800027F00BC0E8FFE83AE8060F0BE8CF0BF07D
:104E9000E8B66BEF27F061EF27F0136E0DC01BF043
:104EA0000EC01CF0840E00011B5E030E1C5A0BC0CA
:104EB000E8FFE83AE8060F0BE8CF0BF0E8B66BEF37
:104EC00027F0020EE8CFDAFF0BC0E8FF0B0DF3501E
:104ED000460F74EF27F0030EE8CFDAFF0BC0E8FFB0
:104EE000E8960B0DF350DA0FE8CFD9FFDFCF0CF0C7
:104EF00013C0E8FFD926DECF0AF0DFCF0BF00001A8
:104F00000BC00DF00AC0E8FF0D5E0E6A0DBE0E6804
:104F10001BC00FF01CC010F0ABEC12F00A0E176EA5
:104F2000DEEC12F00A500A0D0A0E0ABEF45EF3CF50
:104F3000E8FF1326F4CFE8FF142213C00DF014C0CD
:104F40000EF000016CAF12000CC0E8FF140D140E3F
:104F50000CBEF45EF3CF0DF0F4CF0EF0000113C0E1
:104F6000E8FF0D5E14C0E8FF0E5A1200E650E8CFCD
:104F70000BF00F0BD8B412000BC0E8FF80EC02F06E
:104F800022EC27F00DC011F00EC012F0E6CF0AF0AF
:104F9000E6CFE8FF0001E8CF0DF00E6A0DBE0E1E51
:104FA00000010A0E0F6E000E106EABEC12F011C075
:104FB0000DF012C00EF013500D5E14500E5A0EBEBE
:104FC00017EF28F0E6CFE8FF00010AAC00EF28F069
:104FD000E8CF13F0E9CF14F00DC011F00EC012F0BD
:104FE000135080EC02F00DC013F00EC014F00A0E46
:104FF000176EDEEC12F011C00DF012C00EF013505F
:105000000F6E106A0FBE101EABEC12F00001640EA2
:10501000176E000E186E196A1A6AAFEC13F013C0FF
:105020000DF014C00EF00A5000EC03F01200E6CFB1
:10503000E8FFE6CFE8FF00010AAA35EF28F0E8CF45
:1050400013F00DC011F00EC012F0135080EC02F0FE
:105050000DC013F00EC014F00A0E176EDEEC12F045
:1050600011C00DF012C00EF013500F6E106A0FBE7B
:10507000101EABEC12F00001640E176E000E186EDD
:10508000196A1A6AAFEC13F013C00DF014C00EF0D9
:105090000A5000EC03F012000001BD0EBB6F030EBE
:1050A000BC6F0001120EB96F010EBA6F050EBD6F15
:1050B00098EC28F0D90EE8CFD9FF060EE8CFDAFF3A
:1050C000060EE8CF0CF0DDCFE8FFE812D8B470EFA1
:1050D00028F0DFCFE8FFC1EC29F0D8B07CEF28F052
:1050E000DDCFE8FF0C2E63EF28F0ABC0E8FF020134
:1050F000006385EF28F01200DECFE8FFDECFE8FF87
:105100000201006385EF28F01200E8CF00F2E0EC26
:1051100023F00001120EBB6F010EBC6F0001BD0E2B
:10512000B96F030EBA6F050EBD6F98EC28F0120030
:105130000001BB51E16EBC51E26E0001B951D96E64
:10514000BA51DA6EE6CFE8FFE8CFDEFF0001BD2FEF
:10515000A2EF28F012000001C56B0301AE51C1ECB3
:1051600029F00001D8B0C5810301AF51C1EC29F08D
:105170000001D8B0C5830301B051C1EC29F0000192
:10518000D8B0C5850301B151C1EC29F00001D8B0F8
:10519000C5870301B651C1EC29F00001D8B0C5891B
:1051A0000301BB51C1EC29F00001D8B0C58B03014C
:1051B000BC51C1EC29F00001D8B0C58D1200C00E61
:1051C000B4EC0EF00301AE51C1EC29F00001E86A25
:1051D000E880C515D8A0FBEF28F0D8A40CEF29F083
:1051E000C571000EF86E790EF76ED80EF66E45ECAE
:1051F0000FF0BDEF29F0D8B00CEF29F0D8B40CEFC8
:1052000029F0C571000EF86E790EF76EC60EF66EB7
:1052100045EC0FF0BDEF29F00301AF51C1EC29F0CF
:105220000001E86AE882C515D8A025EF29F0D8A4C6
:1052300036EF29F0C573000EF86E790EF76EFC0E8E
:10524000F66E45EC0FF0BDEF29F0D8B036EF29F03F
:10525000D8B436EF29F0C573000EF86E790EF76EEC
:10526000EA0EF66E45EC0FF0BDEF29F00301B051E8
:10527000C1EC29F00001E86AE884C515D8A04FEF19
:1052800029F0D8A460EF29F0C575000EF86E7A0EEB
:10529000F76E200EF66E45EC0FF0BDEF29F0D8B09A
:1052A00060EF29F0D8B460EF29F0C575000EF86EF4
:1052B0007A0EF76E0E0EF66E45EC0FF0BDEF29F08C
:1052C0000301B151C1EC29F00001D8A076EF29F01B
:1052D000C5B777EF29F0C577000EF86E7A0EF76E36
:1052E000680EF66E45EC0FF0BDEF29F0C59703018F
:1052F000B651C1EC29F00001D8A08DEF29F0C5B955
:105300008EEF29F0C579000EF86E7A0EF76E560E04
:10531000F66E45EC0FF0BDEF29F0C5990301BB51C6
:10532000C1EC29F00001D8A0A4EF29F0C5BBA5EF7E
:1053300029F0C57B000EF86E7A0EF76E320EF66E0F
:1053400045EC0FF0BDEF29F0C59B0301BC51C1EC4A
:1053500029F00001D8A0BBEF29F0C5BDBCEF29F0B2
:10536000C57D000EF86E7A0EF76E440EF66E45ECB3
:105370000FF0BDEF29F0C59D1200500EE8CFA9F047
:105380001200E8AAF9EF29F0E8A8F9EF29F00A6E6F
:10539000070BC90FE16E030EE26EE65000010D6EC1
:1053A0000E6AE8BE0E6800010A0E0F6E000E106E47
:1053B000ABEC12F00A50070BE846340FE16E010E19
:1053C000E26EE6CF0DF0E6CF0EF000010EAEEDEF8F
:1053D00029F00D1E0E1E0D4A0E2A0DC0E8FF135EA9
:1053E0000EC0E8FF1458E836D8700ABE1200D87014
:1053F0001200D890E8BA1200D880E8B81200000174
:105400001F6E206AE8BC2080070BE82AD88020366F
:10541000E82E07EF2AF030501FB633502014D88002
:105420002062D8901FBED8701200040126A112007D
:1054300079EC2AF0D8A0DCEC2AF004012F51C1EC61
:1054400029F0D8A040EF2AF00401305100010D6E80
:105450000E6A00010A0E0F6E000E106EABEC12F019
:1054600013C07BF014C07CF00001FE51D8A44AEFB9
:105470002AF0FE6941C43FF442C440F44AEF2AF0E6
:105480000001FE51D8B44AEF2AF0FE6B41C43FF44C
:1054900042C440F4040129A154EF2AF000017F1F07
:1054A000801F7F2BD8B4802B36C30DF000010E6A0D
:1054B000FF0E0DBE0E6E7FC00FF080C010F0ABEC83
:1054C00012F00001640E176E186A196A1A6AAFECBE
:1054D00013F013C07FF014C080F0B4EC2AF0000188
:1054E0000DC0E8FF7F270EC0E8FF8023FDEC2AF007
:1054F000120039C4E8FFC1EC29F0D8A08AEF2AF0E5
:105500003DC4E8FFC1EC29F0D8A012003EC40BF066
:10551000A3EF2AF033C4E8FFC1EC29F0D8A09BEF39
:105520002AF037C4E8FFC1EC29F0D8A0120038C433
:105530000BF0A3EF2AF02DC4E8FFC1EC29F0D8A0AE
:1055400012002EC40BF000010BC00DF00E6A00011A
:105550000A0E0F6E000E106EABEC12F013C07BF053
:1055600014C07CF0D88012002CC40BF033C4E8FFC8
:10557000C1EC29F0D8B036C40BF039C4E8FFC1EC57
:1055800029F0D8B03CC40BF02FC4E8FFC1EC29F0DF
:10559000D8B032C40BF027C40DF028C40EF022ECB2
:1055A00027F0040129A1DBEF2AF000010D1E0E1ED9
:1055B0000D2AD8B40E2A12002BC40BF033C4E8FF16
:1055C000C1EC29F0D8B035C40BF039C4E8FFC1EC08
:1055D00029F0D8B03BC40BF02FC4E8FFC1EC29F090
:1055E000D8B00B6A7BC00DF07CC00EF022EC27F027
:1055F0000DC07BF00EC07CF0120081C07DF082C037
:105600007EF00001FB51D8A412002AC40BF033C471
:10561000E8FFC1EC29F0D8B034C40BF039C4E8FF7E
:10562000C1EC29F0D8B03AC40BF02FC4E8FFC1ECAC
:1056300029F0D8B031C40BF00BC0E8FFCE0FE8CF93
:105640000DF000010E6A0DBE0E680001140E0F6E03
:10565000000E106EABEC12F013C07DF014C07EF0A3
:105660001200D890040126A112000001FB51D8B409
:105670001200030EE8CF5FF0020E2BEC0BF081C09E
:1056800013F082C014F00001E80E1326030E14225A
:10569000156A140EE8CF17F0DEEC12F02FC4E8FF05
:1056A000C1EC29F0D8A059EF2BF013C031F472EF00
:1056B0002BF039C4E8FFC1EC29F0D8A064EF2BF03F
:1056C00013C03AF472EF2BF033C4E8FFC1EC29F0B9
:1056D000D8A06FEF2BF013C034F472EF2BF013C08F
:1056E0002AF4D88000C2E8FF0001AB19D880D8A402
:1056F000120000C2E8FF0BEC24F0D8801200040175
:1057000026A11200CE0EB4EC0EF02FC4E8FFC1ECBF
:1057100029F0D8B09BEF2BF039C4E8FFC1EC29F099
:10572000D8B0ADEF2BF033C4E8FFC1EC29F0D8B00E
:10573000A4EF2BF01200000EF86E570EF76E6C0EF1
:10574000F66E45EC0FF01200000EF86E570EF76E75
:10575000700EF66E45EC0FF01200000EF86E570E4C
:10576000F76E740EF66E45EC0FF012005448000010
:105770005331000053320000E86AE8CF15F0000111
:10578000F40E136E010E146E41C417F042C418F0EB
:10579000AFEC13F013C041F414C042F4E86AE8CF50
:1057A00042F441C4E8FF120041C4E8FFE866BCEFE0
:1057B0002BF00401D00E416F070E426F1200040E51
:1057C000D56E1200D59E1200D89087B21200D880F4
:1057D000D5BE1200C9C00DF0CAC00EF000013C0ECB
:1057E0000F6E000E106EBCEC12F013C00DF014C062
:1057F0000EF00001240E0F6EF40E106EBCEC12F0D1
:10580000C7C017F0C8C018F00001000E196E000ED6
:105810001A6E92EC15F0A5C317F0A6C318F000019C
:10582000186AAFEC13F0C00EB4EC0EF0000EF86E78
:10583000790EF76E360EF66E45EC0FF0CB0EB4EC2B
:105840000EF09EEC0FF0A5C313F0A6C314F0146A7B
:10585000C00EB4EC0EF09AEC0FF00001000EC96F10
:10586000000ECA6FD88012000001020E36621200CC
:10587000000133A01200FC6A7CEF05F04DEC2CF027
:10588000D8A01200FC6A7AEC23F000C2E8FF0BEC0F
:1058900024F038EC24F07CEF05F0000130B657EF2F
:1058A0002CF032A657EF2CF03296D8801200D89008
:1058B000120000017A0E0E6E8C0E0D6EA0EC2CF014
:1058C00024EC0FF00001115080EC01F012001EC119
:1058D0000DF01FC10EF024EC0FF012000001F65184
:1058E000D8B41200E1CF3EF1E2CF3FF166EC1BF0FD
:1058F0000001000E756F000E766F0001000E776FCD
:10590000000E786F31EC1DF0C4EC1CF0ECEC1FF0D5
:105910003BEC21F06DEC1EF08EEC26F0D1EC24F087
:1059200096EC26F063EC1FF01CEC22F011EC10F06A
:105930003EC1E1FF3FC1E2FF12000001F669120023
:1059400034EC2CF00001D36BE16BF16BF26BC00E09
:10595000B4EC0EF00DC0F6FF0EC0F7FFF86A0DC0F4
:105960000FF00EC010F045EC0FF0FA0E98EC0CF0B2
:105970002DEC31F0D8A4C3EF2CF0110E0D26D8B0C9
:105980000E2ACAEF2CF0D8A0D7EF2CF0130E0D265C
:10599000D8B00E2A0DC0F6FF0EC0F7FFF86A090056
:1059A000F5CF0DF00900F5CF0EF0A7EF2CF03EEC8F
:1059B0002CF053EC23F0D8A0A7EF2CF0150E0D26F9
:1059C000D8B00E2A0DC0F6FF0EC0F7FFF86A090026
:1059D000F5CF11F00900F5CF12F00FC00DF010C097
:1059E0000EF00900F5CF0FF00900F5CF10F0090017
:1059F000F5CFD4F00900F5CFD5F00001BF6BC06B37
:105A0000C1697F0EE8CFC2F012AC13EF2DF0090090
:105A1000F5CFBFF00900F5CFC0F00900F5CFC1F018
:105A20000900F5CFC2F012A41CEF2DF00900F5CF4C
:105A3000F1F00900F5CFF2F012A225EF2DF00900E8
:105A4000F5CFF3F00900F5CFF4F012AE2AEF2DF008
:105A500024EC0FF012A62FEF2DF03AEC0FF012A26B
:105A600012000001E86AE8CFFBFFF4C0E8FFE8CFCE
:105A7000FAFFF3C0E8FFF96EE8CF0AF00FC01BF0A1
:105A800010C01CF00FC0F6FF10C0F7FFF86A150E2B
:105A9000F626D8B0F72A0900F5CFE8FF0A6252EFE0
:105AA0002DF012000FC0F6FF10C0F7FF110EF62602
:105AB000D8B0F72A0900F5CF0FF00900F5CF10F0A4
:105AC0000FC0E8FF1B6242EF2DF010C0E8FF1C6220
:105AD00042EF2DF01200000110500F10D8B4120048
:105AE000E86AFB6E1050E8CFFAFF0F50F96E000124
:105AF0000F50E16E1050E26E0001000E116295EF42
:105B00002DF00FC0F6FF10C0F7FFF86A160EF6264C
:105B1000D8B0F72AD4C0E1FFD5C0E2FFE7CFE8FF55
:105B20003CEC2DF09AEC30F01200010E11629FEF68
:105B30002DF0250EE8CF40F170EC2FF01200020E90
:105B40001162C9EF2DF0000112A0AAEF2DF0D4517F
:105B50000001BE6FE6CF0AF0E5CF0BF000010AC0EE
:105B600011F00BC012F0129E129CCDEC2FF0000130
:105B70000FC0E1FF10C0E2FF11C00AF012C00BF02D
:105B80000AC0E6FFE7CFE8FFC00B0B120BC0E5FF32
:105B90001200030E1162DEEF2DF0E7CFE8FFE836CA
:105BA000C1EC2EF0000ED8B0E81E0A6E00010FC046
:105BB000E1FF10C0E2FF0AC0E7FF1200040E11620D
:105BC000EFEF2DF0E7CFE8FFE1EC30F00A6E0001D7
:105BD0000FC0E1FF10C0E2FF0AC0E7FF1200050E90
:105BE000116201EF2EF0E7CFE8FF16EC2FF0E8CFBF
:105BF0000AF000010FC0E1FF10C0E2FF0AC0E7FF9A
:105C00001200060E116217EF2EF0E7CF0AF00FC058
:105C1000D4F010C0D5F00001F40E0F6E8F0E106E90
:105C20000AC0E8FF3CEC2DF09AEC30F01200070EB1
:105C300011621EEF2EF06BEC2DF01200080E1162B7
:105C40002FEF2EF0E7CFE8FF10EC2FF0E8CF0AF0AF
:105C500000010FC0E1FF10C0E2FF0AC0E7FF0A0E1B
:105C6000116250EF2EF0E7CFE8FF0001D415D89075
:105C7000D8B4D880C1EC2EF00001D4C00AF00001E5
:105C80000FC0E1FF10C0E2FFD8B04BEF2EF00AC00A
:105C9000E8FFE71212000AC0E8FFE81EE71612004C
:105CA0000B0E11625AEF2EF0200EE8CF40F170EC8F
:105CB0002FF012000C0E116277EF2EF0E6CF0AF0F3
:105CC000E5CF0BF000010AC011F00BC012F04EEC52
:105CD00030F000010FC0E1FF10C0E2FF11C00AF078
:105CE00012C00BF00AC0E6FF0BC0E5FF1200120065
:105CF0000B6AD8B00B1EC00EB4EC0EF0000EF86E9E
:105D0000780EF76ED60EF66E45EC0FF00BA09DEFF9
:105D10002EF0C80EB4EC0EF0280EA5EC0EF0CC0E52
:105D2000B4EC0EF0290EA5EC0EF0CF0EB4EC0EF094
:105D3000200EA5EC0EF0AFEF2EF0C80EB4EC0EF076
:105D4000200EA5EC0EF0CC0EB4EC0EF0280EA5EC57
:105D50000EF0CF0EB4EC0EF0290EA5EC0EF02DECEB
:105D600031F0D8B40B6AFF0ED8B00B6E3EEC2CF0BD
:105D700053EC23F0D8A086EF2EF0D8900BB0D8804B
:105D800012000B6AD8B00B1EC80EB4EC0EF0000E59
:105D9000F86E790EF76E140EF66E45EC0FF00BA050
:105DA000E6EF2EF0C80EB4EC0EF0280EA5EC0EF0C7
:105DB000CC0EB4EC0EF0290EA5EC0EF0CF0EB4EC28
:105DC0000EF0200EA5EC0EF0F8EF2EF0C80EB4EC9D
:105DD0000EF0200EA5EC0EF0CC0EB4EC0EF0280E5A
:105DE000A5EC0EF0CF0EB4EC0EF0290EA5EC0EF0E3
:105DF0002DEC31F0D8B40B6AFF0ED8B00B6E3EEC30
:105E00002CF053EC23F0D8A0CFEF2EF0D8900BB0AD
:105E1000D88012000001C165C151BF61BF5112009D
:105E20000001EE690001A36F1AEF2FF00001A36FCC
:105E30000001EE6B960E98EC0CF0A3C0E8FF000199
:105E4000136E146A156A166AC8EC0FF00001EE674B
:105E500038EF2FF0CD0EB4EC0EF02750A5EC0EF07D
