:020000040000FA
:040200006BEF03F0AD
:040208000EEF01F004
:080218002DEF01F0D8CF01F039
:10022000E0CF02F0006EF3CF03F0F4CF04F0F0ACB7
:100230001DEF01F0F0B086EC0BF0A2A023EF01F06F
:10024000A1B031EC09F003C0F3FF04C0F4FF00508B
:1002500002C0E0FF01C0D8FF1000D8CF06F0E8CF01
:1002600005F0E0CF07F0F3CF08F0F4CF09F0F0BCD1
:100270003DEF01F0F0B086EC0BF0A2B043EF01F0DF
:10028000A1B031EC09F0A2B04CEF01F0AECFE8FF25
:100290006ECFE8FF52EF01F09EBA2CEC0FF0A4BA3B
:1002A00097EC0FF008C0F3FF09C0F4FF07C0E0FFB0
:0A02B00005C0E8FF06C0D8FF1000EB
:10030000F95000011150F92604EF2AF006EF2AF007
:1003100013EF2AF028EF2AF036EF2AF044EF2AF004
:1003200052EF2AF060EF2AF070EF2AF07EEF2AF009
:100330008CEF2AF012000009D8A4A5EF01F000010B
:10034000000E0F6E000E106E1200E806030B0A0D71
:10035000F9CFE8FFF350F92683C00FF084C010F006
:10036000120085C00FF086C010F0120087C00FF099
:1003700088C010F0120089C00FF08AC010F012007F
:10040000EFCFE8FFE806070B0A0DF9CFE8FFF3503E
:10041000F9263CC04EF03DC04FF012003AC04EF0FD
:100420003BC04FF012003EC04EF03FC04FF01200F4
:1004300040C04EF041C04FF0120042C04EF043C0E9
:100440004FF0120044C04EF045C04FF0120046C0BD
:100450004EF047C04FF0120048C04EF049C04FF078
:1004600012000F0B060DF9CFE8FFF350F926BBC2BF
:10047000E8FF1200BCC2E8FF1200BDC2E8FF120094
:10048000BEC2E8FF1200BFC2E8FF1200C0C2E8FF10
:100490001200C1C2E8FF1200C2C2E8FF1200C3C2CC
:1004A000E8FF1200C4C2E8FF1200C5C2E8FF120054
:1004B000C6C2E8FF1200C7C2E8FF1200C8C2E8FFC8
:0E04C0001200C9C2E8FF1200CAC2E8FF120013
:100500000001E806070B0A0DF9CFE8FFF350F926C2
:100510008D510D6E8E510E6E12008F510D6E9051D9
:100520000E6E120091510D6E92510E6E120093518B
:100530000D6E94510E6E120095510D6E96510E6E09
:10054000120097510D6E98510E6E120099510D6E5A
:100550009A510E6E12009B510D6E9C510E6E120040
:100600000001E8BE33EF03F0E806070B0A0DF9CF4F
:10061000E8FFF350F9260D5073270E507423120093
:100620000D5075270E50762312000D5077270E506F
:10063000782312000D5079270E507A2312000D50A6
:100640007B270E507C2312000D507D270E507E23F9
:1006500012000D507F270E50802312000D5081276D
:100660000E5082231200E806070B0A0DF9CFE8FFAF
:10067000F350F9260D50736F0E50746F12000D5029
:10068000756F0E50766F12000D50776F0E50786FA9
:1006900012000D50796F0E507A6F12000D507B6F63
:1006A0000E507C6F12000D507D6F0E507E6F120049
:1006B0000D507F6F0E50806F12000D50816F0E50E5
:1006C000826F1200F2AE12000001010EA16FA1674D
:1006D00067EF03F0120092988098939C819C000130
:1006E0005B6A5C6A0001546A640EBDEC0BF00F019A
:1006F0008350306E316E326E0F018450336E346E23
:10070000356E0F0199908780949693948296819488
:100710000001000E176E000E186E0001000E196E1B
:10072000000E1A6E0001000E1B6E000E1C6E000102
:10073000000E1D6E000E1E6E0001000E136E000EE8
:10074000146E0001000E156E000E166E0001000EF4
:10075000AB6F000EAC6F0001000EAD6F000EAE6F00
:100760000001000EAF6F000EB06F0001000EB16F00
:10077000000EB26F00015E6A5F6A606BA16BA26BD4
:10078000A36BE769E96B0201BA6B0101116B000110
:10079000CC6B6EEC32F0020100510001A56F040E2B
:1007A000ACEC08F0040EACEC08F00001C350C56FCF
:1007B000C450C66F050EACEC08F0050EACEC08F0AA
:1007C0000001C350C76FC450C86F000EE8CF0DF0D2
:1007D000E86AE8CF0EF0C8EC0BF0E8CF00F5010EA8
:1007E000E8CF0DF0E86AE8CF0EF0C8EC0BF0E8CFE8
:1007F00001F5E0EC0CF0FA0EBDEC0BF0FA0EBDECDE
:100800000BF0FA0EBDEC0BF0FA0EBDEC0BF0E1ECC8
:1008100008F0E6EC24F0C5EC0EF0D9EC0EF0F28E08
:10082000F28CD08E0F01D89083B6D880D8B01EEF4E
:1008300004F00A0EBDEC0BF00F01D89083B6D880FF
:10084000D8B034EF04F00F01D89084B2D880D8B07B
:100850002FEF04F00A0EBDEC0BF00F01D89084B21C
:10086000D880D8A056EF04F0B2EC1EF00201A50E1D
:10087000A76341EF04F0E70EA86341EF04F045EFF2
:1008800004F06EEC32F0E9EC0BF000C2E8FF2DEC66
:100890001FF00301AD510201A56F09EC0BF084ECD0
:1008A0000AF00101F20E066FC1EC0AF00F01D890B8
:1008B00084B2D880D8A056EF04F00A0EBDEC0BF03D
:1008C0000F01D89084B2D880D8A056EF04F0808869
:1008D000D2C2E8FFE8666EEF04F080989298040EAA
:1008E000ACEC08F0040EACEC08F00001C350C56F8E
:1008F000C450C66F050EACEC08F0050EACEC08F069
:100900000001C350C76FC450C86F0F01D89084B4A2
:10091000D880D8B091EF04F00A0EBDEC0BF00F01B7
:10092000D89084B4D880D8B0A7EF04F00F01D89045
:1009300083B6D880D8B0A2EF04F00A0EBDEC0BF05D
:100940000F01D89083B6D880D8A0D4EF07F0020169
:10095000A0C20AF00201FF0E0AB0A56FA56114EF54
:1009600005F00301A6A1F4EF04F00F0183BEF4EF3C
:1009700004F0800E2FEC0DF0000EF86E660EF76E90
:100980004C0EF66EA5EC0DF0C00E2FEC0DF0000E27
:10099000F86E650EF76EF20EF66EA5EC0DF00F0117
:1009A000D89084B4D880D8B0DBEF04F00A0EBDEC48
:1009B0000BF00F01D89084B4D880D8B0CFEF04F0FA
:1009C0000F01D89084B4D880D8A0E0EF04F00A0ECC
:1009D000BDEC0BF00F01D89084B4D880D8A0E0EF24
:1009E00004F0C80EBDEC0BF00201D1B1FBEF04F036
:1009F000D1A314EF05F0800E00019D6F85EC31F05E
:100A0000D89055EC27F0D8B00BEF05F00201FF0E9F
:100A1000A56F14EF05F009EC0BF084EC0AF0C1ECC3
:100A20000AF00A0EBDEC0BF00001010E366EA3C2F7
:100A300052F0A4C253F00201A25100014D6E89ECA4
:100A400023F085EC1FF0FCAE29EF05F00F01939425
:100A50008194000133B049EF05F0010E3662AFEF2B
:100A600005F00001050EE8CF5DF0070E50EC0AF02E
:100A7000020E366E0001A5510201006342EF05F03F
:100A8000AFEF05F0006F2DEC1FF085EC1FF0AFEF1E
:100A900005F0010E366E2AEC23F01DEC18F059EC2F
:100AA00007F00201A1A17AEF05F00301B6519EEC17
:100AB00024F0D8A07AEF05F00201B76772EF05F0D5
:100AC000ABC073F0ACC074F0ADC075F0AEC076F0E2
:100AD000AFC077F0B0C078F0B1C079F0B2C07AF0B2
:100AE0007AEF05F0F08CF086A290E868E8CFEEF09F
:100AF00080EF05F0F09CF086A280E86AE8CFEEF087
:100B00000201A0B19FEF05F04FEC17F0D8B49FEFB2
:100B100005F0DCEC19F06FEC19F0A9EC1BF03BECE4
:100B20001CF03AEC1AF0BFEC21F0DDEC1FF0C7EC42
:100B300021F020EC1BF00001E9675CEC10F062ECA6
:100B400003F01CEC1DF07EEC0EF00001A267ADEF8F
:100B500005F00A0EA26FF7EC05F023EF05F0800E0A
:100B60002FEC0DF0000EF86E670EF76E7E0EF66E2F
:100B7000A5EC0DF0C00E2FEC0DF0000EF86E650E1A
:100B8000F76EF20EF66EA5EC0DF0A1EC1EF0D8A0FB
:100B9000CCEF05F060EC25F01DEC18F0DCEC19F062
:100BA0006FEC19F0A9EC1BF03BEC1CF03AEC1AF0DE
:100BB000BFEC21F0DDEC1FF0C7EC21F020EC1BF0C6
:100BC0001CEC1DF07EEC0EF023EF05F00001100E82
:100BD0000B6EC00E2FEC0DF0000EE16E030EE26EF8
:100BE000E65020EC0DF00B2EF0EF05F012000001A6
:100BF000840E2FEC0DF0200E20EC0DF00201520EB1
:100C0000A5BF200E000120EC0DF00601CE519EEC98
:100C100024F0410ED8A0200E20EC0DF00301B251BB
:100C20009EEC24F04D0ED8B02D0E20EC0DF00301FB
:100C3000B3519EEC24F04D0ED8B02D0E20EC0DF0EB
:100C40000301B4519EEC24F04D0ED8B02D0E20ECD3
:100C50000DF0200E20EC0DF0800E2FEC0DF0B9C23F
:100C60000DF0BAC20EF00E6A0001640E0F6E000E97
:100C7000106E87EC10F013C011F014C012F08BC08E
:100C80000DF08CC00EF013C20FF014C210F087EC00
:100C900010F01450E8CF13F01550E8CF14F0156A97
:100CA000010111B164EF06F000011150135C125004
:100CB0001458E8AE64EF06F0C90E00015D6E050E33
:100CC00050EC0AF001011169000135EC0EF0200E24
:100CD000E8CF0AF0300E25640AC025F0255020EC3C
:100CE0000DF0265020EC0DF02E0E20EC0DF02750CC
:100CF00020EC0DF00301B6519EEC24F0D8A08AEF51
:100D000006F0800E2FEC0DF000C513F001C514F0B5
:100D10000BEC0EF00201B8AFA3EF06F0B86B000EBB
:100D2000E8CF0DF0E86AE8CF0EF000C5E8FFD3EC9D
:100D30000BF0010EE8CF0DF0E86AE8CF0EF001C528
:100D4000E8FFD3EC0BF082EC07F0D8B0CDEF06F063
:100D500093EC07F0D8B0CDEF06F0EBEC24F0D8B070
:100D6000CDEF06F0BDEC23F00001A351E812D8A4AA
:100D7000CDEF06F00201A0A1CBEF06F0C00E2FECE4
:100D80000DF0000EF86E660EF76E0C0EF66EA5EC0A
:100D90000DF0CDEF06F0E6EC05F0000133B4E8EF1E
:100DA00006F035A4E8EF06F03594010E5D6E050EF1
:100DB00050EC0AF000015466E7EF06F0542ABEC377
:100DC00058F0BFC359F0CA6BCB6BE8EF06F054067E
:100DD000000154A01BEF07F059661BEF07F03B0E14
:100DE0005A62FAEF06F0050E5D6E0A0E50EC0AF03C
:100DF0001BEF07F01E0E5A6205EF07F0030E5D6E43
:100E00000A0E50EC0AF01BEF07F00A0E5A6210EFC0
:100E100007F0010E5D6E0A0E50EC0AF01BEF07F0B2
:100E2000060E5A601BEF07F0010E5D6E0A0E50ECC5
:100E30000AF01BEF07F07F0E5A6E5650CE6F5750D8
:100E4000CF6F010E546244EF07F058505910D8B4D8
:100E500033EF07F05850CE6F5950CF6F000E03019B
:100E6000BD6344EF07F0020E0301BD5DD8B440EF4F
:100E700007F00001CA51CE6FCB51CF6F44EF07F09E
:100E8000E86A0001CE6FCF6F00018B0E2FEC0DF0E2
:100E9000CF51E8CF13F0146A156A166A03EC0EF00E
:100EA0003A0E20EC0DF0CE51E8CF13F003EC0EF02B
:100EB00012000301C0519EEC24F0D8A07FEF07F090
:100EC0000301000EC1657CEF07F000017ABF7FEFE0
:100ED00007F00301C15100010D6E0E6A00010A0EF8
:100EE0000F6E000E106E87EC10F07951135E7A5180
:100EF000145CD8B07FEF07F00001E7691200000131
:100F0000E76B1200D8900001CCAF1200C00E2FEC9E
:100F10000DF0000EF86E660EF76EB80EF66EA5ECCC
:100F20000DF0D88012000D0EACEC08F00D0EACECFC
:100F300008F069C00DF06AC00EF0A9C20FF0AAC295
:100F400010F087EC10F000011450136E1550146E61
:100F50001650156E166A35EC0EF00001255026105D
:100F60000F0BD890D8B41200C00E2FEC0DF0000E6D
:100F7000F86E660EF76EA60EF66EA5EC0DF0CB0EB3
:100F80002FEC0DF00001255020EC0DF0265020EC48
:100F90000DF02E0E20EC0DF0275020EC0DF0285017
:100FA00020EC0DF0D88012000F01D89084B4D880C6
:100FB000D8A0D4EF07F00A0EBDEC0BF00F01D890CB
:100FC00084B4D880D8A0D4EF07F00F01D89083B6AE
:100FD000D880D8A0E5EF07F00A0EBDEC0BF00F01AA
:100FE000D89083B6D880D8A0E5EF07F0800E2FEC1C
:100FF0000DF00F018350C2EC0DF00F018450C2ECD4
:101000000DF0C00E2FEC0DF00F018650C2EC0DF06C
:101010000F018750C2EC0DF00F018350828681844E
:10102000E8B08296E8B281948098E8B48088320E65
:10103000BDEC0BF00F01D89084B4D880D8B026EF67
:1010400008F00A0EBDEC0BF00F01D89084B4D880E4
:10105000D8B0F6EF07F00F01D89084B4D880D8A0AC
:101060002BEF08F00A0EBDEC0BF00F01D89084B402
:10107000D880D8A02BEF08F0C00E2FEC0DF0000E9A
:10108000F86E650EF76E620EF66EA5EC0DF00001BF
:101090000D6A800E2FEC0DF0000EF86E650EF76EE7
:1010A000980EF66EA5EC0DF0870E2FEC0DF00001FA
:1010B0000D50CFEC0DF0ACEC08F08C0E2FEC0DF0D9
:1010C0000F01C4CFE8FFCFEC0DF00F01C3CFE8FF55
:1010D000CFEC0DF0320EBDEC0BF00F01D89084B4C4
:1010E000D880D8B079EF08F00A0EBDEC0BF00F01F4
:1010F000D89084B4D880D8B049EF08F00F01D890C8
:1011000084B4D880D8A07EEF08F00A0EBDEC0BF0B6
:101110000F01D89084B4D880D8A07EEF08F00001E9
:101120000D2A0C0E0D6449EF08F0F6EF07F00001F0
:10113000136A146A156A166A0A6E0B6A0A50ACECD6
:1011400008F00001C3501326C4501422D8B0152A49
:101150000B2E9EEF08F012000A6EA10EC06E000E5C
:10116000C16E0AC0E8FF31EC02F0E8AEC188E89E2B
:10117000E844E844C26EC2800000C282C2B2BEEF40
:1011800008F00001C3CF69F0C4CF6AF00AC0E8FFDD
:1011900012000F01C282C2B2CBEF08F00001C350AF
:1011A0006927C4506A231200ACEC08F0C9EC08F0BF
:1011B000C9EC08F0C9EC08F000016A336A9F693392
:1011C000120000014C6A566A576A280EE8CF55F0A3
:1011D0000001900E526E010E536E0001900E4E6E85
:1011E000010E4F6E506A516A100E0001E8CF4DF0AB
:1011F000386A3A6A3C6A3E6A406A426A446A466AA7
:10120000486A4A6A080EE8CF39F0E8CF3BF0E8CFE9
:101210003DF0E8CF3FF0E8CF41F0E8CF43F0E8CF32
:1012200045F0E8CF47F0E8CF49F0E8CF4BF0979E84
:10123000858E000152500F01E8CFBBFF01015350D2
:101240000F01E8CFBCFF0A0E0F01E8CFBAFF0F0174
:10125000A0800F019E900F01080EE8CFB1FFB18072
:1012600012000001EEA1857E0201BAAF3BEF09F04A
:10127000877043EF09F00001E5B142EF09F0878084
:1012800043EF09F087900001BBCFE8FF4E26BCCFAB
:10129000E8FF4F224EC0E8FFE8CFBBFF4FC0E8FF9A
:1012A000E8CFBCFF0001E86A4C64BAEC09F0000129
:1012B0004C2A4CC0E8FFFE0B4D6070EF09F04C6A01
:1012C000500EE8CF4EF050C0E8FF4E5EC30EE8CFA0
:1012D0004FF051C0E8FF4F5A506A516AB7EF09F01A
:1012E0004CA085EF09F052C0E8FFE8CF4EF053C0A4
:1012F000E8FFE8CF4FF0BAC2E8FF0001E5814C6299
:10130000B1EF09F0E591B1EF09F0120E4C629DEFDB
:1013100009F050C0E8FFE8CF4EF051C0E8FFE8CF39
:101320004FF04F324E324F324E324F324E324F32FA
:101330004E320F0E4F16B1EF09F0040EE8CFEAFF60
:10134000000EE8CFE9FF4CC0E8FFE830E89EE80473
:10135000E92600EC02F052C0E8FF4E5E53C0E8FF01
:101360004F5A4EC0E8FF50264FC0E8FF51220F01F0
:10137000A1901200B3EC0EF0BDEC0EF00001010ED6
:101380003662C9EF09F000018286BDB18296FF0E78
:10139000BD6F87900301CDBFD1EF09F0859ED2EFDD
:1013A00009F0858E0001552E18EF0AF0E9EC24F0C3
:1013B000000154A008EF0AF00001FF0EE76308EFF8
:1013C0000AF058C0E8FF5910D8B400EF0AF0586688
:1013D000EDEF09F03C0E586E5906580658505A6EFB
:1013E0000301E86ABD11D8B400EF0AF000015850BB
:1013F0005910D8B400EF0AF0CA6BCB6B08EF0AF0B3
:101400000001CA2B3C0ECA6308EF0AF0CA6BCB2B53
:10141000280EE8CF55F0562A3C0E566218EF0AF017
:10142000566A572A0501002BD8B4012B0201B8696E
:101430000201A1A121EF0AF0530EE5EC0EF000012C
:10144000A86B000183CFE8FF311AD8A4306E316E4B
:1014500030C0E8FF3212000184CFE8FF341AD8A46C
:10146000336E346E33C0E8FF351200015E665E06EF
:101470005F665F0660676007A167A107A267A207B2
:10148000A367A3075C6646EF0AF012005C2E120009
:1014900080785D4E12005BC0E8FFE8CF5CF0120080
:1014A000E8CF5BF0E8CF5CF0D2C2E8FFE8665BEF24
:1014B0000AF0808812008098120000010ABE64EFD2
:1014C0000AF0819E65EF0AF0818E828A829A0A462E
:1014D0000B2E5DEF0AF012000201AD510A6E080EEC
:1014E0000B6E5DEC0AF00201AC510A6E080E0B6E39
:1014F0005DEC0AF00201AB510A6E080E0B6E5DEC5A
:101500000AF08686869612000BC113F00CC114F007
:101510000DC115F009C117F00AC118F08BEC11F0DC
:101520000201A55101010F03F35000011326D8B0A9
:10153000142AD8B0152A0101006B016B026B00015F
:101540001350E846E846E880E8921F0B13B6E88E91
:101550000101006F000113361436153613361436A8
:101560001536133614361536133614361536145010
:101570000101016F000115501F0B01011009026FDD
:10158000120084EC0AF0010108510A6E080E0B6E7D
:101590005DEC0AF0010107510A6E080E0B6E5DEC5E
:1015A0000AF0010106510A6E080E0B6E5DEC0AF09E
:1015B00086868696010105510A6E080E0B6E5DEC5B
:1015C0000AF0010104510A6E080E0B6E5DEC0AF080
:1015D000010103510A6E080E0B6E5DEC0AF086865F
:1015E0008696010102510A6E080E0B6E5DEC0AF040
:1015F000010101510A6E080E0B6E5DEC0AF001014B
:1016000000510A6E080E0B6E5DEC0AF08686869617
:1016100012000F01939E949A939C819C819E829AC2
:10162000989686960201D1A138EF0BF0D1B338EF2E
:101630000BF004C206F105C207F106C208F101C2AF
:1016400003F102C204F103C205F10101700E0B6F38
:10165000C60E0C6F000E0D6F0101140E096F000E07
:101660000A6F01010E6B0A0E106F010E0F6F120050
:101670000201D1B15EEF0BF0D1A35EEF0BF00AC215
:1016800006F10BC207F10CC208F107C203F108C250
:1016900004F109C205F101016C0E0B6FCF0E0C6F46
:1016A000000E0D6F0101640E096F000E0A6F01013B
:1016B0000E6B080E106F010E0F6F12000201D1B1F8
:1016C00085EF0BF0D1B385EF0BF010C206F111C21C
:1016D00007F112C208F10DC203F10EC204F10FC2EC
:1016E00005F101014A0E0B6F190E0C6F010E0D6F03
:1016F00001010A0E096F000E0A6F01010B0E0E6F39
:10170000320E106F020E0F6F1200120087B2A4EF9C
:101710000BF0D5AE96EF0BF0D6CFC1F0D7CFC2F01D
:101720000001C32BD8B4C42BF09012000001C351A8
:10173000C411F090D8A41200E86AE8CFD7FFE8CF30
:10174000D6FFD58EF0901200F17AF0ACB6EF0BF028
:101750000301CDA1B2EF0BF0F1AA859EF1BA858EFF
:10176000B6EF0BF0F1AA858EF1BA859EF0901200CB
:101770000000E82EB8EF0BF012000A6EFA0EB8EC7B
:101780000BF0FA0EB8EC0BF00A2EBEEF0BF01200C5
:101790000EC0E8FFAA6E0DC0E8FFA96EA69EA69C2B
:1017A000A680A8501200A86E0EC0E8FFAA6E0DC059
:1017B000E8FFA96EA69EA69CA684F29E550EA76E73
:1017C000AA0EA76EA682F28EA1A8E4EF0BF0A19854
:1017D0001200800E2FEC0DF0000EF86E660EF76E04
:1017E0005E0EF66EA5EC0DF0C00E2FEC0DF0000EA7
:1017F000F86E650EF76EE00EF66EA5EC0DF09EEC41
:1018000027F0D8A029EF0CF0C00E2FEC0DF0000E41
:10181000F86E660EF76E700EF66EA5EC0DF06EECBF
:1018200032F0C7EC1EF00001600E9E6F00C2E8FFB0
:1018300058EC1FF00201002B0301072B3A0E07633F
:1018400025EF0CF0062B300E076F00019E2F16EFD0
:101850000CF0B2EC1EF000C2E8FF2DEC1FF01200FD
:1018600000011550F86E1450F76E1350F66E00011B
:101870000E50E26E0D50E16E0900F550E66E0A065C
:101880000900F550E66E0A2E3CEF0CF01200000144
:101890001550F86E1450F76E1350F66EA68EA69C77
:1018A000A684A688F29E550EA76EAA0EA76EA682E3
:1018B0000000F28E0001400E1326000E14221522A5
:1018C0000A2E47EF0CF0120062EC03F000011550F5
:1018D000F86E1450F76E1350F66EA68EA69CA68472
:1018E000A688F29E550EA76EAA0EA76EA682F28E4D
:1018F0000A0000010E50E26E0D50E16E400E0B6EBC
:10190000E6CFE8FFF56E0F000B2EFAD7A68EA69C49
:10191000A684F29E550EA76EAA0EA76EA682F28E20
:10192000A6940001400E1326000E14221522000179
:10193000400E0D26000E0E220A2E64EF0CF012004F
:1019400000011550F86E1450F76E1350F66EA68E07
:10195000A69CA684A688F29E550EA76EAA0EA76E18
:10196000A6820000F28E0A00080E0B6E00010E50D7
:10197000E26E0D50E16E080E0C6EE6CFE8FFF56EDC
:101980000F000C2EFAD7A68EA69CA684F29E550EAA
:10199000A76EAA0EA76EA6820000F28E0B2EEBD7C2
:1019A000A6940001400E1326000E142215220001F9
:1019B000400E0D26000E0E220A2EA0EF0CF0120093
:1019C0000F019A6A886A9396939A93988186818A7E
:1019D0008188140EBDEC0BF0380E2FEC0DF0050EC7
:1019E000BDEC0BF0380E2FEC0DF0010EBDEC0BF042
:1019F000380E2FEC0DF0010EBDEC0BF0380E2FEC75
:101A00000DF0060E2FEC0DF00E0E2FEC0DF0010E6A
:101A10002FEC0DF0800E2FEC0DF0800E2FEC0DF062
:101A2000650EF76E740EF66EA5EC0DF0C00E2FEC81
:101A30000DF0650EF76E860EF66EA5EC0DF0120039
:101A40003EEC0DF052EC0DF0818A81980000000010
:101A500081860000000081960000000012003EEC2C
:101A60000DF052EC0DF0819A819800000000818603
:101A700000000000819600000000120045EC0DF00F
:101A8000D8B03EEF0DF09A6A12009A688188819A68
:101A900000000000818600000000D89088B0D88047
:101AA00081961200886AE8B08888E8B2888AE8B42B
:101AB000888CE8B6888EE8B88886E8BA8884E8BC5E
:101AC0008882E8BE888012001010101010101010CC
:101AD00018181818181818181C1C1C1C1C1C1C1C66
:101AE0001E1E1E1E1E1E1E1E0101010101010101FE
:101AF0000303030303030303070707070707070796
:101B00000F0F0F0F0F0F0F0F800E2FEC0DF00DC0EA
:101B1000F6FF0EC0F7FFF86AA5EC0DF01200C00E3C
:101B20002FEC0DF00DC0F6FF0EC0F7FFF86AA5EC24
:101B30000DF01200C00E2FEC0DF0CEC0F6FFCFC09E
:101B4000F7FFF86AA5EC0DF01200100EA8EF0DF0EB
:101B50000A6E0900F5CFE8FFE812D8B4C1EF0DF026
:101B600020EC0DF00A4EC1EF0DF00900F5CFE8FFB3
:101B7000E812D8B4C1EF0DF020EC0DF00A2EA9EF59
:101B80000DF012000A6E080E0B6E300E0ABE310EFA
:101B900020EC0DF00A360B2EC5EF0DF012000A6E88
:101BA0003A0E0B6E0AC0E8FFF00BE842E842E8424A
:101BB000E84230090B64070F20EC0DF00AC0E8FF83
:101BC0000F0B30090B64070F20EC0DF00AC0E8FF83
:101BD000120035EC0EF0255020EC0DF0265020ECD4
:101BE0000DF0275020EC0DF0285020EC0DF029507E
:101BF00020EC0DF0120035EC0EF0EEEF0DF035ECB0
:101C00000EF0F1EF0DF035EC0EF0F4EF0DF035ECD9
:101C10000EF0F7EF0DF035EC0EF01FEC0EF0255046
:101C200020EC0DF0265020EC0DF0275020EC0DF0AC
:101C3000285020EC0DF0295020EC0DF0120000018E
:101C4000300E25621200200E256E300E2662120024
:101C5000200E266E300E27621200200E276E300EE8
:101C600028621200200E286E12000001196A1A6AFA
:101C7000100E176E270E186E8BEC11F0300E13102D
:101C8000256E1BC013F01CC014F01DC015F01EC043
:101C900016F0196A1A6AE80E176E030E186E8BECAE
:101CA00011F0300E1310266E1BC013F01CC014F080
:101CB0001DC015F01EC016F0196A1A6A640E176E60
:101CC000000E186E8BEC11F0300E1310276E1BC037
:101CD00013F01CC014F01DC015F01EC016F0196AD8
:101CE0001A6A0A0E176E000E186E8BEC11F0300E89
:101CF0001310286E300E1B10296E12000001310ED9
:101D0000376287EF0EF0B2EC1EF0B1EF0EF0320E3C
:101D1000376291EF0EF000C2E8FF2DEC1FF0B1EF3B
:101D20000EF0330E376299EF0EF0C7EC1EF0B1EFF4
:101D30000EF0340E3762A1EF0EF000C2E8FF58EC4F
:101D40001FF0350E3762B1EF0EF00001FF0E0D6E81
:101D5000030E0E6EE8CF0EF0FF0ED3EC0BF0B1EFDA
:101D60000EF0376A12000F01ABA21200AB98AB88DD
:101D70000F01AE500001616B12000F016BA2120047
:101D80006B986B880F016E5012000C0EE8CFAFFFFE
:101D9000220EE8CFACFF900EE8CFABFF0001616BE5
:101DA0009F9A9D8A1200ACA2D3EF0EF0E8CFADFF50
:101DB0001200000EE8CF6FFF220EE8CF6CFF900EEE
:101DC000E8CF6BFFA59AA38A12006CA2E5EF0EF094
:101DD000E8CF6DFF1200E1CF21F0E2CF22F0000149
:101DE00065C0E1FF000164C0E2FF686BACA2F6EFE2
:101DF0000EF0E6CFE8FF00016827E8CFADFF000155
:101E0000662FF6EF0EF021C0E1FF22C0E2FF1200C4
:101E1000E1CF21F0E2CF22F0000165C0E1FF000137
:101E200064C0E2FF686B0001050E5E6EE86A5E64E6
:101E300027EF0FF09EAA17EF0FF0AECFE8FFE8CF25
:101E4000E6FF000168270001662F13EF0FF021C0A5
:101E5000E1FF22C0E2FF12009EAA12000001000E64
:101E600061633FEF0FF0AECFE8FFE8CF62F0550EB1
:101E700062631200280EE8CF5FF0612B1200010EA2
:101E8000616349EF0FF0AECFE8FFE8CF63F0612B5D
:101E90001200020E616353EF0FF0AECFE8FFE8CF00
:101EA00064F0612B1200030E61635DEF0FF0AECFA3
:101EB000E8FFE8CF65F0612B1200040E616366EF66
:101EC0000FF0AECFE8FFE8CF66F0612B050E61633F
:101ED00072EF0FF0010E636370EF0FF008EC0FF07C
:101EE000612B1200060E616395EF0FF0AECFE8FF95
:101EF000E8CF67F0020E636386EF0FF0EBEC0EF0B5
:101F000068C0E8FFD3EC0EF0616B120068C0E8FF18
:101F1000676390EF0FF00C0ED3EC0EF0616B1200C4
:101F20000D0ED3EC0EF0616B1200616B1200A4AACF
:101F300012006ECFE8FF0201A1B1CBEF0FF0530A00
:101F4000D8A412000201A0A1120000010F0E741506
:101F50001009E5EC0EF073C0E8FFE5EC0EF00001AF
:101F60000F0E76152009E5EC0EF07551E5EC0EF03C
:101F700000010F0E78153009E5EC0EF07751E5EC15
:101F80000EF000010F0E7A154009E5EC0EF07951C4
:101F9000E5EC0EF012000001A8B1D2EF0FF0AA6F2D
:101FA000A82B1200A96FA82B020EA863EBEF0FF06D
:101FB000AA51F00B100AD8A430EF10F00F0EAA1798
:101FC000AAA7E5EF0FF0F00EAA13A9C0ABF0AAC0C4
:101FD000ACF030EF10F0040EA86302EF10F0AA513D
:101FE000F00B200AD8A430EF10F00F0EAA17AAA702
:101FF000FCEF0FF0F00EAA13A9C0ADF0AAC0AEF02E
:1020000030EF10F0060EA86319EF10F0AA51F00B94
:10201000300AD8A430EF10F00F0EAA17AAA713EFBA
:1020200010F0F00EAA13A9C0AFF0AAC0B0F030EFC4
:1020300010F0080EA86330EF10F0AA51F00B400A20
:10204000D8A430EF10F00F0EAA17AAA72AEF10F0AD
:10205000F00EAA13A9C0B1F0AAC0B2F030EF10F090
:1020600012000C0E0F016F6E220E6C6E900EE8CFF8
:102070006BFF12000001E80E0D26030E0E22780EF3
:102080000D5C070E0E58D8A049EF10F0EF0E50EF80
:1020900010F00E320D320E320D320E320D320D5066
:1020A000E5EF0EF0BC0E0D5C030E0E58D8A04BEF02
:1020B00010F0EF0E50EF10F0F00EE5EC0EF0800E89
:1020C000E5EC0EF073C00DF074C00EF03AEC10F0B9
:1020D00075C00DF076C00EF03AEC10F077C00DF040
:1020E00078C00EF03AEC10F079C00DF07AC00EF026
:1020F00052EC10F07BC00DF07CC00EF052EC10F0F2
:102100007DC00DF07EC00EF052EC10F0120098EC85
:1021100010F010AE90EF10F00D50155E0E50165AE4
:102120000EAE97EF10F00F50155E1050165A1200B9
:102130000001136A146A156A166A0F500D02F3CF74
:1021400013F0F4CF14F00F500E02F3501426F45095
:102150001522D8B0162A10500D02F3501426F45050
:102160001522D8B0162A10500E02F3501526F4503E
:10217000162212000001246A1B6A14501310D8B4EE
:10218000000C14501718E8BE241EA46B000E17AEE6
:10219000CCEF10F0171E172A14AED3EF10F0131E59
:1021A000141E132A142214501710E8BE5FEF11F00A
:1021B00017501B5E143614341B3617501B2614366A
:1021C00014341B36175014B01B5E14A01B26143693
:1021D00014341B36175014B01B5E14A01B26143683
:1021E00014341B36175014B01B5E14A01B26143673
:1021F00014341B36175014B01B5E14A01B26143663
:1022000014341B36175014B01B5E14A01B26143652
:1022100014341B36175014B01B5E14A01B26143642
:1022200013341B36175014B01B5E14A01B26133634
:1022300013341B36175013B01B5E13A01B26133626
:1022400013341B36175013B01B5E13A01B26133616
:1022500013341B36175013B01B5E13A01B26133606
:1022600013341B36175013B01B5E13A01B261336F6
:1022700013341B36175013B01B5E13A01B261336E6
:1022800013341B36175013B01B5E13A01B261336D6
:1022900013341B36175013B01B5E13A01B261336C6
:1022A00013A01B26A4B17DEF11F024AE000C131E69
:1022B000141EE86A132A14221B1E1B2A000C17AED8
:1022C00078EF11F014BE74EF11F0E8CF9DF01350C9
:1022D000E8CF1BF01B9E133614361450E8CF13F0D2
:1022E0009D51146A55EF11F0136A132A146A000CF9
:1022F000141E131EA42BD8EF10F01B2A17501B62BC
:1023000055EF11F01B6A000E132A142214AE55EF7C
:1023100011F02388FF0C0001246A1C6A1B6A155007
:1023200014101310D8B4000C15501818E8BE241E51
:10233000A46B000E18AEA1EF11F0171E181E172A7D
:10234000182215AEAAEF11F0131E141E151E132A23
:102350001422152215501810E8BE34EF13F0175050
:102360001B5E18501C5A153615341B361C36175078
:102370001B2618501C22153615341B361C361750D8
:1023800015A0C8EF11F01B5E18501C5ACBEF11F0CE
:102390001B2618501C22153615341B361C361750B8
:1023A00015A0D8EF11F01B5E18501C5ADBEF11F08E
:1023B0001B2618501C22153615341B361C36175098
:1023C00015A0E8EF11F01B5E18501C5AEBEF11F04E
:1023D0001B2618501C22153615341B361C36175078
:1023E00015A0F8EF11F01B5E18501C5AFBEF11F00E
:1023F0001B2618501C22153615341B361C36175058
:1024000015A008EF12F01B5E18501C5A0BEF12F0CB
:102410001B2618501C22153615341B361C36175037
:1024200015A018EF12F01B5E18501C5A1BEF12F08B
:102430001B2618501C22153614341B361C36175018
:1024400015A028EF12F01B5E18501C5A2BEF12F04B
:102450001B2618501C22143614341B361C361750F9
:1024600014A038EF12F01B5E18501C5A3BEF12F00C
:102470001B2618501C22143614341B361C361750D9
:1024800014A048EF12F01B5E18501C5A4BEF12F0CC
:102490001B2618501C22143614341B361C361750B9
:1024A00014A058EF12F01B5E18501C5A5BEF12F08C
:1024B0001B2618501C22143614341B361C36175099
:1024C00014A068EF12F01B5E18501C5A6BEF12F04C
:1024D0001B2618501C22143614341B361C36175079
:1024E00014A078EF12F01B5E18501C5A7BEF12F00C
:1024F0001B2618501C22143614341B361C36175059
:1025000014A088EF12F01B5E18501C5A8BEF12F0CB
:102510001B2618501C22143614341B361C36175038
:1025200014A098EF12F01B5E18501C5A9BEF12F08B
:102530001B2618501C22143613341B361C36175019
:1025400014A0A8EF12F01B5E18501C5AABEF12F04B
:102550001B2618501C22133613341B361C361750FA
:1025600013A0B8EF12F01B5E18501C5ABBEF12F00C
:102570001B2618501C22133613341B361C361750DA
:1025800013A0C8EF12F01B5E18501C5ACBEF12F0CC
:102590001B2618501C22133613341B361C361750BA
:1025A00013A0D8EF12F01B5E18501C5ADBEF12F08C
:1025B0001B2618501C22133613341B361C3617509A
:1025C00013A0E8EF12F01B5E18501C5AEBEF12F04C
:1025D0001B2618501C22133613341B361C3617507A
:1025E00013A0F8EF12F01B5E18501C5AFBEF12F00C
:1025F0001B2618501C22133613341B361C3617505A
:1026000013A008EF13F01B5E18501C5A0BEF13F0C9
:102610001B2618501C22133613341B361C36175039
:1026200013A018EF13F01B5E18501C5A1BEF13F089
:102630001B2618501C22133613B023EF13F017502B
:102640001B2618501C22A4B158EF13F024AE000C26
:10265000131E141E151E000E132A142215221B1EF3
:102660001C1E1B2A1C22000C18AE52EF13F015BEC4
:102670004DEF13F0E8CF9DF01450E8CF1CF013504D
:10268000E8CF1BF01C9E143615361550E8CF13F01A
:102690009D51156A146A26EF13F0136A132A146AFF
:1026A000156A000C151E141E131EA42BAFEF11F09B
:1026B0001B2AE86A1C2217501B6226EF13F01850E1
:1026C0001C6226EF13F01C6A1B6A000E132A1422E8
:1026D000152215AE26EF13F02388FF0C1E6A1D6A23
:1026E0001C6A1B6A16341B361C361D361E361750E4
:1026F0001B5E18501C5A19501D5A1A501E5AA46AB3
:10270000A45B163616341B361C361D361E36A4370F
:10271000175016A097EF13F01B5E18501C5A195053
:102720001D5A1A501E5AE86AA45BA0EF13F01B262C
:1027300018501C2219501D221A501E22E86AA42388
:10274000163616341B361C361D361E36A437175067
:1027500016A0B6EF13F01B5E18501C5A19501D5AE4
:102760001A501E5AE86AA45BBFEF13F01B261850DC
:102770001C2219501D221A501E22E86AA423163664
:1027800016341B361C361D361E36A437175016A0BD
:10279000D5EF13F01B5E18501C5A19501D5A1A50D1
:1027A0001E5AE86AA45BDEEF13F01B2618501C22A9
:1027B00019501D221A501E22E86AA4231636163418
:1027C0001B361C361D361E36A437175016A0F4EFE4
:1027D00013F01B5E18501C5A19501D5A1A501E5ADD
:1027E000E86AA45BFDEF13F01B2618501C22195059
:1027F0001D221A501E22E86AA423163616341B36F0
:102800001C361D361E36A437175016A013EF14F0D1
:102810001B5E18501C5A19501D5A1A501E5AE86A4D
:10282000A45B1CEF14F01B2618501C2219501D220B
:102830001A501E22E86AA423163616341B361C369C
:102840001D361E36A437175016A032EF14F01B5E4B
:1028500018501C5A19501D5A1A501E5AE86AA45B87
:102860003BEF14F01B2618501C2219501D221A5041
:102870001E22E86AA423163616341B361C361D3673
:102880001E36A437175016A051EF14F01B5E1850D7
:102890001C5A19501D5A1A501E5AE86AA45B5AEF66
:1028A00014F01B2618501C2219501D221A501E22EB
:1028B000E86AA423163615341B361C361D361E3620
:1028C000A437175016A070EF14F01B5E18501C5A56
:1028D00019501D5A1A501E5AE86AA45B79EF14F079
:1028E0001B2618501C2219501D221A501E22E86A5D
:1028F000A423153615341B361C361D361E36A43758
:10290000175015A08FEF14F01B5E18501C5A195069
:102910001D5A1A501E5AE86AA45B98EF14F01B2641
:1029200018501C2219501D221A501E22E86AA42396
:10293000153615341B361C361D361E36A437175077
:1029400015A0AEEF14F01B5E18501C5A19501D5AFA
:102950001A501E5AE86AA45BB7EF14F01B261850F1
:102960001C2219501D221A501E22E86AA423153673
:1029700015341B361C361D361E36A437175015A0CD
:10298000CDEF14F01B5E18501C5A19501D5A1A50E6
:102990001E5AE86AA45BD6EF14F01B2618501C22BE
:1029A00019501D221A501E22E86AA4231536153428
:1029B0001B361C361D361E36A437175015A0ECEFFB
:1029C00014F01B5E18501C5A19501D5A1A501E5AEA
:1029D000E86AA45BF5EF14F01B2618501C2219506E
:1029E0001D221A501E22E86AA423153615341B3600
:1029F0001C361D361E36A437175015A00BEF15F0E8
:102A00001B5E18501C5A19501D5A1A501E5AE86A5B
:102A1000A45B14EF15F01B2618501C2219501D2220
:102A20001A501E22E86AA423153615341B361C36AC
:102A30001D361E36A437175015A02AEF15F01B5E61
:102A400018501C5A19501D5A1A501E5AE86AA45B95
:102A500033EF15F01B2618501C2219501D221A5056
:102A60001E22E86AA423153615341B361C361D3683
:102A70001E36A437175015A049EF15F01B5E1850ED
:102A80001C5A19501D5A1A501E5AE86AA45B52EF7C
:102A900015F01B2618501C2219501D221A501E22F8
:102AA000E86AA423153614341B361C361D361E3630
:102AB000A437175015A068EF15F01B5E18501C5A6C
:102AC00019501D5A1A501E5AE86AA45B71EF15F08E
:102AD0001B2618501C2219501D221A501E22E86A6B
:102AE000A423143614341B361C361D361E36A43768
:102AF000175014A087EF15F01B5E18501C5A195080
:102B00001D5A1A501E5AE86AA45B90EF15F01B2656
:102B100018501C2219501D221A501E22E86AA423A4
:102B2000143614341B361C361D361E36A437175087
:102B300014A0A6EF15F01B5E18501C5A19501D5A10
:102B40001A501E5AE86AA45BAFEF15F01B26185006
:102B50001C2219501D221A501E22E86AA423143682
:102B600014341B361C361D361E36A437175014A0DD
:102B7000C5EF15F01B5E18501C5A19501D5A1A50FB
:102B80001E5AE86AA45BCEEF15F01B2618501C22D3
:102B900019501D221A501E22E86AA4231436143438
:102BA0001B361C361D361E36A437175014A0E4EF12
:102BB00015F01B5E18501C5A19501D5A1A501E5AF7
:102BC000E86AA45BEDEF15F01B2618501C22195083
:102BD0001D221A501E22E86AA423143614341B3610
:102BE0001C361D361E36A437175014A003EF16F0FE
:102BF0001B5E18501C5A19501D5A1A501E5AE86A6A
:102C0000A45B0CEF16F01B2618501C2219501D2235
:102C10001A501E22E86AA423143614341B361C36BC
:102C20001D361E36A437175014A022EF16F01B5E77
:102C300018501C5A19501D5A1A501E5AE86AA45BA3
:102C40002BEF16F01B2618501C2219501D221A506B
:102C50001E22E86AA423143614341B361C361D3693
:102C60001E36A437175014A041EF16F01B5E185003
:102C70001C5A19501D5A1A501E5AE86AA45B4AEF92
:102C800016F01B2618501C2219501D221A501E2205
:102C9000E86AA423143613341B361C361D361E3640
:102CA000A437175014A060EF16F01B5E18501C5A82
:102CB00019501D5A1A501E5AE86AA45B69EF16F0A3
:102CC0001B2618501C2219501D221A501E22E86A79
:102CD000A423133613341B361C361D361E36A43778
:102CE000175013A07FEF16F01B5E18501C5A195096
:102CF0001D5A1A501E5AE86AA45B88EF16F01B266C
:102D000018501C2219501D221A501E22E86AA423B2
:102D1000133613341B361C361D361E36A437175097
:102D200013A09EEF16F01B5E18501C5A19501D5A26
:102D30001A501E5AE86AA45BA7EF16F01B2618501B
:102D40001C2219501D221A501E22E86AA423133691
:102D500013341B361C361D361E36A437175013A0ED
:102D6000BDEF16F01B5E18501C5A19501D5A1A5010
:102D70001E5AE86AA45BC6EF16F01B2618501C22E8
:102D800019501D221A501E22E86AA4231336133448
:102D90001B361C361D361E36A437175013A0DCEF29
:102DA00016F01B5E18501C5A19501D5A1A501E5A04
:102DB000E86AA45BE5EF16F01B2618501C22195098
:102DC0001D221A501E22E86AA423133613341B3620
:102DD0001C361D361E36A437175013A0FBEF16F015
:102DE0001B5E18501C5A19501D5A1A501E5AE86A78
:102DF000A45B04EF17F01B2618501C2219501D224B
:102E00001A501E22E86AA423133613341B361C36CC
:102E10001D361E36A437175013A01AEF17F01B5E8D
:102E200018501C5A19501D5A1A501E5AE86AA45BB1
:102E300023EF17F01B2618501C2219501D221A5080
:102E40001E22E86AA423133613341B361C361D36A3
:102E50001E36A437175013A039EF17F01B5E185019
:102E60001C5A19501D5A1A501E5AE86AA45B42EFA8
:102E700017F01B2618501C2219501D221A501E2212
:102E8000E86AA423133613B04EEF17F017501B2631
:102E900018501C2219501D221A501E22000C0F011E
:102EA000D89083B6D880D8B05BEF17F00A0EBDEC8F
:102EB0000BF00F01D89083B6D880D8B0D1EF17F0BF
:102EC0000F01D89084B2D880D8B06CEF17F00A0EFA
:102ED000BDEC0BF00F01D89084B2D880D8B0D1EF00
:102EE00017F00001CC6793EF17F00001CC690301E4
:102EF00032C30DF033C30EF00001E80E0F6E030E67
:102F0000106E87EC10F014C01CF115C01DF1030108
:102F1000345101011C270301355101011D2334C324
:102F20001AF135C31BF1D4EC29F0D8B0A4EF17F097
:102F3000D8A4ABEF17F001011A07D8A01B071A0796
:102F4000D8A01B07ABEF17F001011A2BD8B41B2B2D
:102F50001A2BD8B41B2B1CC10DF01DC10EF00101A2
:102F60001A5100010D5E01011B5100010E5A0001B2
:102F7000000E0F6E010E106E87EC10F00001E80ECF
:102F8000176E030E186E8BEC11F013C032F314C0E1
:102F900033F31AC134F31BC135F33AEC1AF0D88479
:102FA00012000001CC67D7EF17F0D8941200CC6B59
:102FB000A2EC1FF0D894120000016951E8CF0DF087
:102FC0006A51E8CF0EF06D510D5E6E510E5AD8A0C9
:102FD000F9EF17F06B51E8CF0FF06C51E8CF10F01C
:102FE00087EC10F01450E8CF71F01550E8CF72F074
:102FF00012006F51E8CF0FF07051E8CF10F087EC5E
:1030000010F01450E8CF71F01550E8CF72F01200B4
:1030100069C00DF06AC00EF06D510D5E6E510E5A12
:103020006BC00FF06CC010F087EC10F01450E8CFBC
:1030300071F01550E8CF72F01200040EACEC08F0FD
:10304000040ED4EC08F015C26BF016C26CF017C277
:103050006DF018C26EF019C26FF01AC270F0DCEC9D
:1030600017F071C034F172C035F171C073F072C0E5
:1030700074F0050EACEC08F0050ED4EC08F01BC2A1
:103080006BF01CC26CF01DC26DF01EC26EF01FC250
:103090006FF020C270F0DCEC17F071C036F172C036
:1030A00037F171C075F072C076F0060EACEC08F026
:1030B000060ED4EC08F021C26BF022C26CF023C2E1
:1030C0006DF024C26EF025C26FF026C270F0DCEC09
:1030D00017F071C038F172C039F171C077F072C069
:1030E00078F0070EACEC08F0070EACEC08F027C245
:1030F0006BF028C26CF029C26DF02AC26EF008ECA9
:1031000018F071C03AF172C03BF171C079F072C031
:103110007AF0030EACEC08F000010F01C3CFE8FF1A
:10312000E8CF8BF0C4CFE8FFE8CF8CF0080EACEC12
:1031300008F02DC26DF02EC26EF02BC26BF02CC2C7
:103140006CF008EC18F071C083F072C084F0090EC6
:10315000ACEC08F031C26DF032C26EF02FC26BF0F1
:1031600030C26CF008EC18F071C085F072C086F0C7
:103170000A0EACEC08F035C26DF036C26EF033C208
:103180006BF034C26CF008EC18F071C087F072C0BC
:1031900088F00B0EACEC08F039C26DF03AC26EF05C
:1031A00037C26BF038C26CF008EC18F071C089F0CF
:1031B00072C08AF00301B5519EEC24F0D8A0E8EF6C
:1031C00018F00001E80E7B6F030E7C6FEDEF18F036
:1031D0000001180E7B6FFC0E7C6F000EACEC08F04B
:1031E0003BC26BF03CC26CF03DC26DF03EC26EF073
:1031F00008EC18F071C07DF072C07EF0010EACECEE
:1032000008F03FC26BF040C26CF041C26DF042C2A8
:103210006EF008EC18F071C07FF072C080F003010E
:10322000B7519EEC24F0D8A01DEF19F00001E80E74
:10323000816F030E826F37EF19F00301B9519EECD5
:1032400024F0D8A02BEF19F00001180E816FFC0EAE
:10325000826F37EF19F00301B8519EEC24F0D8A02B
:1032600037EF19F00001000E816F000E826F12001F
:103270000001106A0FBE101E87EC10F00001640EF2
:10328000176E000E186E8BEC11F013C011F014C005
:1032900012F013C00FF014C010F00EAE55EF19F07D
:1032A0000F1E101E0F2AD8B0102A87EC10F0000154
:1032B0000A0E176E000E186E8BEC11F00B50E8CF53
:1032C00017F0186A17BE181E8BEC11F011500D5E26
:1032D00012500E5A13500D2614500E2212000301E4
:1032E000AE519EEC24F073C00DF074C00EF0D8A067
:1032F00085EF19F003011B510001E8CF0FF0030126
:103300001751E8CF0BF08DEF19F003011A510001AE
:10331000E8CF0FF0640EE8CF0BF038EC19F00DC0D9
:1033200073F00EC074F00301AF519EEC24F075C031
:103330000DF076C00EF0D8A0A9EF19F003012651C8
:103340000001E8CF0FF003012251E8CF0BF0B1EFFD
:1033500019F0030125510001E8CF0FF0640EE8CF0A
:103360000BF038EC19F00DC075F00EC076F00301CB
:10337000B0519EEC24F077C00DF078C00EF0D8A0CC
:10338000CDEF19F0030131510001E8CF0FF0030137
:103390002D51E8CF0BF0D5EF19F0030130510001AA
:1033A000E8CF0FF0640EE8CF0BF038EC19F00DC049
:1033B00077F00EC078F012000301AE519EEC24F0BD
:1033C000D8A0FBEF19F073C00FF074C010F017C352
:1033D0000DF018C30EF00E6A0DBE0E1E87EC10F035
:1033E0000001640E176E000E186E8BEC11F013C006
:1033F00073F014C074F00301AF519EEC24F0D8A018
:103400001AEF1AF075C00FF076C010F022C30DF05D
:1034100023C30EF00E6A0DBE0E1E87EC10F00001E5
:10342000640E176E000E186E8BEC11F013C075F061
:1034300014C076F00301B0519EEC24F0D8A039EF0F
:103440001AF077C00FF078C010F02DC30DF02EC326
:103450000EF00E6A0DBE0E1E87EC10F00001640E19
:10346000176E000E186E8BEC11F013C077F014C0BD
:1034700078F012000201B2519BEC01F00301A75158
:1034800000010F260301A8510001102218C30DF0FE
:1034900019C30EF000010E6AFF0E0DBE0E6E87EC12
:1034A00010F00001640E176E186A196A1A6A8BEC24
:1034B00011F000010301195100010D6E0E6A0DBEDD
:1034C0000E1E0D360E360D5013260E5014221350BC
:1034D0007327145074230201B3519BEC01F00301D4
:1034E000A95100010F260301AA510001102223C394
:1034F0000DF024C30EF000010E6AFF0E0DBE0E6E1D
:1035000087EC10F00001640E176E186A196A1A6AC7
:103510008BEC11F000010301245100010D6E0E6AC5
:103520000DBE0E1E0D360E360D5013260E501422F3
:1035300013507527145076230201B4519BEC01F00F
:103540000301AB5100010F260301AC510001102211
:103550002EC30DF02FC30EF000010E6AFF0E0DBE3C
:103560000E6E87EC10F00001640E176E186A196A6F
:103570001A6A8BEC11F0000103012F5100010D6E4E
:103580000E6A0DBE0E1E0D360E360D5013260E5051
:10359000142213507727145078230201B5519BEC65
:1035A00001F036C30DF037C30EF000010E6AFF0EB6
:1035B0000DBE0E6E87EC10F00001640E176E186AD7
:1035C000196A1A6A8BEC11F00301010E376300EFE0
:1035D0001BF00001030E0E6E186EE80E0D6E176ED6
:1035E00079510D5E7A510E5A196A1A6A13C00FF09A
:1035F00014C010F087EC10F08BEC11F01AEF1BF0F8
:10360000020E37631AEF1BF0000179510D6E7A51EB
:103610000E6E13C00FF014C010F087EC10F0000114
:10362000030EE8CF18F0E80EE8CF17F0196A1A6A0F
:103630008BEC11F000011350792714507A231200FB
:1036400000010E6A08C40DF00DBE0E6800010A0EDE
:103650000F6E000E106E87EC10F01350732714508D
:10366000742300010E6A09C40DF00DBE0E6800013E
:103670000A0E0F6E000E106E87EC10F013507527B7
:103680001450762300010E6A0AC40DF00DBE0E68B8
:1036900000010A0E0F6E000E106E87EC10F0135032
:1036A00077271450782300010E6A0BC40DF00DBE6D
:1036B0000E6800010A0E0F6E000E106E87EC10F0FF
:1036C0001350792714507A2300010E6A0CC40DF0B0
:1036D0000DBE0E6800010A0E0F6E000E106E87EC14
:1036E00010F013507B2714507C2300010E6A0DC488
:1036F0000DF00DBE0E6800010A0E0F6E000E106E6A
:1037000087EC10F013507D2714507E2300010E6AC1
:103710000EC40DF00DBE0E6800010A0E0F6E000EF5
:10372000106E87EC10F013507F2714508023000197
:103730000E6A0FC40DF00DBE0E6800010A0E0F6E6A
:10374000000E106E87EC10F0135081271450822366
:10375000120000010A0E0D6E000E0E6E0301BB5129
:103760009EEC24F0D8A0F1EF1BF003014DAFC4EFA5
:103770001BF04CC30FF0106A0FBE106887EC10F0FE
:1037800013C073F014C074F003014FAFD3EF1BF0FC
:103790004EC30FF0106A0FBE106887EC10F013C014
:1037A00075F014C076F0030151AFE2EF1BF050C387
:1037B0000FF0106A0FBE106887EC10F013C077F09E
:1037C00014C078F0030153AFF1EF1BF052C30FF0B8
:1037D000106A0FBE106887EC10F013C079F014C0A7
:1037E0007AF00301BC519EEC24F0D8A034EF1CF019
:1037F000030155AF07EF1CF054C30FF0106A0FBE62
:10380000106887EC10F013C073F014C074F003015B
:1038100057AF16EF1CF056C30FF0106A0FBE1068BA
:1038200087EC10F013C075F014C076F0030159AFA7
:1038300025EF1CF058C30FF0106A0FBE106887EC1C
:1038400010F013C077F014C078F003015BAF34EFD1
:103850001CF05AC30FF0106A0FBE106887EC10F00E
:1038600013C079F014C07AF000017AAF1200E86A50
:10387000796F7A6F12000201A1B112000301B651F3
:103880009EEC24F0D8A01200000160671200020133
:103890009F510001606F0201010EB66359EF1CF0E9
:1038A000010E00015D6E050E50EC0AF0280E0001BD
:1038B000606F73C00DF074C00EF0FCEC1CF0D8A467
:1038C0008FEF1CF00201B66768EF1CF002019E51F9
:1038D000000174BF76EF1CF00301192719AF80EFC8
:1038E0001CF0D8A680EF1CF083EF1CF00301195FD9
:1038F00019BF80EF1CF0D8A680EF1CF088EF1CF0F9
:1039000019BF88EF1CF0640E1961196F8DEF1CF060
:10391000640EE81EE82A1965196FA2EC1FF075C045
:103920000DF076C00EF0FCEC1CF0D8A4C5EF1CF036
:103930000201B6679EEF1CF002019E51000176BFA6
:10394000ACEF1CF00301242724AFB6EF1CF0D8A67F
:10395000B6EF1CF0B9EF1CF00301245F24BFB6EFF3
:103960001CF0D8A6B6EF1CF0BEEF1CF024BFBEEFD3
:103970001CF0640E2461246FC3EF1CF0640EE81E7B
:10398000E82A2465246FA2EC1FF077C00DF078C000
:103990000EF0FCEC1CF0D8A4FBEF1CF00201B667A3
:1039A000D4EF1CF002019E51000178BFE2EF1CF041
:1039B00003012F272FAFECEF1CF0D8A6ECEF1CF083
:1039C000EFEF1CF003012F5F2FBFECEF1CF0D8A628
:1039D000ECEF1CF0F4EF1CF02FBFF4EF1CF0640EC2
:1039E0002F612F6FF9EF1CF0640EE81EE82A2F6597
:1039F0002F6FA2EC1FF0120000010EAE05EF1DF0BC
:103A00000D1E0E1E0D2AD8B00E2AD8900E320D3281
:103A10000E660FEF1DF0640E0D6414EF1DF0000133
:103A2000640E0D6E000E0E6E0D50E832E8321F0B64
:103A3000D8740DC0E8FF12000001BD6B000174BF17
:103A40002EEF1DF011C30DF012C30EF073C00FF076
:103A500074C010F087EC10F038EF1DF015C30DF0B6
:103A600016C30EF073C00FF074C010F087EC10F0A6
:103A700013C30DF014C30EF0000114500D261550A1
:103A80000E2282EC1EF00DC03CF00EC03DF0000195
:103A900076BF57EF1DF01CC30DF01DC30EF075C0AF
:103AA0000FF076C010F087EC10F061EF1DF020C32E
:103AB0000DF021C30EF075C00FF076C010F087EC4A
:103AC00010F01EC30DF01FC30EF0000114500D26A0
:103AD00015500E2282EC1EF00DC03AF00EC03BF0E5
:103AE000000178BF80EF1DF027C30DF028C30EF052
:103AF00077C00FF078C010F087EC10F08AEF1DF05F
:103B00002BC30DF02CC30EF077C00FF078C010F06F
:103B100087EC10F029C30DF02AC30EF000011450F9
:103B20000D2615500E2282EC1EF00DC03EF00EC088
:103B30003FF032C30DF033C30EF079C00FF07AC0FE
:103B400010F087EC10F034C30DF035C30EF0000117
:103B500014500D2615500E2282EC1EF00DC040F0C0
:103B60000EC041F03AC30DF03BC30EF07BC00FF026
:103B70007CC010F087EC10F03CC30DF03DC30EF09C
:103B8000000114500D2615500E2282EC1EF00DC0BF
:103B900042F00EC043F0F2EF1DF000017EBFDDEFFA
:103BA0001DF01CC30DF01DC30EF07DC00FF07EC0D4
:103BB00010F087EC10F0E7EF1DF020C30DF021C3EB
:103BC0000EF07DC00FF07EC010F087EC10F01EC329
:103BD0000DF01FC30EF0000114500D2615500E22DB
:103BE00005EF1EF03EC30DF03FC30EF07DC00FF099
:103BF0007EC010F087EC10F040C30DF041C30EF012
:103C0000000114500D2615500E2282EC1EF00DC03E
:103C100044F00EC045F032EF1EF0000180BF1DEFF2
:103C20001EF011C30DF012C30EF07FC00FF080C064
:103C300010F087EC10F027EF1EF015C30DF016C33F
:103C40000EF07FC00FF080C010F087EC10F013C3AF
:103C50000DF014C30EF0000114500D2615500E2265
:103C600045EF1EF042C30DF043C30EF07FC00FF0CE
:103C700080C010F087EC10F044C30DF045C30EF087
:103C8000000114500D2615500E2282EC1EF00DC0BE
:103C900046F00EC047F081C00DF082C00EF00EBE9F
:103CA0005AEF1EF046C30FF047C310F087EC10F038
:103CB00060EF1EF04AC30FF04BC310F087EC10F01A
:103CC00048C30DF049C30EF00D5014260E501522B6
:103CD00014C00DF015C00EF082EC1EF00DC048F0BF
:103CE0000EC049F00001CC6781EF1EF00301B15115
:103CF0009EEC24F0D8A081EF1EF038C340F039C309
:103D000041F012000201AE5100010D5C0201AF5101
:103D100000010E58E8AE92EF1EF0AEC20DF0AFC239
:103D20000EF012000201B05100010D5C0201B15110
:103D300000010E58E8BE1200B0C20DF0B1C20EF084
:103D40001200000133B4B0EF1EF035A4B0EF1EF046
:103D50003594010E5D6E050E50EC0AF0D88012000D
:103D6000D89012000001000E0D6E020E0E6E0001C2
:103D7000000E136E000E146E010E156EE86A0A6EC8
:103D800030EC0CF0020100510001A56F120000019F
:103D9000000E0D6E020E0E6E0001000E136E000E70
:103DA000146E010E156E040E0A6E64EC0CF0120017
:103DB000E846E8060B6E0001000E0D6E030E0E6E57
:103DC0000001000E136E000E146E010E156E0B50E6
:103DD0001426E86A1522100E0A6E30EC0CF0120060
:103DE000E846E8060B6E0001000E0D6E080E0E6E22
:103DF0000001000E136E000E146E010E156E0B50B6
:103E00001426E86A1522400E0A6E30EC0CF0000110
:103E1000000EB56F030EB66F0001000EB36F030EF8
:103E2000B46F0001080EB46F100EB76F76EC23F07C
:103E30000001000E0D6E080E0E6E0001000E136ED6
:103E4000000E146E010E156E0B501426E86A152232
:103E5000010E0A6E64EC0CF01200E846E8060B6EE8
:103E60000001000E0D6E030E0E6E0001000E136EAB
:103E7000000E146E010E156E0B501426E86A152202
:103E80000A6E30EC0CF00001000E0D6E040E0E6E8A
:103E90000001000E136E000E146E010E156E0B5015
:103EA000E82A1426E86A15220A6E30EC0CF012009B
:103EB000E846E8060C6E0001000E0D6E030E0E6E55
:103EC0000001000E136E000E146E010E156E0C50E4
:103ED0001426E86A1522040E0A6E64EC0CF0000148
:103EE000000E0D6E040E0E6E0001000E136E000E1D
:103EF000146E010E156E0C50E82A1426E86A15227D
:103F0000040E0A6E64EC0CF012000001000EB56F96
:103F1000030EB66F0001000EB36F060EB46F000EF5
:103F2000B76F76EC23F00001000EB56F040EB66F8C
:103F30000001000EB36F070EB46F000EB76F76EC82
:103F400023F0120002010051E846E8060A6E000163
:103F5000000E0D6E030E0E6E0001000E136E000EAD
:103F6000146E010E156E0A501426E86A1522010E11
:103F70000A6E64EC0CF0120073C08DF074C08EF009
:103F800075C08FF076C090F077C091F078C092F055
:103F900079C093F07AC094F07BC095F07CC096F025
:103FA0007DC097F07EC098F07FC099F080C09AF0F5
:103FB00081C09BF082C09CF01200BCEC1FF003019A
:103FC000B2519EEC24F0D8B0F8EF1FF0030EE26E71
:103FD0005C0EE16E96EC22F0610EE16E96EC22F042
:103FE000660EE16E96EC22F06B0EE16E96EC22F01E
:103FF000BCEC1FF00301B3519EEC24F0D8B019EFD4
:1040000020F0030EE26E700EE16E96EC22F0BCEC36
:104010001FF0750EE16E96EC22F0BCEC1FF07A0EEC
:10402000E16E96EC22F0BCEC1FF07F0EE16E96EC98
:1040300022F0BCEC1FF00301B4519EEC24F0D8B088
:1040400034EF20F0030EE26E840EE16E96EC22F067
:10405000890EE16E96EC22F08E0EE16E96EC22F067
:10406000930EE16E96EC22F012008DC00DF08EC022
:104070000EF010C40FF000010EBE11C40FF0106A54
:104080000FBE106887EC10F00001640E176E000E72
:10409000186E8BEC11F0000113C0E8FF912714C0DB
:1040A000E8FF922391C00DF092C00EF012C40FF001
:1040B00000010EBE13C40FF0106A0FBE106887EC2B
:1040C00010F00001640E176E000E186E8BEC11F0EC
:1040D000000113C0E8FF8D2714C0E8FF8E2391C0B4
:1040E0000DF092C00EF014C40FF000010EBE15C406
:1040F0000FF0106A0FBE106887EC10F00001640E1C
:10410000176E000E186E8BEC11F0000113C0E8FF63
:104110008F2714C0E8FF902393C00DF094C00EF0D9
:1041200016C40FF000010EBE106A0FBE106887ECB7
:1041300010F00001640E176E000E186E8BEC11F07B
:10414000000113C0E8FF8F2714C0E8FF90238DC043
:1041500073F08EC074F08FC075F090C076F091C08F
:1041600077F092C078F093C079F094C07AF00401AF
:1041700017A1C9EF20F08FC07DF090C07EF0040140
:1041800018A1C9EF20F000017D1F7E1F7D2BD8B044
:104190007E2B030198A1E6EF20F08FC00DF090C0B8
:1041A0000EF091C00FF092C010F000010DC075F03C
:1041B0000EC076F00DC077F00EC078F00F50772764
:1041C000105078230F50755F1050765B030199A152
:1041D00003EF21F08FC00DF090C00EF08DC00FF0F6
:1041E0008EC010F000010DC075F00EC076F00DC04D
:1041F00073F00EC074F00F507327105074230F50DB
:10420000755F1050765B03019AA1BEEF21F08DC05F
:104210000DF08EC00EF00DC073F00EC074F00DC026
:104220007FF00EC080F00001640E176E000E186E55
:1042300003019C51E812D8B467EF21F0E8BE45EFC6
:1042400021F0640800010F6E106A74BF36EF21F090
:1042500073C00DF074C00EF087EC10F08BEC11F011
:1042600013C073F014C074F067EF21F000017FC039
:104270000DF080C00EF087EC10F08BEC11F013C045
:104280007FF014C080F067EF21F0640F00010F6E23
:10429000106A74AF5AEF21F073C00DF074C00EF0C5
:1042A00087EC10F08BEC11F013C073F014C074F0B5
:1042B00067EF21F000017FC00DF080C00EF087ECA9
:1042C00010F08BEC11F013C07FF014C080F00301EC
:1042D0009BA171EF21F000017F1F801F7F2BD8B0C1
:1042E000802B0001640E176E000E186E03019D51A5
:1042F000E812D8B4BEEF21F00301C651E812D8B4D9
:1043000094EF21F00301C5519EEC24F0D8B0BEEF2C
:1043100021F00001E80E0D6E030E0E6E93510D5E3E
:1043200094510E5AA0EF21F00001E80E0D6E030E1D
:104330000E6E99510D269A510E22D8900E320D32E2
:104340009DC30FF09EC310F0106A0FBE101E87ECC5
:1043500010F08BEC11F013507327145074230301E9
:104360009BB1B9EF21F00001131E141E132AD8B01F
:10437000142A000113507F271450802312000301D8
:10438000A4A11200BCEC1FF035EC20F012000301D8
:10439000A4B1CFEF21F0BCEC1FF035EC20F003010D
:1043A0009EA1EAEF21F00301C2519EEC24F0D8A0B7
:1043B000EAEF21F003019F5100010D6E0E6A00012A
:1043C0000A0E0F6E000E106E87EC10F013C079F01D
:1043D00014C07AF00301A0A117EF22F00301C3512A
:1043E0009EEC24F0D8A0F9EF21F00301A15102EFD7
:1043F00022F00301C4519EEC24F0D8A017EF22F064
:104400000301A25100010D6E0E6A00010A0E0F6E2B
:10441000000E106E87EC10F01350795D14507A592D
:10442000E8AE17EF22F013C079F014C07AF0120052
:104430000BC0E8FFF00BD8B412000DC069F00EC03D
:104440006AF00EAE29EF22F00D1E0E1E0D2AD8B016
:104450000E2A0DC013F00EC014F0640E176EBAECE5
:1044600010F000011C6A090E136041EF22F00BC02E
:10447000E8FFE83AE8060F0BE8B65EEF22F053EFEC
:1044800022F0136E0DC01BF00EC01CF0840E000154
:104490001B5E030E1C5A0BC0E8FFE83AE8060F0B40
:1044A000E8B65EEF22F00B0DF350460F1324E8CF71
:1044B000D9FF020EE8CFDAFF68EF22F0E8960B0D85
:1044C000F350DA0F1324E8CFD9FF030EE8CFDAFF59
:1044D000DECF0AF0DFCF0BF000010BC00DF00AC0F9
:1044E000E8FF0D5E0E6A0DBE0E681BC00FF01CC00B
:1044F00010F087EC10F00A0E176EBAEC10F00AC03C
:10450000E8FF0A0DF3CFE8FF1326F4CFE8FF1422EB
:1045100013C00DF014C00EF000016AAF12000001CC
:104520000D1E0E1E0D2AD8B00E2A1200E650E8CF3E
:104530000BF0E812D8B4120080EC02F018EC22F074
:104540000DC011F00EC012F0E6CF0AF0E6CFE8FF82
:104550000001E8CF0DF00E6A0DBE0E1E00010A0E1E
:104560000F6E000E106E87EC10F011C00DF012C02F
:104570000EF013500D5E14500E5A0EBEF5EF22F0E1
:10458000E6CFE8FF00010AACDEEF22F0E8CF13F03F
:10459000E9CF14F00DC011F00EC012F0135080ECF2
:1045A00002F00DC013F00EC014F00A0E176EBAEC34
:1045B00010F011C00DF012C00EF013500F6E106A03
:1045C0000FBE101E87EC10F00001640E176E000E77
:1045D000186E196A1A6A8BEC11F013C00DF014C032
:1045E0000EF00A5000EC03F01200E6CFE8FFE6CF31
:1045F000E8FF00010AAA13EF23F0E8CF13F00DC083
:1046000011F00EC012F0135080EC02F00DC013F048
:104610000EC014F00A0E176EBAEC10F011C00DF0B7
:1046200012C00EF013500F6E106A0FBE101E87ECF2
:1046300010F00001640E176E000E186E196A1A6AE7
:104640008BEC11F013C00DF014C00EF00A5000EC0A
:1046500003F012000001BD0EB56F030EB66F00012E
:10466000120EB36F010EB46F050EB76F76EC23F028
:10467000D90EE8CFD9FF060EE8CFDAFF060EE8CF55
:104680000CF0DDCFE8FFE812D8B44EEF23F0DFCF17
:10469000E8FF9EEC24F0D8B05AEF23F0DDCFE8FF1E
:1046A0000C2E41EF23F0A5C0E8FF0201006363EF89
:1046B00023F01200DECFE8FFDECFE8FF0201006347
:1046C00063EF23F01200E8CF00F22DEC1FF00001A1
:1046D000120EB56F010EB66F0001BD0EB36F030E63
:1046E000B46F050EB76F76EC23F012000001B551E0
:1046F000E16EB651E26E0001B351D96EB451DA6E7B
:10470000E6CFE8FFE8CFDEFF0001B72F80EF23F010
:1047100012000001BF6B0301AE519EEC24F00001BA
:10472000D8B0BF810301AF519EEC24F00001D8B096
:10473000BF830301B0519EEC24F00001D8B0BF85C7
:104740000301B1519EEC24F00001D8B0BF870301F2
:10475000B6519EEC24F00001D8B0BF890301BB51D3
:104760009EEC24F00001D8B0BF8B0301BC519EEC3D
:1047700024F00001D8B0BF8D1200C00E2FEC0DF058
:104780000301AE519EEC24F00001E86AE880BF15F9
:10479000D8A0D9EF23F0D8A4EAEF23F0BF71000E20
:1047A000F86E660EF76EDC0EF66EA5EC0DF09BEF64
:1047B00024F0D8B0EAEF23F0D8B4EAEF23F0BF71C9
:1047C000000EF86E660EF76ECA0EF66EA5EC0DF0D2
:1047D0009BEF24F00301AF519EEC24F00001E86A46
:1047E000E882BF15D8A003EF24F0D8A414EF24F07A
:1047F000BF73000EF86E670EF76E000EF66EA5EC36
:104800000DF09BEF24F0D8B014EF24F0D8B414EFDF
:1048100024F0BF73000EF86E660EF76EEE0EF66EA5
:10482000A5EC0DF09BEF24F00301B0519EEC24F0B9
:104830000001E86AE884BF15D8A02DEF24F0D8A4C1
:104840003EEF24F0BF75000EF86E670EF76E240E73
:10485000F66EA5EC0DF09BEF24F0D8B03EEF24F0FF
:10486000D8B43EEF24F0BF75000EF86E670EF76EF9
:10487000120EF66EA5EC0DF09BEF24F00301B15182
:104880009EEC24F00001D8A054EF24F0BFB755EF00
:1048900024F0BF77000EF86E670EF76E6C0EF66EA2
:1048A000A5EC0DF09BEF24F0BF970301B6519EECF1
:1048B00024F00001D8A06BEF24F0BFB96CEF24F016
:1048C000BF79000EF86E670EF76E5A0EF66EA5EC05
:1048D0000DF09BEF24F0BF990301BB519EEC24F037
:1048E0000001D8A082EF24F0BFBB83EF24F0BF7B90
:1048F000000EF86E670EF76E360EF66EA5EC0DF034
:104900009BEF24F0BF9B0301BC519EEC24F00001FF
:10491000D8A099EF24F0BFBD9AEF24F0BF7D000E20
:10492000F86E670EF76E480EF66EA5EC0DF09BEF75
:1049300024F0BF9D1200500EA36F1200E8AACAEF28
:1049400024F0E8A8CAEF24F00A6E070BC90FE16E45
:10495000030EE26EE65000010D6E0E6AE8BE0E68B0
:1049600000010A0E0F6E000E106E87EC10F00A5058
:10497000070BE846340FE16E010EE252E650E6CF37
:104980000BF00001135E0B501458E8360ABE1200FB
:10499000D8701200D890E8BA1200D880E8B8120097
:1049A00000011F6E206AE8BC2080070BE82AD8802F
:1049B0002036E82ED8EF24F030501FB633502014A4
:1049C000D8802062D8901FBED8701200040ED56E19
:1049D0001200D59E1200D89087B21200D880D5BEA2
:1049E0001200C3C00DF0C4C00EF000013C0E0F6EEB
:1049F000000E106E98EC10F013C00DF014C00EF005
:104A00000001240E0F6EF40E106E98EC10F0C1C071
:104A100017F0C2C018F00001000E196E000E1A6ED9
:104A20006EEC13F0A5C317F0A6C318F00001186AC6
:104A30008BEC11F0C00E2FEC0DF0000EF86E660E30
:104A4000F76E3A0EF66EA5EC0DF0CB0E2FEC0DF0D6
:104A50000BEC0EF0A5C313F0A6C314F0146AC00E3D
:104A60002FEC0DF007EC0EF00001000EC36F000EEE
:104A7000C46FD88012000001020E366212000001DD
:104A800033A01200FC6A23EF05F054EC25F0D8A007
:104A90001200FC6AC7EC1EF000C2E8FF58EC1FF0E1
:104AA00085EC1FF023EF05F0000130B65EEF25F036
:104AB00032A65EEF25F03296D8801200D890120010
:104AC0000001670E0E6E900E0D6EA7EC25F084ECC3
:104AD0000DF00001115080EC01F012001EC10DF02C
:104AE0001FC10EF084EC0DF012000001EF51D8B49C
:104AF0001200E1CF3EF1E2CF3FF11DEC18F00001D2
:104B0000000E736F000E746F0001000E756F000EC3
:104B1000766FDCEC19F06FEC19F0A9EC1BF03BECB4
:104B20001CF03AEC1AF0BFEC21F0DDEC1FF0C7EC02
:104B300021F020EC1BF01CEC1DF07EEC0EF03EC1D1
:104B4000E1FF3FC1E2FF12000001EF6912003BEC00
:104B500025F00001CD6BDB6BEA6BEB6BC00E2FEC2D
:104B60000DF00DC0F6FF0EC0F7FFF86A0DC00FF094
:104B70000EC010F0A5EC0DF0FA0EBDEC0BF0AEEC93
:104B800029F0D8A4CAEF25F0110E0D26D8B00E2AB0
:104B9000D1EF25F0D8A0DEEF25F0130E0D26D8B00A
:104BA0000E2A0DC0F6FF0EC0F7FFF86A0900F5CF18
:104BB0000DF00900F5CF0EF0AEEF25F045EC25F035
:104BC000A1EC1EF0D8A0AEEF25F0150E0D26D8B042
:104BD0000E2A0DC0F6FF0EC0F7FFF86A0900F5CFE8
:104BE00011F00900F5CF12F00FC00DF010C00EF05B
:104BF0000900F5CF0FF00900F5CF10F00900F5CF4F
:104C0000CEF00900F5CFCFF00001B96BBA6BBB69EC
:104C10007F0EE8CFBCF012AC1AEF26F00900F5CFFA
:104C2000B9F00900F5CFBAF00900F5CFBBF00900E3
:104C3000F5CFBCF012A423EF26F00900F5CFEAF07F
:104C40000900F5CFEBF012A22CEF26F00900F5CF0A
:104C5000ECF00900F5CFEDF012AE31EF26F084EC68
:104C60000DF012A636EF26F09AEC0DF012A212000B
:104C70000001E86AE8CFFBFFEDC0E8FFE8CFFAFFEC
:104C8000ECC0E8FFF96EE8CF0AF00FC01BF010C0CF
:104C90001CF00FC0F6FF10C0F7FFF86A150EF626DD
:104CA000D8B0F72A0900F5CFE8FF0A6259EF26F0DD
:104CB00012000FC0F6FF10C0F7FF110EF626D8B095
:104CC000F72A0900F5CF0FF00900F5CF10F00FC05B
:104CD000E8FF1B6249EF26F010C0E8FF1C6249EFB5
:104CE00026F01200000110500F10D8B41200E86A2C
:104CF000FB6E1050E8CFFAFF0F50F96E00010F5015
:104D0000E16E1050E26E0001000E11629CEF26F081
:104D10000FC0F6FF10C0F7FFF86A160EF626D8B0DF
:104D2000F72ACEC0E1FFCFC0E2FFE7CFE8FF43ECB8
:104D300026F01BEC29F01200010E1162A3EF26F001
:104D400045EC28F01200020E1162CDEF26F00001B2
:104D500012A0AEEF26F0CE510001B86FE6CF0AF0F8
:104D6000E5CF0BF000010AC011F00BC012F0129E4B
:104D7000129C9BEC28F000010FC0E1FF10C0E2FF85
:104D800011C00AF012C00BF00AC0E6FFE7CFE8FF3F
:104D9000C00B0B120BC0E5FF1200030E1162E2EF15
:104DA00026F0E7CFE8FFE8369EEC27F0000ED8B0FB
:104DB000E81E0A6E00010FC0E1FF10C0E2FF0AC04A
:104DC000E7FF1200040E1162F3EF26F0E7CFE8FFD1
:104DD00062EC29F00A6E00010FC0E1FF10C0E2FF93
:104DE0000AC0E7FF1200050E116205EF27F0E7CFBA
:104DF000E8FFF3EC27F0E8CF0AF000010FC0E1FF75
:104E000010C0E2FF0AC0E7FF1200060E11621BEF9E
:104E100027F0E7CF0AF00FC0CEF010C0CFF00001AE
:104E2000560E0F6E7B0E106E0AC0E8FF43EC26F0A4
:104E30001BEC29F01200070E116222EF27F072EC32
:104E400026F01200080E116233EF27F0E7CFE8FFDB
:104E5000EDEC27F0E8CF0AF000010FC0E1FF10C031
:104E6000E2FF0AC0E7FF0A0E116254EF27F0E7CF16
:104E7000E8FF0001CE15D890D8B4D8809EEC27F07A
:104E80000001CEC00AF000010FC0E1FF10C0E2FF38
:104E9000D8B04FEF27F00AC0E8FFE71212000AC0AF
:104EA000E8FFE81EE716120012000B6AD8B00B1ECE
:104EB000C00E2FEC0DF0000EF86E650EF76EE00ED2
:104EC000F66EA5EC0DF00BA07AEF27F0C80E2FECD4
:104ED0000DF0280E20EC0DF0CC0E2FEC0DF0290E6D
:104EE00020EC0DF0CF0E2FEC0DF0200E20EC0DF08D
:104EF0008CEF27F0C80E2FEC0DF0200E20EC0DF0FB
:104F0000CC0E2FEC0DF0280E20EC0DF0CF0E2FEC78
:104F10000DF0290E20EC0DF0AEEC29F0D8B40B6AA0
:104F2000FF0ED8B00B6E45EC25F0A1EC1EF0D8A01A
:104F300063EF27F0D8900BB0D88012000B6AD8B07E
:104F40000B1EC80E2FEC0DF0000EF86E660EF76EFD
:104F50001E0EF66EA5EC0DF00BA0C3EF27F0C80EE9
:104F60002FEC0DF0280E20EC0DF0CC0E2FEC0DF0F8
:104F7000290E20EC0DF0CF0E2FEC0DF0200E20ECC2
:104F80000DF0D5EF27F0C80E2FEC0DF0200E20EC21
:104F90000DF0CC0E2FEC0DF0280E20EC0DF0CF0E06
:104FA0002FEC0DF0290E20EC0DF0AEEC29F0D8B46A
:104FB0000B6AFF0ED8B00B6E45EC25F0A1EC1EF08D
:104FC000D8A0ACEF27F0D8900BB0D8801200000129
:104FD000BB65BB51B961B95112000001E86900011C
:104FE0009D6FF7EF27F000019D6F0001E86BC80E81
:104FF000BDEC0BF09DC0E8FF0001136E146A156A4A
:10500000166A35EC0EF00001E86715EF28F0CD0EBA
:105010002FEC0DF0275020EC0DF0285020EC0DF077
:10502000295020EC0DF024EF28F0CC0E2FEC0DF0E1
:10503000275020EC0DF0285020EC0DF02E0E20EC27
:105040000DF0295020EC0DF0D4EC29F00001D8A48B
:1050500030EF28F09D2BBB519D619D6F3BEF28F0F9
:10506000D8A03BEF28F09D51B9613BEF28F09D0798
:10507000B9519D659D6F45EC25F0A1EC1EF0D8A0BF
:10508000F7EF27F000019D51120075EC25F0FA0EA4
:10509000BDEC0BF0E7CFE8FFE7BEE81EE7BEE82A6D
:1050A0000001136E146A156A166A35EC0EF0CB0E09
:1050B0002FEC0DF0200EE7BE2D0E20EC0DF027504A
:1050C00020EC0DF0285020EC0DF0295020EC0DF0D4
:1050D000250E20EC0DF0D4EC29F00001D8A474EFDB
:1050E00028F0E72A78EF28F0D8A078EF28F0E70634
:1050F00045EC25F0A1EC1EF0D8A045EF28F000010A
:10510000EF6B120000011150BB5D1250BC59D8B0BA
:105110008FEF28F0BB51116EBC51126E1200B951C5
:10512000115CBA511258D8B09AEF28F0B951116EEB
:10513000BA51126E120082EC28F00001BE6B000121
:10514000B851E812D8B4ADEF28F0B851E16E000EB6
:10515000E26E11C0E6FF12C0E7FFF0C0E8FF7F0873
:10516000E8BEE86AE866BDEC0BF011C013F012C0AF
:1051700014F0D89014321332156A166A35EC0EF01A
:10518000C90E2FEC0DF0265020EC0DF02E0E20EC69
:105190000DF0275020EC0DF0285020EC0DF0295098
:1051A00020EC0DF06D0E20EC0DF0530E20EC0DF008
:1051B000D4EC29F00001D8A4EDEF28F0112AD8B4DE
:1051C000122A112AD8B4122ABC5112629BEF28F07D
:1051D000BB511160116E9BEF28F0D8A0FFEF28F0B3
:1051E0001106D8A012061106D8A01206BA511262F2
:1051F0009BEF28F0B9511164116E9BEF28F000016C
:1052000033A2BE6933BC0AEF29F00001A00E116E73
:105210000F0E126E000133BE13EF29F00001D00E05
:10522000116E070E126E45EC25F0A1EC1EF0D8A011
:105230009FEF28F01200C00E2FEC0DF00FC0F6FF0C
:1052400010C0F7FFA5EC0DF0FA0EBDEC0BF0D4EC9E
:1052500029F0D8A432EF29F0110E0F26D8B0102A69
:1052600039EF29F0D8A046EF29F0130E0F26D8B059
:10527000102A0FC0F6FF10C0F7FFF86A0900F5CF3B
:105280000FF00900F5CF10F01BEF29F045EC25F0E9
:10529000A1EC1EF0D8A01BEF29F0150E0F26D8B0F8
:1052A000102A0FC0F6FF10C0F7FFF86A0900F5CF0B
:1052B0000AF00900F550CEC0E1FFCFC0E2FF0AC0FE
:1052C000E7FF12000F0BE8B6080B0C0DF3CF13F03D
:1052D000F4CF14F000018A0E1326710E1422CC0EA6
:1052E0002FEC0DF013C0F6FF14C0F7FFA5EC0DF086
:1052F000FA0EBDEC0BF0D4EC29F0D8A486EF29F01F
:10530000050E1326D8B0142A8DEF29F0D8A09AEFF5
:1053100029F0070E1326D8B0142A13C0F6FF14C0C4
:10532000F7FFF86A0900F5CF13F00900F5CF14F084
:105330006FEF29F045EC25F0A1EC1EF0D8A06FEF3F
:1053400029F0090E1326D8B0142A13C0F6FF14C092
:10535000F7FFF86A0900F5CFE8FF1200040EACEC85
:1053600008F0040EACEC08F0C5C0E8FFC35EC6C090
:10537000E8FFC45AC4BEC7EF29F0640EC35E000E36
:10538000C45AC4BED1EF29F0D884D8901200640E5C
:10539000C326000EC422C4AED1EF29F0D894D88021
:1053A0001200D894D8901200050EACEC08F0050E4F
:1053B000ACEC08F0C7C0E8FFC35EC8C0E8FFC45A41
:1053C000C4BEF1EF29F0640EC35E000EC45AC4BE21
:1053D00001EF2AF0C466C368C3CFF0F0D884D89038
:1053E0001200640EC326000EC422C4AE01EF2AF0E0
:1053F000C31EC41EC466C368C3CFF0F0D894D8805F
:105400001200D894D8901200FEEF2AF0800E2FECF4
:105410000DF0000EF86E670EF76EA80EF66EA5EC96
:105420000DF04BEF2BF00101C00E1E6F670E1F6FCA
:105430000101BE0E206F690E216F8EEC2AF0C7ECC1
:105440001EF000C2E8FF58EC1FF085EC1FF01200C0
:105450000101D80E1E6F670E1F6F0101B00E206F85
:105460006A0E216F8EEC2AF01FEF2AF00101F00E78
:105470001E6F670E1F6F01019A0E206F6C0E216F59
:105480008EEC2AF01FEF2AF00101080E1E6F680E45
:105490001F6F0101F60E206F710E216F8EEC2AF046
:1054A0001FEF2AF00101200E1E6F680E1F6F010111
:1054B000C40E206F780E216F8EEC2AF01FEF2AF0B9
:1054C0000001DD6B0101380E1E6F680E1F6F0101B8
:1054D000CE0E206F7E0E216F8EEC2AF01FEF2AF089
:1054E0000101500E1E6F680E1F6F0101160E206F16
:1054F000830E216F8EEC2AF01FEF2AF00101680E57
:105500001E6F680E1F6F0101900E206F860E216FB7
:105510008EEC2AF01FEF2AF023EF32F06EEC25F02C
:1055200020C10DF021C10EF0A7EC25F00DC020F137
:105530000EC021F1EAC026F1EBC027F100011150A5
:10554000090AD8A4F0EF2AF00FC00DF010C00EF039
:10555000A7EC25F00DC022F10EC023F1EAC028F11E
:10556000EBC029F100011150090AD8A4D8EF2AF0A4
:105570000FC00DF010C00EF0A7EC25F00DC024F107
:105580000EC025F1EAC02AF1EBC02BF17EEC26F02B
:105590000001CDB1DEEF2AF02AC10FF02BC110F0CF
:1055A00072EC26F024C10DF025C10EF0BCEF2AF0FC
:1055B0007EEC26F00001CDB1F5EF2AF028C10FF006
:1055C00029C110F072EC26F020C10DF021C10EF0BF
:1055D00084EC0DF022C10DF023C10EF0A8EF2AF0EB
:1055E0007EEC26F00001CDB1120026C10FF027C1DC
:1055F00010F072EC26F08EEF2AF0120000C2E8FFE5
:10560000D8EC1EF0800E2FEC0DF0000EF86E650E3B
:10561000F76EAA0EF66EA5EC0DF08D0E2FEC0DF0C8
:10562000020100510001136E146A156A166A03EC38
:105630000EF0E6EC05F0FA0EBDEC0BF0D4EC29F020
:10564000D8A42DEF2BF0610E0201002B0063FEEFBA
:105650002AF0010E006FFEEF2AF0D8A03BEF2BF0EE
:1056600002010007000E0063FEEF2AF0600E020147
:10567000006FFEEF2AF0A1EC1EF0D8A01EEF2BF079
:1056800000C2E8FF2DEC1FF000C2E8FFE8CFA5F054
:10569000C7EC1EF01200C00E2FEC0DF0E6EC05F08A
:1056A000000EE16E030EE26E960EBDEC0BF0C00E26
:1056B000E1242FEC0DF0E75020EC0DF0C00EE124BA
:1056C0002FEC0DF00E0E2FEC0DF0AEEC29F0D8A45F
:1056D00073EF2BF0E12A0F0EE16454EF2BF0000E74
:1056E000E16E54EF2BF0D8A07FEF2BF0E106FF0E18
:1056F000E16254EF2BF00F0EE16E54EF2BF0D4EC7F
:1057000029F0D8A48AEF2BF0E72A7A0EE760E76E3B
:1057100054EF2BF0D8A093EF2BF0E706200EE764B0
:10572000E76E54EF2BF0A1EC1EF0D8A065EF2BF044
:105730000C0E2FEC0DF000C2E8FF58EC1FF0120029
:105740000DC02CF10EC02DF10FC02EF110C02FF1A5
:10575000D0C00DF0D1C00EF00001E80E0F6E030EA8
:10576000106E87EC10F00001000E176E010E186E1F
:105770008BEC11F013C0D0F014C0D1F00001D25165
:10578000D027D351D123D4C00DF0D5C00EF00001E5
:10579000E80E0F6E030E106E87EC10F00001000E85
:1057A000176E010E186E8BEC11F0D2C0D4F0D3C07E
:1057B000D5F01350D45F1450D55BD0C00DF0D1C0DC
:1057C0000EF082EC1EF00DC0D0F00EC0D1F0D2C0B1
:1057D0000DF0D3C00EF082EC1EF00DC0D2F00EC062
:1057E000D3F0D4C00DF0D5C00EF082EC1EF00DC089
:1057F000D4F00EC0D5F02CC10DF02DC10EF02EC18D
:105800000FF02FC110F012000DC02CF10EC02DF1C1
:105810000FC02EF110C02FF1D0C00DF0D1C00EF08E
:105820000001E80E0F6E030E106E87EC10F0000101
:10583000000E176E010E186E8BEC11F0D2C0D0F076
:10584000D3C0D1F000011350D0271450D1231350EE
:10585000D25F1450D35BD0C00DF0D1C00EF082ECFB
:105860001EF00DC0D0F00EC0D1F0D2C00DF0D3C0EC
:105870000EF082EC1EF00DC0D2F00EC0D3F02CC1A1
:105880000DF02DC10EF02EC10FF02FC110F012003F
:105890000DC02CF10EC02DF10FC02EF110C02FF154
:1058A000D0C00DF0D1C00EF0D2510D5ED3510E5AC2
:1058B0000001000E0F6E010E106E87EC10F000015B
:1058C000E80E176E030E186E8BEC11F013C0D0F0BB
:1058D00014C0D1F0D2C00DF0D3C00EF0D4510D5E83
:1058E000D5510E5A0001000E0F6E010E106E87EC9E
:1058F00010F00001E80E176E030E186E8BEC11F01D
:1059000013C0D4F014C0D5F02CC10DF02DC10EF091
:105910002EC10FF02FC110F012000DC02CF10EC0DF
:105920002DF10FC02EF110C02FF1D0C00DF0D1C05D
:105930000EF00001D2510D5ED3510E5A0001000E3F
:105940000F6E010E106E87EC10F00001D00E176E76
:10595000070E186E8BEC11F013C0D0F014C0D1F00C
:10596000D0C00DF0D1C00EF00001E80E0F6E030E96
:10597000106E87EC10F00001000E176E010E186E0D
:105980008BEC11F000011350D2271450D3232CC1FB
:105990000DF02DC10EF02EC10FF02FC110F012002E
:1059A0000DC02CF10EC02DF10FC02EF110C02FF143
:1059B0000001BEA108EF2DF0000E00010F18D8B4B1
:1059C000F3EF2CF0D2C013F0D3C014F0D8901336FC
:1059D0001436D051135ED151145A13C0D4F014C0F0
:1059E000D5F008EF2DF0000E00010F18D8B408EF25
:1059F0002DF0D2C013F0D3C014F0D8901336143663
:105A0000D451135ED551145A13C0D0F014C0D1F044
:105A10002CC10DF02DC10EF02EC10FF02FC110F0D2
:105A200012003C0E0001B86F0001110EB56F030E9D
:105A3000B66F0001D00EB36F000EB46F0B0EB76FD0
:105A400076EC23F0DB6BA0EC2BF012003A0E000199
:105A5000B86F00011C0EB56F030EB66F19EF2DF075
:105A60003E0E0001B86F0001270EB56F030EB66F32
:105A700019EF2DF00001110EB36F030EB46FD0ECCF
:105A80002CF0DBA1D86B48EC2CF00001D00EB56FE8
:105A9000000EB66F0B0EB76F76EC23F00001B86BFB
:105AA000120000011C0EB36F030EB46F3FEF2DF018
:105AB0000001270EB36F030EB46F3FEF2DF00DC042
:105AC0002CF10EC02DF10FC02EF110C02FF10301EB
:105AD00032C30DF033C30EF00001E80E0F6E030E5B
:105AE000106E87EC10F00001000E176E010E186E9C
:105AF0008BEC11F013C032F314C033F303013451B3
:105B00003227355133232CC10DF02DC10EF02EC19B
:105B10000FF02FC110F012000DC02CF10EC02DF1AE
:105B20000FC02EF110C02FF132C30DF033C30EF0B1
:105B30000301345100010D5E0301355100010E5A7D
:105B40000001000E0F6E010E106E87EC10F00001C8
:105B5000E80E176E030E186E8BEC11F013C032F3C3
:105B600014C033F32CC10DF02DC10EF02EC10FF077
:105B70002FC110F00001B86B1200420E0001B86F87
:105B800000013A0EB56F030EB66F0001D00EB36F71
:105B9000000EB46F040EB76F76EC23F004EC2CF01B
:105BA0001200440E0001B86F00013E0EB56F030EE7
:105BB000B66FC5EF2DF0460E0001B86F0001420E22
:105BC000B56F030EB66FC5EF2DF000013A0EB36F3F
:105BD000030EB46F8DEC2CF00001D00EB56F000EEB
:105BE000B66F040EB76F76EC23F00001B86B1200AD
:105BF00000013E0EB36F030EB46FEAEF2DF000010B
:105C0000420EB36F030EB46FEAEF2DF00001460EA3
:105C1000B56F030EB66F0001D00EB36F000EB46FF8
:105C2000060EB76F76EC23F0A0EC2BF0120048ECD8
:105C30002CF00001D00EB56F000EB66F0001460EBD
:105C4000B36F030EB46F060EB76F76EC23F000014E
:105C5000B86B1200AEC2B9F0AFC2BAF0B0C2BBF0BE
:105C6000B1C2BCF01200CEC0B5F0CFC0B6F000019A
:105C7000DC0EB36F000EB46F050EB76F76EC23F039
:105C8000CEC0B3F0CFC0B4F00001DC51E83A0F0B46
:105C9000E46FE36BDDBFE31FE16BDF51DDBDE16F5F
:105CA000E26BE051DDBBE26F0F0EE117E217DD178B
:105CB000DC1712000001E451E83AF00BDC13E3BFFB
:105CC000DD8FE151E812D8B469EF2EF0E151DF6FBA
:105CD000DD8DE251E812D8B471EF2EF0E251E06FA1
:105CE000DD8B0001DC0EB56F000EB66F050EB76FD1
:105CF00076EC23F0120010C4DFF011C4E0F01200C3
:105D0000DFC010F4E0C011F4120012C4DFF013C4BD
:105D1000E0F01200DFC012F4E0C013F4120014C46B
:105D2000DFF015C4E0F01200DFC014F4E0C015F499
:105D300012000001DBAF12000301196B246B2F6B03
:105D400012000001DBAF1200A7C313F0A8C314F0C8
:105D5000835113268451142213C0A7F314C0A8F34F
:105D6000A9C313F0AAC314F0855113268651142237
:105D700013C0A9F314C0AAF3ABC313F0ACC314F05F
:105D8000875113268851142213C0ABF314C0ACF30F
:105D900012000001DBAF12000301A76BA86BA96B17
:105DA000AA6BAB6BAC6B12000001B96BB92B600E28
:105DB0000001BB6F12000001DD51DD67E1EF2EF045
:105DC0001200020100C20AF0006F00010AC0DDF0FB
:105DD00058EC1FF00001DDC00AF002010AC000F219
:105DE00012000001DBAF120003011951196B18C337
:105DF0000AF000010D6E0E6AE8BE0E680D360E3612
:105E00000001640E0F6E000E106E87EC10F00AC0D9
:105E100017F0186A8BEC11F013500301A72700014B
:105E200014500301A82303012451246B23C30AF057
:105E300000010D6E0E6AE8BE0E680D360E360001CA
:105E4000640E0F6E000E106E87EC10F00AC017F093
:105E5000186A8BEC11F013500301A92700011450AC
:105E60000301AA2303012F512F6B2EC30AF0000157
:105E70000D6E0E6AE8BE0E680D360E360001640E19
