:020000040000FA
:040200006BEF03F0AD
:040208000EEF01F004
:080218002DEF01F0D8CF01F039
:10022000E0CF02F0006EF3CF03F0F4CF04F0F0ACB7
:100230001DEF01F0F0B064EC0BF0A2A023EF01F091
:10024000A1B016EC09F003C0F3FF04C0F4FF0050A6
:1002500002C0E0FF01C0D8FF1000D8CF06F0E8CF01
:1002600005F0E0CF07F0F3CF08F0F4CF09F0F0BCD1
:100270003DEF01F0F0B064EC0BF0A2B043EF01F001
:10028000A1B016EC09F0A2B04CEF01F0AECFE8FF40
:100290006ECFE8FF52EF01F09EBAE8EC0EF0A4BA80
:1002A00053EC0FF008C0F3FF09C0F4FF07C0E0FFF4
:0A02B00005C0E8FF06C0D8FF1000EB
:10030000F95000011150F926BCEF29F0BEEF29F099
:10031000CBEF29F0E0EF29F0EEEF29F0FCEF29F028
:100320000AEF2AF018EF2AF028EF2AF036EF2AF029
:1003300044EF2AF012000009D8A4A5EF01F0000153
:10034000000E0F6E000E106E1200E806030B0A0D71
:10035000F9CFE8FFF350F92683C00FF084C010F006
:10036000120085C00FF086C010F0120087C00FF099
:1003700088C010F0120089C00FF08AC010F012007F
:10040000EFCFE8FFE806070B0A0DF9CFE8FFF3503E
:10041000F9263CC04EF03DC04FF012003AC04EF0FD
:100420003BC04FF012003EC04EF03FC04FF01200F4
:1004300040C04EF041C04FF0120042C04EF043C0E9
:100440004FF0120044C04EF045C04FF0120046C0BD
:100450004EF047C04FF0120048C04EF049C04FF078
:1004600012000F0B060DF9CFE8FFF350F926BBC2BF
:10047000E8FF1200BCC2E8FF1200BDC2E8FF120094
:10048000BEC2E8FF1200BFC2E8FF1200C0C2E8FF10
:100490001200C1C2E8FF1200C2C2E8FF1200C3C2CC
:1004A000E8FF1200C4C2E8FF1200C5C2E8FF120054
:1004B000C6C2E8FF1200C7C2E8FF1200C8C2E8FFC8
:0E04C0001200C9C2E8FF1200CAC2E8FF120013
:100500000001E806070B0A0DF9CFE8FFF350F926C2
:100510008D510D6E8E510E6E12008F510D6E9051D9
:100520000E6E120091510D6E92510E6E120093518B
:100530000D6E94510E6E120095510D6E96510E6E09
:10054000120097510D6E98510E6E120099510D6E5A
:100550009A510E6E12009B510D6E9C510E6E120040
:100600000001E8BE33EF03F0E806070B0A0DF9CF4F
:10061000E8FFF350F9260D5073270E507423120093
:100620000D5075270E50762312000D5077270E506F
:10063000782312000D5079270E507A2312000D50A6
:100640007B270E507C2312000D507D270E507E23F9
:1006500012000D507F270E50802312000D5081276D
:100660000E5082231200E806070B0A0DF9CFE8FFAF
:10067000F350F9260D50736F0E50746F12000D5029
:10068000756F0E50766F12000D50776F0E50786FA9
:1006900012000D50796F0E507A6F12000D507B6F63
:1006A0000E507C6F12000D507D6F0E507E6F120049
:1006B0000D507F6F0E50806F12000D50816F0E50E5
:1006C000826F1200F2AE12000001010EA16FA1674D
:1006D00067EF03F0120092988098939C819C000130
:1006E0005B6A5C6A640E9BEC0BF092988098000148
:1006F000546A640E9BEC0BF00F018350306E316E28
:10070000326E0F018450336E346E356E0F01999046
:10071000878094969394829681940001000E176EC0
:10072000000E186E0001000E196E000E1A6E000108
:10073000000E1B6E000E1C6E0001000E1D6E000EE2
:100740001E6E0001000E136E000E146E0001000EEE
:10075000156E000E166E0001000EAB6F000EAC6F32
:100760000001000EAD6F000EAE6F0001000EAF6F06
:10077000000EB06F0001000EB16F000EB26F0001ED
:100780005E6A5F6A606BA16BA26BA36BE769E96B42
:100790000201BA6B0101116B7EEC31F002010051D4
:1007A0000001A56F040E91EC08F0040E91EC08F026
:1007B0000001C350C56FC450C66F050E91EC08F020
:1007C000050E91EC08F00001C350C76FC450C86F0C
:1007D000000EE8CF0DF0E86AE8CF0EF0A6EC0BF0C3
:1007E000E8CF00F5010EE8CF0DF0E86AE8CF0EF093
:1007F000A6EC0BF0E8CF01F5BEEC0CF0FA0E9BEC8A
:100800000BF0FA0E9BEC0BF0FA0E9BEC0BF0FA0ED1
:100810009BEC0BF0C6EC08F0B5EC24F081EC0EF08C
:1008200095EC0EF0F28EF28CD08E0F01D89083B63C
:10083000D880D8B021EF04F00A0E9BEC0BF00F012A
:10084000D89083B6D880D8B037EF04F00F01D89095
:1008500084B2D880D8B032EF04F00A0E9BEC0BF0D3
:100860000F01D89084B2D880D8A059EF04F070EC72
:100870001EF00201A50EA76344EF04F0E70EA86383
:1008800044EF04F048EF04F07EEC31F0C7EC0BF0DD
:1008900000C2E8FFEBEC1EF00301AD510201A56FB1
:1008A000E7EC0AF062EC0AF00101F20E066F9FEC31
:1008B0000AF00F01D89084B2D880D8A059EF04F084
:1008C0000A0E9BEC0BF00F01D89084B2D880D8A010
:1008D00059EF04F00F01D89084B4D880D8B076EFE7
:1008E00004F00A0E9BEC0BF00F01D89084B4D88072
:1008F000D8B08CEF04F00F01D89083B6D880D8B070
:1009000087EF04F00A0E9BEC0BF00F01D89083B632
:10091000D880D8A0B9EF07F00201A0C20AF0020106
:10092000FF0E0AB0A56FA561F9EF04F00301A6A1BF
:10093000D9EF04F00F0183BED9EF04F0800E0DEC67
:100940000DF0000EF86E640EF76E640EF66E63EC3A
:100950000DF0C00E0DEC0DF0000EF86E640EF76E8B
:10096000120EF66E63EC0DF00F01D89084B4D880AF
:10097000D8B0C0EF04F00A0E9BEC0BF00F01D8903A
:1009800084B4D880D8B0B4EF04F00F01D89084B408
:10099000D880D8A0C5EF04F00A0E9BEC0BF00F0135
:1009A000D89084B4D880D8A0C5EF04F0C80E9BECD2
:1009B0000BF00201D1B1E0EF04F0D1A3F9EF04F0A4
:1009C000800E00019D6F95EC30F0D8901CEC27F064
:1009D000D8B0F0EF04F00201FF0EA56FF9EF04F0BC
:1009E000E7EC0AF062EC0AF09FEC0AF00A0E9BECCE
:1009F0000BF00001010E366EA3C252F0A4C253F0F8
:100A00000201A25100014D6E58EC23F043EC1FF09F
:100A1000FCAE0EEF05F00F0193948194000133B00A
:100A20002EEF05F0010E366294EF05F00001050E81
:100A3000E8CF5DF0070E35EC0AF0020E366E0001CD
:100A4000A5510201006327EF05F094EF05F0006F58
:100A5000EBEC1EF043EC1FF094EF05F0010E366E48
:100A6000F9EC22F0D9EC17F03EEC07F00201A1A15D
:100A70005FEF05F00301B6516DEC24F0D8A05FEFF5
:100A800005F00201B76757EF05F0ABC073F0ACC0DB
:100A900074F0ADC075F0AEC076F0AFC077F0B0C006
:100AA00078F0B1C079F0B2C07AF05FEF05F0F08C69
:100AB000F086A290E868E8CFEEF065EF05F0F09CD4
:100AC000F086A280E86AE8CFEEF00201A0B184EFE0
:100AD00005F00BEC17F0D8B484EF05F08FEC19F0AB
:100AE00022EC19F05CEC1BF0EEEC1BF0EDEC19F0D5
:100AF0008EEC21F09BEC1FF096EC21F0D3EC1AF079
:100B00000001E96718EC10F062EC03F0CFEC1CF088
:100B10003AEC0EF00001A26792EF05F00A0EA26F08
:100B2000DCEC05F008EF05F0800E0DEC0DF0000E8A
:100B3000F86E650EF76E960EF66E63EC0DF0C00E55
:100B40000DEC0DF0000EF86E640EF76E120EF66EE0
:100B500063EC0DF05FEC1EF0D8A0B1EF05F02FECC8
:100B600025F0D9EC17F08FEC19F022EC19F05CECC1
:100B70001BF0EEEC1BF0EDEC19F08EEC21F09BEC91
:100B80001FF096EC21F0D3EC1AF0CFEC1CF03AEC0D
:100B90000EF008EF05F00001100E0B6EC00E0DEC0C
:100BA0000DF0000EE16E030EE26EE650FEEC0CF06E
:100BB0000B2ED5EF05F012000001840E0DEC0DF0A8
:100BC000200EFEEC0CF00201520EA5BF200E00011B
:100BD000FEEC0CF00601CE516DEC24F0410ED8A0D5
:100BE000200EFEEC0CF00301B2516DEC24F04D0E22
:100BF000D8B02D0EFEEC0CF00301B3516DEC24F0D7
:100C00004D0ED8B02D0EFEEC0CF00301B4516DEC7E
:100C100024F04D0ED8B02D0EFEEC0CF0200EFEECA4
:100C20000CF0800E0DEC0DF0B9C20DF0BAC20EF052
:100C30000E6A0001640E0F6E000E106E43EC10F091
:100C400013C011F014C012F08BC00DF08CC00EF068
:100C500013C20FF014C210F043EC10F01450E8CFA0
:100C600013F01550E8CF14F0156A010111B149EFE6
:100C700006F000011150135C12501458E8AE49EF11
:100C800006F0C90E00015D6E050E35EC0AF001019B
:100C900011690001F1EC0DF0200EE8CF0AF0300EE2
:100CA00025640AC025F02550FEEC0CF02650FEEC21
:100CB0000CF02E0EFEEC0CF02750FEEC0CF00301B5
:100CC000B6516DEC24F0D8A06FEF06F0800E0DEC5D
:100CD0000DF000C513F001C514F0C7EC0DF00201D2
:100CE000B8AF88EF06F0B86B000EE8CF0DF0E86AF9
:100CF000E8CF0EF000C5E8FFB1EC0BF0010EE8CF35
:100D00000DF0E86AE8CF0EF001C5E8FFB1EC0BF09A
:100D100067EC07F0D8B0B2EF06F078EC07F0D8B087
:100D2000B2EF06F0BAEC24F0D8B0B2EF06F08CECDB
:100D300023F00001A351E812D8A4B2EF06F002019B
:100D4000A0A1B0EF06F0C00E0DEC0DF0000EF86E95
:100D5000640EF76E240EF66E63EC0DF0B2EF06F043
:100D6000CBEC05F0000133B4CDEF06F035A4CDEFA8
:100D700006F03594010E5D6E050E35EC0AF00001AB
:100D80005466CCEF06F0542ABEC358F0BFC359F0E6
:100D9000CA6BCB6BCDEF06F05406000154A000EFF8
:100DA00007F0596600EF07F03B0E5A62DFEF06F0DE
:100DB000050E5D6E0A0E35EC0AF000EF07F01E0E10
:100DC0005A62EAEF06F0030E5D6E0A0E35EC0AF089
:100DD00000EF07F00A0E5A62F5EF06F0010E5D6EA5
:100DE0000A0E35EC0AF000EF07F0060E5A6000EF2D
:100DF00007F0010E5D6E0A0E35EC0AF000EF07F009
:100E00007F0E5A6E5650CE6F5750CF6F010E546200
:100E100029EF07F058505910D8B418EF07F0585080
:100E2000CE6F5950CF6F000E0301BD6329EF07F05D
:100E3000020E0301BD5DD8B425EF07F00001CA51D1
:100E4000CE6FCB51CF6F29EF07F0E86A0001CE6F6C
:100E5000CF6F00018B0E0DEC0DF0CF51E8CF13F0EA
:100E6000146A156A166ABFEC0DF03A0EFEEC0CF02F
:100E7000CE51E8CF13F0BFEC0DF012000301C051CA
:100E80006DEC24F0D8A064EF07F00301000EC165FB
:100E900061EF07F000017ABF64EF07F00301C15171
:100EA00000010D6E0E6A00010A0E0F6E000E106E2C
:100EB00043EC10F07951135E7A51145CD8B064EFB2
:100EC00007F00001E76912000001E76B1200D890FB
:100ED0000001CCAF1200C00E0DEC0DF0000EF86E4C
:100EE000640EF76ED00EF66E63EC0DF0D880120033
:100EF0000D0E91EC08F00D0E91EC08F069C00DF0AC
:100F00006AC00EF0A9C20FF0AAC210F043EC10F0B4
:100F100000011450136E1550146E1650156E166A9B
:100F2000F1EC0DF00001255026100F0BD890D8B42D
:100F30001200C00E0DEC0DF0000EF86E640EF76E90
:100F4000BE0EF66E63EC0DF0CB0E0DEC0DF0000155
:100F50002550FEEC0CF02650FEEC0CF02E0EFEECB4
:100F60000CF02750FEEC0CF02850FEEC0CF0D88072
:100F700012000F01D89084B4D880D8A0B9EF07F040
:100F80000A0E9BEC0BF00F01D89084B4D880D8A047
:100F9000B9EF07F00F01D89083B6D880D8A0CAEF78
:100FA00007F00A0E9BEC0BF00F01D89083B6D880A7
:100FB000D8A0CAEF07F0800E0DEC0DF00F018350A2
:100FC0007EEC0DF00F0184507EEC0DF0C00E0DECA8
:100FD0000DF00F0186507EEC0DF00F0187507EEC76
:100FE0000DF00F01835082868184E8B08296E8B2CA
:100FF00081948098E8B48088320E9BEC0BF00F014E
:10100000D89084B4D880D8B00BEF08F00A0E9BECCF
:101010000BF00F01D89084B4D880D8B0DBEF07F084
:101020000F01D89084B4D880D8A010EF08F00A0E31
:101030009BEC0BF00F01D89084B4D880D8A010EFAF
:1010400008F0C00E0DEC0DF0000EF86E630EF76E9A
:10105000820EF66E63EC0DF000010D6A800E0DEC51
:101060000DF0000EF86E630EF76EB80EF66E63ECC0
:101070000DF0870E0DEC0DF000010D508BEC0DF016
:1010800091EC08F08C0E0DEC0DF00F01C4CFE8FFD1
:101090008BEC0DF00F01C3CFE8FF8BEC0DF0320E9F
:1010A0009BEC0BF00F01D89084B4D880D8B05EEFE1
:1010B00008F00A0E9BEC0BF00F01D89084B4D88096
:1010C000D8B02EEF08F00F01D89084B4D880D8A003
:1010D00063EF08F00A0E9BEC0BF00F01D89084B47C
:1010E000D880D8A063EF08F000010D2A0C0E0D6423
:1010F0002EEF08F0DBEF07F00001136A146A156A9F
:10110000166A0A6E0B6A0A5091EC08F00001C3508F
:101110001326C4501422D8B0152A0B2E83EF08F0E2
:1011200012000A6EA10EC06E000EC16E0AC0E8FF6A
:1011300031EC02F0E8AEC188E89EE844E844C26EB3
:10114000C2800000C282C2B2A3EF08F00001C3CF88
:1011500069F0C4CF6AF00AC0E8FF12000F01C28232
:10116000C2B2B0EF08F00001C3506927C4506A232F
:10117000120091EC08F0AEEC08F0AEEC08F0AEEC2A
:1011800008F000016A336A9F6933120000014C6A5B
:10119000566A576A280EE8CF55F00001900E526E3D
:1011A000010E536E0001900E4E6E010E4F6E506A8E
:1011B000516A100E0001E8CF4DF0386A3A6A3C6A75
:1011C0003E6A406A426A446A466A486A4A6A080E47
:1011D000E8CF39F0E8CF3BF0E8CF3DF0E8CF3FF083
:1011E000E8CF41F0E8CF43F0E8CF45F0E8CF47F053
:1011F000E8CF49F0E8CF4BF0979E858E0001525022
:101200000F01E8CFBBFF010153500F01E8CFBCFF36
:101210000A0E0F01E8CFBAFF0F01A0800F019E90C8
:101220000F01080EE8CFB1FFB18012000001EEA15E
:10123000857E0201BAAF20EF09F0877028EF09F030
:101240000001E5B127EF09F0878028EF09F08790CA
:101250000001BBCFE8FF4E26BCCFE8FF4F224EC0B7
:10126000E8FFE8CFBBFF4FC0E8FFE8CFBCFF0001BD
:10127000E86A4C649FEC09F000014C2A4CC0E8FF7E
:10128000FE0B4D6055EF09F04C6A500EE8CF4EF062
:1012900050C0E8FF4E5EC30EE8CF4FF051C0E8FFEC
:1012A0004F5A506A516A9CEF09F04CA06AEF09F05E
:1012B00052C0E8FFE8CF4EF053C0E8FFE8CF4FF050
:1012C000BAC2E8FF0001E5814C6296EF09F0E591B2
:1012D00096EF09F0120E4C6282EF09F050C0E8FF61
:1012E000E8CF4EF051C0E8FFE8CF4FF04F324E321A
:1012F0004F324E324F324E324F324E320F0E4F1669
:1013000096EF09F0040EE8CFEAFF000EE8CFE9FF00
:101310004CC0E8FFE830E89EE804E92600EC02F063
:1013200052C0E8FF4E5E53C0E8FF4F5A4EC0E8FF80
:1013300050264FC0E8FF51220F01A19012006FEC20
:101340000EF079EC0EF00001010E3662AEEF09F0FE
:1013500000018286BDB18296FF0EBD6F87900301AA
:10136000CDBFB6EF09F0859EB7EF09F0858E00017D
:10137000552EFDEF09F0B8EC24F0000154A0EDEF7C
:1013800009F00001FF0EE763EDEF09F058C0E8FF38
:101390005910D8B4E5EF09F05866D2EF09F03C0EC9
:1013A000586E5906580658505A6E0301E86ABD1126
:1013B000D8B4E5EF09F0000158505910D8B4E5EF62
:1013C00009F0CA6BCB6BEDEF09F00001CA2B3C0EA4
:1013D000CA63EDEF09F0CA6BCB2B280EE8CF55F0AE
:1013E000562A3C0E5662FDEF09F0566A572A05014F
:1013F000002BD8B4012B0201B8690201A1A106EFAC
:101400000AF0530EA1EC0EF00001A86B000183CF8F
:10141000E8FF311AD8A4306E316E30C0E8FF3212C6
:10142000000184CFE8FF341AD8A4336E346E33C081
:10143000E8FF351200015E665E065F665F06606764
:101440006007A167A107A267A207A367A3075C665D
:101450002BEF0AF012005C2E120080785D4E120015
:101460005BC0E8FFE8CF5CF01200E8CF5BF0E8CFAC
:101470005CF08088120000010ABE42EF0AF0819EF3
:1014800043EF0AF0818E828A829A0A460B2E3BEF46
:101490000AF012000201AD510A6E080E0B6E3BEC11
:1014A0000AF00201AC510A6E080E0B6E3BEC0AF01A
:1014B0000201AB510A6E080E0B6E3BEC0AF08686F9
:1014C000869612000BC113F00CC114F00DC115F07B
:1014D00009C117F00AC118F047EC11F00201A5513B
:1014E00001010F03F35000011326D8B0142AD8B01D
:1014F000152A0101006B016B026B00011350E846D5
:10150000E846E880E8921F0B13B6E88E0101006FF1
:1015100000011336143615361336143615361336C5
:101520001436153613361436153614500101016F72
:10153000000115501F0B01011009026F120062EC2F
:101540000AF0010108510A6E080E0B6E3BEC0AF01E
:10155000010107510A6E080E0B6E3BEC0AF0010107
:1015600006510A6E080E0B6E3BEC0AF086868696D4
:10157000010105510A6E080E0B6E3BEC0AF00101E9
:1015800004510A6E080E0B6E3BEC0AF00101035188
:101590000A6E080E0B6E3BEC0AF0868686960101F9
:1015A00002510A6E080E0B6E3BEC0AF0010101516C
:1015B0000A6E080E0B6E3BEC0AF0010100510A6E38
:1015C000080E0B6E3BEC0AF08686869612000F0121
:1015D000939E949A939C819C819E829A98968696DB
:1015E0000201D1A116EF0BF0D1B316EF0BF004C23C
:1015F00006F105C207F106C208F101C203F102C2F9
:1016000004F103C205F10101700E0B6FC60E0C6FE1
:10161000000E0D6F0101140E096F000E0A6F01011B
:101620000E6B0A0E106F010E0F6F12000201D1B186
:101630003CEF0BF0D1A33CEF0BF00AC206F10BC25A
:1016400007F10CC208F107C203F108C204F109C294
:1016500005F101016C0E0B6FCF0E0C6F000E0D6FBC
:101660000101640E096F000E0A6F01010E6B080E76
:10167000106F010E0F6F12000201D1B163EF0BF07A
:10168000D1B363EF0BF010C206F111C207F112C221
:1016900008F10DC203F10EC204F10FC205F1010100
:1016A0004A0E0B6F190E0C6F010E0D6F01010A0E21
:1016B000096F000E0A6F01010B0E0E6F320E106FD4
:1016C000020E0F6F1200120087B282EF0BF0D5AE40
:1016D00074EF0BF0D6CFC1F0D7CFC2F00001C32B0F
:1016E000D8B4C42BF09012000001C351C411F09083
:1016F000D8A41200E86AE8CFD7FFE8CFD6FFD58E8E
:10170000F0901200F17AF0AC94EF0BF00301CDA150
:1017100090EF0BF0F1AA859EF1BA858E94EF0BF055
:10172000F1AA858EF1BA859EF09012000000E82E95
:1017300096EF0BF012000A6EFA0E96EC0BF0FA0E12
:1017400096EC0BF00A2E9CEF0BF012000EC0E8FF97
:10175000AA6E0DC0E8FFA96EA69EA69CA680A85002
:101760001200A86E0EC0E8FFAA6E0DC0E8FFA96EB9
:10177000A69EA69CA684F29E550EA76EAA0EA76EE4
:10178000A682F28EA1A8C2EF0BF0A1981200800EE3
:101790000DEC0DF0000EF86E640EF76E760EF66E20
:1017A00063EC0DF0C00E0DEC0DF0000EF86E640E43
:1017B000F76E000EF66E63EC0DF065EC27F0D8A026
:1017C00007EF0CF0C00E0DEC0DF0000EF86E640E7D
:1017D000F76E880EF66E63EC0DF07EEC31F085EC62
:1017E0001EF00001600E9E6F00C2E8FF16EC1FF0B5
:1017F0000201002B0301072B3A0E076303EF0CF0E5
:10180000062B300E076F00019E2FF4EF0BF070ECEB
:101810001EF000C2E8FFEBEC1EF0120000011550B4
:10182000F86E1450F76E1350F66E00010E50E26E13
:101830000D50E16E0900F550E66E0A060900F550FC
:10184000E66E0A2E1AEF0CF0120000011550F86E29
:101850001450F76E1350F66EA68EA69CA684A6882A
:10186000F29E550EA76EAA0EA76EA6820000F28EFB
:101870000001400E1326000E142215220A2E25EF19
:101880000CF0120062EC03F000011550F86E1450D9
:10189000F76E1350F66EA68EA69CA684A688F29EBE
:1018A000550EA76EAA0EA76EA682F28E0A00000140
:1018B0000E50E26E0D50E16E400E0B6EE6CFE8FF6B
:1018C000F56E0F000B2EFAD7A68EA69CA684F29E6C
:1018D000550EA76EAA0EA76EA682F28EA6940001E0
:1018E000400E1326000E142215220001400E0D2674
:1018F000000E0E220A2E42EF0CF0120000011550CD
:10190000F86E1450F76E1350F66EA68EA69CA68441
:10191000A688F29E550EA76EAA0EA76EA68200009C
:10192000F28E0A00080E0B6E00010E50E26E0D5092
:10193000E16E080E0C6EE6CFE8FFF56E0F000C2E80
:10194000FAD7A68EA69CA684F29E550EA76EAA0E66
:10195000A76EA6820000F28E0B2EEBD7A694000194
:10196000400E1326000E142215220001400E0D26F3
:10197000000E0E220A2E7EEF0CF012000F019A6A62
:10198000886A9396939A93988186818A8188140EA7
:101990009BEC0BF0380E0DEC0DF0050E9BEC0BF0F4
:1019A000380E0DEC0DF0010E9BEC0BF0380E0DEC2B
:1019B0000DF0010E9BEC0BF0380E0DEC0DF0060E49
:1019C0000DEC0DF00E0E0DEC0DF0010E0DEC0DF00A
:1019D000800E0DEC0DF0800E0DEC0DF0630EF76E29
:1019E000940EF66E63EC0DF0C00E0DEC0DF0630E70
:1019F000F76EA60EF66E63EC0DF012001CEC0DF007
:101A000030EC0DF0818A8198000000008186000092
:101A1000000081960000000012001CEC0DF030EC7C
:101A20000DF0819A8198000000008186000000007E
:101A3000819600000000120023EC0DF0D8B01CEFDE
:101A40000DF09A6A12009A688188819A000000005D
:101A5000818600000000D89088B0D880819612005E
:101A6000886AE8B08888E8B2888AE8B4888CE8B6E2
:101A7000888EE8B88886E8BA8884E8BC8882E8BEA0
:101A800088801200800E0DEC0DF00DC0F6FF0EC028
:101A9000F7FFF86A63EC0DF01200C00E0DEC0DF0CC
:101AA0000DC0F6FF0EC0F7FFF86A63EC0DF01200F0
:101AB000C00E0DEC0DF0CEC0F6FFCFC0F7FFF86AF8
:101AC00063EC0DF01200100E0A6E0900F5CFE8FF6E
:101AD000E812D8B47DEF0DF0FEEC0CF00A4E7DEF6D
:101AE0000DF00900F5CFE8FFE812D8B47DEF0DF056
:101AF000FEEC0CF00A2E65EF0DF012000A6E080ED7
:101B00000B6E300E0ABE310EFEEC0CF00A360B2EB8
:101B100081EF0DF012000A6E3A0E0B6E0AC0E8FF5C
:101B2000F00BE842E842E842E84230090B64070F54
:101B3000FEEC0CF00AC0E8FF0F0B30090B64070F36
:101B4000FEEC0CF00AC0E8FF1200F1EC0DF025509D
:101B5000FEEC0CF02650FEEC0CF02750FEEC0CF0E6
:101B60002850FEEC0CF02950FEEC0CF01200F1ECC9
:101B70000DF0AAEF0DF0F1EC0DF0ADEF0DF0F1EC82
:101B80000DF0B0EF0DF0F1EC0DF0B3EF0DF0F1EC66
:101B90000DF0DBEC0DF02550FEEC0CF02650FEECC9
:101BA0000CF02750FEEC0CF02850FEEC0CF0295005
:101BB000FEEC0CF012000001300E25621200200E27
:101BC000256E300E26621200200E266E300E276221
:101BD0001200200E276E300E28621200200E286E92
:101BE00012000001196A1A6A100E176E270E186E7D
:101BF00047EC11F0300E1310256E1BC013F01CC003
:101C000014F01DC015F01EC016F0196A1A6AE80E0D
:101C1000176E030E186E47EC11F0300E1310266E7F
:101C20001BC013F01CC014F01DC015F01EC016F030
:101C3000196A1A6A640E176E000E186E47EC11F0DE
:101C4000300E1310276E1BC013F01CC014F01DC003
:101C500015F01EC016F0196A1A6A0A0E176E000EE9
:101C6000186E47EC11F0300E1310286E300E1B105A
:101C7000296E12000001310E376243EF0EF070EC56
:101C80001EF06DEF0EF0320E37624DEF0EF000C217
:101C9000E8FFEBEC1EF06DEF0EF0330E376255EF00
:101CA0000EF085EC1EF06DEF0EF0340E37625DEF36
:101CB0000EF000C2E8FF16EC1FF0350E37626DEF34
:101CC0000EF00001FF0E0D6E030E0E6EE8CF0EF04B
:101CD000FF0EB1EC0BF06DEF0EF0376A12000F0142
:101CE000ABA21200AB98AB880F01AE500001616B44
:101CF00012000F016BA212006B986B880F016E50DF
:101D000012000C0EE8CFAFFF220EE8CFACFF900E12
:101D1000E8CFABFF0001616B9F9A9D8A1200ACA2D5
:101D20008FEF0EF0E8CFADFF1200000EE8CF6FFF8F
:101D3000220EE8CF6CFF900EE8CF6BFFA59AA38A26
:101D400012006CA2A1EF0EF0E8CF6DFF1200E1CF00
:101D500021F0E2CF22F0000165C0E1FF000164C084
:101D6000E2FF686BACA2B2EF0EF0E6CFE8FF000135
:101D70006827E8CFADFF0001662FB2EF0EF021C05B
:101D8000E1FF22C0E2FF1200E1CF21F0E2CF22F01A
:101D9000000165C0E1FF000164C0E2FF686B000163
:101DA000050E5E6EE86A5E64E3EF0EF09EAAD3EF66
:101DB0000EF0AECFE8FFE8CFE6FF00016827000194
:101DC000662FCFEF0EF021C0E1FF22C0E2FF12002C
:101DD0009EAA12000001000E6163FBEF0EF0AECF71
:101DE000E8FFE8CF62F0550E62631200280EE8CFDC
:101DF0005FF0612B1200010E616305EF0FF0AECFB3
:101E0000E8FFE8CF63F0612B1200020E61630FEF71
:101E10000FF0AECFE8FFE8CF64F0612B1200030EA5
:101E2000616319EF0FF0AECFE8FFE8CF65F0612BEB
:101E30001200040E616322EF0FF0AECFE8FFE8CF8F
:101E400066F0612B050E61632EEF0FF0010E6363E8
:101E50002CEF0FF0C4EC0EF0612B1200060E616344
:101E600051EF0FF0AECFE8FFE8CF67F0020E6363EB
:101E700042EF0FF0A7EC0EF068C0E8FF8FEC0EF019
:101E8000616B120068C0E8FF67634CEF0FF00C0E47
:101E90008FEC0EF0616B12000D0E8FEC0EF0616B8B
:101EA0001200616B1200A4AA12006ECFE8FF0201BB
:101EB000A1B187EF0FF0530AD8A412000201A0A12C
:101EC000120000010F0E74151009A1EC0EF073C082
:101ED000E8FFA1EC0EF000010F0E76152009A1EC31
:101EE0000EF07551A1EC0EF000010F0E78153009BF
:101EF000A1EC0EF07751A1EC0EF000010F0E7A1557
:101F00004009A1EC0EF07951A1EC0EF01200000195
:101F1000A8B18EEF0FF0AA6FA82B1200A96FA82B03
:101F2000020EA863A7EF0FF0AA51F00B100AD8A475
:101F3000ECEF0FF00F0EAA17AAA7A1EF0FF0F00E0B
:101F4000AA13A9C0ABF0AAC0ACF0ECEF0FF0040EDE
:101F5000A863BEEF0FF0AA51F00B200AD8A4ECEF53
:101F60000FF00F0EAA17AAA7B8EF0FF0F00EAA13E2
:101F7000A9C0ADF0AAC0AEF0ECEF0FF0060EA8635A
:101F8000D5EF0FF0AA51F00B300AD8A4ECEF0FF008
:101F90000F0EAA17AAA7CFEF0FF0F00EAA13A9C031
:101FA000AFF0AAC0B0F0ECEF0FF0080EA863ECEFB2
:101FB0000FF0AA51F00B400AD8A4ECEF0FF00F0E6F
:101FC000AA17AAA7E6EF0FF0F00EAA13A9C0B1F066
:101FD000AAC0B2F0ECEF0FF012000C0E0F016F6E02
:101FE000220E6C6E900EE8CF6BFF12000001E80E1F
:101FF0000D26030E0E22780E0D5C070E0E58D8A08B
:1020000005EF10F0EF0E0CEF10F00E320D320E3225
:102010000D320E320D320D50A1EF0EF0BC0E0D5CE4
:10202000030E0E58D8A007EF10F0EF0E0CEF10F0D3
:10203000F00EA1EC0EF0800EA1EC0EF073C00DF0CE
:1020400074C00EF0F6EC0FF075C00DF076C00EF017
:10205000F6EC0FF077C00DF078C00EF0F6EC0FF054
:1020600079C00DF07AC00EF00EEC10F07BC00DF0D0
:102070007CC00EF00EEC10F07DC00DF07EC00EF0B6
:102080000EEC10F0120054EC10F010AE4CEF10F00B
:102090000D50155E0E50165A0EAE53EF10F00F5045
:1020A000155E1050165A12000001136A146A156A60
:1020B000166A0F500D02F3CF13F0F4CF14F00F5047
:1020C0000E02F3501426F4501522D8B0162A1050E0
:1020D0000D02F3501426F4501522D8B0162A1050D1
:1020E0000E02F3501526F450162212000001246A45
:1020F0001B6A14501310D8B4000C14501718E8BE03
:10210000241EA46B000E17AE88EF10F0171E172ABE
:1021100014AE8FEF10F0131E141E132A1422145045
:102120001710E8BE1BEF11F017501B5E1436143465
:102130001B3617501B26143614341B36175014B098
:102140001B5E14A01B26143614341B36175014B013
:102150001B5E14A01B26143614341B36175014B003
:102160001B5E14A01B26143614341B36175014B0F3
:102170001B5E14A01B26143614341B36175014B0E3
:102180001B5E14A01B26143614341B36175014B0D3
:102190001B5E14A01B26143613341B36175014B0C4
:1021A0001B5E14A01B26133613341B36175013B0B6
:1021B0001B5E13A01B26133613341B36175013B0A7
:1021C0001B5E13A01B26133613341B36175013B097
:1021D0001B5E13A01B26133613341B36175013B087
:1021E0001B5E13A01B26133613341B36175013B077
:1021F0001B5E13A01B26133613341B36175013B067
:102200001B5E13A01B26133613341B36175013B056
:102210001B5E13A01B26133613A01B26A4B139EF97
:1022200011F024AE000C131E141EE86A132A1422A7
:102230001B1E1B2A000C17AE34EF11F014BE30EF3A
:1022400011F0E8CF9DF01350E8CF1BF01B9E133622
:1022500014361450E8CF13F09D51146A11EF11F0A9
:10226000136A132A146A000C141E131EA42B94EF75
:1022700010F01B2A17501B6211EF11F01B6A000EA1
:10228000132A142214AE11EF11F02388FF0C000161
:10229000246A1C6A1B6A155014101310D8B4000C61
:1022A00015501818E8BE241EA46B000E18AE5DEF82
:1022B00011F0171E181E172A182215AE66EF11F01E
:1022C000131E141E151E132A142215221550181041
:1022D000E8BEF0EF12F017501B5E18501C5A15366E
:1022E00015341B361C3617501B2618501C22153669
:1022F00015341B361C36175015A084EF11F01B5EE9
:1023000018501C5A87EF11F01B2618501C22153646
:1023100015341B361C36175015A094EF11F01B5EB8
:1023200018501C5A97EF11F01B2618501C22153616
:1023300015341B361C36175015A0A4EF11F01B5E88
:1023400018501C5AA7EF11F01B2618501C221536E6
:1023500015341B361C36175015A0B4EF11F01B5E58
:1023600018501C5AB7EF11F01B2618501C221536B6
:1023700015341B361C36175015A0C4EF11F01B5E28
:1023800018501C5AC7EF11F01B2618501C22153686
:1023900015341B361C36175015A0D4EF11F01B5EF8
:1023A00018501C5AD7EF11F01B2618501C22153656
:1023B00014341B361C36175015A0E4EF11F01B5EC9
:1023C00018501C5AE7EF11F01B2618501C22143627
:1023D00014341B361C36175014A0F4EF11F01B5E9A
:1023E00018501C5AF7EF11F01B2618501C221436F7
:1023F00014341B361C36175014A004EF12F01B5E69
:1024000018501C5A07EF12F01B2618501C221436C5
:1024100014341B361C36175014A014EF12F01B5E38
:1024200018501C5A17EF12F01B2618501C22143695
:1024300014341B361C36175014A024EF12F01B5E08
:1024400018501C5A27EF12F01B2618501C22143665
:1024500014341B361C36175014A034EF12F01B5ED8
:1024600018501C5A37EF12F01B2618501C22143635
:1024700014341B361C36175014A044EF12F01B5EA8
:1024800018501C5A47EF12F01B2618501C22143605
:1024900014341B361C36175014A054EF12F01B5E78
:1024A00018501C5A57EF12F01B2618501C221436D5
:1024B00013341B361C36175014A064EF12F01B5E49
:1024C00018501C5A67EF12F01B2618501C221336A6
:1024D00013341B361C36175013A074EF12F01B5E1A
:1024E00018501C5A77EF12F01B2618501C22133676
:1024F00013341B361C36175013A084EF12F01B5EEA
:1025000018501C5A87EF12F01B2618501C22133645
:1025100013341B361C36175013A094EF12F01B5EB9
:1025200018501C5A97EF12F01B2618501C22133615
:1025300013341B361C36175013A0A4EF12F01B5E89
:1025400018501C5AA7EF12F01B2618501C221336E5
:1025500013341B361C36175013A0B4EF12F01B5E59
:1025600018501C5AB7EF12F01B2618501C221336B5
:1025700013341B361C36175013A0C4EF12F01B5E29
:1025800018501C5AC7EF12F01B2618501C22133685
:1025900013341B361C36175013A0D4EF12F01B5EF9
:1025A00018501C5AD7EF12F01B2618501C22133655
:1025B00013B0DFEF12F017501B2618501C22A4B1E5
:1025C00014EF13F024AE000C131E141E151E000E83
:1025D000132A142215221B1E1C1E1B2A1C22000C4F
:1025E00018AE0EEF13F015BE09EF13F0E8CF9DF013
:1025F0001450E8CF1CF01350E8CF1BF01C9E14368B
:1026000015361550E8CF13F09D51156A146AE2EFA4
:1026100012F0136A132A146A156A000C151E141E90
:10262000131EA42B6BEF11F01B2AE86A1C22175013
:102630001B62E2EF12F018501C62E2EF12F01C6A0B
:102640001B6A000E132A1422152215AEE2EF12F0B7
:102650002388FF0C1E6A1D6A1C6A1B6A16341B360F
:102660001C361D361E3617501B5E18501C5A19504A
:102670001D5A1A501E5AA46AA45B163616341B360D
:102680001C361D361E36A437175016A053EF13F014
:102690001B5E18501C5A19501D5A1A501E5AE86ACF
:1026A000A45B5CEF13F01B2618501C2219501D224E
:1026B0001A501E22E86AA423163616341B361C361E
:1026C0001D361E36A437175016A072EF13F01B5E8E
:1026D00018501C5A19501D5A1A501E5AE86AA45B09
:1026E0007BEF13F01B2618501C2219501D221A5084
:1026F0001E22E86AA423163616341B361C361D36F5
:102700001E36A437175016A091EF13F01B5E185019
:102710001C5A19501D5A1A501E5AE86AA45B9AEFA7
:1027200013F01B2618501C2219501D221A501E226D
:10273000E86AA423163616341B361C361D361E36A0
:10274000A437175016A0B0EF13F01B5E18501C5A98
:1027500019501D5A1A501E5AE86AA45BB9EF13F0BB
:102760001B2618501C2219501D221A501E22E86ADE
:10277000A423163616341B361C361D361E36A437D7
:10278000175016A0CFEF13F01B5E18501C5A1950AB
:102790001D5A1A501E5AE86AA45BD8EF13F01B2684
:1027A00018501C2219501D221A501E22E86AA42318
:1027B000163616341B361C361D361E36A4371750F7
:1027C00016A0EEEF13F01B5E18501C5A19501D5A3C
:1027D0001A501E5AE86AA45BF7EF13F01B26185034
:1027E0001C2219501D221A501E22E86AA4231636F4
:1027F00016341B361C361D361E36A437175016A04D
:102800000DEF14F01B5E18501C5A19501D5A1A5027
:102810001E5AE86AA45B16EF14F01B2618501C22FF
:1028200019501D221A501E22E86AA42316361534A8
:102830001B361C361D361E36A437175016A02CEF3B
:1028400014F01B5E18501C5A19501D5A1A501E5A6B
:10285000E86AA45B35EF14F01B2618501C221950AF
:102860001D221A501E22E86AA423153615341B3681
:102870001C361D361E36A437175015A04BEF14F02A
:102880001B5E18501C5A19501D5A1A501E5AE86ADD
:10289000A45B54EF14F01B2618501C2219501D2263
:1028A0001A501E22E86AA423153615341B361C362E
:1028B0001D361E36A437175015A06AEF14F01B5EA4
:1028C00018501C5A19501D5A1A501E5AE86AA45B17
:1028D00073EF14F01B2618501C2219501D221A5099
:1028E0001E22E86AA423153615341B361C361D3605
:1028F0001E36A437175015A089EF14F01B5E185030
:102900001C5A19501D5A1A501E5AE86AA45B92EFBD
:1029100014F01B2618501C2219501D221A501E227A
:10292000E86AA423153615341B361C361D361E36B0
:10293000A437175015A0A8EF14F01B5E18501C5AAE
:1029400019501D5A1A501E5AE86AA45BB1EF14F0D0
:102950001B2618501C2219501D221A501E22E86AEC
:10296000A423153615341B361C361D361E36A437E7
:10297000175015A0C7EF14F01B5E18501C5A1950C1
:102980001D5A1A501E5AE86AA45BD0EF14F01B2699
:1029900018501C2219501D221A501E22E86AA42326
:1029A000153615341B361C361D361E36A437175007
:1029B00015A0E6EF14F01B5E18501C5A19501D5A52
:1029C0001A501E5AE86AA45BEFEF14F01B26185049
:1029D0001C2219501D221A501E22E86AA423153603
:1029E00015341B361C361D361E36A437175015A05D
:1029F00005EF15F01B5E18501C5A19501D5A1A503D
:102A00001E5AE86AA45B0EEF15F01B2618501C2214
:102A100019501D221A501E22E86AA42315361434B8
:102A20001B361C361D361E36A437175015A024EF52
:102A300015F01B5E18501C5A19501D5A1A501E5A78
:102A4000E86AA45B2DEF15F01B2618501C221950C4
:102A50001D221A501E22E86AA423143614341B3691
:102A60001C361D361E36A437175014A043EF15F040
:102A70001B5E18501C5A19501D5A1A501E5AE86AEB
:102A8000A45B4CEF15F01B2618501C2219501D2278
:102A90001A501E22E86AA423143614341B361C363E
:102AA0001D361E36A437175014A062EF15F01B5EBA
:102AB00018501C5A19501D5A1A501E5AE86AA45B25
:102AC0006BEF15F01B2618501C2219501D221A50AE
:102AD0001E22E86AA423143614341B361C361D3615
:102AE0001E36A437175014A081EF15F01B5E185046
:102AF0001C5A19501D5A1A501E5AE86AA45B8AEFD4
:102B000015F01B2618501C2219501D221A501E2287
:102B1000E86AA423143614341B361C361D361E36C0
:102B2000A437175014A0A0EF15F01B5E18501C5AC4
:102B300019501D5A1A501E5AE86AA45BA9EF15F0E5
:102B40001B2618501C2219501D221A501E22E86AFA
:102B5000A423143614341B361C361D361E36A437F7
:102B6000175014A0BFEF15F01B5E18501C5A1950D7
:102B70001D5A1A501E5AE86AA45BC8EF15F01B26AE
:102B800018501C2219501D221A501E22E86AA42334
:102B9000143614341B361C361D361E36A437175017
:102BA00014A0DEEF15F01B5E18501C5A19501D5A68
:102BB0001A501E5AE86AA45BE7EF15F01B2618505E
:102BC0001C2219501D221A501E22E86AA423143612
:102BD00014341B361C361D361E36A437175014A06D
:102BE000FDEF15F01B5E18501C5A19501D5A1A5053
:102BF0001E5AE86AA45B06EF16F01B2618501C222A
:102C000019501D221A501E22E86AA42314361334C8
:102C10001B361C361D361E36A437175014A01CEF69
:102C200016F01B5E18501C5A19501D5A1A501E5A85
:102C3000E86AA45B25EF16F01B2618501C221950D9
:102C40001D221A501E22E86AA423133613341B36A1
:102C50001C361D361E36A437175013A03BEF16F056
:102C60001B5E18501C5A19501D5A1A501E5AE86AF9
:102C7000A45B44EF16F01B2618501C2219501D228D
:102C80001A501E22E86AA423133613341B361C364E
:102C90001D361E36A437175013A05AEF16F01B5ED0
:102CA00018501C5A19501D5A1A501E5AE86AA45B33
:102CB00063EF16F01B2618501C2219501D221A50C3
:102CC0001E22E86AA423133613341B361C361D3625
:102CD0001E36A437175013A079EF16F01B5E18505C
:102CE0001C5A19501D5A1A501E5AE86AA45B82EFEA
:102CF00016F01B2618501C2219501D221A501E2295
:102D0000E86AA423133613341B361C361D361E36D0
:102D1000A437175013A098EF16F01B5E18501C5ADA
:102D200019501D5A1A501E5AE86AA45BA1EF16F0FA
:102D30001B2618501C2219501D221A501E22E86A08
:102D4000A423133613341B361C361D361E36A43707
:102D5000175013A0B7EF16F01B5E18501C5A1950ED
:102D60001D5A1A501E5AE86AA45BC0EF16F01B26C3
:102D700018501C2219501D221A501E22E86AA42342
:102D8000133613341B361C361D361E36A437175027
:102D900013A0D6EF16F01B5E18501C5A19501D5A7E
:102DA0001A501E5AE86AA45BDFEF16F01B26185073
:102DB0001C2219501D221A501E22E86AA423133621
:102DC00013341B361C361D361E36A437175013A07D
:102DD000F5EF16F01B5E18501C5A19501D5A1A5068
:102DE0001E5AE86AA45BFEEF16F01B2618501C2240
:102DF00019501D221A501E22E86AA423133613B05C
:102E00000AEF17F017501B2618501C2219501D22CC
:102E10001A501E22000C0F01D89083B6D880D8B06B
:102E200017EF17F00A0E9BEC0BF00F01D89083B64A
:102E3000D880D8B08DEF17F00F01D89084B2D88029
:102E4000D8B028EF17F00A0E9BEC0BF00F01D890CA
:102E500084B2D880D8B08DEF17F00001CC674FEF67
:102E600017F00001CC69030132C30DF033C30EF03B
:102E70000001E80E0F6E030E106E43EC10F014C04C
:102E80001CF115C01DF10301345101011C27030180
:102E9000355101011D2334C31AF135C31BF196ECE2
:102EA00029F0D8B060EF17F0D8A467EF17F0010150
:102EB0001A07D8A01B071A07D8A01B0767EF17F03F
:102EC00001011A2BD8B41B2B1A2BD8B41B2B1CC1F5
:102ED0000DF01DC10EF001011A5100010D5E01013E
:102EE0001B5100010E5A0001000E0F6E010E106EF4
:102EF00043EC10F00001E80E176E030E186E47EC5D
:102F000011F013C032F314C033F31AC134F31BC1F0
:102F100035F3EDEC19F0D88412000001CC6793EF83
:102F200017F0D8941200CC6B60EC1FF0D89412000C
:102F300000016951E8CF0DF06A51E8CF0EF06D51F4
:102F40000D5E6E510E5AD8A0B5EF17F06B51E8CF59
:102F50000FF06C51E8CF10F043EC10F01450E8CFB4
:102F600071F01550E8CF72F012006F51E8CF0FF0FA
:102F70007051E8CF10F043EC10F01450E8CF71F02E
:102F80001550E8CF72F0120069C00DF06AC00EF063
:102F90006D510D5E6E510E5A6BC00FF06CC010F08B
:102FA00043EC10F01450E8CF71F01550E8CF72F0F8
:102FB0001200040E91EC08F0040EB9EC08F015C2F2
:102FC0006BF016C26CF017C26DF018C26EF019C229
:102FD0006FF01AC270F098EC17F071C034F172C043
:102FE00035F171C073F072C074F0050E91EC08F009
:102FF000050EB9EC08F01BC26BF01CC26CF01DC2D0
:103000006DF01EC26EF01FC26FF020C270F098EC1F
:1030100017F071C036F172C037F171C075F072C02F
:1030200076F0060E91EC08F0060EB9EC08F021C21D
:103030006BF022C26CF023C26DF024C26EF025C288
:103040006FF026C270F098EC17F071C038F172C0C2
:1030500039F171C077F072C078F0070E91EC08F08A
:10306000070E91EC08F027C26BF028C26CF029C261
:103070006DF02AC26EF0C4EC17F071C03AF172C064
:103080003BF171C079F072C07AF0030E91EC08F058
:1030900000010F01C3CFE8FFE8CF8BF0C4CFE8FFFA
:1030A000E8CF8CF0080E91EC08F02DC26DF02EC226
:1030B0006EF02BC26BF02CC26CF0C4EC17F071C038
:1030C00083F072C084F0090E91EC08F031C26DF00B
:1030D00032C26EF02FC26BF030C26CF0C4EC17F04D
:1030E00071C085F072C086F00A0E91EC08F035C20E
:1030F0006DF036C26EF033C26BF034C26CF0C4ECCB
:1031000017F071C087F072C088F00B0E91EC08F0D8
:1031100039C26DF03AC26EF037C26BF038C26CF053
:10312000C4EC17F071C089F072C08AF00301B55188
:103130006DEC24F0D8A0A3EF18F0030E7C6FE80E1E
:103140007B6FA5EF18F07B6B7C6B000E91EC08F0A9
:103150003BC26BF03CC26CF03DC26DF03EC26EF003
:10316000C4EC17F071C07DF072C07EF0010E91ECDE
:1031700008F03FC26BF040C26CF041C26DF042C239
:103180006EF0C4EC17F071C07FF072C080F00301E4
:10319000B7516DEC24F0D8A0D4EF18F0030E826F75
:1031A000E80E816FEAEF18F00301B9516DEC24F0DD
:1031B000D8A0DFEF18F0816B826BEAEF18F0030103
:1031C000B8516DEC24F0D8A0EAEF18F0010E826F30
:1031D000F40E816F12000001106A0FBE101E43EC46
:1031E00010F00001640E176E000E186E47EC11F01F
:1031F00013C011F014C012F013C00FF014C010F07F
:103200000EAE08EF19F00F1E101E0F2AD8B0102AAC
:1032100043EC10F000010A0E176E000E186E47EC1A
:1032200011F00B50E8CF17F0186A17BE181E47ECC4
:1032300011F011500D5E12500E5A13500D261450FD
:103240000E2212000301AE516DEC24F073C00DF09C
:1032500074C00EF0D8A038EF19F003011B51000123
:10326000E8CF0FF003011751E8CF0BF040EF19F052
:1032700003011A510001E8CF0FF0640EE8CF0BF004
:10328000EBEC18F00DC073F00EC074F00301AF51F9
:103290006DEC24F075C00DF076C00EF0D8A05CEF98
:1032A00019F0030126510001E8CF0FF0030122516C
:1032B000E8CF0BF064EF19F0030125510001E8CFCE
:1032C0000FF0640EE8CF0BF0EBEC18F00DC075F0CA
:1032D0000EC076F00301B0516DEC24F077C00DF014
:1032E00078C00EF0D8A080EF19F003013151000131
:1032F000E8CF0FF003012D51E8CF0BF088EF19F064
:10330000030130510001E8CF0FF0640EE8CF0BF05D
:10331000EBEC18F00DC077F00EC078F0120003014E
:10332000AE516DEC24F0D8A0AEEF19F073C00FF0E1
:1033300074C010F017C30DF018C30EF00E6A0DBE66
:103340000E1E43EC10F00001640E176E000E186E96
:1033500047EC11F013C073F014C074F00301AF51C7
:103360006DEC24F0D8A0CDEF19F075C00FF076C049
:1033700010F022C30DF023C30EF00E6A0DBE0E1E18
:1033800043EC10F00001640E176E000E186E47EC4F
:1033900011F013C075F014C076F00301B0516DEC5C
:1033A00024F0D8A0ECEF19F077C00FF078C010F03F
:1033B0002DC30DF02EC30EF00E6A0DBE0E1E43EC93
:1033C00010F00001640E176E000E186E47EC11F03D
:1033D00013C077F014C078F012000201B2519BECD8
:1033E00001F00301A75100010F260301A8510001BC
:1033F000102218C30DF019C30EF000010E6AFF0E63
:103400000DBE0E6E43EC10F00001640E176E186ACC
:10341000196A1A6A47EC11F0000103011951000101
:103420000D6E0E6A0DBE0E1E0D360E360D50132695
:103430000E50142213507327145074230201B351F9
:103440009BEC01F00301A95100010F260301AA51D1
:103450000001102223C30DF024C30EF000010E6AF8
:10346000FF0E0DBE0E6E43EC10F00001640E176EE1
:10347000186A196A1A6A47EC11F000010301245115
:1034800000010D6E0E6A0DBE0E1E0D360E360D506D
:1034900013260E5014221350752714507623020160
:1034A000B4519BEC01F00301AB5100010F26030165
:1034B000AC51000110222EC30DF02FC30EF00001FD
:1034C0000E6AFF0E0DBE0E6E43EC10F00001640E8E
:1034D000176E186A196A1A6A47EC11F000010301A5
:1034E0002F5100010D6E0E6A0DBE0E1E0D360E36EA
:1034F0000D5013260E5014221350772714507823A2
:103500000201B5519BEC01F036C30DF037C30EF04C
:1035100000010E6AFF0E0DBE0E6E43EC10F00001AE
:10352000640E176E186A196A1A6A47EC11F00301E3
:10353000010E3763B3EF1AF00001030E0E6E186E22
:10354000E80E0D6E176E79510D5E7A510E5A196A9A
:103550001A6A13C00FF014C010F043EC10F047ECDF
:1035600011F0CDEF1AF0020E3763CDEF1AF0000123
:1035700079510D6E7A510E6E13C00FF014C010F019
:1035800043EC10F00001030EE8CF18F0E80EE8CF8E
:1035900017F0196A1A6A47EC11F0000113507927E5
:1035A00014507A23120000010E6A08C40DF00DBEFB
:1035B0000E6800010A0E0F6E000E106E43EC10F044
:1035C000135073271450742300010E6A09C40DF0C0
:1035D0000DBE0E6800010A0E0F6E000E106E43EC59
:1035E00010F0135075271450762300010E6A0AC498
:1035F0000DF00DBE0E6800010A0E0F6E000E106E6B
:1036000043EC10F0135077271450782300010E6A12
:103610000BC40DF00DBE0E6800010A0E0F6E000EF9
:10362000106E43EC10F01350792714507A230001E8
:103630000E6A0CC40DF00DBE0E6800010A0E0F6E6E
:10364000000E106E43EC10F013507B2714507C23B7
:1036500000010E6A0DC40DF00DBE0E6800010A0EC9
:103660000F6E000E106E43EC10F013507D271450B7
:103670007E2300010E6A0EC40DF00DBE0E6800011F
:103680000A0E0F6E000E106E43EC10F013507F27E1
:103690001450802300010E6A0FC40DF00DBE0E6899
:1036A00000010A0E0F6E000E106E43EC10F0135066
:1036B000812714508223120000010A0E0D6E000EA5
:1036C0000E6E0301BB516DEC24F0D8A0A4EF1BF0EB
:1036D00003014DAF77EF1BF04CC30FF0106A0FBE24
:1036E000106843EC10F013C073F014C074F00301C1
:1036F0004FAF86EF1BF04EC30FF0106A0FBE10687D
:1037000043EC10F013C075F014C076F0030151AF14
:1037100095EF1BF050C30FF0106A0FBE106843EC1A
:1037200010F013C077F014C078F0030153AFA4EF8A
:103730001BF052C30FF0106A0FBE106843EC10F07C
:1037400013C079F014C07AF00301BC516DEC24F081
:10375000D8A0E7EF1BF0030155AFBAEF1BF054C33D
:103760000FF0106A0FBE106843EC10F013C073F036
:1037700014C074F0030157AFC9EF1BF056C30FF02C
:10378000106A0FBE106843EC10F013C075F014C03F
:1037900076F0030159AFD8EF1BF058C30FF0106A51
:1037A0000FBE106843EC10F013C077F014C078F02F
:1037B00003015BAFE7EF1BF05AC30FF0106A0FBEB7
:1037C000106843EC10F013C079F014C07AF00001D7
:1037D0007AAF1200E86A796F7A6F12000201A1B124
:1037E00012000301B6516DEC24F0D8A012000001C4
:1037F0006067120002019F510001606F0201010E1B
:10380000B6630CEF1CF0010E00015D6E050E35EC89
:103810000AF0280E0001606F73C00DF074C00EF046
:10382000AFEC1CF0D8A442EF1CF00201B6671BEF0E
:103830001CF002019E51000174BF29EF1CF003012E
:10384000192719AF33EF1CF0D8A633EF1CF036EF71
:103850001CF00301195F19BF33EF1CF0D8A633EF3A
:103860001CF03BEF1CF019BF3BEF1CF0640E19611C
:10387000196F40EF1CF0640EE81EE82A1965196FF5
:1038800060EC1FF075C00DF076C00EF0AFEC1CF0D0
:10389000D8A478EF1CF00201B66751EF1CF00201CA
:1038A0009E51000176BF5FEF1CF00301242724AF77
:1038B00069EF1CF0D8A669EF1CF06CEF1CF0030157
:1038C000245F24BF69EF1CF0D8A669EF1CF071EFEC
:1038D0001CF024BF71EF1CF0640E2461246F76EF9E
:1038E0001CF0640EE81EE82A2465246F60EC1FF0CB
:1038F00077C00DF078C00EF0AFEC1CF0D8A4AEEF9E
:103900001CF00201B66787EF1CF002019E51000116
:1039100078BF95EF1CF003012F272FAF9FEF1CF00E
:10392000D8A69FEF1CF0A2EF1CF003012F5F2FBF62
:103930009FEF1CF0D8A69FEF1CF0A7EF1CF02FBF45
:10394000A7EF1CF0640E2F612F6FACEF1CF0640E1C
:10395000E81EE82A2F652F6F60EC1FF012000001AF
:103960000EAEB8EF1CF00D1E0E1E0D2AD8B00E2A9A
:10397000D8900E320D320E66C2EF1CF0640E0D644C
:10398000C7EF1CF00001640E0D6E000E0E6E0D50A0
:10399000E832E8321F0BD8740DC0E8FF12000001B6
:1039A000BD6B000174BFE1EF1CF011C30DF012C339
:1039B0000EF073C00FF074C010F043EC10F0EBEF9A
:1039C0001CF015C30DF016C30EF073C00FF074C0D9
:1039D00010F043EC10F013C30DF014C30EF000010F
:1039E00014500D2615500E2240EC1EF00DC03CF078
:1039F0000EC03DF0000176BF0AEF1DF01CC30DF0B4
:103A00001DC30EF075C00FF076C010F043EC10F03F
:103A100014EF1DF020C30DF021C30EF075C00FF0A0
:103A200076C010F043EC10F01EC30DF01FC30EF073
:103A3000000114500D2615500E2240EC1EF00DC052
:103A40003AF00EC03BF0000178BF33EF1DF027C302
:103A50000DF028C30EF077C00FF078C010F043ECE3
:103A600010F03DEF1DF02BC30DF02CC30EF077C00E
:103A70000FF078C010F043EC10F029C30DF02AC30A
:103A80000EF0000114500D2615500E2240EC1EF0D1
:103A90000DC03EF00EC03FF032C30DF033C30EF048
:103AA00079C00FF07AC010F043EC10F034C30DF081
:103AB00035C30EF0000114500D2615500E2240ECB7
:103AC0001EF00DC040F00EC041F03AC30DF03BC3F4
:103AD0000EF07BC00FF07CC010F043EC10F03CC344
:103AE0000DF03DC30EF0000114500D2615500E22AE
:103AF00040EC1EF00DC042F00EC043F0040117A1CF
:103B0000A7EF1DF000017EBF92EF1DF01CC30DF06A
:103B10001DC30EF07DC00FF07EC010F043EC10F01E
:103B20009CEF1DF020C30DF021C30EF07DC00FF0FF
:103B30007EC010F043EC10F01EC30DF01FC30EF05A
:103B4000000114500D2615500E22BAEF1DF03EC391
:103B50000DF03FC30EF07DC00FF07EC010F043ECBF
:103B600010F040C30DF041C30EF0000114500D26BB
:103B700015500E2240EC1EF00DC044F00EC045F072
:103B800003019AA1E9EF1DF0000180BFD4EF1DF001
:103B900011C30DF012C30EF07FC00FF080C010F003
:103BA00043EC10F0DEEF1DF015C30DF016C30EF060
:103BB0007FC00FF080C010F043EC10F013C30DF085
:103BC00014C30EF0000114500D2615500E22FCEF08
:103BD0001DF042C30DF043C30EF07FC00FF080C054
:103BE00010F043EC10F044C30DF045C30EF000019B
:103BF00014500D2615500E2240EC1EF00DC046F05C
:103C00000EC047F081C00DF082C00EF0F40E0D5EC4
:103C1000010E0E5AD8900D360E360EBE18EF1EF05D
:103C200046C30FF047C310F043EC10F01EEF1EF038
:103C30004AC30FF04BC310F043EC10F048C30DF033
:103C400049C30EF00D5014260E50152214C00DF06D
:103C500015C00EF040EC1EF00DC048F00EC049F04B
:103C60000001CC673FEF1EF00301B1516DEC24F071
:103C7000D8A03FEF1EF038C340F039C341F0120026
:103C80000201AE5100010D5C0201AF5100010E585E
:103C9000E8AE50EF1EF0AEC20DF0AFC20EF0120053
:103CA0000201B05100010D5C0201B15100010E583A
:103CB000E8BE1200B0C20DF0B1C20EF01200000159
:103CC00033B46EEF1EF035A46EEF1EF03594010E86
:103CD0005D6E050E35EC0AF0D8801200D890120007
:103CE0000001000E0D6E020E0E6E0001000E136E2E
:103CF000000E146E010E156EE86A0A6E0EEC0CF0E2
:103D0000020100510001A56F12000001000E0D6EAE
:103D1000020E0E6E0001000E136E000E146E010EE8
:103D2000156E040E0A6E42EC0CF01200E846E8062E
:103D30000B6E0001000E0D6E030E0E6E0001000EE4
:103D4000136E000E146E010E156E0B501426E86AE9
:103D50001522100E0A6E0EEC0CF01200E846E80672
:103D60000B6E0001000E0D6E080E0E6E0001000EAF
:103D7000136E000E146E010E156E0B501426E86AB9
:103D80001522400E0A6E0EEC0CF00001000EB56F0D
:103D9000030EB66F0001000EB36F030EB46F000187
:103DA000080EB46F100EB76F45EC23F00001000E43
:103DB0000D6E080E0E6E0001000E136E000E146ED6
:103DC000010E156E0B501426E86A1522010E0A6EBC
:103DD00042EC0CF01200E846E8060B6E0001000E03
:103DE0000D6E030E0E6E0001000E136E000E146EAB
:103DF000010E156E0B501426E86A15220A6E0EECA1
:103E00000CF00001000E0D6E040E0E6E0001000E8F
:103E1000136E000E146E010E156E0B50E82A142658
:103E2000E86A15220A6E0EEC0CF01200E846E8066D
:103E30000C6E0001000E0D6E030E0E6E0001000EE2
:103E4000136E000E146E010E156E0C501426E86AE7
:103E50001522040E0A6E42EC0CF00001000E0D6EED
:103E6000040E0E6E0001000E136E000E146E010E95
:103E7000156E0C50E82A1426E86A1522040E0A6E04
:103E800042EC0CF012000001000EB56F030EB66F8D
:103E90000001000EB36F060EB46F000EB76F45EC55
:103EA00023F00001000EB56F040EB66F0001000E86
:103EB000B36F070EB46F000EB76F45EC23F012001E
:103EC00002010051E846E8060A6E0001000E0D6E80
:103ED000030E0E6E0001000E136E000E146E010E26
:103EE000156E0A501426E86A1522010E0A6E42EC7D
:103EF0000CF0120073C08DF074C08EF075C08FF09E
:103F000076C090F077C091F078C092F079C093F0CD
:103F10007AC094F07BC095F07CC096F07DC097F09D
:103F20007EC098F07FC099F080C09AF081C09BF06D
:103F300082C09CF012007AEC1FF00301B2516DECCC
:103F400024F0D8B0B6EF1FF0030EE26E5C0EE16E07
:103F500065EC22F0610EE16E65EC22F0660EE16E1A
:103F600065EC22F06B0EE16E65EC22F07AEC1FF04E
:103F70000301B3516DEC24F0D8B0D7EF1FF0030E5E
:103F8000E26E700EE16E65EC22F07AEC1FF0750EB9
:103F9000E16E65EC22F07AEC1FF07A0EE16E65ECD2
:103FA00022F07AEC1FF07F0EE16E65EC22F07AECE5
:103FB0001FF00301B4516DEC24F0D8B0F2EF1FF004
:103FC000030EE26E840EE16E65EC22F0890EE16E66
:103FD00065EC22F08E0EE16E65EC22F0930EE16E40
:103FE00065EC22F012008DC00DF08EC00EF010C4F2
:103FF0000FF000010EBE11C40FF0106A0FBE106862
:1040000043EC10F00001640E176E000E186E47ECC2
:1040100011F0000113C0E8FF912714C0E8FF9223BC
:1040200091C00DF092C00EF012C40FF000010EBE50
:1040300013C40FF0106A0FBE106843EC10F00001BB
:10404000640E176E000E186E47EC11F0000113C0DD
:10405000E8FF8D2714C0E8FF8E2391C00DF092C0B9
:104060000EF014C40FF000010EBE15C40FF0106A5C
:104070000FBE106843EC10F00001640E176E000EC6
:10408000186E47EC11F0000113C0E8FF8F2714C031
:10409000E8FF902393C00DF094C00EF016C40FF00B
:1040A00000010EBE106A0FBE106843EC10F0000154
:1040B000640E176E000E186E47EC11F0000113C06D
:1040C000E8FF8F2714C0E8FF90238DC073F08EC0E7
:1040D00074F08FC075F090C076F091C077F092C008
:1040E00078F093C079F094C07AF0040117A187EFBB
:1040F00020F08FC07DF090C07EF0040118A187EF02
:1041000020F000017D1F7E1F7D2BD8B07E2B030188
:1041100098A1ADEF20F08FC00DF090C00EF091C0CF
:104120000FF092C010F0D8900EBED8800E320D3233
:10413000D89010BED88010320F320DC075F00EC06E
:1041400076F00DC077F00EC078F00F507727105042
:1041500078230F50755F1050765B030199A1D3EF60
:1041600020F08FC00DF090C00EF08DC00FF08EC00B
:1041700010F0D8900EBED8800E320D32D89010BEFE
:10418000D88010320F320DC075F00EC076F00DC021
:1041900073F00EC074F00F507327105074230F503B
:1041A000755F1050765B03019AA18DEF21F08DC0F1
:1041B0000DF08EC00EF00DC073F00EC074F00DC087
:1041C0007FF00EC080F00001640E176E000E186EB6
:1041D00003019C51E812D8B439EF21F0E8BE16EF84
:1041E00021F0640800010F6E106A74BF04EF21F023
:1041F00073C00DF074C00EF043EC10F047EC11F0FA
:1042000013C073F014C074F0000180AF39EF21F0D7
:104210007FC00DF080C00EF043EC10F047EC11F0C1
:1042200013C07FF014C080F039EF21F0640F00015B
:104230000F6E106A74AF29EF21F073C00DF074C0D7
:104240000EF043EC10F047EC11F013C073F014C003
:1042500074F0000180BF39EF21F07FC00DF080C005
:104260000EF043EC10F047EC11F013C07FF014C0D7
:1042700080F003019BA143EF21F000017F1F801F0D
:104280007F2BD8B0802B0001640E176E000E186EC5
:1042900003019D51E812D8B48DEF21F00301C651FE
:1042A000E812D8B466EF21F00301C5516DEC24F09B
:1042B000D8B08DEF21F00001E80E0D6E030E0E6EEA
:1042C00093510D5E94510E5A6FEF21F00001E80EEC
:1042D0000D6E030E0E6E99510D5E9A510E5A9DC3CE
:1042E0000FF09EC310F0106AE8BE101E43EC10F0F1
:1042F00047EC11F0135073271450742303019BB142
:1043000088EF21F00001131E141E132AD8B0142ABE
:10431000000113507F271450802312000301A4A131
:1043200012007AEC1FF0F3EC1FF012000301A4B1AD
:104330009EEF21F07AEC1FF0F3EC1FF003019EA139
:10434000B9EF21F00301C2516DEC24F0D8A0B9EF10
:1043500021F003019F5100010D6E0E6A00010A0E4B
:104360000F6E000E106E43EC10F013C079F014C005
:104370007AF00301A0A1E6EF21F00301C3516DEC37
:1043800024F0D8A0C8EF21F00301A151D1EF21F012
:104390000301C4516DEC24F0D8A0E6EF21F0030135
:1043A000A25100010D6E0E6A00010A0E0F6E000E82
:1043B000106E43EC10F01350795D14507A59E8AE4A
:1043C000E6EF21F013C079F014C07AF012000BC0B0
:1043D000E8FFF00BD8B412000DC069F00EC06AF00F
:1043E0000EAEF8EF21F00D1E0E1E0D2AD8B00E2ACB
:1043F0000DC013F00EC014F0640E176E76EC10F0C2
:1044000000011C6A090E136010EF22F00BC0E8FFD8
:10441000E83AE8060F0BE8B62DEF22F022EF22F083
:10442000136E0DC01BF00EC01CF0840E00011B5E4D
:10443000030E1C5A0BC0E8FFE83AE8060F0BE8B67B
:104440002DEF22F00B0DF350460F1324E8CFD9FFC8
:10445000020EE8CFDAFF37EF22F0E8960B0DF350AB
:10446000DA0F1324E8CFD9FF030EE8CFDAFFDECF4F
:104470000AF0DFCF0BF000010BC00DF00AC0E8FF1F
:104480000D5E0E6A0DBE0E681BC00FF01CC010F052
:1044900043EC10F00A0E176E76EC10F00AC0E8FF3D
:1044A0000A0DF3CFE8FF1326F4CFE8FF142213C060
:1044B0000DF014C00EF000016AAF120000010D1ED5
:1044C0000E1E0D2AD8B00E2A1200E650E8CF0BF0CF
:1044D000E812D8B4120080EC02F0E7EC21F00DC035
:1044E00011F00EC012F0E6CF0AF0E6CFE8FF0001AF
:1044F000E8CF0DF00E6A0DBE0E1E00010A0E0F6E03
:10450000000E106E43EC10F011C00DF012C00EF052
:1045100013500D5E14500E5A0EBEC4EF22F0E6CFBB
:10452000E8FF00010AACADEF22F0E8CF13F0E9CFCD
:1045300014F00DC011F00EC012F0135080EC02F018
:104540000DC013F00EC014F00A0E176E76EC10F0CA
:1045500011C00DF012C00EF013500F6E106A0FBE96
:10456000101E43EC10F00001640E176E000E186E62
:10457000196A1A6A47EC11F013C00DF014C00EF05E
:104580000A5000EC03F01200E6CFE8FFE6CFE8FFA8
:1045900000010AAAE2EF22F0E8CF13F00DC011F0FB
:1045A0000EC012F0135080EC02F00DC013F00EC0DC
:1045B00014F00A0E176E76EC10F011C00DF012C058
:1045C0000EF013500F6E106A0FBE101E43EC10F069
:1045D0000001640E176E000E186E196A1A6A47EC15
:1045E00011F013C00DF014C00EF00A5000EC03F0EF
:1045F00012000001BD0EB56F030EB66F0001120E62
:10460000B36F010EB46F050EB76F45EC23F0D90EF2
:10461000E8CFD9FF060EE8CFDAFF060EE8CF0CF0A0
:10462000DDCFE8FFE812D8B41DEF23F0DFCFE8FFBD
:104630006DEC24F0D8B029EF23F0DDCFE8FF0C2E8D
:1046400010EF23F0A5C0E8FF0201006332EF23F072
:104650001200DECFE8FFDECFE8FF0201006332EF99
:1046600023F01200E8CF00F2EBEC1EF00001120E76
:10467000B56F010EB66F0001BD0EB36F030EB46FC0
:10468000050EB76F45EC23F012000001B551E16E45
:10469000B651E26E0001B351D96EB451DA6EE6CF75
:1046A000E8FFE8CFDEFF0001B72F4FEF23F0120045
:1046B0000001BF6B0301AE516DEC24F00001D8B0D6
:1046C000BF810301AF516DEC24F00001D8B0BF836E
:1046D0000301B0516DEC24F00001D8B0BF85030197
:1046E000B1516DEC24F00001D8B0BF870301B65181
:1046F0006DEC24F00001D8B0BF890301BB516DEC13
:1047000024F00001D8B0BF8B0301BC516DEC24F044
:104710000001D8B0BF8D1200C00E0DEC0DF00301EA
:10472000AE516DEC24F00001E86AE880BF15D8A016
:10473000A8EF23F0D8A4B9EF23F0BF71000EF86EF4
:10474000640EF76EF40EF66E63EC0DF06AEF24F073
:10475000D8B0B9EF23F0D8B4B9EF23F0BF71000E91
:10476000F86E640EF76EE20EF66E63EC0DF06AEF13
:1047700024F00301AF516DEC24F00001E86AE882F7
:10478000BF15D8A0D2EF23F0D8A4E3EF23F0BF7376
:10479000000EF86E650EF76E180EF66E63EC0DF0F7
:1047A0006AEF24F0D8B0E3EF23F0D8B4E3EF23F0BE
:1047B000BF73000EF86E650EF76E060EF66E63ECB4
:1047C0000DF06AEF24F00301B0516DEC24F000010C
:1047D000E86AE884BF15D8A0FCEF23F0D8A40DEF59
:1047E00024F0BF75000EF86E650EF76E3C0EF66E87
:1047F00063EC0DF06AEF24F0D8B00DEF24F0D8B4DC
:104800000DEF24F0BF75000EF86E650EF76E2A0EE0
:10481000F66E63EC0DF06AEF24F00301B1516DEC1C
:1048200024F00001D8A023EF24F0BFB724EF24F038
:10483000BF77000EF86E650EF76E840EF66E63ECB1
:104840000DF06AEF24F0BF970301B6516DEC24F030
:104850000001D8A03AEF24F0BFB93BEF24F0BF79B4
:10486000000EF86E650EF76E720EF66E63EC0DF0CC
:104870006AEF24F0BF990301BB516DEC24F00001F5
:10488000D8A051EF24F0BFBB52EF24F0BF7B000E45
:10489000F86E650EF76E4E0EF66E63EC0DF06AEF75
:1048A00024F0BF9B0301BC516DEC24F00001D8A0A3
:1048B00068EF24F0BFBD69EF24F0BF7D000EF86EF5
:1048C000650EF76E600EF66E63EC0DF06AEF24F085
:1048D000BF9D1200500EA36F1200E8AA99EF24F0BA
:1048E000E8A899EF24F00A6E070BC90FE16E030EDA
:1048F000E26EE65000010D6E0E6AE8BE0E68000121
:104900000A0E0F6E000E106E43EC10F00A50070BEB
:10491000E846340FE16E010EE252E650E6CF0BF0AE
:104920000001135E0B501458E8360ABE1200D8700E
:104930001200D890E8BA1200D880E8B8120000013E
:104940001F6E206AE8BC2080070BE82AD88020363A
:10495000E82EA7EF24F030501FB633502014D88033
:104960002062D8901FBED8701200040ED56E1200BF
:10497000D59E1200D89087B21200D880D5BE120002
:10498000C3C00DF0C4C00EF000013C0E0F6E000E4F
:10499000106E54EC10F013C00DF014C00EF00001B6
:1049A000240E0F6EF40E106E54EC10F0C1C017F010
:1049B000C2C018F00001000E196E000E1A6E2AEC2B
:1049C00013F0A5C317F0A6C318F00001186A47EC4E
:1049D00011F0C00E0DEC0DF0000EF86E640EF76EC7
:1049E000520EF66E63EC0DF0CB0E0DEC0DF0C7EC35
:1049F0000DF0A5C313F0A6C314F0146AC00E0DEC9D
:104A00000DF0C3EC0DF00001000EC36F000EC46F7B
:104A1000D88012000001020E36621200000133A09D
:104A20001200FC6A08EF05F023EC25F0D8A0120074
:104A3000FC6A85EC1EF000C2E8FF16EC1FF043ECA8
:104A40001FF008EF05F0000130B62DEF25F032A67B
:104A50002DEF25F03296D8801200D8901200000178
:104A6000650E0E6EA80E0D6E6EEC25F042EC0DF08C
:104A70000001115080EC01F012001EC10DF01FC1A9
:104A80000EF042EC0DF012000001EF51D8B412000C
:104A9000D9EC17F00001000E736F000E746F000167
:104AA000000E756F000E766F8FEC19F022EC19F086
:104AB0005CEC1BF0EEEC1BF0EDEC19F08EEC21F051
:104AC0009BEC1FF096EC21F0D3EC1AF0CFEC1CF02D
:104AD0003AEC0EF012000001EF6912000AEC25F02A
:104AE0000001CD6BDB6BEA6BEB6BC00E0DEC0DF0D8
:104AF0000DC0F6FF0EC0F7FFF86A0DC00FF00EC034
:104B000010F063EC0DF0FA0E9BEC0BF070EC29F05A
:104B1000D8A491EF25F0110E0D26D8B00E2A98EFEB
:104B200025F0D8A0A5EF25F0130E0D26D8B00E2A3B
:104B30000DC0F6FF0EC0F7FFF86A0900F5CF0DF0C3
:104B40000900F5CF0EF075EF25F014EC25F05FECC1
:104B50001EF0D8A075EF25F0150E0D26D8B00E2A40
:104B60000DC0F6FF0EC0F7FFF86A0900F5CF11F08F
:104B70000900F5CF12F00FC00DF010C00EF00900C3
:104B8000F5CF0FF00900F5CF10F00900F5CFCEF00A
:104B90000900F5CFCFF00001B96BBA6BBB697F0E8E
:104BA000E8CFBCF012ACE1EF25F00900F5CFB9F089
:104BB0000900F5CFBAF00900F5CFBBF00900F5CF39
:104BC000BCF012A4EAEF25F00900F5CFEAF00900E5
:104BD000F5CFEBF012A2F3EF25F00900F5CFECF0E2
:104BE0000900F5CFEDF012AEF8EF25F042EC0DF034
:104BF00012A6FDEF25F058EC0DF012A212000001F4
:104C0000E86AE8CFFBFFEDC0E8FFE8CFFAFFECC0B1
:104C1000E8FFF96EE8CF0AF00FC01BF010C01CF0DF
:104C20000FC0F6FF10C0F7FFF86A150EF626D8B0D1
:104C3000F72A0900F5CFE8FF0A6220EF26F01200FC
:104C40000FC0F6FF10C0F7FF110EF626D8B0F72AF6
:104C50000900F5CF0FF00900F5CF10F00FC0E8FF05
:104C60001B6210EF26F010C0E8FF1C6210EF26F068
:104C70001200000110500F10D8B41200E86AFB6E49
:104C80001050E8CFFAFF0F50F96E00010F50E16E9F
:104C90001050E26E0001000E116263EF26F00FC0AB
:104CA000F6FF10C0F7FFF86A160EF626D8B0F72AFE
:104CB000CEC0E1FFCFC0E2FFE7CFE8FF0AEC26F06D
:104CC000DDEC28F01200010E11626AEF26F00CEC08
:104CD00028F01200020E116294EF26F0000112A0DB
:104CE00075EF26F0CE510001B86FE6CF0AF0E5CFA0
:104CF0000BF000010AC011F00BC012F0129E129CC2
:104D000062EC28F000010FC0E1FF10C0E2FF11C00B
:104D10000AF012C00BF00AC0E6FFE7CFE8FFC00BB5
:104D20000B120BC0E5FF1200030E1162A9EF26F073
:104D3000E7CFE8FFE83665EC27F0000ED8B0E81EB4
:104D40000A6E00010FC0E1FF10C0E2FF0AC0E7FFDA
:104D50001200040E1162BAEF26F0E7CFE8FF24EC50
:104D600029F00A6E00010FC0E1FF10C0E2FF0AC087
:104D7000E7FF1200050E1162CCEF26F0E7CFE8FF47
:104D8000BAEC27F0E8CF0AF000010FC0E1FF10C035
:104D9000E2FF0AC0E7FF1200060E1162E2EF26F002
:104DA000E7CF0AF00FC0CEF010C0CFF000015C0ECC
:104DB0000F6E790E106E0AC0E8FF0AEC26F0DDECEB
:104DC00028F01200070E1162E9EF26F039EC26F008
:104DD0001200080E1162FAEF26F0E7CFE8FFB4ECFC
:104DE00027F0E8CF0AF000010FC0E1FF10C0E2FF9A
:104DF0000AC0E7FF0A0E11621BEF27F0E7CFE8FFBA
:104E00000001CE15D890D8B4D88065EC27F0000109
:104E1000CEC00AF000010FC0E1FF10C0E2FFD8B021
:104E200016EF27F00AC0E8FFE71212000AC0E8FFF9
:104E3000E81EE716120012000B6AD8B00B1EC00E57
:104E40000DEC0DF0000EF86E640EF76E000EF66EAF
:104E500063EC0DF00BA041EF27F0C80E0DEC0DF048
:104E6000280EFEEC0CF0CC0E0DEC0DF0290EFEEC35
:104E70000CF0CF0E0DEC0DF0200EFEEC0CF053EF0D
:104E800027F0C80E0DEC0DF0200EFEEC0CF0CC0E51
:104E90000DEC0DF0280EFEEC0CF0CF0E0DEC0DF02D
:104EA000290EFEEC0CF070EC29F0D8B40B6AFF0E62
:104EB000D8B00B6E14EC25F05FEC1EF0D8A02AEFF2
:104EC00027F0D8900BB0D88012000B6AD8B00B1E18
:104ED000C80E0DEC0DF0000EF86E640EF76E360E77
:104EE000F66E63EC0DF00BA08AEF27F0C80E0DEC08
:104EF0000DF0280EFEEC0CF0CC0E0DEC0DF0290E92
:104F0000FEEC0CF0CF0E0DEC0DF0200EFEEC0CF0D4
:104F10009CEF27F0C80E0DEC0DF0200EFEEC0CF00F
:104F2000CC0E0DEC0DF0280EFEEC0CF0CF0E0DECBF
:104F30000DF0290EFEEC0CF070EC29F0D8B40B6AE1
:104F4000FF0ED8B00B6E14EC25F05FEC1EF0D8A06D
:104F500073EF27F0D8900BB0D88012000001BB652A
:104F6000BB51B961B95112000001E86900019D6FA0
:104F7000BEEF27F000019D6F0001E86BC80E9BECAF
:104F80000BF09DC0E8FF0001136E146A156A166AE3
:104F9000F1EC0DF00001E867DCEF27F0CD0E0DEC31
:104FA0000DF02750FEEC0CF02850FEEC0CF02950D0
:104FB000FEEC0CF0EBEF27F0CC0E0DEC0DF02750D3
:104FC000FEEC0CF02850FEEC0CF02E0EFEEC0CF07B
:104FD0002950FEEC0CF096EC29F00001D8A4F7EF74
:104FE00027F09D2BBB519D619D6F02EF28F0D8A04B
:104FF00002EF28F09D51B96102EF28F09D07B951E9
:105000009D659D6F14EC25F05FEC1EF0D8A0BEEFFF
:1050100027F000019D51120044EC25F0FA0E9BECA4
:105020000BF0E7CFE8FFE7BEE81EE7BEE82A000185
:10503000136E146A156A166AF1EC0DF0CB0E0DECC6
:105040000DF0200EE7BE2D0EFEEC0CF02750FEEC0E
:105050000CF02850FEEC0CF02950FEEC0CF0250E64
:10506000FEEC0CF096EC29F00001D8A43BEF28F000
:10507000E72A3FEF28F0D8A03FEF28F0E70614EC2E
:1050800025F05FEC1EF0D8A00CEF28F00001EF6BCC
:10509000120000011150BB5D1250BC59D8B056EF40
:1050A00028F0BB51116EBC51126E1200B951115C47
:1050B000BA511258D8B061EF28F0B951116EBA51F7
:1050C000126E120049EC28F00001BE6B0001B851CD
:1050D000E812D8B474EF28F0B851E16E000EE26E19
:1050E00011C0E6FF12C0E7FF320E9BEC0BF011C0BF
:1050F00013F012C014F0D89014321332156A166AE5
:10510000F1EC0DF0C90E0DEC0DF02650FEEC0CF09C
:105110002E0EFEEC0CF02750FEEC0CF02850FEECAE
:105120000CF02950FEEC0CF06D0EFEEC0CF0530E62
:10513000FEEC0CF096EC29F00001D8A4AFEF28F0BB
:10514000112AD8B4122A112AD8B4122ABC511262D8
:1051500062EF28F0BB511160116E62EF28F0D8A009
:10516000C1EF28F01106D8A012061106D8A0120629
:10517000BA51126262EF28F0B9511164116E62EFF8
:1051800028F0000133A2BE6933BCCCEF28F0000147
:10519000A00E116E0F0E126E000133BED5EF28F077
:1051A0000001D00E116E070E126E14EC25F05FECAC
:1051B0001EF0D8A066EF28F01200C00E0DEC0DF026
:1051C0000FC0F6FF10C0F7FF63EC0DF0FA0E9BEC7A
:1051D0000BF096EC29F0D8A4F4EF28F0110E0F266E
:1051E000D8B0102AFBEF28F0D8A008EF29F0130E52
:1051F0000F26D8B0102A0FC0F6FF10C0F7FFF86ACC
:105200000900F5CF0FF00900F5CF10F0DDEF28F021
:1052100014EC25F05FEC1EF0D8A0DDEF28F0150EA1
:105220000F26D8B0102A0FC0F6FF10C0F7FFF86A9B
:105230000900F5CF0AF00900F550CEC0E1FFCFC05C
:10524000E2FF0AC0E7FF12000F0BE8B6080B0C0DD7
:10525000F3CF13F0F4CF14F00001900E13266F0E6D
:105260001422CC0E0DEC0DF013C0F6FF14C0F7FFA6
:1052700063EC0DF0FA0E9BEC0BF096EC29F0D8A441
:1052800048EF29F0050E1326D8B0142A4FEF29F065
:10529000D8A05CEF29F0070E1326D8B0142A13C04B
:1052A000F6FF14C0F7FFF86A0900F5CF13F0090004
:1052B000F5CF14F031EF29F014EC25F05FEC1EF07F
:1052C000D8A031EF29F0090E1326D8B0142A13C044
:1052D000F6FF14C0F7FFF86A0900F5CFE8FF1200E7
:1052E000040E91EC08F0040E91EC08F0C5C0E8FF44
:1052F000C35EC6C0E8FFC45AC4BE89EF29F0640E7D
:10530000C35E000EC45AC4BE93EF29F0D884D8906F
:105310001200640EC326000EC422C4AE93EF29F01F
:10532000D894D8801200D894D8901200050E91EC31
:1053300008F0050E91EC08F0C7C0E8FFC35EC8C0D6
:10534000E8FFC45AC4BEAFEF29F0640EC35E000E7E
:10535000C45AC4BEB9EF29F0D884D8901200640EA4
:10536000C326000EC422C4AEB9EF29F0D894D88069
:105370001200D894D8901200B6EF2AF0800E0DECEF
:105380000DF0000EF86E650EF76EC00EF66E63EC53
:105390000DF003EF2BF00101D80E1E6F650E1F6F8D
:1053A0000101C40E206F670E216F46EC2AF085ECD8
:1053B0001EF000C2E8FF16EC1FF043EC1FF01200D5
:1053C0000101F00E1E6F650E1F6F0101B60E206FFA
:1053D000680E216F46EC2AF0D7EF29F00101080E84
:1053E0001E6F660E1F6F0101A00E206F6A0E216FE7
:1053F00046EC2AF0D7EF29F00101200E1E6F660E51
:105400001F6F0101FC0E206F6F0E216F46EC2AF01A
:10541000D7EF29F00101380E1E6F660E1F6F0101D4
:10542000CA0E206F760E216F46EC2AF0D7EF29F0D6
:105430000001DD6B0101500E1E6F660E1F6F010132
:10544000D40E206F7C0E216F46EC2AF0D7EF29F0A6
:105450000101680E1E6F660E1F6F01011C0E206F8A
:10546000810E216F46EC2AF0D7EF29F00101800E62
:105470001E6F660E1F6F0101960E206F840E216F46
:1054800046EC2AF0D7EF29F033EF31F03DEC25F070
:1054900020C10DF021C10EF06EEC25F00DC020F101
:1054A0000EC021F1EAC026F1EBC027F10001115036
:1054B000090AD8A4A8EF2AF00FC00DF010C00EF012
:1054C0006EEC25F00DC022F10EC023F1EAC028F1E8
:1054D000EBC029F100011150090AD8A490EF2AF07D
:1054E0000FC00DF010C00EF06EEC25F00DC024F1D1
:1054F0000EC025F1EAC02AF1EBC02BF145EC26F0F5
:105500000001CDB196EF2AF02AC10FF02BC110F0A7
:1055100039EC26F024C10DF025C10EF074EF2AF00D
:1055200045EC26F00001CDB1ADEF2AF028C10FF017
:1055300029C110F039EC26F020C10DF021C10EF088
:1055400042EC0DF022C10DF023C10EF060EF2AF005
:1055500045EC26F00001CDB1120026C10FF027C1A5
:1055600010F039EC26F046EF2AF0120000C2E8FFF6
:1055700096EC1EF0800E0DEC0DF0000EF86E630E32
:10558000F76ECA0EF66E63EC0DF08D0E0DEC0DF09D
:10559000020100510001136E146A156A166ABFEC0D
:1055A0000DF0CBEC05F0FA0E9BEC0BF096EC29F02D
:1055B000D8A4E5EF2AF0610E0201002B0063B6EFDC
:1055C0002AF0010E006FB6EF2AF0D8A0F3EF2AF010
:1055D00002010007000E0063B6EF2AF0600E020120
:1055E000006FB6EF2AF05FEC1EF0D8A0D6EF2AF0DD
:1055F00000C2E8FFEBEC1EF000C2E8FFE8CFA5F028
:1056000085EC1EF01200C00E0DEC0DF0CBEC05F099
:10561000000EE16E030EE26E960E9BEC0BF0C00ED8
:10562000E1240DEC0DF0E750FEEC0CF0C00EE1248F
:105630000DEC0DF00E0E0DEC0DF070EC29F0D8A471
:105640002BEF2BF0E12A0F0EE1640CEF2BF0000E94
:10565000E16E0CEF2BF0D8A037EF2BF0E106FF0E38
:10566000E1620CEF2BF00F0EE16E0CEF2BF096ECDD
:1056700029F0D8A442EF2BF0E72A7A0EE760E76E14
:105680000CEF2BF0D8A04BEF2BF0E706200EE764D1
:10569000E76E0CEF2BF05FEC1EF0D8A01DEF2BF0A7
:1056A0000C0E0DEC0DF000C2E8FF16EC1FF012001E
:1056B0000DC02CF10EC02DF10FC02EF110C02FF136
:1056C000D0C00DF0D1C00EF00001E80E0F6E030E39
:1056D000106E43EC10F00001000E176E010E186EF4
:1056E00047EC11F013C0D0F014C0D1F00001D2513A
:1056F000D027D351D123D4C00DF0D5C00EF0000176
:10570000E80E0F6E030E106E43EC10F00001000E59
:10571000176E010E186E47EC11F0D2C0D4F0D3C052
:10572000D5F01350D45F1450D55B2CC10DF02DC1B2
:105730000EF02EC10FF02FC110F012000DC02CF191
:105740000EC02DF10FC02EF110C02FF1D0C00DF002
:10575000D1C00EF0D2510D5ED3510E5A0001000E91
:105760000F6E010E106E43EC10F00001E80E176E84
:10577000030E186E47EC11F013C0D0F014C0D1F036
:10578000D2C00DF0D3C00EF0D4510D5ED5510E5ADB
:105790000001000E0F6E010E106E43EC10F00001C0
:1057A000E80E176E030E186E47EC11F013C0D4F01C
:1057B00014C0D5F02CC10DF02DC10EF02EC10FF08C
:1057C0002FC110F012000DC02CF10EC02DF10FC032
:1057D0002EF110C02FF10001BEA11BEF2CF0000E26
:1057E00000010F18D8B406EF2CF0D2C013F0D3C0CC
:1057F00014F0D89013361436D051135ED151145A88
:1058000013C0D4F014C0D5F01BEF2CF0000E000133
:105810000F18D8B41BEF2CF0D2C013F0D3C014F083
:10582000D89013361436D451135ED551145A13C080
:10583000D0F014C0D1F02CC10DF02DC10EF02EC14E
:105840000FF02FC110F012003C0E0001B86F0001E4
:10585000110EB56F030EB66F0001D00EB36F000EC0
:10586000B46F0B0EB76F45EC23F0DB6B58EC2BF0ED
:1058700012003A0E0001B86F00011C0EB56F030E46
:10588000B66F2CEF2CF03E0E0001B86F0001270E12
:10589000B56F030EB66F2CEF2CF00001110EB36F35
:1058A000030EB46FE3EC2BF0DBA1D86B9EEC2BF076
:1058B0000001D00EB56F000EB66F0B0EB76F45EC42
:1058C00023F00001B86B120000011C0EB36F030E31
:1058D000B46F52EF2CF00001270EB36F030EB46FBC
:1058E00052EF2CF00DC02CF10EC02DF10FC02EF197
:1058F00010C02FF1030132C30DF033C30EF00001CD
:10590000E80E0F6E030E106E43EC10F00001000E57
:10591000176E010E186E47EC11F013C032F314C06D
:1059200033F3030134513227355133232CC10DF0A9
:105930002DC10EF02EC10FF02FC110F012000DC0BE
:105940002CF10EC02DF10FC02EF110C02FF132C37B
:105950000DF033C30EF00301345100010D5E03015D
:10596000355100010E5A0001000E0F6E010E106E2F
:1059700043EC10F00001E80E176E030E186E47ECB2
:1059800011F013C032F314C033F32CC10DF02DC14C
:105990000EF02EC10FF02FC110F00001B86B1200F5
:1059A000420E0001B86F00013A0EB56F030EB66FDC
:1059B0000001D00EB36F000EB46F040EB76F45EC4C
:1059C00023F058EC2BF01200440E0001B86F0001D8
:1059D0003E0EB56F030EB66FD8EF2CF0460E0001E9
:1059E000B86F0001420EB56F030EB66FD8EF2CF002
:1059F00000013A0EB36F030EB46F9EEC2BF0000162
:105A0000D00EB56F000EB66F040EB76F45EC23F0E5
:105A10000001B86B120000013E0EB36F030EB46FAD
:105A2000FDEF2CF00001420EB36F030EB46FFDEFDB
:105A30002CF00001460EB56F030EB66F0001D00EBC
:105A4000B36F000EB46F060EB76F45EC23F058EC41
:105A50002BF012009EEC2BF00001D00EB56F000E63
:105A6000B66F0001460EB36F030EB46F060EB76F2C
:105A700045EC23F00001B86B1200AEC2B9F0AFC222
:105A8000BAF0B0C2BBF0B1C2BCF01200CEC0B5F0EB
:105A9000CFC0B6F00001DC0EB36F000EB46F050E80
:105AA000B76F45EC23F0CEC0B3F0CFC0B4F0000127
:105AB000DC51E83A0F0BE46FE36BDDBFE31FE16BF2
:105AC000DF51DDBDE16FE26BE051DDBBE26F0F0E38
:105AD000E117E217DD17DC1712000001E451E83A84
:105AE000F00BDC13E3BFDD8FE151E812D8B47CEF9B
:105AF0002DF0E151DF6FDD8DE251E812D8B484EF73
:105B00002DF0E251E06FDD8B0001DC0EB56F000E71
:105B1000B66F050EB76F45EC23F0120010C4DFF02E
:105B200011C4E0F01200DFC010F4E0C011F4120064
:105B300012C4DFF013C4E0F01200DFC012F4E0C0C2
:105B400013F4120014C4DFF015C4E0F01200DFC03B
:105B500014F4E0C015F412000001DBAF12000301E1
:105B6000196B246B2F6B12000001DBAF1200A7C36F
:105B700013F0A8C314F0835113268451142213C0C8
:105B8000A7F314C0A8F3A9C313F0AAC314F0855156
:105B900013268651142213C0A9F314C0AAF3ABC371
:105BA00013F0ACC314F0875113268851142213C08C
:105BB000ABF314C0ACF312000001DBAF1200030121
:105BC000A76BA86BA96BAA6BAB6BAC6B1200000147
:105BD000B96B600E0001BB6F12000001DD51DD6783
:105BE000F3EF2DF01200020100C20AF0006F000175
:105BF0000AC0DDF016EC1FF00001DDC00AF0020162
:105C00000AC000F212000001DBAF120003011951BB
:105C1000196B18C30AF000010D6E0E6AE8BE0E681B
:105C20000D360E360001640E0F6E000E106E43EC42
:105C300010F00AC017F0186A47EC11F01350030176
:105C4000A727000114500301A82303012451246B4A
:105C500023C30AF000010D6E0E6AE8BE0E680D3611
:105C60000E360001640E0F6E000E106E43EC10F045
:105C70000AC017F0186A47EC11F013500301A92766
:105C8000000114500301AA2303012F512F6B2EC3CF
:105C90000AF000010D6E0E6AE8BE0E680D360E3673
:105CA0000001640E0F6E000E106E43EC10F00AC07F
:105CB00017F0186A47EC11F013500301AB270001ED
:105CC00014500301AC2312000001DBAF120094EC6E
:105CD00031F0120045EC23F012000001D00EB36F3A
:105CE000000EB46FCEC0B5F0CFC0B6F00B0EB76FDC
:105CF00045EC23F00001D00EB56F000EB66FCEC09C
:105D0000B3F0CFC0B4F00B0EB76F12000201D89001
:105D1000A23712000201D890A23312000001E9AFAD
:105D20001200EDEC0FF0120013C20FF014C210F0CD
:105D3000030E0001A06F43EC30F00FC013F210C04F
:105D400014F21200A9C20FF0AAC210F00D0E000149
:105D5000A06F43EC30F00FC0A9F210C0AAF21200FD
:105D60000001DBAF12000501006B016B1200C7ECF4
:105D70000BF012000001CE51B36F020EB46FCF5181
:105D800000011F6E030E7CEC08F014C08BF015C0F0
:105D90008CF0C00E0DEC0DF0000EF86E8A0EF76E52
:105DA000AE0EF66E63EC0DF05FEC1EF0D8A0D4EFF3
:105DB0002EF000011F507CEC08F014C06DF015C0EF
:105DC0006EF014C06FF015C070F0FA0E9BEC0BF083
:105DD000C00E0DEC0DF0000EF86E8A0EF76EC00EC0
:105DE000F66E63EC0DF05FEC1EF0D8A0F3EF2EF032
:105DF00000011F507CEC08F014C06BF015C06CF073
:105E0000FA0E9BEC0BF000016B516D276C516E2369
:105E10006E336D336E9F6FC017F070C018F00001C5
:105E2000E80E146E030E156E136A166A6B51175E38
:105E30006C51185A18321732189E196A1A6A47ECB0
:105E400011F013C06BF014C06CF000016B0EB56F55
:105E5000000EB66F040E0001B76F45EC23F0120080
:105E60000001CE51B36F020EB46FCF5100011F6E0F
:105E7000C00E0DEC0DF0000EF86E8A0EF76EAE0E31
