:020000040000FA
:040200006BEF03F0AD
:040208000EEF01F004
:080218002DEF01F0D8CF01F039
:10022000E0CF02F0006EF3CF03F0F4CF04F0F0ACB7
:100230001DEF01F0F0B033EC0CF0A2A023EF01F0C1
:10024000A1B0DBEC09F003C0F3FF04C0F4FF0050E1
:1002500002C0E0FF01C0D8FF1000D8CF06F0E8CF01
:1002600005F0E0CF07F0F3CF08F0F4CF09F0F0BCD1
:100270003DEF01F0F0B033EC0CF0A2B043EF01F031
:10028000A1B0DBEC09F0A2B04CEF01F0AECFE8FF7B
:100290006ECFE8FF52EF01F09EBA92EC10F0A4BAD4
:1002A000FDEC10F008C0F3FF09C0F4FF07C0E0FF49
:0A02B00005C0E8FF06C0D8FF1000EB
:10030000F95000011150F92697EF2EF099EF2EF0D9
:10031000A6EF2EF0BBEF2EF0C9EF2EF0D7EF2EF0A8
:10032000E5EF2EF0F3EF2EF003EF2FF011EF2FF0AB
:100330001FEF2FF021EF2FF01200E8B81200E8BAFB
:100340001200E8BC1200E8BE12000F0BD8A4AFEFF9
:1003500001F00001000E0F6E000E106E1200E80694
:10036000030B0A0DF9CFE8FFF350F92685C00FF013
:1003700086C010F0120087C00FF088C010F0120085
:1003800089C00FF08AC010F012008BC00FF08CC033
:0403900010F0120057
:10040000EFCFE8FFE806070B0A0DF9CFE8FFF3503E
:10041000F9263EC050F03FC051F012003CC050F0F1
:100420003DC051F0120040C050F041C051F01200E8
:1004300042C050F043C051F0120044C050F045C0DB
:1004400051F0120046C050F047C051F0120048C0B1
:1004500050F049C051F012004AC050F04BC051F06A
:1004600012000F0B060DF9CFE8FFF350F926BBC2BF
:10047000E8FF1200BCC2E8FF1200BDC2E8FF120094
:10048000BEC2E8FF1200BFC2E8FF1200C0C2E8FF10
:100490001200C1C2E8FF1200C2C2E8FF1200C3C2CC
:1004A000E8FF1200C4C2E8FF1200C5C2E8FF120054
:1004B000C6C2E8FF1200C7C2E8FF1200C8C2E8FFC8
:0E04C0001200C9C2E8FF1200CAC2E8FF120013
:100500000001E806070B0A0DF9CFE8FFF350F926C2
:1005100093510D6E94510E6E120095510D6E9651C1
:100520000E6E120097510D6E98510E6E1200995179
:100530000D6E9A510E6E12009B510D6E9C510E6EF7
:1005400012009D510D6E9E510E6E12009F510D6E48
:10055000A0510E6E1200A1510D6EA2510E6E12002E
:100600000001E8BE33EF03F0E806070B0A0DF9CF4F
:10061000E8FFF350F9260D5075270E50762312008F
:100620000D5077270E50782312000D5079270E5069
:100630007A2312000D507B270E507C2312000D50A0
:100640007D270E507E2312000D507F270E508023F1
:1006500012000D5081270E50822312000D50832767
:100660000E5084231200E806070B0A0DF9CFE8FFAD
:10067000F350F9260D50756F0E50766F12000D5025
:10068000776F0E50786F12000D50796F0E507A6FA1
:1006900012000D507B6F0E507C6F12000D507D6F5D
:1006A0000E507E6F12000D507F6F0E50806F120043
:1006B0000D50816F0E50826F12000D50836F0E50DF
:1006C000846F1200F2AE12000001010EA76FA7673F
:1006D00067EF03F0120075EC0CF0928802C5E8FF9A
:1006E000E81EE86676EF03F092988098939C819CD0
:1006F00000015D6A5E6AE86AE8CFF8F03F0EF86EC6
:10070000FF0EF76EFF0EF66E0800F5504A0AFF0E58
:10071000D8B4E8CFF8F00001566A640E6AEC0CF029
:10072000280EE8CFD4F20001500E386EC30E396E99
:100730000F018350306E316E326E0F018450336E74
:10074000346E356E0F0199908780949693948296BB
:1007500081940001000E176E000E186E0001000E4D
:10076000196E000E1A6E0001000E1B6E000E1C6E3C
:100770000001000E1D6E000E1E6E0001000E136EB5
:10078000000E146E0001000E156E000E166E0001B4
:10079000000EB16F000EB26F0001000EB36F000EBD
:1007A000B46F0001000EB56F000EB66F0001000EB1
:1007B000B76F000EB86F0101000E5D6F000E5E6F27
:1007C0000001606B616B626BA76BA86BA96BED6935
:1007D000EF6BF06B0201BA6B0101116B0001D26B80
:1007E000000EF86E710EF76EE80EF66E0900F5CF8A
:1007F00058F10900F5CF59F10900F5CF5AF19AECFB
:1008000038F0020100510001AB6F040E50EC09F00A
:10081000040E50EC09F00001C350CB6FC450CC6FF4
:10082000050E50EC09F0050E50EC09F00001C35024
:10083000CD6FC450CE6FDFEC0DF0FA0E6AEC0CF009
:10084000FA0E6AEC0CF0FA0E6AEC0CF0FA0E6AEC96
:100850000CF08AEC09F0E7EC28F027EC10F03BEC08
:1008600010F061EC4EF0F28EF28CD08E0F01D89029
:1008700083B6D880D8B042EF04F00A0E6AEC0CF0D0
:100880000F01D89083B6D880D8B058EF04F00F018C
:10089000D89084B2D880D8B053EF04F00A0E6AEC36
:1008A0000CF00F01D89084B2D880D8A07AEF04F071
:1008B00079EC22F00201A50EA76365EF04F0E70EC4
:1008C000A86365EF04F069EF04F09AEC38F0E8EC07
:1008D0000CF000C2E8FFF4EC22F00301AD5102017C
:1008E000A56FBEEC0BF039EC0BF00101F20E066FB8
:1008F00076EC0BF00F01D89084B2D880D8A07AEFB4
:1009000004F00A0E6AEC0CF00F01D89084B2D88083
:10091000D8A07AEF04F0809802C5E8FFE8668078F6
:10092000D2C2E8FFE8669AEF04F0808802C5E8FFCB
:10093000E866807892981E0EE8CF15F0840EE8CF16
:1009400014F0800EE8CF13F0D4C217F0E86AE8CFB5
:1009500018F066EC13F0D5C2E8FF00011326E86A30
:10096000142213C038F014C039F0040E50EC09F012
:10097000040E50EC09F00001C350CB6FC450CC6F93
:10098000050E50EC09F0050E50EC09F00001C350C3
:10099000CD6FC450CE6F0F01D89084B4D880D8B03A
:1009A000D7EF04F00A0E6AEC0CF00F01D89084B473
:1009B000D880D8B0EDEF04F00F01D89083B6D8807E
:1009C000D8B0E8EF04F00A0E6AEC0CF00F01D890F2
:1009D00083B6D880D8A06DEF08F00F01D89084B40A
:1009E000D880D8B0F9EF04F00A0E6AEC0CF00F01D1
:1009F000D89084B4D8800101D8B05D690201A0C24A
:100A00000AF00201FF0E0AB0A56FA5616BEF05F0B9
:100A10000301A6A14BEF05F00F0183BE4BEF05F0DC
:100A2000800E83EC0EF0000EF86E720EF76EAA0EBA
:100A3000F66E14EC0FF0C00E83EC0EF0000EF86EA4
:100A4000720EF76E4A0EF66E14EC0FF00F01D8908E
:100A500084B4D880D8B032EF05F00A0E6AEC0CF0FE
:100A60000F01D89084B4D880D8B026EF05F00F01DC
:100A7000D89084B4D880D8A037EF05F00A0E6AEC7D
:100A80000CF00F01D89084B4D880D8A037EF05F0CF
:100A9000C80E6AEC0CF00201D1B152EF05F0D1A3FF
:100AA0006BEF05F0800E0001A36F3FEC37F0D8909C
:100AB00080EC2BF0D8B062EF05F00201FF0EA56FBD
:100AC0006BEF05F0BEEC0BF039EC0BF076EC0BF0B5
:100AD0000A0E6AEC0CF00001010E366EA3C254F04F
:100AE000A4C255F00201A25100014F6E7EEC27F026
:100AF0004CEC23F0C00EE8CF90F0E8CF92F0FCAEC3
:100B000085EF05F00F0193948194000133B0A5EFB8
:100B100005F0010E36621BEF06F00001050EE8CF6E
:100B20005FF0070EFDEC0AF0020E366E0001AB51CD
:100B3000020100639EEF05F01BEF06F0006FF4EC7E
:100B400022F04CEC23F01BEF06F0010E366E1FEC8A
:100B500027F070EC1AF0A4EC1CF0F2EC07F00201A4
:100B6000A1A1D8EF05F00301B65193EC28F0D8A06D
:100B7000D8EF05F00201B767D0EF05F0B1C075F00E
:100B8000B2C076F0B3C077F0B4C078F0B5C079F0F9
:100B9000B6C07AF0B7C07BF0B8C07CF0D8EF05F0F3
:100BA000F08CF086A290E868E8CFF5F0DEEF05F073
:100BB000F09CF086A280E86AE8CFF5F00201A0B1CF
:100BC00009EF06F0A2EC19F0D8B409EF06F037EC03
:100BD0001CF0CAEC1BF0F2EC1EF002EC20F095ECDD
:100BE0001CF073EC1DF061EC25F0A4EC23F069EC33
:100BF00025F0BAEC25F08DEC1FF069EC1EF079ECD5
:100C00004EF00001EF6737EC12F00001F06737ECAF
:100C100012F062EC03F0E3EC20F097EC11F0E0EC62
:100C20000FF00001A86719EF06F00A0EA86F72EC2A
:100C300006F07FEF05F0800E83EC0EF0000EF86EEC
:100C4000730EF76EDC0EF66E14EC0FF0C00E83EC34
:100C50000EF0000EF86E720EF76E4A0EF66E14EC81
:100C60000FF00D0E50EC09F06BC05BF16CC05CF145
:100C700068EC22F0D8A03FEF06F061EC29F070ECB0
:100C80001AF0A4EC1CF037EC1CF0CAEC1BF0F2ECF0
:100C90001EF002EC20F095EC1CF073EC1DF061EC02
:100CA00025F0A4EC23F069EC25F0BAEC25F08DECEE
:100CB0001FF069EC1EF0E3EC20F0E0EC0FF07FEFAA
:100CC00005F00001100E0B6EC00E83EC0EF0000E4E
:100CD000E16E030EE26EE65074EC0EF00B2E6BEF3D
:100CE00006F012005DC1E8FFE81EE8666BEF19F040
:100CF0004AC1E8FFE866ECEF4FF00001840E83EC98
:100D00000EF0200E74EC0EF00201520EA5BF200E64
:100D1000000174EC0EF00601CE5193EC28F0410E68
:100D2000D8A0200E74EC0EF00301B25193EC28F021
:100D30004D0ED8A02D0E74EC0EF00301B35193ECC0
:100D400028F04D0ED8A02D0E74EC0EF00301B45116
:100D500093EC28F04D0ED8A02D0E74EC0EF0200E62
:100D600074EC0EF0800E83EC0EF0B9C20DF0BAC236
:100D70000EF00E6A0001640E0F6E000E106E62EC33
:100D800012F013C011F014C012F08DC00DF08EC01F
:100D90000EF013C20FF014C210F062EC12F01450F7
:100DA000E8CF13F01550E8CF14F0156A010111B126
:100DB000EAEF06F000011150135C12501458E8AE2F
:100DC000EAEF06F0C90E00015F6E050EFDEC0AF0B9
:100DD00001011169000197EC0FF0200EE8CF0AF035
:100DE000300E25640AC025F0255074EC0EF0265014
:100DF00074EC0EF02E0E74EC0EF0275074EC0EF026
:100E00000301B65193EC28F0D8A023EF07F0A1C25C
:100E1000E8FFE81EE8661AEF07F0800E83EC0EF09C
:100E2000000EF86E720EF76E800EF66E14EC0FF078
:100E300023EF07F0800E83EC0EF000C513F001C520
:100E400014F06DEC0FF00201B8AF3CEF07F0B86B97
:100E5000000EE8CF0DF0E86AE8CF0EF000C5E8FF1D
:100E6000A4EC0CF0010EE8CF0DF0E86AE8CF0EF02C
:100E700001C5E8FFA4EC0CF01BEC08F0D8B066EF5D
:100E800007F02CEC08F0D8B066EF07F0ECEC28F097
:100E9000D8B066EF07F0B2EC27F00001A951E812D4
:100EA000D8A466EF07F00201A0A164EF07F0C00E1E
:100EB00083EC0EF0000EF86E720EF76E640EF66E96
:100EC00014EC0FF066EF07F061EC06F0000133B4AC
:100ED00081EF07F035A481EF07F03594010E5F6EC6
:100EE000050EFDEC0AF00001566680EF07F0562A69
:100EF000BEC35AF0BFC35BF0D06BD16B81EF07F07C
:100F00005606000156A0B4EF07F05B66B4EF07F099
:100F10003B0E5C6293EF07F0050E5F6E0A0EFDEC70
:100F20000AF0B4EF07F01E0E5C629EEF07F0030EAE
:100F30005F6E0A0EFDEC0AF0B4EF07F00A0E5C6279
:100F4000A9EF07F0010E5F6E0A0EFDEC0AF0B4EF98
:100F500007F0060E5C60B4EF07F0010E5F6E0A0E3C
:100F6000FDEC0AF0B4EF07F07F0E5C6E5850D46FC2
:100F70005950D56F010E5662DDEF07F05A505B10E5
:100F8000D8B4CCEF07F05A50D46F5B50D56F000E39
:100F90000301BD63DDEF07F0020E0301BD5DD8B4B0
:100FA000D9EF07F00001D051D46FD151D56FDDEFEB
:100FB00007F0E86A0001D46FD56F00018B0E83EC57
:100FC0000EF0D551E8CF13F0146A156A166A65EC75
:100FD0000FF03A0E74EC0EF0D451E8CF13F065EC3C
:100FE0000FF012000301C05193EC28F0D8A018EFC5
:100FF00008F00301000EC16515EF08F000017CBF89
:1010000018EF08F00301C15100010D6E0E6A0001D6
:101010000A0E0F6E000E106E62EC12F07B51135E22
:101020007C511458D8B018EF08F00001ED69120097
:101030000001ED6B1200D8900001D2AF1200C00E7B
:1010400083EC0EF0000EF86E730EF76E160EF66E51
:1010500014EC0FF0D88012000D0E50EC09F00D0EBC
:1010600050EC09F06BC00DF06CC00EF0A9C20FF08F
:10107000AAC210F062EC12F000011450136E155069
:10108000146E1650156E166A97EC0FF0000125507D
:1010900026100F0BD890D8B41200C00E83EC0EF0BF
:1010A000000EF86E730EF76E040EF66E14EC0FF071
:1010B000CB0E83EC0EF00001255074EC0EF02650A0
:1010C00074EC0EF02E0E74EC0EF0275074EC0EF053
:1010D000285074EC0EF0D88012000F01D89084B420
:1010E000D880D8A06DEF08F00A0E6AEC0CF00F0162
:1010F000D89084B4D880D8A06DEF08F00F01D890B4
:1011000083B6D880D8A07EEF08F00A0E6AEC0CF007
:101110000F01D89083B6D880D8A07EEF08F0800E5B
:1011200083EC0EF00F01835024EC0FF00F0184507C
:1011300024EC0FF0C00E83EC0EF00F01865024EC6F
:101140000FF00F01815024EC0FF00F0183508286C5
:101150008184E8B08296E8B281948098E8B480886F
:10116000320E6AEC0CF00F01D89084B4D880D8B05D
:10117000BFEF08F00A0E6AEC0CF00F01D89084B4AF
:10118000D880D8B08FEF08F00F01D89084B4D88001
:10119000D8A0C4EF08F00A0E6AEC0CF00F01D8904A
:1011A00084B4D880D8A0C4EF08F0C00E83EC0EF051
:1011B000000EF86E710EF76EBA0EF66E14EC0FF0AC
:1011C00000010D6A800E83EC0EF0000EF86E710EB9
:1011D000F76EF00EF66E14EC0FF0870E83EC0EF047
:1011E00000010D5031EC0FF050EC09F0F8C0E8FFB1
:1011F000E86601EF09F0D890C432C332D890C43207
:10120000C3328C0E83EC0EF00F01C4CFE8FF31EC3B
:101210000FF00F01C3CFE8FF31EC0FF0320E6AEC94
:101220000CF00F01D89084B4D880D8B01DEF09F02D
:101230000A0E6AEC0CF00F01D89084B4D880D8B0B4
:10124000E2EF08F00F01D89084B4D880D8A022EF44
:1012500009F00A0E6AEC0CF00F01D89084B4D88023
:10126000D8A022EF09F000010D2A0C0E0D64E2EF68
:1012700008F08FEF08F00001136A146A156A166A05
:101280000A6E0B6A0A5050EC09F00001C350132695
:10129000C4501422D8B0152A0B2E42EF09F01200C8
:1012A0000A6EA10EC06E000EC16E0AC0E8FF31ECDE
:1012B00002F0E8AEC188E89EE844E844C26E040E3D
:1012C000E8CF0CF00001000E6B6F000E6C6FC28057
:1012D000000000000000C282C2B26CEF09F0000101
:1012E000C3506B27C4506C2300010C06F0E1F8C01A
:1012F000E8FFE81EE86683EF09F0D8906C336B33A3
:10130000D8906C336B336BC0C3FF6CC0C4FF0AC092
:10131000E8FF120000014E6A586A596AD4C2E8FF19
:10132000E8CF57F00001900E546E010E556E00018B
:10133000900E506E010E516E526A536A100E0001EB
:10134000E8CF4FF03A6A3C6A3E6A406A426A446AB1
:10135000466A486A4A6A4C6A080EE8CF3BF0E8CF12
:101360003DF0E8CF3FF0E8CF41F0E8CF43F0E8CFE1
:1013700045F0E8CF47F0E8CF49F0E8CF4BF0E8CFB1
:101380004DF0979E858E000154500F01E8CFBBFFB2
:10139000010155500F01E8CFBCFF0A0E0F01E8CF45
:1013A000BAFF0F01A0800F019E900F01080EE8CF39
:1013B000B1FFB18012000001F5A1857E0201BAAF34
:1013C000E5EF09F08770EDEF09F00001EBB1ECEF0C
:1013D00009F08780EDEF09F087900001BBCFE8FFAF
:1013E0005026BCCFE8FF512250C0E8FFE8CFBBFF3A
:1013F00051C0E8FFE8CFBCFF0001E86A4E6466EC2C
:101400000AF000014E2A4EC0E8FFFE0B4F601CEFB1
:101410000AF04E6A38C0E8FFE8CF50F052C0E8FF4B
:10142000505E39C0E8FFE8CF51F053C0E8FF515A91
:10143000526A536A63EF0AF04EA031EF0AF054C0CB
:10144000E8FFE8CF50F055C0E8FFE8CF51F0BAC24E
:10145000E8FF0001EB814E625DEF0AF0EB915DEF7A
:101460000AF0120E4E6249EF0AF052C0E8FFE8CFD0
:1014700050F053C0E8FFE8CF51F0513250325132B2
:10148000503251325032513250320F0E51165DEF00
:101490000AF0040EE8CFEAFF000EE8CFE9FF4EC0E5
:1014A000E8FFE830E89EE804E92600EC02F054C0CA
:1014B000E8FF505E55C0E8FF515A50C0E8FF522681
:1014C00051C0E8FF53220F01A190120015EC10F05B
:1014D0001FEC10F00001010E366275EF0AF00001FA
:1014E0008286C3B18296FF0EC36F87900301CDBF82
:1014F0007DEF0AF0859E7EEF0AF0858E0001572E63
:10150000C5EF0AF0EAEC28F0000156A0B4EF0AF0AB
:101510000001FF0EED63B4EF0AF05AC0E8FF5B1064
:10152000D8B4ACEF0AF05A6699EF0AF03C0E5A6E46
:101530005B065A065A505C6E0301E86ABD11D8B4C6
:10154000ACEF0AF000015A505B10D8B4ACEF0AF0CF
:10155000D06BD16BB4EF0AF00001D02B3C0ED063FE
:10156000B4EF0AF0D06BD12BD4C2E8FFE8CF57F02C
:10157000582A3C0E5862C5EF0AF0586A592A0501EC
:10158000002BD8B4012B0201B8690201A1A1CEEF52
:101590000AF0530E4BEC10F00001AE6B000183CF4C
:1015A000E8FF311AD8A4306E316E30C0E8FF321235
:1015B000000184CFE8FF341AD8A4336E346E33C0F0
:1015C000E8FF3512000160676007616761076267C5
:1015D0006207A767A707A867A807A967A9075E66A4
:1015E000F3EF0AF012005E2E120080785F4E1200B8
:1015F0005DC0E8FFE8CF5EF01200E8CF5DF0E8CF15
:101600005EF0D2C2E8FFE8660CEF0BF0809802C5EE
:10161000E8FFE86680781200808802C5E8FFE86687
:101620008078120000010ABE19EF0BF0819E1AEFBC
:101630000BF0818E828A829A0A460B2E12EF0BF0F3
:1016400012000201AD510A6E080E0B6E12EC0BF087
:101650000201AC510A6E080E0B6E12EC0BF0020187
:10166000AB510A6E080E0B6E12EC0BF08686869656
:1016700012000BC113F00CC114F00DC115F009C11B
:1016800017F00AC118F066EC13F00201A551010130
:101690000F03F35000011326D8B0142AD8B0152A2E
:1016A0000101006B016B026B00011350E846E84634
:1016B000E880E8921F0B13B6E88E0101006F00016D
:1016C00013361436153613361436153613361436CB
:1016D000153613361436153614500101016F00010A
:1016E00015501F0B01011009026F120039EC0BF0AD
:1016F000010108510A6E080E0B6E12EC0BF001018D
:1017000007510A6E080E0B6E12EC0BF00101065128
:101710000A6E080E0B6E12EC0BF08686869601019F
:1017200005510A6E080E0B6E12EC0BF0010104510C
:101730000A6E080E0B6E12EC0BF0010103510A6EDB
:10174000080E0B6E12EC0BF0868686960101025194
:101750000A6E080E0B6E12EC0BF0010101510A6EBD
:10176000080E0B6E12EC0BF0010100510A6E080E10
:101770000B6E12EC0BF08686869612000F01939E7C
:10178000949A939C819C819E829A98968696020157
:10179000010ED163EBEF0BF004C206F105C207F1B5
:1017A00006C208F101C203F102C204F103C205F14D
:1017B0000101700E0B6FC60E0C6F000E0D6F010154
:1017C000140E096F000E0A6F01010E6B0A0E106FE6
:1017D000010E0F6F1200020ED1630EEF0CF00AC261
:1017E00006F10BC207F10CC208F107C203F108C2EF
:1017F00004F109C205F101016C0E0B6FCF0E0C6FE5
:10180000000E0D6F0101140E096F000E0A6F010129
:101810000E6B080E106F050E0F6F1200030ED163D2
:1018200032EF0CF010C206F111C207F112C208F13A
:101830000DC203F10EC204F10FC205F101014A0EFF
:101840000B6F190E0C6F010E0D6F01010A0E096F5F
:10185000000E0A6F01010B0E0E6F320E106F020E9A
:101860000F6F1200120087B251EF0CF0D5AE43EFAC
:101870000CF0D6CFC7F0D7CFC8F00001C92BD8B431
:10188000CA2BF09012000001C951CA11F090D8A4DF
:101890001200E86AE8CFD7FFE8CFD6FFD58EF090E8
:1018A0001200F17AF0AC63EF0CF00301CDA15FEF11
:1018B0000CF0F1AA859EF1BA858E63EF0CF0F1AAC7
:1018C000858EF1BA859EF09012000000E82E65EF3B
:1018D0000CF012000A6EFA0E65EC0CF0FA0E65ECD4
:1018E0000CF00A2E6BEF0CF01200050EE26EE86AA7
:1018F000E16EE86AAA6EE86AA96EA69EA69CA6801A
:10190000A850E66EA92AF9E112000EC0E8FFE26EC7
:101910000DC0E8FFE16EE86AAA6E0DC0E8FFA96E8F
:10192000A69EA69CA680A850E66EA92A0A06F8E103
:1019300012000EC0E8FFAA6E0DC0E8FFA96EA69EB9
:10194000A69CA680A8501200A198A86E0EC0E8FF21
:10195000AA6E0DC0E8FFA96EA69EA69CA684F29E64
:10196000550EA76EAA0EA76EA682F28EA1A8B6EF9C
:101970000CF0A19812000FC0E8FFA4EC0CF00001DD
:101980000D2AD8B40E2A10C0E8FFA4EC0CF0120007
:101990000EC0E8FFE26E0DC0E8FFE16EE86AAA6ED5
:1019A0000DC0E8FFA96EA198E650A86EA69EA69C61
:1019B000A684F29E550EA76EAA0EA76EA682F28E80
:1019C000A1A8E0EF0CF0A198A92A0A06EDE1120007
:1019D000800E83EC0EF0000EF86E720EF76EBC0EE9
:1019E000F66E14EC0FF0C00E83EC0EF0000EF86EE5
:1019F000720EF76E380EF66E14EC0FF0C9EC2BF089
:101A0000D8A028EF0DF0C00E83EC0EF0000EF86E9B
:101A1000720EF76ECE0EF66E14EC0FF09AEC38F0F4
:101A20008EEC22F00001600EA46F00C2E8FF1FECF4
:101A300023F00201002B0301072B3A0E076324EF6A
:101A40000DF0062B300E076F0001A42F15EF0DF0DF
:101A500079EC22F000C2E8FFF4EC22F01200000161
:101A60001550F86E1450F76E1350F66E00010E50BC
:101A7000E26E0D50E16E0900F550E66E0A060900AF
:101A8000F550E66E0A2E3BEF0DF0120000011550E6
:101A9000F86E1450F76E1350F66EA68EA69CA684B0
:101AA000A688F29E550EA76EAA0EA76EA68200000B
:101AB000F28E0001400E1326000E142215220A2E6B
:101AC00046EF0DF0120062EC03F000011550F86EC5
:101AD0001450F76E1350F66EA68EA69CA684A688A8
:101AE000F29E550EA76EAA0EA76EA682F28E0A006F
:101AF00000010E50E26E0D50E16E400E0B6EE6CF0F
:101B0000E8FFF56E0F000B2EFAD7A68EA69CA684D2
:101B1000F29E550EA76EAA0EA76EA682F28EA6940E
:101B20000001400E1326000E142215220001400E63
:101B30000D26000E0E220A2E63EF0DF0120000019A
:101B40001550F86E1450F76E1350F66EA68EA69CC4
:101B5000A684A688F29E550EA76EAA0EA76EA68230
:101B60000000F28E0A00080E0B6E00010E50E26EAD
:101B70000D50E16E080E0C6EE6CFE8FFF56E0F001B
:101B80000C2EFAD7A68EA69CA684F29E550EA76EA2
:101B9000AA0EA76EA6820000F28E0B2EEBD7A6949B
:101BA0000001400E1326000E142215220001400EE3
:101BB0000D26000E0E220A2E9FEF0DF012000F01CF
:101BC0009A6A886A9396939A93988186818A818883
:101BD000140E6AEC0CF003C5E8FFE81EE86630EF6F
:101BE0000EF0390E83EC0EF0050E6AEC0CF0390E97
:101BF00083EC0EF0010E6AEC0CF0390E83EC0EF063
:101C0000010E6AEC0CF0390E83EC0EF01C0E83EC26
:101C10000EF0520E83EC0EF0690E83EC0EF0740E93
:101C200083EC0EF00C0E83EC0EF0010E83EC0EF044
:101C3000060E83EC0EF0380E83EC0EF0400E83ECB3
:101C40000EF0400EE8CF0AF0000EF86E1D0EF76E93
:101C50009E0EF66E0AC0E8FF17EC0FF061EF0EF073
:101C6000380E83EC0EF0050E6AEC0CF0380E83ECA7
:101C70000EF0010E6AEC0CF0380E83EC0EF0010E43
:101C80006AEC0CF0380E83EC0EF0060E83EC0EF0CE
:101C90000C0E83EC0EF0010E83EC0EF0800E83EC44
:101CA0000EF0400E83EC0EF0400EE8CF0AF0000E6E
:101CB000F86E1D0EF76E9E0EF66E0AC0E8FF17EC6A
:101CC0000FF0800E83EC0EF0710EF76ECC0EF66EF8
:101CD00014EC0FF0C00E83EC0EF0710EF76EDE0EFA
:101CE000F66E14EC0FF0120092EC0EF0B5EC0EF064
:101CF000818A8198000000008186000000008196A2
:101D000000000000120092EC0EF0B5EC0EF0819A8B
:101D1000819800000000818600000000819600008C
:101D20000000120099EC0EF0D8B092EF0EF09A6A13
:101D300012009A688188819A000000008186000064
:101D40000000D890E8CF41F102C5E8FFE866AFEFA8
:101D50000EF088BED880819641C1E8FF120088B09D
:101D6000D880819641C1E8FF1200886E02C5E8FF65
:101D7000E81EE866120088CFE8FF886AE8B0888825
:101D8000E8B2888AE8B4888CE8B6888EE8B8888695
:101D9000E8BA8884E8BC8882E8BE88801200101007
:101DA00010101010101018181818181818181C1CDB
:101DB0001C1C1C1C1C1C1E1E1E1E1E1E1E1E010189
:101DC00001010101010103030303030303030707E7
:101DD0000707070707070F0F0F0F0F0F0F0F1F1F23
:101DE0001F1F1F1F1F1F800E83EC0EF00DC0F6FF7C
:101DF0000EC0F7FFF86A14EC0FF01200C00E83EC6F
:101E00000EF00DC0F6FF0EC0F7FFF86A14EC0FF0ED
:101E10001200C00E83EC0EF0D4C0F6FFD5C0F7FF61
:101E2000F86A14EC0FF01200100E17EF0FF00A6EA4
:101E30000900F5CFE8FFE812D8B4120074EC0EF0F8
:101E40000A4E120018EF0FF00A6E080E0B6E300EDD
:101E50000ABE310E74EC0EF00A360B2E27EF0FF08F
:101E600012000A6E3A0E0B6E0AC0E8FFF00BE84251
:101E7000E842E842E84230090B64070F74EC0EF0C8
:101E80000AC0E8FF0F0B30090B64070F74EC0EF06B
:101E90000AC0E8FF120097EC0FF0255074EC0EF02A
:101EA000265074EC0EF0275074EC0EF0285074ECB1
:101EB0000EF0295074EC0EF0120097EC0FF050EF7A
:101EC0000FF097EC0FF053EF0FF097EC0FF056EF89
:101ED0000FF097EC0FF059EF0FF097EC0FF081EC4B
:101EE0000FF0255074EC0EF0265074EC0EF02750D5
:101EF00074EC0EF0285074EC0EF0295074EC0EF0D7
:101F000012000001300E25621200200E256E300EE8
:101F100026621200200E266E300E27621200200E5E
:101F2000276E300E28621200200E286E120000016B
:101F3000196A1A6A100E176E270E186E66EC13F0E7
:101F4000300E1310256E1BC013F01CC014F01DC002
:101F500015F01EC016F0196A1A6AE80E176E030E05
:101F6000186E66EC13F0300E1310266E1BC013F0C3
:101F70001CC014F01DC015F01EC016F0196A1A6AB4
:101F8000640E176E000E186E66EC13F0300E131010
:101F9000276E1BC013F01CC014F01DC015F01EC02E
:101FA00016F0196A1A6A0A0E176E000E186E66ECA1
:101FB00013F0300E1310286E300E1B10296E120015
:101FC0000001310E3762E9EF0FF079EC22F013EFE8
:101FD00010F0320E3762F3EF0FF000C2E8FFF4ECBE
:101FE00022F013EF10F0330E3762FBEF0FF08EECA0
:101FF00022F013EF10F0340E376203EF10F000C23E
:10200000E8FF1FEC23F0350E376213EF10F00001EC
:10201000FF0E0D6E030E0E6EE8CF0EF0FF0EA4EC59
:102020000CF013EF10F0376A12000F01ABA2120090
:10203000AB98AB880F01AE500001636B12000F012B
:102040006BA212006B986B880F016E5012000C0E81
:10205000E8CFAFFF220EE8CFACFF900EE8CFABFF8A
:102060000001636B9F9A9D8A1200ACA235EF10F0BD
:10207000E8CFADFF1200D6C2E8FFE8660C0EE8CF4D
:102080006FFF7C96260EE8CF6CFF900EE8CF6BFFBB
:10209000A59AA38A12006CA24BEF10F0E8CF6DFF57
:1020A0001200E1CF21F0E2CF22F0000167C0E1FF92
:1020B000000166C0E2FF6A6BACA25CEF10F0E6CFF5
:1020C000E8FF00016A27E8CFADFF0001682F5CEF51
:1020D00010F021C0E1FF22C0E2FF1200E1CF21F0A9
:1020E000E2CF22F0000167C0E1FF000166C0E2FF1D
:1020F0006A6B0001050E606FE86A60658DEF10F095
:102100009EAA7DEF10F0AECFE8FFE8CFE6FF00011A
:102110006A270001682F79EF10F021C0E1FF22C08B
:10212000E2FF12009EAA12000001000E6363A5EFF9
:1021300010F0AECFE8FFE8CF64F0550E64631200F4
:10214000280EE8CF61F0632B1200010E6363AFEF3E
:1021500010F0AECFE8FFE8CF65F0632B1200020E5F
:102160006363B9EF10F0AECFE8FFE8CF66F0632B02
:102170001200030E6363C3EF10F0AECFE8FFE8CFA9
:1021800067F0632B1200040E6363CCEF10F0AECF48
:10219000E8FFE8CF68F0632B050E6363D8EF10F01B
:1021A000010E6563D6EF10F06EEC10F0632B120099
:1021B000060E6363FBEF10F0AECFE8FFE8CF69F0E7
:1021C000020E6563ECEF10F051EC10F06AC0E8FF0E
:1021D00035EC10F0636B12006AC0E8FF6963F6EF3C
:1021E00010F00C0E35EC10F0636B12000D0E35EC98
:1021F00010F0636B1200636B1200A4AA12006ECF82
:10220000E8FF0201A1B131EF11F0530AD8A4120086
:102210000201A0A1120000010F0E761510094BEC6F
:1022200010F075C0E8FF4BEC10F000010F0E7815B0
:1022300020094BEC10F077514BEC10F000010F0E21
:102240007A1530094BEC10F079514BEC10F000018D
:102250000F0E7C1540094BEC10F07B514BEC10F04D
:1022600012000001AEB138EF11F0B06FAE2B1200CA
:10227000AF6FAE2B020EAE6351EF11F0B051F00B09
:10228000100AD8A496EF11F00F0EB017B0A74BEFBD
:1022900011F0F00EB013AFC0B1F0B0C0B2F096EFD5
:1022A00011F0040EAE6368EF11F0B051F00B200A8C
:1022B000D8A496EF11F00F0EB017B0A762EF11F08F
:1022C000F00EB013AFC0B3F0B0C0B4F096EF11F0A1
:1022D000060EAE637FEF11F0B051F00B300AD8A4B8
:1022E00096EF11F00F0EB017B0A779EF11F0F00EC6
:1022F000B013AFC0B5F0B0C0B6F096EF11F0080E55
:10230000AE6396EF11F0B051F00B400AD8A496EFEF
:1023100011F00F0EB017B0A790EF11F0F00EB01340
:10232000AFC0B7F0B0C0B8F096EF11F01200D6C24F
:10233000E8FFE81EE8661200AA0E4BEC10F0AA0EA9
:102340004BEC10F00A6A0B6A040EE26E000EE16EAE
:102350000AC0E8FFE3CF0DF0000EE26E3A0EE16E28
:102360000DC0E8FFE806D890E836E3CF0DF0E82A84
:10237000E3CF0EF000010E3AF00E0E160AC0E8FF91
:10238000E82A0E120E3A0BC0E8FF0D240E24E8CF07
:102390000BF00DC0E8FF4BEC10F00EC0E8FF4BEC6B
:1023A00010F00A2A080E0A60DDEF11F0A2C2E8FF61
:1023B000D890E8320A64A4EF11F00BC0E8FF4BECB0
:1023C00010F0ED0E4BEC10F0ED0E4BEC10F0120097
:1023D0000001EF67F6EF11F07E960C0E0F01AF6E65
:1023E000220EAC6E900EE8CFABFF12007C960C0E66
:1023F0000F016F6E220E6C6E900EE8CF6BFF120015
:102400000001E80E0D26030E0E220EAE0DEF12F0A7
:10241000E86AE8CF0DF0E8CF0EF0780E0D5C070EFD
:102420000E58D8A017EF12F0EF0E1EEF12F00E327A
:102430000D320E320D320E320D320D500001EF67AB
:102440004BEF10F035EF10F000010EAE2DEF12F053
:10245000E86AE8CF0DF0E8CF0EF0BC0E0D5C030E7D
:102460000E58D8A019EF12F0EF0E1EEF12F0F00E7A
:102470001EEC12F0800E1EEC12F075C00DF076C04E
:102480000EF000EC12F077C00DF078C00EF000EC0A
:1024900012F079C00DF07AC00EF000EC12F07BC0A3
:1024A0000DF07CC00EF024EC12F07DC00DF07EC06B
:1024B0000EF000EC12F07FC00DF080C00EF000ECCA
:1024C00012F0120073EC12F010AE6BEF12F00D5020
:1024D000155E0E50165A0EAE72EF12F00F50155ECA
:1024E0001050165A12000001136A146A156A166A0F
:1024F0000F500D02F3CF13F0F4CF14F00F500E0273
:10250000F3501426F4501522D8B0162A10500D029C
:10251000F3501426F4501522D8B0162A10500E028B
:10252000F3501526F450162212000001246A1B6A8B
:1025300014501310D8B4000C14501718E8BE241E01
:10254000AA6B000E17AEA7EF12F0171E172A14AED3
:10255000AEEF12F0131E141E132A1422145017107B
:10256000E8BE3AEF13F017501B5E143614341B36D6
:1025700017501B26143614341B36175014B01B5E2C
:1025800014A01B26143614341B36175014B01B5ECF
:1025900014A01B26143614341B36175014B01B5EBF
:1025A00014A01B26143614341B36175014B01B5EAF
:1025B00014A01B26143614341B36175014B01B5E9F
:1025C00014A01B26143614341B36175014B01B5E8F
:1025D00014A01B26143613341B36175014B01B5E80
:1025E00014A01B26133613341B36175013B01B5E72
:1025F00013A01B26133613341B36175013B01B5E63
:1026000013A01B26133613341B36175013B01B5E52
:1026100013A01B26133613341B36175013B01B5E42
:1026200013A01B26133613341B36175013B01B5E32
:1026300013A01B26133613341B36175013B01B5E22
:1026400013A01B26133613341B36175013B01B5E12
:1026500013A01B26133613A01B26AAB158EF13F0A4
:1026600024AE000C131E141EE86A132A14221B1E2B
:102670001B2A000C17AE53EF13F014BE4FEF13F0EC
:10268000E8CFA3F01350E8CF1BF01B9E133614368F
:102690001450E8CF13F0A351146A30EF13F0136A0B
:1026A000132A146A000C141E131EAA2BB3EF12F087
:1026B0001B2A17501B6230EF13F01B6A000E132AFF
:1026C000142214AE30EF13F02388FF0C0001246AAB
:1026D0001C6A1B6A155014101310D8B4000C155046
:1026E0001818E8BE241EAA6B000E18AE7CEF13F07B
:1026F000171E181E172A182215AE85EF13F0131E89
:10270000141E151E132A1422152215501810E8BE87
:102710000FEF15F017501B5E18501C5A1536153464
:102720001B361C3617501B2618501C221536153424
:102730001B361C36175015A0A3EF13F01B5E185064
:102740001C5AA6EF13F01B2618501C221536153400
:102750001B361C36175015A0B3EF13F01B5E185034
:102760001C5AB6EF13F01B2618501C2215361534D0
:102770001B361C36175015A0C3EF13F01B5E185004
:102780001C5AC6EF13F01B2618501C2215361534A0
:102790001B361C36175015A0D3EF13F01B5E1850D4
:1027A0001C5AD6EF13F01B2618501C221536153470
:1027B0001B361C36175015A0E3EF13F01B5E1850A4
:1027C0001C5AE6EF13F01B2618501C221536153440
:1027D0001B361C36175015A0F3EF13F01B5E185074
:1027E0001C5AF6EF13F01B2618501C221536143411
:1027F0001B361C36175015A003EF14F01B5E185043
:102800001C5A06EF14F01B2618501C2214361434E0
:102810001B361C36175014A013EF14F01B5E185013
:102820001C5A16EF14F01B2618501C2214361434B0
:102830001B361C36175014A023EF14F01B5E1850E3
:102840001C5A26EF14F01B2618501C221436143480
:102850001B361C36175014A033EF14F01B5E1850B3
:102860001C5A36EF14F01B2618501C221436143450
:102870001B361C36175014A043EF14F01B5E185083
:102880001C5A46EF14F01B2618501C221436143420
:102890001B361C36175014A053EF14F01B5E185053
:1028A0001C5A56EF14F01B2618501C2214361434F0
:1028B0001B361C36175014A063EF14F01B5E185023
:1028C0001C5A66EF14F01B2618501C2214361434C0
:1028D0001B361C36175014A073EF14F01B5E1850F3
:1028E0001C5A76EF14F01B2618501C221436133491
:1028F0001B361C36175014A083EF14F01B5E1850C3
:102900001C5A86EF14F01B2618501C221336133461
:102910001B361C36175013A093EF14F01B5E185093
:102920001C5A96EF14F01B2618501C221336133431
:102930001B361C36175013A0A3EF14F01B5E185063
:102940001C5AA6EF14F01B2618501C221336133401
:102950001B361C36175013A0B3EF14F01B5E185033
:102960001C5AB6EF14F01B2618501C2213361334D1
:102970001B361C36175013A0C3EF14F01B5E185003
:102980001C5AC6EF14F01B2618501C2213361334A1
:102990001B361C36175013A0D3EF14F01B5E1850D3
:1029A0001C5AD6EF14F01B2618501C221336133471
:1029B0001B361C36175013A0E3EF14F01B5E1850A3
:1029C0001C5AE6EF14F01B2618501C221336133441
:1029D0001B361C36175013A0F3EF14F01B5E185073
:1029E0001C5AF6EF14F01B2618501C22133613B095
:1029F000FEEF14F017501B2618501C22AAB133EF1B
:102A000015F024AE000C131E141E151E000E132A02
:102A1000142215221B1E1C1E1B2A1C22000C18AE81
:102A20002DEF15F015BE28EF15F0E8CFA3F01450E8
:102A3000E8CF1CF01350E8CF1BF01C9E143615365F
:102A40001550E8CF13F0A351156A146A01EF15F081
:102A5000136A132A146A156A000C151E141E131E1D
:102A6000AA2B8AEF13F01B2AE86A1C2217501B625C
:102A700001EF15F018501C6201EF15F01C6A1B6A7B
:102A8000000E132A1422152215AE01EF15F023882B
:102A9000FF0C00011E6A1D6A1C6A1B6A16341B3675
:102AA0001C361D361E3617501B5E18501C5A195006
:102AB0001D5A1A501E5AAA6BAA5B163616341B36BC
:102AC0001C361D361E36AA37175016A073EF15F0A8
:102AD0001B5E18501C5A19501D5A1A501E5AE86A8B
:102AE000AA5B7CEF15F01B2618501C2219501D22E2
:102AF0001A501E22E86AAA23163616341B361C36D4
:102B00001D361E36AA37175016A092EF15F01B5E21
:102B100018501C5A19501D5A1A501E5AE86AAA5BBE
:102B20009BEF15F01B2618501C2219501D221A501D
:102B30001E22E86AAA23163616341B361C361D36AA
:102B40001E36AA37175016A0B1EF15F01B5E1850AD
:102B50001C5A19501D5A1A501E5AE86AAA5BBAEF3D
:102B600015F01B2618501C2219501D221A501E2227
:102B7000E86AAA23163616341B361C361D361E3656
:102B8000AA37175016A0D0EF15F01B5E18501C5A2C
:102B900019501D5A1A501E5AE86AAA5BD9EF15F04F
:102BA0001B2618501C2219501D221A501E22E86A9A
:102BB000AA23163616341B361C361D361E36AA3787
:102BC000175016A0EFEF15F01B5E18501C5A195045
:102BD0001D5A1A501E5AE86AAA5BF8EF15F01B2618
:102BE00018501C2219501D221A501E22E86AAA23CE
:102BF000163616341B361C361D361E36AA371750AD
:102C000016A00EEF16F01B5E18501C5A19501D5AD4
:102C10001A501E5AE86AAA5B17EF16F01B261850C6
:102C20001C2219501D221A501E22E86AAA231636A9
:102C300016341B361C361D361E36AA37175016A002
:102C40002DEF16F01B5E18501C5A19501D5A1A50C1
:102C50001E5AE86AAA5B36EF16F01B2618501C2293
:102C600019501D221A501E22E86AAA23163615345E
:102C70001B361C361D361E36AA37175016A04CEFD1
:102C800016F01B5E18501C5A19501D5A1A501E5A25
:102C9000E86AAA5B55EF16F01B2618501C22195043
:102CA0001D221A501E22E86AAA23153615341B3637
:102CB0001C361D361E36AA37175015A06BEF16F0BE
:102CC0001B5E18501C5A19501D5A1A501E5AE86A99
:102CD000AA5B74EF16F01B2618501C2219501D22F7
:102CE0001A501E22E86AAA23153615341B361C36E4
:102CF0001D361E36AA37175015A08AEF16F01B5E38
:102D000018501C5A19501D5A1A501E5AE86AAA5BCC
:102D100093EF16F01B2618501C2219501D221A5032
:102D20001E22E86AAA23153615341B361C361D36BA
:102D30001E36AA37175015A0A9EF16F01B5E1850C3
:102D40001C5A19501D5A1A501E5AE86AAA5BB2EF53
:102D500016F01B2618501C2219501D221A501E2234
:102D6000E86AAA23153615341B361C361D361E3666
:102D7000AA37175015A0C8EF16F01B5E18501C5A42
:102D800019501D5A1A501E5AE86AAA5BD1EF16F064
:102D90001B2618501C2219501D221A501E22E86AA8
:102DA000AA23153615341B361C361D361E36AA3797
:102DB000175015A0E7EF16F01B5E18501C5A19505B
:102DC0001D5A1A501E5AE86AAA5BF0EF16F01B262D
:102DD00018501C2219501D221A501E22E86AAA23DC
:102DE000153615341B361C361D361E36AA371750BD
:102DF00015A006EF17F01B5E18501C5A19501D5AEB
:102E00001A501E5AE86AAA5B0FEF17F01B261850DB
:102E10001C2219501D221A501E22E86AAA231536B8
:102E200015341B361C361D361E36AA37175015A012
:102E300025EF17F01B5E18501C5A19501D5A1A50D6
:102E40001E5AE86AAA5B2EEF17F01B2618501C22A8
:102E500019501D221A501E22E86AAA23153614346E
:102E60001B361C361D361E36AA37175015A044EFE8
:102E700017F01B5E18501C5A19501D5A1A501E5A32
:102E8000E86AAA5B4DEF17F01B2618501C22195058
:102E90001D221A501E22E86AAA23143614341B3647
:102EA0001C361D361E36AA37175014A063EF17F0D4
:102EB0001B5E18501C5A19501D5A1A501E5AE86AA7
:102EC000AA5B6CEF17F01B2618501C2219501D220C
:102ED0001A501E22E86AAA23143614341B361C36F4
:102EE0001D361E36AA37175014A082EF17F01B5E4E
:102EF00018501C5A19501D5A1A501E5AE86AAA5BDB
:102F00008BEF17F01B2618501C2219501D221A5047
:102F10001E22E86AAA23143614341B361C361D36CA
:102F20001E36AA37175014A0A1EF17F01B5E1850D9
:102F30001C5A19501D5A1A501E5AE86AAA5BAAEF69
:102F400017F01B2618501C2219501D221A501E2241
:102F5000E86AAA23143614341B361C361D361E3676
:102F6000AA37175014A0C0EF17F01B5E18501C5A58
:102F700019501D5A1A501E5AE86AAA5BC9EF17F079
:102F80001B2618501C2219501D221A501E22E86AB6
:102F9000AA23143614341B361C361D361E36AA37A7
:102FA000175014A0DFEF17F01B5E18501C5A195071
:102FB0001D5A1A501E5AE86AAA5BE8EF17F01B2642
:102FC00018501C2219501D221A501E22E86AAA23EA
:102FD000143614341B361C361D361E36AA371750CD
:102FE00014A0FEEF17F01B5E18501C5A19501D5A02
:102FF0001A501E5AE86AAA5B07EF18F01B261850F1
:103000001C2219501D221A501E22E86AAA231436C7
:1030100014341B361C361D361E36AA37175014A022
:103020001DEF18F01B5E18501C5A19501D5A1A50EB
:103030001E5AE86AAA5B26EF18F01B2618501C22BD
:1030400019501D221A501E22E86AAA23143613347E
:103050001B361C361D361E36AA37175014A03CEFFF
:1030600018F01B5E18501C5A19501D5A1A501E5A3F
:10307000E86AAA5B45EF18F01B2618501C2219506D
:103080001D221A501E22E86AAA23133613341B3657
:103090001C361D361E36AA37175013A05BEF18F0EA
:1030A0001B5E18501C5A19501D5A1A501E5AE86AB5
:1030B000AA5B64EF18F01B2618501C2219501D2221
:1030C0001A501E22E86AAA23133613341B361C3604
:1030D0001D361E36AA37175013A07AEF18F01B5E64
:1030E00018501C5A19501D5A1A501E5AE86AAA5BE9
:1030F00083EF18F01B2618501C2219501D221A505D
:103100001E22E86AAA23133613341B361C361D36DA
:103110001E36AA37175013A099EF18F01B5E1850EF
:103120001C5A19501D5A1A501E5AE86AAA5BA2EF7F
:1031300018F01B2618501C2219501D221A501E224E
:10314000E86AAA23133613341B361C361D361E3686
:10315000AA37175013A0B8EF18F01B5E18501C5A6E
:1031600019501D5A1A501E5AE86AAA5BC1EF18F08E
:103170001B2618501C2219501D221A501E22E86AC4
:10318000AA23133613341B361C361D361E36AA37B7
:10319000175013A0D7EF18F01B5E18501C5A195087
:1031A0001D5A1A501E5AE86AAA5BE0EF18F01B2657
:1031B00018501C2219501D221A501E22E86AAA23F8
:1031C000133613341B361C361D361E36AA371750DD
:1031D00013A0F6EF18F01B5E18501C5A19501D5A18
:1031E0001A501E5AE86AAA5BFFEF18F01B26185007
:1031F0001C2219501D221A501E22E86AAA231336D7
:1032000013341B361C361D361E36AA37175013A032
:1032100015EF19F01B5E18501C5A19501D5A1A5000
:103220001E5AE86AAA5B1EEF19F01B2618501C22D2
:1032300019501D221A501E22E86AAA23133613B011
:103240002AEF19F017501B2618501C2219501D2266
:103250001A501E22000C4C20202041696C65726FB0
:103260006E202020205255202020456C6576617408
:103270006F72202020444C20202020527564646509
:103280007220202020524C2020205468726F7474C9
:103290006C652020204841202020202043482035F4
:1032A0002020202020425520202020204348203666
:1032B0002020202020445520202020204348203753
:1032C0002020202020444120202020204348203856
:1032D0002020202020430001560E0D6E320E0E6E6F
:1032E0005EC1E8FF070BE83A00010D26D8B00E2AB0
:1032F000F3EC0EF00F01750EE16E000EE26E5EC192
:10330000E8FF070BE846E126D8B0E22AE650E8CF0E
:103310000DF0E650E8CF0EF0E1CFE8FF7D0AD8A42B
:1033200096EF19F0F0EC50F09AEF19F012EC50F023
:1033300077EC50F068EC22F00101D8B05E2B070E5C
:103340005E1712000F01D89083B6D880D8B0AEEFC8
:1033500019F00A0E6AEC0CF00F01D89083B6D880F1
:10336000D8B024EF1AF00F01D89084B2D880D8B02A
:10337000BFEF19F00A0E6AEC0CF00F01D89084B27E
:10338000D880D8B024EF1AF00001D267E6EF19F028
:103390000001D269030132C30DF033C30EF0000106
:1033A000E80E0F6E030E106E62EC12F014C01CF1EA
:1033B00015C01DF10301345101011C2703013551D2
:1033C00001011D2334C31AF135C31BF15BEC2EF050
:1033D000D8B0F7EF19F0D8A4FEEF19F001011A07E1
:1033E000D8A01B071A07D8A01B07FEEF19F0010190
:1033F0001A2BD8B41B2B1A2BD8B41B2B1CC10DF0C5
:103400001DC10EF001011A5100010D5E01011B5199
:1034100000010E5A0001000E0F6E010E106E62ECDC
:1034200012F00001E80E176E030E186E66EC13F032
:1034300013C032F314C033F31AC134F31BC135F394
:1034400073EC1DF0D88412000001D2672AEF1AF045
:10345000D8941200D26B69EC23F0D89412000001CA
:103460006B51E8CF0DF06C51E8CF0EF06F510D5E4F
:1034700070510E5AD8A04CEF1AF06D51E8CF0FF0F2
:103480006E51E8CF10F062EC12F01450E8CF73F0F8
:103490001550E8CF74F012007151E8CF0FF072515F
:1034A000E8CF10F062EC12F01450E8CF73F0155032
:1034B000E8CF74F012006BC00DF06CC00EF06F51CD
:1034C0000D5E70510E5A6DC00FF06EC010F062ECC0
:1034D00012F01450E8CF73F01550E8CF74F01200DA
:1034E0000001750EBB6F000EBC6F0001750EB96F49
:1034F000000EBA6F080EE8CFBAF0260EBD6F6BEC67
:1035000027F0040E50EC09F015C26DF016C26EF0F3
:1035100017C26FF018C270F019C271F01AC272F0BF
:103520002FEC1AF073C034F174C035F173C075F02C
:1035300074C076F0050E50EC09F01BC26DF01CC291
:103540006EF01DC26FF01EC270F01FC271F020C27B
:1035500072F02FEC1AF073C036F174C037F173C0FB
:1035600077F074C078F0060E50EC09F021C26DF0CF
:1035700022C26EF023C26FF024C270F025C271F037
:1035800026C272F02FEC1AF073C038F174C039F112
:1035900073C079F074C07AF0070E50EC09F0070E92
:1035A00050EC09F027C26DF028C26EF029C26FF00E
:1035B0002AC270F05BEC1AF073C03AF174C03BF1B0
:1035C00073C07BF074C07CF0030E50EC09F0000176
:1035D0000F01C3CFE8FFE8CF8DF0C4CFE8FFE8CFFD
:1035E0008EF0080E50EC09F02DC26FF02EC270F074
:1035F0002BC26DF02CC26EF05BEC1AF073C085F03C
:1036000074C086F0090E50EC09F031C26FF032C27E
:1036100070F02FC26DF030C26EF05BEC1AF073C028
:1036200087F074C088F00A0E50EC09F035C26FF0D4
:1036300036C270F033C26DF034C26EF05BEC1AF03B
:1036400073C089F074C08AF00B0E50EC09F039C2D7
:103650006FF03AC270F037C26DF038C26EF05BECBA
:103660001AF073C08BF074C08CF00301B55193EC69
:1036700028F0D8A043EF1BF00001E80E7D6F030E89
:103680007E6F48EF1BF00001180E7D6FFC0E7E6F01
:10369000000E50EC09F03BC26DF03CC26EF03DC232
:1036A0006FF03EC270F05BEC1AF073C07FF074C034
:1036B00080F0010E50EC09F03FC26DF040C26EF098
:1036C00041C26FF042C270F05BEC1AF073C081F03F
:1036D00074C082F00301B75193EC28F0D8A078EFC2
:1036E0001BF00001E80E836F030E846F92EF1BF056
:1036F0000301B95193EC28F0D8A086EF1BF000012C
:10370000180E836FFC0E846F92EF1BF00301B8510B
:1037100093EC28F0D8A092EF1BF00001000E836F0D
:10372000000E846F12000001106A0FBE101E62ECC2
:1037300012F00001640E176E000E186E66EC13F0A6
:1037400013C011F014C012F013C00FF014C010F029
:103750000EAEB0EF1BF00F1E101E0F2AD8B0102AAD
:1037600062EC12F000010A0E176E000E186E66EC85
:1037700013F00B50E8CF17F0186A17BE181E66EC4E
:1037800013F011500D5E12500E5A13500D261450A6
:103790000E2212000301AE5193EC28F075C00DF01B
:1037A00076C00EF0D8A0E0EF1BF003011B51000122
:1037B000E8CF0FF003011751E8CF0BF0E8EF1BF053
:1037C00003011A510001E8CF0FF0640EE8CF0BF0AF
:1037D00093EC1BF00DC075F00EC076F00301AF51F5
:1037E00093EC28F077C00DF078C00EF0D8A004EF6D
:1037F0001CF0030126510001E8CF0FF00301225114
:10380000E8CF0BF00CEF1CF0030125510001E8CFCD
:103810000FF0640EE8CF0BF093EC1BF00DC077F0C7
:103820000EC078F00301B05193EC28F079C00DF090
:103830007AC00EF0D8A028EF1CF00301315100012E
:10384000E8CF0FF003012D51E8CF0BF030EF1CF063
:10385000030130510001E8CF0FF0640EE8CF0BF008
:1038600093EC1BF00DC079F00EC07AF0120003014A
:10387000AE5193EC28F0D8A056EF1CF075C00FF0B5
:1038800076C010F017C30DF018C30EF00E6A0DBE0F
:103890000E1E62EC12F00001640E176E000E186E20
:1038A00066EC13F013C075F014C076F00301AF514D
:1038B00093EC28F0D8A075EF1CF077C00FF078C01B
:1038C00010F022C30DF023C30EF00E6A0DBE0E1EC3
:1038D00062EC12F00001640E176E000E186E66ECBA
:1038E00013F013C077F014C078F00301B05193ECDB
:1038F00028F0D8A094EF1CF079C00FF07AC010F037
:103900002DC30DF02EC30EF00E6A0DBE0E1E62EC1E
:1039100012F00001640E176E000E186E66EC13F0C4
:1039200013C079F014C07AF0120057C1E8FFE81E06
:10393000E8661200E86AE8CF57F1030E00015F6EF7
:10394000030EFDEC0AF01200D3C2E8FFE81EE866A1
:10395000F8EF1CF080C50FF081C510F00201B251E4
:103960009DEC01F00FC00DF010C00EF04BC10FF038
:103970004CC110F042EC1DF0E868D8B0E8CF57F128
:103980000FC04BF110C04CF182C50FF083C510F091
:103990000201B3519DEC01F00FC00DF010C00EF00C
:1039A0004DC10FF04EC110F042EC1DF0E868D8B0E8
:1039B000E8CF57F10FC04DF110C04EF184C50FF0A4
:1039C00085C510F00201B4519DEC01F00FC00DF05F
:1039D00010C00EF04FC10FF050C110F042EC1DF0BE
:1039E000E868D8B0E8CF57F10FC04FF110C050F1E0
:1039F000D7C2E8FFE81EE86618EF1DF086C50FF095
:103A000087C510F00201B5519DEC01F00FC00DF01B
:103A100010C00EF051C10FF052C110F042EC1DF079
:103A2000E868D8B0E8CF57F10FC051F110C052F19B
:103A3000D8C2E8FFE81EE86612007FC00DF080C023
:103A40000EF053C10FF054C110F042EC1DF0E868C5
:103A5000D8B0E8CF57F10FC053F110C054F181C076
:103A60000DF082C00EF055C10FF056C110F042ECBF
:103A70001DF0E868D8B0E8CF57F10FC055F110C07D
:103A800056F112000DC011F00EC012F000010FC06F
:103A9000E8FF115E10C0E8FF125A12AE55EF1DF09C
:103AA000111E121E112AD8B4122AD89012321132C5
:103AB000D89012321132D89012321132D89012327C
:103AC0001132D8901232113211C0E8FF1212D89080
:103AD000D8B412000EC0E8FF1018E8360DC00FF081
:103AE0000EC010F0120080C50FF081C510F0020169
:103AF000B2519DEC01F00301A75100010F26030113
:103B0000A8510001102218C30DF019C30EF00001D6
:103B10000E6AFF0E0DBE0E6E62EC12F00001640E16
:103B2000176E186A196A1A6A66EC13F0000103012D
:103B3000195100010D6E0E6A0DBE0E1E0D360E36A9
:103B40000D5013260E50142213507527145076234F
:103B500082C50FF083C510F00201B3519DEC01F056
:103B60000301A95100010F260301AA5100011022EF
:103B700023C30DF024C30EF000010E6AFF0E0DBE2C
:103B80000E6E62EC12F00001640E176E186A196A6C
:103B90001A6A66EC13F000010301245100010D6E56
:103BA0000E6A0DBE0E1E0D360E360D5013260E502B
:103BB0001422135077271450782384C50FF085C53D
:103BC00010F00201B4519DEC01F00301AB51000172
:103BD0000F260301AC51000110222EC30DF02FC39C
:103BE0000EF000010E6AFF0E0DBE0E6E62EC12F0BA
:103BF0000001640E176E186A196A1A6A66EC13F0EF
:103C0000000103012F5100010D6E0E6A0DBE0E1E44
:103C10000D360E360D5013260E50142213507927F0
:103C200014507A2386C50FF087C510F00201B551F4
:103C30009DEC01F036C30DF037C30EF000010E6AA3
:103C4000FF0E0DBE0E6E62EC12F00001640E176ED8
:103C5000186A196A1A6A66EC13F00301010E3763D9
:103C600049EF1EF00001030E0E6E186EE80E0D6E89
:103C7000176E7B510D5E7C510E5A196A1A6A13C079
:103C80000FF014C010F062EC12F066EC13F063EF6A
:103C90001EF0020E376363EF1EF000017B510D6EC4
:103CA0007C510E6E13C00FF014C010F062EC12F0D5
:103CB0000001030EE8CF18F0E80EE8CF17F0196AFC
:103CC0001A6A66EC13F0000113507B2714507C2312
:103CD000120000010E6A08C40DF00DBE0E6800014E
:103CE0000A0E0F6E000E106E62EC12F01350752764
:103CF0001450762300010E6A09C40DF00DBE0E6843
:103D000000010A0E0F6E000E106E62EC12F01350DE
:103D100077271450782300010E6A0AC40DF00DBEF7
:103D20000E6800010A0E0F6E000E106E62EC12F0AB
:103D30001350792714507A2300010E6A0BC40DF03A
:103D40000DBE0E6800010A0E0F6E000E106E62ECC2
:103D500012F013507B2714507C2300010E6A0CC410
:103D60000DF00DBE0E6800010A0E0F6E000E106EF3
:103D700062EC12F013507D2714507E2300010E6A6E
:103D80000DC40DF00DBE0E6800010A0E0F6E000E80
:103D9000106E62EC12F013507F2714508023000144
:103DA0000E6A0EC40DF00DBE0E6800010A0E0F6EF5
:103DB000000E106E62EC12F0135081271450822313
:103DC00000010E6A0FC40DF00DBE0E6800010A0E50
:103DD0000F6E000E106E62EC12F013508327145019
:103DE0008423120000010A0E0D6E000E0E6E0301F8
:103DF000BB5193EC28F0D8A043EF1FF003014DAF67
:103E000010EF1FF04CC30FF0106A0FBE106862EC89
:103E100012F0000113C0E8FF752714C0E8FF7623F5
:103E200003014FAF22EF1FF04EC30FF0106A0FBE19
:103E3000106862EC12F0000113C0E8FF772714C08D
:103E4000E8FF7823030151AF34EF1FF050C30FF0A8
:103E5000106A0FBE106862EC12F0000113C0E8FF98
:103E6000792714C0E8FF7A23030153AF43EF1FF013
:103E700052C30FF0106A0FBE106862EC12F013C04C
:103E80007BF014C07CF00301BC5193EC28F0D8A067
:103E900086EF1FF0030155AF59EF1FF054C30FF029
:103EA000106A0FBE106862EC12F013C075F014C0F7
:103EB00076F0030157AF68EF1FF056C30FF0106A9A
:103EC0000FBE106862EC12F013C077F014C078F0E7
:103ED000030159AF77EF1FF058C30FF0106A0FBE00
:103EE000106862EC12F013C079F014C07AF003018C
:103EF0005BAF86EF1FF05AC30FF0106A0FBE106859
:103F000062EC12F013C07BF014C07CF000017CAFB7
:103F10001200E86A7B6F7C6F120090C0E8FFC00A55
:103F200032E07DC00DF07EC00EF000018FC0E8FFD2
:103F30000D5E90C0E8FF0E5A0EBEB1EF1FF019C41F
:103F4000E8FF0D5E1AC4E8FF0E5A0EBEC3EF1FF065
:103F5000000119C4E8FF8F271AC4E8FF9023C7EFB8
:103F60001FF019C4E8FF0D261AC4E8FF0E220EAE9A
:103F7000C3EF1FF0000119C4E8FF8F5F1AC4E8FF08
:103F8000905BC7EF1FF07DC08FF07EC090F092C0B5
:103F9000E8FFC00A32E083C00DF084C00EF00001DB
:103FA00091C0E8FF0D5E92C0E8FF0E5A0EBEEBEF27
:103FB0001FF01BC4E8FF0D5E1CC4E8FF0E5A0EBEC6
:103FC000FDEF1FF000011BC4E8FF91271CC4E8FFB0
:103FD000922301EF20F01BC4E8FF0D261CC4E8FF6C
:103FE0000E220EAEFDEF1FF000011BC4E8FF915F33
:103FF0001CC4E8FF925B01EF20F083C091F084C005
:1040000092F012000201A1B112000301B65193EC2B
:1040100028F0D8A0120000016267120002019F512F
:104020000001626F0201010EB66320EF20F0010E65
:1040300000015F6E050EFDEC0AF0280E0001626FB4
:1040400075C00DF076C00EF0C3EC20F0D8A456EF8A
:1040500020F00201B6672FEF20F002019E5100010F
:1040600076BF3DEF20F00301192719AF47EF20F08D
:10407000D8A647EF20F04AEF20F00301195F19BFDF
:1040800047EF20F0D8A647EF20F04FEF20F019BF00
:104090004FEF20F0640E1961196F54EF20F0640E99
:1040A000E81EE82A1965196F69EC23F077C00DF056
:1040B00078C00EF0C3EC20F0D8A48CEF20F0020101
:1040C000B66765EF20F002019E51000178BF73EFE3
:1040D00020F00301242724AF7DEF20F0D8A67DEF48
:1040E00020F080EF20F00301245F24BF7DEF20F05B
:1040F000D8A67DEF20F085EF20F024BF85EF20F0DB
:10410000640E2461246F8AEF20F0640EE81EE82A12
:104110002465246F69EC23F079C00DF07AC00EF0AD
:10412000C3EC20F0D8A4C2EF20F00201B6679BEFE9
:1041300020F002019E5100017ABFA9EF20F0030197
:104140002F272FAFB3EF20F0D8A6B3EF20F0B6EFB4
:1041500020F003012F5F2FBFB3EF20F0D8A6B3EFFD
:1041600020F0BBEF20F02FBFBBEF20F0640E2F61DB
:104170002F6FC0EF20F0640EE81EE82A2F652F6F26
:1041800069EC23F0120000010EAECCEF20F00D1E02
:104190000E1E0D2AD8B00E2AD8900E320D320E66A1
:1041A000D6EF20F0640E0D64DBEF20F00001640E0A
:1041B0000D6E000E0E6E0D50E832E8321F0BD874F3
:1041C0000DC0E8FF12000001C36B000176BFF5EFE0
:1041D00020F011C30DF012C30EF075C00FF076C0C1
:1041E00010F062EC12F0FFEF20F015C30DF016C3D3
:1041F0000EF075C00FF076C010F062EC12F013C331
:104200000DF014C30EF0000114500D2615500E22AF
:1042100049EC22F00DC03EF00EC03FF0000178BF27
:104220001EEF21F01CC30DF01DC30EF077C00FF080
:1042300078C010F062EC12F028EF21F020C30DF0EE
:1042400021C30EF077C00FF078C010F062EC12F0CE
:104250001EC30DF01FC30EF0000114500D261550A3
:104260000E2249EC22F00DC03CF00EC03DF00001E2
:104270007ABF47EF21F027C30DF028C30EF079C0B5
:104280000FF07AC010F062EC12F051EF21F02BC366
:104290000DF02CC30EF079C00FF07AC010F062EC74
:1042A00012F029C30DF02AC30EF0000114500D26A0
:1042B00015500E2249EC22F00DC040F00EC041F026
:1042C00032C30DF033C30EF07BC00FF07CC010F092
:1042D00062EC12F034C30DF035C30EF0000114503F
:1042E0000D2615500E2249EC22F00DC042F00EC0F2
:1042F00043F03AC30DF03BC30EF08FC00FF090C0F7
:1043000010F062EC12F03CC30DF03DC30EF0000162
:1043100014500D2615500E2249EC22F00DC044F029
:104320000EC045F0B9EF21F0000180BFA4EF21F0ED
:104330001CC30DF01DC30EF07FC00FF080C010F045
:1043400062EC12F0AEEF21F020C30DF021C30EF0AD
:104350007FC00FF080C010F062EC12F01EC30DF0B1
:104360001FC30EF0000114500D2615500E22CCEF85
:1043700021F03EC30DF03FC30EF07FC00FF080C0B0
:1043800010F062EC12F040C30DF041C30EF00001DA
:1043900014500D2615500E2249EC22F00DC046F0A7
:1043A0000EC047F0F9EF21F0000182BFE4EF21F0E9
:1043B00011C30DF012C30EF081C00FF082C010F0D7
:1043C00062EC12F0EEEF21F015C30DF016C30EF003
:1043D00081C00FF082C010F062EC12F013C30DF038
:1043E00014C30EF0000114500D2615500E220CEFD0
:1043F00022F042C30DF043C30EF081C00FF082C023
:1044000010F062EC12F044C30DF045C30EF0000151
:1044100014500D2615500E2249EC22F00DC048F024
:104420000EC049F091C00DF092C00EF00EBE21EF0B
:1044300022F046C30FF047C310F062EC12F027EFF2
:1044400022F04AC30FF04BC310F062EC12F048C3E5
:104450000DF049C30EF00D5014260E50152214C055
:104460000DF015C00EF049EC22F00DC04AF00EC060
:104470004BF00001D26748EF22F00301B15193ECF9
:1044800028F0D8A048EF22F038C342F039C343F0F7
:1044900012000201AE5100010D5C0201AF5100019A
:1044A0000E58E8AE59EF22F0AEC20DF0AFC20EF0DA
:1044B00012000201B05100010D5C0201B151000176
:1044C0000E58E8BE1200B0C20DF0B1C20EF01200DC
:1044D000000133B477EF22F035A477EF22F0359462
:1044E000010E5F6E050EFDEC0AF0D8801200D89028
:1044F00012000001000E0D6E020E0E6E0001000E85
:10450000136E000E146E010E156EE86A0A6E2FEC23
:104510000DF0020100510001AB6F12000001000E0E
:104520000D6E020E0E6E0001000E136E000E146E64
:10453000010E156E040E0A6E63EC0DF01200E846D3
:10454000E8060B6E0001000E0D6E030E0E6E0001EC
:10455000000E136E000E146E010E156E0B50142615
:10456000E86A1522100E0A6E2FEC0DF01200E846D4
:10457000E8060B6E0001000E0D6E080E0E6E0001B7
:10458000000E136E000E146E010E156E0B501426E5
:10459000E86A1522400E0A6E2FEC0DF00001000EA5
:1045A000BB6F030EBC6F0001000EB96F030EBA6F34
:1045B0000001080EBA6F100EBD6F6BEC27F0000102
:1045C000000E0D6E080E0E6E0001000E136E000E32
:1045D000146E010E156E0B501426E86A1522010E9A
:1045E0000A6E63EC0DF01200E846E8060B6E00015F
:1045F000000E0D6E030E0E6E0001000E136E000E07
:10460000146E010E156E0B501426E86A15220A6E00
:104610002FEC0DF00001000E0D6E040E0E6E000169
:10462000000E136E000E146E010E156E0B50E82A6C
:104630001426E86A15220A6E2FEC0DF01200E846E7
:10464000E8060C6E0001000E0D6E030E0E6E0001EA
:10465000000E136E000E146E010E156E0C50142613
:10466000E86A1522040E0A6E63EC0DF00001000EDC
:104670000D6E040E0E6E0001000E136E000E146E11
:10468000010E156E0C50E82A1426E86A1522040E55
:104690000A6E63EC0DF012000001000EBB6F030EFA
:1046A000BC6F0001000EB96F060EBA6F000EBD6F31
:1046B0006BEC27F00001000EBB6F040EBC6F000115
:1046C000000EB96F070EBA6F000EBD6F6BEC27F0CE
:1046D000120002010051E846E8060A6E0001000ED1
:1046E0000D6E030E0E6E0001000E136E000E146EA2
:1046F000010E156E0A501426E86A1522010E0A6E84
:1047000063EC0DF0120075C093F076C094F077C0A2
:1047100095F078C096F079C097F07AC098F07BC099
:1047200099F07CC09AF08FC09BF090C09CF07FC045
:104730009DF080C09EF081C09FF082C0A0F091C02B
:10474000A1F092C0A2F0120083EC23F00301B25159
:1047500093EC28F0D8A0BFEF23F0030EE26E5C0EBE
:10476000E16E8BEC26F0610EE16E8BEC26F0660EAE
:10477000E16E8BEC26F06B0EE16E8BEC26F083EC99
:1047800023F00301B35193EC28F0D8A0E0EF23F01D
:10479000030EE26E700EE16E8BEC26F083EC23F0DC
:1047A000750EE16E8BEC26F083EC23F07A0EE16E51
:1047B0008BEC26F083EC23F07F0EE16E8BEC26F081
:1047C00083EC23F00301B45193EC28F0D8A0FBEF65
:1047D00023F0030EE26E840EE16E8BEC26F0890E60
:1047E000E16E8BEC26F08E0EE16E8BEC26F0930ED4
:1047F000E16E8BEC26F0120093C00DF094C00EF029
:1048000010C40FF000010EBE11C40FF0106A0FBEED
:10481000106862EC12F00001640E176E000E186E44
:1048200066EC13F0000113C0E8FF972714C0E8FFFF
:10483000982397C00DF098C00EF012C40FF000013D
:104840000EBE13C40FF0106A0FBE106862EC12F0B7
:104850000001640E176E000E186E66EC13F0000176
:1048600013C0E8FF932714C0E8FF942397C00DF00E
:1048700098C00EF014C40FF000010EBE15C40FF066
:10488000106A0FBE106862EC12F00001640E176E21
:10489000000E186E66EC13F0000113C0E8FF9527B8
:1048A00014C0E8FF962399C00DF09AC00EF016C40C
:1048B0000FF000010EBE106A0FBE106862EC12F01D
:1048C0000001640E176E000E186E66EC13F0000106
:1048D00013C0E8FF952714C0E8FF962393C075F036
:1048E00094C076F095C077F096C078F097C079F0D4
:1048F00098C07AF099C07BF09AC07CF0040117A1AF
:1049000086EF24F095C07FF096C080F0030198A157
:10491000A3EF24F095C00DF096C00EF097C00FF0F5
:1049200098C010F000010DC077F00EC078F00DC0F7
:1049300079F00EC07AF00F50792710507A230F507B
:10494000775F1050785B030199A1C0EF24F095C008
:104950000DF096C00EF093C00FF094C010F000015F
:104960000DC077F00EC078F00DC075F00EC076F077
:104970000F507527105076230F50775F1050785BDB
:1049800003019AA160EF25F093C00DF094C00EF0E2
:104990000DC075F00EC076F00DC081F00EC082F033
:1049A0000001811F821F814B822B0001640E176E54
:1049B000000E186E03019C51E812D8B429EF25F0BF
:1049C000E8BE07EF25F0640800010F6E106A76BF9D
:1049D000F8EF24F075C00DF076C00EF062EC12F026
:1049E00066EC13F013C075F014C076F029EF25F0D3
:1049F000000181C00DF082C00EF062EC12F066EC96
:104A000013F013C081F014C082F029EF25F0640F79
:104A100000010F6E106A76AF1CEF25F075C00DF027
:104A200076C00EF062EC12F066EC13F013C075F075
:104A300014C076F029EF25F0000181C00DF082C08E
:104A40000EF062EC12F066EC13F013C081F014C0AB
:104A500082F00001640E176E000E186E0301C6513D
:104A6000E812D8B446EF25F00301C55193EC28F0C5
:104A7000D8A060EF25F00001E80E0D6E030E0E6E5B
:104A800099510D5E9A510E5A4AEF25F09FC00DF0D4
:104A9000A0C00EF09DC30FF000010EBE9BC30FF02F
:104AA000106A0FBE101E62EC12F066EC13F0135089
:104AB0007527145076230001135081271450822348
:104AC00012000301A4A1120083EC23F0FCEC23F0FC
:104AD00012000301A4B171EF25F083EC23F0FCEC8C
:104AE00023F003019EA18CEF25F00301C25193EC4A
:104AF00028F0D8A08CEF25F003019F5100010D6E26
:104B00000E6A00010A0E0F6E000E106E62EC12F0BB
:104B100013C07BF014C07CF00301A0A1B9EF25F015
:104B20000301C35193EC28F0D8A09BEF25F00301BB
:104B3000A151A4EF25F00301C45193EC28F0D8A0B3
:104B4000B9EF25F00301A25100010D6E0E6A0001BC
:104B50000A0E0F6E000E106E62EC12F013507B5DA9
:104B600014507C59E8AEB9EF25F013C07BF014C0A7
:104B70007CF012001DC4E8FFE812D8B4120075C022
:104B80000DF076C00EF077C00FF078C010F07FC047
:104B900075F080C076F07FC077F080C078F00001BB
:104BA0000DC0E8FF75270EC0E8FF76230DC0E8FFB3
:104BB0007F5F0EC0E8FF805B0FC0E8FF772710C063
:104BC000E8FF78231DC4E8FF0308D8B412000001F1
:104BD000D89010BED88010320F3200010FC0E8FF0D
:104BE0007F5F10C0E8FF805B0FC0E8FF755F10C0FB
:104BF000E8FF765B1DC4E8FF0108D8B4120000018D
:104C00000FC0E8FF7F5F10C0E8FF805B0FC0E8FFC8
:104C1000755F10C0E8FF765B12000BC0E8FFF00B79
:104C2000D8B412000DC06BF00EC06CF00EAE1EEFCB
:104C300026F00D1E0E1E0D2AD8B00E2A0DC013F040
:104C40000EC014F0640E176E95EC12F000011C6A91
:104C5000090E136036EF26F00BC0E8FFE83AE806CD
:104C60000F0BE8B653EF26F048EF26F0136E0DC099
:104C70001BF00EC01CF0840E00011B5E030E1C5ABC
:104C80000BC0E8FFE83AE8060F0BE8B653EF26F052
:104C90000B0DF350460F1324E8CFD9FF020EE8CFD7
:104CA000DAFF5DEF26F0E8960B0DF350DA0F1324D0
:104CB000E8CFD9FF030EE8CFDAFFDECF0AF0DFCF6F
:104CC0000BF000010BC00DF00AC0E8FF0D5E0E6A8C
:104CD0000DBE0E681BC00FF01CC010F062EC12F08D
:104CE0000A0E176E95EC12F00AC0E8FF0A0DF3CF1A
:104CF000E8FF1326F4CFE8FF142213C00DF014C010
:104D00000EF000016CAF120000010D1E0E1E0D2AE8
:104D1000D8B00E2A1200E650E8CF0BF0E812D8B453
:104D2000120080EC02F00DEC26F00DC011F00EC068
:104D300012F0E6CF0AF0E6CFE8FF0001E8CF0DF071
:104D40000E6A0DBE0E1E00010A0E0F6E000E106ED2
:104D500062EC12F011C00DF012C00EF013500D5E97
:104D600014500E5A0EBEEAEF26F0E6CFE8FF00011F
:104D70000AACD3EF26F0E8CF13F0E9CF14F00DC062
:104D800011F00EC012F0135080EC02F00DC013F0C1
:104D90000EC014F00A0E176E95EC12F011C00DF053
:104DA00012C00EF013500F6E106A0FBE101E62EC90
:104DB00012F00001640E176E000E186E196A1A6A5E
:104DC00066EC13F013C00DF014C00EF00A5000ECA6
:104DD00003F01200E6CFE8FFE6CFE8FF00010AAAE1
:104DE00008EF27F0E8CF13F00DC011F00EC012F05D
:104DF000135080EC02F00DC013F00EC014F00A0E38
:104E0000176E95EC12F011C00DF012C00EF0135099
:104E10000F6E106A0FBE101E62EC12F00001640EDD
:104E2000176E000E186E196A1A6A66EC13F013C03A
:104E30000DF014C00EF00A5000EC03F01200000157
:104E4000BD0EBB6F030EBC6F0001120EB96F010ED9
:104E5000BA6F050EBD6F6BEC27F0D90EE8CFD9FF06
:104E6000060EE8CFDAFF060EE8CF0CF0DDCFE8FF44
:104E7000E812D8B443EF27F0DFCFE8FF93EC28F037
:104E8000D8B04FEF27F0DDCFE8FF0C2E36EF27F03C
:104E9000ABC0E8FF0201006358EF27F01200DECF3D
:104EA000E8FFDECFE8FF0201006358EF27F01200B1
:104EB000E8CF00F2F4EC22F00001120EBB6F010EFD
:104EC000BC6F0001BD0EB96F030EBA6F050EBD6F4A
:104ED0006BEC27F012000001BB51E16EBC51E26E99
:104EE0000001B951D96EBA51DA6EE6CFE8FFE8CFCA
:104EF000DEFF0001BD2F75EF27F012000001C56B2A
:104F00000301AE5193EC28F00001D8B0C581030134
:104F1000AF5193EC28F00001D8B0C5830301B05124
:104F200093EC28F00001D8B0C5850301B15193EC92
:104F300028F00001D8B0C5870301B65193EC28F0E2
:104F40000001D8B0C5890301BB5193EC28F00001E2
:104F5000D8B0C58B0301BC5193EC28F00001D8B048
:104F6000C58D1200C00E83EC0EF00301AE5193EC20
:104F700028F00001E86AE880C515D8A0CEEF27F038
:104F8000D8A4DFEF27F0C571000EF86E730EF76E30
:104F90003A0EF66E14EC0FF090EF28F0D8B0DFEF79
:104FA00027F0D8B4DFEF27F0C571000EF86E730E4E
:104FB000F76E280EF66E14EC0FF090EF28F0030158
:104FC000AF5193EC28F00001E86AE882C515D8A03B
:104FD000F8EF27F0D8A409EF28F0C573000EF86E9B
:104FE000730EF76E5E0EF66E14EC0FF090EF28F075
:104FF000D8B009EF28F0D8B409EF28F0C573000E37
:10500000F86E730EF76E4C0EF66E14EC0FF090EF18
:1050100028F00301B05193EC28F00001E86AE8841D
:10502000C515D8A022EF28F0D8A433EF28F0C57515
:10503000000EF86E730EF76E820EF66E14EC0FF023
:1050400090EF28F0D8B033EF28F0D8B433EF28F041
:10505000C575000EF86E730EF76E700EF66E14ECDA
:105060000FF090EF28F00301B15193EC28F000010C
:10507000D8A049EF28F0C5B74AEF28F0C577000E51
:10508000F86E730EF76ECA0EF66E14EC0FF090EF1A
:1050900028F0C5970301B65193EC28F00001D8A081
:1050A00060EF28F0C5B961EF28F0C579000EF86E01
:1050B000730EF76EB80EF66E14EC0FF090EF28F04A
:1050C000C5990301BB5193EC28F00001D8A077EFFC
:1050D00028F0C5BB78EF28F0C57B000EF86E730E84
:1050E000F76E940EF66E14EC0FF090EF28F0C59B5F
:1050F0000301BC5193EC28F00001D8A08EEF28F0FA
:10510000C5BD8FEF28F0C57D000EF86E730EF76EEB
:10511000A60EF66E14EC0FF090EF28F0C59D12006D
:10512000500EA96F1200E8AACBEF28F0E8A8CBEF49
:1051300028F00A6E070BC90FE16E030EE26EE6500F
:1051400000010D6E0E6AE8BE0E6800010A0E0F6EB9
:10515000000E106E62EC12F00A50070BE846340F96
:10516000E16E010EE26EE6CF0DF0E6CF0EF000012B
:105170000EAEBFEF28F00D1E0E1E0D4A0E2A0DC0FA
:10518000E8FF135E0EC0E8FF1458E836D8700ABE78
:105190001200D8701200D890E8BA1200D880E8B88F
:1051A000120000011F6E206AE8BC2080070BE82A6D
:1051B000D8802036E82ED9EF28F030501FB6335073
:1051C0002014D8802062D8901FBED8701200040E20
:1051D000D56E1200D59E1200D89087B21200D880EA
:1051E000D5BE1200C9C00DF0CAC00EF000013C0EC1
:1051F0000F6E000E106E73EC12F013C00DF014C0A1
:105200000EF00001240E0F6EF40E106E73EC12F00F
:10521000C7C017F0C8C018F00001000E196E000ECC
:105220001A6E49EC15F0A5C317F0A6C318F00001DB
:10523000186A66EC13F0C00E83EC0EF0000EF86EE8
:10524000720EF76E980EF66E14EC0FF0CB0E83EC28
:105250000EF06DEC0FF0A5C313F0A6C314F0146AA2
:10526000C00E83EC0EF069EC0FF00001000EC96F68
:10527000000ECA6FD88012000001020E36621200C2
:10528000000133A01200FC6A7FEF05F055EC29F015
:10529000D8A01200FC6A8EEC22F000C2E8FF1FECDE
:1052A00023F04CEC23F07FEF05F0000130B65FEF08
:1052B00029F032A65FEF29F03296D8801200D890FC
:1052C00012000001730E0E6EEE0E0D6EA8EC29F0AA
:1052D000F3EC0EF00001115080EC01F012001EC141
:1052E0000DF01FC10EF0F3EC0EF012000001F651AC
:1052F000D8B41200E1CF3EF1E2CF3FF170EC1AF0EA
:105300000001000E756F000E766F0001000E776FC2
:10531000000E786F37EC1CF0CAEC1BF0F2EC1EF0BC
:1053200002EC20F073EC1DF061EC25F0A4EC23F00E
:1053300069EC25F069EC1EF0E3EC20F0E0EC0FF0F6
:105340003EC1E1FF3FC1E2FF12000001F669120019
:105350003CEC29F00001D36BE16BF16BF26BC00EFA
:1053600083EC0EF00DC0F6FF0EC0F7FFF86A0DC01B
:105370000FF00EC010F014EC0FF0FA0E6AEC0CF007
:1053800035EC2EF0D8A4CBEF29F0110E0D26D8B0B5
:105390000E2AD2EF29F0D8A0DFEF29F0130E0D2648
:1053A000D8B00E2A0DC0F6FF0EC0F7FFF86A09004C
:1053B000F5CF0DF00900F5CF0EF0AFEF29F046EC78
:1053C00029F068EC22F0D8A0AFEF29F0150E0D26D9
:1053D000D8B00E2A0DC0F6FF0EC0F7FFF86A09001C
:1053E000F5CF11F00900F5CF12F00FC00DF010C08D
:1053F0000EF00900F5CF0FF00900F5CF10F009000D
:10540000F5CFD4F00900F5CFD5F00001BF6BC06B2C
:10541000C1697F0EE8CFC2F012AC1BEF2AF0090081
:10542000F5CFBFF00900F5CFC0F00900F5CFC1F00E
:105430000900F5CFC2F012A424EF2AF00900F5CF3D
:10544000F1F00900F5CFF2F012A22DEF2AF00900D9
:10545000F5CFF3F00900F5CFF4F012AE32EF2AF0F9
:10546000F3EC0EF012A637EF2AF009EC0FF012A2BF
:1054700012000001E86AE8CFFBFFF4C0E8FFE8CFC4
:10548000FAFFF3C0E8FFF96EE8CF0AF00FC01BF097
:1054900010C01CF00FC0F6FF10C0F7FFF86A150E21
:1054A000F626D8B0F72A0900F5CFE8FF0A625AEFCE
:1054B0002AF012000FC0F6FF10C0F7FF110EF626FB
:1054C000D8B0F72A0900F5CF0FF00900F5CF10F09A
:1054D0000FC0E8FF1B624AEF2AF010C0E8FF1C6211
:1054E0004AEF2AF01200000110500F10D8B4120039
:1054F000E86AFB6E1050E8CFFAFF0F50F96E00011A
:105500000F50E16E1050E26E0001000E11629DEF2F
:105510002AF00FC0F6FF10C0F7FFF86A160EF62645
:10552000D8B0F72AD4C0E1FFD5C0E2FFE7CFE8FF4B
:1055300044EC2AF0A2EC2DF01200010E1162A7EF4C
:105540002AF0250EE8CF40F178EC2CF01200020E84
:105550001162D1EF2AF0000112A0B2EF2AF0D4516B
:105560000001BE6FE6CF0AF0E5CF0BF000010AC0E4
:1055700011F00BC012F0129E129CD5EC2CF0000121
:105580000FC0E1FF10C0E2FF11C00AF012C00BF023
:105590000AC0E6FFE7CFE8FFC00B0B120BC0E5FF28
:1055A0001200030E1162E6EF2AF0E7CFE8FFE836BB
:1055B000C9EC2BF0000ED8B0E81E0A6E00010FC037
:1055C000E1FF10C0E2FF0AC0E7FF1200040E116203
:1055D000F7EF2AF0E7CFE8FFE9EC2DF00A6E0001C3
:1055E0000FC0E1FF10C0E2FF0AC0E7FF1200050E86
:1055F000116209EF2BF0E7CFE8FF1EEC2CF0E8CFAB
:105600000AF000010FC0E1FF10C0E2FF0AC0E7FF8F
:105610001200060E11621FEF2BF0E7CF0AF00FC049
:10562000D4F010C0D5F00001A00E0F6E890E106EE0
:105630000AC0E8FF44EC2AF0A2EC2DF01200070E9D
:10564000116226EF2BF073EC2AF01200080E1162A3
:1056500037EF2BF0E7CFE8FF18EC2CF0E8CF0AF09B
:1056600000010FC0E1FF10C0E2FF0AC0E7FF0A0E11
:10567000116258EF2BF0E7CFE8FF0001D415D89066
:10568000D8B4D880C9EC2BF00001D4C00AF00001D6
:105690000FC0E1FF10C0E2FFD8B053EF2BF00AC0FB
:1056A000E8FFE71212000AC0E8FFE81EE716120042
:1056B0000B0E116262EF2BF0200EE8CF40F178EC78
:1056C0002CF012000C0E11627FEF2BF0E6CF0AF0E7
:1056D000E5CF0BF000010AC011F00BC012F056EC40
:1056E0002DF000010FC0E1FF10C0E2FF11C00AF071
:1056F00012C00BF00AC0E6FF0BC0E5FF120012005B
:105700000B6AD8B00B1EC00E83EC0EF0000EF86EC4
:10571000720EF76E380EF66E14EC0FF00BA0A5EFBC
:105720002BF0C80E83EC0EF0280E74EC0EF0CC0EAD
:1057300083EC0EF0290E74EC0EF0CF0E83EC0EF01D
:10574000200E74EC0EF0B7EF2BF0C80E83EC0EF0C9
:10575000200E74EC0EF0CC0E83EC0EF0280E74ECE0
:105760000EF0CF0E83EC0EF0290E74EC0EF035EC3B
:105770002EF0D8B40B6AFF0ED8B00B6E46EC29F0B1
:1057800068EC22F0D8A08EEF2BF0D8900BB0D88028
:1057900012000B6AD8B00B1EC80E83EC0EF0000E80
:1057A000F86E720EF76E760EF66E14EC0FF00BA01C
:1057B000EEEF2BF0C80E83EC0EF0280E74EC0EF01A
:1057C000CC0E83EC0EF0290E74EC0EF0CF0E83ECB1
:1057D0000EF0200E74EC0EF000EF2CF0C80E83ECEF
:1057E0000EF0200E74EC0EF0CC0E83EC0EF0280EB2
:1057F00074EC0EF0CF0E83EC0EF0290E74EC0EF06C
:1058000035EC2EF0D8B40B6AFF0ED8B00B6E46EC18
:1058100029F068EC22F0D8A0D7EF2BF0D8900BB08D
:10582000D88012000001C165C151BF61BF51120093
:105830000001EE690001A36F22EF2CF00001A36FBD
:105840000001EE6B960E6AEC0CF0A3C0E8FF0001BD
:10585000136E146A156A166A97EC0FF00001EE6772
:1058600040EF2CF0CD0E83EC0EF0275074EC0EF0D0
:10587000285074EC0EF0295074EC0EF04FEF2CF021
:10588000CC0E83EC0EF0275074EC0EF0285074EC24
:105890000EF02E0E74EC0EF0295074EC0EF05BEC52
:1058A0002EF00001D8A460EF2CF0A32BC1C0E8FFBC
:1058B000A361A36FA3676DEF2CF0A36F6DEF2CF0C6
:1058C000D8A06DEF2CF0A3C0E8FFBF616DEF2CF006
:1058D000A307BFC0E8FFA365A36F46EC29F068ECFF
:1058E00022F0D8A022EF2CF00001A3C0E8FF1200A4
:1058F00076EC29F0F7C0E8FF7F08E8BEE86AE846E2
:10590000E8666AEC0CF0E7CFE8FFE7BEE81EE7BE0A
:10591000E82A0001136E146A156A166A97EC0FF0F4
:10592000CB0E83EC0EF0200EE7BE2D0E74EC0EF0C5
:10593000275074EC0EF0285074EC0EF0295074ECE3
:105940000EF040C1E8FF74EC0EF05BEC2EF00001AD
:10595000D8A4AEEF2CF0E72AB2EF2CF0D8A0B2EF2B
:105960002CF0E70646EC29F068EC22F0D8A078EF9E
:105970002CF00001F66B120000011150C15D1250B5
:10598000C259D8B0C9EF2CF0C151116EC251126E7C
:105990001200BF51115CC0511258D8B0D4EF2CF096
:1059A000BF51116EC051126E1200BCEC2CF0000100
:1059B000C46B0001BE51E812D8B4E7EF2CF0BE5121
:1059C000E16E000EE26E11C0E6FF12C0E7FFF7C005
:1059D000E8FF7F08E8BEE86AE846E8666AEC0CF093
:1059E00011C013F012C014F0D89014321332156A9B
:1059F000166A97EC0FF0C90E83EC0EF0265074EC8B
:105A00000EF02E0E74EC0EF0275074EC0EF02850B1
:105A100074EC0EF0295074EC0EF06D0E74EC0EF078
:105A2000530E74EC0EF05BEC2EF00001D8A428EFBE
:105A30002DF0112AD8B4122A112AD8B4122AC25130
:105A40001262D5EF2CF0C1511160116ED5EF2CF020
:105A5000D8A03AEF2DF01106D8A012061106D8A052
:105A60001206C0511262D5EF2CF0BF511164116EB5
:105A7000D5EF2CF0000133A2C46933BC45EF2DF003
:105A80000001A00E116E0F0E126E000133BE4EEF1C
:105A90002DF00001D00E116E070E126E46EC29F0AB
:105AA00068EC22F0D8A0D9EF2CF01200F7C0E8FF84
:105AB0007F08E8BEE86AE846E8666AEC0CF011C0C8
:105AC00013F012C014F0156A166A97EC0FF0CB0EA3
:105AD00083EC0EF0255074EC0EF0265074EC0EF0B2
:105AE000275074EC0EF0285074EC0EF0295074EC32
:105AF0000EF05BEC2EF00001D8A48BEF2DF0112AF4
:105B0000D8B4122AC251126256EF2DF0C151116061
:105B1000116E56EF2DF0D8A09AEF2DF01106D8A0F7
:105B20001206C051126256EF2DF0BF511164116E72
:105B300056EF2DF046EC29F068EC22F0D8A056EF95
:105B40002DF01200C00E83EC0EF00FC0F6FF10C057
:105B5000F7FF14EC0FF0FA0E6AEC0CF05BEC2EF091
:105B6000D8A4B9EF2DF0110E0F26D8B0102AC0EF2F
:105B70002DF0D8A0CDEF2DF0130E0F26D8B0102A9F
:105B80000FC0F6FF10C0F7FFF86A0900F5CF0FF05D
:105B90000900F5CF10F0A2EF2DF046EC29F068ECEB
:105BA00022F0D8A0A2EF2DF0150E0F26D8B0102AA3
:105BB0000FC0F6FF10C0F7FFF86A0900F5CF0AF032
:105BC0000900F550D4C0E1FFD5C0E2FF0AC0E7FFED
:105BD00012000F0BE8B6080B0C0DF3CF13F0F4CF47
:105BE00014F00001A40E13267F0E1422CC0E83ECB9
:105BF0000EF013C0F6FF14C0F7FF14EC0FF0FA0E0E
:105C00006AEC0CF05BEC2EF0D8A40DEF2EF0050E34
:105C10001326D8B0142A14EF2EF0D8A021EF2EF0BE
:105C2000070E1326D8B0142A13C0F6FF14C0F7FFCE
:105C3000F86A0900F5CF13F00900F5CF14F0F6EF7C
:105C40002DF046EC29F068EC22F0D8A0F6EF2DF00C
:105C5000090E1326D8B0142A13C0F6FF14C0F7FF9C
:105C6000F86A0900F5CFE8FF1200040E50EC09F0C5
:105C7000040E50EC09F0CBC0E8FFC35ECCC0E8FFD7
:105C8000C45AC4BE4EEF2EF0900EC35E010EC45A2D
:105C9000C4BE58EF2EF0D884D8901200900EC326C0
:105CA000010EC422C4AE58EF2EF0D894D880120052
:105CB000D894D8901200050E50EC09F0050E50EC67
:105CC00009F0CDC0E8FFC35ECEC0E8FFC45AC4BE31
:105CD0007EEF2EF0900EC35E010EC45AC4BE94EF48
:105CE0002EF0D890C432C332D890C432C332C466C6
:105CF000C368C3CFF7F0D884D8901200900EC326A3
:105D0000010EC422C4AE94EF2EF0D880C432C33248
:105D1000D880C432C332C31EC41EC466C368C3CF96
:105D2000F7F0D894D8801200D894D89012009FEF42
:105D30002FF0800E83EC0EF0000EF86E740EF76EEE
:105D4000060EF66E14EC0FF025EF30F001011E0E7A
:105D50001E6F740E1F6F01018E0E206F760E216F65
:105D60002FEC2FF08EEC22F000C2E8FF1FEC23F0A6
:105D70004CEC23F012000101360E1E6F740E1F6FE3
:105D80000101800E206F770E216F2FEC2FF0B2EF04
:105D90002EF001014E0E1E6F740E1F6F01016A0E70
:105DA000206F790E216F2FEC2FF0B2EF2EF0010152
:105DB000660E1E6F740E1F6F0101100E206F800E95
:105DC000216F2FEC2FF0B2EF2EF001017E0E1E6F2F
:105DD000740E1F6F01010E0E206F870E216F2FECC6
:105DE0002FF0B2EF2EF00001E36B0101960E1E6F53
:105DF000740E1F6F0101180E206F8D0E216F2FEC96
:105E00002FF0B2EF2EF00101AE0E1E6F740E1F6F59
:105E10000101600E206F910E216F2FEC2FF0B2EF79
:105E20002EF00101C60E1E6F740E1F6F0101DA0EF7
:105E3000206F940E216F2FEC2FF0B2EF2EF0DDEFDC
:105E400037F00101F60E1E6F740E1F6F01012E0E4A
:105E5000206F9C0E216F2FEC2FF0B2EF2EF06FEC25
