:020000040000FA
:040200006BEF03F0AD
:040208000EEF01F004
:080218002DEF01F0D8CF01F039
:10022000E0CF02F0006EF3CF03F0F4CF04F0F0ACB7
:100230001DEF01F0F0B045EC0CF0A2A023EF01F0AF
:10024000A1B0DFEC09F003C0F3FF04C0F4FF0050DD
:1002500002C0E0FF01C0D8FF1000D8CF06F0E8CF01
:1002600005F0E0CF07F0F3CF08F0F4CF09F0F0BCD1
:100270003DEF01F0F0B045EC0CF0A2B043EF01F01F
:10028000A1B0DFEC09F0A2B04CEF01F0AECFE8FF77
:100290006ECFE8FF52EF01F09EBAA8EC10F0A4BABE
:1002A00013EC11F008C0F3FF09C0F4FF07C0E0FF32
:0A02B00005C0E8FF06C0D8FF1000EB
:10030000F95000011150F926B2EF2FF0B4EF2FF0A1
:10031000C1EF2FF0D6EF2FF0E4EF2FF0F2EF2FF038
:1003200000EF30F00EEF30F01EEF30F02CEF30F039
:100330003AEF30F03CEF30F04AEF30F01200E8B81E
:100340001200E8BA1200E8BC1200E8BE12000F0B5F
:10035000D8A4B1EF01F00001000E0F6E000E106E78
:100360001200E806030B0A0DF9CFE8FFF350F92657
:1003700085C00FF086C010F0120087C00FF088C053
:1003800010F0120089C00FF08AC010F012008BC06C
:080390000FF08CC010F0120008
:10040000EFCFE8FFE806070B0A0DF9CFE8FFF3503E
:10041000F9263EC050F03FC051F012003CC050F0F1
:100420003DC051F0120040C050F041C051F01200E8
:1004300042C050F043C051F0120044C050F045C0DB
:1004400051F0120046C050F047C051F0120048C0B1
:1004500050F049C051F012004AC050F04BC051F06A
:1004600012000F0B060DF9CFE8FFF350F926BBC2BF
:10047000E8FF1200BCC2E8FF1200BDC2E8FF120094
:10048000BEC2E8FF1200BFC2E8FF1200C0C2E8FF10
:100490001200C1C2E8FF1200C2C2E8FF1200C3C2CC
:1004A000E8FF1200C4C2E8FF1200C5C2E8FF120054
:1004B000C6C2E8FF1200C7C2E8FF1200C8C2E8FFC8
:0E04C0001200C9C2E8FF1200CAC2E8FF120013
:100500000001E806070B0A0DF9CFE8FFF350F926C2
:1005100093510D6E94510E6E120095510D6E9651C1
:100520000E6E120097510D6E98510E6E1200995179
:100530000D6E9A510E6E12009B510D6E9C510E6EF7
:1005400012009D510D6E9E510E6E12009F510D6E48
:10055000A0510E6E1200A1510D6EA2510E6E12002E
:100600000001E8BE33EF03F0E806070B0A0DF9CF4F
:10061000E8FFF350F9260D5075270E50762312008F
:100620000D5077270E50782312000D5079270E5069
:100630007A2312000D507B270E507C2312000D50A0
:100640007D270E507E2312000D507F270E508023F1
:1006500012000D5081270E50822312000D50832767
:100660000E5084231200E806070B0A0DF9CFE8FFAD
:10067000F350F9260D50756F0E50766F12000D5025
:10068000776F0E50786F12000D50796F0E507A6FA1
:1006900012000D507B6F0E507C6F12000D507D6F5D
:1006A0000E507E6F12000D507F6F0E50806F120043
:1006B0000D50816F0E50826F12000D50836F0E50DF
:1006C000846F1200F2AE12000001010EA76FA7673F
:1006D00067EF03F0120087EC0CF0928802C5E8FF88
:1006E000E81EE86676EF03F092988098939C819CD0
:1006F00000015D6A5E6AE86AE8CFF8F03F0EF86EC6
:10070000FF0EF76EFF0EF66E0800F5504A0AFF0E58
:10071000D8B4E8CFF8F00001566A640E7CEC0CF017
:10072000280EE8CFD4F20001500E386EC30E396E99
:100730000F0183500001306E316E326EE81EF96F8A
:100740000F0184500001336E346E356EE81EFA6F6F
:100750000F019990878094969394829681940001DA
:10076000000E176E000E186E0001000E196E000EBE
:100770001A6E0001000E1B6E000E1C6E0001000EB2
:100780001D6E000E1E6E0001000E136E000E146E24
:100790000001000E156E000E166E0001000EB16F06
:1007A000000EB26F0001000EB36F000EB46F0001B7
:1007B000000EB56F000EB66F0001000EB76F000E91
:1007C000B86F0101000E5D6F000E5E6F0001606B7F
:1007D000616B626BA76BA86BA96BED69EF6BF06B3C
:1007E0000201BA6B0101116B0001D26B000EF86EB1
:1007F000740EF76EC80EF66E0900F5CF58F10900B9
:10080000F5CF59F10900F5CF5AF10AEC3AF002019F
:1008100000510001AB6F040E54EC09F0040E54ECCF
:1008200009F00001C350CB6FC450CC6F050E54ECDF
:1008300009F0050E54EC09F00001C350CD6FC4500F
:10084000CE6FF1EC0DF0FA0E7CEC0CF0FA0E7CECB5
:100850000CF0FA0E7CEC0CF0FA0E7CEC0CF08EEC4A
:1008600009F002EC2AF039EC10F04DEC10F021EC1C
:1008700051F0F28EF28CD08E0F01D89083B6D880D2
:10088000D8B048EF04F00A0E7CEC0CF00F01D890C1
:1008900083B6D880D8B05EEF04F00F01D89084B250
:1008A000D880D8B059EF04F00A0E7CEC0CF00F01A0
:1008B000D89084B2D880D8A080EF04F0A3EC22F0C6
:1008C0000201A50EA7636BEF04F0E70EA8636BEFC0
:1008D00004F06FEF04F00AEC3AF0FAEC0CF000C20E
:1008E000E8FF1EEC23F00301AD510201A56FD0EC2F
:1008F0000BF04BEC0BF00101F20E066F88EC0BF0E5
:100900000F01D89084B2D880D8A080EF04F00A0EEE
:100910007CEC0CF00F01D89084B2D880D8A080EF86
:1009200004F0809802C5E8FFE8668078D2C2E8FF4C
:10093000E866A0EF04F0808802C5E8FFE8668078EA
:1009400092981E0EE8CF15F0840EE8CF14F0800EBA
:10095000E8CF13F0D4C217F0E86AE8CF18F08BECB8
:1009600013F0D5C2E8FF00011326E86A142213C071
:1009700038F014C039F0040E54EC09F0040E54ECB5
:1009800009F00001C350CB6FC450CC6F050E54EC7E
:1009900009F0050E54EC09F00001C350CD6FC450AE
:1009A000CE6F0F01D89084B4D880D8B0DDEF04F0BA
:1009B0000A0E7CEC0CF00F01D89084B4D880D8B02B
:1009C000F3EF04F00F01D89083B6D880D8B0EEEFE3
:1009D00004F00A0E7CEC0CF00F01D89083B6D8809E
:1009E000D8A071EF08F00F01D89084B4D880D8B0A7
:1009F000FFEF04F00A0E7CEC0CF00F01D89084B4E9
:100A0000D8800101D8B05D690201A0C20AF00201DC
:100A1000FF0E0AB0A56FA56171EF05F00301A6A155
:100A200051EF05F00F0183BE51EF05F0800E95ECFC
:100A30000EF0000EF86E750EF76E8A0EF66E26EC4E
:100A40000FF0C00E95EC0EF0000EF86E750EF76EFE
:100A50002A0EF66E26EC0FF00F01D89084B4D880E1
:100A6000D8B038EF05F00A0E7CEC0CF00F01D890EE
:100A700084B4D880D8B02CEF05F00F01D89084B49E
:100A8000D880D8A03DEF05F00A0E7CEC0CF00F01E9
:100A9000D89084B4D880D8A03DEF05F0C80E7CEC87
:100AA0000CF00201D1B158EF05F0D1A371EF05F0C0
:100AB000800E0001A36FAFEC38F0D8909BEC2CF0C7
:100AC000D8B068EF05F00201FF0EA56F71EF05F0D9
:100AD000D0EC0BF04BEC0BF088EC0BF00A0E7CEC3E
:100AE0000CF00001010E366EA3C254F0A4C255F002
:100AF0000201A25100014F6E8FEC27F076EC23F03B
:100B0000C00EE8CF90F0E8CF92F0FCAE8BEF05F08E
:100B10000F0193948194000133B0ABEF05F0010E07
:100B2000366223EF06F00001050EE8CF5FF0070EF6
:100B30000FEC0BF0020E366E0001AB5102010063A8
:100B4000A4EF05F023EF06F0006F1EEC23F076EC27
:100B500023F023EF06F0010E366E30EC27F095EC13
:100B60001AF0CDEC1CF0F6EC07F00201A1A1DEEFCB
:100B700005F00301B651A4EC28F0D8A0DEEF05F093
:100B80000201B767D6EF05F0B1C075F0B2C076F0DC
:100B9000B3C077F0B4C078F0B5C079F0B6C07AF0E1
:100BA000B7C07BF0B8C07CF0DEEF05F0F08CF086CB
:100BB000A290E868E8CFF5F0E4EF05F0F09CF0864D
:100BC000A280E86AE8CFF5F00201A0B111EF06F0CB
:100BD000C7EC19F0D8B411EF06F060EC1CF0F3ECA0
:100BE0001BF01BEC1FF02BEC20F0BEEC1CF09CEC7F
:100BF0001DF0F8EC28F08BEC25F0CEEC23F093EC14
:100C000025F0C9EC25F0B6EC1FF092EC1EF039ECA3
:100C100051F00001EF675CEC12F00001F0675CEC52
:100C200012F062EC03F00CEC21F0BCEC11F0F2ECF1
:100C30000FF00001A86721EF06F00A0EA86F7CEC08
:100C400006F085EF05F0800E95EC0EF0000EF86EC4
:100C5000760EF76EBC0EF66E26EC0FF0C00E95EC1D
:100C60000EF0000EF86E750EF76E2A0EF66E26EC7C
:100C70000FF00D0E54EC09F06BC05BF16CC05CF131
:100C800091EC22F0D8A047EF06F07CEC2AF095EC2E
:100C90001AF0CDEC1CF060EC1CF0F3EC1BF01BEC3C
:100CA0001FF02BEC20F0BEEC1CF09CEC1DF0F8ECDF
:100CB00028F08BEC25F0CEEC23F093EC25F0C9EC7A
:100CC00025F0B6EC1FF092EC1EF00CEC21F0F2ECEB
:100CD0000FF085EF05F00001100E0B6EC00E95ECC5
:100CE0000EF0000EE16E030EE26EE65086EC0EF0A2
:100CF0000B2E75EF06F012005DC1E8FFE81EE866F6
:100D000090EF19F04AC1E8FFE866ACEF52F000013D
:100D1000840E95EC0EF0200E86EC0EF00201520EC1
:100D2000A5BF200E000186EC0EF00601CE51A4EC0A
:100D300028F0410ED8A0200E86EC0EF00301B2512F
:100D4000A4EC28F04D0ED8A02D0E86EC0EF0030179
:100D5000B351A4EC28F04D0ED8A02D0E86EC0EF069
:100D60000301B451A4EC28F04D0ED8A02D0E86EC52
:100D70000EF0200E86EC0EF0800E95EC0EF0B9C24F
:100D80000DF0BAC20EF00E6A0001640E0F6E000E76
:100D9000106E87EC12F013C011F014C012F08DC069
:100DA0000DF08EC00EF013C20FF014C210F087ECDD
:100DB00012F01450E8CF13F01550E8CF14F0156A74
:100DC000010111B1F4EF06F000011150135C125053
:100DD0001458E8AEF4EF06F0C90E00015F6E050E80
:100DE0000FEC0BF0010111690001A9EC0FF0200ECE
:100DF000E8CF0AF0300E25640AC025F0255086ECB5
:100E00000EF0265086EC0EF02E0E86EC0EF02750DB
:100E100086EC0EF00301B651A4EC28F0D8A02DEF1B
:100E200007F0A1C2E8FFE81EE86624EF07F0800E95
:100E300095EC0EF0000EF86E750EF76E600EF66E05
:100E400026EC0FF02DEF07F0800E95EC0EF000C5AC
:100E500013F001C514F07FEC0FF00201B8AF46EFBC
:100E600007F0B86B000EE8CF0DF0E86AE8CF0EF09F
:100E700000C5E8FFB6EC0CF0010EE8CF0DF0E86A13
:100E8000E8CF0EF001C5E8FFB6EC0CF01FEC08F05F
:100E9000D8B072EF07F030EC08F0D8B072EF07F07E
:100EA00007EC2AF0D8B072EF07F0C3EC27F000018E
:100EB000A951E812D8A472EF07F00201A0A16EEFC9
:100EC00007F0C00E95EC0EF0000EF86E750EF76E82
:100ED000440EF66E26EC0FF072EF07F06BEC06F0A6
:100EE000C5EC29F091EC22F0D8A085EF07F00001C5
:100EF000566684EF07F0562ABEC35AF0BFC35BF0B4
:100F0000D06BD16B85EF07F05606000156A0B8EF05
:100F100007F05B66B8EF07F03B0E5C6297EF07F0F7
:100F2000050E5F6E0A0E0FEC0BF0B8EF07F01E0E09
:100F30005C62A2EF07F0030E5F6E0A0E0FEC0BF07F
:100F4000B8EF07F00A0E5C62ADEF07F0010E5F6EBE
:100F50000A0E0FEC0BF0B8EF07F0060E5C60B8EF6E
:100F600007F0010E5F6E0A0E0FEC0BF0B8EF07F002
:100F70007F0E5C6E5850D46F5950D56F010E56627B
:100F8000E1EF07F05A505B10D8B4D0EF07F05A5099
:100F9000D46F5B50D56F000E0301BD63E1EF07F026
:100FA000020E0301BD5DD8B4DDEF07F00001D051A2
:100FB000D46FD151D56FE1EF07F0E86A0001D46F2B
:100FC000D56F00018B0E95EC0EF0D551E8CF13F0E4
:100FD000146A156A166A77EC0FF03A0E86EC0EF07A
:100FE000D451E8CF13F077EC0FF012000301C05199
:100FF000A4EC28F0D8A01CEF08F00301000EC16596
:1010000019EF08F000017CBF1CEF08F00301C1518B
:1010100000010D6E0E6A00010A0E0F6E000E106EBA
:1010200087EC12F07B51135E7C511458D8B01CEF42
:1010300008F00001ED6912000001ED6B1200D8907C
:101040000001D2AF1200C00E95EC0EF0000EF86E4B
:10105000750EF76EF60EF66E26EC0FF0D8801200C5
:101060000D0E54EC09F00D0E54EC09F06BC00DF0B0
:101070006CC00EF0A9C20FF0AAC210F087EC12F0FB
:1010800000011450136E1550146E1650156E166A2A
:10109000A9EC0FF00001255026100F0BD890D8B402
:1010A0001200C00E95EC0EF0000EF86E750EF76E85
:1010B000E40EF66E26EC0FF0CB0E95EC0EF0000170
:1010C000255086EC0EF0265086EC0EF02E0E86ECA7
:1010D0000EF0275086EC0EF0285086EC0EF0D880EB
:1010E00012000F01D89084B4D880D8A071EF08F016
:1010F0000A0E7CEC0CF00F01D89084B4D880D8A0F4
:1011000071EF08F00F01D89083B6D880D8A082EF95
:1011100008F00A0E7CEC0CF00F01D89083B6D88052
:10112000D8A082EF08F0800E95EC0EF00F018350EE
:1011300036EC0FF00F01845036EC0FF0C00E95EC3A
:101140000EF00F01865036EC0FF00F01815036EC97
:101150000FF00F01835082868184E8B08296E8B256
:1011600081948098E8B48088320E7CEC0CF00F01FA
:10117000D89084B4D880D8B0C3EF08F00A0E7CECC5
:101180000CF00F01D89084B4D880D8B093EF08F059
:101190000F01D89084B4D880D8A0C8EF08F00A0E08
:1011A0007CEC0CF00F01D89084B4D880D8A0C8EFA4
:1011B00008F0C00E95EC0EF0000EF86E740EF76E8F
:1011C0009A0EF66E26EC0FF000010D6A800E95EC7B
:1011D0000EF0000EF86E740EF76ED00EF66E26EC62
:1011E0000FF0870E95EC0EF000010D5043EC0FF060
:1011F00054EC09F0F8C0E8FFE86605EF09F0D89074
:10120000C432C332D890C432C3328C0E95EC0EF087
:101210000F01C4CFE8FF43EC0FF00F01C3CFE8FF8D
:1012200043EC0FF0320E7CEC0CF00F01D89084B43C
:10123000D880D8B021EF09F00A0E7CEC0CF00F0139
:10124000D89084B4D880D8B0E6EF08F00F01D890D9
:1012500084B4D880D8A026EF09F00A0E7CEC0CF0FC
:101260000F01D89084B4D880D8A026EF09F00001EF
:101270000D2A0C0E0D64E6EF08F093EF08F0000164
:10128000136A146A156A166A0A6E0B6A0A5054ECDD
:1012900009F00001C3501326C4501422D8B0152AF7
:1012A0000B2E46EF09F012000A6EA10EC06E000E62
:1012B000C16E0AC0E8FF31EC02F0E8AEC188E89EDA
:1012C000E844E844C26E040EE8CF0CF00001000EC2
:1012D0006B6F000E6C6FC280000000000000C282C5
:1012E000C2B270EF09F00001C3506B27C4506C23E9
:1012F00000010C06F0E1F8C0E8FFE81EE86687EFA1
:1013000009F0D8906C336B33D8906C336B336BC06F
:10131000C3FF6CC0C4FF0AC0E8FF120000014E6AA0
:10132000586A596AD4C2E8FFE8CF57F00001900E1E
:10133000546E010E556E0001900E506E010E516EEE
:10134000526A536A100E0001E8CF4FF03A6A3C6AC5
:101350003E6A406A426A446A466A486A4A6A4C6A15
:10136000080EE8CF3BF0E8CF3DF0E8CF3FF0E8CF04
:1013700041F0E8CF43F0E8CF45F0E8CF47F0E8CFC1
:1013800049F0E8CF4BF0E8CF4DF0979E858E0001F5
:1013900054500F01E8CFBBFF010155500F01E8CFBA
:1013A000BCFF0A0E0F01E8CFBAFF0F01A0800F01AA
:1013B0009E900F01080EE8CFB1FFB180120000012E
:1013C000F5A1857E0201BAAFE9EF09F08770F1EF70
:1013D00009F00001EBB1F0EF09F08780F1EF09F0BF
:1013E00087900001BBCFE8FF5026BCCFE8FF512219
:1013F00050C0E8FFE8CFBBFF51C0E8FFE8CFBCFF1B
:101400000001E86A4E646AEC0AF000014E2A4EC000
:10141000E8FFFE0B4F6020EF0AF04E6A38C0E8FF8D
:10142000E8CF50F052C0E8FF505E39C0E8FFE8CF87
:1014300051F053C0E8FF515A526A536A67EF0AF0FD
:101440004EA035EF0AF054C0E8FFE8CF50F055C089
:10145000E8FFE8CF51F0BAC2E8FF0001EB814E622D
:1014600061EF0AF0EB9161EF0AF0120E4E624DEF60
:101470000AF052C0E8FFE8CF50F053C0E8FFE8CFD1
:1014800051F0513250325132503251325032513289
:1014900050320F0E511661EF0AF0040EE8CFEAFF4A
:1014A000000EE8CFE9FF4EC0E8FFE830E89EE80410
:1014B000E92600EC02F054C0E8FF505E55C0E8FF9A
:1014C000515A50C0E8FF522651C0E8FF53220F0185
:1014D000A190120027EC10F031EC10F00001010E89
:1014E000366279EF0AF000018286C3B18296FF0E60
:1014F000C36F87900301CDBF83EF0AF00001F5A110
:10150000859E86EF0AF00001F5A1858E0001572E19
:10151000CDEF0AF005EC2AF0000156A0BCEF0AF06E
:101520000001FF0EED63BCEF0AF05AC0E8FF5B104C
:10153000D8B4B4EF0AF05A66A1EF0AF03C0E5A6E26
:101540005B065A065A505C6E0301E86ABD11D8B4B6
:10155000B4EF0AF000015A505B10D8B4B4EF0AF0AF
:10156000D06BD16BBCEF0AF00001D02B3C0ED063E6
:10157000BCEF0AF0D06BD12BD4C2E8FFE8CF57F014
:10158000582A3C0E5862CDEF0AF0586A592A0501D4
:10159000002BD8B4012B0201B8690201A1A1D6EF3A
:1015A0000AF0530E61EC10F00001AE6B000183CF26
:1015B000E8FF311AD8A4306E316E30C0E8FF321225
:1015C000E81EF91332C0E8FFF917000184CFE8FFE5
:1015D000341AD8A4336E346E33C0E8FF3512E81ED7
:1015E000FA1335C0E8FFFA1700016067600761670A
:1015F000610762676207A767A707A867A807A967C7
:10160000A9075E6605EF0BF012005E2E12008078CF
:101610005F4E12005DC0E8FFE8CF5EF01200E8CF39
:101620005DF0E8CF5EF0D2C2E8FFE8661EEF0BF097
:10163000809802C5E8FFE86680781200808802C5BD
:10164000E8FFE8668078120000010ABE2BEF0BF07D
:10165000819E2CEF0BF0818E828A829A0A460B2E95
:1016600024EF0BF012000201AD510A6E080E0B6E52
:1016700024EC0BF00201AC510A6E080E0B6E24EC48
:101680000BF00201AB510A6E080E0B6E24EC0BF04E
:101690008686869612000BC113F00CC114F00DC1A2
:1016A00015F009C117F00AC118F08BEC13F0020114
:1016B000A55101010F03F35000011326D8B0142ADD
:1016C000D8B0152A0101006B016B026B00011350A9
:1016D000E846E846E880E8921F0B13B6E88E010161
:1016E000006F0001133614361536133614361536CE
:1016F00013361436153613361436153614500101C8
:10170000016F000115501F0B01011009026F12003B
:101710004BEC0BF0010108510A6E080E0B6E24EC25
:101720000BF0010107510A6E080E0B6E24EC0BF052
:10173000010106510A6E080E0B6E24EC0BF0868632
:101740008696010105510A6E080E0B6E24EC0BF013
:10175000010104510A6E080E0B6E24EC0BF001011E
:1017600003510A6E080E0B6E24EC0BF086868696EB
:10177000010102510A6E080E0B6E24EC0BF0010100
:1017800001510A6E080E0B6E24EC0BF001010051A2
:101790000A6E080E0B6E24EC0BF0868686961200FD
:1017A0000F01939E949A939C819C819E829A989615
:1017B00086960201010ED163FDEF0BF004C206F123
:1017C00005C207F106C208F101C203F102C204F129
:1017D00003C205F10101700E0B6FC60E0C6F000EF7
:1017E0000D6F0101140E096F000E0A6F01010E6BDF
:1017F0000A0E106F010E0F6F1200020ED16320EF60
:101800000CF00AC206F10BC207F10CC208F107C2C4
:1018100003F108C204F109C205F101016C0E0B6F5E
:10182000CF0E0C6F000E0D6F0101140E096F000E2C
:101830000A6F01010E6B080E106F050E0F6F12007C
:10184000030ED16344EF0CF010C206F111C207F190
:1018500012C208F10DC203F10EC204F10FC205F16C
:1018600001014A0E0B6F190E0C6F010E0D6F010175
:101870000A0E096F000E0A6F01010B0E0E6F320E79
:10188000106F020E0F6F1200120087B263EF0CF0A0
:10189000D5AE55EF0CF0D6CFC7F0D7CFC8F00001CA
:1018A000C92BD8B4CA2BF09012000001C951CA113B
:1018B000F090D8A41200E86AE8CFD7FFE8CFD6FFAF
:1018C000D58EF0901200F17AF0AC75EF0CF00301B8
:1018D000CDA171EF0CF0F1AA858EF1BA859E75EF5E
:1018E0000CF0F1AA859EF1BA858EF09012000000EE
:1018F000E82E77EF0CF012000A6EFA0E77EC0CF07F
:10190000FA0E77EC0CF00A2E7DEF0CF01200050EAB
:10191000E26EE86AE16EE86AAA6EE86AA96EA69EBF
:10192000A69CA680A850E66EA92AF9E112000EC076
:10193000E8FFE26E0DC0E8FFE16EE86AAA6E0DC036
:10194000E8FFA96EA69EA69CA680A850E66EA92ACE
:101950000A06F8E112000EC0E8FFAA6E0DC0E8FF0B
:10196000A96EA69EA69CA680A8501200A198A86E5B
:101970000EC0E8FFAA6E0DC0E8FFA96EA69EA69C49
:10198000A684F29E550EA76EAA0EA76EA682F28EB0
:10199000A1A8C8EF0CF0A19812000FC0E8FFB6ECA8
:1019A0000CF000010D2AD8B40E2A10C0E8FFB6ECE6
:1019B0000CF012000EC0E8FFE26E0DC0E8FFE16E11
:1019C000E86AAA6E0DC0E8FFA96EA198E650A86E5D
:1019D000A69EA69CA684F29E550EA76EAA0EA76E82
:1019E000A682F28EA1A8F2EF0CF0A198A92A0A060D
:1019F000EDE11200800E95EC0EF0000EF86E750E03
:101A0000F76E9C0EF66E26EC0FF0C00E95EC0EF005
:101A1000000EF86E750EF76E180EF66E26EC0FF0CF
:101A2000E4EC2CF0D8A03AEF0DF0C00E95EC0EF0DF
:101A3000000EF86E750EF76EAE0EF66E26EC0FF019
:101A40000AEC3AF0B8EC22F00001600EA46F00C27C
:101A5000E8FF49EC23F00201002B0301072B3A0EAB
:101A6000076336EF0DF0062B300E076F0001A42F31
:101A700027EF0DF0A3EC22F000C2E8FF1EEC23F0EC
:101A8000120000011550F86E1450F76E1350F66EE8
:101A900000010E50E26E0D50E16E0900F550E66E49
:101AA0000A060900F550E66E0A2E4DEF0DF0120001
:101AB00000011550F86E1450F76E1350F66EA68E96
:101AC000A69CA684A688F29E550EA76EAA0EA76EA7
:101AD000A6820000F28E0001400E1326000E142292
:101AE00015220A2E58EF0DF0120062EC03F00001EF
:101AF0001550F86E1450F76E1350F66EA68EA69C15
:101B0000A684A688F29E550EA76EAA0EA76EA68280
:101B1000F28E0A0000010E50E26E0D50E16E400E92
:101B20000B6EE6CFE8FFF56E0F000B2EFAD7A68EF0
:101B3000A69CA684F29E550EA76EAA0EA76EA6823C
:101B4000F28EA6940001400E1326000E14221522D8
:101B50000001400E0D26000E0E220A2E75EF0DF02C
:101B6000120000011550F86E1450F76E1350F66E07
:101B7000A68EA69CA684A688F29E550EA76EAA0ED7
:101B8000A76EA6820000F28E0A00080E0B6E0001FE
:101B90000E50E26E0D50E16E080E0C6EE6CFE8FFBF
:101BA000F56E0F000C2EFAD7A68EA69CA684F29E88
:101BB000550EA76EAA0EA76EA6820000F28E0B2EFF
:101BC000EBD7A6940001400E1326000E1422152216
:101BD0000001400E0D26000E0E220A2EB1EF0DF070
:101BE00012000F019A6A886A9396939A9398818655
:101BF000818A8188140E7CEC0CF003C5E8FFE81E96
:101C0000E86642EF0EF0390E95EC0EF0050E7CEC16
:101C10000CF0390E95EC0EF0010E7CEC0CF0390E48
:101C200095EC0EF0010E7CEC0CF0390E95EC0EF0FC
:101C30001C0E95EC0EF0520E95EC0EF0690E95EC24
:101C40000EF0740E95EC0EF00C0E95EC0EF0010EED
:101C500095EC0EF0060E95EC0EF0380E95EC0EF0AD
:101C6000400E95EC0EF0400EE8CF0AF0000EF86E34
:101C70001D0EF76EC20EF66E0AC0E8FF29EC0FF0DB
:101C800073EF0EF0380E95EC0EF0050E7CEC0CF0B8
:101C9000380E95EC0EF0010E7CEC0CF0380E95EC45
:101CA0000EF0010E7CEC0CF0380E95EC0EF0060EEA
:101CB00095EC0EF00C0E95EC0EF0010E95EC0EF07E
:101CC000800E95EC0EF0400E95EC0EF0400EE8CF35
:101CD0000AF0000EF86E1D0EF76EC20EF66E0AC008
:101CE000E8FF29EC0FF0800E95EC0EF0740EF76E05
:101CF000AC0EF66E26EC0FF0C00E95EC0EF0740EE6
:101D0000F76EBE0EF66E26EC0FF01200A4EC0EF08D
:101D1000C7EC0EF0818A81980000000081860000E7
:101D200000008196000000001200A4EC0EF0C7EC49
:101D30000EF0819A8198000000008186000000006A
:101D40008196000000001200ABEC0EF0D8B0A4EFBA
:101D50000EF09A6A12009A688188819A0000000049
:101D6000818600000000D890E8CF41F102C5E8FF6D
:101D7000E866C1EF0EF088BED880819641C1E8FFC9
:101D8000120088B0D880819641C1E8FF1200886EA9
:101D900002C5E8FFE81EE866120088CFE8FF886AFF
:101DA000E8B08888E8B2888AE8B4888CE8B6888E7B
:101DB000E8B88886E8BA8884E8BC8882E8BE88806B
:101DC00012001010101010101010181818181818F1
:101DD00018181C1C1C1C1C1C1C1C1E1E1E1E1E1E3F
:101DE0001E1E01010101010101010303030303039D
:101DF000030307070707070707070F0F0F0F0F0F4B
:101E00000F0F1F1F1F1F1F1F1F1F800E95EC0EF0AF
:101E10000DC0F6FF0EC0F7FFF86A26EC0FF01200B7
:101E2000C00E95EC0EF00DC0F6FF0EC0F7FFF86A7D
:101E300026EC0FF01200C00E95EC0EF0D4C0F6FFA9
:101E4000D5C0F7FFF86A26EC0FF01200100E29EF4C
:101E50000FF00A6E0900F5CFE8FFE812D8B41200BF
:101E600086EC0EF00A4E12002AEF0FF00A6E080EF2
:101E70000B6E300E0ABE310E86EC0EF00A360B2EBB
:101E800039EF0FF012000A6E3A0E0B6E0AC0E8FF2F
:101E9000F00BE842E842E842E84230090B64070FE1
:101EA00086EC0EF00AC0E8FF0F0B30090B64070F39
:101EB00086EC0EF00AC0E8FF1200A9EC0FF02550E6
:101EC00086EC0EF0265086EC0EF0275086EC0EF0D5
:101ED000285086EC0EF0295086EC0EF01200A9EC8A
:101EE0000FF062EF0FF0A9EC0FF065EF0FF0A9EC27
:101EF0000FF068EF0FF0A9EC0FF06BEF0FF0A9EC0B
:101F00000FF093EC0FF0255086EC0EF0265086EC87
:101F10000EF0275086EC0EF0285086EC0EF029507B
:101F200086EC0EF012000001300E25621200200E29
:101F3000256E300E26621200200E266E300E2762AD
:101F40001200200E276E300E28621200200E286E1E
:101F500012000001196A1A6A100E176E270E186E09
:101F60008BEC13F0300E1310256E1BC013F01CC049
:101F700014F01DC015F01EC016F0196A1A6AE80E9A
:101F8000176E030E186E8BEC13F0300E1310266EC6
:101F90001BC013F01CC014F01DC015F01EC016F0BD
:101FA000196A1A6A640E176E000E186E8BEC13F025
:101FB000300E1310276E1BC013F01CC014F01DC090
:101FC00015F01EC016F0196A1A6A0A0E176E000E76
:101FD000186E8BEC13F0300E1310286E300E1B10A1
:101FE000296E12000001310E3762FBEF0FF0A3ECF7
:101FF00022F025EF10F0320E376205EF10F000C22C
:10200000E8FF1EEC23F025EF10F0330E37620DEFE2
:1020100010F0B8EC22F025EF10F0340E376215EF17
:1020200010F000C2E8FF49EC23F0350E376225EFCF
:1020300010F00001FF0E0D6E030E0E6EE8CF0EF0D5
:10204000FF0EB6EC0CF025EF10F0376A12000F010E
:10205000ABA21200AB98AB880F01AE500001636BCE
:1020600012000F016BA212006B986B880F016E506B
:1020700012000C0EE8CFAFFF220EE8CFACFF900E9F
:10208000E8CFABFF0001636B9F9A9D8A1200ACA260
:1020900047EF10F0E8CFADFF1200D6C2E8FFE866C8
:1020A0000C0EE8CF6FFF7C96260EE8CF6CFF900EEB
:1020B000E8CF6BFFA59AA38A12006CA25DEF10F027
:1020C00012006CA261EF10F0E8CF6DFF1200E1CFBB
:1020D00021F0E2CF22F0000167C0E1FF000166C0FD
:1020E000E2FF6A6BACA272EF10F0E6CFE8FF0001EE
:1020F0006A27E8CFADFF0001682F72EF10F021C012
:10210000E1FF22C0E2FF1200E1CF21F0E2CF22F096
:10211000000167C0E1FF000166C0E2FF6A6B0001D9
:10212000050E606FE86A6065A3EF10F09EAA93EF5A
:1021300010F0AECFE8FFE8CFE6FF00016A2700010C
:10214000682F8FEF10F021C0E1FF22C0E2FF1200E4
:102150009EAA12000001000E6363BBEF10F0AECF29
:10216000E8FFE8CF64F0550E64631200280EE8CF54
:1021700061F0632B1200010E6363C5EF10F0AECF68
:10218000E8FFE8CF65F0632B1200020E6363CFEF28
:1021900010F0AECFE8FFE8CF66F0632B1200030E1D
:1021A0006363D9EF10F0AECFE8FFE8CF67F0632BA1
:1021B0001200040E6363E2EF10F0AECFE8FFE8CF49
:1021C00068F0632B050E6363EEEF10F0010E65639C
:1021D000ECEF10F084EC10F0632B1200060E63633A
:1021E00011EF11F0AECFE8FFE8CF69F0020E6563A2
:1021F00002EF11F067EC10F06AC0E8FF47EC10F056
:10220000636B12006AC0E8FF69630CEF11F00C0EFB
:1022100047EC10F0636B12000D0E47EC10F0636B8F
:102220001200636B1200A4AA12006ECFE8FF020135
:10223000A1B156EF11F0530AD8A412000201A0A1D7
:10224000120000010F0E7615100961EC10F075C038
:10225000E8FF61EC10F05DEC10F0050E77EC0CF08F
:1022600000010F0E7815200961EC10F0775161EC38
:1022700010F05DEC10F0050E77EC0CF000010F0E85
:102280007A15300961EC10F0795161EC10F05DECD9
:1022900010F0050E77EC0CF000010F0E7C154009D4
:1022A00061EC10F07B5161EC10F012000001AEB156
:1022B0005DEF11F0B06FAE2B1200AF6FAE2B020EC0
:1022C000AE6376EF11F0B051F00B100AD8A4BBEF5B
:1022D00011F00F0EB017B0A770EF11F0F00EB013A1
:1022E000AFC0B1F0B0C0B2F0BBEF11F0040EAE63FE
:1022F0008DEF11F0B051F00B200AD8A4BBEF11F014
:102300000F0EB017B0A787EF11F0F00EB013AFC0EB
:10231000B3F0B0C0B4F0BBEF11F0060EAE63A4EFA3
:1023200011F0B051F00B300AD8A4BBEF11F00F0E32
:10233000B017B0A79EEF11F0F00EB013AFC0B5F01C
:10234000B0C0B6F0BBEF11F0080EAE63BBEF11F0FA
:10235000B051F00B400AD8A4BBEF11F00F0EB0172C
:10236000B0A7B5EF11F0F00EB013AFC0B7F0B0C02A
:10237000B8F0BBEF11F01200D6C2E8FFE81EE86625
:102380001200AA0E61EC10F0AA0E61EC10F00A6ABD
:102390000B6A040EE26E000EE16E0AC0E8FFE3CFA6
:1023A0000DF0000EE26E3A0EE16E0DC0E8FFE80699
:1023B000D890E836E3CF0DF0E82AE3CF0EF0000125
:1023C0000E3AF00E0E160AC0E8FFE82A0E120E3A78
:1023D0000BC0E8FF0D240E24E8CF0BF00DC0E8FF82
:1023E00061EC10F00EC0E8FF61EC10F00A2A080E54
:1023F0000A6002EF12F0A2C2E8FFD890E8320A6445
:10240000C9EF11F00BC0E8FF61EC10F0ED0E61ECCC
:1024100010F0ED0E61EC10F012000001EF671BEF01
:1024200012F07E960C0E0F01AF6E220EAC6E900E67
:10243000E8CFABFF12007C960C0E0F016F6E220EE0
:102440006C6E900EE8CF6BFF12000001E80E0D26B7
:10245000030E0E220EAE32EF12F0E86AE8CF0DF056
:10246000E8CF0EF0780E0D5C070E0E58D8A03CEFAA
:1024700012F0EF0E43EF12F00E320D320E320D322B
:102480000E320D320D500001EF6761EF10F047EF93
:1024900010F000010EAE52EF12F0E86AE8CF0DF036
:1024A000E8CF0EF0BC0E0D5C030E0E58D8A03EEF28
:1024B00012F0EF0E43EF12F0F00E43EC12F0800E2C
:1024C00043EC12F075C00DF076C00EF025EC12F062
:1024D00077C00DF078C00EF025EC12F079C00DF049
:1024E0007AC00EF025EC12F07BC00DF07CC00EF02F
:1024F00049EC12F07DC00DF07EC00EF025EC12F01C
:102500007FC00DF080C00EF025EC12F0120098ECA8
:1025100012F010AE90EF12F00D50155E0E50165ADC
:102520000EAE97EF12F00F50155E1050165A1200B3
:102530000001136A146A156A166A0F500D02F3CF70
:1025400013F0F4CF14F00F500E02F3501426F45091
:102550001522D8B0162A10500D02F3501426F4504C
:102560001522D8B0162A10500E02F3501526F4503A
:10257000162212000001246A1B6A14501310D8B4EA
:10258000000C14501718E8BE241EAA6B000E17AEDC
:10259000CCEF12F0171E172A14AED3EF12F0131E51
:1025A000141E132A142214501710E8BE5FEF13F004
:1025B00017501B5E143614341B3617501B26143666
:1025C00014341B36175014B01B5E14A01B2614368F
:1025D00014341B36175014B01B5E14A01B2614367F
:1025E00014341B36175014B01B5E14A01B2614366F
:1025F00014341B36175014B01B5E14A01B2614365F
:1026000014341B36175014B01B5E14A01B2614364E
:1026100014341B36175014B01B5E14A01B2614363E
:1026200013341B36175014B01B5E14A01B26133630
:1026300013341B36175013B01B5E13A01B26133622
:1026400013341B36175013B01B5E13A01B26133612
:1026500013341B36175013B01B5E13A01B26133602
:1026600013341B36175013B01B5E13A01B261336F2
:1026700013341B36175013B01B5E13A01B261336E2
:1026800013341B36175013B01B5E13A01B261336D2
:1026900013341B36175013B01B5E13A01B261336C2
:1026A00013A01B26AAB17DEF13F024AE000C131E5D
:1026B000141EE86A132A14221B1E1B2A000C17AED4
:1026C00078EF13F014BE74EF13F0E8CFA3F01350BB
:1026D000E8CF1BF01B9E133614361450E8CF13F0CE
:1026E000A351146A55EF13F0136A132A146A000CED
:1026F000141E131EAA2BD8EF12F01B2A17501B62B0
:1027000055EF13F01B6A000E132A142214AE55EF76
:1027100013F02388FF0C0001246A1C6A1B6A155001
:1027200014101310D8B4000C15501818E8BE241E4D
:10273000AA6B000E18AEA1EF13F0171E181E172A71
:10274000182215AEAAEF13F0131E141E151E132A1D
:102750001422152215501810E8BE34EF15F017504A
:102760001B5E18501C5A153615341B361C36175074
:102770001B2618501C22153615341B361C361750D4
:1027800015A0C8EF13F01B5E18501C5ACBEF13F0C6
:102790001B2618501C22153615341B361C361750B4
:1027A00015A0D8EF13F01B5E18501C5ADBEF13F086
:1027B0001B2618501C22153615341B361C36175094
:1027C00015A0E8EF13F01B5E18501C5AEBEF13F046
:1027D0001B2618501C22153615341B361C36175074
:1027E00015A0F8EF13F01B5E18501C5AFBEF13F006
:1027F0001B2618501C22153615341B361C36175054
:1028000015A008EF14F01B5E18501C5A0BEF14F0C3
:102810001B2618501C22153615341B361C36175033
:1028200015A018EF14F01B5E18501C5A1BEF14F083
:102830001B2618501C22153614341B361C36175014
:1028400015A028EF14F01B5E18501C5A2BEF14F043
:102850001B2618501C22143614341B361C361750F5
:1028600014A038EF14F01B5E18501C5A3BEF14F004
:102870001B2618501C22143614341B361C361750D5
:1028800014A048EF14F01B5E18501C5A4BEF14F0C4
:102890001B2618501C22143614341B361C361750B5
:1028A00014A058EF14F01B5E18501C5A5BEF14F084
:1028B0001B2618501C22143614341B361C36175095
:1028C00014A068EF14F01B5E18501C5A6BEF14F044
:1028D0001B2618501C22143614341B361C36175075
:1028E00014A078EF14F01B5E18501C5A7BEF14F004
:1028F0001B2618501C22143614341B361C36175055
:1029000014A088EF14F01B5E18501C5A8BEF14F0C3
:102910001B2618501C22143614341B361C36175034
:1029200014A098EF14F01B5E18501C5A9BEF14F083
:102930001B2618501C22143613341B361C36175015
:1029400014A0A8EF14F01B5E18501C5AABEF14F043
:102950001B2618501C22133613341B361C361750F6
:1029600013A0B8EF14F01B5E18501C5ABBEF14F004
:102970001B2618501C22133613341B361C361750D6
:1029800013A0C8EF14F01B5E18501C5ACBEF14F0C4
:102990001B2618501C22133613341B361C361750B6
:1029A00013A0D8EF14F01B5E18501C5ADBEF14F084
:1029B0001B2618501C22133613341B361C36175096
:1029C00013A0E8EF14F01B5E18501C5AEBEF14F044
:1029D0001B2618501C22133613341B361C36175076
:1029E00013A0F8EF14F01B5E18501C5AFBEF14F004
:1029F0001B2618501C22133613341B361C36175056
:102A000013A008EF15F01B5E18501C5A0BEF15F0C1
:102A10001B2618501C22133613341B361C36175035
:102A200013A018EF15F01B5E18501C5A1BEF15F081
:102A30001B2618501C22133613B023EF15F0175025
:102A40001B2618501C22AAB158EF15F024AE000C1A
:102A5000131E141E151E000E132A142215221B1EEF
:102A60001C1E1B2A1C22000C18AE52EF15F015BEBE
:102A70004DEF15F0E8CFA3F01450E8CF1CF0135041
:102A8000E8CF1BF01C9E143615361550E8CF13F016
:102A9000A351156A146A26EF15F0136A132A146AF3
:102AA000156A000C151E141E131EAA2BAFEF13F08F
:102AB0001B2AE86A1C2217501B6226EF15F01850DB
:102AC0001C6226EF15F01C6A1B6A000E132A1422E2
:102AD000152215AE26EF15F02388FF0C00011E6AA3
:102AE0001D6A1C6A1B6A16341B361C361D361E36C0
:102AF00017501B5E18501C5A19501D5A1A501E5A56
:102B0000AA6BAA5B163616341B361C361D361E36CB
:102B1000AA37175016A098EF15F01B5E18501C5AD4
:102B200019501D5A1A501E5AE86AAA5BA1EF15F0F7
:102B30001B2618501C2219501D221A501E22E86A0A
:102B4000AA23163616341B361C361D361E36AA37F7
:102B5000175016A0B7EF15F01B5E18501C5A1950ED
:102B60001D5A1A501E5AE86AAA5BC0EF15F01B26C0
:102B700018501C2219501D221A501E22E86AAA233E
:102B8000163616341B361C361D361E36AA3717501D
:102B900016A0D6EF15F01B5E18501C5A19501D5A7E
:102BA0001A501E5AE86AAA5BDFEF15F01B26185070
:102BB0001C2219501D221A501E22E86AAA2316361A
:102BC00016341B361C361D361E36AA37175016A073
:102BD000F5EF15F01B5E18501C5A19501D5A1A506B
:102BE0001E5AE86AAA5BFEEF15F01B2618501C223D
:102BF00019501D221A501E22E86AAA2316361634CE
:102C00001B361C361D361E36AA37175016A014EF79
:102C100016F01B5E18501C5A19501D5A1A501E5A95
:102C2000E86AAA5B1DEF16F01B2618501C221950EB
:102C30001D221A501E22E86AAA23163616341B36A5
:102C40001C361D361E36AA37175016A033EF16F065
:102C50001B5E18501C5A19501D5A1A501E5AE86A09
:102C6000AA5B3CEF16F01B2618501C2219501D229F
:102C70001A501E22E86AAA23163616341B361C3652
:102C80001D361E36AA37175016A052EF16F01B5EDF
:102C900018501C5A19501D5A1A501E5AE86AAA5B3D
:102CA0005BEF16F01B2618501C2219501D221A50DB
:102CB0001E22E86AAA23163615341B361C361D362A
:102CC0001E36AA37175016A071EF16F01B5E18506B
:102CD0001C5A19501D5A1A501E5AE86AAA5B7AEFFC
:102CE00016F01B2618501C2219501D221A501E22A5
:102CF000E86AAA23153615341B361C361D361E36D7
:102D0000AA37175015A090EF16F01B5E18501C5AEA
:102D100019501D5A1A501E5AE86AAA5B99EF16F00C
:102D20001B2618501C2219501D221A501E22E86A18
:102D3000AA23153615341B361C361D361E36AA3707
:102D4000175015A0AFEF16F01B5E18501C5A195003
:102D50001D5A1A501E5AE86AAA5BB8EF16F01B26D5
:102D600018501C2219501D221A501E22E86AAA234C
:102D7000153615341B361C361D361E36AA3717502D
:102D800015A0CEEF16F01B5E18501C5A19501D5A94
:102D90001A501E5AE86AAA5BD7EF16F01B26185085
:102DA0001C2219501D221A501E22E86AAA23153629
:102DB00015341B361C361D361E36AA37175015A083
:102DC000EDEF16F01B5E18501C5A19501D5A1A5080
:102DD0001E5AE86AAA5BF6EF16F01B2618501C2252
:102DE00019501D221A501E22E86AAA2315361534DE
:102DF0001B361C361D361E36AA37175015A00CEF91
:102E000017F01B5E18501C5A19501D5A1A501E5AA2
:102E1000E86AAA5B15EF17F01B2618501C22195000
:102E20001D221A501E22E86AAA23153615341B36B5
:102E30001C361D361E36AA37175015A02BEF17F07B
:102E40001B5E18501C5A19501D5A1A501E5AE86A17
:102E5000AA5B34EF17F01B2618501C2219501D22B4
:102E60001A501E22E86AAA23153615341B361C3662
:102E70001D361E36AA37175015A04AEF17F01B5EF5
:102E800018501C5A19501D5A1A501E5AE86AAA5B4B
:102E900053EF17F01B2618501C2219501D221A50F0
:102EA0001E22E86AAA23153614341B361C361D363A
:102EB0001E36AA37175015A069EF17F01B5E185081
:102EC0001C5A19501D5A1A501E5AE86AAA5B72EF12
:102ED00017F01B2618501C2219501D221A501E22B2
:102EE000E86AAA23143614341B361C361D361E36E7
:102EF000AA37175014A088EF17F01B5E18501C5A01
:102F000019501D5A1A501E5AE86AAA5B91EF17F021
:102F10001B2618501C2219501D221A501E22E86A26
:102F2000AA23143614341B361C361D361E36AA3717
:102F3000175014A0A7EF17F01B5E18501C5A195019
:102F40001D5A1A501E5AE86AAA5BB0EF17F01B26EA
:102F500018501C2219501D221A501E22E86AAA235A
:102F6000143614341B361C361D361E36AA3717503D
:102F700014A0C6EF17F01B5E18501C5A19501D5AAA
:102F80001A501E5AE86AAA5BCFEF17F01B2618509A
:102F90001C2219501D221A501E22E86AAA23143638
:102FA00014341B361C361D361E36AA37175014A093
:102FB000E5EF17F01B5E18501C5A19501D5A1A5095
:102FC0001E5AE86AAA5BEEEF17F01B2618501C2267
:102FD00019501D221A501E22E86AAA2314361434EE
:102FE0001B361C361D361E36AA37175014A004EFA8
:102FF00018F01B5E18501C5A19501D5A1A501E5AB0
:10300000E86AAA5B0DEF18F01B2618501C22195015
:103010001D221A501E22E86AAA23143614341B36C5
:103020001C361D361E36AA37175014A023EF18F091
:103030001B5E18501C5A19501D5A1A501E5AE86A25
:10304000AA5B2CEF18F01B2618501C2219501D22C9
:103050001A501E22E86AAA23143614341B361C3672
:103060001D361E36AA37175014A042EF18F01B5E0B
:1030700018501C5A19501D5A1A501E5AE86AAA5B59
:103080004BEF18F01B2618501C2219501D221A5005
:103090001E22E86AAA23143613341B361C361D364A
:1030A0001E36AA37175014A061EF18F01B5E185097
:1030B0001C5A19501D5A1A501E5AE86AAA5B6AEF28
:1030C00018F01B2618501C2219501D221A501E22BF
:1030D000E86AAA23133613341B361C361D361E36F7
:1030E000AA37175013A080EF18F01B5E18501C5A17
:1030F00019501D5A1A501E5AE86AAA5B89EF18F037
:103100001B2618501C2219501D221A501E22E86A34
:10311000AA23133613341B361C361D361E36AA3727
:10312000175013A09FEF18F01B5E18501C5A19502F
:103130001D5A1A501E5AE86AAA5BA8EF18F01B26FF
:1031400018501C2219501D221A501E22E86AAA2368
:10315000133613341B361C361D361E36AA3717504D
:1031600013A0BEEF18F01B5E18501C5A19501D5AC0
:103170001A501E5AE86AAA5BC7EF18F01B261850AF
:103180001C2219501D221A501E22E86AAA23133647
:1031900013341B361C361D361E36AA37175013A0A3
:1031A000DDEF18F01B5E18501C5A19501D5A1A50AA
:1031B0001E5AE86AAA5BE6EF18F01B2618501C227C
:1031C00019501D221A501E22E86AAA2313361334FE
:1031D0001B361C361D361E36AA37175013A0FCEFBF
:1031E00018F01B5E18501C5A19501D5A1A501E5ABE
:1031F000E86AAA5B05EF19F01B2618501C2219502B
:103200001D221A501E22E86AAA23133613341B36D5
:103210001C361D361E36AA37175013A01BEF19F0A7
:103220001B5E18501C5A19501D5A1A501E5AE86A33
:10323000AA5B24EF19F01B2618501C2219501D22DE
:103240001A501E22E86AAA23133613341B361C3682
:103250001D361E36AA37175013A03AEF19F01B5E21
:1032600018501C5A19501D5A1A501E5AE86AAA5B67
:1032700043EF19F01B2618501C2219501D221A501A
:103280001E22E86AAA23133613B04FEF19F0175025
:103290001B2618501C2219501D221A501E22000CE9
:1032A0004C20202041696C65726F6E2020202052D6
:1032B00055202020456C657661746F722020204473
:1032C0004C202020205275646465722020202052FA
:1032D0004C2020205468726F74746C652020204844
:1032E000412020202020434820352020202020423B
:1032F0005520202020204348203620202020204414
:103300005520202020204348203720202020204402
:103310004320202020204348203820202020204106
:103320000001A00E0D6E320E0E6E5EC1E8FF070B9F
:10333000E83A00010D26D8B00E2A05EC0FF00F0177
:10334000750EE16E000EE26E5EC1E8FF070BE84607
:10335000E126D8B0E22AE650E8CF0DF0E650E8CFFB
:103360000EF0E1CFE8FF7D0AD8A4BBEF19F0B0EC76
:1033700053F0BFEF19F0D2EC52F037EC53F091EC70
:1033800022F00101D8B05E2B070E5E1712000F016C
:10339000D89083B6D880D8B0D3EF19F00A0E7CEC61
:1033A0000CF00F01D89083B6D880D8B049EF1AF04E
:1033B0000F01D89084B2D880D8B0E4EF19F00A0E8B
:1033C0007CEC0CF00F01D89084B2D880D8B049EFD3
:1033D0001AF00001D2670BEF1AF00001D269030165
:1033E00032C30DF033C30EF00001E80E0F6E030E72
:1033F000106E87EC12F014C01CF115C01DF1030112
:10340000345101011C270301355101011D2334C32F
:103410001AF135C31BF176EC2FF0D8B01CEF1AF07F
:10342000D8A423EF1AF001011A07D8A01B071A0726
:10343000D8A01B0723EF1AF001011A2BD8B41B2BBD
:103440001A2BD8B41B2B1CC10DF01DC10EF00101AD
:103450001A5100010D5E01011B5100010E5A0001BD
:10346000000E0F6E010E106E87EC12F00001E80ED8
:10347000176E030E186E8BEC13F013C032F314C0EA
:1034800033F31AC134F31BC135F39CEC1DF0D8841F
:1034900012000001D2674FEF1AF0D8941200D26BDD
:1034A00093EC23F0D894120000016B51E8CF0DF09B
:1034B0006C51E8CF0EF06F510D5E70510E5AD8A0CE
:1034C00071EF1AF06D51E8CF0FF06E51E8CF10F0A8
:1034D00087EC12F01450E8CF73F01550E8CF74F079
:1034E00012007151E8CF0FF07251E8CF10F087EC65
:1034F00012F01450E8CF73F01550E8CF74F01200BA
:103500006BC00DF06CC00EF06F510D5E70510E5A15
:103510006DC00FF06EC010F087EC12F01450E8CFC1
:1035200073F01550E8CF74F012000001750EBB6FF8
:10353000000EBC6F0001750EB96F000EBA6F080E59
:10354000E8CFBAF0260EBD6F7CEC27F0040E54ECE9
:1035500009F015C26DF016C26EF017C26FF018C2F6
:1035600070F019C271F01AC272F054EC1AF073C004
:1035700034F174C035F173C075F074C076F0050E87
:1035800054EC09F01BC26DF01CC26EF01DC26FF04E
:103590001EC270F01FC271F020C272F054EC1AF01B
:1035A00073C036F174C037F173C077F074C078F02F
:1035B000060E54EC09F021C26DF022C26EF023C257
:1035C0006FF024C270F025C271F026C272F054EC84
:1035D0001AF073C038F174C039F173C079F074C057
:1035E0007AF0070E54EC09F0070E54EC09F027C2EC
:1035F0006DF028C26EF029C26FF02AC270F080EC24
:103600001AF073C03AF174C03BF173C07BF074C020
:103610007CF073C027F474C028F4030E54EC09F056
:1036200000010F01C3CFE8FFE8CF8DF0C4CFE8FF62
:10363000E8CF8EF0080E54EC09F02DC26FF02EC2C8
:1036400070F02BC26DF02CC26EF080EC1AF073C0DB
:1036500085F074C086F0090E54EC09F031C26FF0A9
:1036600032C270F02FC26DF030C26EF080EC1AF0F2
:1036700073C087F074C088F00A0E54EC09F035C2AC
:103680006FF036C270F033C26DF034C26EF080EC71
:103690001AF073C089F074C08AF00B0E54EC09F074
:1036A00039C26FF03AC270F037C26DF038C26EF0B6
:1036B00080EC1AF073C08BF074C08CF00301B5512C
:1036C000A4EC28F0D8A06CEF1BF00001E80E7D6F91
:1036D000030E7E6F71EF1BF00001180E7D6FFC0E64
:1036E0007E6F000E54EC09F03BC26DF03CC26EF0F0
:1036F0003DC26FF03EC270F080EC1AF073C07FF0F4
:1037000074C080F0010E54EC09F03FC26DF040C26D
:103710006EF041C26FF042C270F080EC1AF073C0DC
:1037200081F074C082F00301B751A4EC28F0D8A056
:10373000A1EF1BF00001E80E836F030E846FBBEF57
:103740001BF00301B951A4EC28F0D8A0AFEF1BF097
:103750000001180E836FFC0E846FBBEF1BF003019A
:10376000B851A4EC28F0D8A0BBEF1BF00001000E6C
:10377000836F000E846F12000001106A0FBE101ECE
:1037800087EC12F00001640E176E000E186E8BECC1
:1037900013F013C011F014C012F013C00FF014C0D6
:1037A00010F00EAED9EF1BF00F1E101E0F2AD8B06E
:1037B000102A87EC12F000010A0E176E000E186E28
:1037C0008BEC13F00B50E8CF17F0186A17BE181ED9
:1037D0008BEC13F011500D5E12500E5A13500D2643
:1037E00014500E2212000301AE51A4EC28F075C053
:1037F0000DF076C00EF0D8A009EF1CF003011B51AC
:103800000001E8CF0FF003011751E8CF0BF011EFE3
:103810001CF003011A510001E8CF0FF0640EE8CF4D
:103820000BF0BCEC1BF00DC075F00EC076F0030180
:10383000AF51A4EC28F077C00DF078C00EF0D8A0FE
:103840002DEF1CF0030126510001E8CF0FF003011A
:103850002251E8CF0BF035EF1CF003012551000198
:10386000E8CF0FF0640EE8CF0BF0BCEC1BF00DC0FE
:1038700077F00EC078F00301B051A4EC28F079C0C5
:103880000DF07AC00EF0D8A051EF1CF003013151B9
:103890000001E8CF0FF003012D51E8CF0BF059EFF5
:1038A0001CF0030130510001E8CF0FF0640EE8CFA7
:1038B0000BF0BCEC1BF00DC079F00EC07AF01200DA
:1038C0000301AE51A4EC28F0D8A07FEF1CF075C026
:1038D0000FF076C010F017C30DF018C30EF00E6A8B
:1038E0000DBE0E1E87EC12F00001640E176E000E66
:1038F000186E8BEC13F013C075F014C076F0030152
:10390000AF51A4EC28F0D8A09EEF1CF077C00FF0C8
:1039100078C010F022C30DF023C30EF00E6A0DBE66
:103920000E1E87EC12F00001640E176E000E186E6A
:103930008BEC13F013C077F014C078F00301B05192
:10394000A4EC28F0D8A0BDEF1CF079C00FF07AC02D
:1039500010F02DC30DF02EC30EF00E6A0DBE0E1E1C
:1039600087EC12F00001640E176E000E186E8BECDF
:1039700013F013C079F014C07AF0120057C1E8FFB9
:10398000E81EE8661200E86AE8CF57F1030E00016E
:103990005F6E030E0FEC0BF01200D3C2E8FFE81EBF
:1039A000E86621EF1DF080C50FF081C510F002011F
:1039B000B2519FEC01F00FC00DF010C00EF04BC1E2
:1039C0000FF04CC110F06BEC1DF0E868D8B0E8CFF8
:1039D00057F10FC04BF110C04CF182C50FF083C5F9
:1039E00010F00201B3519FEC01F00FC00DF010C0B8
:1039F0000EF04DC10FF04EC110F06BEC1DF0E868F9
:103A0000D8B0E8CF57F10FC04DF110C04EF184C5CA
:103A10000FF085C510F00201B4519FEC01F00FC00A
:103A20000DF010C00EF04FC10FF050C110F06BEC54
:103A30001DF0E868D8B0E8CF57F10FC04FF110C0C3
:103A400050F1D7C2E8FFE81EE86641EF1DF086C5D9
:103A50000FF087C510F00201B5519FEC01F00FC0C7
:103A60000DF010C00EF051C10FF052C110F06BEC10
:103A70001DF0E868D8B0E8CF57F10FC051F110C081
:103A800052F1D8C2E8FFE81EE86612007FC00DF0D0
:103A900080C00EF053C10FF054C110F06BEC1DF05C
:103AA000E868D8B0E8CF57F10FC053F110C054F117
:103AB00081C00DF082C00EF055C10FF056C110F05C
:103AC0006BEC1DF0E868D8B0E8CF57F10FC055F1A6
:103AD00010C056F112000DC011F00EC012F000011E
:103AE0000FC0E8FF115E10C0E8FF125A12AE7EEF61
:103AF0001DF0111E121E112AD8B4122AD8901232AB
:103B00001132D89012321132D89012321132D8902C
:103B100012321132D8901232113211C0E8FF121253
:103B2000D890D8B412000EC0E8FF1018E8360DC0C7
:103B30000FF00EC010F0120080C50FF081C510F01C
:103B40000201B2519FEC01F00301A75100010F26C1
:103B50000301A8510001102218C30DF019C30EF083
:103B600000010E6AFF0E0DBE0E6E87EC12F0000112
:103B7000640E176E186A196A1A6A8BEC13F000014A
:103B80000301195100010D6E0E6A0DBE0E1E0D3699
:103B90000E360D5013260E50142213507527145054
:103BA000762382C50FF083C510F00201B3519FEC5C
:103BB00001F00301A95100010F260301AA510001E0
:103BC000102223C30DF024C30EF000010E6AFF0E75
:103BD0000DBE0E6E87EC12F00001640E176E186AAF
:103BE000196A1A6A8BEC13F00001030124510001D9
:103BF0000D6E0E6A0DBE0E1E0D360E360D501326BE
:103C00000E501422135077271450782384C50FF0D8
:103C100085C510F00201B4519FEC01F00301AB51D6
:103C200000010F260301AC51000110222EC30DF03C
:103C30002FC30EF000010E6AFF0E0DBE0E6E87EC54
:103C400012F00001640E176E186A196A1A6A8BEC7A
:103C500013F0000103012F5100010D6E0E6A0DBE1D
:103C60000E1E0D360E360D5013260E501422135014
:103C7000792714507A2386C50FF087C510F002010A
:103C8000B5519FEC01F036C30DF037C30EF00001C3
:103C90000E6AFF0E0DBE0E6E87EC12F00001640E70
:103CA000176E186A196A1A6A8BEC13F00301010E79
:103CB000376372EF1EF00001030E0E6E186EE80EF1
:103CC0000D6E176E7B510D5E7C510E5A196A1A6A81
:103CD00013C00FF014C010F087EC12F08BEC13F04F
:103CE0008CEF1EF0020E37638CEF1EF000017B514B
:103CF0000D6E7C510E6E13C00FF014C010F087ECE7
:103D000012F00001030EE8CF18F0E80EE8CF17F02C
:103D1000196A1A6A8BEC13F0000113507B271450B8
:103D20007C23120000010E6A08C40DF00DBE0E685F
:103D300000010A0E0F6E000E106E87EC12F0135089
:103D400075271450762300010E6A09C40DF00DBECC
:103D50000E6800010A0E0F6E000E106E87EC12F056
:103D6000135077271450782300010E6A0AC40DF00F
:103D70000DBE0E6800010A0E0F6E000E106E87EC6D
:103D800012F01350792714507A2300010E6A0BC4E5
:103D90000DF00DBE0E6800010A0E0F6E000E106EC3
:103DA00087EC12F013507B2714507C2300010E6A1D
:103DB0000CC40DF00DBE0E6800010A0E0F6E000E51
:103DC000106E87EC12F013507D2714507E230001F3
:103DD0000E6A0DC40DF00DBE0E6800010A0E0F6EC6
:103DE000000E106E87EC12F013507F2714508023C2
:103DF00000010E6A0EC40DF00DBE0E6800010A0E21
:103E00000F6E000E106E87EC12F0135081271450C5
:103E1000822300010E6A0FC40DF00DBE0E68000172
:103E20000A0E0F6E000E106E87EC12F013508327EF
:103E300014508423120000010A0E0D6E000E0E6E47
:103E40000301BB51A4EC28F0D8A06CEF1FF00301D4
:103E50004DAF39EF1FF04CC30FF0106A0FBE106862
:103E600087EC12F0000113C0E8FF752714C0E8FFCB
:103E7000762303014FAF4BEF1FF04EC30FF0106AD4
:103E80000FBE106887EC12F0000113C0E8FF77271F
:103E900014C0E8FF7823030151AF5DEF1FF050C35A
:103EA0000FF0106A0FBE106887EC12F0000113C00B
:103EB000E8FF792714C0E8FF7A23030153AF6CEFC2
:103EC0001FF052C30FF0106A0FBE106887EC12F09B
:103ED00013C07BF014C07CF00301BC51A4EC28F0AB
:103EE000D8A0AFEF1FF0030155AF82EF1FF054C30E
:103EF0000FF0106A0FBE106887EC12F013C075F057
:103F000014C076F0030157AF91EF1FF056C30FF0C6
:103F1000106A0FBE106887EC12F013C077F014C05F
:103F200078F0030159AFA0EF1FF058C30FF0106AEB
:103F30000FBE106887EC12F013C079F014C07AF04D
:103F400003015BAFAFEF1FF05AC30FF0106A0FBE53
:103F5000106887EC12F013C07BF014C07CF00001F5
:103F60007CAF1200E86A7B6F7C6F120090C0E8FFA4
:103F7000C00A32E07DC00DF07EC00EF000018FC09F
:103F8000E8FF0D5E90C0E8FF0E5A0EBEDAEF1FF09C
:103F900019C4E8FF0D5E1AC4E8FF0E5A0EBEECEF1E
:103FA0001FF0000119C4E8FF8F271AC4E8FF90230F
:103FB000F0EF1FF019C4E8FF0D261AC4E8FF0E2227
:103FC0000EAEECEF1FF0000119C4E8FF8F5F1AC4BA
:103FD000E8FF905BF0EF1FF07DC08FF07EC090F0A7
:103FE00092C0E8FFC00A32E083C00DF084C00EF03A
:103FF000000191C0E8FF0D5E92C0E8FF0E5A0EBEB0
:1040000014EF20F01BC4E8FF0D5E1CC4E8FF0E5A3D
:104010000EBE26EF20F000011BC4E8FF91271CC450
:10402000E8FF92232AEF20F01BC4E8FF0D261CC4F2
:10403000E8FF0E220EAE26EF20F000011BC4E8FFC1
:10404000915F1CC4E8FF925B2AEF20F083C091F0DF
:1040500084C092F012000201A1B112000301B65116
:10406000A4EC28F0D8A0120000016267120002013F
:104070009F510001626F0201010EB66349EF20F00B
:10408000010E00015F6E050E0FEC0BF0280E000113
:10409000626F75C00DF076C00EF0ECEC20F0D8A485
:1040A0007FEF20F00201B66758EF20F002019E5129
:1040B000000176BF66EF20F00301192719AF70EFFA
:1040C00020F0D8A670EF20F073EF20F00301195F05
:1040D00019BF70EF20F0D8A670EF20F078EF20F035
:1040E00019BF78EF20F0640E1961196F7DEF20F091
:1040F000640EE81EE82A1965196F93EC23F077C067
:104100000DF078C00EF0ECEC20F0D8A4B5EF20F064
:104110000201B6678EEF20F002019E51000178BFC8
:104120009CEF20F00301242724AFA6EF20F0D8A6AF
:10413000A6EF20F0A9EF20F00301245F24BFA6EF33
:1041400020F0D8A6A6EF20F0AEEF20F024BFAEEF0F
:1041500020F0640E2461246FB3EF20F0640EE81E9B
:10416000E82A2465246F93EC23F079C00DF07AC01F
:104170000EF0ECEC20F0D8A4EBEF20F00201B667D3
:10418000C4EF20F002019E5100017ABFD2EF20F06F
:1041900003012F272FAFDCEF20F0D8A6DCEF20F0B3
:1041A000DFEF20F003012F5F2FBFDCEF20F0D8A658
:1041B000DCEF20F0E4EF20F02FBFE4EF20F0640EFE
:1041C0002F612F6FE9EF20F0640EE81EE82A2F65BB
:1041D0002F6F93EC23F0120000010EAEF5EF20F0EC
:1041E0000D1E0E1E0D2AD8B00E2AD8900E320D329A
:1041F0000E66FFEF20F0640E0D6404EF21F0000165
:10420000640E0D6E000E0E6E0D50E832E8321F0B7C
:10421000D8740DC0E8FF12000001C36B000176BF27
:104220001EEF21F011C30DF012C30EF075C00FF098
:1042300076C010F087EC12F028EF21F015C30DF0D6
:1042400016C30EF075C00FF076C010F087EC12F0B8
:1042500013C30DF014C30EF0000114500D261550B9
:104260000E2272EC22F00DC03EF00EC03FF00001B5
:1042700078BF47EF21F01CC30DF01DC30EF077C0CF
:104280000FF078C010F087EC12F051EF21F020C34E
:104290000DF021C30EF077C00FF078C010F087EC5E
:1042A00012F01EC30DF01FC30EF0000114500D26B6
:1042B00015500E2272EC22F00DC03CF00EC03DF005
:1042C00000017ABF70EF21F027C30DF028C30EF074
:1042D00079C00FF07AC010F087EC12F07AEF21F07D
:1042E0002BC30DF02CC30EF079C00FF07AC010F084
:1042F00087EC12F029C30DF02AC30EF00001145010
:104300000D2615500E2272EC22F00DC040F00EC0AA
:1043100041F032C30DF033C30EF07BC00FF07CC010
:1043200010F087EC12F034C30DF035C30EF000012D
:1043300014500D2615500E2272EC22F00DC042F0E2
:104340000EC043F03AC30DF03BC30EF08FC00FF028
:1043500090C010F087EC12F03CC30DF03DC30EF09E
:10436000000114500D2615500E2272EC22F00DC0E3
:1043700044F00EC045F0E2EF21F0000180BFCDEF28
:1043800021F01CC30DF01DC30EF07FC00FF080C0E4
:1043900010F087EC12F0D7EF21F020C30DF021C30D
:1043A0000EF07FC00FF080C010F087EC12F01EC33B
:1043B0000DF01FC30EF0000114500D2615500E22F3
:1043C000F5EF21F03EC30DF03FC30EF07FC00FF0BC
:1043D00080C010F087EC12F040C30DF041C30EF026
:1043E000000114500D2615500E2272EC22F00DC063
:1043F00046F00EC047F022EF22F0000182BF0DEF21
:1044000022F011C30DF012C30EF081C00FF082C074
:1044100010F087EC12F017EF22F015C30DF016C361
:104420000EF081C00FF082C010F087EC12F013C3C1
:104430000DF014C30EF0000114500D2615500E227D
:1044400035EF22F042C30DF043C30EF081C00FF0F0
:1044500082C010F087EC12F044C30DF045C30EF09B
:10446000000114500D2615500E2272EC22F00DC0E2
:1044700048F00EC049F091C00DF092C00EF00EBE93
:104480004AEF22F046C30FF047C310F087EC12F05A
:1044900050EF22F04AC30FF04BC310F087EC12F03C
:1044A00048C30DF049C30EF00D5014260E501522CE
:1044B00014C00DF015C00EF072EC22F00DC04AF0E1
:1044C0000EC04BF00001D26771EF22F00301B15131
:1044D000A4EC28F0D8A071EF22F038C342F039C321
:1044E00043F012000201AE5100010D5C0201AF5118
:1044F00000010E58E8AE82EF22F0AEC20DF0AFC25E
:104500000EF012000201B05100010D5C0201B15128
:1045100000010E58E8BE1200B0C20DF0B1C20EF09C
:1045200012000001FAA5A1EF22F0FA9535A4A1EF3F
:1045300022F03594010E5F6E050E0FEC0BF0D88063
:104540001200D89012000001000E0D6E020E0E6EC9
:104550000001000E136E000E146E010E156EE86A57
:104560000A6E41EC0DF0020100510001AB6F120028
:104570000001000E0D6E020E0E6E0001000E136E95
:10458000000E146E010E156E040E0A6E75EC0DF021
:104590001200E846E8060B6E0001000E0D6E030ED9
:1045A0000E6E0001000E136E000E146E010E156EDD
:1045B0000B501426E86A1522100E0A6E41EC0DF01D
:1045C0001200E846E8060B6E0001000E0D6E080EA4
:1045D0000E6E0001000E136E000E146E010E156EAD
:1045E0000B501426E86A1522400E0A6E41EC0DF0BD
:1045F0000001000EBB6F030EBC6F0001000EB96F0F
:10460000030EBA6F0001080EBA6F100EBD6F7CEC7E
:1046100027F00001000E0D6E080E0E6E0001000E58
:10462000136E000E146E010E156E0B501426E86A00
:104630001522010E0A6E75EC0DF01200E846E80630
:104640000B6E0001000E0D6E030E0E6E0001000ECB
:10465000136E000E146E010E156E0B501426E86AD0
:1046600015220A6E41EC0DF00001000E0D6E040ED5
:104670000E6E0001000E136E000E146E010E156E0C
:104680000B50E82A1426E86A15220A6E41EC0DF058
:104690001200E846E8060C6E0001000E0D6E030ED7
:1046A0000E6E0001000E136E000E146E010E156EDC
:1046B0000C501426E86A1522040E0A6E75EC0DF0F3
:1046C0000001000E0D6E040E0E6E0001000E136E42
:1046D000000E146E010E156E0C50E82A1426E86ABE
:1046E0001522040E0A6E75EC0DF012000001000E8A
:1046F000BB6F030EBC6F0001000EB96F060EBA6FE0
:10470000000EBD6F7CEC27F00001000EBB6F040EA5
:10471000BC6F0001000EB96F070EBA6F000EBD6FBF
:104720007CEC27F0120002010051E846E8060A6E10
:104730000001000E0D6E030E0E6E0001000E136ED2
:10474000000E146E010E156E0A501426E86A15222A
:10475000010E0A6E75EC0DF0120075C093F076C074
:1047600094F077C095F078C096F079C097F07AC051
:1047700098F07BC099F07CC09AF08FC09BF090C0FD
:104780009CF07FC09DF080C09EF081C09FF082C0F1
:10479000A0F091C0A1F092C0A2F01200ADEC23F005
:1047A0000301B251A4EC28F0D8A0E9EF23F0030EE6
:1047B000E26E5C0EE16E9CEC26F0610EE16E9CEC0C
:1047C00026F0660EE16E9CEC26F06B0EE16E9CEC22
:1047D00026F0ADEC23F00301B351A4EC28F0D8A0EF
:1047E0000AEF24F0030EE26E700EE16E9CEC26F0F0
:1047F000ADEC23F0750EE16E9CEC26F0ADEC23F0F1
:104800007A0EE16E9CEC26F0ADEC23F07F0EE16EAB
:104810009CEC26F0ADEC23F00301B451A4EC28F09D
:10482000D8A025EF24F0030EE26E840EE16E9CEC1E
:1048300026F0890EE16E9CEC26F08E0EE16E9CEC6B
:1048400026F0930EE16E9CEC26F0120093C00DF062
:1048500094C00EF010C40FF000010EBE11C40FF092
:10486000106A0FBE106887EC12F00001640E176E1C
:10487000000E186E8BEC13F0000113C0E8FF9727B1
:1048800014C0E8FF982397C00DF098C00EF012C432
:104890000FF000010EBE13C40FF0106A0FBE1068B7
:1048A00087EC12F00001640E176E000E186E8BEC90
:1048B00013F0000113C0E8FF932714C0E8FF94230E
:1048C00097C00DF098C00EF014C40FF000010EBE9A
:1048D00015C40FF0106A0FBE106887EC12F00001CB
:1048E000640E176E000E186E8BEC13F0000113C0EF
:1048F000E8FF952714C0E8FF962399C00DF09AC0F1
:104900000EF016C40FF000010EBE106A0FBE106844
:1049100087EC12F00001640E176E000E186E8BEC1F
:1049200013F0000113C0E8FF952714C0E8FF962399
:1049300093C075F094C076F095C077F096C078F08B
:1049400097C079F098C07AF099C07BF09AC07CF05B
:10495000040117A1B0EF24F095C07FF096C080F05D
:10496000030198A1CDEF24F095C00DF096C00EF094
:1049700097C00FF098C010F000010DC077F00EC086
:1049800078F00DC079F00EC07AF00F5079271050F2
:104990007A230F50775F1050785B030199A1EAEFFB
:1049A00024F095C00DF096C00EF093C00FF094C0A7
:1049B00010F000010DC077F00EC078F00DC075F05A
:1049C0000EC076F00F507527105076230F50775F8A
:1049D0001050785B03019AA18AEF25F093C00DF087
:1049E00094C00EF00DC075F00EC076F00DC081F0D1
:1049F0000EC082F00001811F821F814B822B0001BB
:104A0000640E176E000E186E03019C51E812D8B4A4
:104A100053EF25F0E8BE31EF25F0640800010F6E7A
:104A2000106A76BF22EF25F075C00DF076C00EF04B
:104A300087EC12F08BEC13F013C075F014C076F015
:104A400053EF25F0000181C00DF082C00EF087EC1D
:104A500012F08BEC13F013C081F014C082F053EF0E
:104A600025F0640F00010F6E106A76AF46EF25F057
:104A700075C00DF076C00EF087EC12F08BEC13F0E1
:104A800013C075F014C076F053EF25F0000181C01B
:104A90000DF082C00EF087EC12F08BEC13F013C017
:104AA00081F014C082F00001640E176E000E186EC3
:104AB0000301C651E812D8B470EF25F00301C551C7
:104AC000A4EC28F0D8A08AEF25F00001E80E0D6EC6
:104AD000030E0E6E99510D5E9A510E5A74EF25F029
:104AE0009FC00DF0A0C00EF09DC30FF000010EBEE0
:104AF0009BC30FF0106A0FBE101E87EC12F08BECF8
:104B000013F013507527145076230001135081279A
:104B10001450822312000301A4A11200ADEC23F073
:104B200026EC24F012000301A4B19BEF25F0ADECBC
:104B300023F026EC24F00301A0A1C8EF25F0030127
:104B4000C351A4EC28F0D8A0AAEF25F00301A1518D
:104B5000B3EF25F00301C451A4EC28F0D8A0C8EFAE
:104B600025F00301A25100010D6E0E6A00010A0E2C
:104B70000F6E000E106E87EC12F013507B5D145018
:104B80007C59E8AEC8EF25F013C07BF014C07CF070
:104B900012001DC4E8FFE812D8B4120075C00DF071
:104BA00076C00EF077C00FF078C010F07FC075F0BF
:104BB00080C076F07FC077F080C078F000010DC033
:104BC000E8FF75270EC0E8FF76230DC0E8FF7F5F82
:104BD0000EC0E8FF805B0FC0E8FF772710C0E8FF3A
:104BE00078231DC4E8FF0308D8B412000001D89050
:104BF00010BED88010320F3200010FC0E8FF7F5F77
:104C000010C0E8FF805B0FC0E8FF755F10C0E8FFD1
:104C1000765B1DC4E8FF0108D8B4120000010FC084
:104C2000E8FF7F5F10C0E8FF805B0FC0E8FF755FA3
:104C300010C0E8FF765B12000BC0E8FFF00BD8B4A1
:104C400012000DC06BF00EC06CF00EAE2DEF26F012
:104C50000D1E0E1E0D2AD8B00E2A0DC013F00EC068
:104C600014F0640E176EBAEC12F000011C6A090E03
:104C7000136045EF26F00BC0E8FFE83AE8060F0B9B
:104C8000E8B662EF26F057EF26F0136E0DC01BF06A
:104C90000EC01CF0840E00011B5E030E1C5A0BC0DC
:104CA000E8FFE83AE8060F0BE8B662EF26F00B0DD6
:104CB000F350460F1324E8CFD9FF020EE8CFDAFFF6
:104CC0006CEF26F0E8960B0DF350DA0F1324E8CFC3
:104CD000D9FF030EE8CFDAFFDECF0AF0DFCF0BF00B
:104CE00000010BC00DF00AC0E8FF0D5E0E6A0DBE9C
:104CF0000E681BC00FF01CC010F087EC12F00A0EFB
:104D0000176EBAEC12F00A500A0D0A0E0ABEF45ED3
:104D1000F3CFE8FF1326F4CFE8FF142213C00DF001
:104D200014C00EF000016CAF120000010D1E0E1E2B
:104D30000D2AD8B00E2A1200E650E8CF0BF0E81288
:104D4000D8B4120080EC02F01CEC26F00DC011F07B
:104D50000EC012F0E6CF0AF0E6CFE8FF0001E8CF80
:104D60000DF00E6A0DBE0E1E00010A0E0F6E000E33
:104D7000106E87EC12F011C00DF012C00EF013503F
:104D80000D5E14500E5A0EBEFBEF26F0E6CFE8FF84
:104D900000010AACE4EF26F0E8CF13F0E9CF14F0FD
:104DA0000DC011F00EC012F0135080EC02F00DC0D7
:104DB00013F00EC014F00A0E176EBAEC12F011C008
:104DC0000DF012C00EF013500F6E106A0FBE101EC1
:104DD00087EC12F00001640E176E000E186E196A4F
:104DE0001A6A8BEC13F013C00DF014C00EF00A50C9
:104DF00000EC03F01200E6CFE8FFE6CFE8FF000189
:104E00000AAA19EF27F0E8CF13F00DC011F00EC079
:104E100012F0135080EC02F00DC013F00EC014F02D
:104E20000A0E176EBAEC12F011C00DF012C00EF09F
:104E300013500F6E106A0FBE101E87EC12F00001A7
:104E4000640E176E000E186E196A1A6A8BEC13F056
:104E500013C00DF014C00EF00A5000EC03F0120065
:104E60000001BD0EBB6F030EBC6F0001120EB96FC7
:104E7000010EBA6F050EBD6F7CEC27F0D90EE8CF9E
:104E8000D9FF060EE8CFDAFF060EE8CF0CF0DDCF33
:104E9000E8FFE812D8B454EF27F0DFCFE8FFA4EC26
:104EA00028F0D8B060EF27F0DDCFE8FF0C2E47EFF9
:104EB00027F0ABC0E8FF0201006369EF27F01200A2
:104EC000DECFE8FFDECFE8FF0201006369EF27F0E5
:104ED0001200E8CF00F21EEC23F00001120EBB6FAF
:104EE000010EBC6F0001BD0EB96F030EBA6F050E47
:104EF000BD6F7CEC27F012000001BB51E16EBC518C
:104F0000E26E0001B951D96EBA51DA6EE6CFE8FF10
:104F1000E8CFDEFF0001BD2F86EF27F01200000171
:104F2000C56B0301AE51A4EC28F00001D8B0C581D7
:104F30000301AF51A4EC28F00001D8B0C5830301F0
:104F4000B051A4EC28F00001D8B0C5850301B151DF
:104F5000A4EC28F00001D8B0C5870301B651A4EC39
:104F600028F00001D8B0C5890301BB51A4EC28F09A
:104F70000001D8B0C58B0301BC51A4EC28F000019E
:104F8000D8B0C58D1200C00E95EC0EF00301AE51E5
:104F9000A4EC28F00001E86AE880C515D8A0DFEF8E
:104FA00027F0D8A4F0EF27F0C571000EF86E760E4A
:104FB000F76E1A0EF66E26EC0FF0A1EF28F0D8B0BF
:104FC000F0EF27F0D8B4F0EF27F0C571000EF86EBF
:104FD000760EF76E080EF66E26EC0FF0A1EF28F0B5
:104FE0000301AF51A4EC28F00001E86AE882C5157E
:104FF000D8A009EF28F0D8A41AEF28F0C573000E46
:10500000F86E760EF76E3E0EF66E26EC0FF0A1EF00
:1050100028F0D8B01AEF28F0D8B41AEF28F0C573EA
:10502000000EF86E760EF76E2C0EF66E26EC0FF074
:10503000A1EF28F00301B051A4EC28F00001E86AC8
:10504000E884C515D8A033EF28F0D8A444EF28F0A1
:10505000C575000EF86E760EF76E620EF66E26ECD3
:105060000FF0A1EF28F0D8B044EF28F0D8B444EF07
:1050700028F0C575000EF86E760EF76E500EF66EBF
:1050800026EC0FF0A1EF28F00301B151A4EC28F0B9
:105090000001D8A05AEF28F0C5B75BEF28F0C5771C
:1050A000000EF86E760EF76EAA0EF66E26EC0FF076
:1050B000A1EF28F0C5970301B651A4EC28F0000138
:1050C000D8A071EF28F0C5B972EF28F0C579000EAD
:1050D000F86E760EF76E980EF66E26EC0FF0A1EFD6
:1050E00028F0C5990301BB51A4EC28F00001D8A019
:1050F00088EF28F0C5BB89EF28F0C57B000EF86E5D
:10510000760EF76E740EF66E26EC0FF0A1EF28F017
:10511000C59B0301BC51A4EC28F00001D8A09FEF6F
:1051200028F0C5BDA0EF28F0C57D000EF86E760E04
:10513000F76E860EF66E26EC0FF0A1EF28F0C59DF7
:105140001200500EA96F1200E8AADCEF28F0E8A8C0
:10515000DCEF28F00A6E070BC90FE16E030EE26E5A
:10516000E65000010D6E0E6AE8BE0E6800010A0EE0
:105170000F6E000E106E87EC12F00A50070BE84617
:10518000340FE16E010EE26EE6CF0DF0E6CF0EF0C9
:1051900000010EAED0EF28F00D1E0E1E0D4A0E2A95
:1051A0000DC0E8FF135E0EC0E8FF1458E836D87053
:1051B0000ABE1200D8701200D890E8BA1200D88047
:1051C000E8B8120000011F6E206AE8BC2080070BBF
:1051D000E82AD8802036E82EEAEF28F030501FB6B3
:1051E00033502014D8802062D8901FBED87012008F
:1051F000040126A1120004012D51A4EC28F0D8A02E
:105200001AEF29F004012E5100010D6E0E6A000103
:105210000A0E0F6E000E106E87EC12F013C07BF0BA
:1052200014C07CF013C03AF114C03BF113C027F452
:1052300014C028F436C30DF037C30EF000010E6A17
:10524000FF0E0DBE0E6E7FC00FF080C010F087EC19
:1052500012F00001640E176E186A196A1A6A8BEC54
:1052600013F027C40DF028C40EF0000113C0E8FFAE
:105270000D2614C0E8FF0E220DC027F40EC028F43E
:105280004BEC29F07BC027F47CC028F477EC29F0A4
:1052900099EC29F012002CC40BF032C4E8FFA4EC06
:1052A00028F0D8B035C40BF036C4E8FFA4EC28F0E1
:1052B000D8B039C40BF02DC4E8FFA4EC28F0D8B066
:1052C00031C40BF027C40DF028C40EF01CEC26F0FE
:1052D000040129B172EF29F000010D1E0E1E0D2AE6
:1052E000D8B40E2A0DC07FF00EC080F012002BC47F
:1052F0000BF032C4E8FFA4EC28F0D8B034C40BF0B3
:1053000036C4E8FFA4EC28F0D8B038C40BF02DC4A4
:10531000E8FFA4EC28F0D8B030C40BF027C40DF09F
:1053200028C40EF01CEC26F00DC07BF00EC07CF003
:1053300012002AC40BF032C4E8FFA4EC28F0D8B065
:1053400033C40BF036C4E8FFA4EC28F0D8B037C45F
:105350000BF02DC4E8FFA4EC28F0D8B02FC40BF05C
:105360000BC0E8FFCE0FE8CF0DF000010E6A0DBEB6
:105370000E680001140E0F6E000E106E87EC12F016
:1053800013C07DF014C07EF01200040126A11200AB
:10539000CE0E95EC0EF02DC4E8FFA4EC28F0D8B0AA
:1053A000E1EF29F036C4E8FFA4EC28F0D8B0F3EF21
:1053B00029F032C4E8FFA4EC28F0D8B0EAEF29F0D5
:1053C0001200000EF86E530EF76EF80EF66E26EC15
:1053D0000FF01200000EF86E530EF76EFC0EF66E14
:1053E00026EC0FF01200000EF86E540EF76E000E51
:1053F000F66E26EC0FF01200544800005331000006
:1054000053320000040ED56E1200D59E1200D890C3
:1054100087B21200D880D5BE1200C9C00DF0CAC034
:105420000EF000013C0E0F6E000E106E98EC12F0A4
:1054300013C00DF014C00EF00001240E0F6EF40E18
:10544000106E98EC12F0C7C017F0C8C018F0000139
:10545000000E196E000E1A6E6EEC15F0A5C317F053
:10546000A6C318F00001186A8BEC13F0C00E95EC7F
:105470000EF0000EF86E750EF76E780EF66E26ECD6
:105480000FF0CB0E95EC0EF07FEC0FF0A5C313F0F0
:10549000A6C314F0146AC00E95EC0EF07BEC0FF06E
:1054A0000001000EC96F000ECA6FD8801200000103
:1054B000020E36621200000133A01200FC6A85EF72
:1054C00005F070EC2AF0D8A01200FC6AB8EC22F0CB
:1054D00000C2E8FF49EC23F076EC23F085EF05F0FD
:1054E000000130B67AEF2AF032A67AEF2AF032962F
:1054F000D8801200D89012000001760E0E6ECE0EEB
:105500000D6EC3EC2AF005EC0FF00001115080EC99
:1055100001F012001EC10DF01FC10EF005EC0FF0DE
:1055200012000001F651D8B41200E1CF3EF1E2CFF3
:105530003FF195EC1AF00001000E756F000E766FCA
:105540000001000E776F000E786F60EC1CF0F3EC3A
:105550001BF01BEC1FF02BEC20F09CEC1DF08BECF7
:1055600025F0CEEC23F093EC25F092EC1EF00CEC41
:1055700021F0F2EC0FF03EC1E1FF3FC1E2FF12006B
:105580000001F669120057EC2AF00001D36BE16BC1
:10559000F16BF26BC00E95EC0EF00DC0F6FF0EC075
:1055A000F7FFF86A0DC00FF00EC010F026EC0FF0F8
:1055B000FA0E7CEC0CF050EC2FF0D8A4E6EF2AF0B9
:1055C000110E0D26D8B00E2AEDEF2AF0D8A0FAEF72
:1055D0002AF0130E0D26D8B00E2A0DC0F6FF0EC00D
:1055E000F7FFF86A0900F5CF0DF00900F5CF0EF0CE
:1055F000CAEF2AF061EC2AF091EC22F0D8A0CAEFB1
:105600002AF0150E0D26D8B00E2A0DC0F6FF0EC0DA
:10561000F7FFF86A0900F5CF11F00900F5CF12F095
:105620000FC00DF010C00EF00900F5CF0FF009000B
:10563000F5CF10F00900F5CFD4F00900F5CFD5F083
:105640000001BF6BC06BC1697F0EE8CFC2F012AC26
:1056500036EF2BF00900F5CFBFF00900F5CFC0F011
:105660000900F5CFC1F00900F5CFC2F012A43FEF59
:105670002BF00900F5CFF1F00900F5CFF2F012A2FE
:1056800048EF2BF00900F5CFF3F00900F5CFF4F067
:1056900012AE4DEF2BF005EC0FF012A652EF2BF0EF
:1056A0001BEC0FF012A212000001E86AE8CFFBFF2A
:1056B000F4C0E8FFE8CFFAFFF3C0E8FFF96EE8CFE7
:1056C0000AF00FC01BF010C01CF00FC0F6FF10C096
:1056D000F7FFF86A150EF626D8B0F72A0900F5CFBD
:1056E000E8FF0A6275EF2BF012000FC0F6FF10C042
:1056F000F7FF110EF626D8B0F72A0900F5CF0FF004
:105700000900F5CF10F00FC0E8FF1B6265EF2BF02A
:1057100010C0E8FF1C6265EF2BF012000001105072
:105720000F10D8B41200E86AFB6E1050E8CFFAFFF1
:105730000F50F96E00010F50E16E1050E26E000143
:10574000000E1162B8EF2BF00FC0F6FF10C0F7FF8C
:10575000F86A160EF626D8B0F72AD4C0E1FFD5C0F5
:10576000E2FFE7CFE8FF5FEC2BF0BDEC2EF012007C
:10577000010E1162C2EF2BF0250EE8CF40F193EC41
:105780002DF01200020E1162ECEF2BF0000112A0BE
:10579000CDEF2BF0D4510001BE6FE6CF0AF0E5CF7C
:1057A0000BF000010AC011F00BC012F0129E129C07
:1057B000F0EC2DF000010FC0E1FF10C0E2FF11C0BE
:1057C0000AF012C00BF00AC0E6FFE7CFE8FFC00BFB
:1057D0000B120BC0E5FF1200030E116201EF2CF05B
:1057E000E7CFE8FFE836E4EC2CF0000ED8B0E81E76
:1057F0000A6E00010FC0E1FF10C0E2FF0AC0E7FF20
:105800001200040E116212EF2CF0E7CFE8FF04EC57
:105810002FF00A6E00010FC0E1FF10C0E2FF0AC0C6
:10582000E7FF1200050E116224EF2CF0E7CFE8FF2E
:1058300039EC2DF0E8CF0AF000010FC0E1FF10C0F5
:10584000E2FF0AC0E7FF1200060E11623AEF2CF0E9
:10585000E7CF0AF00FC0D4F010C0D5F00001E80E79
:105860000F6E8B0E106E0AC0E8FF5FEC2BF0BDECE4
:105870002EF01200070E116241EF2CF08EEC2BF08F
:105880001200080E116252EF2CF0E7CFE8FF33EC64
:105890002DF0E8CF0AF000010FC0E1FF10C0E2FFD9
:1058A0000AC0E7FF0A0E116273EF2CF0E7CFE8FFA2
:1058B0000001D415D890D8B4D880E4EC2CF00001C5
:1058C000D4C00AF000010FC0E1FF10C0E2FFD8B061
:1058D0006EEF2CF00AC0E8FFE71212000AC0E8FFE2
:1058E000E81EE71612000B0E11627DEF2CF0200E61
:1058F000E8CF40F193EC2DF012000C0E11629AEFFC
:105900002CF0E6CF0AF0E5CF0BF000010AC011F051
:105910000BC012F071EC2EF000010FC0E1FF10C0BF
:10592000E2FF11C00AF012C00BF00AC0E6FF0BC084
:10593000E5FF120012000B6AD8B00B1EC00E95ECEA
:105940000EF0000EF86E750EF76E180EF66E26EC61
:105950000FF00BA0C0EF2CF0C80E95EC0EF0280E47
:1059600086EC0EF0CC0E95EC0EF0290E86EC0EF0C7
:10597000CF0E95EC0EF0200E86EC0EF0D2EF2CF050
:10598000C80E95EC0EF0200E86EC0EF0CC0E95ECC9
:105990000EF0280E86EC0EF0CF0E95EC0EF0290ED0
:1059A00086EC0EF050EC2FF0D8B40B6AFF0ED8B096
:1059B0000B6E61EC2AF091EC22F0D8A0A9EF2CF04C
:1059C000D8900BB0D88012000B6AD8B00B1EC80E4E
:1059D00095EC0EF0000EF86E750EF76E560EF66E24
:1059E00026EC0FF00BA009EF2DF0C80E95EC0EF091
:1059F000280E86EC0EF0CC0E95EC0EF0290E86ECFF
:105A00000EF0CF0E95EC0EF0200E86EC0EF01BEF94
:105A10002DF0C80E95EC0EF0200E86EC0EF0CC0E9C
:105A200095EC0EF0280E86EC0EF0CF0E95EC0EF0F5
:105A3000290E86EC0EF050EC2FF0D8B40B6AFF0E56
:105A4000D8B00B6E61EC2AF091EC22F0D8A0F2EF06
:105A50002CF0D8900BB0D88012000001C165C15164
:105A6000BF61BF5112000001EE690001A36F3DEF5D
:105A70002DF00001A36F0001EE6B960E7CEC0CF094
:105A8000A3C0E8FF0001136E146A156A166AA9EC38
:105A90000FF00001EE675BEF2DF0CD0E95EC0EF0F0
:105AA000275086EC0EF0285086EC0EF0295086EC3C
:105AB0000EF06AEF2DF0CC0E95EC0EF0275086EC30
:105AC0000EF0285086EC0EF02E0E86EC0EF02950CB
:105AD00086EC0EF076EC2FF00001D8A47BEF2DF0D1
:105AE000A32BC1C0E8FFA361A36FA36788EF2DF0CC
:105AF000A36F88EF2DF0D8A088EF2DF0A3C0E8FFAA
:105B0000BF6188EF2DF0A307BFC0E8FFA365A36FB7
:105B100061EC2AF091EC22F0D8A03DEF2DF00001CD
:105B2000A3C0E8FF120091EC2AF0F7C0E8FF7F085D
:105B3000E8BEE86AE846E8667CEC0CF0E7CFE8FFF0
:105B4000E7BEE81EE7BEE82A0001136E146A156A74
:105B5000166AA9EC0FF0CB0E95EC0EF0200EE7BE06
:105B60002D0E86EC0EF0275086EC0EF0285086ECB9
:105B70000EF0295086EC0EF040C1E8FF86EC0EF0E6
:105B800076EC2FF00001D8A4C9EF2DF0E72ACDEF75
:105B90002DF0D8A0CDEF2DF0E70661EC2AF091ECC6
:105BA00022F0D8A093EF2DF00001F66B1200000157
:105BB0001150C15D1250C259D8B0E4EF2DF0C1515F
:105BC000116EC251126E1200BF51115CC0511258B9
:105BD000D8B0EFEF2DF0BF51116EC051126E120010
:105BE000D7EC2DF00001C46B0001BE51E812D8B40F
:105BF00002EF2EF0BE51E16E000EE26E11C0E6FF24
:105C000012C0E7FFF7C0E8FF7F08E8BEE86AE84691
:105C1000E8667CEC0CF011C013F012C014F0D890C0
:105C200014321332156A166AA9EC0FF0C90E95ECFE
:105C30000EF0265086EC0EF02E0E86EC0EF027505D
:105C400086EC0EF0285086EC0EF0295086EC0EF013
:105C50006D0E86EC0EF0530E86EC0EF076EC2FF007
:105C60000001D8A443EF2EF0112AD8B4122A112A29
:105C7000D8B4122AC2511262F0EF2DF0C151116056
:105C8000116EF0EF2DF0D8A055EF2EF01106D8A030
:105C900012061106D8A01206C0511262F0EF2DF0C4
:105CA000BF511164116EF0EF2DF0000133A2C469F1
:105CB00033BC60EF2EF00001A00E116E0F0E126EBD
:105CC000000133BE69EF2EF00001D00E116E070EF9
:105CD000126E61EC2AF091EC22F0D8A0F4EF2DF0D6
:105CE0001200F7C0E8FF7F08E8BEE86AE846E86609
:105CF0007CEC0CF011C013F012C014F0156A166A97
:105D0000A9EC0FF0CB0E95EC0EF0255086EC0EF0C2
:105D1000265086EC0EF0275086EC0EF0285086ECCC
:105D20000EF0295086EC0EF076EC2FF00001D8A48E
:105D3000A6EF2EF0112AD8B4122AC251126271EFC6
:105D40002EF0C1511160116E71EF2EF0D8A0B5EF99
:105D50002EF01106D8A01206C051126271EF2EF07B
:105D6000BF511164116E71EF2EF061EC2AF091ECCD
:105D700022F0D8A071EF2EF01200C00E95EC0EF0BC
:105D80000FC0F6FF10C0F7FF26EC0FF0FA0E7CEC08
:105D90000CF076EC2FF0D8A4D4EF2EF0110E0F26D5
:105DA000D8B0102ADBEF2EF0D8A0E8EF2EF0130EBB
:105DB0000F26D8B0102A0FC0F6FF10C0F7FFF86A00
:105DC0000900F5CF0FF00900F5CF10F0BDEF2EF070
:105DD00061EC2AF091EC22F0D8A0BDEF2EF0150E68
:105DE0000F26D8B0102A0FC0F6FF10C0F7FFF86AD0
:105DF0000900F5CF0AF00900F550D4C0E1FFD5C085
:105E0000E2FF0AC0E7FF12000F0BE8B6080B0C0D0B
:105E1000F3CF13F0F4CF14F000019C0E1326820E82
:105E20001422CC0E95EC0EF013C0F6FF14C0F7FF51
:105E300026EC0FF0FA0E7CEC0CF076EC2FF0D8A4E8
:105E400028EF2FF0050E1326D8B0142A2FEF2FF0CD
:105E5000D8A03CEF2FF0070E1326D8B0142A13C099
