:020000040000FA
:100000000CD0D9D0E3D001D0FFD0040EA66EDED83C
:10001000A6B2FED71200FFFFFFD004008450030BEE
:1000200006E0A66AA968AA68A680A83CE9D0949CC4
:10003000900EAB6E260EAC6E0F0ED56ED76AD66ADA
:10004000BFD8D58EBDD8D59ED6CF03F0D7CF02F07E
:10005000050E02320332E82EFCD7D8A0030603C0F7
:10006000AFFFA1D80F0AFDE19ED80F0AFAE100EE1A
:1000700008F0006A016A97D80F0AF6E00450040AF3
:100080000AE00450050A01E18ED804500026EE6E05
:10009000014EE7D7F0D70052E4E10A50F66EA96EA0
:1000A0000B50F76EAA6E0CC0F8FF00EE0DF0095071
:1000B000016ED8B4FF0008500708D3E3FA6AFB6A60
:1000C0000844F92607D00CD013D022D02CD036D03B
:1000D00007D03CD0040E0A6E000E0B6E030E40D00B
:1000E0000900F5CFEEFF012EFBD70950050F38D0E0
:1000F000F80EF616080EEECFF5FF0D00E82EFBD732
:100100000A00840EA66E62D80900012EF1D727D00E
:10011000940EA66E5BD8400EF626E86AF722F82207
:10012000012EF6D71CD0A66AA680A8CFEEFFA94A5A
:10013000AA2A012EF8D70950050F12D0EECFA8FF3A
:1001400064DFA94AAA2A012EF9D709D0C40EA66EE7
:10015000EECFF5FF0D003AD8012EF8D700D0010EF2
:10016000016E0F0E1BD81AD8006A00EE08F0EE5090
:10017000002608D8012EFBD7006C005003D8040ECF
:100180000DD86FD7056E0F0A06E00550040A03E08C
:100190000550050A02E1050E01D8055004009EA88D
:1001A000FED7AD6E12000400ABB2FF009EAAFED7D0
:1001B000AE50046E1200A968AA68A86826DFFF0086
:1001C00082BEFED7040082AEFED712000400550E98
:1001D000A76EAA0EA76EA68200001200FFFFFFFF07
:1001E000FFFFFFFFFFFFFFFFFFFFFFFFFFFFFFFF1F
:1001F000FFFFFFFFFFFFFFFFFFFFFFFFFFFFFFFF0F
:100200006BEF03F0FFFFFFFF0EEF01F0FFFFFFFFBB
:10021000FFFFFFFFFFFFFFFF2DEF01F0D8CF01F041
:10022000E0CF02F0006EF3CF03F0F4CF04F0F0ACB7
:100230001DEF01F0F0B085EC0BF0A2A023EF01F070
:10024000A1B030EC09F003C0F3FF04C0F4FF00508C
:1002500002C0E0FF01C0D8FF1000D8CF06F0E8CF01
:1002600005F0E0CF07F0F3CF08F0F4CF09F0F0BCD1
:100270003DEF01F0F0B085EC0BF0A2B043EF01F0E0
:10028000A1B030EC09F0A2B04CEF01F0AECFE8FF26
:100290006ECFE8FF52EF01F09EBAD5EC0EF0A4BA93
:1002A00040EC0FF008C0F3FF09C0F4FF07C0E0FF07
:1002B00005C0E8FF06C0D8FF1000FFFFFFFFFFFFEB
:1002C000FFFFFFFFFFFFFFFFFFFFFFFFFFFFFFFF3E
:1002D000FFFFFFFFFFFFFFFFFFFFFFFFFFFFFFFF2E
:1002E000FFFFFFFFFFFFFFFFFFFFFFFFFFFFFFFF1E
:1002F000FFFFFFFFFFFFFFFFFFFFFFFFFFFFFFFF0E
:10030000F95000011150F926ADEF29F0AFEF29F0B7
:10031000BCEF29F0D1EF29F0DFEF29F0EDEF29F064
:10032000FBEF29F009EF2AF019EF2AF027EF2AF066
:1003300035EF2AF012000009D8A4A5EF01F0000162
:10034000000E0F6E000E106E1200E806030B0A0D71
:10035000F9CFE8FFF350F92683C00FF084C010F006
:10036000120085C00FF086C010F0120087C00FF099
:1003700088C010F0120089C00FF08AC010F012007F
:10038000FFFFFFFFFFFFFFFFFFFFFFFFFFFFFFFF7D
:10039000FFFFFFFFFFFFFFFFFFFFFFFFFFFFFFFF6D
:1003A000FFFFFFFFFFFFFFFFFFFFFFFFFFFFFFFF5D
:1003B000FFFFFFFFFFFFFFFFFFFFFFFFFFFFFFFF4D
:1003C000FFFFFFFFFFFFFFFFFFFFFFFFFFFFFFFF3D
:1003D000FFFFFFFFFFFFFFFFFFFFFFFFFFFFFFFF2D
:1003E000FFFFFFFFFFFFFFFFFFFFFFFFFFFFFFFF1D
:1003F000FFFFFFFFFFFFFFFFFFFFFFFFFFFFFFFF0D
:10040000EFCFE8FFE806070B0A0DF9CFE8FFF3503E
:10041000F9263CC04EF03DC04FF012003AC04EF0FD
:100420003BC04FF012003EC04EF03FC04FF01200F4
:1004300040C04EF041C04FF0120042C04EF043C0E9
:100440004FF0120044C04EF045C04FF0120046C0BD
:100450004EF047C04FF0120048C04EF049C04FF078
:1004600012000F0B060DF9CFE8FFF350F926BBC2BF
:10047000E8FF1200BCC2E8FF1200BDC2E8FF120094
:10048000BEC2E8FF1200BFC2E8FF1200C0C2E8FF10
:100490001200C1C2E8FF1200C2C2E8FF1200C3C2CC
:1004A000E8FF1200C4C2E8FF1200C5C2E8FF120054
:1004B000C6C2E8FF1200C7C2E8FF1200C8C2E8FFC8
:1004C0001200C9C2E8FF1200CAC2E8FF1200FFFF13
:1004D000FFFFFFFFFFFFFFFFFFFFFFFFFFFFFFFF2C
:1004E000FFFFFFFFFFFFFFFFFFFFFFFFFFFFFFFF1C
:1004F000FFFFFFFFFFFFFFFFFFFFFFFFFFFFFFFF0C
:100500000001E806070B0A0DF9CFE8FFF350F926C2
:100510008D510D6E8E510E6E12008F510D6E9051D9
:100520000E6E120091510D6E92510E6E120093518B
:100530000D6E94510E6E120095510D6E96510E6E09
:10054000120097510D6E98510E6E120099510D6E5A
:100550009A510E6E12009B510D6E9C510E6E120040
:10056000FFFFFFFFFFFFFFFFFFFFFFFFFFFFFFFF9B
:10057000FFFFFFFFFFFFFFFFFFFFFFFFFFFFFFFF8B
:10058000FFFFFFFFFFFFFFFFFFFFFFFFFFFFFFFF7B
:10059000FFFFFFFFFFFFFFFFFFFFFFFFFFFFFFFF6B
:1005A000FFFFFFFFFFFFFFFFFFFFFFFFFFFFFFFF5B
:1005B000FFFFFFFFFFFFFFFFFFFFFFFFFFFFFFFF4B
:1005C000FFFFFFFFFFFFFFFFFFFFFFFFFFFFFFFF3B
:1005D000FFFFFFFFFFFFFFFFFFFFFFFFFFFFFFFF2B
:1005E000FFFFFFFFFFFFFFFFFFFFFFFFFFFFFFFF1B
:1005F000FFFFFFFFFFFFFFFFFFFFFFFFFFFFFFFF0B
:100600000001E8BE33EF03F0E806070B0A0DF9CF4F
:10061000E8FFF350F9260D5073270E507423120093
:100620000D5075270E50762312000D5077270E506F
:10063000782312000D5079270E507A2312000D50A6
:100640007B270E507C2312000D507D270E507E23F9
:1006500012000D507F270E50802312000D5081276D
:100660000E5082231200E806070B0A0DF9CFE8FFAF
:10067000F350F9260D50736F0E50746F12000D5029
:10068000756F0E50766F12000D50776F0E50786FA9
:1006900012000D50796F0E507A6F12000D507B6F63
:1006A0000E507C6F12000D507D6F0E507E6F120049
:1006B0000D507F6F0E50806F12000D50816F0E50E5
:1006C000826F1200F2AE12000001010EA16FA1674D
:1006D00067EF03F012009288939C819C00015B6A93
:1006E0005C6A0001546A640EBCEC0BF00F0183508D
:1006F000306E316E326E0F018450336E346E356E53
:100700000F0199908780949693948296819400012A
:10071000000E176E000E186E0001000E196E000E0E
:100720001A6E0001000E1B6E000E1C6E0001000E02
:100730001D6E000E1E6E0001000E136E000E146E74
:100740000001000E156E000E166E0001000EAB6F5C
:10075000000EAC6F0001000EAD6F000EAE6F000119
:10076000000EAF6F000EB06F0001000EB16F000EF3
:10077000B26F00015E6A5F6A606BA16BA26BA36BD4
:10078000E769E96B0201BA6B0101116B0001CC6BE7
:1007900017EC32F0020100510001A56F040EABEC22
:1007A00008F0040EABEC08F00001C350C56FC45054
:1007B000C66F050EABEC08F0050EABEC08F00001BF
:1007C000C350C76FC450C86F000EE8CF0DF0E86A81
:1007D000E8CF0EF0C7EC0BF0E8CF00F5010EE8CF44
:1007E0000DF0E86AE8CF0EF0C7EC0BF0E8CF01F5AA
:1007F000DFEC0CF0FA0EBCEC0BF0FA0EBCEC0BF0DC
:10080000FA0EBCEC0BF0FA0EBCEC0BF0E0EC08F0CE
:100810008FEC24F06EEC0EF082EC0EF0F28EF28C87
:10082000D08E0F01D89083B6D880D8B01DEF04F0D9
:100830000A0EBCEC0BF00F01D89083B6D880D8B06C
:1008400033EF04F00F01D89084B2D880D8B02EEFE7
:1008500004F00A0EBCEC0BF00F01D89084B2D880E3
:10086000D8A055EF04F05BEC1EF00201A50EA763C3
:1008700040EF04F0E70EA86340EF04F044EF04F00B
:1008800017EC32F0E8EC0BF000C2E8FFD6EC1EF0FB
:100890000301AD510201A56F08EC0BF083EC0AF0E7
:1008A0000101F20E066FC0EC0AF00F01D89084B27D
:1008B000D880D8A055EF04F00A0EBCEC0BF00F0165
:1008C000D89084B2D880D8A055EF04F08098D2C2D6
:1008D000E8FFE8666DEF04F080889298040EABECB8
:1008E00008F0040EABEC08F00001C350C56FC45013
:1008F000C66F050EABEC08F0050EABEC08F000017E
:10090000C350C76FC450C86F0F01D89084B4D8804B
:10091000D8B090EF04F00A0EBCEC0BF00F01D890A9
:1009200084B4D880D8B0A6EF04F00F01D89083B675
:10093000D880D8B0A1EF04F00A0EBCEC0BF00F0188
:10094000D89083B6D880D8A0D3EF07F00201A0C218
:100950000AF00201FF0E0AB0A56FA56113EF05F0C2
:100960000301A6A1F3EF04F00F0183BEF3EF04F03F
:10097000B00E22EC0DF0000EF86E650EF76E9E0EB6
:10098000F66E4EEC0DF0C00E22EC0DF0000EF86E7F
:10099000650EF76E440EF66E4EEC0DF00F01D8901A
:1009A00084B4D880D8B0DAEF04F00A0EBCEC0BF0B7
:1009B0000F01D89084B4D880D8B0CEEF04F00F01E6
:1009C000D89084B4D880D8A0DFEF04F00A0EBCEC35
:1009D0000BF00F01D89084B4D880D8A0DFEF04F0DA
:1009E000C80EBCEC0BF00201D1B1FAEF04F0D1A3B8
:1009F00013EF05F0B00E00019D6F2EEC31F0D89092
:100A0000FEEC26F0D8B00AEF05F00201FF0EA56F4C
:100A100013EF05F008EC0BF083EC0AF0C0EC0AF0E1
:100A20000A0EBCEC0BF00001010E366EA3C252F0B0
:100A3000A4C253F00201A25100014D6E32EC23F02A
:100A40002EEC1FF0FCAE28EF05F00F01939481947B
:100A5000000133B048EF05F0010E3662AEEF05F04D
:100A60000001050EE8CF5DF0070E4FEC0AF0020E14
:100A7000366E0001A5510201006341EF05F0AEEFB3
:100A800005F0006FD6EC1EF02EEC1FF0AEEF05F077
:100A9000010E366ED3EC22F0C6EC17F058EC07F0DE
:100AA0000201A1A179EF05F00301B65147EC24F052
:100AB000D8A079EF05F00201B76771EF05F0ABC080
:100AC00073F0ACC074F0ADC075F0AEC076F0AFC0DE
:100AD00077F0B0C078F0B1C079F0B2C07AF079EFB9
:100AE00005F0F08CF086A290E868E8CFEEF07FEF9A
:100AF00005F0F09CF086A280E86AE8CFEEF00201F3
:100B0000A0B19EEF05F0F8EC16F0D8B49EEF05F01A
:100B100085EC19F018EC19F052EC1BF0E4EC1BF02A
:100B2000E3EC19F068EC21F086EC1FF070EC21F09A
:100B3000C9EC1AF00001E96705EC10F062EC03F073
:100B4000C5EC1CF027EC0EF00001A267ACEF05F03D
:100B50000A0EA26FF6EC05F022EF05F0B00E22ECC3
:100B60000DF0000EF86E660EF76ED00EF66E4EECBF
:100B70000DF0C00E22EC0DF0000EF86E650EF76E53
:100B8000440EF66E4EEC0DF04AEC1EF0D8A0CBEF02
:100B900005F009EC25F0C6EC17F085EC19F018EC1F
:100BA00019F052EC1BF0E4EC1BF0E3EC19F068ECEC
:100BB00021F086EC1FF070EC21F0C9EC1AF0C5ECC6
:100BC0001CF027EC0EF022EF05F00001100E0B6E6A
:100BD000C00E22EC0DF0000EE16E030EE26EE65048
:100BE00017EC0DF00B2EEFEF05F012000001B40E24
:100BF00022EC0DF0200E17EC0DF00201520EA5BFF5
:100C0000200E000117EC0DF00601CE5147EC24F048
:100C1000410ED8A0200E17EC0DF00301B25147ECA5
:100C200024F04D0ED8B02D0E17EC0DF00301B3518A
:100C300047EC24F04D0ED8B02D0E17EC0DF003014B
:100C4000B45147EC24F04D0ED8B02D0E17EC0DF03A
:100C5000200E17EC0DF0B00E22EC0DF0B9C20DF025
:100C6000BAC20EF00E6A0001640E0F6E000E106E16
:100C700030EC10F013C011F014C012F08BC00DF066
:100C80008CC00EF013C20FF014C210F030EC10F054
:100C90001450E8CF13F01550E8CF14F0156A010195
:100CA00011B163EF06F000011150135C125014589B
:100CB000E8AE63EF06F0C90E00015D6E050E4FEC65
:100CC0000AF0010111690001DEEC0DF0200EE8CF01
:100CD0000AF0300E25640AC025F0255017EC0DF0FF
:100CE000265017EC0DF02E0E17EC0DF0275017ECD8
:100CF0000DF00301B65147EC24F0D8A089EF06F0BF
:100D0000B00E22EC0DF000C513F001C514F0B4ECE8
:100D10000DF00201B8AFA2EF06F0B86B000EE8CFFD
:100D20000DF0E86AE8CF0EF000C5E8FFD2EC0BF05A
:100D3000010EE8CF0DF0E86AE8CF0EF001C5E8FF3C
:100D4000D2EC0BF081EC07F0D8B0CCEF06F092ECCF
:100D500007F0D8B0CCEF06F094EC24F0D8B0CCEF8C
:100D600006F066EC23F00001A351E812D8A4CCEF02
:100D700006F00201A0A1CAEF06F0C00E22EC0DF0B1
:100D8000000EF86E650EF76E5E0EF66E4EEC0DF010
:100D9000CCEF06F0E5EC05F0000133B4E7EF06F028
:100DA00035A4E7EF06F03594010E5D6E050E4FECAD
:100DB0000AF000015466E6EF06F0542ABEC358F06C
:100DC000BFC359F0CA6BCB6BE7EF06F054060001C6
:100DD00054A01AEF07F059661AEF07F03B0E5A625B
:100DE000F9EF06F0050E5D6E0A0E4FEC0AF01AEFF1
:100DF00007F01E0E5A6204EF07F0030E5D6E0A0E36
:100E00004FEC0AF01AEF07F00A0E5A620FEF07F0E4
:100E1000010E5D6E0A0E4FEC0AF01AEF07F0060E97
:100E20005A601AEF07F0010E5D6E0A0E4FEC0AF0E1
:100E30001AEF07F07F0E5A6E5650CE6F5750CF6F95
:100E4000010E546243EF07F058505910D8B432EFF6
:100E500007F05850CE6F5950CF6F000E0301BD639D
:100E600043EF07F0020E0301BD5DD8B43FEF07F07A
:100E70000001CA51CE6FCB51CF6F43EF07F0E86A44
:100E80000001CE6FCF6F0001BB0E22EC0DF0CF51F1
:100E9000E8CF13F0146A156A166AACEC0DF03A0E3E
:100EA00017EC0DF0CE51E8CF13F0ACEC0DF01200C2
:100EB0000301C05147EC24F0D8A07EEF07F00301F6
:100EC000000EC1657BEF07F000017ABF7EEF07F0EF
:100ED0000301C15100010D6E0E6A00010A0E0F6E72
:100EE000000E106E30EC10F07951135E7A51145CE4
:100EF000D8B07EEF07F00001E76912000001E76B50
:100F00001200D8900001CCAF1200C00E22EC0DF000
:100F1000000EF86E660EF76E0A0EF66E4EEC0DF0D1
:100F2000D88012000D0EABEC08F00D0EABEC08F003
:100F300069C00DF06AC00EF0A9C20FF0AAC210F08D
:100F400030EC10F000011450136E1550146E165052
:100F5000156E166ADEEC0DF00001255026100F0B01
:100F6000D890D8B41200C00E22EC0DF0000EF86E2E
:100F7000650EF76EF80EF66E4EEC0DF0CB0E22EC11
:100F80000DF00001255017EC0DF0265017EC0DF078
:100F90002E0E17EC0DF0275017EC0DF0285017EC23
:100FA0000DF0D88012000F01D89084B4D880D8A05A
:100FB000D3EF07F00A0EBCEC0BF00F01D89084B40D
:100FC000D880D8A0D3EF07F00F01D89083B6D8808F
:100FD000D8A0E4EF07F00A0EBCEC0BF00F01D8909C
:100FE00083B6D880D8A0E4EF07F0B00E22EC0DF065
:100FF0000F0183506BEC0DF00F0184506BEC0DF082
:10100000C00E22EC0DF00F0186506BEC0DF00F01BD
:1010100087506BEC0DF00F01835082868184E8B01D
:101020008296E8B281948098E8B48088320EBCEC55
:101030000BF00F01D89084B4D880D8B025EF08F019
:101040000A0EBCEC0BF00F01D89084B4D880D8B055
:10105000F5EF07F00F01D89084B4D880D8A02AEF1C
:1010600008F00A0EBCEC0BF00F01D89084B4D880C5
:10107000D8A02AEF08F0C00E22EC0DF0000EF86E9A
:10108000640EF76EB40EF66E4EEC0DF000010D6AB4
:10109000B00E22EC0DF0000EF86E640EF76EEA0E44
:1010A000F66E4EEC0DF0B70E22EC0DF000010D5077
:1010B00078EC0DF0ABEC08F0BC0E22EC0DF00F015B
:1010C000C4CFE8FF78EC0DF00F01C3CFE8FF78EC58
:1010D0000DF0320EBCEC0BF00F01D89084B4D88028
:1010E000D8B078EF08F00A0EBCEC0BF00F01D890E6
:1010F00084B4D880D8B048EF08F00F01D89084B4F9
:10110000D880D8A07DEF08F00A0EBCEC0BF00F01E0
:10111000D89084B4D880D8A07DEF08F000010D2AC3
:101120000C0E0D6448EF08F0F5EF07F00001136AAC
:10113000146A156A166A0A6E0B6A0A50ABEC08F05C
:101140000001C3501326C4501422D8B0152A0B2E08
:101150009DEF08F012000A6EA10EC06E000EC16E67
:101160000AC0E8FF31EC02F0E8AEC188E89EE8442E
:10117000E844C26EC2800000C282C2B2BDEF08F075
:101180000001C3CF69F0C4CF6AF00AC0E8FF1200C3
:101190000F01C282C2B2CAEF08F00001C350692732
:1011A000C4506A231200ABEC08F0C8EC08F0C8EC9D
:1011B00008F0C8EC08F000016A336A9F6933120036
:1011C00000014C6A566A576A280EE8CF55F00001B4
:1011D000900E526E010E536E0001900E4E6E010E77
:1011E0004F6E506A516A100E0001E8CF4DF0386A18
:1011F0003A6A3C6A3E6A406A426A446A466A486A97
:101200004A6A080EE8CF39F0E8CF3BF0E8CF3DF06E
:10121000E8CF3FF0E8CF41F0E8CF43F0E8CF45F02A
:10122000E8CF47F0E8CF49F0E8CF4BF0979E858EA6
:10123000000152500F01E8CFBBFF010153500F01D5
:10124000E8CFBCFF0A0E0F01E8CFBAFF0F01A08064
:101250000F019E900F01080EE8CFB1FFB180120080
:101260000001EEA1857E0201BAAF3AEF09F0877066
:1012700042EF09F00001E5B141EF09F0878042EF4C
:1012800009F087900001BBCFE8FF4E26BCCFE8FFF6
:101290004F224EC0E8FFE8CFBBFF4FC0E8FFE8CFCA
:1012A000BCFF0001E86A4C64B9EC09F000014C2A6B
:1012B0004CC0E8FFFE0B4D606FEF09F04C6A500E1A
:1012C000E8CF4EF050C0E8FF4E5EC30EE8CF4FF0BF
:1012D00051C0E8FF4F5A506A516AB6EF09F04CA06E
:1012E00084EF09F052C0E8FFE8CF4EF053C0E8FFAA
:1012F000E8CF4FF0BAC2E8FF0001E5814C62B0EFE1
:1013000009F0E591B0EF09F0120E4C629CEF09F084
:1013100050C0E8FFE8CF4EF051C0E8FFE8CF4FF0F3
:101320004F324E324F324E324F324E324F324E32B9
:101330000F0E4F16B0EF09F0040EE8CFEAFF000ED3
:10134000E8CFE9FF4CC0E8FFE830E89EE804E92672
:1013500000EC02F052C0E8FF4E5E53C0E8FF4F5A67
:101360004EC0E8FF50264FC0E8FF51220F01A19068
:1013700012005CEC0EF066EC0EF00001010E36621D
:10138000C8EF09F000018286BDB18296FF0EBD6FE5
:1013900087900301CDBFD0EF09F0859ED1EF09F012
:1013A000858E0001552E17EF0AF092EC24F0000113
:1013B00054A007EF0AF00001FF0EE76307EF0AF001
:1013C00058C0E8FF5910D8B4FFEF09F05866ECEFA9
:1013D00009F03C0E586E5906580658505A6E0301D3
:1013E000E86ABD11D8B4FFEF09F000015850591058
:1013F000D8B4FFEF09F0CA6BCB6B07EF0AF000011E
:10140000CA2B3C0ECA6307EF0AF0CA6BCB2B280E1F
:10141000E8CF55F0562A3C0E566217EF0AF0566A8E
:10142000572A0501002BD8B4012B0201B86902012B
:10143000A1A120EF0AF0530E8EEC0EF00001A86B74
:10144000000183CFE8FF311AD8A4306E316E30C06E
:10145000E8FF3212000184CFE8FF341AD8A4336EBB
:10146000346E33C0E8FF351200015E665E065F66CB
:101470005F0660676007A167A107A267A207A3676D
:10148000A3075C6645EF0AF012005C2E120080781C
:101490005D4E12005BC0E8FFE8CF5CF01200E8CFC1
:1014A0005BF0E8CF5CF0D2C2E8FFE8665AEF0AF0E2
:1014B000809812008088120000010ABE63EF0AF0D3
:1014C000819E64EF0AF0818E828A829A0A460B2EF0
:1014D0005CEF0AF012000201AD510A6E080E0B6EAD
:1014E0005CEC0AF00201AC510A6E080E0B6E5CEC6B
:1014F0000AF00201AB510A6E080E0B6E5CEC0AF0AA
:101500008686869612000BC113F00CC114F00DC133
:1015100015F009C117F00AC118F034EC11F00201FE
:10152000A55101010F03F35000011326D8B0142A6E
:10153000D8B0152A0101006B016B026B000113503A
:10154000E846E846E880E8921F0B13B6E88E0101F2
:10155000006F00011336143615361336143615365F
:101560001336143615361336143615361450010159
:10157000016F000115501F0B01011009026F1200CD
:1015800083EC0AF0010108510A6E080E0B6E5CEC48
:101590000AF0010107510A6E080E0B6E5CEC0AF0AE
:1015A000010106510A6E080E0B6E5CEC0AF086868D
:1015B0008696010105510A6E080E0B6E5CEC0AF06E
:1015C000010104510A6E080E0B6E5CEC0AF0010179
:1015D00003510A6E080E0B6E5CEC0AF08686869646
:1015E000010102510A6E080E0B6E5CEC0AF001015B
:1015F00001510A6E080E0B6E5CEC0AF001010051FD
:101600000A6E080E0B6E5CEC0AF086868696120057
:101610000F01939E949A939C819C819E829A9896A6
:1016200086960201D1A137EF0BF0D1B337EF0BF063
:1016300004C206F105C207F106C208F101C203F1B6
:1016400002C204F103C205F10101700E0B6FC60E58
:101650000C6F000E0D6F0101140E096F000E0A6F62
:1016600001010E6B0A0E106F010E0F6F12000201C6
:10167000D1B15DEF0BF0D1A35DEF0BF00AC206F123
:101680000BC207F10CC208F107C203F108C204F152
:1016900009C205F101016C0E0B6FCF0E0C6F000E2D
:1016A0000D6F0101640E096F000E0A6F01010E6BD0
:1016B000080E106F010E0F6F12000201D1B184EFFE
:1016C0000BF0D1B384EF0BF010C206F111C207F199
:1016D00012C208F10DC203F10EC204F10FC205F1EE
:1016E00001014A0E0B6F190E0C6F010E0D6F0101F7
:1016F0000A0E096F000E0A6F01010B0E0E6F320EFB
:10170000106F020E0F6F1200120087B2A3EF0BF0E2
:10171000D5AE95EF0BF0D6CFC1F0D7CFC2F0000118
:10172000C32BD8B4C42BF09012000001C351C411D4
:10173000F090D8A41200E86AE8CFD7FFE8CFD6FF30
:10174000D58EF0901200F17AF0ACB5EF0BF00301FA
:10175000CDA1B1EF0BF0F1AA859EF1BA858EB5EF60
:101760000BF0F1AA858EF1BA859EF0901200000070
:10177000E82EB7EF0BF012000A6EFA0EB7EC0BF082
:10178000FA0EB7EC0BF00A2EBDEF0BF012000EC0F4
:10179000E8FFAA6E0DC0E8FFA96EA69EA69CA680D3
:1017A000A8501200A86E0EC0E8FFAA6E0DC0E8FF98
:1017B000A96EA69EA69CA684F29E550EA76EAA0EA2
:1017C000A76EA682F28EA1A8E3EF0BF0A1981200FB
:1017D000B00E22EC0DF0000EF86E650EF76EB00E36
:1017E000F66E4EEC0DF0C00E22EC0DF0000EF86E11
:1017F000650EF76E320EF66E4EEC0DF047EC27F0EC
:10180000D8A028EF0CF0C00E22EC0DF0000EF86E00
:10181000650EF76EC20EF66E4EEC0DF017EC32F060
:1018200070EC1EF00001600E9E6F00C2E8FF01EC3C
:101830001FF00201002B0301072B3A0E076324EF70
:101840000CF0062B300E076F00019E2F15EF0CF0E9
:101850005BEC1EF000C2E8FFD6EC1EF012000001A7
:101860001550F86E1450F76E1350F66E00010E50BE
:10187000E26E0D50E16E0900F550E66E0A060900B1
:10188000F550E66E0A2E3BEF0CF0120000011550E9
:10189000F86E1450F76E1350F66EA68EA69CA684B2
:1018A000A688F29E550EA76EAA0EA76EA68200000D
:1018B000F28E0001400E1326000E142215220A2E6D
:1018C00046EF0CF0120062EC03F000011550F86EC8
:1018D0001450F76E1350F66EA68EA69CA684A688AA
:1018E000F29E550EA76EAA0EA76EA682F28E0A0071
:1018F00000010E50E26E0D50E16E400E0B6EE6CF11
:10190000E8FFF56E0F000B2EFAD7A68EA69CA684D4
:10191000F29E550EA76EAA0EA76EA682F28EA69410
:101920000001400E1326000E142215220001400E65
:101930000D26000E0E220A2E63EF0CF0120000019D
:101940001550F86E1450F76E1350F66EA68EA69CC6
:10195000A684A688F29E550EA76EAA0EA76EA68232
:101960000000F28E0A00080E0B6E00010E50E26EAF
:101970000D50E16E080E0C6EE6CFE8FFF56E0F001D
:101980000C2EFAD7A68EA69CA684F29E550EA76EA4
:10199000AA0EA76EA6820000F28E0B2EEBD7A6949D
:1019A0000001400E1326000E142215220001400EE5
:1019B0000D26000E0E220A2E9FEF0CF012000F01D2
:1019C0009A6A886A93989396939A8188819A819665
:1019D000140EBCEC0BF0818A140EBCEC0BF0600E04
:1019E00022EC0DF0600E22EC0DF0230E22EC0DF037
:1019F000310E22EC0DF0780E22EC0DF0420E22ECAE
:101A00000DF0570E22EC0DF0B00E22EC0DF0640E2E
:101A1000F76EC60EF66E4EEC0DF0C00E22EC0DF019
:101A2000640EF76ED80EF66E4EEC0DF01200886E56
:101A3000818681980000000000008188000000007D
:101A400000001200886E819681980000000000005E
:101A500081880000000000001200B00E22EC0DF0A2
:101A60000DC0F6FF0EC0F7FFF86A4EEC0DF0120045
:101A7000C00E22EC0DF00DC0F6FF0EC0F7FFF86AA5
:101A80004EEC0DF01200C00E22EC0DF0CEC0F6FFB1
:101A9000CFC0F7FFF86A4EEC0DF01200100E51EFB8
:101AA0000DF00A6E0900F5CFE8FFE812D8B46AEF2E
:101AB0000DF017EC0DF00A4E6AEF0DF00900F5CFAE
:101AC000E8FFE812D8B46AEF0DF017EC0DF00A2E1B
:101AD00052EF0DF012000A6E080E0B6E300E0ABEA9
:101AE000310E17EC0DF00A360B2E6EEF0DF01200D2
:101AF0000A6E3A0E0B6E0AC0E8FFF00BE842E842AD
:101B0000E842E84230090B64070F17EC0DF00AC0F9
:101B1000E8FF0F0B30090B64070F17EC0DF00AC03C
:101B2000E8FF1200DEEC0DF0255017EC0DF026500A
:101B300017EC0DF0275017EC0DF0285017EC0DF0B6
:101B4000295017EC0DF01200DEEC0DF097EF0DF0C0
:101B5000DEEC0DF09AEF0DF0DEEC0DF09DEF0DF0E8
:101B6000DEEC0DF0A0EF0DF0DEEC0DF0C8EC0DF0AA
:101B7000255017EC0DF0265017EC0DF0275017EC00
:101B80000DF0285017EC0DF0295017EC0DF0120055
:101B90000001300E25621200200E256E300E2662E6
:101BA0001200200E266E300E27621200200E276EC5
:101BB000300E28621200200E286E12000001196AF1
:101BC0001A6A100E176E270E186E34EC11F0300ED4
:101BD0001310256E1BC013F01CC014F01DC015F0AF
:101BE0001EC016F0196A1A6AE80E176E030E186EF8
:101BF00034EC11F0300E1310266E1BC013F01CC015
:101C000014F01DC015F01EC016F0196A1A6A640E91
:101C1000176E000E186E34EC11F0300E1310276E94
:101C20001BC013F01CC014F01DC015F01EC016F030
:101C3000196A1A6A0A0E176E000E186E34EC11F04B
:101C4000300E1310286E300E1B10296E120000018A
:101C5000310E376230EF0EF05BEC1EF05AEF0EF0F3
:101C6000320E37623AEF0EF000C2E8FFD6EC1EF0FB
:101C70005AEF0EF0330E376242EF0EF070EC1EF0AA
:101C80005AEF0EF0340E37624AEF0EF000C2E8FF52
:101C900001EC1FF0350E37625AEF0EF00001FF0E17
:101CA0000D6E030E0E6EE8CF0EF0FF0ED2EC0BF0B1
:101CB0005AEF0EF0376A12000F01ABA21200AB9878
:101CC000AB880F01AE500001616B12000F016BA2D7
:101CD00012006B986B880F016E5012000C0EE8CF4B
:101CE000AFFF220EE8CFACFF900EE8CFABFF0001B4
:101CF000616B9F9A9D8A1200ACA27CEF0EF0E8CF38
:101D0000ADFF1200000EE8CF6FFF220EE8CF6CFF90
:101D1000900EE8CF6BFFA59AA38A12006CA28EEFFB
:101D20000EF0E8CF6DFF1200E1CF21F0E2CF22F0FC
:101D3000000165C0E1FF000164C0E2FF686BACA276
:101D40009FEF0EF0E6CFE8FF00016827E8CFADFF78
:101D50000001662F9FEF0EF021C0E1FF22C0E2FFDD
:101D60001200E1CF21F0E2CF22F0000165C0E1FFD7
:101D7000000164C0E2FF686B0001050E5E6EE86A58
:101D80005E64D0EF0EF09EAAC0EF0EF0AECFE8FF7B
:101D9000E8CFE6FF000168270001662FBCEF0EF0D8
:101DA00021C0E1FF22C0E2FF12009EAA1200000142
:101DB000000E6163E8EF0EF0AECFE8FFE8CF62F00F
:101DC000550E62631200280EE8CF5FF0612B1200FF
:101DD000010E6163F2EF0EF0AECFE8FFE8CF63F0E3
:101DE000612B1200020E6163FCEF0EF0AECFE8FF34
:101DF000E8CF64F0612B1200030E616306EF0FF071
:101E0000AECFE8FFE8CF65F0612B1200040E6163EE
:101E10000FEF0FF0AECFE8FFE8CF66F0612B050EB5
:101E200061631BEF0FF0010E636319EF0FF0B1EC6C
:101E30000EF0612B1200060E61633EEF0FF0AECF85
:101E4000E8FFE8CF67F0020E63632FEF0FF094EC2A
:101E50000EF068C0E8FF7CEC0EF0616B120068C009
:101E6000E8FF676339EF0FF00C0E7CEC0EF0616B4E
:101E700012000D0E7CEC0EF0616B1200616B120013
:101E8000A4AA12006ECFE8FF0201A1B174EF0FF017
:101E9000530AD8A412000201A0A1120000010F0EE3
:101EA000741510098EEC0EF073C0E8FF8EEC0EF086
:101EB00000010F0E761520098EEC0EF075518EEC98
:101EC0000EF000010F0E781530098EEC0EF07751F0
:101ED0008EEC0EF000010F0E7A1540098EEC0EF01C
:101EE00079518EEC0EF012000001A8B17BEF0FF0DB
:101EF000AA6FA82B1200A96FA82B020EA86394EF5B
:101F00000FF0AA51F00B100AD8A4D9EF0FF00F0E62
:101F1000AA17AAA78EEF0FF0F00EAA13A9C0ABF074
:101F2000AAC0ACF0D9EF0FF0040EA863ABEF0FF02E
:101F3000AA51F00B200AD8A4D9EF0FF00F0EAA1760
:101F4000AAA7A5EF0FF0F00EAA13A9C0ADF0AAC082
:101F5000AEF0D9EF0FF0060EA863C2EF0FF0AA5152
:101F6000F00B300AD8A4D9EF0FF00F0EAA17AAA7CA
:101F7000BCEF0FF0F00EAA13A9C0AFF0AAC0B0F0EA
:101F8000D9EF0FF0080EA863D9EF0FF0AA51F00BAC
:101F9000400AD8A4D9EF0FF00F0EAA17AAA7D3EFC3
:101FA0000FF0F00EAA13A9C0B1F0AAC0B2F0D9EF99
:101FB0000FF012000C0E0F016F6E220E6C6E900E61
:101FC000E8CF6BFF12000001E80E0D26030E0E2273
:101FD000780E0D5C070E0E58D8A0F2EF0FF0EF0E42
:101FE000F9EF0FF00E320D320E320D320E320D328D
:101FF0000D508EEF0EF0BC0E0D5C030E0E58D8A0E7
:10200000F4EF0FF0EF0EF9EF0FF0F00E8EEC0EF094
:10201000800E8EEC0EF073C00DF074C00EF0E3EC89
:102020000FF075C00DF076C00EF0E3EC0FF077C046
:102030000DF078C00EF0E3EC0FF079C00DF07AC02F
:102040000EF0FBEC0FF07BC00DF07CC00EF0FBEC53
:102050000FF07DC00DF07EC00EF0FBEC0FF0120013
:1020600041EC10F010AE39EF10F00D50155E0E502F
:10207000165A0EAE40EF10F00F50155E1050165A63
:1020800012000001136A146A156A166A0F500D02D5
:10209000F3CF13F0F4CF14F00F500E02F3501426C8
:1020A000F4501522D8B0162A10500D02F350142601
:1020B000F4501522D8B0162A10500E02F3501526EF
:1020C000F450162212000001246A1B6A14501310E7
:1020D000D8B4000C14501718E8BE241EA46B000ED0
:1020E00017AE75EF10F0171E172A14AE7CEF10F024
:1020F000131E141E132A142214501710E8BE08EFE2
:1021000011F017501B5E143614341B3617501B2663
:10211000143614341B36175014B01B5E14A01B2643
:10212000143614341B36175014B01B5E14A01B2633
:10213000143614341B36175014B01B5E14A01B2623
:10214000143614341B36175014B01B5E14A01B2613
:10215000143614341B36175014B01B5E14A01B2603
:10216000143614341B36175014B01B5E14A01B26F3
:10217000143613341B36175014B01B5E14A01B26E4
:10218000133613341B36175013B01B5E13A01B26D7
:10219000133613341B36175013B01B5E13A01B26C7
:1021A000133613341B36175013B01B5E13A01B26B7
:1021B000133613341B36175013B01B5E13A01B26A7
:1021C000133613341B36175013B01B5E13A01B2697
:1021D000133613341B36175013B01B5E13A01B2687
:1021E000133613341B36175013B01B5E13A01B2677
:1021F000133613A01B26A4B126EF11F024AE000C59
:10220000131E141EE86A132A14221B1E1B2A000C1C
:1022100017AE21EF11F014BE1DEF11F0E8CF9DF0C5
:102220001350E8CF1BF01B9E133614361450E8CF22
:1022300013F09D51146AFEEF10F0136A132A146A0A
:10224000000C141E131EA42B81EF10F01B2A175034
:102250001B62FEEF10F01B6A000E132A142214AE4C
:10226000FEEF10F02388FF0C0001246A1C6A1B6A31
:10227000155014101310D8B4000C15501818E8BEDF
:10228000241EA46B000E18AE4AEF11F0171E181E84
:10229000172A182215AE53EF11F0131E141E151E27
:1022A000132A1422152215501810E8BEDDEF12F083
:1022B00017501B5E18501C5A153615341B361C3629
:1022C00017501B2618501C22153615341B361C3689
:1022D000175015A071EF11F01B5E18501C5A74EFC7
:1022E00011F01B2618501C22153615341B361C36CF
:1022F000175015A081EF11F01B5E18501C5A84EF87
:1023000011F01B2618501C22153615341B361C36AE
:10231000175015A091EF11F01B5E18501C5A94EF46
:1023200011F01B2618501C22153615341B361C368E
:10233000175015A0A1EF11F01B5E18501C5AA4EF06
:1023400011F01B2618501C22153615341B361C366E
:10235000175015A0B1EF11F01B5E18501C5AB4EFC6
:1023600011F01B2618501C22153615341B361C364E
:10237000175015A0C1EF11F01B5E18501C5AC4EF86
:1023800011F01B2618501C22153614341B361C362F
:10239000175015A0D1EF11F01B5E18501C5AD4EF46
:1023A00011F01B2618501C22143614341B361C3610
:1023B000175014A0E1EF11F01B5E18501C5AE4EF07
:1023C00011F01B2618501C22143614341B361C36F0
:1023D000175014A0F1EF11F01B5E18501C5AF4EFC7
:1023E00011F01B2618501C22143614341B361C36D0
:1023F000175014A001EF12F01B5E18501C5A04EF86
:1024000012F01B2618501C22143614341B361C36AE
:10241000175014A011EF12F01B5E18501C5A14EF45
:1024200012F01B2618501C22143614341B361C368E
:10243000175014A021EF12F01B5E18501C5A24EF05
:1024400012F01B2618501C22143614341B361C366E
:10245000175014A031EF12F01B5E18501C5A34EFC5
:1024600012F01B2618501C22143614341B361C364E
:10247000175014A041EF12F01B5E18501C5A44EF85
:1024800012F01B2618501C22143613341B361C362F
:10249000175014A051EF12F01B5E18501C5A54EF45
:1024A00012F01B2618501C22133613341B361C3610
:1024B000175013A061EF12F01B5E18501C5A64EF06
:1024C00012F01B2618501C22133613341B361C36F0
:1024D000175013A071EF12F01B5E18501C5A74EFC6
:1024E00012F01B2618501C22133613341B361C36D0
:1024F000175013A081EF12F01B5E18501C5A84EF86
:1025000012F01B2618501C22133613341B361C36AF
:10251000175013A091EF12F01B5E18501C5A94EF45
:1025200012F01B2618501C22133613341B361C368F
:10253000175013A0A1EF12F01B5E18501C5AA4EF05
:1025400012F01B2618501C22133613341B361C366F
:10255000175013A0B1EF12F01B5E18501C5AB4EFC5
:1025600012F01B2618501C22133613341B361C364F
:10257000175013A0C1EF12F01B5E18501C5AC4EF85
:1025800012F01B2618501C22133613B0CCEF12F099
:1025900017501B2618501C22A4B101EF13F024AED3
:1025A000000C131E141E151E000E132A14221522D1
:1025B0001B1E1C1E1B2A1C22000C18AEFBEF12F067
:1025C00015BEF6EF12F0E8CF9DF01450E8CF1CF0E6
:1025D0001350E8CF1BF01C9E143615361550E8CF6B
:1025E00013F09D51156A146ACFEF12F0136A132A83
:1025F000146A156A000C151E141E131EA42B58EF26
:1026000011F01B2AE86A1C2217501B62CFEF12F050
:1026100018501C62CFEF12F01C6A1B6A000E132ABE
:102620001422152215AECFEF12F02388FF0C1E6A7C
:102630001D6A1C6A1B6A16341B361C361D361E3674
:1026400017501B5E18501C5A19501D5A1A501E5A0A
:10265000A46AA45B163616341B361C361D361E368D
:10266000A437175016A040EF13F01B5E18501C5AE9
:1026700019501D5A1A501E5AE86AA45B49EF13F00C
:102680001B2618501C2219501D221A501E22E86ABF
:10269000A423163616341B361C361D361E36A437B8
:1026A000175016A05FEF13F01B5E18501C5A1950FC
:1026B0001D5A1A501E5AE86AA45B68EF13F01B26D5
:1026C00018501C2219501D221A501E22E86AA423F9
:1026D000163616341B361C361D361E36A4371750D8
:1026E00016A07EEF13F01B5E18501C5A19501D5A8D
:1026F0001A501E5AE86AA45B87EF13F01B26185085
:102700001C2219501D221A501E22E86AA4231636D4
:1027100016341B361C361D361E36A437175016A02D
:102720009DEF13F01B5E18501C5A19501D5A1A5079
:102730001E5AE86AA45BA6EF13F01B2618501C2251
:1027400019501D221A501E22E86AA4231636163488
:102750001B361C361D361E36A437175016A0BCEF8C
:1027600013F01B5E18501C5A19501D5A1A501E5A4D
:10277000E86AA45BC5EF13F01B2618501C22195001
:102780001D221A501E22E86AA423163616341B3660
:102790001C361D361E36A437175016A0DBEF13F07B
:1027A0001B5E18501C5A19501D5A1A501E5AE86ABE
:1027B000A45BE4EF13F01B2618501C2219501D22B5
:1027C0001A501E22E86AA423163616341B361C360D
:1027D0001D361E36A437175016A0FAEF13F01B5EF5
:1027E00018501C5A19501D5A1A501E5AE86AA45BF8
:1027F00003EF14F01B2618501C2219501D221A50EA
:102800001E22E86AA423163615341B361C361D36E4
:102810001E36A437175016A019EF14F01B5E18507F
:102820001C5A19501D5A1A501E5AE86AA45B22EF0E
:1028300014F01B2618501C2219501D221A501E225B
:10284000E86AA423153615341B361C361D361E3691
:10285000A437175015A038EF14F01B5E18501C5AFF
:1028600019501D5A1A501E5AE86AA45B41EF14F021
:102870001B2618501C2219501D221A501E22E86ACD
:10288000A423153615341B361C361D361E36A437C8
:10289000175015A057EF14F01B5E18501C5A195012
:1028A0001D5A1A501E5AE86AA45B60EF14F01B26EA
:1028B00018501C2219501D221A501E22E86AA42307
:1028C000153615341B361C361D361E36A4371750E8
:1028D00015A076EF14F01B5E18501C5A19501D5AA3
:1028E0001A501E5AE86AA45B7FEF14F01B2618509A
:1028F0001C2219501D221A501E22E86AA4231536E4
:1029000015341B361C361D361E36A437175015A03D
:1029100095EF14F01B5E18501C5A19501D5A1A508E
:102920001E5AE86AA45B9EEF14F01B2618501C2266
:1029300019501D221A501E22E86AA4231536153498
:102940001B361C361D361E36A437175015A0B4EFA3
:1029500014F01B5E18501C5A19501D5A1A501E5A5A
:10296000E86AA45BBDEF14F01B2618501C22195016
:102970001D221A501E22E86AA423153615341B3670
:102980001C361D361E36A437175015A0D3EF14F091
:102990001B5E18501C5A19501D5A1A501E5AE86ACC
:1029A000A45BDCEF14F01B2618501C2219501D22CA
:1029B0001A501E22E86AA423153615341B361C361D
:1029C0001D361E36A437175015A0F2EF14F01B5E0B
:1029D00018501C5A19501D5A1A501E5AE86AA45B06
:1029E000FBEF14F01B2618501C2219501D221A5000
:1029F0001E22E86AA423153614341B361C361D36F5
:102A00001E36A437175015A011EF15F01B5E185095
:102A10001C5A19501D5A1A501E5AE86AA45B1AEF24
:102A200015F01B2618501C2219501D221A501E2268
:102A3000E86AA423143614341B361C361D361E36A1
:102A4000A437175014A030EF15F01B5E18501C5A15
:102A500019501D5A1A501E5AE86AA45B39EF15F036
:102A60001B2618501C2219501D221A501E22E86ADB
:102A7000A423143614341B361C361D361E36A437D8
:102A8000175014A04FEF15F01B5E18501C5A195028
:102A90001D5A1A501E5AE86AA45B58EF15F01B26FF
:102AA00018501C2219501D221A501E22E86AA42315
:102AB000143614341B361C361D361E36A4371750F8
:102AC00014A06EEF15F01B5E18501C5A19501D5AB9
:102AD0001A501E5AE86AA45B77EF15F01B261850AF
:102AE0001C2219501D221A501E22E86AA4231436F3
:102AF00014341B361C361D361E36A437175014A04E
:102B00008DEF15F01B5E18501C5A19501D5A1A50A3
:102B10001E5AE86AA45B96EF15F01B2618501C227B
:102B200019501D221A501E22E86AA42314361434A8
:102B30001B361C361D361E36A437175014A0ACEFBA
:102B400015F01B5E18501C5A19501D5A1A501E5A67
:102B5000E86AA45BB5EF15F01B2618501C2219502B
:102B60001D221A501E22E86AA423143614341B3680
:102B70001C361D361E36A437175014A0CBEF15F0A7
:102B80001B5E18501C5A19501D5A1A501E5AE86ADA
:102B9000A45BD4EF15F01B2618501C2219501D22DF
:102BA0001A501E22E86AA423143614341B361C362D
:102BB0001D361E36A437175014A0EAEF15F01B5E21
:102BC00018501C5A19501D5A1A501E5AE86AA45B14
:102BD000F3EF15F01B2618501C2219501D221A5015
:102BE0001E22E86AA423143613341B361C361D3605
:102BF0001E36A437175014A009EF16F01B5E1850AC
:102C00001C5A19501D5A1A501E5AE86AA45B12EF3A
:102C100016F01B2618501C2219501D221A501E2275
:102C2000E86AA423133613341B361C361D361E36B1
:102C3000A437175013A028EF16F01B5E18501C5A2B
:102C400019501D5A1A501E5AE86AA45B31EF16F04B
:102C50001B2618501C2219501D221A501E22E86AE9
:102C6000A423133613341B361C361D361E36A437E8
:102C7000175013A047EF16F01B5E18501C5A19503E
:102C80001D5A1A501E5AE86AA45B50EF16F01B2614
:102C900018501C2219501D221A501E22E86AA42323
:102CA000133613341B361C361D361E36A437175008
:102CB00013A066EF16F01B5E18501C5A19501D5ACF
:102CC0001A501E5AE86AA45B6FEF16F01B261850C4
:102CD0001C2219501D221A501E22E86AA423133602
:102CE00013341B361C361D361E36A437175013A05E
:102CF00085EF16F01B5E18501C5A19501D5A1A50B9
:102D00001E5AE86AA45B8EEF16F01B2618501C2290
:102D100019501D221A501E22E86AA42313361334B8
:102D20001B361C361D361E36A437175013A0A4EFD1
:102D300016F01B5E18501C5A19501D5A1A501E5A74
:102D4000E86AA45BADEF16F01B2618501C22195040
:102D50001D221A501E22E86AA423133613341B3690
:102D60001C361D361E36A437175013A0C3EF16F0BD
:102D70001B5E18501C5A19501D5A1A501E5AE86AE8
:102D8000A45BCCEF16F01B2618501C2219501D22F4
:102D90001A501E22E86AA423133613341B361C363D
:102DA0001D361E36A437175013A0E2EF16F01B5E37
:102DB00018501C5A19501D5A1A501E5AE86AA45B22
:102DC000EBEF16F01B2618501C2219501D221A502A
:102DD0001E22E86AA423133613B0F7EF16F017503B
:102DE0001B2618501C2219501D221A501E22000C9E
:102DF0000F01D89083B6D880D8B004EF17F00A0E30
:102E0000BCEC0BF00F01D89083B6D880D8B07AEF25
:102E100017F00F01D89084B2D880D8B015EF17F012
:102E20000A0EBCEC0BF00F01D89084B2D880D8B059
:102E30007AEF17F00001CC673CEF17F00001CC6986
:102E4000030132C30DF033C30EF00001E80E0F6E24
:102E5000030E106E30EC10F014C01CF115C01DF103
:102E60000301345101011C270301355101011D23C8
:102E700034C31AF135C31BF17DEC29F0D8B04DEF06
:102E800017F0D8A454EF17F001011A07D8A01B07B8
:102E90001A07D8A01B0754EF17F001011A2BD8B45A
:102EA0001B2B1A2BD8B41B2B1CC10DF01DC10EF00F
:102EB00001011A5100010D5E01011B5100010E5A62
:102EC0000001000E0F6E010E106E30EC10F00001CC
:102ED000E80E176E030E186E34EC11F013C032F3C7
:102EE00014C033F31AC134F31BC135F3E3EC19F00A
:102EF000D88412000001CC6780EF17F0D89412003C
:102F0000CC6B4BEC1FF0D894120000016951E8CF54
:102F10000DF06A51E8CF0EF06D510D5E6E510E5AF4
:102F2000D8A0A2EF17F06B51E8CF0FF06C51E8CFAB
:102F300010F030EC10F01450E8CF71F01550E8CFDD
:102F400072F012006F51E8CF0FF07051E8CF10F01F
:102F500030EC10F01450E8CF71F01550E8CF72F05B
:102F6000120069C00DF06AC00EF06D510D5E6E5119
:102F70000E5A6BC00FF06CC010F030EC10F0145013
:102F8000E8CF71F01550E8CF72F01200040EABECF0
:102F900008F0040ED3EC08F015C26BF016C26CF00A
:102FA00017C26DF018C26EF019C26FF01AC270F03D
:102FB00085EC17F071C034F172C035F171C073F057
:102FC00072C074F0050EABEC08F0050ED3EC08F0FF
:102FD0001BC26BF01CC26CF01DC26DF01EC26EF005
:102FE0001FC26FF020C270F085EC17F071C036F18F
:102FF00072C037F171C075F072C076F0060EABEC9E
:1030000008F0060ED3EC08F021C26BF022C26CF07F
:1030100023C26DF024C26EF025C26FF026C270F09C
:1030200085EC17F071C038F172C039F171C077F0DA
:1030300072C078F0070EABEC08F0070EABEC08F0AE
:1030400027C26BF028C26CF029C26DF02AC26EF064
:10305000B1EC17F071C03AF172C03BF171C079F078
:1030600072C07AF0030EABEC08F000010F01C3CF81
:10307000E8FFE8CF8BF0C4CFE8FFE8CF8CF0080E74
:10308000ABEC08F02DC26DF02EC26EF02BC26BF0CF
:103090002CC26CF0B1EC17F071C083F072C084F0F8
:1030A000090EABEC08F031C26DF032C26EF02FC2E7
:1030B0006BF030C26CF0B1EC17F071C085F072C0EB
:1030C00086F00A0EABEC08F035C26DF036C26EF039
:1030D00033C26BF034C26CF0B1EC17F071C087F002
:1030E00072C088F00B0EABEC08F039C26DF03AC23A
:1030F0006EF037C26BF038C26CF0B1EC17F071C0F3
:1031000089F072C08AF00301B55147EC24F0D8A0D1
:1031100091EF18F00001E80E7B6F030E7C6F96EFC5
:1031200018F00001180E7B6FFC0E7C6F000EABECEC
:1031300008F03BC26BF03CC26CF03DC26DF03EC289
:103140006EF0B1EC17F071C07DF072C07EF0010E30
:10315000ABEC08F03FC26BF040C26CF041C26DF0C6
:1031600042C26EF0B1EC17F071C07FF072C080F017
:103170000301B75147EC24F0D8A0C6EF18F00001C6
:10318000E80E816F030E826FE0EF18F00301B95172
:1031900047EC24F0D8A0D4EF18F00001180E816F8E
:1031A000FC0E826FE0EF18F00301B85147EC24F0F9
:1031B000D8A0E0EF18F00001000E816F000E826FC2
:1031C00012000001106A0FBE101E30EC10F000015A
:1031D000640E176E000E186E34EC11F013C011F06F
:1031E00014C012F013C00FF014C010F00EAEFEEFBA
:1031F00018F00F1E101E0F2AD8B0102A30EC10F055
:1032000000010A0E176E000E186E34EC11F00B5010
:10321000E8CF17F0186A17BE181E34EC11F01150E1
:103220000D5E12500E5A13500D2614500E2212002D
:103230000301AE5147EC24F073C00DF074C00EF0E2
:10324000D8A02EEF19F003011B510001E8CF0FF0B9
:1032500003011751E8CF0BF036EF19F003011A51B3
:103260000001E8CF0FF0640EE8CF0BF0E1EC18F0AE
:103270000DC073F00EC074F00301AF5147EC24F0A1
:1032800075C00DF076C00EF0D8A052EF19F0030112
:1032900026510001E8CF0FF003012251E8CF0BF0D7
:1032A0005AEF19F0030125510001E8CF0FF0640E29
:1032B000E8CF0BF0E1EC18F00DC075F00EC076F021
:1032C0000301B05147EC24F077C00DF078C00EF048
:1032D000D8A076EF19F0030131510001E8CF0FF0CB
:1032E00003012D51E8CF0BF07EEF19F003013051AF
:1032F0000001E8CF0FF0640EE8CF0BF0E1EC18F01E
:103300000DC077F00EC078F012000301AE5147EC0B
:1033100024F0D8A0A4EF19F073C00FF074C010F01F
:1033200017C30DF018C30EF00E6A0DBE0E1E30EC62
:1033300010F00001640E176E000E186E34EC11F0E0
:1033400013C073F014C074F00301AF5147EC24F0C4
:10335000D8A0C3EF19F075C00FF076C010F022C3EB
:103360000DF023C30EF00E6A0DBE0E1E30EC10F0F1
:103370000001640E176E000E186E34EC11F013C0CD
:1033800075F014C076F00301B05147EC24F0D8A0DA
:10339000E2EF19F077C00FF078C010F02DC30DF0F8
:1033A0002EC30EF00E6A0DBE0E1E30EC10F00001A2
:1033B000640E176E000E186E34EC11F013C077F027
:1033C00014C078F012000201B2519BEC01F003012D
:1033D000A75100010F260301A8510001102218C3B4
:1033E0000DF019C30EF000010E6AFF0E0DBE0E6E39
:1033F00030EC10F00001640E176E186A196A1A6A30
:1034000034EC11F000010301195100010D6E0E6A38
:103410000DBE0E1E0D360E360D5013260E50142204
:1034200013507327145074230201B3519BEC01F025
:103430000301A95100010F260301AA510001102226
:1034400023C30DF024C30EF000010E6AFF0E0DBE63
:103450000E6E30EC10F00001640E176E186A196AD7
:103460001A6A34EC11F000010301245100010D6EC1
:103470000E6A0DBE0E1E0D360E360D5013260E5062
:10348000142213507527145076230201B4519BEC7B
:1034900001F00301AB5100010F260301AC51000103
:1034A00010222EC30DF02FC30EF000010E6AFF0E86
:1034B0000DBE0E6E30EC10F00001640E176E186A2F
:1034C000196A1A6A34EC11F0000103012F5100014E
:1034D0000D6E0E6A0DBE0E1E0D360E360D501326E5
:1034E0000E50142213507727145078230201B5513F
:1034F0009BEC01F036C30DF037C30EF000010E6AED
:10350000FF0E0DBE0E6E30EC10F00001640E176E53
:10351000186A196A1A6A34EC11F00301010E376354
:10352000A9EF1AF00001030E0E6E186EE80E0D6E74
:10353000176E79510D5E7A510E5A196A1A6A13C0C4
:103540000FF014C010F030EC10F034EC11F0C3EFB9
:103550001AF0020E3763C3EF1AF0000179510D6EB5
:103560007A510E6E13C00FF014C010F030EC10F052
:103570000001030EE8CF18F0E80EE8CF17F0196A43
:103580001A6A34EC11F000011350792714507A2391
:10359000120000010E6A08C40DF00DBE0E68000195
:1035A0000A0E0F6E000E106E30EC10F013507327E1
:1035B0001450742300010E6A09C40DF00DBE0E688C
:1035C00000010A0E0F6E000E106E30EC10F013505A
:1035D00075271450762300010E6A0AC40DF00DBE43
:1035E0000E6800010A0E0F6E000E106E30EC10F027
:1035F000135077271450782300010E6A0BC40DF086
:103600000DBE0E6800010A0E0F6E000E106E30EC3B
:1036100010F01350792714507A2300010E6A0CC45D
:103620000DF00DBE0E6800010A0E0F6E000E106E3A
:1036300030EC10F013507B2714507C2300010E6AED
:103640000DC40DF00DBE0E6800010A0E0F6E000EC7
:10365000106E30EC10F013507D2714507E230001C3
:103660000E6A0EC40DF00DBE0E6800010A0E0F6E3C
:10367000000E106E30EC10F013507F271450802392
:1036800000010E6A0FC40DF00DBE0E6800010A0E97
:103690000F6E000E106E30EC10F013508127145096
:1036A0008223120000010A0E0D6E000E0E6E030141
:1036B000BB5147EC24F0D8A09AEF1BF003014DAFAB
:1036C0006DEF1BF04CC30FF0106A0FBE106830ECAA
:1036D00010F013C073F014C074F003014FAF7CEF0F
:1036E0001BF04EC30FF0106A0FBE106830EC10F0E4
:1036F00013C075F014C076F0030151AF8BEF1BF0CF
:1037000050C30FF0106A0FBE106830EC10F013C0F9
:1037100077F014C078F0030153AF9AEF1BF052C357
:103720000FF0106A0FBE106830EC10F013C079F083
:1037300014C07AF00301BC5147EC24F0D8A0DDEFAF
:103740001BF0030155AFB0EF1BF054C30FF0106A2C
:103750000FBE106830EC10F013C073F014C074F09A
:10376000030157AFBFEF1BF056C30FF0106A0FBE37
:10377000106830EC10F013C075F014C076F003013F
:1037800059AFCEEF1BF058C30FF0106A0FBE106890
:1037900030EC10F013C077F014C078F003015BAF89
:1037A000DDEF1BF05AC30FF0106A0FBE106830EC4B
:1037B00010F013C079F014C07AF000017AAF120053
:1037C000E86A796F7A6F12000201A1B11200030159
:1037D000B65147EC24F0D8A0120000016067120037
:1037E00002019F510001606F0201010EB66302EFFA
:1037F0001CF0010E00015D6E050E4FEC0AF0280E64
:103800000001606F73C00DF074C00EF0A5EC1CF0E9
:10381000D8A438EF1CF00201B66711EF1CF00201CA
:103820009E51000174BF1FEF1CF00301192719AF4F
:1038300029EF1CF0D8A629EF1CF02CEF1CF0030197
:10384000195F19BF29EF1CF0D8A629EF1CF031EF42
:103850001CF019BF31EF1CF0640E1961196F36EFBF
:103860001CF0640EE81EE82A1965196F4BEC1FF076
:1038700075C00DF076C00EF0A5EC1CF0D8A46EEF6C
:103880001CF00201B66747EF1CF002019E510001D7
:1038900076BF55EF1CF00301242724AF5FEF1CF027
:1038A000D8A65FEF1CF062EF1CF00301245F24BF79
:1038B0005FEF1CF0D8A65FEF1CF067EF1CF024BF91
:1038C00067EF1CF0640E2461246F6CEF1CF0640E33
:1038D000E81EE82A2465246F4BEC1FF077C00DF03A
:1038E00078C00EF0A5EC1CF0D8A4A4EF1CF00201E7
:1038F000B6677DEF1CF002019E51000178BF8BEF8F
:103900001CF003012F272FAF95EF1CF0D8A695EFE1
:103910001CF098EF1CF003012F5F2FBF95EF1CF0F8
:10392000D8A695EF1CF09DEF1CF02FBF9DEF1CF06B
:10393000640E2F612F6FA2EF1CF0640EE81EE82AC0
:103940002F652F6F4BEC1FF0120000010EAEAEEF93
:103950001CF00D1E0E1E0D2AD8B00E2AD8900E3265
:103960000D320E66B8EF1CF0640E0D64BDEF1CF056
:103970000001640E0D6E000E0E6E0D50E832E8323E
:103980001F0BD8740DC0E8FF12000001BD6B0001D1
:1039900074BFD7EF1CF011C30DF012C30EF073C04B
:1039A0000FF074C010F030EC10F0E1EF1CF015C314
:1039B0000DF016C30EF073C00FF074C010F030ECB1
:1039C00010F013C30DF014C30EF0000114500D26B7
:1039D00015500E222BEC1EF00DC03CF00EC03DF039
:1039E000000176BF00EF1DF01CC30DF01DC30EF0EB
:1039F00075C00FF076C010F030EC10F00AEF1DF03B
:103A000020C30DF021C30EF075C00FF076C010F08A
:103A100030EC10F01EC30DF01FC30EF00001145067
:103A20000D2615500E222BEC1EF00DC03AF00EC0E4
:103A30003BF0000178BF29EF1DF027C30DF028C32C
:103A40000EF077C00FF078C010F030EC10F033EFCC
:103A50001DF02BC30DF02CC30EF077C00FF078C013
:103A600010F030EC10F029C30DF02AC30EF0000165
:103A700014500D2615500E222BEC1EF00DC03EF0FA
:103A80000EC03FF032C30DF033C30EF079C00FF01B
:103A90007AC010F030EC10F034C30DF035C30EF0E6
:103AA000000114500D2615500E222BEC1EF00DC0F7
:103AB00040F00EC041F03AC30DF03BC30EF07BC0A6
:103AC0000FF07CC010F030EC10F03CC30DF03DC3A3
:103AD0000EF0000114500D2615500E222BEC1EF096
:103AE0000DC042F00EC043F09BEF1DF000017EBF01
:103AF00086EF1DF01CC30DF01DC30EF07DC00FF04E
:103B00007EC010F030EC10F090EF1DF020C30DF0EF
:103B100021C30EF07DC00FF07EC010F030EC10F02D
:103B20001EC30DF01FC30EF0000114500D261550DA
:103B30000E22AEEF1DF03EC30DF03FC30EF07DC070
:103B40000FF07EC010F030EC10F040C30DF041C318
:103B50000EF0000114500D2615500E222BEC1EF015
:103B60000DC044F00EC045F0DBEF1DF0000180BF3A
:103B7000C6EF1DF011C30DF012C30EF07FC00FF0A1
:103B800080C010F030EC10F0D0EF1DF015C30DF038
:103B900016C30EF07FC00FF080C010F030EC10F0B4
:103BA00013C30DF014C30EF0000114500D26155070
:103BB0000E22EEEF1DF042C30DF043C30EF07FC0A6
:103BC0000FF080C010F030EC10F044C30DF045C38E
:103BD0000EF0000114500D2615500E222BEC1EF095
:103BE0000DC046F00EC047F081C00DF082C00EF04F
:103BF0000EBE03EF1EF046C30FF047C310F030ECCB
:103C000010F009EF1EF04AC30FF04BC310F030EC78
:103C100010F048C30DF049C30EF00D5014260E509D
:103C2000152214C00DF015C00EF02BEC1EF00DC0C7
:103C300048F00EC049F00001CC672AEF1EF00301E6
:103C4000B15147EC24F0D8A02AEF1EF038C340F061
:103C500039C341F012000201AE5100010D5C0201B6
:103C6000AF5100010E58E8AE3BEF1EF0AEC20DF0B2
:103C7000AFC20EF012000201B05100010D5C020152
:103C8000B15100010E58E8BE1200B0C20DF0B1C231
:103C90000EF01200000133B459EF1EF035A459EFB5
:103CA0001EF03594010E5D6E050E4FEC0AF0D880C3
:103CB0001200D89012000001000E0D6E020E0E6E62
:103CC0000001000E136E000E146E010E156EE86AF0
:103CD0000A6E2FEC0CF0020100510001A56F1200DA
:103CE0000001000E0D6E020E0E6E0001000E136E2E
:103CF000000E146E010E156E040E0A6E63EC0CF0CD
:103D00001200E846E8060B6E0001000E0D6E030E71
:103D10000E6E0001000E136E000E146E010E156E75
:103D20000B501426E86A1522100E0A6E2FEC0CF0C8
:103D30001200E846E8060B6E0001000E0D6E080E3C
:103D40000E6E0001000E136E000E146E010E156E45
:103D50000B501426E86A1522400E0A6E2FEC0CF068
:103D60000001000EB56F030EB66F0001000EB36FB9
:103D7000030EB46F0001080EB46F100EB76F1FEC86
:103D800023F00001000E0D6E080E0E6E0001000EF5
:103D9000136E000E146E010E156E0B501426E86A99
:103DA0001522010E0A6E63EC0CF01200E846E806DC
:103DB0000B6E0001000E0D6E030E0E6E0001000E64
:103DC000136E000E146E010E156E0B501426E86A69
:103DD00015220A6E2FEC0CF00001000E0D6E040E81
:103DE0000E6E0001000E136E000E146E010E156EA5
:103DF0000B50E82A1426E86A15220A6E2FEC0CF004
:103E00001200E846E8060C6E0001000E0D6E030E6F
:103E10000E6E0001000E136E000E146E010E156E74
:103E20000C501426E86A1522040E0A6E63EC0CF09E
:103E30000001000E0D6E040E0E6E0001000E136EDA
:103E4000000E146E010E156E0C50E82A1426E86A56
:103E50001522040E0A6E63EC0CF012000001000E35
:103E6000B56F030EB66F0001000EB36F060EB46F90
:103E7000000EB76F1FEC23F00001000EB56F040EAB
:103E8000B66F0001000EB36F070EB46F000EB76F70
:103E90001FEC23F0120002010051E846E8060A6E0A
:103EA0000001000E0D6E030E0E6E0001000E136E6B
:103EB000000E146E010E156E0A501426E86A1522C3
:103EC000010E0A6E63EC0CF0120073C08DF074C02A
:103ED0008EF075C08FF076C090F077C091F078C00A
:103EE00092F079C093F07AC094F07BC095F07CC0DA
:103EF00096F07DC097F07EC098F07FC099F080C0AA
:103F00009AF081C09BF082C09CF0120065EC1FF01B
:103F10000301B25147EC24F0D8B0A1EF1FF0030E1B
:103F2000E26E5C0EE16E3FEC22F0610EE16E3FEC62
:103F300022F0660EE16E3FEC22F06B0EE16E3FEC7C
:103F400022F065EC1FF00301B35147EC24F0D8B028
:103F5000C2EF1FF0030EE26E700EE16E3FEC22F036
:103F600065EC1FF0750EE16E3FEC22F065EC1FF082
:103F70007A0EE16E3FEC22F065EC1FF07F0EE16EF1
:103F80003FEC22F065EC1FF00301B45147EC24F044
:103F9000D8B0DDEF1FF0030EE26E840EE16E3FEC51
:103FA00022F0890EE16E3FEC22F08E0EE16E3FECC6
:103FB00022F0930EE16E3FEC22F012008DC00DF066
:103FC0008EC00EF010C40FF000010EBE11C40FF031
:103FD000106A0FBE106830EC10F00001640E176E0E
:103FE000000E186E34EC11F0000113C0E8FF9127A9
:103FF00014C0E8FF922391C00DF092C00EF012C4DD
:104000000FF000010EBE13C40FF0106A0FBE10684F
:1040100030EC10F00001640E176E000E186E34ECD8
:1040200011F0000113C0E8FF8D2714C0E8FF8E23B4
:1040300091C00DF092C00EF014C40FF000010EBE3E
:1040400015C40FF0106A0FBE106830EC10F00001BC
:10405000640E176E000E186E34EC11F0000113C0E0
:10406000E8FF8F2714C0E8FF902393C00DF094C0A1
:104070000EF016C40FF000010EBE106A0FBE1068DD
:1040800030EC10F00001640E176E000E186E34EC68
:1040900011F0000113C0E8FF8F2714C0E8FF902340
:1040A0008DC073F08EC074F08FC075F090C076F044
:1040B00091C077F092C078F093C079F094C07AF014
:1040C000040117A172EF20F08FC07DF090C07EF048
:1040D000040118A172EF20F000017D1F7E1F7D2BCF
:1040E000D8B07E2B030198A18FEF20F08FC00DF088
:1040F00090C00EF091C00FF092C010F000010DC002
:1041000075F00EC076F00DC077F00EC078F00F504D
:104110007727105078230F50755F1050765B03019E
:1041200099A1ACEF20F08FC00DF090C00EF08DC0C3
:104130000FF08EC010F000010DC075F00EC076F0CB
:104140000DC073F00EC074F00F507327105074231D
:104150000F50755F1050765B03019AA167EF21F055
:104160008DC00DF08EC00EF00DC073F00EC074F057
:104170000DC07FF00EC080F00001640E176E000EBF
:10418000186E03019C51E812D8B410EF21F0E8BE7C
:10419000EEEF20F0640800010F6E106A74BFDFEFCD
:1041A00020F073C00DF074C00EF030EC10F034EC61
:1041B00011F013C073F014C074F010EF21F000017F
:1041C0007FC00DF080C00EF030EC10F034EC11F038
:1041D00013C07FF014C080F010EF21F0640F0001D5
:1041E0000F6E106A74AF03EF21F073C00DF074C04E
:1041F0000EF030EC10F034EC11F013C073F014C07A
:1042000074F010EF21F000017FC00DF080C00EF0BF
:1042100030EC10F034EC11F013C07FF014C080F0DB
:1042200003019BA11AEF21F000017F1F801F7F2B4C
:10423000D8B0802B0001640E176E000E186E0301BB
:104240009D51E812D8B467EF21F00301C651E8127E
:10425000D8B43DEF21F00301C55147EC24F0D8B0AC
:1042600067EF21F00001E80E0D6E030E0E6E935104
:104270000D5E94510E5A49EF21F00001E80E0D6ECB
:10428000030E0E6E99510D269A510E22D8900E32C1
:104290000D329DC30FF09EC310F0106A0FBE101EAA
:1042A00030EC10F034EC11F01350732714507423D9
:1042B00003019BB162EF21F00001131E141E132AAB
:1042C000D8B0142A000113507F2714508023120005
:1042D0000301A4A1120065EC1FF0DEEC1FF0120038
:1042E0000301A4B178EF21F065EC1FF0DEEC1FF0C4
:1042F00003019EA193EF21F00301C25147EC24F08A
:10430000D8A093EF21F003019F5100010D6E0E6ABA
:1043100000010A0E0F6E000E106E30EC10F013C08C
:1043200079F014C07AF00301A0A1C0EF21F00301DD
:10433000C35147EC24F0D8A0A2EF21F00301A15112
:10434000ABEF21F00301C45147EC24F0D8A0C0EF3B
:1043500021F00301A25100010D6E0E6A00010A0E48
:104360000F6E000E106E30EC10F01350795D14508B
:104370007A59E8AEC0EF21F013C079F014C07AF09A
:1043800012000BC0E8FFF00BD8B412000DC069F0AA
:104390000EC06AF00EAED2EF21F00D1E0E1E0D2AD9
:1043A000D8B00E2A0DC013F00EC014F0640E176EB4
:1043B00063EC10F000011C6A090E1360EAEF21F0B3
:1043C0000BC0E8FFE83AE8060F0BE8B607EF22F06B
:1043D000FCEF21F0136E0DC01BF00EC01CF0840E1C
:1043E00000011B5E030E1C5A0BC0E8FFE83AE8060A
:1043F0000F0BE8B607EF22F00B0DF350460F132416
:10440000E8CFD9FF020EE8CFDAFF11EF22F0E896ED
:104410000B0DF350DA0F1324E8CFD9FF030EE8CFCA
:10442000DAFFDECF0AF0DFCF0BF000010BC00DF09A
:104430000AC0E8FF0D5E0E6A0DBE0E681BC00FF0CD
:104440001CC010F030EC10F00A0E176E63EC10F088
:104450000AC0E8FF0A0DF3CFE8FF1326F4CFE8FF08
:10446000142213C00DF014C00EF000016AAF120048
:1044700000010D1E0E1E0D2AD8B00E2A1200E650A5
:10448000E8CF0BF0E812D8B4120080EC02F0C1ECD7
:1044900021F00DC011F00EC012F0E6CF0AF0E6CF09
:1044A000E8FF0001E8CF0DF00E6A0DBE0E1E000100
:1044B0000A0E0F6E000E106E30EC10F011C00DF0F1
:1044C00012C00EF013500D5E14500E5A0EBE9EEF29
:1044D00022F0E6CFE8FF00010AAC87EF22F0E8CF38
:1044E00013F0E9CF14F00DC011F00EC012F013500C
:1044F00080EC02F00DC013F00EC014F00A0E176E1F
:1045000063EC10F011C00DF012C00EF013500F6EDE
:10451000106A0FBE101E30EC10F00001640E176E12
:10452000000E186E196A1A6A34EC11F013C00DF0FF
:1045300014C00EF00A5000EC03F01200E6CFE8FFC2
:10454000E6CFE8FF00010AAABCEF22F0E8CF13F0A3
:104550000DC011F00EC012F0135080EC02F00DC02F
:1045600013F00EC014F00A0E176E63EC10F011C0B9
:104570000DF012C00EF013500F6E106A0FBE101E19
:1045800030EC10F00001640E176E000E186E196A00
:104590001A6A34EC11F013C00DF014C00EF00A507A
:1045A00000EC03F012000001BD0EB56F030EB66FF4
:1045B0000001120EB36F010EB46F050EB76F1FEC42
:1045C00023F0D90EE8CFD9FF060EE8CFDAFF060EAA
:1045D000E8CF0CF0DDCFE8FFE812D8B4F7EF22F017
:1045E000DFCFE8FF47EC24F0D8B003EF23F0DDCFB6
:1045F000E8FF0C2EEAEF22F0A5C0E8FF02010063FD
:104600000CEF23F01200DECFE8FFDECFE8FF02015F
:1046100000630CEF23F01200E8CF00F2D6EC1EF09E
:104620000001120EB56F010EB66F0001BD0EB36F23
:10463000030EB46F050EB76F1FEC23F012000001DC
:10464000B551E16EB651E26E0001B351D96EB4516D
:10465000DA6EE6CFE8FFE8CFDEFF0001B72F29EFE3
:1046600023F012000001BF6B0301AE5147EC24F0B0
:104670000001D8B0BF810301AF5147EC24F0000125
:10468000D8B0BF830301B05147EC24F00001D8B08B
:10469000BF850301B15147EC24F00001D8B0BF87BA
:1046A0000301B65147EC24F00001D8B0BF890301E3
:1046B000BB5147EC24F00001D8B0BF8B0301BC51C3
:1046C00047EC24F00001D8B0BF8D1200C00E22ECE0
:1046D0000DF00301AE5147EC24F00001E86AE880D8
:1046E000BF15D8A082EF23F0D8A493EF23F0BF71B9
:1046F000000EF86E660EF76E2E0EF66E4EEC0DF096
:1047000044EF24F0D8B093EF23F0D8B493EF23F024
:10471000BF71000EF86E660EF76E1C0EF66E4EEC54
:104720000DF044EF24F00301AF5147EC24F00001F9
:10473000E86AE882BF15D8A0ACEF23F0D8A4BDEF9B
:1047400023F0BF73000EF86E660EF76E520EF66E13
:104750004EEC0DF044EF24F0D8B0BDEF23F0D8B408
:10476000BDEF23F0BF73000EF86E660EF76E400EBD
:10477000F66E4EEC0DF044EF24F00301B05147EC1F
:1047800024F00001E86AE884BF15D8A0D6EF23F032
:10479000D8A4E7EF23F0BF75000EF86E660EF76E33
:1047A000760EF66E4EEC0DF044EF24F0D8B0E7EF45
:1047B00023F0D8B4E7EF23F0BF75000EF86E660E55
:1047C000F76E640EF66E4EEC0DF044EF24F003012C
:1047D000B15147EC24F00001D8A0FDEF23F0BFB7A2
:1047E000FEEF23F0BF77000EF86E660EF76EBE0E7A
:1047F000F66E4EEC0DF044EF24F0BF970301B65176
:1048000047EC24F00001D8A014EF24F0BFB915EF55
:1048100024F0BF79000EF86E660EF76EAC0EF66EE1
:104820004EEC0DF044EF24F0BF990301BB5147EC6F
:1048300024F00001D8A02BEF24F0BFBB2CEF24F014
:10484000BF7B000EF86E660EF76E880EF66E4EECAD
:104850000DF044EF24F0BF9B0301BC5147EC24F062
:104860000001D8A042EF24F0BFBD43EF24F0BF7D8C
:10487000000EF86E660EF76E9A0EF66E4EEC0DF0A8
:1048800044EF24F0BF9D1200500EA36F1200E8AA5F
:1048900073EF24F0E8A873EF24F00A6E070BC90F3A
:1048A000E16E030EE26EE65000010D6E0E6AE8BE88
:1048B0000E6800010A0E0F6E000E106E30EC10F044
:1048C0000A50070BE846340FE16E010EE252E65043
:1048D000E6CF0BF00001135E0B501458E8360ABE09
:1048E0001200D8701200D890E8BA1200D880E8B848
:1048F000120000011F6E206AE8BC2080070BE82A26
:10490000D8802036E82E81EF24F030501FB6335087
:104910002014D8802062D8901FBED8701200040ED8
:10492000D56E1200D59E1200D89087B21200D880A2
:10493000D5BE1200C3C00DF0C4C00EF000013C0E85
:104940000F6E000E106E41EC10F013C00DF014C08D
:104950000EF00001240E0F6EF40E106E41EC10F0FC
:10496000C1C017F0C2C018F00001000E196E000E91
:104970001A6E17EC13F0A5C317F0A6C318F00001C8
:10498000186A34EC11F0C00E22EC0DF0000EF86E37
:10499000650EF76E8C0EF66E4EEC0DF0CB0E22EC23
:1049A0000DF0B4EC0DF0A5C313F0A6C314F0146A17
:1049B000C00E22EC0DF0B0EC0DF00001000EC36F44
:1049C000000EC46FD88012000001020E3662120081
:1049D000000133A01200FC6A22EF05F0FDEC24F088
:1049E000D8A01200FC6A70EC1EF000C2E8FF01ECD7
:1049F0001FF02EEC1FF022EF05F0000130B607EF9C
:104A000025F032A607EF25F03296D8801200D89014
:104A100012000001660E0E6EE20E0D6E50EC25F0D7
:104A20002DEC0DF00001115080EC01F012001EC1C0
:104A30000DF01FC10EF02DEC0DF012000001EF5132
:104A4000D8B41200E1CF3EF1E2CF3FF1C6EC17F04F
:104A50000001000E736F000E746F0001000E756F81
:104A6000000E766F85EC19F018EC19F052EC1BF083
:104A7000E4EC1BF0E3EC19F068EC21F086EC1FF09D
:104A800070EC21F0C9EC1AF0C5EC1CF027EC0EF02C
:104A90003EC1E1FF3FC1E2FF12000001EF691200D9
:104AA000E4EC24F00001CD6BDB6BEA6BEB6BC00E2A
:104AB00022EC0DF00DC0F6FF0EC0F7FFF86A0DC036
:104AC0000FF00EC010F04EEC0DF0FA0EBCEC0BF037
:104AD00057EC29F0D8A473EF25F0110E0D26D8B0AD
:104AE0000E2A7AEF25F0D8A087EF25F0130E0D26B9
:104AF000D8B00E2A0DC0F6FF0EC0F7FFF86A090005
:104B0000F5CF0DF00900F5CF0EF057EF25F0EEECE4
:104B100024F04AEC1EF0D8A057EF25F0150E0D2614
:104B2000D8B00E2A0DC0F6FF0EC0F7FFF86A0900D4
:104B3000F5CF11F00900F5CF12F00FC00DF010C045
:104B40000EF00900F5CF0FF00900F5CF10F00900C5
:104B5000F5CFCEF00900F5CFCFF00001B96BBA6BFD
:104B6000BB697F0EE8CFBCF012ACC3EF25F00900A3
:104B7000F5CFB9F00900F5CFBAF00900F5CFBBF0D9
:104B80000900F5CFBCF012A4CCEF25F00900F5CF59
:104B9000EAF00900F5CFEBF012A2D5EF25F00900FD
:104BA000F5CFECF00900F5CFEDF012AEDAEF25F01D
:104BB0002DEC0DF012A6DFEF25F043EC0DF012A264
:104BC00012000001E86AE8CFFBFFEDC0E8FFE8CF84
:104BD000FAFFECC0E8FFF96EE8CF0AF00FC01BF057
:104BE00010C01CF00FC0F6FF10C0F7FFF86A150EDA
:104BF000F626D8B0F72A0900F5CFE8FF0A6202EFDF
:104C000026F012000FC0F6FF10C0F7FF110EF626B7
:104C1000D8B0F72A0900F5CF0FF00900F5CF10F052
:104C20000FC0E8FF1B62F2EF25F010C0E8FF1C6226
:104C3000F2EF25F01200000110500F10D8B412004E
:104C4000E86AFB6E1050E8CFFAFF0F50F96E0001D2
:104C50000F50E16E1050E26E0001000E116245EF40
:104C600026F00FC0F6FF10C0F7FFF86A160EF62602
:104C7000D8B0F72ACEC0E1FFCFC0E2FFE7CFE8FF10
:104C8000ECEC25F0C4EC28F01200010E11624CEFA0
:104C900026F0EEEC27F01200020E116276EF26F0FD
:104CA000000112A057EF26F0CE510001B86FE6CFF9
:104CB0000AF0E5CF0BF000010AC011F00BC012F0B2
:104CC000129E129C44EC28F000010FC0E1FF10C0BE
:104CD000E2FF11C00AF012C00BF00AC0E6FFE7CFF6
:104CE000E8FFC00B0B120BC0E5FF1200030E1162B0
:104CF0008BEF26F0E7CFE8FFE83647EC27F0000E11
:104D0000D8B0E81E0A6E00010FC0E1FF10C0E2FF3C
:104D10000AC0E7FF1200040E11629CEF26F0E7CFF5
:104D2000E8FF0BEC29F00A6E00010FC0E1FF10C094
:104D3000E2FF0AC0E7FF1200050E1162AEEF26F097
:104D4000E7CFE8FF9CEC27F0E8CF0AF000010FC0A6
:104D5000E1FF10C0E2FF0AC0E7FF1200060E116279
:104D6000C4EF26F0E7CF0AF00FC0CEF010C0CFF0AE
:104D70000001A80E0F6E7A0E106E0AC0E8FFECEC70
:104D800025F0C4EC28F01200070E1162CBEF26F0DC
:104D90001BEC26F01200080E1162DCEF26F0E7CFC4
:104DA000E8FF96EC27F0E8CF0AF000010FC0E1FF22
:104DB00010C0E2FF0AC0E7FF0A0E1162FDEF26F005
:104DC000E7CFE8FF0001CE15D890D8B4D88047ECE3
:104DD00027F00001CEC00AF000010FC0E1FF10C0B3
:104DE000E2FFD8B0F8EF26F00AC0E8FFE7121200A1
:104DF0000AC0E8FFE81EE716120012000B6AD8B0DE
:104E00000B1EC00E22EC0DF0000EF86E650EF76E54
:104E1000320EF66E4EEC0DF00BA023EF27F0C80E0D
:104E200022EC0DF0280E17EC0DF0CC0E22EC0DF05C
:104E3000290E17EC0DF0CF0E22EC0DF0200E17EC22
:104E40000DF035EF27F0C80E22EC0DF0200E17EC18
:104E50000DF0CC0E22EC0DF0280E17EC0DF0CF0E5D
:104E600022EC0DF0290E17EC0DF057EC29F0D8B418
:104E70000B6AFF0ED8B00B6EEEEC24F04AEC1EF07D
:104E8000D8A00CEF27F0D8900BB0D88012000B6A96
:104E9000D8B00B1EC80E22EC0DF0000EF86E650E99
:104EA000F76E700EF66E4EEC0DF00BA06CEF27F067
:104EB000C80E22EC0DF0280E17EC0DF0CC0E22ECF3
:104EC0000DF0290E17EC0DF0CF0E22EC0DF0200E98
:104ED00017EC0DF07EEF27F0C80E22EC0DF0200E3F
:104EE00017EC0DF0CC0E22EC0DF0280E17EC0DF0A7
:104EF000CF0E22EC0DF0290E17EC0DF057EC29F037
:104F0000D8B40B6AFF0ED8B00B6EEEEC24F04AEC6E
:104F10001EF0D8A055EF27F0D8900BB0D880120023
:104F20000001BB65BB51B961B95112000001E869CC
:104F300000019D6FA0EF27F000019D6F0001E86B5D
:104F4000C80EBCEC0BF09DC0E8FF0001136E146AA4
:104F5000156A166ADEEC0DF00001E867BEEF27F077
:104F6000CD0E22EC0DF0275017EC0DF0285017EC69
:104F70000DF0295017EC0DF0CDEF27F0CC0E22EC00
:104F80000DF0275017EC0DF0285017EC0DF02E0EF9
:104F900017EC0DF0295017EC0DF07DEC29F0000115
:104FA000D8A4D9EF27F09D2BBB519D619D6FE4EFF5
:104FB00027F0D8A0E4EF27F09D51B961E4EF27F086
:104FC0009D07B9519D659D6FEEEC24F04AEC1EF0F3
:104FD000D8A0A0EF27F000019D5112001EEC25F093
:104FE000FA0EBCEC0BF0E7CFE8FFE7BEE81EE7BE29
:104FF000E82A0001136E146A156A166ADEEC0DF0D9
:10500000CB0E22EC0DF0200EE7BE2D0E17EC0DF0AE
:10501000275017EC0DF0285017EC0DF0295017EC25
:105020000DF0250E17EC0DF07DEC29F00001D8A451
:105030001DEF28F0E72A21EF28F0D8A021EF28F073
:10504000E706EEEC24F04AEC1EF0D8A0EEEF27F0D5
:105050000001EF6B120000011150BB5D1250BC59F2
:10506000D8B038EF28F0BB51116EBC51126E12004F
:10507000B951115CBA511258D8B043EF28F0B95168
:10508000116EBA51126E12002BEC28F00001BE6BAB
:105090000001B851E812D8B456EF28F0B851E16ECB
:1050A000000EE26E11C0E6FF12C0E7FFF0C0E8FF9D
:1050B0007F08E8BEE86AE866BCEC0BF011C013F0AC
:1050C00012C014F0D89014321332156A166ADEEC4E
:1050D0000DF0C90E22EC0DF0265017EC0DF02E0E3F
:1050E00017EC0DF0275017EC0DF0285017EC0DF0D1
:1050F000295017EC0DF06D0E17EC0DF0530E17EC58
:105100000DF07DEC29F00001D8A496EF28F0112ACB
:10511000D8B4122A112AD8B4122ABC51126244EF10
:1051200028F0BB511160116E44EF28F0D8A0A8EF11
:1051300028F01106D8A012061106D8A01206BA51FE
:10514000126244EF28F0B9511164116E44EF28F057
:10515000000133A2BE6933BCB3EF28F00001A00EFA
:10516000116E0F0E126E000133BEBCEF28F000016D
:10517000D00E116E070E126EEEEC24F04AEC1EF00B
:10518000D8A048EF28F01200C00E22EC0DF00FC09E
:10519000F6FF10C0F7FF4EEC0DF0FA0EBCEC0BF072
:1051A0007DEC29F0D8A4DBEF28F0110E0F26D8B043
:1051B000102AE2EF28F0D8A0EFEF28F0130E0F2608
:1051C000D8B0102A0FC0F6FF10C0F7FFF86A090028
:1051D000F5CF0FF00900F5CF10F0C4EF28F0EEEC9A
:1051E00024F04AEC1EF0D8A0C4EF28F0150E0F26CC
:1051F000D8B0102A0FC0F6FF10C0F7FFF86A0900F8
:10520000F5CF0AF00900F550CEC0E1FFCFC0E2FFB4
:105210000AC0E7FF12000F0BE8B6080B0C0DF3CF26
:1052200013F0F4CF14F00001DC0E1326700E1422DC
:10523000CC0E22EC0DF013C0F6FF14C0F7FF4EECBD
:105240000DF0FA0EBCEC0BF07DEC29F0D8A42FEF9A
:1052500029F0050E1326D8B0142A36EF29F0D8A06D
:1052600043EF29F0070E1326D8B0142A13C0F6FF17
:1052700014C0F7FFF86A0900F5CF13F00900F5CF65
:1052800014F018EF29F0EEEC24F04AEC1EF0D8A050
:1052900018EF29F0090E1326D8B0142A13C0F6FF10
:1052A00014C0F7FFF86A0900F5CFE8FF1200040EFA
:1052B000ABEC08F0040EABEC08F0C5C0E8FFC35E31
:1052C000C6C0E8FFC45AC4BE70EF29F0640EC35EC6
:1052D000000EC45AC4BE7AEF29F0D884D8901200C8
:1052E000640EC326000EC422C4AE7AEF29F0D8940F
:1052F000D8801200D894D8901200050EABEC08F0BC
:10530000050EABEC08F0C7C0E8FFC35EC8C0E8FFFD
:10531000C45AC4BE9AEF29F0640EC35E000EC45A8C
:10532000C4BEAAEF29F0C466C368C3CFF0F0D88426
:10533000D8901200640EC326000EC422C4AEAAEF99
:1053400029F0C31EC41EC466C368C3CFF0F0D8944E
:10535000D8801200D894D8901200A7EF2AF0B00E8F
:1053600022EC0DF0000EF86E660EF76EFA0EF66E79
:105370004EEC0DF0F4EF2AF00101120E1E6F670ED5
:105380001F6F0101100E206F690E216F37EC2AF09C
:1053900070EC1EF000C2E8FF01EC1FF02EEC1FF0D5
:1053A000120001012A0E1E6F670E1F6F0101020E0F
:1053B000206F6A0E216F37EC2AF0C8EF29F0010147
:1053C000420E1E6F670E1F6F0101EC0E206F6B0EF9
:1053D000216F37EC2AF0C8EF29F001015A0E1E6F39
:1053E000670E1F6F0101480E206F710E216F37ECA1
:1053F0002AF0C8EF29F00101720E1E6F670E1F6FB1
:105400000101160E206F780E216F37EC2AF0C8EFDD
:1054100029F00001DD6B01018A0E1E6F670E1F6F00
:105420000101200E206F7E0E216F37EC2AF0C8EFAD
:1054300029F00101A20E1E6F670E1F6F0101680E99
:10544000206F820E216F37EC2AF0C8EF29F001019E
:10545000BA0E1E6F670E1F6F0101E20E206F850EE0
:10546000216F37EC2AF0C8EF29F0CCEF31F017ECC0
:1054700025F020C10DF021C10EF050EC25F00DC03B
:1054800020F10EC021F1EAC026F1EBC027F10001A6
:105490001150090AD8A499EF2AF00FC00DF010C0DE
:1054A0000EF050EC25F00DC022F10EC023F1EAC041
:1054B00028F1EBC029F100011150090AD8A481EFAD
:1054C0002AF00FC00DF010C00EF050EC25F00DC00A
:1054D00024F10EC025F1EAC02AF1EBC02BF127EC34
:1054E00026F00001CDB187EF2AF02AC10FF02BC1C1
:1054F00010F01BEC26F024C10DF025C10EF065EF75
:105500002AF027EC26F00001CDB19EEF2AF028C149
:105510000FF029C110F01BEC26F020C10DF021C1C5
:105520000EF02DEC0DF022C10DF023C10EF051EF65
:105530002AF027EC26F00001CDB1120026C10FF0B1
:1055400027C110F01BEC26F037EF2AF0120000C242
:10555000E8FF81EC1EF0B00E22EC0DF0000EF86EAC
:10556000640EF76EFC0EF66E4EEC0DF0BD0E22ECE6
:105570000DF0020100510001136E146A156A166ADB
:10558000ACEC0DF0E5EC05F0FA0EBCEC0BF07DECAC
:1055900029F0D8A4D6EF2AF0610E0201002B006397
:1055A000A7EF2AF0010E006FA7EF2AF0D8A0E4EFD2
:1055B0002AF002010007000E0063A7EF2AF0600E38
:1055C0000201006FA7EF2AF04AEC1EF0D8A0C7EF47
:1055D0002AF000C2E8FFD6EC1EF000C2E8FFE8CFD8
:1055E000A5F070EC1EF01200C00E22EC0DF0E5EC00
:1055F00005F0000EE16E030EE26E960EBCEC0BF0B1
:10560000C00EE12422EC0DF0E75017EC0DF0C00EB7
:10561000E12422EC0DF03F0E22EC0DF057EC29F0C6
:10562000D8A41CEF2BF0E12A0F0EE164FDEF2AF065
:10563000000EE16EFDEF2AF0D8A028EF2BF0E10676
:10564000FF0EE162FDEF2AF00F0EE16EFDEF2AF092
:105650007DEC29F0D8A433EF2BF0E72A7A0EE7602F
:10566000E76EFDEF2AF0D8A03CEF2BF0E706200E06
:10567000E764E76EFDEF2AF04AEC1EF0D8A00EEFCB
:105680002BF0310E22EC0DF000C2E8FF01EC1FF010
:1056900012000DC02CF10EC02DF10FC02EF110C064
:1056A0002FF1D0C00DF0D1C00EF00001E80E0F6E4A
:1056B000030E106E30EC10F00001000E176E010E9C
:1056C000186E34EC11F013C0D0F014C0D1F000010A
:1056D000D251D027D351D123D4C00DF0D5C00EF074
:1056E0000001E80E0F6E030E106E30EC10F000019A
:1056F000000E176E010E186E34EC11F0D2C0D4F00B
:10570000D3C0D5F01350D45F1450D55BD0C00DF08A
:10571000D1C00EF02BEC1EF00DC0D0F00EC0D1F0B9
:10572000D2C00DF0D3C00EF02BEC1EF00DC0D2F0A5
:105730000EC0D3F0D4C00DF0D5C00EF02BEC1EF08F
:105740000DC0D4F00EC0D5F02CC10DF02DC10EF05F
:105750002EC10FF02FC110F012000DC02CF10EC0A1
:105760002DF10FC02EF110C02FF1D0C00DF0D1C01F
:105770000EF00001E80E0F6E030E106E30EC10F00C
:105780000001000E176E010E186E34EC11F0D2C03D
:10579000D0F0D3C0D1F000011350D0271450D12342
:1057A0001350D25F1450D35BD0C00DF0D1C00EF0B7
:1057B0002BEC1EF00DC0D0F00EC0D1F0D2C00DF019
:1057C000D3C00EF02BEC1EF00DC0D2F00EC0D3F003
:1057D0002CC10DF02DC10EF02EC10FF02FC110F015
:1057E00012000DC02CF10EC02DF10FC02EF110C013
:1057F0002FF1D0C00DF0D1C00EF0D2510D5ED351BB
:105800000E5A0001000E0F6E010E106E30EC10F0FB
:105810000001E80E176E030E186E34EC11F013C081
:10582000D0F014C0D1F0D2C00DF0D3C00EF0D451DE
:105830000D5ED5510E5A0001000E0F6E010E106E56
:1058400030EC10F00001E80E176E030E186E34EC09
:1058500011F013C0D4F014C0D5F02CC10DF02DC13F
:105860000EF02EC10FF02FC110F012000DC02CF160
:105870000EC02DF10FC02EF110C02FF1D0C00DF0D1
:10588000D1C00EF00001D2510D5ED3510E5A00016D
:10589000000E0F6E010E106E30EC10F00001D00EF5
:1058A000176E070E186E34EC11F013C0D0F014C050
:1058B000D1F0D0C00DF0D1C00EF00001E80E0F6E97
:1058C000030E106E30EC10F00001000E176E010E8A
:1058D000186E34EC11F000011350D2271450D3236A
:1058E0002CC10DF02DC10EF02EC10FF02FC110F004
:1058F00012000DC02CF10EC02DF10FC02EF110C002
:105900002FF10001BEA1B1EF2CF0000E00010F1825
:10591000D8B49CEF2CF0D2C013F0D3C014F0D890C0
:1059200013361436D051135ED151145A13C0D4F02B
:1059300014C0D5F0B1EF2CF0000E00010F18D8B450
:10594000B1EF2CF0D2C013F0D3C014F0D8901336BE
:105950001436D451135ED551145A13C0D0F014C06C
:10596000D1F02CC10DF02DC10EF02EC10FF02FC1C2
:1059700010F012003C0E0001B86F0001110EB56F5F
:10598000030EB66F0001D00EB36F000EB46F0B0E96
:10599000B76F1FEC23F0DB6B49EC2BF012003A0ED3
:1059A0000001B86F00011C0EB56F030EB66FC2EF99
:1059B0002CF03E0E0001B86F0001270EB56F030EEC
:1059C000B66FC2EF2CF00001110EB36F030EB46F6F
:1059D00079EC2CF0DBA1D86BF1EC2BF00001D00EB0
:1059E000B56F000EB66F0B0EB76F1FEC23F0000102
:1059F000B86B120000011C0EB36F030EB46FE8EF1A
:105A00002CF00001270EB36F030EB46FE8EF2CF0FB
:105A10000DC02CF10EC02DF10FC02EF110C02FF1D2
:105A2000030132C30DF033C30EF00001E80E0F6E18
:105A3000030E106E30EC10F00001000E176E010E18
:105A4000186E34EC11F013C032F314C033F30301B9
:105A500034513227355133232CC10DF02DC10EF0B6
:105A60002EC10FF02FC110F012000DC02CF10EC08E
:105A70002DF10FC02EF110C02FF132C30DF033C342
:105A80000EF00301345100010D5E03013551000198
:105A90000E5A0001000E0F6E010E106E30EC10F069
:105AA0000001E80E176E030E186E34EC11F013C0EF
:105AB00032F314C033F32CC10DF02DC10EF02EC102
:105AC0000FF02FC110F00001B86B1200420E000160
:105AD000B86F00013A0EB56F030EB66F0001D00E1D
