:020000040000FA
:040200006BEF03F0AD
:040208000EEF01F004
:080218002DEF01F0D8CF01F039
:10022000E0CF02F0006EF3CF03F0F4CF04F0F0ACB7
:100230001DEF01F0F0B066EC0BF0A2A023EF01F08F
:10024000A1B018EC09F003C0F3FF04C0F4FF0050A4
:1002500002C0E0FF01C0D8FF1000D8CF06F0E8CF01
:1002600005F0E0CF07F0F3CF08F0F4CF09F0F0BCD1
:100270003DEF01F0F0B066EC0BF0A2B043EF01F0FF
:10028000A1B018EC09F0A2B04CEF01F0AECFE8FF3E
:100290006ECFE8FF52EF01F09EBA05EC0FF0A4BA62
:1002A00070EC0FF008C0F3FF09C0F4FF07C0E0FFD7
:0A02B00005C0E8FF06C0D8FF1000EB
:10030000F95000011150F926DDEF29F0DFEF29F057
:10031000ECEF29F001EF2AF00FEF2AF01DEF2AF0A1
:100320002BEF2AF039EF2AF049EF2AF057EF2AF0A5
:1003300065EF2AF012000009D8A4A5EF01F0000132
:10034000000E0F6E000E106E1200E806030B0A0D71
:10035000F9CFE8FFF350F92683C00FF084C010F006
:10036000120085C00FF086C010F0120087C00FF099
:1003700088C010F0120089C00FF08AC010F012007F
:10040000EFCFE8FFE806070B0A0DF9CFE8FFF3503E
:10041000F9263CC04EF03DC04FF012003AC04EF0FD
:100420003BC04FF012003EC04EF03FC04FF01200F4
:1004300040C04EF041C04FF0120042C04EF043C0E9
:100440004FF0120044C04EF045C04FF0120046C0BD
:100450004EF047C04FF0120048C04EF049C04FF078
:1004600012000F0B060DF9CFE8FFF350F926BBC2BF
:10047000E8FF1200BCC2E8FF1200BDC2E8FF120094
:10048000BEC2E8FF1200BFC2E8FF1200C0C2E8FF10
:100490001200C1C2E8FF1200C2C2E8FF1200C3C2CC
:1004A000E8FF1200C4C2E8FF1200C5C2E8FF120054
:1004B000C6C2E8FF1200C7C2E8FF1200C8C2E8FFC8
:0E04C0001200C9C2E8FF1200CAC2E8FF120013
:100500000001E806070B0A0DF9CFE8FFF350F926C2
:100510008D510D6E8E510E6E12008F510D6E9051D9
:100520000E6E120091510D6E92510E6E120093518B
:100530000D6E94510E6E120095510D6E96510E6E09
:10054000120097510D6E98510E6E120099510D6E5A
:100550009A510E6E12009B510D6E9C510E6E120040
:100600000001E8BE33EF03F0E806070B0A0DF9CF4F
:10061000E8FFF350F9260D5073270E507423120093
:100620000D5075270E50762312000D5077270E506F
:10063000782312000D5079270E507A2312000D50A6
:100640007B270E507C2312000D507D270E507E23F9
:1006500012000D507F270E50802312000D5081276D
:100660000E5082231200E806070B0A0DF9CFE8FFAF
:10067000F350F9260D50736F0E50746F12000D5029
:10068000756F0E50766F12000D50776F0E50786FA9
:1006900012000D50796F0E507A6F12000D507B6F63
:1006A0000E507C6F12000D507D6F0E507E6F120049
:1006B0000D507F6F0E50806F12000D50816F0E50E5
:1006C000826F1200F2AE12000001010EA16FA1674D
:1006D00067EF03F0120092988088939C819C000140
:1006E0005B6A5C6A640E9DEC0BF092988088000156
:1006F000546A640E9DEC0BF00F018350306E316E26
:10070000326E0F018450336E346E356E0F01999046
:10071000878094969394829681940001000E176EC0
:10072000000E186E0001000E196E000E1A6E000108
:10073000000E1B6E000E1C6E0001000E1D6E000EE2
:100740001E6E0001000E136E000E146E0001000EEE
:10075000156E000E166E0001000EAB6F000EAC6F32
:100760000001000EAD6F000EAE6F0001000EAF6F06
:10077000000EB06F0001000EB16F000EB26F0001ED
:100780005E6A5F6A606BA16BA26BA36BE769E96B42
:100790000201BA6B0101116B0001CC6B47EC32F026
:1007A000020100510001A56F040E93EC08F0040E45
:1007B00093EC08F00001C350C56FC450C66F050E1E
:1007C00093EC08F0050E93EC08F00001C350C76FDE
:1007D000C450C86F000EE8CF0DF0E86AE8CF0EF005
:1007E000A8EC0BF0E8CF00F5010EE8CF0DF0E86AB9
:1007F000E8CF0EF0A8EC0BF0E8CF01F5C0EC0CF060
:10080000FA0E9DEC0BF0FA0E9DEC0BF0FA0E9DEC3F
:100810000BF0FA0E9DEC0BF0C8EC08F0BFEC24F0E6
:100820009EEC0EF0B2EC0EF0F28EF28CD08E0F0138
:10083000D89083B6D880D8B023EF04F00A0E9DEC90
:100840000BF00F01D89083B6D880D8B039EF04F000
:100850000F01D89084B2D880D8B034EF04F00A0EDB
:100860009DEC0BF00F01D89084B2D880D8A05BEF3C
:1008700004F08BEC1EF00201A50EA76346EF04F016
:10088000E70EA86346EF04F04AEF04F047EC32F0BD
:10089000C9EC0BF000C2E8FF06EC1FF00301AD51FC
:1008A0000201A56FE9EC0AF064EC0AF00101F20E16
:1008B000066FA1EC0AF00F01D89084B2D880D8A0BE
:1008C0005BEF04F00A0E9DEC0BF00F01D89084B2A0
:1008D000D880D8A05BEF04F00F01D89084B4D88002
:1008E000D8B078EF04F00A0E9DEC0BF00F01D89011
:1008F00084B4D880D8B08EEF04F00F01D89083B6BE
:10090000D880D8B089EF04F00A0E9DEC0BF00F01EF
:10091000D89083B6D880D8A0BBEF07F00201A0C260
:100920000AF00201FF0E0AB0A56FA561FBEF04F00B
:100930000301A6A1DBEF04F00F0183BEDBEF04F09F
:10094000800E18EC0DF0000EF86E650EF76EFE0EC0
:10095000F66E7EEC0DF0C00E18EC0DF0000EF86E89
:10096000650EF76EA40EF66E7EEC0DF00F01D890BA
:1009700084B4D880D8B0C2EF04F00A0E9DEC0BF01E
:100980000F01D89084B4D880D8B0B6EF04F00F012E
:10099000D89084B4D880D8A0C7EF04F00A0E9DEC9C
:1009A0000BF00F01D89084B4D880D8A0C7EF04F022
:1009B000C80E9DEC0BF00201D1B1E2EF04F0D1A31F
:1009C000FBEF04F0800E00019D6F5EEC31F0D890DB
:1009D0002EEC27F0D8B0F2EF04F00201FF0EA56F65
:1009E000FBEF04F0E9EC0AF064EC0AF0A1EC0AF089
:1009F0000A0E9DEC0BF00001010E366EA3C252F000
:100A0000A4C253F00201A25100014D6E62EC23F02A
:100A10005EEC1FF0FCAE10EF05F00F019394819493
:100A2000000133B030EF05F0010E366296EF05F0AD
:100A30000001050EE8CF5DF0070E37EC0AF0020E5C
:100A4000366E0001A5510201006329EF05F096EF13
:100A500005F0006F06EC1FF05EEC1FF096EF05F05E
:100A6000010E366E03EC23F0F6EC17F040EC07F0C5
:100A70000201A1A161EF05F00301B65177EC24F06A
:100A8000D8A061EF05F00201B76759EF05F0ABC0E0
:100A900073F0ACC074F0ADC075F0AEC076F0AFC00E
:100AA00077F0B0C078F0B1C079F0B2C07AF061EF01
:100AB00005F0F08CF086A290E868E8CFEEF067EFE2
:100AC00005F0F09CF086A280E86AE8CFEEF0020123
:100AD000A0B186EF05F028EC17F0D8B486EF05F04A
:100AE000B5EC19F048EC19F082EC1BF014EC1CF09A
:100AF00013EC1AF098EC21F0B6EC1FF0A0EC21F00A
:100B0000F9EC1AF00001E96735EC10F062EC03F043
:100B1000F5EC1CF057EC0EF00001A26794EF05F025
:100B20000A0EA26FDEEC05F00AEF05F0800E18EC5D
:100B30000DF0000EF86E670EF76E300EF66E7EEC5E
:100B40000DF0C00E18EC0DF0000EF86E650EF76E8D
:100B5000A40EF66E7EEC0DF07AEC1EF0D8A0B3EF8A
:100B600005F039EC25F0F6EC17F0B5EC19F048EC8F
:100B700019F082EC1BF014EC1CF013EC1AF098EC5A
:100B800021F0B6EC1FF0A0EC21F0F9EC1AF0F5EC36
:100B90001CF057EC0EF00AEF05F00001100E0B6E82
:100BA000C00E18EC0DF0000EE16E030EE26EE65082
:100BB00009EC0DF00B2ED7EF05F012000001840EAA
:100BC00018EC0DF0200E09EC0DF00201520EA5BF3D
:100BD000200E000109EC0DF00601CE5177EC24F057
:100BE000410ED8A0200E09EC0DF00301B25177ECB4
:100BF00024F04D0ED8B02D0E09EC0DF00301B351C9
:100C000077EC24F04D0ED8B02D0E09EC0DF0030159
:100C1000B45177EC24F04D0ED8B02D0E09EC0DF048
:100C2000200E09EC0DF0800E18EC0DF0B9C20DF09D
:100C3000BAC20EF00E6A0001640E0F6E000E106E46
:100C400060EC10F013C011F014C012F08BC00DF066
:100C50008CC00EF013C20FF014C210F060EC10F054
:100C60001450E8CF13F01550E8CF14F0156A0101C5
:100C700011B14BEF06F000011150135C12501458E3
:100C8000E8AE4BEF06F0C90E00015D6E050E37ECC5
:100C90000AF00101116900010EEC0EF0200EE8CF00
:100CA0000AF0300E25640AC025F0255009EC0DF03D
:100CB000265009EC0DF02E0E09EC0DF0275009EC32
:100CC0000DF00301B65177EC24F0D8A071EF06F0D7
:100CD000800E18EC0DF000C513F001C514F0E4EC23
:100CE0000DF00201B8AF8AEF06F0B86B000EE8CF46
:100CF0000DF0E86AE8CF0EF000C5E8FFB3EC0BF0AA
:100D0000010EE8CF0DF0E86AE8CF0EF001C5E8FF6C
:100D1000B3EC0BF069EC07F0D8B0B4EF06F07AEC66
:100D200007F0D8B0B4EF06F0C4EC24F0D8B0B4EFBC
:100D300006F096EC23F00001A351E812D8A4B4EF1A
:100D400006F00201A0A1B2EF06F0C00E18EC0DF003
:100D5000000EF86E650EF76EBE0EF66E7EEC0DF0B0
:100D6000B4EF06F0CDEC05F0000133B4CFEF06F0A0
:100D700035A4CFEF06F03594010E5D6E050E37EC0D
:100D80000AF000015466CEEF06F0542ABEC358F0B4
:100D9000BFC359F0CA6BCB6BCFEF06F0540600010E
:100DA00054A002EF07F0596602EF07F03B0E5A62BB
:100DB000E1EF06F0050E5D6E0A0E37EC0AF002EF69
:100DC00007F01E0E5A62ECEF06F0030E5D6E0A0E7F
:100DD00037EC0AF002EF07F00A0E5A62F7EF06F05E
:100DE000010E5D6E0A0E37EC0AF002EF07F0060EF8
:100DF0005A6002EF07F0010E5D6E0A0E37EC0AF042
:100E000002EF07F07F0E5A6E5650CE6F5750CF6FDD
:100E1000010E54622BEF07F058505910D8B41AEF56
:100E200007F05850CE6F5950CF6F000E0301BD63CD
:100E30002BEF07F0020E0301BD5DD8B427EF07F0DA
:100E40000001CA51CE6FCB51CF6F2BEF07F0E86A8C
:100E50000001CE6FCF6F00018B0E18EC0DF0CF515B
:100E6000E8CF13F0146A156A166ADCEC0DF03A0E3E
:100E700009EC0DF0CE51E8CF13F0DCEC0DF01200D0
:100E80000301C05177EC24F0D8A066EF07F003010E
:100E9000000EC16563EF07F000017ABF66EF07F04F
:100EA0000301C15100010D6E0E6A00010A0E0F6EA2
:100EB000000E106E60EC10F07951135E7A51145CE4
:100EC000D8B066EF07F00001E76912000001E76B98
:100ED0001200D8900001CCAF1200C00E18EC0DF03B
:100EE000000EF86E660EF76E6A0EF66E7EEC0DF072
:100EF000D88012000D0E93EC08F00D0E93EC08F064
:100F000069C00DF06AC00EF0A9C20FF0AAC210F0BD
:100F100060EC10F000011450136E1550146E165052
:100F2000156E166A0EEC0EF00001255026100F0B00
:100F3000D890D8B41200C00E18EC0DF0000EF86E68
:100F4000660EF76E580EF66E7EEC0DF0CB0E18ECBA
:100F50000DF00001255009EC0DF0265009EC0DF0C4
:100F60002E0E09EC0DF0275009EC0DF0285009EC7D
:100F70000DF0D88012000F01D89084B4D880D8A08A
:100F8000BBEF07F00A0E9DEC0BF00F01D89084B474
:100F9000D880D8A0BBEF07F00F01D89083B6D880D7
:100FA000D8A0CCEF07F00A0E9DEC0BF00F01D89003
:100FB00083B6D880D8A0CCEF07F0800E18EC0DF0E7
:100FC0000F0183509BEC0DF00F0184509BEC0DF052
:100FD000C00E18EC0DF00F0186509BEC0DF00F01C8
:100FE00087509BEC0DF00F01835082868184E8B01E
:100FF0008296E8B281948098E8B48088320E9DECA5
:101000000BF00F01D89084B4D880D8B00DEF08F061
:101010000A0E9DEC0BF00F01D89084B4D880D8B0A4
:10102000DDEF07F00F01D89084B4D880D8A012EF7C
:1010300008F00A0E9DEC0BF00F01D89084B4D88014
:10104000D8A012EF08F0C00E18EC0DF0000EF86EEC
:10105000650EF76E140EF66E7EEC0DF000010D6A53
:10106000800E18EC0DF0000EF86E650EF76E4A0E4D
:10107000F66E7EEC0DF0870E18EC0DF000010D50B1
:10108000A8EC0DF093EC08F08C0E18EC0DF00F01AD
:10109000C4CFE8FFA8EC0DF00F01C3CFE8FFA8EC28
:1010A0000DF0320E9DEC0BF00F01D89084B4D88077
:1010B000D8B060EF08F00A0E9DEC0BF00F01D8904D
:1010C00084B4D880D8B030EF08F00F01D89084B441
:1010D000D880D8A065EF08F00A0E9DEC0BF00F0148
:1010E000D89084B4D880D8A065EF08F000010D2A0C
:1010F0000C0E0D6430EF08F0DDEF07F00001136A0D
:10110000146A156A166A0A6E0B6A0A5093EC08F0A4
:101110000001C3501326C4501422D8B0152A0B2E38
:1011200085EF08F012000A6EA10EC06E000EC16EAF
:101130000AC0E8FF31EC02F0E8AEC188E89EE8445E
:10114000E844C26EC2800000C282C2B2A5EF08F0BD
:101150000001C3CF69F0C4CF6AF00AC0E8FF1200F3
:101160000F01C282C2B2B2EF08F00001C35069277A
:10117000C4506A23120093EC08F0B0EC08F0B0EC15
:1011800008F0B0EC08F000016A336A9F693312007E
:1011900000014C6A566A576A280EE8CF55F00001E4
:1011A000900E526E010E536E0001900E4E6E010EA7
:1011B0004F6E506A516A100E0001E8CF4DF0386A48
:1011C0003A6A3C6A3E6A406A426A446A466A486AC7
:1011D0004A6A080EE8CF39F0E8CF3BF0E8CF3DF09F
:1011E000E8CF3FF0E8CF41F0E8CF43F0E8CF45F05B
:1011F000E8CF47F0E8CF49F0E8CF4BF0979E858ED7
:10120000000152500F01E8CFBBFF010153500F0105
:10121000E8CFBCFF0A0E0F01E8CFBAFF0F01A08094
:101220000F019E900F01080EE8CFB1FFB1801200B0
:101230000001EEA1857E0201BAAF22EF09F08770AE
:101240002AEF09F00001E5B129EF09F087802AEFC4
:1012500009F087900001BBCFE8FF4E26BCCFE8FF26
:101260004F224EC0E8FFE8CFBBFF4FC0E8FFE8CFFA
:10127000BCFF0001E86A4C64A1EC09F000014C2AB3
:101280004CC0E8FFFE0B4D6057EF09F04C6A500E62
:10129000E8CF4EF050C0E8FF4E5EC30EE8CF4FF0EF
:1012A00051C0E8FF4F5A506A516A9EEF09F04CA0B6
:1012B0006CEF09F052C0E8FFE8CF4EF053C0E8FFF2
:1012C000E8CF4FF0BAC2E8FF0001E5814C6298EF29
:1012D00009F0E59198EF09F0120E4C6284EF09F0E5
:1012E00050C0E8FFE8CF4EF051C0E8FFE8CF4FF024
:1012F0004F324E324F324E324F324E324F324E32EA
:101300000F0E4F1698EF09F0040EE8CFEAFF000E1B
:10131000E8CFE9FF4CC0E8FFE830E89EE804E926A2
:1013200000EC02F052C0E8FF4E5E53C0E8FF4F5A97
:101330004EC0E8FF50264FC0E8FF51220F01A19098
:1013400012008CEC0EF096EC0EF00001010E3662ED
:10135000B0EF09F000018286BDB18296FF0EBD6F2D
:1013600087900301CDBFB8EF09F0859EB9EF09F072
:10137000858E0001552EFFEF09F0C2EC24F000012C
:1013800054A0EFEF09F00001FF0EE763EFEF09F063
:1013900058C0E8FF5910D8B4E7EF09F05866D4EF09
:1013A00009F03C0E586E5906580658505A6E030103
:1013B000E86ABD11D8B4E7EF09F0000158505910A0
:1013C000D8B4E7EF09F0CA6BCB6BEFEF09F000017F
:1013D000CA2B3C0ECA63EFEF09F0CA6BCB2B280E69
:1013E000E8CF55F0562A3C0E5662FFEF09F0566AD8
:1013F000572A0501002BD8B4012B0201B86902015C
:10140000A1A108EF0AF0530EBEEC0EF00001A86B8C
:10141000000183CFE8FF311AD8A4306E316E30C09E
:10142000E8FF3212000184CFE8FF341AD8A4336EEB
:10143000346E33C0E8FF351200015E665E065F66FB
:101440005F0660676007A167A107A267A207A3679D
:10145000A3075C662DEF0AF012005C2E1200807864
:101460005D4E12005BC0E8FFE8CF5CF01200E8CFF1
:101470005BF0E8CF5CF08098120000010ABE44EFF8
:101480000AF0819E45EF0AF0818E828A829A0A468E
:101490000B2E3DEF0AF012000201AD510A6E080E4C
:1014A0000B6E3DEC0AF00201AC510A6E080E0B6E99
:1014B0003DEC0AF00201AB510A6E080E0B6E3DECDA
:1014C0000AF08686869612000BC113F00CC114F048
:1014D0000DC115F009C117F00AC118F064EC11F044
:1014E0000201A55101010F03F35000011326D8B0EA
:1014F000142AD8B0152A0101006B016B026B0001A0
:101500001350E846E846E880E8921F0B13B6E88ED1
:101510000101006F000113361436153613361436E8
:101520001536133614361536133614361536145050
:101530000101016F000115501F0B01011009026F1D
:10154000120064EC0AF0010108510A6E080E0B6EDD
:101550003DEC0AF0010107510A6E080E0B6E3DECDE
:101560000AF0010106510A6E080E0B6E3DEC0AF0FE
:1015700086868696010105510A6E080E0B6E3DECBB
:101580000AF0010104510A6E080E0B6E3DEC0AF0E0
:10159000010103510A6E080E0B6E3DEC0AF08686BF
:1015A0008696010102510A6E080E0B6E3DEC0AF0A0
:1015B000010101510A6E080E0B6E3DEC0AF00101AB
:1015C00000510A6E080E0B6E3DEC0AF08686869678
:1015D00012000F01939E949A939C819C819E829A03
:1015E000989686960201D1A118EF0BF0D1B318EFAF
:1015F0000BF004C206F105C207F106C208F101C2F0
:1016000003F102C204F103C205F10101700E0B6F78
:10161000C60E0C6F000E0D6F0101140E096F000E47
:101620000A6F01010E6B0A0E106F010E0F6F120090
:101630000201D1B13EEF0BF0D1A33EEF0BF00AC295
:1016400006F10BC207F10CC208F107C203F108C290
:1016500004F109C205F101016C0E0B6FCF0E0C6F86
:10166000000E0D6F0101640E096F000E0A6F01017B
:101670000E6B080E106F010E0F6F12000201D1B138
:1016800065EF0BF0D1B365EF0BF010C206F111C29C
:1016900007F112C208F10DC203F10EC204F10FC22C
:1016A00005F101014A0E0B6F190E0C6F010E0D6F43
:1016B00001010A0E096F000E0A6F01010B0E0E6F79
:1016C000320E106F020E0F6F1200120087B284EFFD
:1016D0000BF0D5AE76EF0BF0D6CFC1F0D7CFC2F07E
:1016E0000001C32BD8B4C42BF09012000001C351E9
:1016F000C411F090D8A41200E86AE8CFD7FFE8CF71
:10170000D6FFD58EF0901200F17AF0AC96EF0BF088
:101710000301CDA192EF0BF0F1AA859EF1BA858E5F
:1017200096EF0BF0F1AA858EF1BA859EF09012002B
:101730000000E82E98EF0BF012000A6EFA0E98ECFB
:101740000BF0FA0E98EC0BF00A2E9EEF0BF0120045
:101750000EC0E8FFAA6E0DC0E8FFA96EA69EA69C6B
:10176000A680A8501200A86E0EC0E8FFAA6E0DC099
:10177000E8FFA96EA69EA69CA684F29E550EA76EB3
:10178000AA0EA76EA682F28EA1A8C4EF0BF0A198B4
:101790001200800E18EC0DF0000EF86E660EF76E5B
:1017A000100EF66E7EEC0DF0C00E18EC0DF0000E73
:1017B000F86E650EF76E920EF66E7EEC0DF077EC1D
:1017C00027F0D8A009EF0CF0C00E18EC0DF0000EB9
:1017D000F86E660EF76E220EF66E7EEC0DF047EC9C
:1017E00032F0A0EC1EF00001600E9E6F00C2E8FF18
:1017F00031EC1FF00201002B0301072B3A0E0763A7
:1018000005EF0CF0062B300E076F00019E2FF6EF50
:101810000BF08BEC1EF000C2E8FF06EC1FF012008C
:1018200000011550F86E1450F76E1350F66E00015B
:101830000E50E26E0D50E16E0900F550E66E0A069C
:101840000900F550E66E0A2E1CEF0CF012000001A4
:101850001550F86E1450F76E1350F66EA68EA69CB7
:10186000A684A688F29E550EA76EAA0EA76EA68223
:101870000000F28E0001400E1326000E14221522E5
:101880000A2E27EF0CF0120062EC03F00001155055
:10189000F86E1450F76E1350F66EA68EA69CA684B2
:1018A000A688F29E550EA76EAA0EA76EA682F28E8D
:1018B0000A0000010E50E26E0D50E16E400E0B6EFC
:1018C000E6CFE8FFF56E0F000B2EFAD7A68EA69C8A
:1018D000A684F29E550EA76EAA0EA76EA682F28E61
:1018E000A6940001400E1326000E142215220001BA
:1018F000400E0D26000E0E220A2E44EF0CF01200B0
:1019000000011550F86E1450F76E1350F66EA68E47
:10191000A69CA684A688F29E550EA76EAA0EA76E58
:10192000A6820000F28E0A00080E0B6E00010E5017
:10193000E26E0D50E16E080E0C6EE6CFE8FFF56E1C
:101940000F000C2EFAD7A68EA69CA684F29E550EEA
:10195000A76EAA0EA76EA6820000F28E0B2EEBD702
:10196000A6940001400E1326000E14221522000139
:10197000400E0D26000E0E220A2E80EF0CF01200F3
:101980000F019A6A886A9396939A93988186818ABE
:101990008188140E9DEC0BF0390E18EC0DF0050E3D
:1019A0009DEC0BF0390E18EC0DF0010E9DEC0BF0D8
:1019B000390E18EC0DF0010E9DEC0BF0390E18EC01
:1019C0000DF01C0E18EC0DF0520E18EC0DF0690E17
:1019D00018EC0DF0740E18EC0DF00E0E18EC0DF066
:1019E000010E18EC0DF0060E18EC0DF0800E18EC40
:1019F0000DF0650EF76E260EF66E7EEC0DF0C00E45
:101A000018EC0DF0650EF76E380EF66E7EEC0DF0EC
:101A1000120027EC0DF03BEC0DF0818A819800005C
:101A20000000818600000000819600000000120086
:101A300027EC0DF03BEC0DF0819A8198000000003E
:101A400081860000000081960000000012002EEC4C
:101A50000DF0D8B027EF0DF09A6A12009A688188CD
:101A6000819A00000000818600000000D89088BEA6
:101A7000D88081961200886E12001010101010107D
:101A8000101018181818181818181C1C1C1C1C1CCE
:101A90001C1C1E1E1E1E1E1E1E1E01010101010118
:101AA00001010303030303030303070707070707F2
:101AB00007070F0F0F0F0F0F0F0F800E18EC0DF011
:101AC0000DC0F6FF0EC0F7FFF86A7EEC0DF01200B5
:101AD000C00E18EC0DF00DC0F6FF0EC0F7FFF86A4F
:101AE0007EEC0DF01200C00E18EC0DF0CEC0F6FF2B
:101AF000CFC0F7FFF86A7EEC0DF01200100E81EFF8
:101B00000DF00A6E0900F5CFE8FFE812D8B49AEF9D
:101B10000DF009EC0DF00A4E9AEF0DF00900F5CF2B
:101B2000E8FFE812D8B49AEF0DF009EC0DF00A2E98
:101B300082EF0DF012000A6E080E0B6E300E0ABE18
:101B4000310E09EC0DF00A360B2E9EEF0DF012004F
:101B50000A6E3A0E0B6E0AC0E8FFF00BE842E8424C
:101B6000E842E84230090B64070F09EC0DF00AC0A7
:101B7000E8FF0F0B30090B64070F09EC0DF00AC0EA
:101B8000E8FF12000EEC0EF0255009EC0DF0265087
:101B900009EC0DF0275009EC0DF0285009EC0DF080
:101BA000295009EC0DF012000EEC0EF0C7EF0DF00D
:101BB0000EEC0EF0CAEF0DF00EEC0EF0CDEF0DF0C6
:101BC0000EEC0EF0D0EF0DF00EEC0EF0F8EC0DF088
:101BD000255009EC0DF0265009EC0DF0275009ECCA
:101BE0000DF0285009EC0DF0295009EC0DF0120011
:101BF0000001300E25621200200E256E300E266286
:101C00001200200E266E300E27621200200E276E64
:101C1000300E28621200200E286E12000001196A90
:101C20001A6A100E176E270E186E64EC11F0300E43
:101C30001310256E1BC013F01CC014F01DC015F04E
:101C40001EC016F0196A1A6AE80E176E030E186E97
:101C500064EC11F0300E1310266E1BC013F01CC084
:101C600014F01DC015F01EC016F0196A1A6A640E31
:101C7000176E000E186E64EC11F0300E1310276E04
:101C80001BC013F01CC014F01DC015F01EC016F0D0
:101C9000196A1A6A0A0E176E000E186E64EC11F0BB
:101CA000300E1310286E300E1B10296E120000012A
:101CB000310E376260EF0EF08BEC1EF08AEF0EF003
:101CC000320E37626AEF0EF000C2E8FF06EC1FF03A
:101CD0008AEF0EF0330E376272EF0EF0A0EC1EF0BA
:101CE0008AEF0EF0340E37627AEF0EF000C2E8FF92
:101CF00031EC1FF0350E37628AEF0EF00001FF0E57
:101D00000D6E030E0E6EE8CF0EF0FF0EB3EC0BF06F
:101D10008AEF0EF0376A12000F01ABA21200AB98E7
:101D2000AB880F01AE500001616B12000F016BA276
:101D300012006B986B880F016E5012000C0EE8CFEA
:101D4000AFFF220EE8CFACFF900EE8CFABFF000153
:101D5000616B9F9A9D8A1200ACA2ACEF0EF0E8CFA7
:101D6000ADFF1200000EE8CF6FFF220EE8CF6CFF30
:101D7000900EE8CF6BFFA59AA38A12006CA2BEEF6B
:101D80000EF0E8CF6DFF1200E1CF21F0E2CF22F09C
:101D9000000165C0E1FF000164C0E2FF686BACA216
:101DA000CFEF0EF0E6CFE8FF00016827E8CFADFFE8
:101DB0000001662FCFEF0EF021C0E1FF22C0E2FF4D
:101DC0001200E1CF21F0E2CF22F0000165C0E1FF77
:101DD000000164C0E2FF686B0001050E5E6EE86AF8
:101DE0005E6400EF0FF09EAAF0EF0EF0AECFE8FFBA
:101DF000E8CFE6FF000168270001662FECEF0EF048
:101E000021C0E1FF22C0E2FF12009EAA12000001E1
:101E1000000E616318EF0FF0AECFE8FFE8CF62F07D
:101E2000550E62631200280EE8CF5FF0612B12009E
:101E3000010E616322EF0FF0AECFE8FFE8CF63F051
:101E4000612B1200020E61632CEF0FF0AECFE8FFA2
:101E5000E8CF64F0612B1200030E616336EF0FF0E0
:101E6000AECFE8FFE8CF65F0612B1200040E61638E
:101E70003FEF0FF0AECFE8FFE8CF66F0612B050E25
:101E800061634BEF0FF0010E636349EF0FF0E1EC7C
:101E90000EF0612B1200060E61636EEF0FF0AECFF5
:101EA000E8FFE8CF67F0020E63635FEF0FF0C4EC6A
:101EB0000EF068C0E8FFACEC0EF0616B120068C079
:101EC000E8FF676369EF0FF00C0EACEC0EF0616B8E
:101ED00012000D0EACEC0EF0616B1200616B120083
:101EE000A4AA12006ECFE8FF0201A1B1A4EF0FF087
:101EF000530AD8A412000201A0A1120000010F0E83
:101F000074151009BEEC0EF073C0E8FFBEEC0EF0C5
:101F100000010F0E76152009BEEC0EF07551BEECD7
:101F20000EF000010F0E78153009BEEC0EF077515F
:101F3000BEEC0EF000010F0E7A154009BEEC0EF05B
:101F40007951BEEC0EF012000001A8B1ABEF0FF01A
:101F5000AA6FA82B1200A96FA82B020EA863C4EFCA
:101F60000FF0AA51F00B100AD8A409EF10F00F0ED1
:101F7000AA17AAA7BEEF0FF0F00EAA13A9C0ABF0E4
:101F8000AAC0ACF009EF10F0040EA863DBEF0FF06D
:101F9000AA51F00B200AD8A409EF10F00F0EAA17CF
:101FA000AAA7D5EF0FF0F00EAA13A9C0ADF0AAC0F2
:101FB000AEF009EF10F0060EA863F2EF0FF0AA5191
:101FC000F00B300AD8A409EF10F00F0EAA17AAA739
:101FD000ECEF0FF0F00EAA13A9C0AFF0AAC0B0F05A
:101FE00009EF10F0080EA86309EF10F0AA51F00BEA
:101FF000400AD8A409EF10F00F0EAA17AAA703EF02
:1020000010F0F00EAA13A9C0B1F0AAC0B2F009EF07
:1020100010F012000C0E0F016F6E220E6C6E900EFF
:10202000E8CF6BFF12000001E80E0D26030E0E2212
:10203000780E0D5C070E0E58D8A022EF10F0EF0EB0
:1020400029EF10F00E320D320E320D320E320D32FB
:102050000D50BEEF0EF0BC0E0D5C030E0E58D8A056
:1020600024EF10F0EF0E29EF10F0F00EBEEC0EF0A2
:10207000800EBEEC0EF073C00DF074C00EF013ECC9
:1020800010F075C00DF076C00EF013EC10F077C0B4
:102090000DF078C00EF013EC10F079C00DF07AC09E
:1020A0000EF02BEC10F07BC00DF07CC00EF02BEC92
:1020B00010F07DC00DF07EC00EF02BEC10F0120081
:1020C00071EC10F010AE69EF10F00D50155E0E506F
:1020D000165A0EAE70EF10F00F50155E1050165AD3
:1020E00012000001136A146A156A166A0F500D0275
:1020F000F3CF13F0F4CF14F00F500E02F350142668
:10210000F4501522D8B0162A10500D02F3501426A0
:10211000F4501522D8B0162A10500E02F35015268E
:10212000F450162212000001246A1B6A1450131086
:10213000D8B4000C14501718E8BE241EA46B000E6F
:1021400017AEA5EF10F0171E172A14AEACEF10F063
:10215000131E141E132A142214501710E8BE38EF51
:1021600011F017501B5E143614341B3617501B2603
:10217000143614341B36175014B01B5E14A01B26E3
:10218000143614341B36175014B01B5E14A01B26D3
:10219000143614341B36175014B01B5E14A01B26C3
:1021A000143614341B36175014B01B5E14A01B26B3
:1021B000143614341B36175014B01B5E14A01B26A3
:1021C000143614341B36175014B01B5E14A01B2693
:1021D000143613341B36175014B01B5E14A01B2684
:1021E000133613341B36175013B01B5E13A01B2677
:1021F000133613341B36175013B01B5E13A01B2667
:10220000133613341B36175013B01B5E13A01B2656
:10221000133613341B36175013B01B5E13A01B2646
:10222000133613341B36175013B01B5E13A01B2636
:10223000133613341B36175013B01B5E13A01B2626
:10224000133613341B36175013B01B5E13A01B2616
:10225000133613A01B26A4B156EF11F024AE000CC8
:10226000131E141EE86A132A14221B1E1B2A000CBC
:1022700017AE51EF11F014BE4DEF11F0E8CF9DF005
:102280001350E8CF1BF01B9E133614361450E8CFC2
:1022900013F09D51146A2EEF11F0136A132A146A79
:1022A000000C141E131EA42BB1EF10F01B2A1750A4
:1022B0001B622EEF11F01B6A000E132A142214AEBB
:1022C0002EEF11F02388FF0C0001246A1C6A1B6AA0
:1022D000155014101310D8B4000C15501818E8BE7F
:1022E000241EA46B000E18AE7AEF11F0171E181EF4
:1022F000172A182215AE83EF11F0131E141E151E97
:10230000132A1422152215501810E8BE0DEF13F0F1
:1023100017501B5E18501C5A153615341B361C36C8
:1023200017501B2618501C22153615341B361C3628
:10233000175015A0A1EF11F01B5E18501C5AA4EF06
:1023400011F01B2618501C22153615341B361C366E
:10235000175015A0B1EF11F01B5E18501C5AB4EFC6
:1023600011F01B2618501C22153615341B361C364E
:10237000175015A0C1EF11F01B5E18501C5AC4EF86
:1023800011F01B2618501C22153615341B361C362E
:10239000175015A0D1EF11F01B5E18501C5AD4EF46
:1023A00011F01B2618501C22153615341B361C360E
:1023B000175015A0E1EF11F01B5E18501C5AE4EF06
:1023C00011F01B2618501C22153615341B361C36EE
:1023D000175015A0F1EF11F01B5E18501C5AF4EFC6
:1023E00011F01B2618501C22153614341B361C36CF
:1023F000175015A001EF12F01B5E18501C5A04EF85
:1024000012F01B2618501C22143614341B361C36AE
:10241000175014A011EF12F01B5E18501C5A14EF45
:1024200012F01B2618501C22143614341B361C368E
:10243000175014A021EF12F01B5E18501C5A24EF05
:1024400012F01B2618501C22143614341B361C366E
:10245000175014A031EF12F01B5E18501C5A34EFC5
:1024600012F01B2618501C22143614341B361C364E
:10247000175014A041EF12F01B5E18501C5A44EF85
:1024800012F01B2618501C22143614341B361C362E
:10249000175014A051EF12F01B5E18501C5A54EF45
:1024A00012F01B2618501C22143614341B361C360E
:1024B000175014A061EF12F01B5E18501C5A64EF05
:1024C00012F01B2618501C22143614341B361C36EE
:1024D000175014A071EF12F01B5E18501C5A74EFC5
:1024E00012F01B2618501C22143613341B361C36CF
:1024F000175014A081EF12F01B5E18501C5A84EF85
:1025000012F01B2618501C22133613341B361C36AF
:10251000175013A091EF12F01B5E18501C5A94EF45
:1025200012F01B2618501C22133613341B361C368F
:10253000175013A0A1EF12F01B5E18501C5AA4EF05
:1025400012F01B2618501C22133613341B361C366F
:10255000175013A0B1EF12F01B5E18501C5AB4EFC5
:1025600012F01B2618501C22133613341B361C364F
:10257000175013A0C1EF12F01B5E18501C5AC4EF85
:1025800012F01B2618501C22133613341B361C362F
:10259000175013A0D1EF12F01B5E18501C5AD4EF45
:1025A00012F01B2618501C22133613341B361C360F
:1025B000175013A0E1EF12F01B5E18501C5AE4EF05
:1025C00012F01B2618501C22133613341B361C36EF
:1025D000175013A0F1EF12F01B5E18501C5AF4EFC5
:1025E00012F01B2618501C22133613B0FCEF12F009
:1025F00017501B2618501C22A4B131EF13F024AE43
:10260000000C131E141E151E000E132A1422152270
:102610001B1E1C1E1B2A1C22000C18AE2BEF13F0D5
:1026200015BE26EF13F0E8CF9DF01450E8CF1CF054
:102630001350E8CF1BF01C9E143615361550E8CF0A
:1026400013F09D51156A146AFFEF12F0136A132AF2
:10265000146A156A000C151E141E131EA42B88EF95
:1026600011F01B2AE86A1C2217501B62FFEF12F0C0
:1026700018501C62FFEF12F01C6A1B6A000E132A2E
:102680001422152215AEFFEF12F02388FF0C1E6AEC
:102690001D6A1C6A1B6A16341B361C361D361E3614
:1026A00017501B5E18501C5A19501D5A1A501E5AAA
:1026B000A46AA45B163616341B361C361D361E362D
:1026C000A437175016A070EF13F01B5E18501C5A59
:1026D00019501D5A1A501E5AE86AA45B79EF13F07C
:1026E0001B2618501C2219501D221A501E22E86A5F
:1026F000A423163616341B361C361D361E36A43758
:10270000175016A08FEF13F01B5E18501C5A19506B
:102710001D5A1A501E5AE86AA45B98EF13F01B2644
:1027200018501C2219501D221A501E22E86AA42398
:10273000163616341B361C361D361E36A437175077
:1027400016A0AEEF13F01B5E18501C5A19501D5AFC
:102750001A501E5AE86AA45BB7EF13F01B261850F4
:102760001C2219501D221A501E22E86AA423163674
:1027700016341B361C361D361E36A437175016A0CD
:10278000CDEF13F01B5E18501C5A19501D5A1A50E9
:102790001E5AE86AA45BD6EF13F01B2618501C22C1
:1027A00019501D221A501E22E86AA4231636163428
:1027B0001B361C361D361E36A437175016A0ECEFFC
:1027C00013F01B5E18501C5A19501D5A1A501E5AED
:1027D000E86AA45BF5EF13F01B2618501C22195071
:1027E0001D221A501E22E86AA423163616341B3600
:1027F0001C361D361E36A437175016A00BEF14F0EA
:102800001B5E18501C5A19501D5A1A501E5AE86A5D
:10281000A45B14EF14F01B2618501C2219501D2223
:102820001A501E22E86AA423163616341B361C36AC
:102830001D361E36A437175016A02AEF14F01B5E63
:1028400018501C5A19501D5A1A501E5AE86AA45B97
:1028500033EF14F01B2618501C2219501D221A5059
:102860001E22E86AA423163615341B361C361D3684
:102870001E36A437175016A049EF14F01B5E1850EF
:102880001C5A19501D5A1A501E5AE86AA45B52EF7E
:1028900014F01B2618501C2219501D221A501E22FB
:1028A000E86AA423153615341B361C361D361E3631
:1028B000A437175015A068EF14F01B5E18501C5A6F
:1028C00019501D5A1A501E5AE86AA45B71EF14F091
:1028D0001B2618501C2219501D221A501E22E86A6D
:1028E000A423153615341B361C361D361E36A43768
:1028F000175015A087EF14F01B5E18501C5A195082
:102900001D5A1A501E5AE86AA45B90EF14F01B2659
:1029100018501C2219501D221A501E22E86AA423A6
:10292000153615341B361C361D361E36A437175087
:1029300015A0A6EF14F01B5E18501C5A19501D5A12
:102940001A501E5AE86AA45BAFEF14F01B26185009
:102950001C2219501D221A501E22E86AA423153683
:1029600015341B361C361D361E36A437175015A0DD
:10297000C5EF14F01B5E18501C5A19501D5A1A50FE
:102980001E5AE86AA45BCEEF14F01B2618501C22D6
:1029900019501D221A501E22E86AA4231536153438
:1029A0001B361C361D361E36A437175015A0E4EF13
:1029B00014F01B5E18501C5A19501D5A1A501E5AFA
:1029C000E86AA45BEDEF14F01B2618501C22195086
:1029D0001D221A501E22E86AA423153615341B3610
:1029E0001C361D361E36A437175015A003EF15F000
:1029F0001B5E18501C5A19501D5A1A501E5AE86A6C
:102A0000A45B0CEF15F01B2618501C2219501D2238
:102A10001A501E22E86AA423153615341B361C36BC
:102A20001D361E36A437175015A022EF15F01B5E79
:102A300018501C5A19501D5A1A501E5AE86AA45BA5
:102A40002BEF15F01B2618501C2219501D221A506E
:102A50001E22E86AA423153614341B361C361D3694
:102A60001E36A437175015A041EF15F01B5E185005
:102A70001C5A19501D5A1A501E5AE86AA45B4AEF94
:102A800015F01B2618501C2219501D221A501E2208
:102A9000E86AA423143614341B361C361D361E3641
:102AA000A437175014A060EF15F01B5E18501C5A85
:102AB00019501D5A1A501E5AE86AA45B69EF15F0A6
:102AC0001B2618501C2219501D221A501E22E86A7B
:102AD000A423143614341B361C361D361E36A43778
:102AE000175014A07FEF15F01B5E18501C5A195098
:102AF0001D5A1A501E5AE86AA45B88EF15F01B266F
:102B000018501C2219501D221A501E22E86AA423B4
:102B1000143614341B361C361D361E36A437175097
:102B200014A09EEF15F01B5E18501C5A19501D5A28
:102B30001A501E5AE86AA45BA7EF15F01B2618501E
:102B40001C2219501D221A501E22E86AA423143692
:102B500014341B361C361D361E36A437175014A0ED
:102B6000BDEF15F01B5E18501C5A19501D5A1A5013
:102B70001E5AE86AA45BC6EF15F01B2618501C22EB
:102B800019501D221A501E22E86AA4231436143448
:102B90001B361C361D361E36A437175014A0DCEF2A
:102BA00015F01B5E18501C5A19501D5A1A501E5A07
:102BB000E86AA45BE5EF15F01B2618501C2219509B
:102BC0001D221A501E22E86AA423143614341B3620
:102BD0001C361D361E36A437175014A0FBEF15F017
:102BE0001B5E18501C5A19501D5A1A501E5AE86A7A
:102BF000A45B04EF16F01B2618501C2219501D224E
:102C00001A501E22E86AA423143614341B361C36CC
:102C10001D361E36A437175014A01AEF16F01B5E8F
:102C200018501C5A19501D5A1A501E5AE86AA45BB3
:102C300023EF16F01B2618501C2219501D221A5083
:102C40001E22E86AA423143613341B361C361D36A4
:102C50001E36A437175014A039EF16F01B5E18501B
:102C60001C5A19501D5A1A501E5AE86AA45B42EFAA
:102C700016F01B2618501C2219501D221A501E2215
:102C8000E86AA423133613341B361C361D361E3651
:102C9000A437175013A058EF16F01B5E18501C5A9B
:102CA00019501D5A1A501E5AE86AA45B61EF16F0BB
:102CB0001B2618501C2219501D221A501E22E86A89
:102CC000A423133613341B361C361D361E36A43788
:102CD000175013A077EF16F01B5E18501C5A1950AE
:102CE0001D5A1A501E5AE86AA45B80EF16F01B2684
:102CF00018501C2219501D221A501E22E86AA423C3
:102D0000133613341B361C361D361E36A4371750A7
:102D100013A096EF16F01B5E18501C5A19501D5A3E
:102D20001A501E5AE86AA45B9FEF16F01B26185033
:102D30001C2219501D221A501E22E86AA4231336A1
:102D400013341B361C361D361E36A437175013A0FD
:102D5000B5EF16F01B5E18501C5A19501D5A1A5028
:102D60001E5AE86AA45BBEEF16F01B2618501C2200
:102D700019501D221A501E22E86AA4231336133458
:102D80001B361C361D361E36A437175013A0D4EF41
:102D900016F01B5E18501C5A19501D5A1A501E5A14
:102DA000E86AA45BDDEF16F01B2618501C221950B0
:102DB0001D221A501E22E86AA423133613341B3630
:102DC0001C361D361E36A437175013A0F3EF16F02D
:102DD0001B5E18501C5A19501D5A1A501E5AE86A88
:102DE000A45BFCEF16F01B2618501C2219501D2264
:102DF0001A501E22E86AA423133613341B361C36DD
:102E00001D361E36A437175013A012EF17F01B5EA5
:102E100018501C5A19501D5A1A501E5AE86AA45BC1
:102E20001BEF17F01B2618501C2219501D221A5098
:102E30001E22E86AA423133613B027EF17F01750A9
:102E40001B2618501C2219501D221A501E22000C3D
:102E50000F01D89083B6D880D8B034EF17F00A0E9F
:102E60009DEC0BF00F01D89083B6D880D8B0AAEFB4
:102E700017F00F01D89084B2D880D8B045EF17F082
:102E80000A0E9DEC0BF00F01D89084B2D880D8B018
:102E9000AAEF17F00001CC676CEF17F00001CC69C6
:102EA000030132C30DF033C30EF00001E80E0F6EC4
:102EB000030E106E60EC10F014C01CF115C01DF173
:102EC0000301345101011C270301355101011D2368
:102ED00034C31AF135C31BF1ADEC29F0D8B07DEF46
:102EE00017F0D8A484EF17F001011A07D8A01B0728
:102EF0001A07D8A01B0784EF17F001011A2BD8B4CA
:102F00001B2B1A2BD8B41B2B1CC10DF01DC10EF0AE
:102F100001011A5100010D5E01011B5100010E5A01
:102F20000001000E0F6E010E106E60EC10F000013B
:102F3000E80E176E030E186E64EC11F013C032F336
:102F400014C033F31AC134F31BC135F313EC1AF078
:102F5000D88412000001CC67B0EF17F0D8941200AB
:102F6000CC6B7BEC1FF0D894120000016951E8CFC4
:102F70000DF06A51E8CF0EF06D510D5E6E510E5A94
:102F8000D8A0D2EF17F06B51E8CF0FF06C51E8CF1B
:102F900010F060EC10F01450E8CF71F01550E8CF4D
:102FA00072F012006F51E8CF0FF07051E8CF10F0BF
:102FB00060EC10F01450E8CF71F01550E8CF72F0CB
:102FC000120069C00DF06AC00EF06D510D5E6E51B9
:102FD0000E5A6BC00FF06CC010F060EC10F0145083
:102FE000E8CF71F01550E8CF72F01200040E93ECA8
:102FF00008F0040EBBEC08F015C26BF016C26CF0C2
:1030000017C26DF018C26EF019C26FF01AC270F0DC
:10301000B5EC17F071C034F172C035F171C073F0C6
:1030200072C074F0050E93EC08F0050EBBEC08F0CE
:103030001BC26BF01CC26CF01DC26DF01EC26EF0A4
:103040001FC26FF020C270F0B5EC17F071C036F1FE
:1030500072C037F171C075F072C076F0060E93EC55
:1030600008F0060EBBEC08F021C26BF022C26CF037
:1030700023C26DF024C26EF025C26FF026C270F03C
:10308000B5EC17F071C038F172C039F171C077F04A
:1030900072C078F0070E93EC08F0070E93EC08F07E
:1030A00027C26BF028C26CF029C26DF02AC26EF004
:1030B000E1EC17F071C03AF172C03BF171C079F0E8
:1030C00072C07AF0030E93EC08F000010F01C3CF39
:1030D000E8FFE8CF8BF0C4CFE8FFE8CF8CF0080E14
:1030E00093EC08F02DC26DF02EC26EF02BC26BF087
:1030F0002CC26CF0E1EC17F071C083F072C084F068
:10310000090E93EC08F031C26DF032C26EF02FC29E
:103110006BF030C26CF0E1EC17F071C085F072C05A
:1031200086F00A0E93EC08F035C26DF036C26EF0F0
:1031300033C26BF034C26CF0E1EC17F071C087F071
:1031400072C088F00B0E93EC08F039C26DF03AC2F1
:103150006EF037C26BF038C26CF0E1EC17F071C062
:1031600089F072C08AF00301B55177EC24F0D8A041
:10317000C1EF18F00001E80E7B6F030E7C6FC6EF05
:1031800018F00001180E7B6FFC0E7C6F000E93ECA4
:1031900008F03BC26BF03CC26CF03DC26DF03EC229
:1031A0006EF0E1EC17F071C07DF072C07EF0010EA0
:1031B00093EC08F03FC26BF040C26CF041C26DF07E
:1031C00042C26EF0E1EC17F071C07FF072C080F087
:1031D0000301B75177EC24F0D8A0F6EF18F0000106
:1031E000E80E816F030E826F10EF19F00301B951E1
:1031F00077EC24F0D8A004EF19F00001180E816FCD
:10320000FC0E826F10EF19F00301B85177EC24F037
:10321000D8A010EF19F00001000E816F000E826F30
:1032200012000001106A0FBE101E60EC10F00001C9
:10323000640E176E000E186E64EC11F013C011F0DE
:1032400014C012F013C00FF014C010F00EAE2EEF29
:1032500019F00F1E101E0F2AD8B0102A60EC10F0C3
:1032600000010A0E176E000E186E64EC11F00B5080
:10327000E8CF17F0186A17BE181E64EC11F0115051
:103280000D5E12500E5A13500D2614500E221200CD
:103290000301AE5177EC24F073C00DF074C00EF052
:1032A000D8A05EEF19F003011B510001E8CF0FF029
:1032B00003011751E8CF0BF066EF19F003011A5123
:1032C0000001E8CF0FF0640EE8CF0BF011EC19F01D
:1032D0000DC073F00EC074F00301AF5177EC24F011
:1032E00075C00DF076C00EF0D8A082EF19F0030182
:1032F00026510001E8CF0FF003012251E8CF0BF077
:103300008AEF19F0030125510001E8CF0FF0640E98
:10331000E8CF0BF011EC19F00DC075F00EC076F08F
:103320000301B05177EC24F077C00DF078C00EF0B7
:10333000D8A0A6EF19F0030131510001E8CF0FF03A
:1033400003012D51E8CF0BF0AEEF19F0030130511E
:103350000001E8CF0FF0640EE8CF0BF011EC19F08C
:103360000DC077F00EC078F012000301AE5177EC7B
:1033700024F0D8A0D4EF19F073C00FF074C010F08F
:1033800017C30DF018C30EF00E6A0DBE0E1E60ECD2
:1033900010F00001640E176E000E186E64EC11F050
:1033A00013C073F014C074F00301AF5177EC24F034
:1033B000D8A0F3EF19F075C00FF076C010F022C35B
:1033C0000DF023C30EF00E6A0DBE0E1E60EC10F061
:1033D0000001640E176E000E186E64EC11F013C03D
:1033E00075F014C076F00301B05177EC24F0D8A04A
:1033F00012EF1AF077C00FF078C010F02DC30DF067
:103400002EC30EF00E6A0DBE0E1E60EC10F0000111
:10341000640E176E000E186E64EC11F013C077F096
:1034200014C078F012000201B2519BEC01F00301CC
:10343000A75100010F260301A8510001102218C353
:103440000DF019C30EF000010E6AFF0E0DBE0E6ED8
:1034500060EC10F00001640E176E186A196A1A6A9F
:1034600064EC11F000010301195100010D6E0E6AA8
:103470000DBE0E1E0D360E360D5013260E501422A4
:1034800013507327145074230201B3519BEC01F0C5
:103490000301A95100010F260301AA5100011022C6
:1034A00023C30DF024C30EF000010E6AFF0E0DBE03
:1034B0000E6E60EC10F00001640E176E186A196A47
:1034C0001A6A64EC11F000010301245100010D6E31
:1034D0000E6A0DBE0E1E0D360E360D5013260E5002
:1034E000142213507527145076230201B4519BEC1B
:1034F00001F00301AB5100010F260301AC510001A3
:1035000010222EC30DF02FC30EF000010E6AFF0E25
:103510000DBE0E6E60EC10F00001640E176E186A9E
:10352000196A1A6A64EC11F0000103012F510001BD
:103530000D6E0E6A0DBE0E1E0D360E360D50132684
:103540000E50142213507727145078230201B551DE
:103550009BEC01F036C30DF037C30EF000010E6A8C
:10356000FF0E0DBE0E6E60EC10F00001640E176EC3
:10357000186A196A1A6A64EC11F00301010E3763C4
:10358000D9EF1AF00001030E0E6E186EE80E0D6EE4
:10359000176E79510D5E7A510E5A196A1A6A13C064
:1035A0000FF014C010F060EC10F064EC11F0F3EFC9
:1035B0001AF0020E3763F3EF1AF0000179510D6E25
:1035C0007A510E6E13C00FF014C010F060EC10F0C2
:1035D0000001030EE8CF18F0E80EE8CF17F0196AE3
:1035E0001A6A64EC11F000011350792714507A2301
:1035F000120000010E6A08C40DF00DBE0E68000135
:103600000A0E0F6E000E106E60EC10F01350732750
:103610001450742300010E6A09C40DF00DBE0E682B
:1036200000010A0E0F6E000E106E60EC10F01350C9
:1036300075271450762300010E6A0AC40DF00DBEE2
:103640000E6800010A0E0F6E000E106E60EC10F096
:10365000135077271450782300010E6A0BC40DF025
:103660000DBE0E6800010A0E0F6E000E106E60ECAB
:1036700010F01350792714507A2300010E6A0CC4FD
:103680000DF00DBE0E6800010A0E0F6E000E106EDA
:1036900060EC10F013507B2714507C2300010E6A5D
:1036A0000DC40DF00DBE0E6800010A0E0F6E000E67
:1036B000106E60EC10F013507D2714507E23000133
:1036C0000E6A0EC40DF00DBE0E6800010A0E0F6EDC
:1036D000000E106E60EC10F013507F271450802302
:1036E00000010E6A0FC40DF00DBE0E6800010A0E37
:1036F0000F6E000E106E60EC10F013508127145006
:103700008223120000010A0E0D6E000E0E6E0301E0
:10371000BB5177EC24F0D8A0CAEF1BF003014DAFEA
:103720009DEF1BF04CC30FF0106A0FBE106860ECE9
:1037300010F013C073F014C074F003014FAFACEF7E
:103740001BF04EC30FF0106A0FBE106860EC10F053
:1037500013C075F014C076F0030151AFBBEF1BF03E
:1037600050C30FF0106A0FBE106860EC10F013C069
:1037700077F014C078F0030153AFCAEF1BF052C3C7
:103780000FF0106A0FBE106860EC10F013C079F0F3
:1037900014C07AF00301BC5177EC24F0D8A00DEFEF
:1037A0001CF0030155AFE0EF1BF054C30FF0106A9B
:1037B0000FBE106860EC10F013C073F014C074F00A
:1037C000030157AFEFEF1BF056C30FF0106A0FBEA7
:1037D000106860EC10F013C075F014C076F00301AF
:1037E00059AFFEEF1BF058C30FF0106A0FBE106800
:1037F00060EC10F013C077F014C078F003015BAFF9
:103800000DEF1CF05AC30FF0106A0FBE106860EC89
:1038100010F013C079F014C07AF000017AAF1200F2
:10382000E86A796F7A6F12000201A1B112000301F8
:10383000B65177EC24F0D8A01200000160671200A6
:1038400002019F510001606F0201010EB66332EF69
:103850001CF0010E00015D6E050E37EC0AF0280E1B
:103860000001606F73C00DF074C00EF0D5EC1CF059
:10387000D8A468EF1CF00201B66741EF1CF002010A
:103880009E51000174BF4FEF1CF00301192719AFBF
:1038900059EF1CF0D8A659EF1CF05CEF1CF00301A7
:1038A000195F19BF59EF1CF0D8A659EF1CF061EF52
:1038B0001CF019BF61EF1CF0640E1961196F66EFFF
:1038C0001CF0640EE81EE82A1965196F7BEC1FF0E6
:1038D00075C00DF076C00EF0D5EC1CF0D8A49EEFAC
:1038E0001CF00201B66777EF1CF002019E51000147
:1038F00076BF85EF1CF00301242724AF8FEF1CF067
:10390000D8A68FEF1CF092EF1CF00301245F24BFB8
:103910008FEF1CF0D8A68FEF1CF097EF1CF024BFA0
:1039200097EF1CF0640E2461246F9CEF1CF0640E72
:10393000E81EE82A2465246F7BEC1FF077C00DF0A9
:1039400078C00EF0D5EC1CF0D8A4D4EF1CF0020126
:10395000B667ADEF1CF002019E51000178BFBBEFCE
:103960001CF003012F272FAFC5EF1CF0D8A6C5EF21
:103970001CF0C8EF1CF003012F5F2FBFC5EF1CF038
:10398000D8A6C5EF1CF0CDEF1CF02FBFCDEF1CF07B
:10399000640E2F612F6FD2EF1CF0640EE81EE82A30
:1039A0002F652F6F7BEC1FF0120000010EAEDEEFD3
:1039B0001CF00D1E0E1E0D2AD8B00E2AD8900E3205
:1039C0000D320E66E8EF1CF0640E0D64EDEF1CF096
:1039D0000001640E0D6E000E0E6E0D50E832E832DE
:1039E0001F0BD8740DC0E8FF12000001BD6B000171
:1039F00074BF07EF1DF011C30DF012C30EF073C0BA
:103A00000FF074C010F060EC10F011EF1DF015C352
:103A10000DF016C30EF073C00FF074C010F060EC20
:103A200010F013C30DF014C30EF0000114500D2656
:103A300015500E225BEC1EF00DC03CF00EC03DF0A8
:103A4000000176BF30EF1DF01CC30DF01DC30EF05A
:103A500075C00FF076C010F060EC10F03AEF1DF07A
:103A600020C30DF021C30EF075C00FF076C010F02A
:103A700060EC10F01EC30DF01FC30EF000011450D7
:103A80000D2615500E225BEC1EF00DC03AF00EC054
:103A90003BF0000178BF59EF1DF027C30DF028C39C
:103AA0000EF077C00FF078C010F060EC10F063EF0C
:103AB0001DF02BC30DF02CC30EF077C00FF078C0B3
:103AC00010F060EC10F029C30DF02AC30EF00001D5
:103AD00014500D2615500E225BEC1EF00DC03EF06A
:103AE0000EC03FF032C30DF033C30EF079C00FF0BB
:103AF0007AC010F060EC10F034C30DF035C30EF056
:103B0000000114500D2615500E225BEC1EF00DC066
:103B100040F00EC041F03AC30DF03BC30EF07BC045
:103B20000FF07CC010F060EC10F03CC30DF03DC312
:103B30000EF0000114500D2615500E225BEC1EF005
:103B40000DC042F00EC043F0CBEF1DF000017EBF70
:103B5000B6EF1DF01CC30DF01DC30EF07DC00FF0BD
:103B60007EC010F060EC10F0C0EF1DF020C30DF02F
:103B700021C30EF07DC00FF07EC010F060EC10F09D
:103B80001EC30DF01FC30EF0000114500D2615507A
:103B90000E22DEEF1DF03EC30DF03FC30EF07DC0E0
:103BA0000FF07EC010F060EC10F040C30DF041C388
:103BB0000EF0000114500D2615500E225BEC1EF085
:103BC0000DC044F00EC045F00BEF1EF0000180BFA9
:103BD000F6EF1DF011C30DF012C30EF07FC00FF011
:103BE00080C010F060EC10F000EF1EF015C30DF077
:103BF00016C30EF07FC00FF080C010F060EC10F024
:103C000013C30DF014C30EF0000114500D2615500F
:103C10000E221EEF1EF042C30DF043C30EF07FC014
:103C20000FF080C010F060EC10F044C30DF045C3FD
:103C30000EF0000114500D2615500E225BEC1EF004
:103C40000DC046F00EC047F081C00DF082C00EF0EE
:103C50000EBE33EF1EF046C30FF047C310F060EC0A
:103C600010F039EF1EF04AC30FF04BC310F060ECB8
:103C700010F048C30DF049C30EF00D5014260E503D
:103C8000152214C00DF015C00EF05BEC1EF00DC037
:103C900048F00EC049F00001CC675AEF1EF0030156
:103CA000B15177EC24F0D8A05AEF1EF038C340F0A1
:103CB00039C341F012000201AE5100010D5C020156
:103CC000AF5100010E58E8AE6BEF1EF0AEC20DF022
:103CD000AFC20EF012000201B05100010D5C0201F2
:103CE000B15100010E58E8BE1200B0C20DF0B1C2D1
:103CF0000EF01200000133B489EF1EF035A489EFF5
:103D00001EF03594010E5D6E050E37EC0AF0D8807A
:103D10001200D89012000001000E0D6E020E0E6E01
:103D20000001000E136E000E146E010E156EE86A8F
:103D30000A6E10EC0CF0020100510001A56F120098
:103D40000001000E0D6E020E0E6E0001000E136ECD
:103D5000000E146E010E156E040E0A6E44EC0CF08B
:103D60001200E846E8060B6E0001000E0D6E030E11
:103D70000E6E0001000E136E000E146E010E156E15
:103D80000B501426E86A1522100E0A6E10EC0CF087
:103D90001200E846E8060B6E0001000E0D6E080EDC
:103DA0000E6E0001000E136E000E146E010E156EE5
:103DB0000B501426E86A1522400E0A6E10EC0CF027
:103DC0000001000EB56F030EB66F0001000EB36F59
:103DD000030EB46F0001080EB46F100EB76F4FECF6
:103DE00023F00001000E0D6E080E0E6E0001000E95
:103DF000136E000E146E010E156E0B501426E86A39
:103E00001522010E0A6E44EC0CF01200E846E8069A
:103E10000B6E0001000E0D6E030E0E6E0001000E03
:103E2000136E000E146E010E156E0B501426E86A08
:103E300015220A6E10EC0CF00001000E0D6E040E3F
:103E40000E6E0001000E136E000E146E010E156E44
:103E50000B50E82A1426E86A15220A6E10EC0CF0C2
:103E60001200E846E8060C6E0001000E0D6E030E0F
:103E70000E6E0001000E136E000E146E010E156E14
:103E80000C501426E86A1522040E0A6E44EC0CF05D
:103E90000001000E0D6E040E0E6E0001000E136E7A
:103EA000000E146E010E156E0C50E82A1426E86AF6
:103EB0001522040E0A6E44EC0CF012000001000EF4
:103EC000B56F030EB66F0001000EB36F060EB46F30
:103ED000000EB76F4FEC23F00001000EB56F040E1B
:103EE000B66F0001000EB36F070EB46F000EB76F10
:103EF0004FEC23F0120002010051E846E8060A6E7A
:103F00000001000E0D6E030E0E6E0001000E136E0A
:103F1000000E146E010E156E0A501426E86A152262
:103F2000010E0A6E44EC0CF0120073C08DF074C0E8
:103F30008EF075C08FF076C090F077C091F078C0A9
:103F400092F079C093F07AC094F07BC095F07CC079
:103F500096F07DC097F07EC098F07FC099F080C049
:103F60009AF081C09BF082C09CF0120095EC1FF08B
:103F70000301B25177EC24F0D8B0D1EF1FF0030E5B
:103F8000E26E5C0EE16E6FEC22F0610EE16E6FECA2
:103F900022F0660EE16E6FEC22F06B0EE16E6FECBC
:103FA00022F095EC1FF00301B35177EC24F0D8B068
:103FB000F2EF1FF0030EE26E700EE16E6FEC22F076
:103FC00095EC1FF0750EE16E6FEC22F095EC1FF092
:103FD0007A0EE16E6FEC22F095EC1FF07F0EE16E31
:103FE0006FEC22F095EC1FF00301B45177EC24F054
:103FF000D8B00DEF20F0030EE26E840EE16E6FEC90
:1040000022F0890EE16E6FEC22F08E0EE16E6FEC05
:1040100022F0930EE16E6FEC22F012008DC00DF0D5
:104020008EC00EF010C40FF000010EBE11C40FF0D0
:10403000106A0FBE106860EC10F00001640E176E7D
:10404000000E186E64EC11F0000113C0E8FF912718
:1040500014C0E8FF922391C00DF092C00EF012C47C
:104060000FF000010EBE13C40FF0106A0FBE1068EF
:1040700060EC10F00001640E176E000E186E64EC18
:1040800011F0000113C0E8FF8D2714C0E8FF8E2354
:1040900091C00DF092C00EF014C40FF000010EBEDE
:1040A00015C40FF0106A0FBE106860EC10F000012C
:1040B000640E176E000E186E64EC11F0000113C050
:1040C000E8FF8F2714C0E8FF902393C00DF094C041
:1040D0000EF016C40FF000010EBE106A0FBE10687D
:1040E00060EC10F00001640E176E000E186E64ECA8
:1040F00011F0000113C0E8FF8F2714C0E8FF9023E0
:104100008DC073F08EC074F08FC075F090C076F0E3
:1041100091C077F092C078F093C079F094C07AF0B3
:10412000040117A1A2EF20F08FC07DF090C07EF0B7
:10413000040118A1A2EF20F000017D1F7E1F7D2B3E
:10414000D8B07E2B030198A1BFEF20F08FC00DF0F7
:1041500090C00EF091C00FF092C010F000010DC0A1
:1041600075F00EC076F00DC077F00EC078F00F50ED
:104170007727105078230F50755F1050765B03013E
:1041800099A1DCEF20F08FC00DF090C00EF08DC033
:104190000FF08EC010F000010DC075F00EC076F06B
:1041A0000DC073F00EC074F00F50732710507423BD
:1041B0000F50755F1050765B03019AA197EF21F0C5
:1041C0008DC00DF08EC00EF00DC073F00EC074F0F7
:1041D0000DC07FF00EC080F00001640E176E000E5F
:1041E000186E03019C51E812D8B440EF21F0E8BEEC
:1041F0001EEF21F0640800010F6E106A74BF0FEF0C
:1042000021F073C00DF074C00EF060EC10F064EC9F
:1042100011F013C073F014C074F040EF21F00001EE
:104220007FC00DF080C00EF060EC10F064EC11F077
:1042300013C07FF014C080F040EF21F0640F000144
:104240000F6E106A74AF33EF21F073C00DF074C0BD
:104250000EF060EC10F064EC11F013C073F014C0B9
:1042600074F040EF21F000017FC00DF080C00EF02F
:1042700060EC10F064EC11F013C07FF014C080F01B
:1042800003019BA14AEF21F000017F1F801F7F2BBC
:10429000D8B0802B0001640E176E000E186E03015B
:1042A0009D51E812D8B497EF21F00301C651E812EE
:1042B000D8B46DEF21F00301C55177EC24F0D8B0EC
:1042C00097EF21F00001E80E0D6E030E0E6E935174
:1042D0000D5E94510E5A79EF21F00001E80E0D6E3B
:1042E000030E0E6E99510D269A510E22D8900E3261
:1042F0000D329DC30FF09EC310F0106A0FBE101E4A
:1043000060EC10F064EC11F0135073271450742318
:1043100003019BB192EF21F00001131E141E132A1A
:10432000D8B0142A000113507F27145080231200A4
:104330000301A4A1120095EC1FF00EEC20F0120076
:104340000301A4B1A8EF21F095EC1FF00EEC20F0D2
:1043500003019EA1C3EF21F00301C25177EC24F0C9
:10436000D8A0C3EF21F003019F5100010D6E0E6A2A
:1043700000010A0E0F6E000E106E60EC10F013C0FC
:1043800079F014C07AF00301A0A1F0EF21F003014D
:10439000C35177EC24F0D8A0D2EF21F00301A15152
:1043A000DBEF21F00301C45177EC24F0D8A0F0EF4B
:1043B00021F00301A25100010D6E0E6A00010A0EE8
:1043C0000F6E000E106E60EC10F01350795D1450FB
:1043D0007A59E8AEF0EF21F013C079F014C07AF00A
:1043E00012000BC0E8FFF00BD8B412000DC069F04A
:1043F0000EC06AF00EAE02EF22F00D1E0E1E0D2A48
:10440000D8B00E2A0DC013F00EC014F0640E176E53
:1044100093EC10F000011C6A090E13601AEF22F0F1
:104420000BC0E8FFE83AE8060F0BE8B637EF22F0DA
:104430002CEF22F0136E0DC01BF00EC01CF0840E8A
:1044400000011B5E030E1C5A0BC0E8FFE83AE806A9
:104450000F0BE8B637EF22F00B0DF350460F132485
:10446000E8CFD9FF020EE8CFDAFF41EF22F0E8965D
:104470000B0DF350DA0F1324E8CFD9FF030EE8CF6A
:10448000DAFFDECF0AF0DFCF0BF000010BC00DF03A
:104490000AC0E8FF0D5E0E6A0DBE0E681BC00FF06D
:1044A0001CC010F060EC10F00A0E176E93EC10F0C8
:1044B0000AC0E8FF0A0DF3CFE8FF1326F4CFE8FFA8
:1044C000142213C00DF014C00EF000016AAF1200E8
:1044D00000010D1E0E1E0D2AD8B00E2A1200E65045
:1044E000E8CF0BF0E812D8B4120080EC02F0F1EC47
:1044F00021F00DC011F00EC012F0E6CF0AF0E6CFA9
:10450000E8FF0001E8CF0DF00E6A0DBE0E1E00019F
:104510000A0E0F6E000E106E60EC10F011C00DF060
:1045200012C00EF013500D5E14500E5A0EBECEEF98
:1045300022F0E6CFE8FF00010AACB7EF22F0E8CFA7
:1045400013F0E9CF14F00DC011F00EC012F01350AB
:1045500080EC02F00DC013F00EC014F00A0E176EBE
:1045600093EC10F011C00DF012C00EF013500F6E4E
:10457000106A0FBE101E60EC10F00001640E176E82
:10458000000E186E196A1A6A64EC11F013C00DF06F
:1045900014C00EF00A5000EC03F01200E6CFE8FF62
:1045A000E6CFE8FF00010AAAECEF22F0E8CF13F013
:1045B0000DC011F00EC012F0135080EC02F00DC0CF
:1045C00013F00EC014F00A0E176E93EC10F011C029
:1045D0000DF012C00EF013500F6E106A0FBE101EB9
:1045E00060EC10F00001640E176E000E186E196A70
:1045F0001A6A64EC11F013C00DF014C00EF00A50EA
:1046000000EC03F012000001BD0EB56F030EB66F93
:104610000001120EB36F010EB46F050EB76F4FECB1
:1046200023F0D90EE8CFD9FF060EE8CFDAFF060E49
:10463000E8CF0CF0DDCFE8FFE812D8B427EF23F085
:10464000DFCFE8FF77EC24F0D8B033EF23F0DDCFF5
:10465000E8FF0C2E1AEF23F0A5C0E8FF020100636B
:104660003CEF23F01200DECFE8FFDECFE8FF0201CF
:1046700000633CEF23F01200E8CF00F206EC1FF0DD
:104680000001120EB56F010EB66F0001BD0EB36FC3
:10469000030EB46F050EB76F4FEC23F0120000014C
:1046A000B551E16EB651E26E0001B351D96EB4510D
:1046B000DA6EE6CFE8FFE8CFDEFF0001B72F59EF53
:1046C00023F012000001BF6B0301AE5177EC24F020
:1046D0000001D8B0BF810301AF5177EC24F0000195
:1046E000D8B0BF830301B05177EC24F00001D8B0FB
:1046F000BF850301B15177EC24F00001D8B0BF872A
:104700000301B65177EC24F00001D8B0BF89030152
:10471000BB5177EC24F00001D8B0BF8B0301BC5132
:1047200077EC24F00001D8B0BF8D1200C00E18EC59
:104730000DF00301AE5177EC24F00001E86AE88047
:10474000BF15D8A0B2EF23F0D8A4C3EF23F0BF71F8
:10475000000EF86E660EF76E8E0EF66E7EEC0DF0A5
:1047600074EF24F0D8B0C3EF23F0D8B4C3EF23F034
:10477000BF71000EF86E660EF76E7C0EF66E7EEC64
:104780000DF074EF24F00301AF5177EC24F0000139
:10479000E86AE882BF15D8A0DCEF23F0D8A4EDEFDB
:1047A00023F0BF73000EF86E660EF76EB20EF66E53
:1047B0007EEC0DF074EF24F0D8B0EDEF23F0D8B418
:1047C000EDEF23F0BF73000EF86E660EF76EA00ECD
:1047D000F66E7EEC0DF074EF24F00301B05177EC2F
:1047E00024F00001E86AE884BF15D8A006EF24F0A1
:1047F000D8A417EF24F0BF75000EF86E660EF76EA2
:10480000D60EF66E7EEC0DF074EF24F0D8B017EFF4
:1048100024F0D8B417EF24F0BF75000EF86E660EC2
:10482000F76EC40EF66E7EEC0DF074EF24F003010B
:10483000B15177EC24F00001D8A02DEF24F0BFB7E0
:104840002EEF24F0BF77000EF86E670EF76E1E0E87
:10485000F66E7EEC0DF074EF24F0BF970301B651B5
:1048600077EC24F00001D8A044EF24F0BFB945EF65
:1048700024F0BF79000EF86E670EF76E0C0EF66E20
:104880007EEC0DF074EF24F0BF990301BB5177EC7F
:1048900024F00001D8A05BEF24F0BFBB5CEF24F054
:1048A000BF7B000EF86E660EF76EE80EF66E7EECBD
:1048B0000DF074EF24F0BF9B0301BC5177EC24F0A2
:1048C0000001D8A072EF24F0BFBD73EF24F0BF7DCC
:1048D000000EF86E660EF76EFA0EF66E7EEC0DF0B8
:1048E00074EF24F0BF9D1200500EA36F1200E8AACF
:1048F000A3EF24F0E8A8A3EF24F00A6E070BC90F7A
:10490000E16E030EE26EE65000010D6E0E6AE8BE27
:104910000E6800010A0E0F6E000E106E60EC10F0B3
:104920000A50070BE846340FE16E010EE252E650E2
:10493000E6CF0BF00001135E0B501458E8360ABEA8
:104940001200D8701200D890E8BA1200D880E8B8E7
:10495000120000011F6E206AE8BC2080070BE82AC5
:10496000D8802036E82EB1EF24F030501FB63350F7
:104970002014D8802062D8901FBED8701200040E78
:10498000D56E1200D59E1200D89087B21200D88042
:10499000D5BE1200C3C00DF0C4C00EF000013C0E25
:1049A0000F6E000E106E71EC10F013C00DF014C0FD
:1049B0000EF00001240E0F6EF40E106E71EC10F06C
:1049C000C1C017F0C2C018F00001000E196E000E31
:1049D0001A6E47EC13F0A5C317F0A6C318F0000138
:1049E000186A64EC11F0C00E18EC0DF0000EF86EB1
:1049F000650EF76EEC0EF66E7EEC0DF0CB0E18EC3D
:104A00000DF0E4EC0DF0A5C313F0A6C314F0146A86
:104A1000C00E18EC0DF0E0EC0DF00001000EC36FBD
:104A2000000EC46FD88012000001020E3662120020
:104A3000000133A01200FC6A0AEF05F02DEC25F00E
:104A4000D8A01200FC6AA0EC1EF000C2E8FF31EC16
:104A50001FF05EEC1FF00AEF05F0000130B637EFF3
:104A600025F032A637EF25F03296D8801200D89084
:104A700012000001670E0E6E420E0D6E80EC25F0E6
:104A80005DEC0DF00001115080EC01F012001EC130
:104A90000DF01FC10EF05DEC0DF012000001EF51A2
:104AA000D8B41200E1CF3EF1E2CF3FF1F6EC17F0BF
:104AB0000001000E736F000E746F0001000E756F21
:104AC000000E766FB5EC19F048EC19F082EC1BF093
:104AD00014EC1CF013EC1AF098EC21F0B6EC1FF07B
:104AE000A0EC21F0F9EC1AF0F5EC1CF057EC0EF00C
:104AF0003EC1E1FF3FC1E2FF12000001EF69120079
:104B000014EC25F00001CD6BDB6BEA6BEB6BC00E98
:104B100018EC0DF00DC0F6FF0EC0F7FFF86A0DC0DF
:104B20000FF00EC010F07EEC0DF0FA0E9DEC0BF0C5
:104B300087EC29F0D8A4A3EF25F0110E0D26D8B0EC
:104B40000E2AAAEF25F0D8A0B7EF25F0130E0D26F8
:104B5000D8B00E2A0DC0F6FF0EC0F7FFF86A0900A4
:104B6000F5CF0DF00900F5CF0EF087EF25F01EEC24
:104B700025F07AEC1EF0D8A087EF25F0150E0D2653
:104B8000D8B00E2A0DC0F6FF0EC0F7FFF86A090074
:104B9000F5CF11F00900F5CF12F00FC00DF010C0E5
:104BA0000EF00900F5CF0FF00900F5CF10F0090065
:104BB000F5CFCEF00900F5CFCFF00001B96BBA6B9D
:104BC000BB697F0EE8CFBCF012ACF3EF25F0090013
:104BD000F5CFB9F00900F5CFBAF00900F5CFBBF079
:104BE0000900F5CFBCF012A4FCEF25F00900F5CFC9
:104BF000EAF00900F5CFEBF012A205EF26F009006C
:104C0000F5CFECF00900F5CFEDF012AE0AEF26F08B
:104C10005DEC0DF012A60FEF26F073EC0DF012A272
:104C200012000001E86AE8CFFBFFEDC0E8FFE8CF23
:104C3000FAFFECC0E8FFF96EE8CF0AF00FC01BF0F6
:104C400010C01CF00FC0F6FF10C0F7FFF86A150E79
:104C5000F626D8B0F72A0900F5CFE8FF0A6232EF4E
:104C600026F012000FC0F6FF10C0F7FF110EF62657
:104C7000D8B0F72A0900F5CF0FF00900F5CF10F0F2
:104C80000FC0E8FF1B6222EF26F010C0E8FF1C6295
:104C900022EF26F01200000110500F10D8B41200BD
:104CA000E86AFB6E1050E8CFFAFF0F50F96E000172
:104CB0000F50E16E1050E26E0001000E116275EFB0
:104CC00026F00FC0F6FF10C0F7FFF86A160EF626A2
:104CD000D8B0F72ACEC0E1FFCFC0E2FFE7CFE8FFB0
:104CE0001CEC26F0F4EC28F01200010E11627CEFAF
:104CF00026F01EEC28F01200020E1162A6EF26F03C
:104D0000000112A087EF26F0CE510001B86FE6CF68
:104D10000AF0E5CF0BF000010AC011F00BC012F051
:104D2000129E129C74EC28F000010FC0E1FF10C02D
:104D3000E2FF11C00AF012C00BF00AC0E6FFE7CF95
:104D4000E8FFC00B0B120BC0E5FF1200030E11624F
:104D5000BBEF26F0E7CFE8FFE83677EC27F0000E50
:104D6000D8B0E81E0A6E00010FC0E1FF10C0E2FFDC
:104D70000AC0E7FF1200040E1162CCEF26F0E7CF65
:104D8000E8FF3BEC29F00A6E00010FC0E1FF10C004
:104D9000E2FF0AC0E7FF1200050E1162DEEF26F007
:104DA000E7CFE8FFCCEC27F0E8CF0AF000010FC016
:104DB000E1FF10C0E2FF0AC0E7FF1200060E116219
:104DC000F4EF26F0E7CF0AF00FC0CEF010C0CFF01E
:104DD0000001F60E0F6E7A0E106E0AC0E8FF1CEC92
:104DE00026F0F4EC28F01200070E1162FBEF26F01B
:104DF0004BEC26F01200080E11620CEF27F0E7CF03
:104E0000E8FFC6EC27F0E8CF0AF000010FC0E1FF91
:104E100010C0E2FF0AC0E7FF0A0E11622DEF27F073
:104E2000E7CFE8FF0001CE15D890D8B4D88077EC52
:104E300027F00001CEC00AF000010FC0E1FF10C052
:104E4000E2FFD8B028EF27F00AC0E8FFE71212000F
:104E50000AC0E8FFE81EE716120012000B6AD8B07D
:104E60000B1EC00E18EC0DF0000EF86E650EF76EFE
:104E7000920EF66E7EEC0DF00BA053EF27F0C80EED
:104E800018EC0DF0280E09EC0DF0CC0E18EC0DF01E
:104E9000290E09EC0DF0CF0E18EC0DF0200E09ECE8
:104EA0000DF065EF27F0C80E18EC0DF0200E09ECA0
:104EB0000DF0CC0E18EC0DF0280E09EC0DF0CF0E15
:104EC00018EC0DF0290E09EC0DF087EC29F0D8B4A0
:104ED0000B6AFF0ED8B00B6E1EEC25F07AEC1EF0BC
:104EE000D8A03CEF27F0D8900BB0D88012000B6A06
:104EF000D8B00B1EC80E18EC0DF0000EF86E650E43
:104F0000F76ED00EF66E7EEC0DF00BA09CEF27F046
:104F1000C80E18EC0DF0280E09EC0DF0CC0E18ECB4
:104F20000DF0290E09EC0DF0CF0E18EC0DF0200E4F
:104F300009EC0DF0AEEF27F0C80E18EC0DF0200EC6
:104F400009EC0DF0CC0E18EC0DF0280E09EC0DF06C
:104F5000CF0E18EC0DF0290E09EC0DF087EC29F0BE
:104F6000D8B40B6AFF0ED8B00B6E1EEC25F07AECAD
:104F70001EF0D8A085EF27F0D8900BB0D880120093
:104F80000001BB65BB51B961B95112000001E8696C
:104F900000019D6FD0EF27F000019D6F0001E86BCD
:104FA000C80E9DEC0BF09DC0E8FF0001136E146A63
:104FB000156A166A0EEC0EF00001E867EEEF27F0B6
:104FC000CD0E18EC0DF0275009EC0DF0285009EC2F
:104FD0000DF0295009EC0DF0FDEF27F0CC0E18EC88
:104FE0000DF0275009EC0DF0285009EC0DF02E0EB5
:104FF00009EC0DF0295009EC0DF0ADEC29F00001A1
:10500000D8A409EF28F09D2BBB519D619D6F14EF33
:1050100028F0D8A014EF28F09D51B96114EF28F0C2
:105020009D07B9519D659D6F1EEC25F07AEC1EF031
:10503000D8A0D0EF27F000019D5112004EEC25F0D2
:10504000FA0E9DEC0BF0E7CFE8FFE7BEE81EE7BEE7
:10505000E82A0001136E146A156A166A0EEC0EF047
:10506000CB0E18EC0DF0200EE7BE2D0E09EC0DF066
:10507000275009EC0DF0285009EC0DF0295009ECEF
:105080000DF0250E09EC0DF0ADEC29F00001D8A4CF
:105090004DEF28F0E72A51EF28F0D8A051EF28F083
:1050A000E7061EEC25F07AEC1EF0D8A01EEF28F0E3
:1050B0000001EF6B120000011150BB5D1250BC5992
:1050C000D8B068EF28F0BB51116EBC51126E1200BF
:1050D000B951115CBA511258D8B073EF28F0B951D8
:1050E000116EBA51126E12005BEC28F00001BE6B1B
:1050F0000001B851E812D8B486EF28F0B851E16E3B
:10510000000EE26E11C0E6FF12C0E7FFF0C0E8FF3C
:105110007F08E8BEE86AE8669DEC0BF011C013F06A
:1051200012C014F0D89014321332156A166A0EECBD
:105130000EF0C90E18EC0DF0265009EC0DF02E0EF5
:1051400009EC0DF0275009EC0DF0285009EC0DF09A
:10515000295009EC0DF06D0E09EC0DF0530E09EC21
:105160000DF0ADEC29F00001D8A4C6EF28F0112A0B
:10517000D8B4122A112AD8B4122ABC51126274EF80
:1051800028F0BB511160116E74EF28F0D8A0D8EF51
:1051900028F01106D8A012061106D8A01206BA519E
:1051A000126274EF28F0B9511164116E74EF28F097
:1051B000000133A2BE6933BCE3EF28F00001A00E6A
:1051C000116E0F0E126E000133BEECEF28F00001DD
:1051D000D00E116E070E126E1EEC25F07AEC1EF04A
:1051E000D8A078EF28F01200C00E18EC0DF00FC018
:1051F000F6FF10C0F7FF7EEC0DF0FA0E9DEC0BF001
:10520000ADEC29F0D8A40BEF29F0110E0F26D8B081
:10521000102A12EF29F0D8A01FEF29F0130E0F2645
:10522000D8B0102A0FC0F6FF10C0F7FFF86A0900C7
:10523000F5CF0FF00900F5CF10F0F4EF28F01EECD9
:1052400025F07AEC1EF0D8A0F4EF28F0150E0F260A
:10525000D8B0102A0FC0F6FF10C0F7FFF86A090097
:10526000F5CF0AF00900F550CEC0E1FFCFC0E2FF54
:105270000AC0E7FF12000F0BE8B6080B0C0DF3CFC6
:1052800013F0F4CF14F000012A0E1326710E14222D
:10529000CC0E18EC0DF013C0F6FF14C0F7FF7EEC37
:1052A0000DF0FA0E9DEC0BF0ADEC29F0D8A45FEFF9
:1052B00029F0050E1326D8B0142A66EF29F0D8A0DD
:1052C00073EF29F0070E1326D8B0142A13C0F6FF87
:1052D00014C0F7FFF86A0900F5CF13F00900F5CF05
:1052E00014F048EF29F01EEC25F07AEC1EF0D8A05F
:1052F00048EF29F0090E1326D8B0142A13C0F6FF80
:1053000014C0F7FFF86A0900F5CFE8FF1200040E99
:1053100093EC08F0040E93EC08F0C5C0E8FFC35E00
:10532000C6C0E8FFC45AC4BEA0EF29F0640EC35E35
:10533000000EC45AC4BEAAEF29F0D884D890120037
:10534000640EC326000EC422C4AEAAEF29F0D8947E
:10535000D8801200D894D8901200050E93EC08F073
:10536000050E93EC08F0C7C0E8FFC35EC8C0E8FFB5
:10537000C45AC4BECAEF29F0640EC35E000EC45AFC
:10538000C4BEDAEF29F0C466C368C3CFF0F0D88496
:10539000D8901200640EC326000EC422C4AEDAEF09
:1053A00029F0C31EC41EC466C368C3CFF0F0D894EE
:1053B000D8801200D894D8901200D7EF2AF0800E2F
:1053C00018EC0DF0000EF86E670EF76E5A0EF66EC2
:1053D0007EEC0DF024EF2BF00101720E1E6F670EB4
:1053E0001F6F01015E0E206F690E216F67EC2AF0BE
:1053F000A0EC1EF000C2E8FF31EC1FF05EEC1FF0E5
:10540000120001018A0E1E6F670E1F6F0101500E00
:10541000206F6A0E216F67EC2AF0F8EF29F0010186
:10542000A20E1E6F670E1F6F01013A0E206F6C0EE9
:10543000216F67EC2AF0F8EF29F00101BA0E1E6F18
:10544000670E1F6F0101960E206F710E216F67ECC2
:105450002AF0F8EF29F00101D20E1E6F670E1F6FC0
:105460000101640E206F780E216F67EC2AF0F8EFCF
:1054700029F00001DD6B0101EA0E1E6F670E1F6F40
:1054800001016E0E206F7E0E216F67EC2AF0F8EF9F
:1054900029F00101020E1E6F680E1F6F0101B60E8A
:1054A000206F820E216F67EC2AF0F8EF29F00101DE
:1054B0001A0E1E6F680E1F6F0101300E206F860ED0
:1054C000216F67EC2AF0F8EF29F0FCEF31F047ECA0
:1054D00025F020C10DF021C10EF080EC25F00DC0AB
:1054E00020F10EC021F1EAC026F1EBC027F1000146
:1054F0001150090AD8A4C9EF2AF00FC00DF010C04E
:105500000EF080EC25F00DC022F10EC023F1EAC0B0
:1055100028F1EBC029F100011150090AD8A4B1EF1C
:105520002AF00FC00DF010C00EF080EC25F00DC079
:1055300024F10EC025F1EAC02AF1EBC02BF157ECA3
:1055400026F00001CDB1B7EF2AF02AC10FF02BC130
:1055500010F04BEC26F024C10DF025C10EF095EFB4
:105560002AF057EC26F00001CDB1CEEF2AF028C189
:105570000FF029C110F04BEC26F020C10DF021C135
:105580000EF05DEC0DF022C10DF023C10EF081EFA5
:105590002AF057EC26F00001CDB1120026C10FF021
:1055A00027C110F04BEC26F067EF2AF0120000C282
:1055B000E8FFB1EC1EF0800E18EC0DF0000EF86E56
:1055C000650EF76E5C0EF66E7EEC0DF08D0E18EC2F
:1055D0000DF0020100510001136E146A156A166A7B
:1055E000DCEC0DF0CDEC05F0FA0E9DEC0BF0ADEC23
:1055F00029F0D8A406EF2BF0610E0201002B006306
:10560000D7EF2AF0010E006FD7EF2AF0D8A014EFE1
:105610002BF002010007000E0063D7EF2AF0600EA6
:105620000201006FD7EF2AF07AEC1EF0D8A0F7EF56
:105630002AF000C2E8FF06EC1FF000C2E8FFE8CF46
:10564000A5F0A0EC1EF01200C00E18EC0DF0CDEC91
:1056500005F0000EE16E030EE26E960E9DEC0BF06F
:10566000C00EE12418EC0DF0E75009EC0DF0C00E6F
:10567000E12418EC0DF00E0E18EC0DF087EC29F07B
:10568000D8A44CEF2BF0E12A0F0EE1642DEF2BF0A4
:10569000000EE16E2DEF2BF0D8A058EF2BF0E106B5
:1056A000FF0EE1622DEF2BF00F0EE16E2DEF2BF0D0
:1056B000ADEC29F0D8A463EF2BF0E72A7A0EE7606F
:1056C000E76E2DEF2BF0D8A06CEF2BF0E706200E45
:1056D000E764E76E2DEF2BF07AEC1EF0D8A03EEFDA
:1056E0002BF00C0E18EC0DF000C2E8FF31EC1FF0AF
:1056F00012000DC02CF10EC02DF10FC02EF110C004
:105700002FF1D0C00DF0D1C00EF00001E80E0F6EE9
:10571000030E106E60EC10F00001000E176E010E0B
:10572000186E64EC11F013C0D0F014C0D1F0000179
:10573000D251D027D351D123D4C00DF0D5C00EF013
:105740000001E80E0F6E030E106E60EC10F0000109
:10575000000E176E010E186E64EC11F0D2C0D4F07A
:10576000D3C0D5F01350D45F1450D55BD0C00DF02A
:10577000D1C00EF05BEC1EF00DC0D0F00EC0D1F029
:10578000D2C00DF0D3C00EF05BEC1EF00DC0D2F015
:105790000EC0D3F0D4C00DF0D5C00EF05BEC1EF0FF
:1057A0000DC0D4F00EC0D5F02CC10DF02DC10EF0FF
:1057B0002EC10FF02FC110F012000DC02CF10EC041
:1057C0002DF10FC02EF110C02FF1D0C00DF0D1C0BF
:1057D0000EF00001E80E0F6E030E106E60EC10F07C
:1057E0000001000E176E010E186E64EC11F0D2C0AD
:1057F000D0F0D3C0D1F000011350D0271450D123E2
:105800001350D25F1450D35BD0C00DF0D1C00EF056
:105810005BEC1EF00DC0D0F00EC0D1F0D2C00DF088
:10582000D3C00EF05BEC1EF00DC0D2F00EC0D3F072
:105830002CC10DF02DC10EF02EC10FF02FC110F0B4
:1058400012000DC02CF10EC02DF10FC02EF110C0B2
:105850002FF1D0C00DF0D1C00EF0D2510D5ED3515A
:105860000E5A0001000E0F6E010E106E60EC10F06B
:105870000001E80E176E030E186E64EC11F013C0F1
:10588000D0F014C0D1F0D2C00DF0D3C00EF0D4517E
:105890000D5ED5510E5A0001000E0F6E010E106EF6
:1058A00060EC10F00001E80E176E030E186E64EC49
:1058B00011F013C0D4F014C0D5F02CC10DF02DC1DF
:1058C0000EF02EC10FF02FC110F012000DC02CF100
:1058D0000EC02DF10FC02EF110C02FF1D0C00DF071
:1058E000D1C00EF00001D2510D5ED3510E5A00010D
:1058F000000E0F6E010E106E60EC10F00001D00E65
:10590000176E070E186E64EC11F013C0D0F014C0BF
:10591000D1F0D0C00DF0D1C00EF00001E80E0F6E36
:10592000030E106E60EC10F00001000E176E010EF9
:10593000186E64EC11F000011350D2271450D323D9
:105940002CC10DF02DC10EF02EC10FF02FC110F0A3
:1059500012000DC02CF10EC02DF10FC02EF110C0A1
:105960002FF10001BEA1E1EF2CF0000E00010F1895
:10597000D8B4CCEF2CF0D2C013F0D3C014F0D89030
:1059800013361436D051135ED151145A13C0D4F0CB
:1059900014C0D5F0E1EF2CF0000E00010F18D8B4C0
:1059A000E1EF2CF0D2C013F0D3C014F0D89013362E
:1059B0001436D451135ED551145A13C0D0F014C00C
:1059C000D1F02CC10DF02DC10EF02EC10FF02FC162
:1059D00010F012003C0E0001B86F0001110EB56FFF
:1059E000030EB66F0001D00EB36F000EB46F0B0E36
:1059F000B76F4FEC23F0DB6B79EC2BF012003A0E13
:105A00000001B86F00011C0EB56F030EB66FF2EF08
:105A10002CF03E0E0001B86F0001270EB56F030E8B
:105A2000B66FF2EF2CF00001110EB36F030EB46FDE
:105A3000A9EC2CF0DBA1D86B21EC2CF00001D00EEE
:105A4000B56F000EB66F0B0EB76F4FEC23F0000171
:105A5000B86B120000011C0EB36F030EB46F18EF89
:105A60002DF00001270EB36F030EB46F18EF2DF069
:105A70000DC02CF10EC02DF10FC02EF110C02FF172
:105A8000030132C30DF033C30EF00001E80E0F6EB8
:105A9000030E106E60EC10F00001000E176E010E88
:105AA000186E64EC11F013C032F314C033F3030129
:105AB00034513227355133232CC10DF02DC10EF056
:105AC0002EC10FF02FC110F012000DC02CF10EC02E
:105AD0002DF10FC02EF110C02FF132C30DF033C3E2
:105AE0000EF00301345100010D5E03013551000138
:105AF0000E5A0001000E0F6E010E106E60EC10F0D9
:105B00000001E80E176E030E186E64EC11F013C05E
:105B100032F314C033F32CC10DF02DC10EF02EC1A1
:105B20000FF02FC110F00001B86B1200420E0001FF
:105B3000B86F00013A0EB56F030EB66F0001D00EBC
:105B4000B36F000EB46F040EB76F4FEC23F0DDECB3
:105B50002BF01200440E0001B86F00013E0EB56F2D
:105B6000030EB66F9EEF2DF0460E0001B86F0001D8
:105B7000420EB56F030EB66F9EEF2DF000013A0E88
:105B8000B36F030EB46F66EC2CF00001D00EB56F4E
:105B9000000EB66F040EB76F4FEC23F00001B86B28
:105BA000120000013E0EB36F030EB46FC3EF2DF071
:105BB0000001420EB36F030EB46FC3EF2DF000016E
:105BC000460EB56F030EB66F0001D00EB36F000E18
:105BD000B46F060EB76F4FEC23F079EC2BF0120088
:105BE00021EC2CF00001D00EB56F000EB66F000155
:105BF000460EB36F030EB46F060EB76F4FEC23F073
:105C00000001B86B1200AEC2B9F0AFC2BAF0B0C2B8
:105C1000BBF0B1C2BCF01200CEC0B5F0CFC0B6F040
:105C20000001DC0EB36F000EB46F050EB76F4FECC2
:105C300023F0CEC0B3F0CFC0B4F00001DC51E83A9D
:105C40000F0BE46FE36BDDBFE31FE16BDF51DDBDE5
:105C5000E16FE26BE051DDBBE26F0F0EE117E2177F
:105C6000DD17DC1712000001E451E83AF00BDC13F9
:105C7000E3BFDD8FE151E812D8B442EF2EF0E151DD
:105C8000DF6FDD8DE251E812D8B44AEF2EF0E25119
:105C9000E06FDD8B0001DC0EB56F000EB66F050EF8
:105CA000B76F4FEC23F0120010C4DFF011C4E0F026
:105CB0001200DFC010F4E0C011F4120012C4DFF0D3
:105CC00013C4E0F01200DFC012F4E0C013F41200BD
:105CD00014C4DFF015C4E0F01200DFC014F4E0C01B
:105CE00015F412000001DBAF12000301196B246BE5
:105CF0002F6B12000001DBAF1200A7C313F0A8C383
:105D000014F0835113268451142213C0A7F314C036
:105D1000A8F3A9C313F0AAC314F085511326865122
:105D2000142213C0A9F314C0AAF3ABC313F0ACC37D
:105D300014F0875113268851142213C0ABF314C0FA
:105D4000ACF312000001DBAF12000301A76BA86BDC
:105D5000A96BAA6BAB6BAC6B12000001B96BB92BD2
:105D6000600E0001BB6F12000001DD51DD67BAEF6C
:105D70002EF01200020100C20AF0006F00010AC0FA
:105D8000DDF031EC1FF00001DDC00AF002010AC0B5
:105D900000F212000001DBAF120003011951196B70
:105DA00018C30AF000010D6E0E6AE8BE0E680D36CB
:105DB0000E360001640E0F6E000E106E60EC10F0D7
:105DC0000AC017F0186A64EC11F013500301A727FA
:105DD000000114500301A82303012451246B23C3A1
:105DE0000AF000010D6E0E6AE8BE0E680D360E3622
:105DF0000001640E0F6E000E106E60EC10F00AC011
:105E000017F0186A64EC11F013500301A927000180
:105E100014500301AA2303012F512F6B2EC30AF044
:105E200000010D6E0E6AE8BE0E680D360E360001DA
:105E3000640E0F6E000E106E60EC10F00AC017F0CA
:105E4000186A64EC11F013500301AB2700011450E1
:105E50000301AC2312000001DBAF12005DEC32F055
:105E600012004FEC23F012000001D00EB36F000EB1
:105E7000B46FCEC0B5F0CFC0B6F00B0EB76F4FEC1D
