:020000040000FA
:040200006BEF03F0AD
:040208000EEF01F004
:080218002DEF01F0D8CF01F039
:10022000E0CF02F0006EF3CF03F0F4CF04F0F0ACB7
:100230001DEF01F0F0B099EC0BF0A2A023EF01F05C
:10024000A1B044EC09F003C0F3FF04C0F4FF005078
:1002500002C0E0FF01C0D8FF1000D8CF06F0E8CF01
:1002600005F0E0CF07F0F3CF08F0F4CF09F0F0BCD1
:100270003DEF01F0F0B099EC0BF0A2B043EF01F0CC
:10028000A1B044EC09F0A2B04CEF01F0AECFE8FF12
:100290006ECFE8FF52EF01F09EBA3FEC0FF0A4BA28
:1002A000AAEC0FF008C0F3FF09C0F4FF07C0E0FF9D
:0A02B00005C0E8FF06C0D8FF1000EB
:10030000F95000011150F92632EF2AF034EF2AF0AB
:1003100041EF2AF056EF2AF064EF2AF072EF2AF04C
:1003200080EF2AF08EEF2AF09EEF2AF0ACEF2AF051
:10033000BAEF2AF012000009D8A4A5EF01F00001DD
:10034000000E0F6E000E106E1200E806030B0A0D71
:10035000F9CFE8FFF350F92683C00FF084C010F006
:10036000120085C00FF086C010F0120087C00FF099
:1003700088C010F0120089C00FF08AC010F012007F
:10040000EFCFE8FFE806070B0A0DF9CFE8FFF3503E
:10041000F9263CC04EF03DC04FF012003AC04EF0FD
:100420003BC04FF012003EC04EF03FC04FF01200F4
:1004300040C04EF041C04FF0120042C04EF043C0E9
:100440004FF0120044C04EF045C04FF0120046C0BD
:100450004EF047C04FF0120048C04EF049C04FF078
:1004600012000F0B060DF9CFE8FFF350F926BBC2BF
:10047000E8FF1200BCC2E8FF1200BDC2E8FF120094
:10048000BEC2E8FF1200BFC2E8FF1200C0C2E8FF10
:100490001200C1C2E8FF1200C2C2E8FF1200C3C2CC
:1004A000E8FF1200C4C2E8FF1200C5C2E8FF120054
:1004B000C6C2E8FF1200C7C2E8FF1200C8C2E8FFC8
:0E04C0001200C9C2E8FF1200CAC2E8FF120013
:100500000001E806070B0A0DF9CFE8FFF350F926C2
:100510008D510D6E8E510E6E12008F510D6E9051D9
:100520000E6E120091510D6E92510E6E120093518B
:100530000D6E94510E6E120095510D6E96510E6E09
:10054000120097510D6E98510E6E120099510D6E5A
:100550009A510E6E12009B510D6E9C510E6E120040
:100600000001E8BE33EF03F0E806070B0A0DF9CF4F
:10061000E8FFF350F9260D5073270E507423120093
:100620000D5075270E50762312000D5077270E506F
:10063000782312000D5079270E507A2312000D50A6
:100640007B270E507C2312000D507D270E507E23F9
:1006500012000D507F270E50802312000D5081276D
:100660000E5082231200E806070B0A0DF9CFE8FFAF
:10067000F350F9260D50736F0E50746F12000D5029
:10068000756F0E50766F12000D50776F0E50786FA9
:1006900012000D50796F0E507A6F12000D507B6F63
:1006A0000E507C6F12000D507D6F0E507E6F120049
:1006B0000D507F6F0E50806F12000D50816F0E50E5
:1006C000826F1200F2AE12000001010EA16FA1674D
:1006D00067EF03F0120092988098939C819C000130
:1006E0005B6A5C6A0001546A640ED0EC0BF00F0187
:1006F0008350306E316E326E0F018450336E346E23
:10070000356E0F0199908780949693948296819488
:100710000001000E176E000E186E0001000E196E1B
:10072000000E1A6E0001000E1B6E000E1C6E000102
:10073000000E1D6E000E1E6E0001000E136E000EE8
:10074000146E0001000E156E000E166E0001000EF4
:10075000AB6F000EAC6F0001000EAD6F000EAE6F00
:100760000001000EAF6F000EB06F0001000EB16F00
:10077000000EB26F00015E6A5F6A606BA16BA26BD4
:10078000A36BE769E96B0201BA6B0101116B000110
:10079000CC6BA2EC32F0020100510001A56F040EF7
:1007A000BFEC08F0040EBFEC08F00001C350C56FA9
:1007B000C450C66F050EBFEC08F0050EBFEC08F084
:1007C0000001C350C76FC450C86F000EE8CF0DF0D2
:1007D000E86AE8CF0EF0DBEC0BF0E8CF00F5010E95
:1007E000E8CF0DF0E86AE8CF0EF0DBEC0BF0E8CFD5
:1007F00001F5F3EC0CF0FA0ED0EC0BF0FA0ED0ECA5
:100800000BF0FA0ED0EC0BF0FA0ED0EC0BF0F4EC8F
:1008100008F00DEC25F0D8EC0EF0ECEC0EF0F28EBA
:10082000F28CD08E0F01D89083B6D880D8B01EEF4E
:1008300004F00A0ED0EC0BF00F01D89083B6D880EC
:10084000D8B034EF04F00F01D89084B2D880D8B07B
:100850002FEF04F00A0ED0EC0BF00F01D89084B209
:10086000D880D8A056EF04F0CEEC1EF00201A50E01
:10087000A76341EF04F0E70EA86341EF04F045EFF2
:1008800004F0A2EC32F0FCEC0BF000C2E8FF49EC03
:100890001FF00301AD510201A56F1CEC0BF097ECAA
:1008A0000AF00101F20E066FD4EC0AF00F01D890A5
:1008B00084B2D880D8A056EF04F00A0ED0EC0BF02A
:1008C0000F01D89084B2D880D8A056EF04F0808869
:1008D000D2C2E8FFE8666EEF04F080989298040EAA
:1008E000BFEC08F0040EBFEC08F00001C350C56F68
:1008F000C450C66F050EBFEC08F0050EBFEC08F043
:100900000001C350C76FC450C86F0F01D89084B4A2
:10091000D880D8B091EF04F00A0ED0EC0BF00F01A4
:10092000D89084B4D880D8B0A7EF04F00F01D89045
:1009300083B6D880D8B0A2EF04F00A0ED0EC0BF04A
:100940000F01D89083B6D880D8A0E7EF07F0020156
:10095000A0C20AF00201FF0E0AB0A56FA56114EF54
:1009600005F00301A6A1F4EF04F00F0183BEF4EF3C
:1009700004F0800E42EC0DF0000EF86E660EF76E7D
:10098000BA0EF66EB8EC0DF0C00E42EC0DF0000E93
:10099000F86E660EF76E5A0EF66EB8EC0DF00F019B
:1009A000D89084B4D880D8B0DBEF04F00A0ED0EC35
:1009B0000BF00F01D89084B4D880D8B0CFEF04F0FA
:1009C0000F01D89084B4D880D8A0E0EF04F00A0ECC
:1009D000D0EC0BF00F01D89084B4D880D8A0E0EF11
:1009E00004F0C80ED0EC0BF00201D1B1FBEF04F023
:1009F000D1A314EF05F0800E00019D6FB9EC31F02A
:100A0000D8907CEC27F0D8B00BEF05F00201FF0E78
:100A1000A56F14EF05F01CEC0BF097EC0AF0D4EC8A
:100A20000AF00A0ED0EC0BF00001010E366EA3C2E4
:100A300052F0A4C253F00201A25100014D6EA5EC88
:100A400023F0A1EC1FF0FCAE29EF05F00F01939409
:100A50008194000133B049EF05F0010E3662AFEF2B
:100A600005F00001050EE8CF5DF0070E63EC0AF01B
:100A7000020E366E0001A5510201006342EF05F03F
:100A8000AFEF05F0006F49EC1FF0A1EC1FF0AFEFE6
:100A900005F0010E366E46EC23F030EC18F06CECED
:100AA00007F00201A1A17AEF05F00301B651BAECFB
:100AB00024F0D8A07AEF05F00201B76772EF05F0D5
:100AC000ABC073F0ACC074F0ADC075F0AEC076F0E2
:100AD000AFC077F0B0C078F0B1C079F0B2C07AF0B2
:100AE0007AEF05F0F08CF086A290E868E8CFEEF09F
:100AF00080EF05F0F09CF086A280E86AE8CFEEF087
:100B00000201A0B19FEF05F062EC17F0D8B49FEF9F
:100B100005F0EFEC19F082EC19F0BCEC1BF057EC8F
:100B20001CF04DEC1AF0DBEC21F0F9EC1FF0E3ECDB
:100B300021F033EC1BF00001E9676FEC10F062EC80
:100B400003F038EC1DF091EC0EF00001A267ADEF60
:100B500005F00A0EA26FF7EC05F023EF05F0800E0A
:100B600042EC0DF0000EF86E670EF76EEC0EF66EAE
:100B7000B8EC0DF0C00E42EC0DF0000EF86E660EF3
:100B8000F76E5A0EF66EB8EC0DF0BDEC1EF0D8A064
:100B9000CCEF05F087EC25F030EC18F0EFEC19F015
:100BA00082EC19F0BCEC1BF057EC1CF04DEC1AF089
:100BB000DBEC21F0F9EC1FF0E3EC21F033EC1BF05F
:100BC00038EC1DF091EC0EF023EF05F00001100E53
:100BD0000B6EC00E42EC0DF0000EE16E030EE26EE5
:100BE000E65033EC0DF00B2EF0EF05F01200000193
:100BF000840E42EC0DF0200E33EC0DF00201520E8B
:100C0000A5BF200E000133EC0DF00601CE51BAEC69
:100C100024F0410ED8A0200E33EC0DF00301B251A8
:100C2000BAEC24F04D0ED8B02D0E33EC0DF00301CC
:100C3000B351BAEC24F04D0ED8B02D0E33EC0DF0BC
:100C40000301B451BAEC24F04D0ED8B02D0E33ECA4
:100C50000DF0200E33EC0DF0800E42EC0DF0B9C219
:100C60000DF0BAC20EF00E6A0001640E0F6E000E97
:100C7000106E9AEC10F013C011F014C012F08BC07B
:100C80000DF08CC00EF013C20FF014C210F09AECED
:100C900010F01450E8CF13F01550E8CF14F0156A97
:100CA000010111B164EF06F000011150135C125004
:100CB0001458E8AE64EF06F0C90E00015D6E050E33
:100CC00063EC0AF001011169000148EC0EF0200EFE
:100CD000E8CF0AF0300E25640AC025F0255033EC29
:100CE0000DF0265033EC0DF02E0E33EC0DF02750A6
:100CF00033EC0DF00301B651BAEC24F0D8A09DEF0F
:100D000006F0A1C2E8FFE81EE86694EF06F0800E48
:100D100042EC0DF0000EF86E660EF76E900EF66E59
:100D2000B8EC0DF09DEF06F0800E42EC0DF000C522
:100D300013F001C514F01EEC0EF00201B8AFB6EFCF
:100D400006F0B86B000EE8CF0DF0E86AE8CF0EF0C1
:100D500000C5E8FFE6EC0BF0010EE8CF0DF0E86A05
:100D6000E8CF0EF001C5E8FFE6EC0BF095EC07F0DC
:100D7000D8B0E0EF06F0A6EC07F0D8B0E0EF06F050
:100D800012EC25F0D8B0E0EF06F0D9EC23F000012A
:100D9000A351E812D8A4E0EF06F00201A0A1DEEF13
:100DA00006F0C00E42EC0DF0000EF86E660EF76E07
:100DB000740EF66EB8EC0DF0E0EF06F0E6EC05F020
:100DC000000133B4FBEF06F035A4FBEF06F03594D9
:100DD000010E5D6E050E63EC0AF000015466FAEF39
:100DE00006F0542ABEC358F0BFC359F0CA6BCB6B90
:100DF000FBEF06F05406000154A02EEF07F05966F1
:100E00002EEF07F03B0E5A620DEF07F0050E5D6EF8
:100E10000A0E63EC0AF02EEF07F01E0E5A6218EF6E
:100E200007F0030E5D6E0A0E63EC0AF02EEF07F07A
:100E30000A0E5A6223EF07F0010E5D6E0A0E63EC94
:100E40000AF02EEF07F0060E5A602EEF07F0010EA3
:100E50005D6E0A0E63EC0AF02EEF07F07F0E5A6EFD
:100E60005650CE6F5750CF6F010E546257EF07F0B8
:100E700058505910D8B446EF07F05850CE6F59501B
:100E8000CF6F000E0301BD6357EF07F0020E0301A1
:100E9000BD5DD8B453EF07F00001CA51CE6FCB51FE
:100EA000CF6F57EF07F0E86A0001CE6FCF6F0001F8
:100EB0008B0E42EC0DF0CF51E8CF13F0146A156A97
:100EC000166A16EC0EF03A0E33EC0DF0CE51E8CF68
:100ED00013F016EC0EF012000301C051BAEC24F02E
:100EE000D8A092EF07F00301000EC1658FEF07F065
:100EF00000017ABF92EF07F00301C15100010D6EAE
:100F00000E6A00010A0E0F6E000E106E9AEC10F0C1
:100F10007951135E7A511458D8B092EF07F000015E
:100F2000E76912000001E76B1200D8900001CCAF16
:100F30001200C00E42EC0DF0000EF86E670EF76E58
:100F4000260EF66EB8EC0DF0D88012000D0EBFEC38
:100F500008F00D0EBFEC08F069C00DF06AC00EF08D
:100F6000A9C20FF0AAC210F09AEC10F000011450C0
:100F7000136E1550146E1650156E166A48EC0EF06E
:100F80000001255026100F0BD890D8B41200C00EC7
:100F900042EC0DF0000EF86E670EF76E140EF66E52
:100FA000B8EC0DF0CB0E42EC0DF00001255033EC07
:100FB0000DF0265033EC0DF02E0E33EC0DF02750D3
:100FC00033EC0DF0285033EC0DF0D88012000F01F7
:100FD000D89084B4D880D8A0E7EF07F00A0ED0EC00
:100FE0000BF00F01D89084B4D880D8A0E7EF07F0B9
:100FF0000F01D89083B6D880D8A0F8EF07F00A0E7A
:10100000D0EC0BF00F01D89083B6D880D8A0F8EFC1
:1010100007F0800E42EC0DF00F018350D5EC0DF07F
:101020000F018450D5EC0DF0C00E42EC0DF00F0115
:101030008650D5EC0DF00F018750D5EC0DF00F0167
:10104000835082868184E8B08296E8B28194809849
:10105000E8B48088320ED0EC0BF00F01D89084B445
:10106000D880D8B039EF08F00A0ED0EC0BF00F01A1
:10107000D89084B4D880D8B009EF08F00F01D89088
:1010800084B4D880D8A03EEF08F00A0ED0EC0BF064
:101090000F01D89084B4D880D8A03EEF08F0C00EDD
:1010A00042EC0DF0000EF86E650EF76ECA0EF66E8D
:1010B000B8EC0DF000010D6A800E42EC0DF0000E50
:1010C000F86E660EF76E000EF66EB8EC0DF0870E39
:1010D00042EC0DF000010D50E2EC0DF0BFEC08F019
:1010E0008C0E42EC0DF00F01C4CFE8FFE2EC0DF0E6
:1010F0000F01C3CFE8FFE2EC0DF0320ED0EC0BF0A5
:101100000F01D89084B4D880D8B08CEF08F00A0EC4
:10111000D0EC0BF00F01D89084B4D880D8B05CEF3D
:1011200008F00F01D89084B4D880D8A091EF08F0CF
:101130000A0ED0EC0BF00F01D89084B4D880D8A060
:1011400091EF08F000010D2A0C0E0D645CEF08F021
:1011500009EF08F00001136A146A156A166A0A6E2C
:101160000B6A0A50BFEC08F00001C3501326C450AC
:101170001422D8B0152A0B2EB1EF08F012000A6E17
:10118000A10EC06E000EC16E0AC0E8FF31EC02F085
:10119000E8AEC188E89EE844E844C26EC280000020
:1011A000C282C2B2D1EF08F00001C3CF69F0C4CF50
:1011B0006AF00AC0E8FF12000F01C282C2B2DEEF7D
:1011C00008F00001C3506927C4506A231200BFEC25
:1011D00008F0DCEC08F0DCEC08F0DCEC08F00001D6
:1011E0006A336A9F6933120000014C6A566A576A73
:1011F0002D0EE8CF55F00001900E526E010E536E89
:101200000001900E4E6E010E4F6E506A516A100E24
:101210000001E8CF4DF0386A3A6A3C6A3E6A406A9B
:10122000426A446A466A486A4A6A080EE8CF39F058
:10123000E8CF3BF0E8CF3DF0E8CF3FF0E8CF41F01A
:10124000E8CF43F0E8CF45F0E8CF47F0E8CF49F0EA
:10125000E8CF4BF0979E858E000152500F01E8CFEA
:10126000BBFF010153500F01E8CFBCFF0A0E0F0175
:10127000E8CFBAFF0F01A0800F019E900F01080E6A
:10128000E8CFB1FFB18012000001EEA1857E02011E
:10129000BAAF4EEF09F0877056EF09F00001E5B1E3
:1012A00055EF09F0878056EF09F087900001BBCF1A
:1012B000E8FF4E26BCCFE8FF4F224EC0E8FFE8CF44
:1012C000BBFF4FC0E8FFE8CFBCFF0001E86A4C64F9
:1012D000CDEC09F000014C2A4CC0E8FFFE0B4D603C
:1012E00083EF09F04C6A9C0EE8CF4EF050C0E8FF47
:1012F0004E5EAD0EE8CF4FF051C0E8FF4F5A506A36
:10130000516ACAEF09F04CA098EF09F052C0E8FF0B
:10131000E8CF4EF053C0E8FFE8CF4FF0BAC2E8FF85
:101320000001E5814C62C4EF09F0E591C4EF09F0DA
:10133000120E4C62B0EF09F050C0E8FFE8CF4EF05B
:1013400051C0E8FFE8CF4FF04F324E324F324E32AD
:101350004F324E324F324E320F0E4F16C4EF09F05D
:10136000040EE8CFEAFF000EE8CFE9FF4CC0E8FF2B
:10137000E830E89EE804E92600EC02F052C0E8FFFD
:101380004E5E53C0E8FF4F5A4EC0E8FF50264FC094
:10139000E8FF51220F01A1901200C6EC0EF0D0EC34
:1013A0000EF00001010E3662DCEF09F000018286CA
:1013B000BDB18296FF0EBD6F87900301CDBFE4EFF4
:1013C00009F0859EE5EF09F0858E0001552E2BEF83
:1013D0000AF010EC25F0000154A01BEF0AF0000108
:1013E000FF0EE7631BEF0AF058C0E8FF5910D8B4AE
:1013F00013EF0AF0586600EF0AF03C0E586E5906DB
:10140000580658505A6E0301E86ABD11D8B413EF5C
:101410000AF0000158505910D8B413EF0AF0CA6B03
:10142000CB6B1BEF0AF00001CA2B3C0ECA631BEF0B
:101430000AF0CA6BCB2B2D0EE8CF55F0562A3C0E86
:1014400056622BEF0AF0566A572A0501002BD8B4D2
:10145000012B0201B8690201A1A134EF0AF0530E79
:10146000F8EC0EF00001A86B000183CFE8FF311A01
:10147000D8A4306E316E30C0E8FF3212000184CF44
:10148000E8FF341AD8A4336E346E33C0E8FF351247
:1014900000015E665E065F665F0660676007A167C3
:1014A000A107A267A207A367A3075C6659EF0AF02A
:1014B00012005C2E120080785D4E12005BC0E8FFC7
:1014C000E8CF5CF01200E8CF5BF0E8CF5CF0D2C26E
:1014D000E8FFE8666EEF0AF080881200809812003C
:1014E00000010ABE77EF0AF0819E78EF0AF0818E44
:1014F000828A829A0A460B2E70EF0AF012000201CD
:10150000AD510A6E080E0B6E70EC0AF00201AC5180
:101510000A6E080E0B6E70EC0AF00201AB510A6EF7
:10152000080E0B6E70EC0AF08686869612000BC1D0
:1015300013F00CC114F00DC115F009C117F00AC168
:1015400018F09EEC11F00201A55101010F03F350B8
:1015500000011326D8B0142AD8B0152A0101006B57
:10156000016B026B00011350E846E846E880E89200
:101570001F0B13B6E88E0101006F000113361436FD
:10158000153613361436153613361436153613360B
:101590001436153614500101016F000115501F0B50
:1015A00001011009026F120097EC0AF001010851C5
:1015B0000A6E080E0B6E70EC0AF0010107510A6EFC
:1015C000080E0B6E70EC0AF0010106510A6E080E4F
:1015D0000B6E70EC0AF086868696010105510A6E44
:1015E000080E0B6E70EC0AF0010104510A6E080E31
:1015F0000B6E70EC0AF0010103510A6E080E0B6EBF
:1016000070EC0AF086868696010102510A6E080E79
:101610000B6E70EC0AF0010101510A6E080E0B6EA0
:1016200070EC0AF0010100510A6E080E0B6E70ECAE
:101630000AF08686869612000F01939E949A939CD8
:10164000819C819E829A989686960201D1A14BEF49
:101650000BF0D1B34BEF0BF004C206F105C207F15A
:1016600006C208F101C203F102C204F103C205F18E
:101670000101700E0B6FC60E0C6F000E0D6F010195
:10168000140E096F000E0A6F01010E6B0A0E106F27
:10169000010E0F6F12000201D1B171EF0BF0D1A357
:1016A00071EF0BF00AC206F10BC207F10CC208F190
:1016B00007C203F108C204F109C205F101016C0E71
:1016C0000B6FCF0E0C6F000E0D6F0101640E096FD2
:1016D000000E0A6F01010E6B080E106F010E0F6FE6
:1016E00012000201D1B198EF0BF0D1B398EF0BF0DB
:1016F00010C206F111C207F112C208F10DC203F1C6
:101700000EC204F10FC205F101014A0E0B6F190E52
:101710000C6F010E0D6F01010A0E096F000E0A6FAA
:1017200001010B0E0E6F320E106F020E0F6F1200C2
:10173000120087B2B7EF0BF0D5AEA9EF0BF0D6CF02
:10174000C1F0D7CFC2F00001C32BD8B4C42BF090A6
:1017500012000001C351C411F090D8A41200E86A2D
:10176000E8CFD7FFE8CFD6FFD58EF0901200F17A00
:10177000F0ACC9EF0BF00301CDA1C5EF0BF0F1AA5E
:10178000859EF1BA858EC9EF0BF0F1AA858EF1BA6C
:10179000859EF09012000000E82ECBEF0BF01200B7
:1017A0000A6EFA0ECBEC0BF0FA0ECBEC0BF00A2E15
:1017B000D1EF0BF012000EC0E8FFAA6E0DC0E8FFDB
:1017C000A96EA69EA69CA680A8501200A86E0EC068
:1017D000E8FFAA6E0DC0E8FFA96EA69EA69CA6848F
:1017E000F29E550EA76EAA0EA76EA682F28EA1A833
:1017F000F7EF0BF0A1981200800E42EC0DF0000EF6
:10180000F86E660EF76ECC0EF66EB8EC0DF0C00EEC
:1018100042EC0DF0000EF86E660EF76E480EF66E96
:10182000B8EC0DF0C5EC27F0D8A03CEF0CF0C00EE2
:1018300042EC0DF0000EF86E660EF76EDE0EF66EE0
:10184000B8EC0DF0A2EC32F0E3EC1EF00001600EFB
:101850009E6F00C2E8FF74EC1FF00201002B030131
:10186000072B3A0E076338EF0CF0062B300E076F8C
:1018700000019E2F29EF0CF0CEEC1EF000C2E8FF15
:1018800049EC1FF0120000011550F86E1450F76E6D
:101890001350F66E00010E50E26E0D50E16E09001D
:1018A000F550E66E0A060900F550E66E0A2E4FEF77
:1018B0000CF0120000011550F86E1450F76E135022
:1018C000F66EA68EA69CA684A688F29E550EA76EDE
:1018D000AA0EA76EA6820000F28E0001400E13260B
:1018E000000E142215220A2E5AEF0CF0120062ECA0
:1018F00003F000011550F86E1450F76E1350F66E99
:10190000A68EA69CA684A688F29E550EA76EAA0E49
:10191000A76EA682F28E0A0000010E50E26E0D50F4
:10192000E16E400E0B6EE6CFE8FFF56E0F000B2E5A
:10193000FAD7A68EA69CA684F29E550EA76EAA0E76
:10194000A76EA682F28EA6940001400E1326000E0A
:10195000142215220001400E0D26000E0E220A2E22
:1019600077EF0CF0120000011550F86E1450F76E6E
:101970001350F66EA68EA69CA684A688F29E550EDF
:10198000A76EAA0EA76EA6820000F28E0A00080EAD
:101990000B6E00010E50E26E0D50E16E080E0C6EE3
:1019A000E6CFE8FFF56E0F000C2EFAD7A68EA69CA8
:1019B000A684F29E550EA76EAA0EA76EA682000000
:1019C000F28E0B2EEBD7A6940001400E1326000ECC
:1019D000142215220001400E0D26000E0E220A2EA2
:1019E000B3EF0CF012000F019A6A886A9396939AEB
:1019F00093988186818A8188140ED0EC0BF0380E82
:101A000042EC0DF0050ED0EC0BF0380E42EC0DF070
:101A1000010ED0EC0BF0380E42EC0DF0010ED0ECC4
:101A20000BF0380E42EC0DF0060E42EC0DF00E0EEF
:101A300042EC0DF0010E42EC0DF0800E42EC0DF088
:101A4000800E42EC0DF0650EF76EDC0EF66EB8EC13
:101A50000DF0C00E42EC0DF0650EF76EEE0EF66E58
:101A6000B8EC0DF0120051EC0DF065EC0DF0818A30
:101A7000819800000000818600000000819600002F
:101A80000000120051EC0DF065EC0DF0819A819888
:101A90000000000081860000000081960000000028
:101AA000120058EC0DF0D8B051EF0DF09A6A120008
:101AB0009A688188819A00000000818600000000F9
:101AC000D89088B0D88081961200886AE8B088885B
:101AD000E8B2888AE8B4888CE8B6888EE8B8888648
:101AE000E8BA8884E8BC8882E8BE888012001010BA
:101AF00010101010101018181818181818181C1C8E
:101B00001C1C1C1C1C1C1E1E1E1E1E1E1E1E01013B
:101B10000101010101010303030303030303070799
:101B20000707070707070F0F0F0F0F0F0F0F800E85
:101B300042EC0DF00DC0F6FF0EC0F7FFF86AB8ECEE
:101B40000DF01200C00E42EC0DF00DC0F6FF0EC0FD
:101B5000F7FFF86AB8EC0DF01200C00E42EC0DF081
:101B6000CEC0F6FFCFC0F7FFF86AB8EC0DF0120058
:101B7000100EBBEF0DF00A6E0900F5CFE8FFE8127A
:101B8000D8B4D4EF0DF033EC0DF00A4ED4EF0DF0D5
:101B90000900F5CFE8FFE812D8B4D4EF0DF033EC2C
:101BA0000DF00A2EBCEF0DF012000A6E080E0B6E3F
:101BB000300E0ABE310E33EC0DF00A360B2ED8EF84
:101BC0000DF012000A6E3A0E0B6E0AC0E8FFF00B21
:101BD000E842E842E842E84230090B64070F33EC80
:101BE0000DF00AC0E8FF0F0B30090B64070F33EC50
:101BF0000DF00AC0E8FF120048EC0EF0255033EC5F
:101C00000DF0265033EC0DF0275033EC0DF028503A
:101C100033EC0DF0295033EC0DF0120048EC0EF0CF
:101C200001EF0EF048EC0EF004EF0EF048EC0EF071
:101C300007EF0EF048EC0EF00AEF0EF048EC0EF055
:101C400032EC0EF0255033EC0DF0265033EC0DF055
:101C5000275033EC0DF0285033EC0DF0295033ECC5
:101C60000DF012000001300E25621200200E256ECC
:101C7000300E26621200200E266E300E27621200F1
:101C8000200E276E300E28621200200E286E1200E1
:101C90000001196A1A6A100E176E270E186E9EEC54
:101CA00011F0300E1310256E1BC013F01CC014F081
:101CB0001DC015F01EC016F0196A1A6AE80E176EDC
:101CC000030E186E9EEC11F0300E1310266E1BC022
:101CD00013F01CC014F01DC015F01EC016F0196AD8
:101CE0001A6A640E176E000E186E9EEC11F0300E1C
:101CF0001310276E1BC013F01CC014F01DC015F08C
:101D00001EC016F0196A1A6A0A0E176E000E186EB7
:101D10009EEC11F0300E1310286E300E1B10296E41
:101D200012000001310E37629AEF0EF0CEEC1EF079
:101D3000C4EF0EF0320E3762A4EF0EF000C2E8FFDF
:101D400049EC1FF0C4EF0EF0330E3762ACEF0EF02B
:101D5000E3EC1EF0C4EF0EF0340E3762B4EF0EF079
:101D600000C2E8FF74EC1FF0350E3762C4EF0EF0CE
:101D70000001FF0E0D6E030E0E6EE8CF0EF0FF0E8B
:101D8000E6EC0BF0C4EF0EF0376A12000F01ABA2C5
:101D90001200AB98AB880F01AE500001616B1200CE
:101DA0000F016BA212006B986B880F016E5012002E
:101DB0000C0EE8CFAFFF220EE8CFACFF900EE8CFBD
:101DC000ABFF0001616B9F9A9D8A1200ACA2E6EF07
:101DD0000EF0E8CFADFF1200000EE8CF6FFF220E2D
:101DE000E8CF6CFF900EE8CF6BFFA59AA38A120094
:101DF0006CA2F8EF0EF0E8CF6DFF1200E1CF21F0FA
:101E0000E2CF22F0000165C0E1FF000164C0E2FF03
:101E1000686BACA209EF0FF0E6CFE8FF000168277E
:101E2000E8CFADFF0001662F09EF0FF021C0E1FF01
:101E300022C0E2FF1200E1CF21F0E2CF22F0000148
:101E400065C0E1FF000164C0E2FF686B0001050EA0
:101E50005E6EE86A5E643AEF0FF09EAA2AEF0FF01A
:101E6000AECFE8FFE8CFE6FF000168270001662F4C
:101E700026EF0FF021C0E1FF22C0E2FF12009EAA70
:101E800012000001000E616352EF0FF0AECFE8FFC9
:101E9000E8CF62F0550E62631200280EE8CF5FF0C3
:101EA000612B1200010E61635CEF0FF0AECFE8FF13
:101EB000E8CF63F0612B1200020E616366EF0FF052
:101EC000AECFE8FFE8CF64F0612B1200030E616330
:101ED00070EF0FF0AECFE8FFE8CF65F0612B120096
:101EE000040E616379EF0FF0AECFE8FFE8CF66F044
:101EF000612B050E616385EF0FF0010E636383EFC5
:101F00000FF01BEC0FF0612B1200060E6163A8EFBF
:101F10000FF0AECFE8FFE8CF67F0020E636399EFF2
:101F20000FF0FEEC0EF068C0E8FFE6EC0EF0616B1F
:101F3000120068C0E8FF6763A3EF0FF00C0EE6EC39
:101F40000EF0616B12000D0EE6EC0EF0616B1200EC
:101F5000616B1200A4AA12006ECFE8FF0201A1B1CA
:101F6000DEEF0FF0530AD8A412000201A0A1120064
:101F700000010F0E74151009F8EC0EF073C0E8FFA5
:101F8000F8EC0EF000010F0E76152009F8EC0EF0BB
:101F90007551F8EC0EF000010F0E78153009F8ECD1
:101FA0000EF07751F8EC0EF000010F0E7A15400993
:101FB000F8EC0EF07951F8EC0EF012000001A8B127
:101FC000E5EF0FF0AA6FA82B1200A96FA82B020E45
:101FD000A863FEEF0FF0AA51F00B100AD8A443EF4C
:101FE00010F00F0EAA17AAA7F8EF0FF0F00EAA1321
:101FF000A9C0ABF0AAC0ACF043EF10F0040EA86388
:1020000015EF10F0AA51F00B200AD8A443EF10F0FE
:102010000F0EAA17AAA70FEF10F0F00EAA13A9C06F
:10202000ADF0AAC0AEF043EF10F0060EA8632CEF9F
:1020300010F0AA51F00B300AD8A443EF10F00F0EA5
:10204000AA17AAA726EF10F0F00EAA13A9C0AFF0A6
:10205000AAC0B0F043EF10F0080EA86343EF10F0F1
:10206000AA51F00B400AD8A443EF10F00F0EAA17A4
:10207000AAA73DEF10F0F00EAA13A9C0B1F0AAC0B4
:10208000B2F043EF10F012000C0E0F016F6E220E33
:102090006C6E900EE8CF6BFF12000001E80E0D266B
:1020A000030E0E22780E0D5C070E0E58D8A05CEFC2
:1020B00010F0EF0E63EF10F00E320D320E320D32D3
:1020C0000E320D320D50F8EF0EF0BC0E0D5C030E0B
:1020D0000E58D8A05EEF10F0EF0E63EF10F0F00E88
:1020E000F8EC0EF0800EF8EC0EF073C00DF074C03A
:1020F0000EF04DEC10F075C00DF076C00EF04DEC0A
:1021000010F077C00DF078C00EF04DEC10F079C0F3
:102110000DF07AC00EF065EC10F07BC00DF07CC0C5
:102120000EF065EC10F07DC00DF07EC00EF065EC99
:1021300010F01200ABEC10F010AEA3EF10F00D5049
:10214000155E0E50165A0EAEAAEF10F00F50155E27
:102150001050165A12000001136A146A156A166AA2
:102160000F500D02F3CF13F0F4CF14F00F500E0206
:10217000F3501426F4501522D8B0162A10500D0230
:10218000F3501426F4501522D8B0162A10500E021F
:10219000F3501526F450162212000001246A1B6A1F
:1021A00014501310D8B4000C14501718E8BE241E95
:1021B000A46B000E17AEDFEF10F0171E172A14AE37
:1021C000E6EF10F0131E141E132A142214501710D9
:1021D000E8BE72EF11F017501B5E143614341B3634
:1021E00017501B26143614341B36175014B01B5EC0
:1021F00014A01B26143614341B36175014B01B5E63
:1022000014A01B26143614341B36175014B01B5E52
:1022100014A01B26143614341B36175014B01B5E42
:1022200014A01B26143614341B36175014B01B5E32
:1022300014A01B26143614341B36175014B01B5E22
:1022400014A01B26143613341B36175014B01B5E13
:1022500014A01B26133613341B36175013B01B5E05
:1022600013A01B26133613341B36175013B01B5EF6
:1022700013A01B26133613341B36175013B01B5EE6
:1022800013A01B26133613341B36175013B01B5ED6
:1022900013A01B26133613341B36175013B01B5EC6
:1022A00013A01B26133613341B36175013B01B5EB6
:1022B00013A01B26133613341B36175013B01B5EA6
:1022C00013A01B26133613A01B26A4B190EF11F008
:1022D00024AE000C131E141EE86A132A14221B1EBF
:1022E0001B2A000C17AE8BEF11F014BE87EF11F014
:1022F000E8CF9DF01350E8CF1BF01B9E1336143629
:102300001450E8CF13F09D51146A68EF11F0136A6E
:10231000132A146A000C141E131EA42BEBEF10F0EA
:102320001B2A17501B6268EF11F01B6A000E132A5C
:10233000142214AE68EF11F02388FF0C0001246A08
:102340001C6A1B6A155014101310D8B4000C1550D9
:102350001818E8BE241EA46B000E18AEB4EF11F0DE
:10236000171E181E172A182215AEBDEF11F0131EE6
:10237000141E151E132A1422152215501810E8BE1B
:1023800047EF13F017501B5E18501C5A15361534C2
:102390001B361C3617501B2618501C2215361534B8
:1023A0001B361C36175015A0DBEF11F01B5E1850C2
:1023B0001C5ADEEF11F01B2618501C22153615345E
:1023C0001B361C36175015A0EBEF11F01B5E185092
:1023D0001C5AEEEF11F01B2618501C22153615342E
:1023E0001B361C36175015A0FBEF11F01B5E185062
:1023F0001C5AFEEF11F01B2618501C2215361534FE
:102400001B361C36175015A00BEF12F01B5E185030
:102410001C5A0EEF12F01B2618501C2215361534CC
:102420001B361C36175015A01BEF12F01B5E185000
:102430001C5A1EEF12F01B2618501C22153615349C
:102440001B361C36175015A02BEF12F01B5E1850D0
:102450001C5A2EEF12F01B2618501C22153614346D
:102460001B361C36175015A03BEF12F01B5E1850A0
:102470001C5A3EEF12F01B2618501C22143614343E
:102480001B361C36175014A04BEF12F01B5E185071
:102490001C5A4EEF12F01B2618501C22143614340E
:1024A0001B361C36175014A05BEF12F01B5E185041
:1024B0001C5A5EEF12F01B2618501C2214361434DE
:1024C0001B361C36175014A06BEF12F01B5E185011
:1024D0001C5A6EEF12F01B2618501C2214361434AE
:1024E0001B361C36175014A07BEF12F01B5E1850E1
:1024F0001C5A7EEF12F01B2618501C22143614347E
:102500001B361C36175014A08BEF12F01B5E1850B0
:102510001C5A8EEF12F01B2618501C22143614344D
:102520001B361C36175014A09BEF12F01B5E185080
:102530001C5A9EEF12F01B2618501C22143614341D
:102540001B361C36175014A0ABEF12F01B5E185050
:102550001C5AAEEF12F01B2618501C2214361334EE
:102560001B361C36175014A0BBEF12F01B5E185020
:102570001C5ABEEF12F01B2618501C2213361334BF
:102580001B361C36175013A0CBEF12F01B5E1850F1
:102590001C5ACEEF12F01B2618501C22133613348F
:1025A0001B361C36175013A0DBEF12F01B5E1850C1
:1025B0001C5ADEEF12F01B2618501C22133613345F
:1025C0001B361C36175013A0EBEF12F01B5E185091
:1025D0001C5AEEEF12F01B2618501C22133613342F
:1025E0001B361C36175013A0FBEF12F01B5E185061
:1025F0001C5AFEEF12F01B2618501C2213361334FF
:102600001B361C36175013A00BEF13F01B5E18502F
:102610001C5A0EEF13F01B2618501C2213361334CD
:102620001B361C36175013A01BEF13F01B5E1850FF
:102630001C5A1EEF13F01B2618501C22133613349D
:102640001B361C36175013A02BEF13F01B5E1850CF
:102650001C5A2EEF13F01B2618501C22133613B0F1
:1026600036EF13F017501B2618501C22A4B16BEF45
:1026700013F024AE000C131E141E151E000E132A98
:10268000142215221B1E1C1E1B2A1C22000C18AE15
:1026900065EF13F015BE60EF13F0E8CF9DF0145016
:1026A000E8CF1CF01350E8CF1BF01C9E14361536F3
:1026B0001550E8CF13F09D51156A146A39EF13F0E5
:1026C000136A132A146A156A000C151E141E131EB1
:1026D000A42BC2EF11F01B2AE86A1C2217501B62C0
:1026E00039EF13F018501C6239EF13F01C6A1B6AA3
:1026F000000E132A1422152215AE39EF13F0238889
:10270000FF0C1E6A1D6A1C6A1B6A16341B361C36B7
:102710001D361E3617501B5E18501C5A19501D5A74
:102720001A501E5AA46AA45B163616341B361C3681
:102730001D361E36A437175016A0AAEF13F01B5EE5
:1027400018501C5A19501D5A1A501E5AE86AA45B98
:10275000B3EF13F01B2618501C2219501D221A50DB
:102760001E22E86AA423163616341B361C361D3684
:102770001E36A437175016A0C9EF13F01B5E185071
:102780001C5A19501D5A1A501E5AE86AA45BD2EFFF
:1027900013F01B2618501C2219501D221A501E22FD
:1027A000E86AA423163616341B361C361D361E3630
:1027B000A437175016A0E8EF13F01B5E18501C5AF0
:1027C00019501D5A1A501E5AE86AA45BF1EF13F013
:1027D0001B2618501C2219501D221A501E22E86A6E
:1027E000A423163616341B361C361D361E36A43767
:1027F000175016A007EF14F01B5E18501C5A195002
:102800001D5A1A501E5AE86AA45B10EF14F01B26DA
:1028100018501C2219501D221A501E22E86AA423A7
:10282000163616341B361C361D361E36A437175086
:1028300016A026EF14F01B5E18501C5A19501D5A92
:102840001A501E5AE86AA45B2FEF14F01B2618508A
:102850001C2219501D221A501E22E86AA423163683
:1028600016341B361C361D361E36A437175016A0DC
:1028700045EF14F01B5E18501C5A19501D5A1A507F
:102880001E5AE86AA45B4EEF14F01B2618501C2257
:1028900019501D221A501E22E86AA4231636163437
:1028A0001B361C361D361E36A437175016A064EF93
:1028B00014F01B5E18501C5A19501D5A1A501E5AFB
:1028C000E86AA45B6DEF14F01B2618501C22195007
:1028D0001D221A501E22E86AA423163615341B3610
:1028E0001C361D361E36A437175016A083EF14F081
:1028F0001B5E18501C5A19501D5A1A501E5AE86A6D
:10290000A45B8CEF14F01B2618501C2219501D22BA
:102910001A501E22E86AA423153615341B361C36BD
:102920001D361E36A437175015A0A2EF14F01B5EFB
:1029300018501C5A19501D5A1A501E5AE86AA45BA6
:10294000ABEF14F01B2618501C2219501D221A50F0
:102950001E22E86AA423153615341B361C361D3694
:102960001E36A437175015A0C1EF14F01B5E185087
:102970001C5A19501D5A1A501E5AE86AA45BCAEF15
:1029800014F01B2618501C2219501D221A501E220A
:10299000E86AA423153615341B361C361D361E3640
:1029A000A437175015A0E0EF14F01B5E18501C5A06
:1029B00019501D5A1A501E5AE86AA45BE9EF14F028
:1029C0001B2618501C2219501D221A501E22E86A7C
:1029D000A423153615341B361C361D361E36A43777
:1029E000175015A0FFEF14F01B5E18501C5A195019
:1029F0001D5A1A501E5AE86AA45B08EF15F01B26F0
:102A000018501C2219501D221A501E22E86AA423B5
:102A1000153615341B361C361D361E36A437175096
:102A200015A01EEF15F01B5E18501C5A19501D5AA8
:102A30001A501E5AE86AA45B27EF15F01B2618509F
:102A40001C2219501D221A501E22E86AA423153692
:102A500015341B361C361D361E36A437175015A0EC
:102A60003DEF15F01B5E18501C5A19501D5A1A5094
:102A70001E5AE86AA45B46EF15F01B2618501C226C
:102A800019501D221A501E22E86AA4231536153447
:102A90001B361C361D361E36A437175015A05CEFAA
:102AA00015F01B5E18501C5A19501D5A1A501E5A08
:102AB000E86AA45B65EF15F01B2618501C2219501C
:102AC0001D221A501E22E86AA423153614341B3620
:102AD0001C361D361E36A437175015A07BEF15F097
:102AE0001B5E18501C5A19501D5A1A501E5AE86A7B
:102AF000A45B84EF15F01B2618501C2219501D22D0
:102B00001A501E22E86AA423143614341B361C36CD
:102B10001D361E36A437175014A09AEF15F01B5E11
:102B200018501C5A19501D5A1A501E5AE86AA45BB4
:102B3000A3EF15F01B2618501C2219501D221A5005
:102B40001E22E86AA423143614341B361C361D36A4
:102B50001E36A437175014A0B9EF15F01B5E18509D
:102B60001C5A19501D5A1A501E5AE86AA45BC2EF2B
:102B700015F01B2618501C2219501D221A501E2217
:102B8000E86AA423143614341B361C361D361E3650
:102B9000A437175014A0D8EF15F01B5E18501C5A1C
:102BA00019501D5A1A501E5AE86AA45BE1EF15F03D
:102BB0001B2618501C2219501D221A501E22E86A8A
:102BC000A423143614341B361C361D361E36A43787
:102BD000175014A0F7EF15F01B5E18501C5A19502F
:102BE0001D5A1A501E5AE86AA45B00EF16F01B2605
:102BF00018501C2219501D221A501E22E86AA423C4
:102C0000143614341B361C361D361E36A4371750A6
:102C100014A016EF16F01B5E18501C5A19501D5ABE
:102C20001A501E5AE86AA45B1FEF16F01B261850B4
:102C30001C2219501D221A501E22E86AA4231436A1
:102C400014341B361C361D361E36A437175014A0FC
:102C500035EF16F01B5E18501C5A19501D5A1A50A9
:102C60001E5AE86AA45B3EEF16F01B2618501C2281
:102C700019501D221A501E22E86AA4231436143457
:102C80001B361C361D361E36A437175014A054EFC1
:102C900016F01B5E18501C5A19501D5A1A501E5A15
:102CA000E86AA45B5DEF16F01B2618501C22195031
:102CB0001D221A501E22E86AA423143613341B3630
:102CC0001C361D361E36A437175014A073EF16F0AD
:102CD0001B5E18501C5A19501D5A1A501E5AE86A89
:102CE000A45B7CEF16F01B2618501C2219501D22E5
:102CF0001A501E22E86AA423133613341B361C36DE
:102D00001D361E36A437175013A092EF16F01B5E27
:102D100018501C5A19501D5A1A501E5AE86AA45BC2
:102D20009BEF16F01B2618501C2219501D221A501A
:102D30001E22E86AA423133613341B361C361D36B4
:102D40001E36A437175013A0B1EF16F01B5E1850B3
:102D50001C5A19501D5A1A501E5AE86AA45BBAEF41
:102D600016F01B2618501C2219501D221A501E2224
:102D7000E86AA423133613341B361C361D361E3660
:102D8000A437175013A0D0EF16F01B5E18501C5A32
:102D900019501D5A1A501E5AE86AA45BD9EF16F052
:102DA0001B2618501C2219501D221A501E22E86A98
:102DB000A423133613341B361C361D361E36A43797
:102DC000175013A0EFEF16F01B5E18501C5A195045
:102DD0001D5A1A501E5AE86AA45BF8EF16F01B261B
:102DE00018501C2219501D221A501E22E86AA423D2
:102DF000133613341B361C361D361E36A4371750B7
:102E000013A00EEF17F01B5E18501C5A19501D5AD4
:102E10001A501E5AE86AA45B17EF17F01B261850C9
:102E20001C2219501D221A501E22E86AA4231336B0
:102E300013341B361C361D361E36A437175013A00C
:102E40002DEF17F01B5E18501C5A19501D5A1A50BE
:102E50001E5AE86AA45B36EF17F01B2618501C2296
:102E600019501D221A501E22E86AA4231336133467
:102E70001B361C361D361E36A437175013A04CEFD8
:102E800017F01B5E18501C5A19501D5A1A501E5A22
:102E9000E86AA45B55EF17F01B2618501C22195046
:102EA0001D221A501E22E86AA423133613B061EFC4
:102EB00017F017501B2618501C2219501D221A50AB
:102EC0001E22000C0F01D89083B6D880D8B06EEFC8
:102ED00017F00A0ED0EC0BF00F01D89083B6D88013
:102EE000D8B0E4EF17F00F01D89084B2D880D8B0F2
:102EF0007FEF17F00A0ED0EC0BF00F01D89084B2E0
:102F0000D880D8B0E4EF17F00001CC67A6EF17F037
:102F10000001CC69030132C30DF033C30EF0000190
:102F2000E80E0F6E030E106E9AEC10F014C01CF138
:102F300015C01DF10301345101011C270301355156
:102F400001011D2334C31AF135C31BF102EC2AF031
:102F5000D8B0B7EF17F0D8A4BEEF17F001011A07E9
:102F6000D8A01B071A07D8A01B07BEEF17F0010156
:102F70001A2BD8B41B2B1A2BD8B41B2B1CC10DF049
:102F80001DC10EF001011A5100010D5E01011B511E
:102F900000010E5A0001000E0F6E010E106E9AEC29
:102FA00010F00001E80E176E030E186E9EEC11F083
:102FB00013C032F314C033F31AC134F31BC135F319
:102FC0004DEC1AF0D88412000001CC67EAEF17F03C
:102FD000D8941200CC6BBEEC1FF0D8941200000104
:102FE0006951E8CF0DF06A51E8CF0EF06D510D5EDA
:102FF0006E510E5AD8A00CEF18F06B51E8CF0FF0BD
:103000006C51E8CF10F09AEC10F01450E8CF71F04A
:103010001550E8CF72F012006F51E8CF0FF07051E9
:10302000E8CF10F09AEC10F01450E8CF71F0155082
:10303000E8CF72F0120069C00DF06AC00EF06D5159
:103040000D5E6E510E5A6BC00FF06CC010F09AEC12
:1030500010F01450E8CF71F01550E8CF72F0120064
:10306000040EBFEC08F0040EE7EC08F015C26BF09C
:1030700016C26CF017C26DF018C26EF019C26FF074
:103080001AC270F0EFEC17F071C034F172C035F174
:1030900071C073F072C074F0050EBFEC08F0050E3D
:1030A000E7EC08F01BC26BF01CC26CF01DC26DF0A7
:1030B0001EC26EF01FC26FF020C270F0EFEC17F06E
:1030C00071C036F172C037F171C075F072C076F020
:1030D000060EBFEC08F0060EE7EC08F021C26BF01C
:1030E00022C26CF023C26DF024C26EF025C26FF0D4
:1030F00026C270F0EFEC17F071C038F172C039F1F0
:1031000071C077F072C078F0070EBFEC08F0070EC0
:10311000BFEC08F027C26BF028C26CF029C26DF03A
:103120002AC26EF01BEC18F071C03AF172C03BF18C
:1031300071C079F072C07AF0030EBFEC08F00001A4
:103140000F01C3CFE8FFE8CF8BF0C4CFE8FFE8CF93
:103150008CF0080EBFEC08F02DC26DF02EC26EF0A0
:103160002BC26BF02CC26CF01BEC18F071C083F01A
:1031700072C084F0090EBFEC08F031C26DF032C2AB
:103180006EF02FC26BF030C26CF01BEC18F071C007
:1031900085F072C086F00A0EBFEC08F035C26DF003
:1031A00036C26EF033C26BF034C26CF01BEC18F018
:1031B00071C087F072C088F00B0EBFEC08F039C206
:1031C0006DF03AC26EF037C26BF038C26CF01BEC97
:1031D00018F071C089F072C08AF00301B551BAECE1
:1031E00024F0D8A0FBEF18F00001E80E7B6F030E6F
:1031F0007C6F00EF19F00001180E7B6FFC0E7C6FE6
:10320000000EBFEC08F03BC26BF03CC26CF03DC25C
:103210006DF03EC26EF01BEC18F071C07DF072C014
:103220007EF0010EBFEC08F03FC26BF040C26CF0C4
:1032300041C26DF042C26EF01BEC18F071C07FF01D
:1032400072C080F00301B751BAEC24F0D8A030EF7F
:1032500019F00001E80E816F030E826F4AEF19F03A
:103260000301B951BAEC24F0D8A03EEF19F00001E7
:10327000180E816FFC0E826F4AEF19F00301B851EE
:10328000BAEC24F0D8A04AEF19F00001000E816FCB
:10329000000E826F12000001106A0FBE101E9AEC21
:1032A00010F00001640E176E000E186E9EEC11F007
:1032B00013C011F014C012F013C00FF014C010F0BE
:1032C0000EAE68EF19F00F1E101E0F2AD8B0102A8C
:1032D0009AEC10F000010A0E176E000E186E9EECAC
:1032E00011F00B50E8CF17F0186A17BE181E9EECAD
:1032F00011F011500D5E12500E5A13500D2614503D
:103300000E2212000301AE51BAEC24F073C00DF08E
:1033100074C00EF0D8A098EF19F003011B51000102
:10332000E8CF0FF003011751E8CF0BF0A0EF19F031
:1033300003011A510001E8CF0FF0640EE8CF0BF043
:103340004BEC19F00DC073F00EC074F00301AF51D7
:10335000BAEC24F075C00DF076C00EF0D8A0BCEF2A
:1033600019F0030126510001E8CF0FF003012251AB
:10337000E8CF0BF0C4EF19F0030125510001E8CFAD
:103380000FF0640EE8CF0BF04BEC19F00DC075F0A8
:103390000EC076F00301B051BAEC24F077C00DF006
:1033A00078C00EF0D8A0E0EF19F003013151000110
:1033B000E8CF0FF003012D51E8CF0BF0E8EF19F043
:1033C000030130510001E8CF0FF0640EE8CF0BF09D
:1033D0004BEC19F00DC077F00EC078F0120003012D
:1033E000AE51BAEC24F0D8A00EEF1AF073C00FF073
:1033F00074C010F017C30DF018C30EF00E6A0DBEA6
:103400000E1E9AEC10F00001640E176E000E186E7E
:103410009EEC11F013C073F014C074F00301AF51AF
:10342000BAEC24F0D8A02DEF1AF075C00FF076C0DA
:1034300010F022C30DF023C30EF00E6A0DBE0E1E57
:103440009AEC10F00001640E176E000E186E9EECE0
:1034500011F013C075F014C076F00301B051BAEC4E
:1034600024F0D8A04CEF1AF077C00FF078C010F01D
:103470002DC30DF02EC30EF00E6A0DBE0E1E9AEC7B
:1034800010F00001640E176E000E186E9EEC11F025
:1034900013C077F014C078F012000201B2519BEC17
:1034A00001F00301A75100010F260301A8510001FB
:1034B000102218C30DF019C30EF000010E6AFF0EA2
:1034C0000DBE0E6E9AEC10F00001640E176E186AB5
:1034D000196A1A6A9EEC11F00001030119510001EA
:1034E0000D6E0E6A0DBE0E1E0D360E360D501326D5
:1034F0000E50142213507327145074230201B35139
:103500009BEC01F00301A95100010F260301AA5110
:103510000001102223C30DF024C30EF000010E6A37
:10352000FF0E0DBE0E6E9AEC10F00001640E176EC9
:10353000186A196A1A6A9EEC11F0000103012451FD
:1035400000010D6E0E6A0DBE0E1E0D360E360D50AC
:1035500013260E501422135075271450762302019F
:10356000B4519BEC01F00301AB5100010F260301A4
:10357000AC51000110222EC30DF02FC30EF000013C
:103580000E6AFF0E0DBE0E6E9AEC10F00001640E76
:10359000176E186A196A1A6A9EEC11F0000103018D
:1035A0002F5100010D6E0E6A0DBE0E1E0D360E3629
:1035B0000D5013260E5014221350772714507823E1
:1035C0000201B5519BEC01F036C30DF037C30EF08C
:1035D00000010E6AFF0E0DBE0E6E9AEC10F0000197
:1035E000640E176E186A196A1A6A9EEC11F00301CC
:1035F000010E376313EF1BF00001030E0E6E186E01
:10360000E80E0D6E176E79510D5E7A510E5A196AD9
:103610001A6A13C00FF014C010F09AEC10F09EEC70
:1036200011F02DEF1BF0020E37632DEF1BF00001A0
:1036300079510D6E7A510E6E13C00FF014C010F058
:103640009AEC10F00001030EE8CF18F0E80EE8CF76
:1036500017F0196A1A6A9EEC11F0000113507927CD
:1036600014507A23120000010E6A08C40DF00DBE3A
:103670000E6800010A0E0F6E000E106E9AEC10F02C
:10368000135073271450742300010E6A09C40DF0FF
:103690000DBE0E6800010A0E0F6E000E106E9AEC41
:1036A00010F0135075271450762300010E6A0AC4D7
:1036B0000DF00DBE0E6800010A0E0F6E000E106EAA
:1036C0009AEC10F0135077271450782300010E6AFB
:1036D0000BC40DF00DBE0E6800010A0E0F6E000E39
:1036E000106E9AEC10F01350792714507A230001D1
:1036F0000E6A0CC40DF00DBE0E6800010A0E0F6EAE
:10370000000E106E9AEC10F013507B2714507C239F
:1037100000010E6A0DC40DF00DBE0E6800010A0E08
:103720000F6E000E106E9AEC10F013507D2714509F
:103730007E2300010E6A0EC40DF00DBE0E6800015E
:103740000A0E0F6E000E106E9AEC10F013507F27C9
:103750001450802300010E6A0FC40DF00DBE0E68D8
:1037600000010A0E0F6E000E106E9AEC10F013504E
:10377000812714508223120000010A0E0D6E000EE4
:103780000E6E0301BB51BAEC24F0D8A00DEF1CF073
:1037900003014DAFDAEF1BF04CC30FF0106A0FBE00
:1037A00010689AEC10F0000113C0E8FF732714C0F2
:1037B000E8FF742303014FAFECEF1BF04EC30FF093
:1037C000106A0FBE10689AEC10F0000113C0E8FFF9
:1037D000752714C0E8FF7623030151AFFEEF1BF0FD
:1037E00050C30FF0106A0FBE10689AEC10F0000181
:1037F00013C0E8FF772714C0E8FF7823030153AF15
:103800000DEF1CF052C30FF0106A0FBE10689AEC57
:1038100010F013C079F014C07AF00301BC51BAEC77
:1038200024F0D8A050EF1CF0030155AF23EF1CF09B
:1038300054C30FF0106A0FBE10689AEC10F013C05A
:1038400073F014C074F0030157AF32EF1CF056C38D
:103850000FF0106A0FBE10689AEC10F013C075F0EC
:1038600014C076F0030159AF41EF1CF058C30FF0BC
:10387000106A0FBE10689AEC10F013C077F014C0F5
:1038800078F003015BAF50EF1CF05AC30FF0106AE1
:103890000FBE10689AEC10F013C079F014C07AF0E3
:1038A00000017AAF1200E86A796F7A6F12000201A4
:1038B000A1B112000301B651BAEC24F0D8A0120055
:1038C00000016067120002019F510001606F020158
:1038D000010EB66375EF1CF0010E00015D6E050E62
:1038E00063EC0AF0280E0001606F73C00DF074C025
:1038F0000EF018EC1DF0D8A4ABEF1CF00201B66777
:1039000084EF1CF002019E51000174BF92EF1CF085
:103910000301192719AF9CEF1CF0D8A69CEF1CF0EF
:103920009FEF1CF00301195F19BF9CEF1CF0D8A694
:103930009CEF1CF0A4EF1CF019BFA4EF1CF0640E68
:103940001961196FA9EF1CF0640EE81EE82A1965C9
:10395000196FBEEC1FF075C00DF076C00EF018ECBC
:103960001DF0D8A4E1EF1CF00201B667BAEF1CF01D
:1039700002019E51000176BFC8EF1CF0030124270D
:1039800024AFD2EF1CF0D8A6D2EF1CF0D5EF1CF07C
:103990000301245F24BFD2EF1CF0D8A6D2EF1CF0A5
:1039A000DAEF1CF024BFDAEF1CF0640E2461246F00
:1039B000DFEF1CF0640EE81EE82A2465246FBEECDD
:1039C0001FF077C00DF078C00EF018EC1DF0D8A4F1
:1039D00017EF1DF00201B667F0EF1CF002019E51D7
:1039E000000178BFFEEF1CF003012F272FAF08EF77
:1039F0001DF0D8A608EF1DF00BEF1DF003012F5F9F
:103A00002FBF08EF1DF0D8A608EF1DF010EF1DF036
:103A10002FBF10EF1DF0640E2F612F6F15EF1DF0FB
:103A2000640EE81EE82A2F652F6FBEEC1FF012000F
:103A300000010EAE21EF1DF00D1E0E1E0D2AD8B096
:103A40000E2AD8900E320D320E662BEF1DF0640E4A
:103A50000D6430EF1DF00001640E0D6E000E0E6E51
:103A60000D50E832E8321F0BD8740DC0E8FF120089
:103A70000001BD6B000174BF4AEF1DF011C30DF0D2
:103A800012C30EF073C00FF074C010F09AEC10F077
:103A900054EF1DF015C30DF016C30EF073C00FF0F8
:103AA00074C010F09AEC10F013C30DF014C30EF0B4
:103AB000000114500D2615500E229EEC1EF00DC074
:103AC0003CF00EC03DF0000176BF73EF1DF01CC34B
:103AD0000DF01DC30EF075C00FF076C010F09AEC1B
:103AE00010F07DEF1DF020C30DF021C30EF075C066
:103AF0000FF076C010F09AEC10F01EC30DF01FC34B
:103B00000EF0000114500D2615500E229EEC1EF0F2
:103B10000DC03AF00EC03BF0000178BF9CEF1DF0E5
:103B200027C30DF028C30EF077C00FF078C010F057
:103B30009AEC10F0A6EF1DF02BC30DF02CC30EF085
:103B400077C00FF078C010F09AEC10F029C30DF098
:103B50002AC30EF0000114500D2615500E229EECC3
:103B60001EF00DC03EF00EC03FF032C30DF033C367
:103B70000EF079C00FF07AC010F09AEC10F034C358
:103B80000DF035C30EF0000114500D2615500E2215
:103B90009EEC1EF00DC040F00EC041F03AC30DF097
:103BA0003BC30EF07BC00FF07CC010F09AEC10F01D
:103BB0003CC30DF03DC30EF0000114500D2615500E
:103BC0000E229EEC1EF00DC042F00EC043F00EEF30
:103BD0001EF000017EBFF9EF1DF01CC30DF01DC3E8
:103BE0000EF07DC00FF07EC010F09AEC10F003EFE5
:103BF0001EF020C30DF021C30EF07DC00FF07EC07B
:103C000010F09AEC10F01EC30DF01FC30EF000016F
:103C100014500D2615500E2221EF1EF03EC30DF05C
:103C20003FC30EF07DC00FF07EC010F09AEC10F094
:103C300040C30DF041C30EF0000114500D26155085
:103C40000E229EEC1EF00DC044F00EC045F04EEF6B
:103C50001EF0000180BF39EF1EF011C30DF012C33A
:103C60000EF07FC00FF080C010F09AEC10F043EF20
:103C70001EF015C30DF016C30EF07FC00FF080C00C
:103C800010F09AEC10F013C30DF014C30EF0000105
:103C900014500D2615500E2261EF1EF042C30DF098
:103CA00043C30EF07FC00FF080C010F09AEC10F00C
:103CB00044C30DF045C30EF0000114500D261550FD
:103CC0000E229EEC1EF00DC046F00EC047F081C0E3
:103CD0000DF082C00EF00EBE76EF1EF046C30FF060
:103CE00047C310F09AEC10F07CEF1EF04AC30FF0BF
:103CF0004BC310F09AEC10F048C30DF049C30EF01E
:103D00000D5014260E50152214C00DF015C00EF0E3
:103D10009EEC1EF00DC048F00EC049F00001CC67CB
:103D20009DEF1EF00301B151BAEC24F0D8A09DEF35
:103D30001EF038C340F039C341F012000201AE5109
:103D400000010D5C0201AF5100010E58E8AEAEEF6C
:103D50001EF0AEC20DF0AFC20EF012000201B05163
:103D600000010D5C0201B15100010E58E8BE1200C5
:103D7000B0C20DF0B1C20EF01200000133B4CCEFAE
:103D80001EF035A4CCEF1EF03594010E5D6E050ECD
:103D900063EC0AF0D8801200D89012000001000EE7
:103DA0000D6E020E0E6E0001000E136E000E146EEC
:103DB000010E156EE86A0A6E43EC0CF00201005128
:103DC0000001A56F12000001000E0D6E020E0E6EB6
:103DD0000001000E136E000E146E010E156E040E1F
:103DE0000A6E77EC0CF01200E846E8060B6E000154
:103DF000000E0D6E030E0E6E0001000E136E000E0F
:103E0000146E010E156E0B501426E86A1522100E62
:103E10000A6E43EC0CF01200E846E8060B6E000157
:103E2000000E0D6E080E0E6E0001000E136E000ED9
:103E3000146E010E156E0B501426E86A1522400E02
:103E40000A6E43EC0CF00001000EB56F030EB66F66
:103E50000001000EB36F030EB46F0001080EB46FC3
:103E6000100EB76F92EC23F00001000E0D6E080EDD
:103E70000E6E0001000E136E000E146E010E156E14
:103E80000B501426E86A1522010E0A6E77EC0CF02E
:103E90001200E846E8060B6E0001000E0D6E030EE0
:103EA0000E6E0001000E136E000E146E010E156EE4
:103EB0000B501426E86A15220A6E43EC0CF0000140
:103EC000000E0D6E040E0E6E0001000E136E000E3D
:103ED000146E010E156E0B50E82A1426E86A15229E
:103EE0000A6E43EC0CF01200E846E8060C6E000186
:103EF000000E0D6E030E0E6E0001000E136E000E0E
:103F0000146E010E156E0C501426E86A1522040E6C
:103F10000A6E77EC0CF00001000E0D6E040E0E6EB2
:103F20000001000E136E000E146E010E156E0C5083
:103F3000E82A1426E86A1522040E0A6E77EC0CF0C3
:103F400012000001000EB56F030EB66F0001000EE7
:103F5000B36F060EB46F000EB76F92EC23F0000142
:103F6000000EB56F040EB66F0001000EB36F070EA2
:103F7000B46F000EB76F92EC23F0120002010051F3
:103F8000E846E8060A6E0001000E0D6E030E0E6E86
:103F90000001000E136E000E146E010E156E0A5015
:103FA0001426E86A1522010E0A6E77EC0CF0120056
:103FB00073C08DF074C08EF075C08FF076C090F035
:103FC00077C091F078C092F079C093F07AC094F005
:103FD0007BC095F07CC096F07DC097F07EC098F0D5
:103FE0007FC099F080C09AF081C09BF082C09CF0A5
:103FF0001200D8EC1FF00301B251BAEC24F0D8B093
:1040000014EF20F0030EE26E5C0EE16EB2EC22F0D3
:10401000610EE16EB2EC22F0660EE16EB2EC22F0BF
:104020006B0EE16EB2EC22F0D8EC1FF00301B3513D
:10403000BAEC24F0D8B035EF20F0030EE26E700E2B
:10404000E16EB2EC22F0D8EC1FF0750EE16EB2EC2E
:1040500022F0D8EC1FF07A0EE16EB2EC22F0D8EC30
:104060001FF07F0EE16EB2EC22F0D8EC1FF00301DE
:10407000B451BAEC24F0D8B050EF20F0030EE26E49
:10408000840EE16EB2EC22F0890EE16EB2EC22F009
:104090008E0EE16EB2EC22F0930EE16EB2EC22F0E5
:1040A00012008DC00DF08EC00EF010C40FF0000194
:1040B0000EBE11C40FF0106A0FBE10689AEC10F01B
:1040C0000001640E176E000E186E9EEC11F00001D8
:1040D00013C0E8FF912714C0E8FF922391C00DF0B0
:1040E00092C00EF012C40FF000010EBE13C40FF008
:1040F000106A0FBE10689AEC10F00001640E176E83
:10410000000E186E9EEC11F0000113C0E8FF8D2721
:1041100014C0E8FF8E2391C00DF092C00EF014C4BD
:104120000FF000010EBE15C40FF0106A0FBE10682C
:104130009AEC10F00001640E176E000E186E9EECE3
:1041400011F0000113C0E8FF8F2714C0E8FF90238F
:1041500093C00DF094C00EF016C40FF000010EBE17
:10416000106A0FBE10689AEC10F00001640E176E12
:10417000000E186E9EEC11F0000113C0E8FF8F27AF
:1041800014C0E8FF90238DC073F08EC074F08FC010
:1041900075F090C076F091C077F092C078F093C03F
:1041A00079F094C07AF0040117A1E5EF20F08FC0F8
:1041B0007DF090C07EF0040118A1E5EF20F0000131
:1041C0007D1F7E1F7D2BD8B07E2B030198A102EFAF
:1041D00021F08FC00DF090C00EF091C00FF092C092
:1041E00010F000010DC075F00EC076F00DC077F034
:1041F0000EC078F00F507727105078230F50755F5E
:104200001050765B030199A11FEF21F08FC00DF0D4
:1042100090C00EF08DC00FF08EC010F000010DC0E8
:1042200075F00EC076F00DC073F00EC074F00F5034
:104230007327105074230F50755F1050765B030185
:104240009AA1DAEF21F08DC00DF08EC00EF00DC0F6
:1042500073F00EC074F00DC07FF00EC080F000014E
:10426000640E176E000E186E03019C51E812D8B44C
:1042700083EF21F0E8BE61EF21F0640800010F6ECA
:10428000106A74BF52EF21F073C00DF074C00EF0CD
:104290009AEC10F09EEC11F013C073F014C074F09F
:1042A00083EF21F000017FC00DF080C00EF09AEC8A
:1042B00010F09EEC11F013C07FF014C080F083EF7B
:1042C00021F0640F00010F6E106A74AF76EF21F0D9
:1042D00073C00DF074C00EF09AEC10F09EEC11F06B
:1042E00013C073F014C074F083EF21F000017FC09D
:1042F0000DF080C00EF09AEC10F09EEC11F013C09F
:104300007FF014C080F003019BA18DEF21F000012C
:104310007F1F801F7F2BD8B0802B0001640E176E8B
:10432000000E186E03019D51E812D8B4DAEF21F0A7
:104330000301C651E812D8B4B0EF21F00301C55112
:10434000BAEC24F0D8B0DAEF21F00001E80E0D6EDF
:10435000030E0E6E93510D5E94510E5ABCEF21F078
:104360000001E80E0D6E030E0E6E99510D269A5146
:104370000E22D8900E320D329DC30FF09EC310F066
:10438000106A0FBE101E9AEC10F09EEC11F0135044
:1043900073271450742303019BB1D5EF21F0000162
:1043A000131E141E132AD8B0142A000113507F279D
:1043B0001450802312000301A4A11200D8EC1FF0B6
:1043C00051EC20F012000301A4B1EBEF21F0D8EC86
:1043D0001FF051EC20F003019EA106EF22F0030133
:1043E000C251BAEC24F0D8A006EF22F003019F518D
:1043F00000010D6E0E6A00010A0E0F6E000E106EA7
:104400009AEC10F013C079F014C07AF00301A0A167
:1044100033EF22F00301C351BAEC24F0D8A015EF1A
:1044200022F00301A1511EEF22F00301C451BAECA6
:1044300024F0D8A033EF22F00301A25100010D6E49
:104440000E6A00010A0E0F6E000E106E9AEC10F04C
:104450001350795D14507A59E8AE33EF22F013C04F
:1044600079F014C07AF012000BC0E8FFF00BD8B45A
:1044700012000DC069F00EC06AF00EAE45EF22F0DA
:104480000D1E0E1E0D2AD8B00E2A0DC013F00EC040
:1044900014F0640E176ECDEC10F000011C6A090ECA
:1044A00013605DEF22F00BC0E8FFE83AE8060F0B5F
:1044B000E8B67AEF22F06FEF22F0136E0DC01BF01A
:1044C0000EC01CF0840E00011B5E030E1C5A0BC0B4
:1044D000E8FFE83AE8060F0BE8B67AEF22F00B0D9A
:1044E000F350460F1324E8CFD9FF020EE8CFDAFFCE
:1044F00084EF22F0E8960B0DF350DA0F1324E8CF87
:10450000D9FF030EE8CFDAFFDECF0AF0DFCF0BF0E2
:1045100000010BC00DF00AC0E8FF0D5E0E6A0DBE73
:104520000E681BC00FF01CC010F09AEC10F00A0EC1
:10453000176ECDEC10F00AC0E8FF0A0DF3CFE8FFCC
:104540001326F4CFE8FF142213C00DF014C00EF0B0
:1045500000016AAF120000010D1E0E1E0D2AD8B018
:104560000E2A1200E650E8CF0BF0E812D8B4120081
:1045700080EC02F034EC22F00DC011F00EC012F00D
:10458000E6CF0AF0E6CFE8FF0001E8CF0DF00E6AB3
:104590000DBE0E1E00010A0E0F6E000E106E9AEC7C
:1045A00010F011C00DF012C00EF013500D5E14503B
:1045B0000E5A0EBE11EF23F0E6CFE8FF00010AAC61
:1045C000FAEF22F0E8CF13F0E9CF14F00DC011F0AC
:1045D0000EC012F0135080EC02F00DC013F00EC0AC
:1045E00014F00A0E176ECDEC10F011C00DF012C0D1
:1045F0000EF013500F6E106A0FBE101E9AEC10F0E2
:104600000001640E176E000E186E196A1A6A9EEC8D
:1046100011F013C00DF014C00EF00A5000EC03F0BE
:104620001200E6CFE8FFE6CFE8FF00010AAA2FEF6D
:1046300023F0E8CF13F00DC011F00EC012F01350AC
:1046400080EC02F00DC013F00EC014F00A0E176ECD
:10465000CDEC10F011C00DF012C00EF013500F6E23
:10466000106A0FBE101E9AEC10F00001640E176E57
:10467000000E186E196A1A6A9EEC11F013C00DF044
:1046800014C00EF00A5000EC03F012000001BD0E41
:10469000B56F030EB66F0001120EB36F010EB46F4B
:1046A000050EB76F92EC23F0D90EE8CFD9FF060EB6
:1046B000E8CFDAFF060EE8CF0CF0DDCFE8FFE81216
:1046C000D8B46AEF23F0DFCFE8FFBAEC24F0D8B01B
:1046D00076EF23F0DDCFE8FF0C2E5DEF23F0A5C0D1
:1046E000E8FF020100637FEF23F01200DECFE8FF56
:1046F000DECFE8FF020100637FEF23F01200E8CF76
:1047000000F249EC1FF00001120EB56F010EB66FFA
:104710000001BD0EB36F030EB46F050EB76F92ECC0
:1047200023F012000001B551E16EB651E26E0001B6
:10473000B351D96EB451DA6EE6CFE8FFE8CFDEFFB1
:104740000001B72F9CEF23F012000001BF6B0301A3
:10475000AE51BAEC24F00001D8B0BF810301AF51D3
:10476000BAEC24F00001D8B0BF830301B051BAEC19
:1047700024F00001D8B0BF850301B151BAEC24F098
:104780000001D8B0BF870301B651BAEC24F0000194
:10479000D8B0BF890301BB51BAEC24F00001D8B0F6
:1047A000BF8B0301BC51BAEC24F00001D8B0BF8D1F
:1047B0001200C00E42EC0DF00301AE51BAEC24F031
:1047C0000001E86AE880BF15D8A0F5EF23F0D8A46F
:1047D00006EF24F0BF71000EF86E670EF76E4A0EFA
:1047E000F66EB8EC0DF0B7EF24F0D8B006EF24F079
:1047F000D8B406EF24F0BF71000EF86E670EF76EA6
:10480000380EF66EB8EC0DF0B7EF24F00301AF519F
:10481000BAEC24F00001E86AE882BF15D8A01FEFC7
:1048200024F0D8A430EF24F0BF73000EF86E670EAA
:10483000F76E6E0EF66EB8EC0DF0B7EF24F0D8B050
:1048400030EF24F0D8B430EF24F0BF73000EF86ED0
:10485000670EF76E5C0EF66EB8EC0DF0B7EF24F055
:104860000301B051BAEC24F00001E86AE884BF15F6
:10487000D8A049EF24F0D8A45AEF24F0BF75000E59
:10488000F86E670EF76E920EF66EB8EC0DF0B7EF9D
:1048900024F0D8B05AEF24F0D8B45AEF24F0BF7502
:1048A000000EF86E670EF76E800EF66EB8EC0DF027
:1048B000B7EF24F00301B151BAEC24F00001D8A005
:1048C00070EF24F0BFB771EF24F0BF77000EF86EE1
:1048D000670EF76EDA0EF66EB8EC0DF0B7EF24F057
:1048E000BF970301B651BAEC24F00001D8A087EFBE
:1048F00024F0BFB988EF24F0BF79000EF86E670E80
:10490000F76EC80EF66EB8EC0DF0B7EF24F0BF9955
:104910000301BB51BAEC24F00001D8A09EEF24F0B3
:10492000BFBB9FEF24F0BF7B000EF86E670EF76EE3
:10493000A40EF66EB8EC0DF0B7EF24F0BF9B0301A8
:10494000BC51BAEC24F00001D8A0B5EF24F0BFBDF3
:10495000B6EF24F0BF7D000EF86E670EF76EB60E50
:10496000F66EB8EC0DF0B7EF24F0BF9D1200500EBC
:10497000A36F1200E8AAF1EF24F0E8A8F1EF24F009
:104980000A6E070BC90FE16E030EE26EE6500001DE
:104990000D6E0E6AE8BE0E6800010A0E0F6E000E64
:1049A000106E9AEC10F00A50070BE846340FE16ED7
:1049B000010EE26EE6CF0DF0E6CF0EF000010EAE76
:1049C000E6EF24F00D1E0E1E0D4A0E2A0DC0E8FF64
:1049D000135E0EC0E8FF1458E8360ABE1200D87005
:1049E0001200D890E8BA1200D880E8B8120000018E
:1049F0001F6E206AE8BC2080070BE82AD88020368A
:104A0000E82EFFEF24F030501FB633502014D8802A
:104A10002062D8901FBED8701200040ED56E12000E
:104A2000D59E1200D89087B21200D880D5BE120051
:104A3000C3C00DF0C4C00EF000013C0E0F6E000E9E
:104A4000106EABEC10F013C00DF014C00EF00001AE
:104A5000240E0F6EF40E106EABEC10F0C1C017F008
:104A6000C2C018F00001000E196E000E1A6E81EC23
:104A700013F0A5C317F0A6C318F00001186A9EEC46
:104A800011F0C00E42EC0DF0000EF86E660EF76EDF
:104A9000A80EF66EB8EC0DF0CB0E42EC0DF01EEC4D
:104AA0000EF0A5C313F0A6C314F0146AC00E42ECB6
:104AB0000DF01AEC0EF00001000EC36F000EC46F73
:104AC000D88012000001020E36621200000133A0ED
:104AD0001200FC6A23EF05F07BEC25F0D8A0120051
:104AE000FC6AE3EC1EF000C2E8FF74EC1FF0A1ECDE
:104AF0001FF023EF05F0000130B685EF25F032A658
:104B000085EF25F03296D8801200D890120000016F
:104B1000670E0E6EFE0E0D6ECEEC25F097EC0DF0CE
:104B20000001115080EC01F012001EC10DF01FC1F8
:104B30000EF097EC0DF012000001EF51D8B4120006
:104B4000E1CF3EF1E2CF3FF130EC18F00001000E72
:104B5000736F000E746F0001000E756F000E766F9C
:104B6000EFEC19F082EC19F0BCEC1BF057EC1CF0E8
:104B70004DEC1AF0DBEC21F0F9EC1FF0E3EC21F046
:104B800033EC1BF038EC1DF091EC0EF03EC1E1FF70
:104B90003FC1E2FF12000001EF69120062EC25F054
:104BA0000001CD6BDB6BEA6BEB6BC00E42EC0DF0E2
:104BB0000DC0F6FF0EC0F7FFF86A0DC00FF00EC073
:104BC00010F0B8EC0DF0FA0ED0EC0BF0DCEC29F0A4
:104BD000D8A4F1EF25F0110E0D26D8B00E2AF8EF6B
:104BE00025F0D8A005EF26F0130E0D26D8B00E2A1A
:104BF0000DC0F6FF0EC0F7FFF86A0900F5CF0DF003
:104C00000900F5CF0EF0D5EF25F06CEC25F0BDECEA
:104C10001EF0D8A0D5EF25F0150E0D26D8B00E2A1F
:104C20000DC0F6FF0EC0F7FFF86A0900F5CF11F0CE
:104C30000900F5CF12F00FC00DF010C00EF0090002
:104C4000F5CF0FF00900F5CF10F00900F5CFCEF049
:104C50000900F5CFCFF00001B96BBA6BBB697F0ECD
:104C6000E8CFBCF012AC41EF26F00900F5CFB9F067
:104C70000900F5CFBAF00900F5CFBBF00900F5CF78
:104C8000BCF012A44AEF26F00900F5CFEAF00900C3
:104C9000F5CFEBF012A253EF26F00900F5CFECF0C0
:104CA0000900F5CFEDF012AE58EF26F097EC0DF0BD
:104CB00012A65DEF26F0ADEC0DF012A2120000017D
:104CC000E86AE8CFFBFFEDC0E8FFE8CFFAFFECC0F1
:104CD000E8FFF96EE8CF0AF00FC01BF010C01CF01F
:104CE0000FC0F6FF10C0F7FFF86A150EF626D8B011
:104CF000F72A0900F5CFE8FF0A6280EF26F01200DC
:104D00000FC0F6FF10C0F7FF110EF626D8B0F72A35
:104D10000900F5CF0FF00900F5CF10F00FC0E8FF44
:104D20001B6270EF26F010C0E8FF1C6270EF26F0E7
:104D30001200000110500F10D8B41200E86AFB6E88
:104D40001050E8CFFAFF0F50F96E00010F50E16EDE
:104D50001050E26E0001000E1162C3EF26F00FC08A
:104D6000F6FF10C0F7FFF86A160EF626D8B0F72A3D
:104D7000CEC0E1FFCFC0E2FFE7CFE8FF6AEC26F04C
:104D800049EC29F01200010E1162CAEF26F06CEC1A
:104D900028F01200020E1162F4EF26F0000112A0BA
:104DA000D5EF26F0CE510001B86FE6CF0AF0E5CF7F
:104DB0000BF000010AC011F00BC012F0129E129C01
:104DC000C8EC28F000010FC0E1FF10C0E2FF11C0E5
:104DD0000AF012C00BF00AC0E6FFE7CFE8FFC00BF5
:104DE0000B120BC0E5FF1200030E116209EF27F052
:104DF000E7CFE8FFE836C5EC27F0000ED8B0E81E94
:104E00000A6E00010FC0E1FF10C0E2FF0AC0E7FF19
:104E10001200040E11621AEF27F0E7CFE8FF90ECC2
:104E200029F00A6E00010FC0E1FF10C0E2FF0AC0C6
:104E3000E7FF1200050E11622CEF27F0E7CFE8FF25
:104E40001AEC28F0E8CF0AF000010FC0E1FF10C013
:104E5000E2FF0AC0E7FF1200060E116242EF27F0E0
:104E6000E7CF0AF00FC0CEF010C0CFF00001C40EA3
:104E70000F6E7B0E106E0AC0E8FF6AEC26F049EC5C
:104E800029F01200070E116249EF27F099EC26F085
:104E90001200080E11625AEF27F0E7CFE8FF14EC7A
:104EA00028F0E8CF0AF000010FC0E1FF10C0E2FFD8
:104EB0000AC0E7FF0A0E11627BEF27F0E7CFE8FF99
:104EC0000001CE15D890D8B4D880C5EC27F00001E9
:104ED000CEC00AF000010FC0E1FF10C0E2FFD8B061
:104EE00076EF27F00AC0E8FFE71212000AC0E8FFD9
:104EF000E81EE716120012000B6AD8B00B1EC00E97
:104F000042EC0DF0000EF86E660EF76E480EF66E6F
:104F1000B8EC0DF00BA0A1EF27F0C80E42EC0DF09D
:104F2000280E33EC0DF0CC0E42EC0DF0290E33ECD4
:104F30000DF0CF0E42EC0DF0200E33EC0DF0B3EF80
:104F400027F0C80E42EC0DF0200E33EC0DF0CC0E25
:104F500042EC0DF0280E33EC0DF0CF0E42EC0DF0CC
:104F6000290E33EC0DF0DCEC29F0D8B40B6AFF0EFF
:104F7000D8B00B6E6CEC25F0BDEC1EF0D8A08AEF1B
:104F800027F0D8900BB0D88012000B6AD8B00B1E57
:104F9000C80E42EC0DF0000EF86E660EF76E860E2F
:104FA000F66EB8EC0DF00BA0EAEF27F0C80E42EC5D
:104FB0000DF0280E33EC0DF0CC0E42EC0DF0290E66
:104FC00033EC0DF0CF0E42EC0DF0200E33EC0DF073
:104FD000FCEF27F0C80E42EC0DF0200E33EC0DF084
:104FE000CC0E42EC0DF0280E33EC0DF0CF0E42EC5F
:104FF0000DF0290E33EC0DF0DCEC29F0D8B40B6A7F
:10500000FF0ED8B00B6E6CEC25F0BDEC1EF0D8A0F6
:10501000D3EF27F0D8900BB0D88012000001BB6509
:10502000BB51B961B95112000001E86900019D6FDF
:105030001EEF28F000019D6F0001E86BC80ED0EC58
:105040000BF09DC0E8FF0001136E146A156A166A22
:1050500048EC0EF00001E8673CEF28F0CD0E42EC82
:105060000DF0275033EC0DF0285033EC0DF02950A3
:1050700033EC0DF04BEF28F0CC0E42EC0DF0275046
:1050800033EC0DF0285033EC0DF02E0E33EC0DF018
:10509000295033EC0DF002EC2AF00001D8A457EFB0
:1050A00028F09D2BBB519D619D6F62EF28F0D8A029
:1050B00062EF28F09D51B96162EF28F09D07B95168
:1050C0009D659D6F6CEC25F0BDEC1EF0D8A01EEF29
:1050D00028F000019D5112009CEC25F0F0C0E8FF83
:1050E0007F08E8BEE86AE846E866D0EC0BF0E7CF58
:1050F000E8FFE7BEE81EE7BEE82A0001136E146A67
:10510000156A166A48EC0EF0CB0E42EC0DF0200E3C
:10511000E7BE2D0E33EC0DF0275033EC0DF0285088
:1051200033EC0DF0295033EC0DF0250E33EC0DF07F
:1051300002EC2AF00001D8A4A1EF28F0E72AA5EF9D
:1051400028F0D8A0A5EF28F0E7066CEC25F0BDEC20
:105150001EF0D8A06CEF28F00001EF6B12000001E8
:105160001150BB5D1250BC59D8B0BCEF28F0BB51F8
:10517000116EBC51126E1200B951115CBA51125825
:10518000D8B0C7EF28F0B951116EBA51126E1200A3
:10519000AFEC28F00001BE6B0001B851E812D8B4A2
:1051A000DAEF28F0B851E16E000EE26E11C0E6FFB2
:1051B00012C0E7FFF0C0E8FF7F08E8BEE86AE846F3
:1051C000E866D0EC0BF011C013F012C014F0D890C8
:1051D00014321332156A166A48EC0EF0C90E42EC0E
:1051E0000DF0265033EC0DF02E0E33EC0DF0275061
:1051F00033EC0DF0285033EC0DF0295033EC0DF06A
:105200006D0E33EC0DF0530E33EC0DF002EC2AF082
:105210000001D8A41BEF29F0112AD8B4122A112AB0
:10522000D8B4122ABC511262C8EF28F0BB511160E9
:10523000116EC8EF28F0D8A02DEF29F01106D8A0E4
:1052400012061106D8A01206BA511262C8EF28F051
:10525000B9511164116EC8EF28F0000133A2BE6984
:1052600033BC38EF29F00001A00E116E0F0E126E44
:10527000000133BE41EF29F00001D00E116E070E80
:10528000126E6CEC25F0BDEC1EF0D8A0CCEF28F02F
:105290001200C00E42EC0DF00FC0F6FF10C0F7FF79
:1052A000B8EC0DF0FA0ED0EC0BF002EC2AF0D8A41A
:1052B00060EF29F0110E0F26D8B0102A67EF29F001
:1052C000D8A074EF29F0130E0F26D8B0102A0FC003
:1052D000F6FF10C0F7FFF86A0900F5CF0FF00900DC
:1052E000F5CF10F049EF29F06CEC25F0BDEC1EF085
:1052F000D8A049EF29F0150E0F26D8B0102A0FC0FC
:10530000F6FF10C0F7FFF86A0900F5CF0AF00900B0
:10531000F550CEC0E1FFCFC0E2FF0AC0E7FF1200A8
:105320000F0BE8B6080B0C0DF3CF13F0F4CF14F00D
:105330000001F80E1326710E1422CC0E42EC0DF073
:1053400013C0F6FF14C0F7FFB8EC0DF0FA0ED0EC66
:105350000BF002EC2AF0D8A4B4EF29F0050E1326C6
:10536000D8B0142ABBEF29F0D8A0C8EF29F0070E57
:105370001326D8B0142A13C0F6FF14C0F7FFF86A3A
:105380000900F5CF13F00900F5CF14F09DEF29F0D7
:105390006CEC25F0BDEC1EF0D8A09DEF29F0090EB5
:1053A0001326D8B0142A13C0F6FF14C0F7FFF86A0A
:1053B0000900F5CFE8FF1200040EBFEC08F0040E60
:1053C000BFEC08F0C5C0E8FFC35EC6C0E8FFC45A22
:1053D000C4BEF5EF29F0640EC35E000EC45AC4BE0D
:1053E000FFEF29F0D884D8901200640EC326000E77
:1053F000C422C4AEFFEF29F0D894D8801200D8940C
:10540000D8901200050EBFEC08F0050EBFEC08F0B6
:10541000C7C0E8FFC35EC8C0E8FFC45AC4BE1FEFE0
:105420002AF0640EC35E000EC45AC4BE2FEF2AF0E9
:10543000C466C368C3CFF0F0D884D8901200640E5D
:10544000C326000EC422C4AE2FEF2AF0C31EC41E12
:10545000C466C368C3CFF0F0D894D8801200D89443
:10546000D89012002CEF2BF0800E42EC0DF0000EC5
:10547000F86E680EF76E160EF66EB8EC0DF07FEF54
:105480002BF001012E0E1E6F680E1F6F01012C0EF6
:10549000206F6A0E216FBCEC2AF0E3EC1EF000C214
:1054A000E8FF74EC1FF0A1EC1FF012000101460EA2
:1054B0001E6F680E1F6F01011E0E206F6B0E216F95
:1054C000BCEC2AF04DEF2AF001015E0E1E6F680E53
:1054D0001F6F0101080E206F6D0E216FBCEC2AF0CA
:1054E0004DEF2AF00101760E1E6F680E1F6F01014D
:1054F000640E206F720E216FBCEC2AF04DEF2AF083
:1055000001018E0E1E6F680E1F6F0101320E206F9B
:10551000790E216FBCEC2AF04DEF2AF00001DD6B13
:105520000101A60E1E6F680E1F6F01013C0E206F59
:105530007F0E216FBCEC2AF04DEF2AF00101BE0E68
:105540001E6F680E1F6F0101840E206F830E216F86
:10555000BCEC2AF04DEF2AF00101D60E1E6F680E4A
:105560001F6F0101FE0E206F860E216FBCEC2AF02A
:105570004DEF2AF057EF32F095EC25F020C10DF0F9
:1055800021C10EF0CEEC25F00DC020F10EC021F1AE
:10559000EAC026F1EBC027F100011150090AD8A496
:1055A0001EEF2BF00FC00DF010C00EF0CEEC25F06A
:1055B0000DC022F10EC023F1EAC028F1EBC029F1A1
:1055C00000011150090AD8A406EF2BF00FC00DF00E
:1055D00010C00EF0CEEC25F00DC024F10EC025F168
:1055E000EAC02AF1EBC02BF1A5EC26F00001CDB109
:1055F0000CEF2BF02AC10FF02BC110F099EC26F024
:1056000024C10DF025C10EF0EAEF2AF0A5EC26F03A
:105610000001CDB123EF2BF028C10FF029C110F00C
:1056200099EC26F020C10DF021C10EF097EC0DF0A1
:1056300022C10DF023C10EF0D6EF2AF0A5EC26F022
:105640000001CDB1120026C10FF027C110F099EC76
:1056500026F0BCEF2AF0120000C2E8FFF4EC1EF0C6
:10566000800E42EC0DF0000EF86E660EF76E120E14
:10567000F66EB8EC0DF08D0E42EC0DF0020100510B
:105680000001136E146A156A166A16EC0EF0E6EC49
:1056900005F0F0C0E8FF7F08E8BEE86AE846E86683
:1056A000D0EC0BF002EC2AF0D8A461EF2BF0610EE5
:1056B0000201002B00632CEF2BF0010E006F2CEF8A
:1056C0002BF0D8A06FEF2BF002010007000E006353
:1056D0002CEF2BF0600E0201006F2CEF2BF0BDECD5
:1056E0001EF0D8A052EF2BF000C2E8FF49EC1FF0EB
:1056F00000C2E8FFE8CFA5F0E3EC1EF01200C00EF8
:1057000042EC0DF0E6EC05F0000EE16E030EE26EE9
:10571000960ED0EC0BF0C00EE12442EC0DF0E750F9
:1057200033EC0DF0C00EE12442EC0DF00E0E42EC15
:105730000DF0DCEC29F0D8A4A7EF2BF0E12A0F0E36
:10574000E16488EF2BF0000EE16E88EF2BF0D8A01B
:10575000B3EF2BF0E106FF0EE16288EF2BF00F0EA6
:10576000E16E88EF2BF002EC2AF0D8A4BEEF2BF00C
:10577000E72A7A0EE760E76E88EF2BF0D8A0C7EF34
:105780002BF0E706200EE764E76E88EF2BF0BDEC08
:105790001EF0D8A099EF2BF00C0E42EC0DF000C2D9
:1057A000E8FF74EC1FF012000DC02CF10EC02DF1BB
:1057B0000FC02EF110C02FF1D0C00DF0D1C00EF0EF
:1057C0000001E80E0F6E030E106E9AEC10F000014F
:1057D000000E176E010E186E9EEC11F013C0D0F083
:1057E00014C0D1F00001D251D027D351D123D4C05D
:1057F0000DF0D5C00EF00001E80E0F6E030E106E16
:105800009AEC10F00001000E176E010E186E9EEC5F
:1058100011F0D2C0D4F0D3C0D5F01350D45F1450DF
:10582000D55BD0C00DF0D1C00EF09EEC1EF00DC0C7
:10583000D0F00EC0D1F0D2C00DF0D3C00EF09EEC6F
:105840001EF00DC0D2F00EC0D3F0D4C00DF0D5C004
:105850000EF09EEC1EF00DC0D4F00EC0D5F02CC1A1
:105860000DF02DC10EF02EC10FF02FC110F012005F
:105870000DC02CF10EC02DF10FC02EF110C02FF174
:10588000D0C00DF0D1C00EF00001E80E0F6E030E77
:10589000106E9AEC10F00001000E176E010E186EDB
:1058A0009EEC11F0D2C0D0F0D3C0D1F00001135063
:1058B000D0271450D1231350D25F1450D35BD0C0E3
:1058C0000DF0D1C00EF09EEC1EF00DC0D0F00EC059
:1058D000D1F0D2C00DF0D3C00EF09EEC1EF00DC082
:1058E000D2F00EC0D3F02CC10DF02DC10EF02EC1A0
:1058F0000FF02FC110F012000DC02CF10EC02DF1D1
:105900000FC02EF110C02FF1D0C00DF0D1C00EF09D
:10591000D2510D5ED3510E5A0001000E0F6E010ED2
:10592000106E9AEC10F00001E80E176E030E186E60
:105930009EEC11F013C0D0F014C0D1F0D2C00DF025
:10594000D3C00EF0D4510D5ED5510E5A0001000E99
:105950000F6E010E106E9AEC10F00001E80E176E3B
:10596000030E186E9EEC11F013C0D4F014C0D5F0E5
:105970002CC10DF02DC10EF02EC10FF02FC110F073
:1059800012000DC02CF10EC02DF10FC02EF110C071
:105990002FF1D0C00DF0D1C00EF00001D2510D5E3C
:1059A000D3510E5A0001000E0F6E010E106E9AECCC
:1059B00010F00001D00E176E070E186E9EEC11F05D
:1059C00013C0D0F014C0D1F0D0C00DF0D1C00EF093
:1059D0000001E80E0F6E030E106E9AEC10F000013D
:1059E000000E176E010E186E9EEC11F000011350A0
:1059F000D2271450D3232CC10DF02DC10EF02EC18F
:105A00000FF02FC110F012000DC02CF10EC02DF1BF
:105A10000FC02EF110C02FF10001BEA13CEF2DF000
:105A2000000E00010F18D8B427EF2DF0D2C013F0EC
:105A3000D3C014F0D89013361436D051135ED15120
:105A4000145A13C0D4F014C0D5F03CEF2DF0000E62
:105A500000010F18D8B43CEF2DF0D2C013F0D3C022
:105A600014F0D89013361436D451135ED551145A0D
:105A700013C0D0F014C0D1F02CC10DF02DC10EF028
:105A80002EC10FF02FC110F012003C0E0001B86FB4
:105A90000001110EB56F030EB66F0001D00EB36F8B
:105AA000000EB46F0B0EB76F92EC23F0DB6BD4ECEF
:105AB0002BF012003A0E0001B86F00011C0EB56FFA
:105AC000030EB66F4DEF2DF03E0E0001B86F0001D2
:105AD000270EB56F030EB66F4DEF2DF00001110EBE
:105AE000B36F030EB46F04EC2DF0DBA1D86B7CEC2C
:105AF0002CF00001D00EB56F000EB66F0B0EB76F15
:105B000092EC23F00001B86B120000011C0EB36F81
:105B1000030EB46F73EF2DF00001270EB36F030E69
:105B2000B46F73EF2DF00DC02CF10EC02DF10FC02E
:105B30002EF110C02FF1030132C30DF033C30EF06C
:105B40000001E80E0F6E030E106E9AEC10F00001CB
:105B5000000E176E010E186E9EEC11F013C032F39A
:105B600014C033F3030134513227355133232CC190
:105B70000DF02DC10EF02EC10FF02FC110F012004C
:105B80000DC02CF10EC02DF10FC02EF110C02FF161
:105B900032C30DF033C30EF00301345100010D5E2A
:105BA0000301355100010E5A0001000E0F6E010E67
:105BB000106E9AEC10F00001E80E176E030E186ECE
:105BC0009EEC11F013C032F314C033F32CC10DF06E
:105BD0002DC10EF02EC10FF02FC110F00001B86BD7
:105BE0001200420E0001B86F00013A0EB56F030EAD
:105BF000B66F0001D00EB36F000EB46F040EB76F16
:105C000092EC23F038EC2CF01200440E0001B86F37
:105C100000013E0EB56F030EB66FF9EF2DF0460E84
:105C20000001B86F0001420EB56F030EB66FF9EFB9
:105C30002DF000013A0EB36F030EB46FC1EC2CF0DF
:105C40000001D00EB56F000EB66F040EB76F92EC68
:105C500023F00001B86B120000013E0EB36F030E7B
:105C6000B46F1EEF2EF00001420EB36F030EB46F3F
:105C70001EEF2EF00001460EB56F030EB66F000149
:105C8000D00EB36F000EB46F060EB76F92EC23F018
:105C9000D4EC2BF012007CEC2CF00001D00EB56F90
:105CA000000EB66F0001460EB36F030EB46F060E02
:105CB000B76F92EC23F00001B86B1200AEC2B9F0DE
:105CC000AFC2BAF0B0C2BBF0B1C2BCF01200CEC0DD
:105CD000B5F0CFC0B6F00001DC0EB36F000EB46FAC
:105CE000050EB76F92EC23F0CEC0B3F0CFC0B4F086
:105CF0000001DC51E83A0F0BE46FE36BDDBFE31FFB
:105D0000E16BDF51DDBDE16FE26BE051DDBBE26FC6
:105D10000F0EE117E217DD17DC1712000001E45146
:105D2000E83AF00BDC13E3BFDD8FE151E812D8B4A1
:105D30009DEF2EF0E151DF6FDD8DE251E812D8B416
:105D4000A5EF2EF0E251E06FDD8B0001DC0EB56FA8
:105D5000000EB66F050EB76F92EC23F0120010C460
:105D6000DFF011C4E0F01200DFC010F4E0C011F465
:105D7000120012C4DFF013C4E0F01200DFC012F40E
:105D8000E0C013F4120014C4DFF015C4E0F01200F8
:105D9000DFC014F4E0C015F412000001DBAF120004
:105DA0000301196B246B2F6B12000001DBAF120093
:105DB000A7C313F0A8C314F08351132684511422EF
:105DC00013C0A7F314C0A8F3A9C313F0AAC314F017
:105DD000855113268651142213C0A9F314C0AAF3C7
:105DE000ABC313F0ACC314F08751132688511422AF
:105DF00013C0ABF314C0ACF312000001DBAF120010
:105E00000301A76BA86BA96BAA6BAB6BAC6B120001
:105E10000001B96BB92B600E0001BB6F12000001CD
:105E2000DD51DD6715EF2FF01200020100C20AF00C
:105E3000006F00010AC0DDF074EC1FF00001DDC04E
:105E40000AF002010AC000F212000001DBAF1200EA
:105E500003011951196B18C30AF000010D6E0E6A87
:105E6000E8BE0E680D360E360001640E0F6E000E91
:105E7000106E9AEC10F00AC017F0186A9EEC11F040
