:020000040000FA
:100000000CD0D9D0E3D001D0FFD0040EA66EDED83C
:10001000A6B2FED71200FFFFFFD004008450030BEE
:1000200006E0A66AA968AA68A680A83CE9D0949CC4
:10003000900EAB6E260EAC6E0F0ED56ED76AD66ADA
:10004000BFD8D58EBDD8D59ED6CF03F0D7CF02F07E
:10005000050E02320332E82EFCD7D8A0030603C0F7
:10006000AFFFA1D80F0AFDE19ED80F0AFAE100EE1A
:1000700008F0006A016A97D80F0AF6E00450040AF3
:100080000AE00450050A01E18ED804500026EE6E05
:10009000014EE7D7F0D70052E4E10A50F66EA96EA0
:1000A0000B50F76EAA6E0CC0F8FF00EE0DF0095071
:1000B000016ED8B4FF0008500708D3E3FA6AFB6A60
:1000C0000844F92607D00CD013D022D02CD036D03B
:1000D00007D03CD0040E0A6E000E0B6E030E40D00B
:1000E0000900F5CFEEFF012EFBD70950050F38D0E0
:1000F000F80EF616080EEECFF5FF0D00E82EFBD732
:100100000A00840EA66E62D80900012EF1D727D00E
:10011000940EA66E5BD8400EF626E86AF722F82207
:10012000012EF6D71CD0A66AA680A8CFEEFFA94A5A
:10013000AA2A012EF8D70950050F12D0EECFA8FF3A
:1001400064DFA94AAA2A012EF9D709D0C40EA66EE7
:10015000EECFF5FF0D003AD8012EF8D700D0010EF2
:10016000016E0F0E1BD81AD8006A00EE08F0EE5090
:10017000002608D8012EFBD7006C005003D8040ECF
:100180000DD86FD7056E0F0A06E00550040A03E08C
:100190000550050A02E1050E01D8055004009EA88D
:1001A000FED7AD6E12000400ABB2FF009EAAFED7D0
:1001B000AE50046E1200A968AA68A86826DFFF0086
:1001C00082BEFED7040082AEFED712000400550E98
:1001D000A76EAA0EA76EA68200001200FFFFFFFF07
:1001E000FFFFFFFFFFFFFFFFFFFFFFFFFFFFFFFF1F
:1001F000FFFFFFFFFFFFFFFFFFFFFFFFFFFFFFFF0F
:100200006BEF03F0FFFFFFFF0EEF01F0FFFFFFFFBB
:10021000FFFFFFFFFFFFFFFF2DEF01F0D8CF01F041
:10022000E0CF02F0006EF3CF03F0F4CF04F0F0ACB7
:100230001DEF01F0F0B066EC0BF0A2A023EF01F08F
:10024000A1B018EC09F003C0F3FF04C0F4FF0050A4
:1002500002C0E0FF01C0D8FF1000D8CF06F0E8CF01
:1002600005F0E0CF07F0F3CF08F0F4CF09F0F0BCD1
:100270003DEF01F0F0B066EC0BF0A2B043EF01F0FF
:10028000A1B018EC09F0A2B04CEF01F0AECFE8FF3E
:100290006ECFE8FF52EF01F09EBA45EC0FF0A4BA22
:1002A000B0EC0FF008C0F3FF09C0F4FF07C0E0FF97
:1002B00005C0E8FF06C0D8FF1000FFFFFFFFFFFFEB
:1002C000FFFFFFFFFFFFFFFFFFFFFFFFFFFFFFFF3E
:1002D000FFFFFFFFFFFFFFFFFFFFFFFFFFFFFFFF2E
:1002E000FFFFFFFFFFFFFFFFFFFFFFFFFFFFFFFF1E
:1002F000FFFFFFFFFFFFFFFFFFFFFFFFFFFFFFFF0E
:10030000F95000011150F92607EF2AF009EF2AF001
:1003100016EF2AF02BEF2AF039EF2AF047EF2AF0F8
:1003200055EF2AF063EF2AF073EF2AF081EF2AF0FD
:100330008FEF2AF012000009D8A4A5EF01F0000108
:10034000000E0F6E000E106E1200E806030B0A0D71
:10035000F9CFE8FFF350F92683C00FF084C010F006
:10036000120085C00FF086C010F0120087C00FF099
:1003700088C010F0120089C00FF08AC010F012007F
:10038000FFFFFFFFFFFFFFFFFFFFFFFFFFFFFFFF7D
:10039000FFFFFFFFFFFFFFFFFFFFFFFFFFFFFFFF6D
:1003A000FFFFFFFFFFFFFFFFFFFFFFFFFFFFFFFF5D
:1003B000FFFFFFFFFFFFFFFFFFFFFFFFFFFFFFFF4D
:1003C000FFFFFFFFFFFFFFFFFFFFFFFFFFFFFFFF3D
:1003D000FFFFFFFFFFFFFFFFFFFFFFFFFFFFFFFF2D
:1003E000FFFFFFFFFFFFFFFFFFFFFFFFFFFFFFFF1D
:1003F000FFFFFFFFFFFFFFFFFFFFFFFFFFFFFFFF0D
:10040000EFCFE8FFE806070B0A0DF9CFE8FFF3503E
:10041000F9263CC04EF03DC04FF012003AC04EF0FD
:100420003BC04FF012003EC04EF03FC04FF01200F4
:1004300040C04EF041C04FF0120042C04EF043C0E9
:100440004FF0120044C04EF045C04FF0120046C0BD
:100450004EF047C04FF0120048C04EF049C04FF078
:1004600012000F0B060DF9CFE8FFF350F926BBC2BF
:10047000E8FF1200BCC2E8FF1200BDC2E8FF120094
:10048000BEC2E8FF1200BFC2E8FF1200C0C2E8FF10
:100490001200C1C2E8FF1200C2C2E8FF1200C3C2CC
:1004A000E8FF1200C4C2E8FF1200C5C2E8FF120054
:1004B000C6C2E8FF1200C7C2E8FF1200C8C2E8FFC8
:1004C0001200C9C2E8FF1200CAC2E8FF1200FFFF13
:1004D000FFFFFFFFFFFFFFFFFFFFFFFFFFFFFFFF2C
:1004E000FFFFFFFFFFFFFFFFFFFFFFFFFFFFFFFF1C
:1004F000FFFFFFFFFFFFFFFFFFFFFFFFFFFFFFFF0C
:100500000001E806070B0A0DF9CFE8FFF350F926C2
:100510008D510D6E8E510E6E12008F510D6E9051D9
:100520000E6E120091510D6E92510E6E120093518B
:100530000D6E94510E6E120095510D6E96510E6E09
:10054000120097510D6E98510E6E120099510D6E5A
:100550009A510E6E12009B510D6E9C510E6E120040
:10056000FFFFFFFFFFFFFFFFFFFFFFFFFFFFFFFF9B
:10057000FFFFFFFFFFFFFFFFFFFFFFFFFFFFFFFF8B
:10058000FFFFFFFFFFFFFFFFFFFFFFFFFFFFFFFF7B
:10059000FFFFFFFFFFFFFFFFFFFFFFFFFFFFFFFF6B
:1005A000FFFFFFFFFFFFFFFFFFFFFFFFFFFFFFFF5B
:1005B000FFFFFFFFFFFFFFFFFFFFFFFFFFFFFFFF4B
:1005C000FFFFFFFFFFFFFFFFFFFFFFFFFFFFFFFF3B
:1005D000FFFFFFFFFFFFFFFFFFFFFFFFFFFFFFFF2B
:1005E000FFFFFFFFFFFFFFFFFFFFFFFFFFFFFFFF1B
:1005F000FFFFFFFFFFFFFFFFFFFFFFFFFFFFFFFF0B
:100600000001E8BE33EF03F0E806070B0A0DF9CF4F
:10061000E8FFF350F9260D5073270E507423120093
:100620000D5075270E50762312000D5077270E506F
:10063000782312000D5079270E507A2312000D50A6
:100640007B270E507C2312000D507D270E507E23F9
:1006500012000D507F270E50802312000D5081276D
:100660000E5082231200E806070B0A0DF9CFE8FFAF
:10067000F350F9260D50736F0E50746F12000D5029
:10068000756F0E50766F12000D50776F0E50786FA9
:1006900012000D50796F0E507A6F12000D507B6F63
:1006A0000E507C6F12000D507D6F0E507E6F120049
:1006B0000D507F6F0E50806F12000D50816F0E50E5
:1006C000826F1200F2AE12000001010EA16FA1674D
:1006D00067EF03F0120092988088939C819C000140
:1006E0005B6A5C6A640E9DEC0BF092988088000156
:1006F000546A640E9DEC0BF00F018350306E316E26
:10070000326E0F018450336E346E356E0F01999046
:10071000878094969394829681940001000E176EC0
:10072000000E186E0001000E196E000E1A6E000108
:10073000000E1B6E000E1C6E0001000E1D6E000EE2
:100740001E6E0001000E136E000E146E0001000EEE
:10075000156E000E166E0001000EAB6F000EAC6F32
:100760000001000EAD6F000EAE6F0001000EAF6F06
:10077000000EB06F0001000EB16F000EB26F0001ED
:100780005E6A5F6A606BA16BA26BA36BE769E96B42
:100790000201BA6B0101116B0001CC6BCAEC31F0A4
:1007A000020100510001A56F040E93EC08F0040E45
:1007B00093EC08F00001C350C56FC450C66F050E1E
:1007C00093EC08F0050E93EC08F00001C350C76FDE
:1007D000C450C86F000EE8CF0DF0E86AE8CF0EF005
:1007E000A8EC0BF0E8CF00F5010EE8CF0DF0E86AB9
:1007F000E8CF0EF0A8EC0BF0E8CF01F5C0EC0CF060
:10080000FA0E9DEC0BF0FA0E9DEC0BF0FA0E9DEC3F
:100810000BF0FA0E9DEC0BF0C8EC08F000EC25F0A4
:10082000DEEC0EF0F2EC0EF0F28EF28CD08E0F01B8
:10083000D89083B6D880D8B023EF04F00A0E9DEC90
:100840000BF00F01D89083B6D880D8B039EF04F000
:100850000F01D89084B2D880D8B034EF04F00A0EDB
:100860009DEC0BF00F01D89084B2D880D8A05BEF3C
:1008700004F0CDEC1EF00201A50EA76346EF04F0D4
:10088000E70EA86346EF04F04AEF04F0CAEC31F03B
:10089000C9EC0BF000C2E8FF48EC1FF00301AD51BA
:1008A0000201A56FE9EC0AF064EC0AF00101F20E16
:1008B000066FA1EC0AF00F01D89084B2D880D8A0BE
:1008C0005BEF04F00A0E9DEC0BF00F01D89084B2A0
:1008D000D880D8A05BEF04F00F01D89084B4D88002
:1008E000D8B078EF04F00A0E9DEC0BF00F01D89011
:1008F00084B4D880D8B08EEF04F00F01D89083B6BE
:10090000D880D8B089EF04F00A0E9DEC0BF00F01EF
:10091000D89083B6D880D8A0BBEF07F00201A0C260
:100920000AF00201FF0E0AB0A56FA561FBEF04F00B
:100930000301A6A1DBEF04F00F0183BEDBEF04F09F
:10094000800E58EC0DF0000EF86E650EF76E040E7A
:10095000F66EBEEC0DF0C00E58EC0DF0000EF86E09
:10096000640EF76EAA0EF66EBEEC0DF00F01D89075
:1009700084B4D880D8B0C2EF04F00A0E9DEC0BF01E
:100980000F01D89084B4D880D8B0B6EF04F00F012E
:10099000D89084B4D880D8A0C7EF04F00A0E9DEC9C
:1009A0000BF00F01D89084B4D880D8A0C7EF04F022
:1009B000C80E9DEC0BF00201D1B1E2EF04F0D1A31F
:1009C000FBEF04F0800E00019D6FE1EC30F0D89059
:1009D00067EC27F0D8B0F2EF04F00201FF0EA56F2C
:1009E000FBEF04F0E9EC0AF064EC0AF0A1EC0AF089
:1009F0000A0E9DEC0BF00001010E366EA3C252F000
:100A0000A4C253F00201A25100014D6EA3EC23F0E9
:100A1000A0EC1FF0FCAE10EF05F00F019394819451
:100A2000000133B030EF05F0010E366296EF05F0AD
:100A30000001050EE8CF5DF0070E37EC0AF0020E5C
:100A4000366E0001A5510201006329EF05F096EF13
:100A500005F0006F48EC1FF0A0EC1FF096EF05F0DA
:100A6000010E366E44EC23F036EC18F040EC07F043
:100A70000201A1A161EF05F00301B651B8EC24F029
:100A8000D8A061EF05F00201B76759EF05F0ABC0E0
:100A900073F0ACC074F0ADC075F0AEC076F0AFC00E
:100AA00077F0B0C078F0B1C079F0B2C07AF061EF01
:100AB00005F0F08CF086A290E868E8CFEEF067EFE2
:100AC00005F0F09CF086A280E86AE8CFEEF0020123
:100AD000A0B186EF05F068EC17F0D8B486EF05F00A
:100AE000ECEC19F07FEC19F0B9EC1BF04BEC1CF0BE
:100AF0004AEC1AF0D9EC21F0F8EC1FF0E1EC21F00F
:100B000030EC1BF00001E96775EC10F062EC03F0CB
:100B10002CEC1DF097EC0EF00001A26794EF05F0AD
:100B20000A0EA26FDEEC05F00AEF05F0800E58EC1D
:100B30000DF0000EF86E660EF76E360EF66EBEEC19
:100B40000DF0C00E58EC0DF0000EF86E640EF76E4E
:100B5000AA0EF66EBEEC0DF0BCEC1EF0D8A0B3EF02
:100B600005F07AEC25F036EC18F0ECEC19F07FEC9F
:100B700019F0B9EC1BF04BEC1CF04AEC1AF0D9EC74
:100B800021F0F8EC1FF0E1EC21F030EC1BF02CEC44
:100B90001DF097EC0EF00AEF05F00001100E0B6E41
:100BA000C00E58EC0DF0000EE16E030EE26EE65042
:100BB00049EC0DF00B2ED7EF05F012000001840E6A
:100BC00058EC0DF0200E49EC0DF00201520EA5BFBD
:100BD000200E000149EC0DF00601CE51B8EC24F0D6
:100BE000410ED8A0200E49EC0DF00301B251B8EC33
:100BF00024F04D0ED8B02D0E49EC0DF00301B35189
:100C0000B8EC24F04D0ED8B02D0E49EC0DF00301D8
:100C1000B451B8EC24F04D0ED8B02D0E49EC0DF0C7
:100C2000200E49EC0DF0800E58EC0DF0B9C20DF01D
:100C3000BAC20EF00E6A0001640E0F6E000E106E46
:100C4000A0EC10F013C011F014C012F08BC00DF026
:100C50008CC00EF013C20FF014C210F0A0EC10F014
:100C60001450E8CF13F01550E8CF14F0156A0101C5
:100C700011B14BEF06F000011150135C12501458E3
:100C8000E8AE4BEF06F0C90E00015D6E050E37ECC5
:100C90000AF00101116900014EEC0EF0200EE8CFC0
:100CA0000AF0300E25640AC025F0255049EC0DF0FD
:100CB000265049EC0DF02E0E49EC0DF0275049EC72
:100CC0000DF00301B651B8EC24F0D8A071EF06F096
:100CD000800E58EC0DF000C513F001C514F024ECA3
:100CE0000EF00201B8AF8AEF06F0B86B000EE8CF45
:100CF0000DF0E86AE8CF0EF000C5E8FFB3EC0BF0AA
:100D0000010EE8CF0DF0E86AE8CF0EF001C5E8FF6C
:100D1000B3EC0BF069EC07F0D8B0B4EF06F07AEC66
:100D200007F0D8B0B4EF06F005EC25F0D8B0B4EF7A
:100D300006F0D7EC23F00001A351E812D8A4B4EFD9
:100D400006F00201A0A1B2EF06F0C00E58EC0DF0C3
:100D5000000EF86E640EF76EC40EF66EBEEC0DF06B
:100D6000B4EF06F0CDEC05F0000133B4CFEF06F0A0
:100D700035A4CFEF06F03594010E5D6E050E37EC0D
:100D80000AF000015466CEEF06F0542ABEC358F0B4
:100D9000BFC359F0CA6BCB6BCFEF06F0540600010E
:100DA00054A002EF07F0596602EF07F03B0E5A62BB
:100DB000E1EF06F0050E5D6E0A0E37EC0AF002EF69
:100DC00007F01E0E5A62ECEF06F0030E5D6E0A0E7F
:100DD00037EC0AF002EF07F00A0E5A62F7EF06F05E
:100DE000010E5D6E0A0E37EC0AF002EF07F0060EF8
:100DF0005A6002EF07F0010E5D6E0A0E37EC0AF042
:100E000002EF07F07F0E5A6E5650CE6F5750CF6FDD
:100E1000010E54622BEF07F058505910D8B41AEF56
:100E200007F05850CE6F5950CF6F000E0301BD63CD
:100E30002BEF07F0020E0301BD5DD8B427EF07F0DA
:100E40000001CA51CE6FCB51CF6F2BEF07F0E86A8C
:100E50000001CE6FCF6F00018B0E58EC0DF0CF511B
:100E6000E8CF13F0146A156A166A1CEC0EF03A0EFD
:100E700049EC0DF0CE51E8CF13F01CEC0EF012004F
:100E80000301C051B8EC24F0D8A066EF07F00301CD
:100E9000000EC16563EF07F000017ABF66EF07F04F
:100EA0000301C15100010D6E0E6A00010A0E0F6EA2
:100EB000000E106EA0EC10F07951135E7A51145CA4
:100EC000D8B066EF07F00001E76912000001E76B98
:100ED0001200D8900001CCAF1200C00E58EC0DF0FB
:100EE000000EF86E650EF76E700EF66EBEEC0DF02D
:100EF000D88012000D0E93EC08F00D0E93EC08F064
:100F000069C00DF06AC00EF0A9C20FF0AAC210F0BD
:100F1000A0EC10F000011450136E1550146E165012
:100F2000156E166A4EEC0EF00001255026100F0BC0
:100F3000D890D8B41200C00E58EC0DF0000EF86E28
:100F4000650EF76E5E0EF66EBEEC0DF0CB0E58EC35
:100F50000DF00001255049EC0DF0265049EC0DF044
:100F60002E0E49EC0DF0275049EC0DF0285049ECBD
:100F70000DF0D88012000F01D89084B4D880D8A08A
:100F8000BBEF07F00A0E9DEC0BF00F01D89084B474
:100F9000D880D8A0BBEF07F00F01D89083B6D880D7
:100FA000D8A0CCEF07F00A0E9DEC0BF00F01D89003
:100FB00083B6D880D8A0CCEF07F0800E58EC0DF0A7
:100FC0000F018350DBEC0DF00F018450DBEC0DF0D2
:100FD000C00E58EC0DF00F018650DBEC0DF00F0148
:100FE0008750DBEC0DF00F01835082868184E8B0DE
:100FF0008296E8B281948098E8B48088320E9DECA5
:101000000BF00F01D89084B4D880D8B00DEF08F061
:101010000A0E9DEC0BF00F01D89084B4D880D8B0A4
:10102000DDEF07F00F01D89084B4D880D8A012EF7C
:1010300008F00A0E9DEC0BF00F01D89084B4D88014
:10104000D8A012EF08F0C00E58EC0DF0000EF86EAC
:10105000640EF76E1A0EF66EBEEC0DF000010D6A0E
:10106000800E58EC0DF0000EF86E640EF76E500E08
:10107000F66EBEEC0DF0870E58EC0DF000010D5031
:10108000E8EC0DF093EC08F08C0E58EC0DF00F012D
:10109000C4CFE8FFE8EC0DF00F01C3CFE8FFE8ECA8
:1010A0000DF0320E9DEC0BF00F01D89084B4D88077
:1010B000D8B060EF08F00A0E9DEC0BF00F01D8904D
:1010C00084B4D880D8B030EF08F00F01D89084B441
:1010D000D880D8A065EF08F00A0E9DEC0BF00F0148
:1010E000D89084B4D880D8A065EF08F000010D2A0C
:1010F0000C0E0D6430EF08F0DDEF07F00001136A0D
:10110000146A156A166A0A6E0B6A0A5093EC08F0A4
:101110000001C3501326C4501422D8B0152A0B2E38
:1011200085EF08F012000A6EA10EC06E000EC16EAF
:101130000AC0E8FF31EC02F0E8AEC188E89EE8445E
:10114000E844C26EC2800000C282C2B2A5EF08F0BD
:101150000001C3CF69F0C4CF6AF00AC0E8FF1200F3
:101160000F01C282C2B2B2EF08F00001C35069277A
:10117000C4506A23120093EC08F0B0EC08F0B0EC15
:1011800008F0B0EC08F000016A336A9F693312007E
:1011900000014C6A566A576A280EE8CF55F00001E4
:1011A000900E526E010E536E0001900E4E6E010EA7
:1011B0004F6E506A516A100E0001E8CF4DF0386A48
:1011C0003A6A3C6A3E6A406A426A446A466A486AC7
:1011D0004A6A080EE8CF39F0E8CF3BF0E8CF3DF09F
:1011E000E8CF3FF0E8CF41F0E8CF43F0E8CF45F05B
:1011F000E8CF47F0E8CF49F0E8CF4BF0979E858ED7
:10120000000152500F01E8CFBBFF010153500F0105
:10121000E8CFBCFF0A0E0F01E8CFBAFF0F01A08094
:101220000F019E900F01080EE8CFB1FFB1801200B0
:101230000001EEA1857E0201BAAF22EF09F08770AE
:101240002AEF09F00001E5B129EF09F087802AEFC4
:1012500009F087900001BBCFE8FF4E26BCCFE8FF26
:101260004F224EC0E8FFE8CFBBFF4FC0E8FFE8CFFA
:10127000BCFF0001E86A4C64A1EC09F000014C2AB3
:101280004CC0E8FFFE0B4D6057EF09F04C6A500E62
:10129000E8CF4EF050C0E8FF4E5EC30EE8CF4FF0EF
:1012A00051C0E8FF4F5A506A516A9EEF09F04CA0B6
:1012B0006CEF09F052C0E8FFE8CF4EF053C0E8FFF2
:1012C000E8CF4FF0BAC2E8FF0001E5814C6298EF29
:1012D00009F0E59198EF09F0120E4C6284EF09F0E5
:1012E00050C0E8FFE8CF4EF051C0E8FFE8CF4FF024
:1012F0004F324E324F324E324F324E324F324E32EA
:101300000F0E4F1698EF09F0040EE8CFEAFF000E1B
:10131000E8CFE9FF4CC0E8FFE830E89EE804E926A2
:1013200000EC02F052C0E8FF4E5E53C0E8FF4F5A97
:101330004EC0E8FF50264FC0E8FF51220F01A19098
:101340001200CCEC0EF0D6EC0EF00001010E36626D
:10135000B0EF09F000018286BDB18296FF0EBD6F2D
:1013600087900301CDBFB8EF09F0859EB9EF09F072
:10137000858E0001552EFFEF09F003EC25F00001EA
:1013800054A0EFEF09F00001FF0EE763EFEF09F063
:1013900058C0E8FF5910D8B4E7EF09F05866D4EF09
:1013A00009F03C0E586E5906580658505A6E030103
:1013B000E86ABD11D8B4E7EF09F0000158505910A0
:1013C000D8B4E7EF09F0CA6BCB6BEFEF09F000017F
:1013D000CA2B3C0ECA63EFEF09F0CA6BCB2B280E69
:1013E000E8CF55F0562A3C0E5662FFEF09F0566AD8
:1013F000572A0501002BD8B4012B0201B86902015C
:10140000A1A108EF0AF0530EFEEC0EF00001A86B4C
:10141000000183CFE8FF311AD8A4306E316E30C09E
:10142000E8FF3212000184CFE8FF341AD8A4336EEB
:10143000346E33C0E8FF351200015E665E065F66FB
:101440005F0660676007A167A107A267A207A3679D
:10145000A3075C662DEF0AF012005C2E1200807864
:101460005D4E12005BC0E8FFE8CF5CF01200E8CFF1
:101470005BF0E8CF5CF08098120000010ABE44EFF8
:101480000AF0819E45EF0AF0818E828A829A0A468E
:101490000B2E3DEF0AF012000201AD510A6E080E4C
:1014A0000B6E3DEC0AF00201AC510A6E080E0B6E99
:1014B0003DEC0AF00201AB510A6E080E0B6E3DECDA
:1014C0000AF08686869612000BC113F00CC114F048
:1014D0000DC115F009C117F00AC118F0A4EC11F004
:1014E0000201A55101010F03F35000011326D8B0EA
:1014F000142AD8B0152A0101006B016B026B0001A0
:101500001350E846E846E880E8921F0B13B6E88ED1
:101510000101006F000113361436153613361436E8
:101520001536133614361536133614361536145050
:101530000101016F000115501F0B01011009026F1D
:10154000120064EC0AF0010108510A6E080E0B6EDD
:101550003DEC0AF0010107510A6E080E0B6E3DECDE
:101560000AF0010106510A6E080E0B6E3DEC0AF0FE
:1015700086868696010105510A6E080E0B6E3DECBB
:101580000AF0010104510A6E080E0B6E3DEC0AF0E0
:10159000010103510A6E080E0B6E3DEC0AF08686BF
:1015A0008696010102510A6E080E0B6E3DEC0AF0A0
:1015B000010101510A6E080E0B6E3DEC0AF00101AB
:1015C00000510A6E080E0B6E3DEC0AF08686869678
:1015D00012000F01939E949A939C819C819E829A03
:1015E000989686960201D1A118EF0BF0D1B318EFAF
:1015F0000BF004C206F105C207F106C208F101C2F0
:1016000003F102C204F103C205F10101700E0B6F78
:10161000C60E0C6F000E0D6F0101140E096F000E47
:101620000A6F01010E6B0A0E106F010E0F6F120090
:101630000201D1B13EEF0BF0D1A33EEF0BF00AC295
:1016400006F10BC207F10CC208F107C203F108C290
:1016500004F109C205F101016C0E0B6FCF0E0C6F86
:10166000000E0D6F0101640E096F000E0A6F01017B
:101670000E6B080E106F010E0F6F12000201D1B138
:1016800065EF0BF0D1B365EF0BF010C206F111C29C
:1016900007F112C208F10DC203F10EC204F10FC22C
:1016A00005F101014A0E0B6F190E0C6F010E0D6F43
:1016B00001010A0E096F000E0A6F01010B0E0E6F79
:1016C000320E106F020E0F6F1200120087B284EFFD
:1016D0000BF0D5AE76EF0BF0D6CFC1F0D7CFC2F07E
:1016E0000001C32BD8B4C42BF09012000001C351E9
:1016F000C411F090D8A41200E86AE8CFD7FFE8CF71
:10170000D6FFD58EF0901200F17AF0AC96EF0BF088
:101710000301CDA192EF0BF0F1AA859EF1BA858E5F
:1017200096EF0BF0F1AA858EF1BA859EF09012002B
:101730000000E82E98EF0BF012000A6EFA0E98ECFB
:101740000BF0FA0E98EC0BF00A2E9EEF0BF0120045
:101750000EC0E8FFAA6E0DC0E8FFA96EA69EA69C6B
:10176000A680A8501200A86E0EC0E8FFAA6E0DC099
:10177000E8FFA96EA69EA69CA684F29E550EA76EB3
:10178000AA0EA76EA682F28EA1A8C4EF0BF0A198B4
:101790001200800E58EC0DF0000EF86E650EF76E1C
:1017A000160EF66EBEEC0DF0C00E58EC0DF0000EED
:1017B000F86E640EF76E980EF66EBEEC0DF0B0EC9F
:1017C00027F0D8A009EF0CF0C00E58EC0DF0000E79
:1017D000F86E650EF76E280EF66EBEEC0DF0CAECD4
:1017E00031F0E2EC1EF00001600E9E6F00C2E8FFD7
:1017F00073EC1FF00201002B0301072B3A0E076365
:1018000005EF0CF0062B300E076F00019E2FF6EF50
:101810000BF0CDEC1EF000C2E8FF48EC1FF0120008
:1018200000011550F86E1450F76E1350F66E00015B
:101830000E50E26E0D50E16E0900F550E66E0A069C
:101840000900F550E66E0A2E1CEF0CF012000001A4
:101850001550F86E1450F76E1350F66EA68EA69CB7
:10186000A684A688F29E550EA76EAA0EA76EA68223
:101870000000F28E0001400E1326000E14221522E5
:101880000A2E27EF0CF0120062EC03F00001155055
:10189000F86E1450F76E1350F66EA68EA69CA684B2
:1018A000A688F29E550EA76EAA0EA76EA682F28E8D
:1018B0000A0000010E50E26E0D50E16E400E0B6EFC
:1018C000E6CFE8FFF56E0F000B2EFAD7A68EA69C8A
:1018D000A684F29E550EA76EAA0EA76EA682F28E61
:1018E000A6940001400E1326000E142215220001BA
:1018F000400E0D26000E0E220A2E44EF0CF01200B0
:1019000000011550F86E1450F76E1350F66EA68E47
:10191000A69CA684A688F29E550EA76EAA0EA76E58
:10192000A6820000F28E0A00080E0B6E00010E5017
:10193000E26E0D50E16E080E0C6EE6CFE8FFF56E1C
:101940000F000C2EFAD7A68EA69CA684F29E550EEA
:10195000A76EAA0EA76EA6820000F28E0B2EEBD702
:10196000A6940001400E1326000E14221522000139
:10197000400E0D26000E0E220A2E80EF0CF01200F3
:101980000F019A6A886A9396939A93988186818ABE
:101990008188140E9DEC0BF0390E58EC0DF0050EFD
:1019A0009DEC0BF0390E58EC0DF0010E9DEC0BF098
:1019B000390E58EC0DF0010E9DEC0BF0390E58EC81
:1019C0000DF01C0E58EC0DF0520E58EC0DF0690E97
:1019D00058EC0DF0740E58EC0DF00E0E58EC0DF0A6
:1019E000010E58EC0DF0060E58EC0DF0800E58EC80
:1019F0000DF0640EF76E2C0EF66EBEEC0DF0C00E00
:101A000058EC0DF0640EF76E3E0EF66EBEEC0DF067
:101A100012000F019A6A886A9396939A9398818626
:101A2000818A8188140E9DEC0BF0380E58EC0DF075
:101A3000050E9DEC0BF0380E58EC0DF0010E9DECF0
:101A40000BF0380E58EC0DF0010E9DEC0BF0380E3B
:101A500058EC0DF0060E58EC0DF00E0E58EC0DF093
:101A6000010E58EC0DF0800E58EC0DF0800E58EC85
:101A70000DF0640EF76E2C0EF66EBEEC0DF0C00E7F
:101A800058EC0DF0640EF76E3E0EF66EBEEC0DF0E7
:101A9000120067EC0DF07BEC0DF0818A819800005C
:101AA0000000818600000000819600000000120006
:101AB00067EC0DF07BEC0DF0819A8198000000003E
:101AC00081860000000081960000000012006EEC8C
:101AD0000DF0D8B067EF0DF09A6A12009A6881880D
:101AE000819A00000000818600000000D89088BE26
:101AF000D88081961200886E1200101010101010FD
:101B0000101018181818181818181C1C1C1C1C1C4D
:101B10001C1C1E1E1E1E1E1E1E1E01010101010197
:101B20000101030303030303030307070707070771
:101B300007070F0F0F0F0F0F0F0F800E58EC0DF050
:101B40000DC0F6FF0EC0F7FFF86ABEEC0DF01200F4
:101B5000C00E58EC0DF00DC0F6FF0EC0F7FFF86A8E
:101B6000BEEC0DF01200C00E58EC0DF0CEC0F6FF2A
:101B7000CFC0F7FFF86ABEEC0DF01200100EC1EFF7
:101B80000DF00A6E0900F5CFE8FFE812D8B4DAEFDD
:101B90000DF049EC0DF00A4EDAEF0DF00900F5CF2B
:101BA000E8FFE812D8B4DAEF0DF049EC0DF00A2E98
:101BB000C2EF0DF012000A6E080E0B6E300E0ABE58
:101BC000310E49EC0DF00A360B2EDEEF0DF012004F
:101BD0000A6E3A0E0B6E0AC0E8FFF00BE842E842CC
:101BE000E842E84230090B64070F49EC0DF00AC0E7
:101BF000E8FF0F0B30090B64070F49EC0DF00AC02A
:101C0000E8FF12004EEC0EF0255049EC0DF0265086
:101C100049EC0DF0275049EC0DF0285049EC0DF03F
:101C2000295049EC0DF012004EEC0EF007EF0EF0CB
:101C30004EEC0EF00AEF0EF04EEC0EF00DEF0EF043
:101C40004EEC0EF010EF0EF04EEC0EF038EC0EF005
:101C5000255049EC0DF0265049EC0DF0275049EC89
:101C60000DF0285049EC0DF0295049EC0DF0120010
:101C70000001300E25621200200E256E300E266205
:101C80001200200E266E300E27621200200E276EE4
:101C9000300E28621200200E286E12000001196A10
:101CA0001A6A100E176E270E186EA4EC11F0300E83
:101CB0001310256E1BC013F01CC014F01DC015F0CE
:101CC0001EC016F0196A1A6AE80E176E030E186E17
:101CD000A4EC11F0300E1310266E1BC013F01CC0C4
:101CE00014F01DC015F01EC016F0196A1A6A640EB1
:101CF000176E000E186EA4EC11F0300E1310276E44
:101D00001BC013F01CC014F01DC015F01EC016F04F
:101D1000196A1A6A0A0E176E000E186EA4EC11F0FA
:101D2000300E1310286E300E1B10296E12000001A9
:101D3000310E3762A0EF0EF0CDEC1EF0CAEF0EF0C0
:101D4000320E3762AAEF0EF000C2E8FF48EC1FF037
:101D5000CAEF0EF0330E3762B2EF0EF0E2EC1EF077
:101D6000CAEF0EF0340E3762BAEF0EF000C2E8FF91
:101D700073EC1FF0350E3762CAEF0EF00001FF0E54
:101D80000D6E030E0E6EE8CF0EF0FF0EB3EC0BF0EF
:101D9000CAEF0EF0376A12000F01ABA21200AB9827
:101DA000AB880F01AE500001616B12000F016BA2F6
:101DB00012006B986B880F016E5012000C0EE8CF6A
:101DC000AFFF220EE8CFACFF900EE8CFABFF0001D3
:101DD000616B9F9A9D8A1200ACA2ECEF0EF0E8CFE7
:101DE000ADFF1200000EE8CF6FFF220EE8CF6CFFB0
:101DF000900EE8CF6BFFA59AA38A12006CA2FEEFAB
:101E00000EF0E8CF6DFF1200E1CF21F0E2CF22F01B
:101E1000000165C0E1FF000164C0E2FF686BACA295
:101E20000FEF0FF0E6CFE8FF00016827E8CFADFF26
:101E30000001662F0FEF0FF021C0E1FF22C0E2FF8B
:101E40001200E1CF21F0E2CF22F0000165C0E1FFF6
:101E5000000164C0E2FF686B0001050E5E6EE86A77
:101E60005E6440EF0FF09EAA30EF0FF0AECFE8FFB8
:101E7000E8CFE6FF000168270001662F2CEF0FF086
:101E800021C0E1FF22C0E2FF12009EAA1200000161
:101E9000000E616358EF0FF0AECFE8FFE8CF62F0BD
:101EA000550E62631200280EE8CF5FF0612B12001E
:101EB000010E616362EF0FF0AECFE8FFE8CF63F091
:101EC000612B1200020E61636CEF0FF0AECFE8FFE2
:101ED000E8CF64F0612B1200030E616376EF0FF020
:101EE000AECFE8FFE8CF65F0612B1200040E61630E
:101EF0007FEF0FF0AECFE8FFE8CF66F0612B050E65
:101F000061638BEF0FF0010E636389EF0FF021EC3B
:101F10000FF0612B1200060E6163AEEF0FF0AECF33
:101F2000E8FFE8CF67F0020E63639FEF0FF004EC69
:101F30000FF068C0E8FFECEC0EF0616B120068C0B7
:101F4000E8FF6763A9EF0FF00C0EECEC0EF0616B8D
:101F500012000D0EECEC0EF0616B1200616B1200C2
:101F6000A4AA12006ECFE8FF0201A1B1E4EF0FF0C6
:101F7000530AD8A412000201A0A1120000010F0E02
:101F800074151009FEEC0EF073C0E8FFFEEC0EF0C5
:101F900000010F0E76152009FEEC0EF07551FEECD7
:101FA0000EF000010F0E78153009FEEC0EF077519F
:101FB000FEEC0EF000010F0E7A154009FEEC0EF05B
:101FC0007951FEEC0EF012000001A8B1EBEF0FF01A
:101FD000AA6FA82B1200A96FA82B020EA86304EF0A
:101FE00010F0AA51F00B100AD8A449EF10F00F0E10
:101FF000AA17AAA7FEEF0FF0F00EAA13A9C0ABF024
:10200000AAC0ACF049EF10F0040EA8631BEF10F06B
:10201000AA51F00B200AD8A449EF10F00F0EAA170E
:10202000AAA715EF10F0F00EAA13A9C0ADF0AAC030
:10203000AEF049EF10F0060EA86332EF10F0AA518F
:10204000F00B300AD8A449EF10F00F0EAA17AAA778
:102050002CEF10F0F00EAA13A9C0AFF0AAC0B0F098
:1020600049EF10F0080EA86349EF10F0AA51F00BE9
:10207000400AD8A449EF10F00F0EAA17AAA743EF01
:1020800010F0F00EAA13A9C0B1F0AAC0B2F049EF47
:1020900010F012000C0E0F016F6E220E6C6E900E7F
:1020A000E8CF6BFF12000001E80E0D26030E0E2292
:1020B000780E0D5C070E0E58D8A062EF10F0EF0EF0
:1020C00069EF10F00E320D320E320D320E320D323B
:1020D0000D50FEEF0EF0BC0E0D5C030E0E58D8A096
:1020E00064EF10F0EF0E69EF10F0F00EFEEC0EF062
:1020F000800EFEEC0EF073C00DF074C00EF053ECC9
:1021000010F075C00DF076C00EF053EC10F077C0F3
:102110000DF078C00EF053EC10F079C00DF07AC0DD
:102120000EF06BEC10F07BC00DF07CC00EF06BEC91
:1021300010F07DC00DF07EC00EF06BEC10F01200C0
:10214000B1EC10F010AEA9EF10F00D50155E0E506E
:10215000165A0EAEB0EF10F00F50155E1050165A12
:1021600012000001136A146A156A166A0F500D02F4
:10217000F3CF13F0F4CF14F00F500E02F3501426E7
:10218000F4501522D8B0162A10500D02F350142620
:10219000F4501522D8B0162A10500E02F35015260E
:1021A000F450162212000001246A1B6A1450131006
:1021B000D8B4000C14501718E8BE241EA46B000EEF
:1021C00017AEE5EF10F0171E172A14AEECEF10F063
:1021D000131E141E132A142214501710E8BE78EF91
:1021E00011F017501B5E143614341B3617501B2683
:1021F000143614341B36175014B01B5E14A01B2663
:10220000143614341B36175014B01B5E14A01B2652
:10221000143614341B36175014B01B5E14A01B2642
:10222000143614341B36175014B01B5E14A01B2632
:10223000143614341B36175014B01B5E14A01B2622
:10224000143614341B36175014B01B5E14A01B2612
:10225000143613341B36175014B01B5E14A01B2603
:10226000133613341B36175013B01B5E13A01B26F6
:10227000133613341B36175013B01B5E13A01B26E6
:10228000133613341B36175013B01B5E13A01B26D6
:10229000133613341B36175013B01B5E13A01B26C6
:1022A000133613341B36175013B01B5E13A01B26B6
:1022B000133613341B36175013B01B5E13A01B26A6
:1022C000133613341B36175013B01B5E13A01B2696
:1022D000133613A01B26A4B196EF11F024AE000C08
:1022E000131E141EE86A132A14221B1E1B2A000C3C
:1022F00017AE91EF11F014BE8DEF11F0E8CF9DF005
:102300001350E8CF1BF01B9E133614361450E8CF41
:1023100013F09D51146A6EEF11F0136A132A146AB8
:10232000000C141E131EA42BF1EF10F01B2A1750E3
:102330001B626EEF11F01B6A000E132A142214AEFA
:102340006EEF11F02388FF0C0001246A1C6A1B6ADF
:10235000155014101310D8B4000C15501818E8BEFE
:10236000241EA46B000E18AEBAEF11F0171E181E33
:10237000172A182215AEC3EF11F0131E141E151ED6
:10238000132A1422152215501810E8BE4DEF13F031
:1023900017501B5E18501C5A153615341B361C3648
:1023A00017501B2618501C22153615341B361C36A8
:1023B000175015A0E1EF11F01B5E18501C5AE4EF06
:1023C00011F01B2618501C22153615341B361C36EE
:1023D000175015A0F1EF11F01B5E18501C5AF4EFC6
:1023E00011F01B2618501C22153615341B361C36CE
:1023F000175015A001EF12F01B5E18501C5A04EF85
:1024000012F01B2618501C22153615341B361C36AC
:10241000175015A011EF12F01B5E18501C5A14EF44
:1024200012F01B2618501C22153615341B361C368C
:10243000175015A021EF12F01B5E18501C5A24EF04
:1024400012F01B2618501C22153615341B361C366C
:10245000175015A031EF12F01B5E18501C5A34EFC4
:1024600012F01B2618501C22153614341B361C364D
:10247000175015A041EF12F01B5E18501C5A44EF84
:1024800012F01B2618501C22143614341B361C362E
:10249000175014A051EF12F01B5E18501C5A54EF45
:1024A00012F01B2618501C22143614341B361C360E
:1024B000175014A061EF12F01B5E18501C5A64EF05
:1024C00012F01B2618501C22143614341B361C36EE
:1024D000175014A071EF12F01B5E18501C5A74EFC5
:1024E00012F01B2618501C22143614341B361C36CE
:1024F000175014A081EF12F01B5E18501C5A84EF85
:1025000012F01B2618501C22143614341B361C36AD
:10251000175014A091EF12F01B5E18501C5A94EF44
:1025200012F01B2618501C22143614341B361C368D
:10253000175014A0A1EF12F01B5E18501C5AA4EF04
:1025400012F01B2618501C22143614341B361C366D
:10255000175014A0B1EF12F01B5E18501C5AB4EFC4
:1025600012F01B2618501C22143613341B361C364E
:10257000175014A0C1EF12F01B5E18501C5AC4EF84
:1025800012F01B2618501C22133613341B361C362F
:10259000175013A0D1EF12F01B5E18501C5AD4EF45
:1025A00012F01B2618501C22133613341B361C360F
:1025B000175013A0E1EF12F01B5E18501C5AE4EF05
:1025C00012F01B2618501C22133613341B361C36EF
:1025D000175013A0F1EF12F01B5E18501C5AF4EFC5
:1025E00012F01B2618501C22133613341B361C36CF
:1025F000175013A001EF13F01B5E18501C5A04EF84
:1026000013F01B2618501C22133613341B361C36AD
:10261000175013A011EF13F01B5E18501C5A14EF43
:1026200013F01B2618501C22133613341B361C368D
:10263000175013A021EF13F01B5E18501C5A24EF03
:1026400013F01B2618501C22133613341B361C366D
:10265000175013A031EF13F01B5E18501C5A34EFC3
:1026600013F01B2618501C22133613B03CEF13F046
:1026700017501B2618501C22A4B171EF13F024AE82
:10268000000C131E141E151E000E132A14221522F0
:102690001B1E1C1E1B2A1C22000C18AE6BEF13F015
:1026A00015BE66EF13F0E8CF9DF01450E8CF1CF094
:1026B0001350E8CF1BF01C9E143615361550E8CF8A
:1026C00013F09D51156A146A3FEF13F0136A132A31
:1026D000146A156A000C151E141E131EA42BC8EFD5
:1026E00011F01B2AE86A1C2217501B623FEF13F0FF
:1026F00018501C623FEF13F01C6A1B6A000E132A6D
:102700001422152215AE3FEF13F02388FF0C1E6A2A
:102710001D6A1C6A1B6A16341B361C361D361E3693
:1027200017501B5E18501C5A19501D5A1A501E5A29
:10273000A46AA45B163616341B361C361D361E36AC
:10274000A437175016A0B0EF13F01B5E18501C5A98
:1027500019501D5A1A501E5AE86AA45BB9EF13F0BB
:102760001B2618501C2219501D221A501E22E86ADE
:10277000A423163616341B361C361D361E36A437D7
:10278000175016A0CFEF13F01B5E18501C5A1950AB
:102790001D5A1A501E5AE86AA45BD8EF13F01B2684
:1027A00018501C2219501D221A501E22E86AA42318
:1027B000163616341B361C361D361E36A4371750F7
:1027C00016A0EEEF13F01B5E18501C5A19501D5A3C
:1027D0001A501E5AE86AA45BF7EF13F01B26185034
:1027E0001C2219501D221A501E22E86AA4231636F4
:1027F00016341B361C361D361E36A437175016A04D
:102800000DEF14F01B5E18501C5A19501D5A1A5027
:102810001E5AE86AA45B16EF14F01B2618501C22FF
:1028200019501D221A501E22E86AA42316361634A7
:102830001B361C361D361E36A437175016A02CEF3B
:1028400014F01B5E18501C5A19501D5A1A501E5A6B
:10285000E86AA45B35EF14F01B2618501C221950AF
:102860001D221A501E22E86AA423163616341B367F
:102870001C361D361E36A437175016A04BEF14F029
:102880001B5E18501C5A19501D5A1A501E5AE86ADD
:10289000A45B54EF14F01B2618501C2219501D2263
:1028A0001A501E22E86AA423163616341B361C362C
:1028B0001D361E36A437175016A06AEF14F01B5EA3
:1028C00018501C5A19501D5A1A501E5AE86AA45B17
:1028D00073EF14F01B2618501C2219501D221A5099
:1028E0001E22E86AA423163615341B361C361D3604
:1028F0001E36A437175016A089EF14F01B5E18502F
:102900001C5A19501D5A1A501E5AE86AA45B92EFBD
:1029100014F01B2618501C2219501D221A501E227A
:10292000E86AA423153615341B361C361D361E36B0
:10293000A437175015A0A8EF14F01B5E18501C5AAE
:1029400019501D5A1A501E5AE86AA45BB1EF14F0D0
:102950001B2618501C2219501D221A501E22E86AEC
:10296000A423153615341B361C361D361E36A437E7
:10297000175015A0C7EF14F01B5E18501C5A1950C1
:102980001D5A1A501E5AE86AA45BD0EF14F01B2699
:1029900018501C2219501D221A501E22E86AA42326
:1029A000153615341B361C361D361E36A437175007
:1029B00015A0E6EF14F01B5E18501C5A19501D5A52
:1029C0001A501E5AE86AA45BEFEF14F01B26185049
:1029D0001C2219501D221A501E22E86AA423153603
:1029E00015341B361C361D361E36A437175015A05D
:1029F00005EF15F01B5E18501C5A19501D5A1A503D
:102A00001E5AE86AA45B0EEF15F01B2618501C2214
:102A100019501D221A501E22E86AA42315361534B7
:102A20001B361C361D361E36A437175015A024EF52
:102A300015F01B5E18501C5A19501D5A1A501E5A78
:102A4000E86AA45B2DEF15F01B2618501C221950C4
:102A50001D221A501E22E86AA423153615341B368F
:102A60001C361D361E36A437175015A043EF15F03F
:102A70001B5E18501C5A19501D5A1A501E5AE86AEB
:102A8000A45B4CEF15F01B2618501C2219501D2278
:102A90001A501E22E86AA423153615341B361C363C
:102AA0001D361E36A437175015A062EF15F01B5EB9
:102AB00018501C5A19501D5A1A501E5AE86AA45B25
:102AC0006BEF15F01B2618501C2219501D221A50AE
:102AD0001E22E86AA423153614341B361C361D3614
:102AE0001E36A437175015A081EF15F01B5E185045
:102AF0001C5A19501D5A1A501E5AE86AA45B8AEFD4
:102B000015F01B2618501C2219501D221A501E2287
:102B1000E86AA423143614341B361C361D361E36C0
:102B2000A437175014A0A0EF15F01B5E18501C5AC4
:102B300019501D5A1A501E5AE86AA45BA9EF15F0E5
:102B40001B2618501C2219501D221A501E22E86AFA
:102B5000A423143614341B361C361D361E36A437F7
:102B6000175014A0BFEF15F01B5E18501C5A1950D7
:102B70001D5A1A501E5AE86AA45BC8EF15F01B26AE
:102B800018501C2219501D221A501E22E86AA42334
:102B9000143614341B361C361D361E36A437175017
:102BA00014A0DEEF15F01B5E18501C5A19501D5A68
:102BB0001A501E5AE86AA45BE7EF15F01B2618505E
:102BC0001C2219501D221A501E22E86AA423143612
:102BD00014341B361C361D361E36A437175014A06D
:102BE000FDEF15F01B5E18501C5A19501D5A1A5053
:102BF0001E5AE86AA45B06EF16F01B2618501C222A
:102C000019501D221A501E22E86AA42314361434C7
:102C10001B361C361D361E36A437175014A01CEF69
:102C200016F01B5E18501C5A19501D5A1A501E5A85
:102C3000E86AA45B25EF16F01B2618501C221950D9
:102C40001D221A501E22E86AA423143614341B369F
:102C50001C361D361E36A437175014A03BEF16F055
:102C60001B5E18501C5A19501D5A1A501E5AE86AF9
:102C7000A45B44EF16F01B2618501C2219501D228D
:102C80001A501E22E86AA423143614341B361C364C
:102C90001D361E36A437175014A05AEF16F01B5ECF
:102CA00018501C5A19501D5A1A501E5AE86AA45B33
:102CB00063EF16F01B2618501C2219501D221A50C3
:102CC0001E22E86AA423143613341B361C361D3624
:102CD0001E36A437175014A079EF16F01B5E18505B
:102CE0001C5A19501D5A1A501E5AE86AA45B82EFEA
:102CF00016F01B2618501C2219501D221A501E2295
:102D0000E86AA423133613341B361C361D361E36D0
:102D1000A437175013A098EF16F01B5E18501C5ADA
:102D200019501D5A1A501E5AE86AA45BA1EF16F0FA
:102D30001B2618501C2219501D221A501E22E86A08
:102D4000A423133613341B361C361D361E36A43707
:102D5000175013A0B7EF16F01B5E18501C5A1950ED
:102D60001D5A1A501E5AE86AA45BC0EF16F01B26C3
:102D700018501C2219501D221A501E22E86AA42342
:102D8000133613341B361C361D361E36A437175027
:102D900013A0D6EF16F01B5E18501C5A19501D5A7E
:102DA0001A501E5AE86AA45BDFEF16F01B26185073
:102DB0001C2219501D221A501E22E86AA423133621
:102DC00013341B361C361D361E36A437175013A07D
:102DD000F5EF16F01B5E18501C5A19501D5A1A5068
:102DE0001E5AE86AA45BFEEF16F01B2618501C2240
:102DF00019501D221A501E22E86AA42313361334D8
:102E00001B361C361D361E36A437175013A014EF80
:102E100017F01B5E18501C5A19501D5A1A501E5A92
:102E2000E86AA45B1DEF17F01B2618501C221950EE
:102E30001D221A501E22E86AA423133613341B36AF
:102E40001C361D361E36A437175013A033EF17F06B
:102E50001B5E18501C5A19501D5A1A501E5AE86A07
:102E6000A45B3CEF17F01B2618501C2219501D22A2
:102E70001A501E22E86AA423133613341B361C365C
:102E80001D361E36A437175013A052EF17F01B5EE5
:102E900018501C5A19501D5A1A501E5AE86AA45B41
:102EA0005BEF17F01B2618501C2219501D221A50D8
:102EB0001E22E86AA423133613B067EF17F01750E9
:102EC0001B2618501C2219501D221A501E22000CBD
:102ED0000F01D89083B6D880D8B074EF17F00A0EDF
:102EE0009DEC0BF00F01D89083B6D880D8B0EAEFF4
:102EF00017F00F01D89084B2D880D8B085EF17F0C2
:102F00000A0E9DEC0BF00F01D89084B2D880D8B097
:102F1000EAEF17F00001CC67ACEF17F00001CC69C5
:102F2000030132C30DF033C30EF00001E80E0F6E43
:102F3000030E106EA0EC10F014C01CF115C01DF1B2
:102F40000301345101011C270301355101011D23E7
:102F500034C31AF135C31BF1E1EC29F0D8B0BDEF51
:102F600017F0D8A4C4EF17F001011A07D8A01B0767
:102F70001A07D8A01B07C4EF17F001011A2BD8B409
:102F80001B2B1A2BD8B41B2B1CC10DF01DC10EF02E
:102F900001011A5100010D5E01011B5100010E5A81
:102FA0000001000E0F6E010E106EA0EC10F000017B
:102FB000E80E176E030E186EA4EC11F013C032F376
:102FC00014C033F31AC134F31BC135F34AEC1AF0C1
:102FD000D88412000001CC67F0EF17F0D8941200EB
:102FE000CC6BBDEC1FF0D894120000016951E8CF02
:102FF0000DF06A51E8CF0EF06D510D5E6E510E5A14
:10300000D8A012EF18F06B51E8CF0FF06C51E8CF59
:1030100010F0A0EC10F01450E8CF71F01550E8CF8C
:1030200072F012006F51E8CF0FF07051E8CF10F03E
:10303000A0EC10F01450E8CF71F01550E8CF72F00A
:10304000120069C00DF06AC00EF06D510D5E6E5138
:103050000E5A6BC00FF06CC010F0A0EC10F01450C2
:10306000E8CF71F01550E8CF72F01200040E93EC27
:1030700008F0040EBBEC08F015C26BF016C26CF041
:1030800017C26DF018C26EF019C26FF01AC270F05C
:10309000F5EC17F071C034F172C035F171C073F006
:1030A00072C074F0050E93EC08F0050EBBEC08F04E
:1030B0001BC26BF01CC26CF01DC26DF01EC26EF024
:1030C0001FC26FF020C270F0F5EC17F071C036F13E
:1030D00072C037F171C075F072C076F0060E93ECD5
:1030E00008F0060EBBEC08F021C26BF022C26CF0B7
:1030F00023C26DF024C26EF025C26FF026C270F0BC
:10310000F5EC17F071C038F172C039F171C077F089
:1031100072C078F0070E93EC08F0070E93EC08F0FD
:1031200027C26BF028C26CF029C26DF02AC26EF083
:1031300021EC18F071C03AF172C03BF171C079F026
:1031400072C07AF0030E93EC08F000010F01C3CFB8
:10315000E8FFE8CF8BF0C4CFE8FFE8CF8CF0080E93
:1031600093EC08F02DC26DF02EC26EF02BC26BF006
:103170002CC26CF021EC18F071C083F072C084F0A6
:10318000090E93EC08F031C26DF032C26EF02FC21E
:103190006BF030C26CF021EC18F071C085F072C099
:1031A00086F00A0E93EC08F035C26DF036C26EF070
:1031B00033C26BF034C26CF021EC18F071C087F0B0
:1031C00072C088F00B0E93EC08F039C26DF03AC271
:1031D0006EF037C26BF038C26CF021EC18F071C0A1
:1031E00089F072C08AF00301B551B8EC24F0D8A080
:1031F00000EF19F0030E7C6FE80E7B6F02EF19F001
:103200007B6B7C6B000E93EC08F03BC26BF03CC216
:103210006CF03DC26DF03EC26EF021EC18F071C052
:103220007DF072C07EF0010E93EC08F03FC26BF0AF
:1032300040C26CF041C26DF042C26EF021EC18F059
:1032400071C07FF072C080F00301B751B8EC24F078
:10325000D8A031EF19F0030E826FE80E816F47EFAF
:1032600019F00301B951B8EC24F0D8A03CEF19F0E3
:10327000816B826B47EF19F00301B851B8EC24F071
:10328000D8A047EF19F0010E826FF40E816F120083
:103290000001106A0FBE101EA0EC10F00001640EB9
:1032A000176E000E186EA4EC11F013C011F014C0CC
:1032B00012F013C00FF014C010F00EAE65EF19F04D
:1032C0000F1E101E0F2AD8B0102AA0EC10F000011B
:1032D0000A0E176E000E186EA4EC11F00B50E8CF1A
:1032E00017F0186A17BE181EA4EC11F011500D5EED
:1032F00012500E5A13500D2614500E2212000301C4
:10330000AE51B8EC24F073C00DF074C00EF0D8A02C
:1033100095EF19F003011B510001E8CF0FF00301F5
:103320001751E8CF0BF09DEF19F003011A5100017E
:10333000E8CF0FF0640EE8CF0BF048EC19F00DC0A9
:1033400073F00EC074F00301AF51B8EC24F075C0F7
:103350000DF076C00EF0D8A0B9EF19F00301265198
:103360000001E8CF0FF003012251E8CF0BF0C1EFCD
:1033700019F0030125510001E8CF0FF0640EE8CFEA
:103380000BF048EC19F00DC075F00EC076F003019B
:10339000B051B8EC24F077C00DF078C00EF0D8A092
:1033A000DDEF19F0030131510001E8CF0FF0030107
:1033B0002D51E8CF0BF0E5EF19F00301305100017A
:1033C000E8CF0FF0640EE8CF0BF048EC19F00DC019
:1033D00077F00EC078F012000301AE51B8EC24F083
:1033E000D8A00BEF1AF073C00FF074C010F017C321
:1033F0000DF018C30EF00E6A0DBE0E1EA0EC10F0FC
:103400000001640E176E000E186EA4EC11F013C0CC
:1034100073F014C074F00301AF51B8EC24F0D8A0DD
:103420002AEF1AF075C00FF076C010F022C30DF02D
:1034300023C30EF00E6A0DBE0E1EA0EC10F00001AC
:10344000640E176E000E186EA4EC11F013C075F028
:1034500014C076F00301B051B8EC24F0D8A049EFC5
:103460001AF077C00FF078C010F02DC30DF02EC306
:103470000EF00E6A0DBE0E1EA0EC10F00001640EE0
:10348000176E000E186EA4EC11F013C077F014C084
:1034900078F012000201B2519BEC01F00301A75138
:1034A00000010F260301A8510001102218C30DF0DE
:1034B00019C30EF000010E6AFF0E0DBE0E6EA0ECD9
:1034C00010F00001640E176E186A196A1A6AA4ECEB
:1034D00011F000010301195100010D6E0E6A0DBEBD
:1034E0000E1E0D360E360D5013260E50142213509C
:1034F0007327145074230201B3519BEC01F00301B4
:10350000A95100010F260301AA510001102223C373
:103510000DF024C30EF000010E6AFF0E0DBE0E6EFC
:10352000A0EC10F00001640E176E186A196A1A6A8E
:10353000A4EC11F000010301245100010D6E0E6A8C
:103540000DBE0E1E0D360E360D5013260E501422D3
:1035500013507527145076230201B4519BEC01F0EF
:103560000301AB5100010F260301AC5100011022F1
:103570002EC30DF02FC30EF000010E6AFF0E0DBE1C
:103580000E6EA0EC10F00001640E176E186A196A36
:103590001A6AA4EC11F0000103012F5100010D6E15
:1035A0000E6A0DBE0E1E0D360E360D5013260E5031
:1035B000142213507727145078230201B5519BEC45
:1035C00001F036C30DF037C30EF000010E6AFF0E96
:1035D0000DBE0E6EA0EC10F00001640E176E186A9E
:1035E000196A1A6AA4EC11F00301010E376310EF97
:1035F0001BF00001030E0E6E186EE80E0D6E176EB6
:1036000079510D5E7A510E5A196A1A6A13C00FF079
:1036100014C010F0A0EC10F0A4EC11F02AEF1BF095
:10362000020E37632AEF1BF0000179510D6E7A51BB
:103630000E6E13C00FF014C010F0A0EC10F00001DB
:10364000030EE8CF18F0E80EE8CF17F0196A1A6AEF
:10365000A4EC11F000011350792714507A231200C2
:1036600000010E6A08C40DF00DBE0E6800010A0EBE
:103670000F6E000E106EA0EC10F013507327145054
:10368000742300010E6A09C40DF00DBE0E6800011E
:103690000A0E0F6E000E106EA0EC10F0135075277E
:1036A0001450762300010E6A0AC40DF00DBE0E6898
:1036B00000010A0E0F6E000E106EA0EC10F01350F9
:1036C00077271450782300010E6A0BC40DF00DBE4D
:1036D0000E6800010A0E0F6E000E106EA0EC10F0C6
:1036E0001350792714507A2300010E6A0CC40DF090
:1036F0000DBE0E6800010A0E0F6E000E106EA0ECDB
:1037000010F013507B2714507C2300010E6A0DC467
:103710000DF00DBE0E6800010A0E0F6E000E106E49
:10372000A0EC10F013507D2714507E2300010E6A88
:103730000EC40DF00DBE0E6800010A0E0F6E000ED5
:10374000106EA0EC10F013507F271450802300015E
:103750000E6A0FC40DF00DBE0E6800010A0E0F6E4A
:10376000000E106EA0EC10F013508127145082232D
:10377000120000010A0E0D6E000E0E6E0301BB5109
:10378000B8EC24F0D8A001EF1CF003014DAFD4EF4A
:103790001BF04CC30FF0106A0FBE1068A0EC10F0C5
:1037A00013C073F014C074F003014FAFE3EF1BF0CC
:1037B0004EC30FF0106A0FBE1068A0EC10F013C0DB
:1037C00075F014C076F0030151AFF2EF1BF050C357
:1037D0000FF0106A0FBE1068A0EC10F013C077F065
:1037E00014C078F0030153AF01EF1CF052C30FF087
:1037F000106A0FBE1068A0EC10F013C079F014C06E
:103800007AF00301BC51B8EC24F0D8A044EF1CF0CE
:10381000030155AF17EF1CF054C30FF0106A0FBE31
:103820001068A0EC10F013C073F014C074F0030122
:1038300057AF26EF1CF056C30FF0106A0FBE10688A
:10384000A0EC10F013C075F014C076F0030159AF6E
:1038500035EF1CF058C30FF0106A0FBE1068A0ECD3
:1038600010F013C077F014C078F003015BAF44EFA1
:103870001CF05AC30FF0106A0FBE1068A0EC10F0D5
:1038800013C079F014C07AF000017AAF1200E86A30
:10389000796F7A6F12000201A1B112000301B651D3
:1038A000B8EC24F0D8A012000001606712000201F9
:1038B0009F510001606F0201010EB66369EF1CF0B9
:1038C000010E00015D6E050E37EC0AF0280E0001B6
:1038D000606F73C00DF074C00EF00CEC1DF0D8A436
:1038E0009FEF1CF00201B66778EF1CF002019E51B9
:1038F000000174BF86EF1CF00301192719AF90EF88
:103900001CF0D8A690EF1CF093EF1CF00301195F98
:1039100019BF90EF1CF0D8A690EF1CF098EF1CF0A8
:1039200019BF98EF1CF0640E1961196F9DEF1CF020
:10393000640EE81EE82A1965196FBDEC1FF075C00A
:103940000DF076C00EF00CEC1DF0D8A4D5EF1CF0F5
:103950000201B667AEEF1CF002019E51000176BF76
:10396000BCEF1CF00301242724AFC6EF1CF0D8A63F
:10397000C6EF1CF0C9EF1CF00301245F24BFC6EFA3
:103980001CF0D8A6C6EF1CF0CEEF1CF024BFCEEF83
:103990001CF0640E2461246FD3EF1CF0640EE81E4B
:1039A000E82A2465246FBDEC1FF077C00DF078C0C5
:1039B0000EF00CEC1DF0D8A40BEF1DF00201B66761
:1039C000E4EF1CF002019E51000178BFF2EF1CF001
:1039D00003012F272FAFFCEF1CF0D8A6FCEF1CF043
:1039E000FFEF1CF003012F5F2FBFFCEF1CF0D8A6E8
:1039F000FCEF1CF004EF1DF02FBF04EF1DF0640E70
:103A00002F612F6F09EF1DF0640EE81EE82A2F6565
:103A10002F6FBDEC1FF0120000010EAE15EF1DF070
:103A20000D1E0E1E0D2AD8B00E2AD8900E320D3261
:103A30000E661FEF1DF0640E0D6424EF1DF00001F3
:103A4000640E0D6E000E0E6E0D50E832E8321F0B44
:103A5000D8740DC0E8FF12000001BD6B000174BFF7
:103A60003EEF1DF011C30DF012C30EF073C00FF046
:103A700074C010F0A0EC10F048EF1DF015C30DF06D
:103A800016C30EF073C00FF074C010F0A0EC10F06D
:103A900013C30DF014C30EF0000114500D26155081
:103AA0000E229DEC1EF00DC03CF00EC03DF000015A
:103AB00076BF67EF1DF01CC30DF01DC30EF075C07F
:103AC0000FF076C010F0A0EC10F071EF1DF020C3E5
:103AD0000DF021C30EF075C00FF076C010F0A0EC11
:103AE00010F01EC30DF01FC30EF0000114500D2680
:103AF00015500E229DEC1EF00DC03AF00EC03BF0AA
:103B0000000178BF90EF1DF027C30DF028C30EF021
:103B100077C00FF078C010F0A0EC10F09AEF1DF015
:103B20002BC30DF02CC30EF077C00FF078C010F04F
:103B3000A0EC10F029C30DF02AC30EF000011450C0
:103B40000D2615500E229DEC1EF00DC03EF00EC04D
:103B50003FF032C30DF033C30EF079C00FF07AC0DE
:103B600010F0A0EC10F034C30DF035C30EF00001DE
:103B700014500D2615500E229DEC1EF00DC040F085
:103B80000EC041F03AC30DF03BC30EF07BC00FF006
:103B90007CC010F0A0EC10F03CC30DF03DC30EF063
:103BA000000114500D2615500E229DEC1EF00DC084
:103BB00042F00EC043F0040117A104EF1EF0000113
:103BC0007EBFEFEF1DF01CC30DF01DC30EF07DC0D6
:103BD0000FF07EC010F0A0EC10F0F9EF1DF020C344
:103BE0000DF021C30EF07DC00FF07EC010F0A0ECF0
:103BF00010F01EC30DF01FC30EF0000114500D266F
:103C000015500E2217EF1EF03EC30DF03FC30EF00D
:103C10007DC00FF07EC010F0A0EC10F040C30DF09E
:103C200041C30EF0000114500D2615500E229DECDC
:103C30001EF00DC044F00EC045F003019AA146EFFE
:103C40001EF0000180BF31EF1EF011C30DF012C352
:103C50000EF07FC00FF080C010F0A0EC10F03BEF32
:103C60001EF015C30DF016C30EF07FC00FF080C01C
:103C700010F0A0EC10F013C30DF014C30EF000010F
:103C800014500D2615500E2259EF1EF042C30DF0B0
:103C900043C30EF07FC00FF080C010F0A0EC10F016
:103CA00044C30DF045C30EF0000114500D2615500D
:103CB0000E229DEC1EF00DC046F00EC047F081C0F4
:103CC0000DF082C00EF0F40E0D5E010E0E5AD8906B
:103CD0000D360E360EBE75EF1EF046C30FF047C30D
:103CE00010F0A0EC10F07BEF1EF04AC30FF04BC3B6
:103CF00010F0A0EC10F048C30DF049C30EF00D50C9
:103D000014260E50152214C00DF015C00EF09DECB7
:103D10001EF00DC048F00EC049F00001CC679CEFCA
:103D20001EF00301B151B8EC24F0D8A09CEF1EF0B6
:103D300038C340F039C341F012000201AE51000116
:103D40000D5C0201AF5100010E58E8AEADEF1EF060
:103D5000AEC20DF0AFC20EF012000201B051000170
:103D60000D5C0201B15100010E58E8BE1200B0C254
:103D70000DF0B1C20EF01200000133B4CBEF1EF013
:103D800035A4CBEF1EF03594010E5D6E050E37ECB9
:103D90000AF0D8801200D89012000001000E0D6EBB
:103DA000020E0E6E0001000E136E000E146E010E58
:103DB000156EE86A0A6E10EC0CF002010051000169
:103DC000A56F12000001000E0D6E020E0E6E0001B6
:103DD000000E136E000E146E010E156E040E0A6EA8
:103DE00044EC0CF01200E846E8060B6E0001000EF1
:103DF0000D6E030E0E6E0001000E136E000E146E9B
:103E0000010E156E0B501426E86A1522100E0A6E6C
:103E100010EC0CF01200E846E8060B6E0001000EF4
:103E20000D6E080E0E6E0001000E136E000E146E65
:103E3000010E156E0B501426E86A1522400E0A6E0C
:103E400010EC0CF00001000EB56F030EB66F000110
:103E5000000EB36F030EB46F0001080EB46F100EA6
:103E6000B76F90EC23F00001000E0D6E080E0E6E81
:103E70000001000E136E000E146E010E156E0B5035
:103E80001426E86A1522010E0A6E44EC0CF01200AA
:103E9000E846E8060B6E0001000E0D6E030E0E6E76
:103EA0000001000E136E000E146E010E156E0B5005
:103EB0001426E86A15220A6E10EC0CF00001000EC0
:103EC0000D6E040E0E6E0001000E136E000E146EC9
:103ED000010E156E0B50E82A1426E86A15220A6EA8
:103EE00010EC0CF01200E846E8060C6E0001000E23
:103EF0000D6E030E0E6E0001000E136E000E146E9A
:103F0000010E156E0C501426E86A1522040E0A6E76
:103F100044EC0CF00001000E0D6E040E0E6E00015C
:103F2000000E136E000E146E010E156E0C50E82A72
:103F30001426E86A1522040E0A6E44EC0CF01200F6
:103F40000001000EB56F030EB66F0001000EB36FD7
:103F5000060EB46F000EB76F90EC23F00001000E58
:103F6000B56F040EB66F0001000EB36F070EB46F8D
:103F7000000EB76F90EC23F0120002010051E846EA
:103F8000E8060A6E0001000E0D6E030E0E6E0001B3
:103F9000000E136E000E146E010E156E0A501426DC
:103FA000E86A1522010E0A6E44EC0CF0120073C090
:103FB0008DF074C08EF075C08FF076C090F077C031
:103FC00091F078C092F079C093F07AC094F07BC001
:103FD00095F07CC096F07DC097F07EC098F07FC0D1
:103FE00099F080C09AF081C09BF082C09CF01200D2
:103FF000D7EC1FF00301B251B8EC24F0D8B013EFA6
:1040000020F0030EE26E5C0EE16EB0EC22F0610E69
:10401000E16EB0EC22F0660EE16EB0EC22F06B0EB9
:10402000E16EB0EC22F0D7EC1FF00301B351B8EC15
:1040300024F0D8B034EF20F0030EE26E700EE16E83
:10404000B0EC22F0D7EC1FF0750EE16EB0EC22F070
:10405000D7EC1FF07A0EE16EB0EC22F0D7EC1FF037
:104060007F0EE16EB0EC22F0D7EC1FF00301B451EB
:10407000B8EC24F0D8B04FEF20F0030EE26E840EBF
:10408000E16EB0EC22F0890EE16EB0EC22F08E0E03
:10409000E16EB0EC22F0930EE16EB0EC22F0120073
:1040A0008DC00DF08EC00EF010C40FF000010EBEDA
:1040B00011C40FF0106A0FBE1068A0EC10F00001E0
:1040C000640E176E000E186EA4EC11F0000113C000
:1040D000E8FF912714C0E8FF922391C00DF092C031
:1040E0000EF012C40FF000010EBE13C40FF0106AE0
:1040F0000FBE1068A0EC10F00001640E176E000EE9
:10410000186EA4EC11F0000113C0E8FF8D2714C055
:10411000E8FF8E2391C00DF092C00EF014C40FF092
:1041200000010EBE15C40FF0106A0FBE1068A0EC9F
:1041300010F00001640E176E000E186EA4EC11F062
:10414000000113C0E8FF8F2714C0E8FF902393C03D
:104150000DF094C00EF016C40FF000010EBE106AF0
:104160000FBE1068A0EC10F00001640E176E000E78
:10417000186EA4EC11F0000113C0E8FF8F2714C0E3
:10418000E8FF90238DC073F08EC074F08FC075F07F
:1041900090C076F091C077F092C078F093C079F03B
:1041A00094C07AF0040117A1E4EF20F08FC07DF0F5
:1041B00090C07EF0040118A1E4EF20F000017D1F03
:1041C0007E1F7D2BD8B07E2B030198A101EF21F03B
:1041D0008FC00DF090C00EF091C00FF092C010F0A3
:1041E00000010DC075F00EC076F00DC077F00EC066
:1041F00078F00F507727105078230F50755F1050CC
:10420000765B030199A11EEF21F08FC00DF090C0E5
:104210000EF08DC00FF08EC010F000010DC075F0D3
:104220000EC076F00DC073F00EC074F00F507327FF
:10423000105074230F50755F1050765B03019AA1E4
:10424000D8EF21F08DC00DF08EC00EF00DC073F0D0
:104250000EC074F00DC07FF00EC080F00001640E3F
:10426000176E000E186E03019C51E812D8B484EF4B
:1042700021F0E8BE61EF21F0640800010F6E106AC2
:1042800074BF4FEF21F073C00DF074C00EF0A0ECBE
:1042900010F0A4EC11F013C073F014C074F000011E
:1042A00080AF84EF21F07FC00DF080C00EF0A0EC55
:1042B00010F0A4EC11F013C07FF014C080F084EF74
:1042C00021F0640F00010F6E106A74AF74EF21F0DB
:1042D00073C00DF074C00EF0A0EC10F0A4EC11F05F
:1042E00013C073F014C074F0000180BF84EF21F09C
:1042F0007FC00DF080C00EF0A0EC10F0A4EC11F027
:1043000013C07FF014C080F003019BA18EEF21F059
:1043100000017F1F801F7F2BD8B0802B0001640E0F
:10432000176E000E186E03019D51E812D8B4D8EF35
:1043300021F00301C651E812D8B4B1EF21F0030116
:10434000C551B8EC24F0D8B0D8EF21F00001E80E48
:104350000D6E030E0E6E93510D5E94510E5ABAEF10
:1043600021F00001E80E0D6E030E0E6E99510D5EE8
:104370009A510E5A9DC30FF09EC310F0106AE8BE0A
:10438000101EA0EC10F0A4EC11F013507327145081
:10439000742303019BB1D3EF21F00001131E141EFF
:1043A000132AD8B0142A000113507F2714508023F9
:1043B00012000301A4A11200D7EC1FF050EC20F072
:1043C00012000301A4B1E9EF21F0D7EC1FF050EC8B
:1043D00020F003019EA104EF22F00301C251B8ECCA
:1043E00024F0D8A004EF22F003019F5100010D6ECC
:1043F0000E6A00010A0E0F6E000E106EA0EC10F097
:1044000013C079F014C07AF00301A0A131EF22F0BB
:104410000301C351B8EC24F0D8A013EF22F003013C
:10442000A1511CEF22F00301C451B8EC24F0D8A034
:1044300031EF22F00301A25100010D6E0E6A00015E
:104440000A0E0F6E000E106EA0EC10F01350795D86
:1044500014507A59E8AE31EF22F013C079F014C04D
:104460007AF012000BC0E8FFF00BD8B412000DC0B8
:1044700069F00EC06AF00EAE43EF22F00D1E0E1E64
:104480000D2AD8B00E2A0DC013F00EC014F0640E21
:10449000176ED3EC10F000011C6A090E13605BEF7D
:1044A00022F00BC0E8FFE83AE8060F0BE8B678EF19
:1044B00022F06DEF22F0136E0DC01BF00EC01CF049
:1044C000840E00011B5E030E1C5A0BC0E8FFE83A85
:1044D000E8060F0BE8B678EF22F00B0DF350460F0D
:1044E0001324E8CFD9FF020EE8CFDAFF82EF22F0E3
:1044F000E8960B0DF350DA0F1324E8CFD9FF030E23
:10450000E8CFDAFFDECF0AF0DFCF0BF000010BC0FF
:104510000DF00AC0E8FF0D5E0E6A0DBE0E681BC0EE
:104520000FF01CC010F0A0EC10F00A0E176ED3ECC8
:1045300010F00AC0E8FF0A0DF3CFE8FF1326F4CF0E
:10454000E8FF142213C00DF014C00EF000016AAF92
:10455000120000010D1E0E1E0D2AD8B00E2A1200E8
:10456000E650E8CF0BF0E812D8B4120080EC02F06D
:1045700032EC22F00DC011F00EC012F0E6CF0AF0BE
:10458000E6CFE8FF0001E8CF0DF00E6A0DBE0E1E6B
:1045900000010A0E0F6E000E106EA0EC10F011C09C
:1045A0000DF012C00EF013500D5E14500E5A0EBED8
:1045B0000FEF23F0E6CFE8FF00010AACF8EF22F09E
:1045C000E8CF13F0E9CF14F00DC011F00EC012F0D7
:1045D000135080EC02F00DC013F00EC014F00A0E60
:1045E000176ED3EC10F011C00DF012C00EF0135086
:1045F0000F6E106A0FBE101EA0EC10F00001640ECA
:10460000176E000E186E196A1A6AA4EC11F013C026
:104610000DF014C00EF00A5000EC03F01200E6CFCB
:10462000E8FFE6CFE8FF00010AAA2DEF23F0E8CF6C
:1046300013F00DC011F00EC012F0135080EC02F018
:104640000DC013F00EC014F00A0E176ED3EC10F06C
:1046500011C00DF012C00EF013500F6E106A0FBE95
:10466000101EA0EC10F00001640E176E000E186E04
:10467000196A1A6AA4EC11F013C00DF014C00EF000
:104680000A5000EC03F012000001BD0EB56F030EDE
:10469000B66F0001120EB36F010EB46F050EB76F47
:1046A00090EC23F0D90EE8CFD9FF060EE8CFDAFF61
:1046B000060EE8CF0CF0DDCFE8FFE812D8B468EFC3
:1046C00023F0DFCFE8FFB8EC24F0D8B074EF23F08C
:1046D000DDCFE8FF0C2E5BEF23F0A5C0E8FF020161
:1046E00000637DEF23F01200DECFE8FFDECFE8FFAE
:1046F000020100637DEF23F01200E8CF00F248ECE6
:104700001FF00001120EB56F010EB66F0001BD0E55
:10471000B36F030EB46F050EB76F90EC23F0120069
:104720000001B551E16EB651E26E0001B351D96E90
:10473000B451DA6EE6CFE8FFE8CFDEFF0001B72F15
:104740009AEF23F012000001BF6B0301AE51B8ECE9
:1047500024F00001D8B0BF810301AF51B8EC24F0C0
:104760000001D8B0BF830301B051B8EC24F00001C0
:10477000D8B0BF850301B151B8EC24F00001D8B026
:10478000BF870301B651B8EC24F00001D8B0BF894F
:104790000301BB51B8EC24F00001D8B0BF8B03017A
:1047A000BC51B8EC24F00001D8B0BF8D1200C00E8F
:1047B00058EC0DF00301AE51B8EC24F00001E86AAA
:1047C000E880BF15D8A0F3EF23F0D8A404EF24F0BD
:1047D000BF71000EF86E650EF76E940EF66EBEECAD
:1047E0000DF0B5EF24F0D8B004EF24F0D8B404EF06
:1047F00024F0BF71000EF86E650EF76E820EF66E35
:10480000BEEC0DF0B5EF24F00301AF51B8EC24F08D
:104810000001E86AE882BF15D8A01DEF24F0D8A4F3
:104820002EEF24F0BF73000EF86E650EF76EB80E13
:10483000F66EBEEC0DF0B5EF24F0D8B02EEF24F0FC
:10484000D8B42EEF24F0BF73000EF86E650EF76E2D
:10485000A60EF66EBEEC0DF0B5EF24F00301B051DC
:10486000B8EC24F00001E86AE884BF15D8A047EF4F
:1048700024F0D8A458EF24F0BF75000EF86E650E32
:10488000F76EDC0EF66EBEEC0DF0B5EF24F0D8B08E
:1048900058EF24F0D8B458EF24F0BF75000EF86E2E
:1048A000650EF76ECA0EF66EBEEC0DF0B5EF24F095
:1048B0000301B151B8EC24F00001D8A06EEF24F050
:1048C000BFB76FEF24F0BF77000EF86E660EF76E7D
:1048D000240EF66EBEEC0DF0B5EF24F0BF97030189
:1048E000B651B8EC24F00001D8A085EF24F0BFB990
:1048F00086EF24F0BF79000EF86E660EF76E120E8A
:10490000F66EBEEC0DF0B5EF24F0BF990301BB517C
:10491000B8EC24F00001D8A09CEF24F0BFBB9DEFC1
:1049200024F0BF7B000EF86E650EF76EEE0EF66E8D
:10493000BEEC0DF0B5EF24F0BF9B0301BC51B8EC09
:1049400024F00001D8A0B3EF24F0BFBDB4EF24F0F1
:10495000BF7D000EF86E660EF76E000EF66EBEECB2
:104960000DF0B5EF24F0BF9D1200500EA36F1200A2
:10497000E8AAE4EF24F0E8A8E4EF24F00A6E070BBD
:10498000C90FE16E030EE26EE65000010D6E0E6A75
:10499000E8BE0E6800010A0E0F6E000E106EA0EC4D
:1049A00010F00A50070BE846340FE16E010EE25298
:1049B000E650E6CF0BF00001135E0B501458E836BA
:1049C0000ABE1200D8701200D890E8BA1200D8803F
:1049D000E8B8120000011F6E206AE8BC2080070BB7
:1049E000E82AD8802036E82EF2EF24F030501FB6A7
:1049F00033502014D8802062D8901FBED870120087
:104A0000040ED56E1200D59E1200D89087B2120007
:104A1000D880D5BE1200C3C00DF0C4C00EF0000196
:104A20003C0E0F6E000E106EB1EC10F013C00DF0C6
:104A300014C00EF00001240E0F6EF40E106EB1ECD7
:104A400010F0C1C017F0C2C018F00001000E196EBE
:104A5000000E1A6E87EC13F0A5C317F0A6C318F06A
:104A60000001186AA4EC11F0C00E58EC0DF0000E15
:104A7000F86E640EF76EF20EF66EBEEC0DF0CB0E15
:104A800058EC0DF024EC0EF0A5C313F0A6C314F0FF
:104A9000146AC00E58EC0DF020EC0EF00001000E70
:104AA000C36F000EC46FD88012000001020E366280
:104AB0001200000133A01200FC6A0AEF05F06EEC50
:104AC00025F0D8A01200FC6AE2EC1EF000C2E8FF5C
:104AD00073EC1FF0A0EC1FF00AEF05F0000130B6F8
:104AE00078EF25F032A678EF25F03296D8801200C4
:104AF000D89012000001660E0E6E480E0D6EB9ECD5
:104B000025F09DEC0DF00001115080EC01F0120039
:104B10001EC10DF01FC10EF09DEC0DF01200000142
:104B2000EF51D8B4120036EC18F00001000E736F8C
:104B3000000E746F0001000E756F000E766FECECC6
:104B400019F07FEC19F0B9EC1BF04BEC1CF04AECBF
:104B50001AF0D9EC21F0F8EC1FF0E1EC21F030EC88
:104B60001BF02CEC1DF097EC0EF012000001EF6929
:104B7000120055EC25F00001CD6BDB6BEA6BEB6BA3
:104B8000C00E58EC0DF00DC0F6FF0EC0F7FFF86A2E
:104B90000DC00FF00EC010F0BEEC0DF0FA0E9DEC43
:104BA0000BF0BBEC29F0D8A4DCEF25F0110E0D269C
:104BB000D8B00E2AE3EF25F0D8A0F0EF25F0130EC1
:104BC0000D26D8B00E2A0DC0F6FF0EC0F7FFF86A0A
:104BD0000900F5CF0DF00900F5CF0EF0C0EF25F07C
:104BE0005FEC25F0BCEC1EF0D8A0C0EF25F0150E50
:104BF0000D26D8B00E2A0DC0F6FF0EC0F7FFF86ADA
:104C00000900F5CF11F00900F5CF12F00FC00DF03B
:104C100010C00EF00900F5CF0FF00900F5CF10F02D
:104C20000900F5CFCEF00900F5CFCFF00001B96B48
:104C3000BA6BBB697F0EE8CFBCF012AC2CEF26F04C
:104C40000900F5CFB9F00900F5CFBAF00900F5CFAA
:104C5000BBF00900F5CFBCF012A435EF26F0090037
:104C6000F5CFEAF00900F5CFEBF012A23EEF26F007
:104C70000900F5CFECF00900F5CFEDF012AE43EFEF
:104C800026F09DEC0DF012A648EF26F0B3EC0DF0E7
:104C900012A212000001E86AE8CFFBFFEDC0E8FFB6
:104CA000E8CFFAFFECC0E8FFF96EE8CF0AF00FC0DA
:104CB0001BF010C01CF00FC0F6FF10C0F7FFF86A21
:104CC000150EF626D8B0F72A0900F5CFE8FF0A62DC
:104CD0006BEF26F012000FC0F6FF10C0F7FF110EA9
:104CE000F626D8B0F72A0900F5CF0FF00900F5CF66
:104CF00010F00FC0E8FF1B625BEF26F010C0E8FF6A
:104D00001C625BEF26F01200000110500F10D8B4A7
:104D10001200E86AFB6E1050E8CFFAFF0F50F96EF0
:104D200000010F50E16E1050E26E0001000E1162A2
:104D3000AEEF26F00FC0F6FF10C0F7FFF86A160EB0
:104D4000F626D8B0F72ACEC0E1FFCFC0E2FFE7CF0A
:104D5000E8FF55EC26F028EC29F01200010E116254
:104D6000B5EF26F057EC28F01200020E1162DFEFCB
:104D700026F0000112A0C0EF26F0CE510001B86F5E
:104D8000E6CF0AF0E5CF0BF000010AC011F00BC02E
:104D900012F0129E129CADEC28F000010FC0E1FF52
:104DA00010C0E2FF11C00AF012C00BF00AC0E6FF0B
:104DB000E7CFE8FFC00B0B120BC0E5FF1200030E9C
:104DC0001162F4EF26F0E7CFE8FFE836B0EC27F009
:104DD000000ED8B0E81E0A6E00010FC0E1FF10C03F
:104DE000E2FF0AC0E7FF1200040E116205EF27F090
:104DF000E7CFE8FF6FEC29F00A6E00010FC0E1FF7A
:104E000010C0E2FF0AC0E7FF1200050E116217EFA3
:104E100027F0E7CFE8FF05EC28F0E8CF0AF0000123
:104E20000FC0E1FF10C0E2FF0AC0E7FF1200060E4C
:104E300011622DEF27F0E7CF0AF00FC0CEF010C0BF
:104E4000CFF00001FC0E0F6E790E106E0AC0E8FF65
:104E500055EC26F028EC29F01200070E116234EF11
:104E600027F084EC26F01200080E116245EF27F0BF
:104E7000E7CFE8FFFFEC27F0E8CF0AF000010FC012
:104E8000E1FF10C0E2FF0AC0E7FF0A0E116266EF01
:104E900027F0E7CFE8FF0001CE15D890D8B4D8802E
:104EA000B0EC27F00001CEC00AF000010FC0E1FF16
:104EB00010C0E2FFD8B061EF27F00AC0E8FFE712A8
:104EC00012000AC0E8FFE81EE716120012000B6A83
:104ED000D8B00B1EC00E58EC0DF0000EF86E640E2C
:104EE000F76E980EF66EBEEC0DF00BA08CEF27F06F
:104EF000C80E58EC0DF0280E49EC0DF0CC0E58EC15
:104F00000DF0290E49EC0DF0CF0E58EC0DF0200EEF
:104F100049EC0DF09EEF27F0C80E58EC0DF0200E76
:104F200049EC0DF0CC0E58EC0DF0280E49EC0DF0CC
:104F3000CF0E58EC0DF0290E49EC0DF0BBEC29F02A
:104F4000D8B40B6AFF0ED8B00B6E5FEC25F0BCEC4A
:104F50001EF0D8A075EF27F0D8900BB0D8801200C3
:104F60000B6AD8B00B1EC80E58EC0DF0000EF86E90
:104F7000640EF76ED60EF66EBEEC0DF00BA0D5EFFC
:104F800027F0C80E58EC0DF0280E49EC0DF0CC0EB1
:104F900058EC0DF0290E49EC0DF0CF0E58EC0DF049
:104FA000200E49EC0DF0E7EF27F0C80E58EC0DF09D
:104FB000200E49EC0DF0CC0E58EC0DF0280E49EC0B
:104FC0000DF0CF0E58EC0DF0290E49EC0DF0BBECB6
:104FD00029F0D8B40B6AFF0ED8B00B6E5FEC25F049
:104FE000BCEC1EF0D8A0BEEF27F0D8900BB0D88054
:104FF00012000001BB65BB51B961B951120000013B
:10500000E86900019D6F09EF28F000019D6F000124
:10501000E86BC80E9DEC0BF09DC0E8FF0001136E1D
:10502000146A156A166A4EEC0EF00001E86727EF65
:1050300028F0CD0E58EC0DF0275049EC0DF028501B
:1050400049EC0DF0295049EC0DF036EF28F0CC0E6C
:1050500058EC0DF0275049EC0DF0285049EC0DF0BC
:105060002E0E49EC0DF0295049EC0DF0E1EC29F041
:105070000001D8A442EF28F09D2BBB519D619D6F8C
:105080004DEF28F0D8A04DEF28F09D51B9614DEFBC
:1050900028F09D07B9519D659D6F5FEC25F0BCEC34
:1050A0001EF0D8A009EF28F000019D5112008FECEE
:1050B00025F0FA0E9DEC0BF0E7CFE8FFE7BEE81E07
:1050C000E7BEE82A0001136E146A156A166A4EECF0
:1050D0000EF0CB0E58EC0DF0200EE7BE2D0E49EC75
:1050E0000DF0275049EC0DF0285049EC0DF02950F7
:1050F00049EC0DF0250E49EC0DF0E1EC29F0000132
:10510000D8A486EF28F0E72A8AEF28F0D8A08AEF03
:1051100028F0E7065FEC25F0BCEC1EF0D8A057EFB6
:1051200028F00001EF6B120000011150BB5D12501E
:10513000BC59D8B0A1EF28F0BB51116EBC51126E12
:105140001200B951115CBA511258D8B0ACEF28F026
:10515000B951116EBA51126E120094EC28F0000190
:10516000BE6B0001B851E812D8B4BFEF28F0B851B7
:10517000E16E000EE26E11C0E6FF12C0E7FF320ED4
:105180009DEC0BF011C013F012C014F0D890143243
:105190001332156A166A4EEC0EF0C90E58EC0DF07B
:1051A000265049EC0DF02E0E49EC0DF0275049EC3D
:1051B0000DF0285049EC0DF0295049EC0DF06D0E22
:1051C00049EC0DF0530E49EC0DF0E1EC29F0000133
:1051D000D8A4FAEF28F0112AD8B4122A112AD8B488
:1051E000122ABC511262ADEF28F0BB511160116E52
:1051F000ADEF28F0D8A00CEF29F01106D8A01206C8
:105200001106D8A01206BA511262ADEF28F0B951BA
:105210001164116EADEF28F0000133A2BE6933BCFA
:1052200017EF29F00001A00E116E0F0E126E000193
:1052300033BE20EF29F00001D00E116E070E126E62
:105240005FEC25F0BCEC1EF0D8A0B1EF28F0120006
:10525000C00E58EC0DF00FC0F6FF10C0F7FFBEEC0B
:105260000DF0FA0E9DEC0BF0E1EC29F0D8A43FEF25
:1052700029F0110E0F26D8B0102A46EF29F0D8A039
:1052800053EF29F0130E0F26D8B0102A0FC0F6FFE7
:1052900010C0F7FFF86A0900F5CF0FF00900F5CF4D
:1052A00010F028EF29F05FEC25F0BCEC1EF0D8A040
:1052B00028EF29F0150E0F26D8B0102A0FC0F6FFE0
:1052C00010C0F7FFF86A0900F5CF0AF00900F550A1
:1052D000CEC0E1FFCFC0E2FF0AC0E7FF12000F0B14
:1052E000E8B6080B0C0DF3CF13F0F4CF14F0000167
:1052F000300E1326700E1422CC0E58EC0DF013C095
:10530000F6FF14C0F7FFBEEC0DF0FA0E9DEC0BF0AB
:10531000E1EC29F0D8A493EF29F0050E1326D8B0BC
:10532000142A9AEF29F0D8A0A7EF29F0070E132628
:10533000D8B0142A13C0F6FF14C0F7FFF86A0900AA
:10534000F5CF13F00900F5CF14F07CEF29F05FECF6
:1053500025F0BCEC1EF0D8A07CEF29F0090E132636
:10536000D8B0142A13C0F6FF14C0F7FFF86A09007A
:10537000F5CFE8FF1200040E93EC08F0040E93EC56
:1053800008F0C5C0E8FFC35EC6C0E8FFC45AC4BE8B
:10539000D4EF29F0640EC35E000EC45AC4BEDEEF23
:1053A00029F0D884D8901200640EC326000EC422BF
:1053B000C4AEDEEF29F0D894D8801200D894D890EB
:1053C0001200050E93EC08F0050E93EC08F0C7C030
:1053D000E8FFC35EC8C0E8FFC45AC4BEFAEF29F0B4
:1053E000640EC35E000EC45AC4BE04EF2AF0D88413
:1053F000D8901200640EC326000EC422C4AE04EF7F
:105400002AF0D894D8801200D894D890120001EFD6
:105410002BF0800E58EC0DF0000EF86E660EF76E55
:10542000600EF66EBEEC0DF04EEF2BF00101780E23
:105430001E6F660E1F6F0101640E206F680E216FD4
:1054400091EC2AF0E2EC1EF000C2E8FF73EC1FF0D2
:10545000A0EC1FF012000101900E1E6F660E1F6F70
:105460000101560E206F690E216F91EC2AF022EF98
:105470002AF00101A80E1E6F660E1F6F0101400E7B
:10548000206F6B0E216F91EC2AF022EF2AF00101C0
:10549000C00E1E6F660E1F6F01019C0E206F700EF6
:1054A000216F91EC2AF022EF2AF00101D80E1E6F35
:1054B000660E1F6F01016A0E206F770E216F91EC4F
:1054C0002AF022EF2AF00001DD6B0101F00E1E6FC1
:1054D000660E1F6F0101740E206F7D0E216F91EC1F
:1054E0002AF022EF2AF00101080E1E6F670E1F6FCF
:1054F0000101BC0E206F810E216F91EC2AF022EF8A
:105500002AF00101200E1E6F670E1F6F0101360E7B
:10551000206F850E216F91EC2AF022EF2AF07FEFA9
:1055200031F088EC25F020C10DF021C10EF0B9EC6E
:1055300025F00DC020F10EC021F1EAC026F1EBC02C
:1055400027F100011150090AD8A4F3EF2AF00FC087
:105550000DF010C00EF0B9EC25F00DC022F10EC018
:1055600023F1EAC028F1EBC029F100011150090A2A
:10557000D8A4DBEF2AF00FC00DF010C00EF0B9EC8C
:1055800025F00DC024F10EC025F1EAC02AF1EBC0D0
:105590002BF190EC26F00001CDB1E1EF2AF02AC109
:1055A0000FF02BC110F084EC26F024C10DF025C1C2
:1055B0000EF0BFEF2AF090EC26F00001CDB1F8EF2D
:1055C0002AF028C10FF029C110F084EC26F020C188
:1055D0000DF021C10EF09DEC0DF022C10DF023C1A4
:1055E0000EF0ABEF2AF090EC26F00001CDB11200E6
:1055F00026C10FF027C110F084EC26F091EF2AF0BD
:10560000120000C2E8FFF3EC1EF0800E58EC0DF023
:10561000000EF86E640EF76E620EF66EBEEC0DF0C4
:105620008D0E58EC0DF0020100510001136E146A4A
:10563000156A166A1CEC0EF0CDEC05F0FA0E9DEC26
:105640000BF0E1EC29F0D8A430EF2BF0610E020151
:10565000002B006301EF2BF0010E006F01EF2BF028
:10566000D8A03EEF2BF002010007000E006301EF0F
:105670002BF0600E0201006F01EF2BF0BCEC1EF06E
:10568000D8A021EF2BF000C2E8FF48EC1FF000C2C9
:10569000E8FFE8CFA5F0E2EC1EF01200C00E58ECD7
:1056A0000DF0CDEC05F0000EE16E030EE26E960EED
:1056B0009DEC0BF0C00EE12458EC0DF0E75049ECE6
:1056C0000DF0C00EE12458EC0DF00E0E58EC0DF06C
:1056D000BBEC29F0D8A476EF2BF0E12A0F0EE164A1
:1056E00057EF2BF0000EE16E57EF2BF0D8A082EFB2
:1056F0002BF0E106FF0EE16257EF2BF00F0EE16E8B
:1057000057EF2BF0E1EC29F0D8A48DEF2BF0E72A2E
:105710007A0EE760E76E57EF2BF0D8A096EF2BF0EC
:10572000E706200EE764E76E57EF2BF0BCEC1EF0A7
:10573000D8A068EF2BF00C0E58EC0DF000C2E8FF7B
:1057400073EC1FF012000DC02CF10EC02DF10FC034
:105750002EF110C02FF1D0C00DF0D1C00EF000011D
:10576000E80E0F6E030E106EA0EC10F00001000E9C
:10577000176E010E186EA4EC11F013C0D0F014C017
:10578000D1F00001D251D027D351D123D4C00DF094
:10579000D5C00EF00001E80E0F6E030E106EA0ECE7
:1057A00010F00001000E176E010E186EA4EC11F03F
:1057B000D2C0D4F0D3C0D5F01350D45F1450D55B11
:1057C0002CC10DF02DC10EF02EC10FF02FC110F025
:1057D00012000DC02CF10EC02DF10FC02EF110C023
:1057E0002FF1D0C00DF0D1C00EF0D2510D5ED351CB
:1057F0000E5A0001000E0F6E010E106EA0EC10F09C
:105800000001E80E176E030E186EA4EC11F013C021
:10581000D0F014C0D1F0D2C00DF0D3C00EF0D451EE
:105820000D5ED5510E5A0001000E0F6E010E106E66
:10583000A0EC10F00001E80E176E030E186EA4EC39
:1058400011F013C0D4F014C0D5F02CC10DF02DC14F
:105850000EF02EC10FF02FC110F012000DC02CF170
:105860000EC02DF10FC02EF110C02FF10001BEA10E
:1058700066EF2CF0000E00010F18D8B451EF2CF099
:10588000D2C013F0D3C014F0D89013361436D051D0
:10589000135ED151145A13C0D4F014C0D5F066EF82
:1058A0002CF0000E00010F18D8B466EF2CF0D2C017
:1058B00013F0D3C014F0D89013361436D451135EBD
:1058C000D551145A13C0D0F014C0D1F02CC10DF032
:1058D0002DC10EF02EC10FF02FC110F012003C0EA2
:1058E0000001B86F0001110EB56F030EB66F000115
:1058F000D00EB36F000EB46F0B0EB76F90EC23F0A9
:10590000DB6BA3EC2BF012003A0E0001B86F000124
:105910001C0EB56F030EB66F77EF2CF03E0E000134
:10592000B86F0001270EB56F030EB66F77EF2CF03E
:105930000001110EB36F030EB46F2EEC2CF0DBA13F
:10594000D86BE9EC2BF00001D00EB56F000EB66FEE
:105950000B0EB76F90EC23F00001B86B1200000142
:105960001C0EB36F030EB46F9DEF2CF00001270ED9
:10597000B36F030EB46F9DEF2CF00DC02CF10EC071
:105980002DF10FC02EF110C02FF1030132C30DF025
:1059900033C30EF00001E80E0F6E030E106EA0EC84
:1059A00010F00001000E176E010E186EA4EC11F03D
:1059B00013C032F314C033F303013451322735518D
:1059C00033232CC10DF02DC10EF02EC10FF02FC1CD
:1059D00010F012000DC02CF10EC02DF10FC02EF1F1
:1059E00010C02FF132C30DF033C30EF00301345158
:1059F00000010D5E0301355100010E5A0001000E39
:105A00000F6E010E106EA0EC10F00001E80E176E84
:105A1000030E186EA4EC11F013C032F314C033F36C
:105A20002CC10DF02DC10EF02EC10FF02FC110F0C2
:105A30000001B86B1200420E0001B86F00013A0E6F
:105A4000B56F030EB66F0001D00EB36F000EB46FCA
:105A5000040EB76F90EC23F0A3EC2BF01200440E71
:105A60000001B86F00013E0EB56F030EB66F23EF55
:105A70002DF0460E0001B86F0001420EB56F030E07
:105A8000B66F23EF2DF000013A0EB36F030EB46F23
:105A9000E9EC2BF00001D00EB56F000EB66F040ECE
:105AA000B76F90EC23F00001B86B120000013E0EBE
:105AB000B36F030EB46F48EF2DF00001420EB36FC9
:105AC000030EB46F48EF2DF00001460EB56F030EC4
:105AD000B66F0001D00EB36F000EB46F060EB76F35
