:020000040000FA
:040200006BEF03F0AD
:040208000EEF01F004
:080218002DEF01F0D8CF01F039
:10022000E0CF02F0006EF3CF03F0F4CF04F0F0ACB7
:100230001DEF01F0F0B064EC0BF0A2A023EF01F091
:10024000A1B016EC09F003C0F3FF04C0F4FF0050A6
:1002500002C0E0FF01C0D8FF1000D8CF06F0E8CF01
:1002600005F0E0CF07F0F3CF08F0F4CF09F0F0BCD1
:100270003DEF01F0F0B064EC0BF0A2B043EF01F001
:10028000A1B016EC09F0A2B04CEF01F0AECFE8FF40
:100290006ECFE8FF52EF01F09EBAD8EC0EF0A4BA90
:1002A00043EC0FF008C0F3FF09C0F4FF07C0E0FF04
:0A02B00005C0E8FF06C0D8FF1000EB
:10030000F95000011150F926ACEF29F0AEEF29F0B9
:10031000BBEF29F0D0EF29F0DEEF29F0ECEF29F068
:10032000FAEF29F008EF2AF018EF2AF026EF2AF06A
:1003300034EF2AF012000009D8A4A5EF01F0000163
:10034000000E0F6E000E106E1200E806030B0A0D71
:10035000F9CFE8FFF350F92683C00FF084C010F006
:10036000120085C00FF086C010F0120087C00FF099
:1003700088C010F0120089C00FF08AC010F012007F
:10040000EFCFE8FFE806070B0A0DF9CFE8FFF3503E
:10041000F9263CC04EF03DC04FF012003AC04EF0FD
:100420003BC04FF012003EC04EF03FC04FF01200F4
:1004300040C04EF041C04FF0120042C04EF043C0E9
:100440004FF0120044C04EF045C04FF0120046C0BD
:100450004EF047C04FF0120048C04EF049C04FF078
:1004600012000F0B060DF9CFE8FFF350F926BBC2BF
:10047000E8FF1200BCC2E8FF1200BDC2E8FF120094
:10048000BEC2E8FF1200BFC2E8FF1200C0C2E8FF10
:100490001200C1C2E8FF1200C2C2E8FF1200C3C2CC
:1004A000E8FF1200C4C2E8FF1200C5C2E8FF120054
:1004B000C6C2E8FF1200C7C2E8FF1200C8C2E8FFC8
:0E04C0001200C9C2E8FF1200CAC2E8FF120013
:100500000001E806070B0A0DF9CFE8FFF350F926C2
:100510008D510D6E8E510E6E12008F510D6E9051D9
:100520000E6E120091510D6E92510E6E120093518B
:100530000D6E94510E6E120095510D6E96510E6E09
:10054000120097510D6E98510E6E120099510D6E5A
:100550009A510E6E12009B510D6E9C510E6E120040
:100600000001E8BE33EF03F0E806070B0A0DF9CF4F
:10061000E8FFF350F9260D5073270E507423120093
:100620000D5075270E50762312000D5077270E506F
:10063000782312000D5079270E507A2312000D50A6
:100640007B270E507C2312000D507D270E507E23F9
:1006500012000D507F270E50802312000D5081276D
:100660000E5082231200E806070B0A0DF9CFE8FFAF
:10067000F350F9260D50736F0E50746F12000D5029
:10068000756F0E50766F12000D50776F0E50786FA9
:1006900012000D50796F0E507A6F12000D507B6F63
:1006A0000E507C6F12000D507D6F0E507E6F120049
:1006B0000D507F6F0E50806F12000D50816F0E50E5
:1006C000826F1200F2AE12000001010EA16FA1674D
:1006D00067EF03F0120092988088939C819C000140
:1006E0005B6A5C6A640E9BEC0BF092988088000158
:1006F000546A640E9BEC0BF00F018350306E316E28
:10070000326E0F018450336E346E356E0F01999046
:10071000878094969394829681940001000E176EC0
:10072000000E186E0001000E196E000E1A6E000108
:10073000000E1B6E000E1C6E0001000E1D6E000EE2
:100740001E6E0001000E136E000E146E0001000EEE
:10075000156E000E166E0001000EAB6F000EAC6F32
:100760000001000EAD6F000EAE6F0001000EAF6F06
:10077000000EB06F0001000EB16F000EB26F0001ED
:100780005E6A5F6A606BA16BA26BA36BE769E96B42
:100790000201BA6B0101116B6EEC31F002010051E4
:1007A0000001A56F040E91EC08F0040E91EC08F026
:1007B0000001C350C56FC450C66F050E91EC08F020
:1007C000050E91EC08F00001C350C76FC450C86F0C
:1007D000000EE8CF0DF0E86AE8CF0EF0A6EC0BF0C3
:1007E000E8CF00F5010EE8CF0DF0E86AE8CF0EF093
:1007F000A6EC0BF0E8CF01F5BEEC0CF0FA0E9BEC8A
:100800000BF0FA0E9BEC0BF0FA0E9BEC0BF0FA0ED1
:100810009BEC0BF0C6EC08F0A5EC24F071EC0EF0AC
:1008200085EC0EF0F28EF28CD08E0F01D89083B64C
:10083000D880D8B021EF04F00A0E9BEC0BF00F012A
:10084000D89083B6D880D8B037EF04F00F01D89095
:1008500084B2D880D8B032EF04F00A0E9BEC0BF0D3
:100860000F01D89084B2D880D8A059EF04F060EC82
:100870001EF00201A50EA76344EF04F0E70EA86383
:1008800044EF04F048EF04F06EEC31F0C7EC0BF0ED
:1008900000C2E8FFDBEC1EF00301AD510201A56FC1
:1008A000E7EC0AF062EC0AF00101F20E066F9FEC31
:1008B0000AF00F01D89084B2D880D8A059EF04F084
:1008C0000A0E9BEC0BF00F01D89084B2D880D8A010
:1008D00059EF04F00F01D89084B4D880D8B076EFE7
:1008E00004F00A0E9BEC0BF00F01D89084B4D88072
:1008F000D8B08CEF04F00F01D89083B6D880D8B070
:1009000087EF04F00A0E9BEC0BF00F01D89083B632
:10091000D880D8A0B9EF07F00201A0C20AF0020106
:10092000FF0E0AB0A56FA561F9EF04F00301A6A1BF
:10093000D9EF04F00F0183BED9EF04F0800E0DEC67
:100940000DF0000EF86E640EF76E440EF66E53EC6A
:100950000DF0C00E0DEC0DF0000EF86E630EF76E8C
:10096000F20EF66E53EC0DF00F01D89084B4D880DF
:10097000D8B0C0EF04F00A0E9BEC0BF00F01D8903A
:1009800084B4D880D8B0B4EF04F00F01D89084B408
:10099000D880D8A0C5EF04F00A0E9BEC0BF00F0135
:1009A000D89084B4D880D8A0C5EF04F0C80E9BECD2
:1009B0000BF00201D1B1E0EF04F0D1A3F9EF04F0A4
:1009C000800E00019D6F85EC30F0D8900CEC27F084
:1009D000D8B0F0EF04F00201FF0EA56FF9EF04F0BC
:1009E000E7EC0AF062EC0AF09FEC0AF00A0E9BECCE
:1009F0000BF00001010E366EA3C252F0A4C253F0F8
:100A00000201A25100014D6E48EC23F033EC1FF0BF
:100A1000FCAE0EEF05F00F0193948194000133B00A
:100A20002EEF05F0010E366294EF05F00001050E81
:100A3000E8CF5DF0070E35EC0AF0020E366E0001CD
:100A4000A5510201006327EF05F094EF05F0006F58
:100A5000DBEC1EF033EC1FF094EF05F0010E366E68
:100A6000E9EC22F0C9EC17F03EEC07F00201A1A17D
:100A70005FEF05F00301B6515DEC24F0D8A05FEF05
:100A800005F00201B76757EF05F0ABC073F0ACC0DB
:100A900074F0ADC075F0AEC076F0AFC077F0B0C006
:100AA00078F0B1C079F0B2C07AF05FEF05F0F08C69
:100AB000F086A290E868E8CFEEF065EF05F0F09CD4
:100AC000F086A280E86AE8CFEEF00201A0B184EFE0
:100AD00005F0FBEC16F0D8B484EF05F07FEC19F0CC
:100AE00012EC19F04CEC1BF0DEEC1BF0DDEC19F015
:100AF0007EEC21F08BEC1FF086EC21F0C3EC1AF0B9
:100B00000001E96708EC10F062EC03F0BFEC1CF0A8
:100B10002AEC0EF00001A26792EF05F00A0EA26F18
:100B2000DCEC05F008EF05F0800E0DEC0DF0000E8A
:100B3000F86E650EF76E760EF66E53EC0DF0C00E85
:100B40000DEC0DF0000EF86E630EF76EF20EF66E01
:100B500053EC0DF04FEC1EF0D8A0B1EF05F01FECF8
:100B600025F0C9EC17F07FEC19F012EC19F04CEC01
:100B70001BF0DEEC1BF0DDEC19F07EEC21F08BECD1
:100B80001FF086EC21F0C3EC1AF0BFEC1CF02AEC4D
:100B90000EF008EF05F00001100E0B6EC00E0DEC0C
:100BA0000DF0000EE16E030EE26EE650FEEC0CF06E
:100BB0000B2ED5EF05F012000001840E0DEC0DF0A8
:100BC000200EFEEC0CF00201520EA5BF200E00011B
:100BD000FEEC0CF00601CE515DEC24F0410ED8A0E5
:100BE000200EFEEC0CF00301B2515DEC24F04D0E32
:100BF000D8B02D0EFEEC0CF00301B3515DEC24F0E7
:100C00004D0ED8B02D0EFEEC0CF00301B4515DEC8E
:100C100024F04D0ED8B02D0EFEEC0CF0200EFEECA4
:100C20000CF0800E0DEC0DF0B9C20DF0BAC20EF052
:100C30000E6A0001640E0F6E000E106E33EC10F0A1
:100C400013C011F014C012F08BC00DF08CC00EF068
:100C500013C20FF014C210F033EC10F01450E8CFB0
:100C600013F01550E8CF14F0156A010111B149EFE6
:100C700006F000011150135C12501458E8AE49EF11
:100C800006F0C90E00015D6E050E35EC0AF001019B
:100C900011690001E1EC0DF0200EE8CF0AF0300EF2
:100CA00025640AC025F02550FEEC0CF02650FEEC21
:100CB0000CF02E0EFEEC0CF02750FEEC0CF00301B5
:100CC000B6515DEC24F0D8A06FEF06F0800E0DEC6D
:100CD0000DF000C513F001C514F0B7EC0DF00201E2
:100CE000B8AF88EF06F0B86B000EE8CF0DF0E86AF9
:100CF000E8CF0EF000C5E8FFB1EC0BF0010EE8CF35
:100D00000DF0E86AE8CF0EF001C5E8FFB1EC0BF09A
:100D100067EC07F0D8B0B2EF06F078EC07F0D8B087
:100D2000B2EF06F0AAEC24F0D8B0B2EF06F07CECFB
:100D300023F00001A351E812D8A4B2EF06F002019B
:100D4000A0A1B0EF06F0C00E0DEC0DF0000EF86E95
:100D5000640EF76E040EF66E53EC0DF0B2EF06F073
:100D6000CBEC05F0000133B4CDEF06F035A4CDEFA8
:100D700006F03594010E5D6E050E35EC0AF00001AB
:100D80005466CCEF06F0542ABEC358F0BFC359F0E6
:100D9000CA6BCB6BCDEF06F05406000154A000EFF8
:100DA00007F0596600EF07F03B0E5A62DFEF06F0DE
:100DB000050E5D6E0A0E35EC0AF000EF07F01E0E10
:100DC0005A62EAEF06F0030E5D6E0A0E35EC0AF089
:100DD00000EF07F00A0E5A62F5EF06F0010E5D6EA5
:100DE0000A0E35EC0AF000EF07F0060E5A6000EF2D
:100DF00007F0010E5D6E0A0E35EC0AF000EF07F009
:100E00007F0E5A6E5650CE6F5750CF6F010E546200
:100E100029EF07F058505910D8B418EF07F0585080
:100E2000CE6F5950CF6F000E0301BD6329EF07F05D
:100E3000020E0301BD5DD8B425EF07F00001CA51D1
:100E4000CE6FCB51CF6F29EF07F0E86A0001CE6F6C
:100E5000CF6F00018B0E0DEC0DF0CF51E8CF13F0EA
:100E6000146A156A166AAFEC0DF03A0EFEEC0CF03F
:100E7000CE51E8CF13F0AFEC0DF012000301C051DA
:100E80005DEC24F0D8A064EF07F00301000EC1650B
:100E900061EF07F000017ABF64EF07F00301C15171
:100EA00000010D6E0E6A00010A0E0F6E000E106E2C
:100EB00033EC10F07951135E7A51145CD8B064EFC2
:100EC00007F00001E76912000001E76B1200D890FB
:100ED0000001CCAF1200C00E0DEC0DF0000EF86E4C
:100EE000640EF76EB00EF66E53EC0DF0D880120063
:100EF0000D0E91EC08F00D0E91EC08F069C00DF0AC
:100F00006AC00EF0A9C20FF0AAC210F033EC10F0C4
:100F100000011450136E1550146E1650156E166A9B
:100F2000E1EC0DF00001255026100F0BD890D8B43D
:100F30001200C00E0DEC0DF0000EF86E640EF76E90
:100F40009E0EF66E53EC0DF0CB0E0DEC0DF0000185
:100F50002550FEEC0CF02650FEEC0CF02E0EFEECB4
:100F60000CF02750FEEC0CF02850FEEC0CF0D88072
:100F700012000F01D89084B4D880D8A0B9EF07F040
:100F80000A0E9BEC0BF00F01D89084B4D880D8A047
:100F9000B9EF07F00F01D89083B6D880D8A0CAEF78
:100FA00007F00A0E9BEC0BF00F01D89083B6D880A7
:100FB000D8A0CAEF07F0800E0DEC0DF00F018350A2
:100FC0006EEC0DF00F0184506EEC0DF0C00E0DECC8
:100FD0000DF00F0186506EEC0DF00F0187506EEC96
:100FE0000DF00F01835082868184E8B08296E8B2CA
:100FF00081948098E8B48088320E9BEC0BF00F014E
:10100000D89084B4D880D8B00BEF08F00A0E9BECCF
:101010000BF00F01D89084B4D880D8B0DBEF07F084
:101020000F01D89084B4D880D8A010EF08F00A0E31
:101030009BEC0BF00F01D89084B4D880D8A010EFAF
:1010400008F0C00E0DEC0DF0000EF86E630EF76E9A
:10105000620EF66E53EC0DF000010D6A800E0DEC81
:101060000DF0000EF86E630EF76E980EF66E53ECF0
:101070000DF0870E0DEC0DF000010D507BEC0DF026
:1010800091EC08F08C0E0DEC0DF00F01C4CFE8FFD1
:101090007BEC0DF00F01C3CFE8FF7BEC0DF0320EBF
:1010A0009BEC0BF00F01D89084B4D880D8B05EEFE1
:1010B00008F00A0E9BEC0BF00F01D89084B4D88096
:1010C000D8B02EEF08F00F01D89084B4D880D8A003
:1010D00063EF08F00A0E9BEC0BF00F01D89084B47C
:1010E000D880D8A063EF08F000010D2A0C0E0D6423
:1010F0002EEF08F0DBEF07F00001136A146A156A9F
:10110000166A0A6E0B6A0A5091EC08F00001C3508F
:101110001326C4501422D8B0152A0B2E83EF08F0E2
:1011200012000A6EA10EC06E000EC16E0AC0E8FF6A
:1011300031EC02F0E8AEC188E89EE844E844C26EB3
:10114000C2800000C282C2B2A3EF08F00001C3CF88
:1011500069F0C4CF6AF00AC0E8FF12000F01C28232
:10116000C2B2B0EF08F00001C3506927C4506A232F
:10117000120091EC08F0AEEC08F0AEEC08F0AEEC2A
:1011800008F000016A336A9F6933120000014C6A5B
:10119000566A576A280EE8CF55F00001900E526E3D
:1011A000010E536E0001900E4E6E010E4F6E506A8E
:1011B000516A100E0001E8CF4DF0386A3A6A3C6A75
:1011C0003E6A406A426A446A466A486A4A6A080E47
:1011D000E8CF39F0E8CF3BF0E8CF3DF0E8CF3FF083
:1011E000E8CF41F0E8CF43F0E8CF45F0E8CF47F053
:1011F000E8CF49F0E8CF4BF0979E858E0001525022
:101200000F01E8CFBBFF010153500F01E8CFBCFF36
:101210000A0E0F01E8CFBAFF0F01A0800F019E90C8
:101220000F01080EE8CFB1FFB18012000001EEA15E
:10123000857E0201BAAF20EF09F0877028EF09F030
:101240000001E5B127EF09F0878028EF09F08790CA
:101250000001BBCFE8FF4E26BCCFE8FF4F224EC0B7
:10126000E8FFE8CFBBFF4FC0E8FFE8CFBCFF0001BD
:10127000E86A4C649FEC09F000014C2A4CC0E8FF7E
:10128000FE0B4D6055EF09F04C6A500EE8CF4EF062
:1012900050C0E8FF4E5EC30EE8CF4FF051C0E8FFEC
:1012A0004F5A506A516A9CEF09F04CA06AEF09F05E
:1012B00052C0E8FFE8CF4EF053C0E8FFE8CF4FF050
:1012C000BAC2E8FF0001E5814C6296EF09F0E591B2
:1012D00096EF09F0120E4C6282EF09F050C0E8FF61
:1012E000E8CF4EF051C0E8FFE8CF4FF04F324E321A
:1012F0004F324E324F324E324F324E320F0E4F1669
:1013000096EF09F0040EE8CFEAFF000EE8CFE9FF00
:101310004CC0E8FFE830E89EE804E92600EC02F063
:1013200052C0E8FF4E5E53C0E8FF4F5A4EC0E8FF80
:1013300050264FC0E8FF51220F01A19012005FEC30
:101340000EF069EC0EF00001010E3662AEEF09F00E
:1013500000018286BDB18296FF0EBD6F87900301AA
:10136000CDBFB6EF09F0859EB7EF09F0858E00017D
:10137000552EFDEF09F0A8EC24F0000154A0EDEF8C
:1013800009F00001FF0EE763EDEF09F058C0E8FF38
:101390005910D8B4E5EF09F05866D2EF09F03C0EC9
:1013A000586E5906580658505A6E0301E86ABD1126
:1013B000D8B4E5EF09F0000158505910D8B4E5EF62
:1013C00009F0CA6BCB6BEDEF09F00001CA2B3C0EA4
:1013D000CA63EDEF09F0CA6BCB2B280EE8CF55F0AE
:1013E000562A3C0E5662FDEF09F0566A572A05014F
:1013F000002BD8B4012B0201B8690201A1A106EFAC
:101400000AF0530E91EC0EF00001A86B000183CF9F
:10141000E8FF311AD8A4306E316E30C0E8FF3212C6
:10142000000184CFE8FF341AD8A4336E346E33C081
:10143000E8FF351200015E665E065F665F06606764
:101440006007A167A107A267A207A367A3075C665D
:101450002BEF0AF012005C2E120080785D4E120015
:101460005BC0E8FFE8CF5CF01200E8CF5BF0E8CFAC
:101470005CF08098120000010ABE42EF0AF0819EE3
:1014800043EF0AF0818E828A829A0A460B2E3BEF46
:101490000AF012000201AD510A6E080E0B6E3BEC11
:1014A0000AF00201AC510A6E080E0B6E3BEC0AF01A
:1014B0000201AB510A6E080E0B6E3BEC0AF08686F9
:1014C000869612000BC113F00CC114F00DC115F07B
:1014D00009C117F00AC118F037EC11F00201A5514B
:1014E00001010F03F35000011326D8B0142AD8B01D
:1014F000152A0101006B016B026B00011350E846D5
:10150000E846E880E8921F0B13B6E88E0101006FF1
:1015100000011336143615361336143615361336C5
:101520001436153613361436153614500101016F72
:10153000000115501F0B01011009026F120062EC2F
:101540000AF0010108510A6E080E0B6E3BEC0AF01E
:10155000010107510A6E080E0B6E3BEC0AF0010107
:1015600006510A6E080E0B6E3BEC0AF086868696D4
:10157000010105510A6E080E0B6E3BEC0AF00101E9
:1015800004510A6E080E0B6E3BEC0AF00101035188
:101590000A6E080E0B6E3BEC0AF0868686960101F9
:1015A00002510A6E080E0B6E3BEC0AF0010101516C
:1015B0000A6E080E0B6E3BEC0AF0010100510A6E38
:1015C000080E0B6E3BEC0AF08686869612000F0121
:1015D000939E949A939C819C819E829A98968696DB
:1015E0000201D1A116EF0BF0D1B316EF0BF004C23C
:1015F00006F105C207F106C208F101C203F102C2F9
:1016000004F103C205F10101700E0B6FC60E0C6FE1
:10161000000E0D6F0101140E096F000E0A6F01011B
:101620000E6B0A0E106F010E0F6F12000201D1B186
:101630003CEF0BF0D1A33CEF0BF00AC206F10BC25A
:1016400007F10CC208F107C203F108C204F109C294
:1016500005F101016C0E0B6FCF0E0C6F000E0D6FBC
:101660000101640E096F000E0A6F01010E6B080E76
:10167000106F010E0F6F12000201D1B163EF0BF07A
:10168000D1B363EF0BF010C206F111C207F112C221
:1016900008F10DC203F10EC204F10FC205F1010100
:1016A0004A0E0B6F190E0C6F010E0D6F01010A0E21
:1016B000096F000E0A6F01010B0E0E6F320E106FD4
:1016C000020E0F6F1200120087B282EF0BF0D5AE40
:1016D00074EF0BF0D6CFC1F0D7CFC2F00001C32B0F
:1016E000D8B4C42BF09012000001C351C411F09083
:1016F000D8A41200E86AE8CFD7FFE8CFD6FFD58E8E
:10170000F0901200F17AF0AC94EF0BF00301CDA150
:1017100090EF0BF0F1AA859EF1BA858E94EF0BF055
:10172000F1AA858EF1BA859EF09012000000E82E95
:1017300096EF0BF012000A6EFA0E96EC0BF0FA0E12
:1017400096EC0BF00A2E9CEF0BF012000EC0E8FF97
:10175000AA6E0DC0E8FFA96EA69EA69CA680A85002
:101760001200A86E0EC0E8FFAA6E0DC0E8FFA96EB9
:10177000A69EA69CA684F29E550EA76EAA0EA76EE4
:10178000A682F28EA1A8C2EF0BF0A1981200800EE3
:101790000DEC0DF0000EF86E640EF76E560EF66E40
:1017A00053EC0DF0C00E0DEC0DF0000EF86E630E54
:1017B000F76EE00EF66E53EC0DF055EC27F0D8A066
:1017C00007EF0CF0C00E0DEC0DF0000EF86E640E7D
:1017D000F76E680EF66E53EC0DF06EEC31F075ECB2
:1017E0001EF00001600E9E6F00C2E8FF06EC1FF0C5
:1017F0000201002B0301072B3A0E076303EF0CF0E5
:10180000062B300E076F00019E2FF4EF0BF060ECFB
:101810001EF000C2E8FFDBEC1EF0120000011550C4
:10182000F86E1450F76E1350F66E00010E50E26E13
:101830000D50E16E0900F550E66E0A060900F550FC
:10184000E66E0A2E1AEF0CF0120000011550F86E29
:101850001450F76E1350F66EA68EA69CA684A6882A
:10186000F29E550EA76EAA0EA76EA6820000F28EFB
:101870000001400E1326000E142215220A2E25EF19
:101880000CF0120062EC03F000011550F86E1450D9
:10189000F76E1350F66EA68EA69CA684A688F29EBE
:1018A000550EA76EAA0EA76EA682F28E0A00000140
:1018B0000E50E26E0D50E16E400E0B6EE6CFE8FF6B
:1018C000F56E0F000B2EFAD7A68EA69CA684F29E6C
:1018D000550EA76EAA0EA76EA682F28EA6940001E0
:1018E000400E1326000E142215220001400E0D2674
:1018F000000E0E220A2E42EF0CF0120000011550CD
:10190000F86E1450F76E1350F66EA68EA69CA68441
:10191000A688F29E550EA76EAA0EA76EA68200009C
:10192000F28E0A00080E0B6E00010E50E26E0D5092
:10193000E16E080E0C6EE6CFE8FFF56E0F000C2E80
:10194000FAD7A68EA69CA684F29E550EA76EAA0E66
:10195000A76EA6820000F28E0B2EEBD7A694000194
:10196000400E1326000E142215220001400E0D26F3
:10197000000E0E220A2E7EEF0CF012000F019A6A62
:10198000886A9396939A93988186818A8188140EA7
:101990009BEC0BF0380E0DEC0DF0050E9BEC0BF0F4
:1019A000380E0DEC0DF0010E9BEC0BF0380E0DEC2B
:1019B0000DF0010E9BEC0BF0380E0DEC0DF0060E49
:1019C0000DEC0DF00E0E0DEC0DF0010E0DEC0DF00A
:1019D000800E0DEC0DF0800E0DEC0DF0630EF76E29
:1019E000740EF66E53EC0DF0C00E0DEC0DF0630EA0
:1019F000F76E860EF66E53EC0DF012001CEC0DF037
:101A000030EC0DF0818A8198000000008186000092
:101A1000000081960000000012001CEC0DF030EC7C
:101A20000DF0819A8198000000008186000000007E
:101A3000819600000000120023EC0DF0D8B01CEFDE
:101A40000DF09A6A12009A688188819A000000005D
:101A5000818600000000D89088BED8808196120050
:101A6000886E1200800E0DEC0DF00DC0F6FF0EC05A
:101A7000F7FFF86A53EC0DF01200C00E0DEC0DF0FC
:101A80000DC0F6FF0EC0F7FFF86A53EC0DF0120020
:101A9000C00E0DEC0DF0CEC0F6FFCFC0F7FFF86A18
:101AA00053EC0DF01200100E0A6E0900F5CFE8FF9E
:101AB000E812D8B46DEF0DF0FEEC0CF00A4E6DEFAD
:101AC0000DF00900F5CFE8FFE812D8B46DEF0DF086
:101AD000FEEC0CF00A2E55EF0DF012000A6E080E07
:101AE0000B6E300E0ABE310EFEEC0CF00A360B2ED9
:101AF00071EF0DF012000A6E3A0E0B6E0AC0E8FF8D
:101B0000F00BE842E842E842E84230090B64070F74
:101B1000FEEC0CF00AC0E8FF0F0B30090B64070F56
:101B2000FEEC0CF00AC0E8FF1200E1EC0DF02550CD
:101B3000FEEC0CF02650FEEC0CF02750FEEC0CF006
:101B40002850FEEC0CF02950FEEC0CF01200E1ECF9
:101B50000DF09AEF0DF0E1EC0DF09DEF0DF0E1ECE2
:101B60000DF0A0EF0DF0E1EC0DF0A3EF0DF0E1ECC6
:101B70000DF0CBEC0DF02550FEEC0CF02650FEECF9
:101B80000CF02750FEEC0CF02850FEEC0CF0295025
:101B9000FEEC0CF012000001300E25621200200E47
:101BA000256E300E26621200200E266E300E276241
:101BB0001200200E276E300E28621200200E286EB2
:101BC00012000001196A1A6A100E176E270E186E9D
:101BD00037EC11F0300E1310256E1BC013F01CC033
:101BE00014F01DC015F01EC016F0196A1A6AE80E2E
:101BF000176E030E186E37EC11F0300E1310266EB0
:101C00001BC013F01CC014F01DC015F01EC016F050
:101C1000196A1A6A640E176E000E186E37EC11F00E
:101C2000300E1310276E1BC013F01CC014F01DC023
:101C300015F01EC016F0196A1A6A0A0E176E000E09
:101C4000186E37EC11F0300E1310286E300E1B108A
:101C5000296E12000001310E376233EF0EF060EC96
:101C60001EF05DEF0EF0320E37623DEF0EF000C257
:101C7000E8FFDBEC1EF05DEF0EF0330E376245EF50
:101C80000EF075EC1EF05DEF0EF0340E37624DEF86
:101C90000EF000C2E8FF06EC1FF0350E37625DEF74
:101CA0000EF00001FF0E0D6E030E0E6EE8CF0EF06B
:101CB000FF0EB1EC0BF05DEF0EF0376A12000F0172
:101CC000ABA21200AB98AB880F01AE500001616B64
:101CD00012000F016BA212006B986B880F016E50FF
:101CE00012000C0EE8CFAFFF220EE8CFACFF900E33
:101CF000E8CFABFF0001616B9F9A9D8A1200ACA2F6
:101D00007FEF0EF0E8CFADFF1200000EE8CF6FFFBF
:101D1000220EE8CF6CFF900EE8CF6BFFA59AA38A46
:101D200012006CA291EF0EF0E8CF6DFF1200E1CF30
:101D300021F0E2CF22F0000165C0E1FF000164C0A4
:101D4000E2FF686BACA2A2EF0EF0E6CFE8FF000165
:101D50006827E8CFADFF0001662FA2EF0EF021C08B
:101D6000E1FF22C0E2FF1200E1CF21F0E2CF22F03A
:101D7000000165C0E1FF000164C0E2FF686B000183
:101D8000050E5E6EE86A5E64D3EF0EF09EAAC3EFA6
:101D90000EF0AECFE8FFE8CFE6FF000168270001B4
:101DA000662FBFEF0EF021C0E1FF22C0E2FF12005C
:101DB0009EAA12000001000E6163EBEF0EF0AECFA1
:101DC000E8FFE8CF62F0550E62631200280EE8CFFC
:101DD0005FF0612B1200010E6163F5EF0EF0AECFE4
:101DE000E8FFE8CF63F0612B1200020E6163FFEFA2
:101DF0000EF0AECFE8FFE8CF64F0612B1200030EC7
:101E0000616309EF0FF0AECFE8FFE8CF65F0612B1B
:101E10001200040E616312EF0FF0AECFE8FFE8CFBF
:101E200066F0612B050E61631EEF0FF0010E636318
:101E30001CEF0FF0B4EC0EF0612B1200060E616384
:101E400041EF0FF0AECFE8FFE8CF67F0020E63631B
:101E500032EF0FF097EC0EF068C0E8FF7FEC0EF069
:101E6000616B120068C0E8FF67633CEF0FF00C0E77
:101E70007FEC0EF0616B12000D0E7FEC0EF0616BCB
:101E80001200616B1200A4AA12006ECFE8FF0201DB
:101E9000A1B177EF0FF0530AD8A412000201A0A15C
:101EA000120000010F0E7415100991EC0EF073C0B2
:101EB000E8FF91EC0EF000010F0E7615200991EC71
:101EC0000EF0755191EC0EF000010F0E78153009EF
:101ED00091EC0EF0775191EC0EF000010F0E7A1597
:101EE000400991EC0EF0795191EC0EF012000001D6
:101EF000A8B17EEF0FF0AA6FA82B1200A96FA82B34
:101F0000020EA86397EF0FF0AA51F00B100AD8A4A5
:101F1000DCEF0FF00F0EAA17AAA791EF0FF0F00E4B
:101F2000AA13A9C0ABF0AAC0ACF0DCEF0FF0040E0E
:101F3000A863AEEF0FF0AA51F00B200AD8A4DCEF93
:101F40000FF00F0EAA17AAA7A8EF0FF0F00EAA1312
:101F5000A9C0ADF0AAC0AEF0DCEF0FF0060EA8638A
:101F6000C5EF0FF0AA51F00B300AD8A4DCEF0FF048
:101F70000F0EAA17AAA7BFEF0FF0F00EAA13A9C061
:101F8000AFF0AAC0B0F0DCEF0FF0080EA863DCEFF2
:101F90000FF0AA51F00B400AD8A4DCEF0FF00F0E9F
:101FA000AA17AAA7D6EF0FF0F00EAA13A9C0B1F096
:101FB000AAC0B2F0DCEF0FF012000C0E0F016F6E32
:101FC000220E6C6E900EE8CF6BFF12000001E80E3F
:101FD0000D26030E0E22780E0D5C070E0E58D8A0AB
:101FE000F5EF0FF0EF0EFCEF0FF00E320D320E3268
:101FF0000D320E320D320D5091EF0EF0BC0E0D5C15
:10200000030E0E58D8A0F7EF0FF0EF0EFCEF0FF015
:10201000F00E91EC0EF0800E91EC0EF073C00DF00E
:1020200074C00EF0E6EC0FF075C00DF076C00EF047
:10203000E6EC0FF077C00DF078C00EF0E6EC0FF094
:1020400079C00DF07AC00EF0FEEC0FF07BC00DF001
:102050007CC00EF0FEEC0FF07DC00DF07EC00EF0E7
:10206000FEEC0FF0120044EC10F010AE3CEF10F05C
:102070000D50155E0E50165A0EAE43EF10F00F5075
:10208000155E1050165A12000001136A146A156A80
:10209000166A0F500D02F3CF13F0F4CF14F00F5067
:1020A0000E02F3501426F4501522D8B0162A105000
:1020B0000D02F3501426F4501522D8B0162A1050F1
:1020C0000E02F3501526F450162212000001246A65
:1020D0001B6A14501310D8B4000C14501718E8BE23
:1020E000241EA46B000E17AE78EF10F0171E172AEF
:1020F00014AE7FEF10F0131E141E132A1422145076
:102100001710E8BE0BEF11F017501B5E1436143495
:102110001B3617501B26143614341B36175014B0B8
:102120001B5E14A01B26143614341B36175014B033
:102130001B5E14A01B26143614341B36175014B023
:102140001B5E14A01B26143614341B36175014B013
:102150001B5E14A01B26143614341B36175014B003
:102160001B5E14A01B26143614341B36175014B0F3
:102170001B5E14A01B26143613341B36175014B0E4
:102180001B5E14A01B26133613341B36175013B0D6
:102190001B5E13A01B26133613341B36175013B0C7
:1021A0001B5E13A01B26133613341B36175013B0B7
:1021B0001B5E13A01B26133613341B36175013B0A7
:1021C0001B5E13A01B26133613341B36175013B097
:1021D0001B5E13A01B26133613341B36175013B087
:1021E0001B5E13A01B26133613341B36175013B077
:1021F0001B5E13A01B26133613A01B26A4B129EFC8
:1022000011F024AE000C131E141EE86A132A1422C7
:102210001B1E1B2A000C17AE24EF11F014BE20EF7A
:1022200011F0E8CF9DF01350E8CF1BF01B9E133642
:1022300014361450E8CF13F09D51146A01EF11F0D9
:10224000136A132A146A000C141E131EA42B84EFA5
:1022500010F01B2A17501B6201EF11F01B6A000ED1
:10226000132A142214AE01EF11F02388FF0C000191
:10227000246A1C6A1B6A155014101310D8B4000C81
:1022800015501818E8BE241EA46B000E18AE4DEFB2
:1022900011F0171E181E172A182215AE56EF11F04E
:1022A000131E141E151E132A142215221550181061
:1022B000E8BEE0EF12F017501B5E18501C5A15369E
:1022C00015341B361C3617501B2618501C22153689
:1022D00015341B361C36175015A074EF11F01B5E19
:1022E00018501C5A77EF11F01B2618501C22153677
:1022F00015341B361C36175015A084EF11F01B5EE9
:1023000018501C5A87EF11F01B2618501C22153646
:1023100015341B361C36175015A094EF11F01B5EB8
:1023200018501C5A97EF11F01B2618501C22153616
:1023300015341B361C36175015A0A4EF11F01B5E88
:1023400018501C5AA7EF11F01B2618501C221536E6
:1023500015341B361C36175015A0B4EF11F01B5E58
:1023600018501C5AB7EF11F01B2618501C221536B6
:1023700015341B361C36175015A0C4EF11F01B5E28
:1023800018501C5AC7EF11F01B2618501C22153686
:1023900014341B361C36175015A0D4EF11F01B5EF9
:1023A00018501C5AD7EF11F01B2618501C22143657
:1023B00014341B361C36175014A0E4EF11F01B5ECA
:1023C00018501C5AE7EF11F01B2618501C22143627
:1023D00014341B361C36175014A0F4EF11F01B5E9A
:1023E00018501C5AF7EF11F01B2618501C221436F7
:1023F00014341B361C36175014A004EF12F01B5E69
:1024000018501C5A07EF12F01B2618501C221436C5
:1024100014341B361C36175014A014EF12F01B5E38
:1024200018501C5A17EF12F01B2618501C22143695
:1024300014341B361C36175014A024EF12F01B5E08
:1024400018501C5A27EF12F01B2618501C22143665
:1024500014341B361C36175014A034EF12F01B5ED8
:1024600018501C5A37EF12F01B2618501C22143635
:1024700014341B361C36175014A044EF12F01B5EA8
:1024800018501C5A47EF12F01B2618501C22143605
:1024900013341B361C36175014A054EF12F01B5E79
:1024A00018501C5A57EF12F01B2618501C221336D6
:1024B00013341B361C36175013A064EF12F01B5E4A
:1024C00018501C5A67EF12F01B2618501C221336A6
:1024D00013341B361C36175013A074EF12F01B5E1A
:1024E00018501C5A77EF12F01B2618501C22133676
:1024F00013341B361C36175013A084EF12F01B5EEA
:1025000018501C5A87EF12F01B2618501C22133645
:1025100013341B361C36175013A094EF12F01B5EB9
:1025200018501C5A97EF12F01B2618501C22133615
:1025300013341B361C36175013A0A4EF12F01B5E89
:1025400018501C5AA7EF12F01B2618501C221336E5
:1025500013341B361C36175013A0B4EF12F01B5E59
:1025600018501C5AB7EF12F01B2618501C221336B5
:1025700013341B361C36175013A0C4EF12F01B5E29
:1025800018501C5AC7EF12F01B2618501C22133685
:1025900013B0CFEF12F017501B2618501C22A4B115
:1025A00004EF13F024AE000C131E141E151E000EB3
:1025B000132A142215221B1E1C1E1B2A1C22000C6F
:1025C00018AEFEEF12F015BEF9EF12F0E8CF9DF055
:1025D0001450E8CF1CF01350E8CF1BF01C9E1436AB
:1025E00015361550E8CF13F09D51156A146AD2EFD5
:1025F00012F0136A132A146A156A000C151E141EB1
:10260000131EA42B5BEF11F01B2AE86A1C22175043
:102610001B62D2EF12F018501C62D2EF12F01C6A4B
:102620001B6A000E132A1422152215AED2EF12F0E7
:102630002388FF0C1E6A1D6A1C6A1B6A16341B362F
:102640001C361D361E3617501B5E18501C5A19506A
:102650001D5A1A501E5AA46AA45B163616341B362D
:102660001C361D361E36A437175016A043EF13F044
:102670001B5E18501C5A19501D5A1A501E5AE86AEF
:10268000A45B4CEF13F01B2618501C2219501D227E
:102690001A501E22E86AA423163616341B361C363E
:1026A0001D361E36A437175016A062EF13F01B5EBE
:1026B00018501C5A19501D5A1A501E5AE86AA45B29
:1026C0006BEF13F01B2618501C2219501D221A50B4
:1026D0001E22E86AA423163616341B361C361D3615
:1026E0001E36A437175016A081EF13F01B5E18504A
:1026F0001C5A19501D5A1A501E5AE86AA45B8AEFD8
:1027000013F01B2618501C2219501D221A501E228D
:10271000E86AA423163616341B361C361D361E36C0
:10272000A437175016A0A0EF13F01B5E18501C5AC8
:1027300019501D5A1A501E5AE86AA45BA9EF13F0EB
:102740001B2618501C2219501D221A501E22E86AFE
:10275000A423163616341B361C361D361E36A437F7
:10276000175016A0BFEF13F01B5E18501C5A1950DB
:102770001D5A1A501E5AE86AA45BC8EF13F01B26B4
:1027800018501C2219501D221A501E22E86AA42338
:10279000163616341B361C361D361E36A437175017
:1027A00016A0DEEF13F01B5E18501C5A19501D5A6C
:1027B0001A501E5AE86AA45BE7EF13F01B26185064
:1027C0001C2219501D221A501E22E86AA423163614
:1027D00016341B361C361D361E36A437175016A06D
:1027E000FDEF13F01B5E18501C5A19501D5A1A5059
:1027F0001E5AE86AA45B06EF14F01B2618501C2230
:1028000019501D221A501E22E86AA42316361534C8
:102810001B361C361D361E36A437175016A01CEF6B
:1028200014F01B5E18501C5A19501D5A1A501E5A8B
:10283000E86AA45B25EF14F01B2618501C221950DF
:102840001D221A501E22E86AA423153615341B36A1
:102850001C361D361E36A437175015A03BEF14F05A
:102860001B5E18501C5A19501D5A1A501E5AE86AFD
:10287000A45B44EF14F01B2618501C2219501D2293
:102880001A501E22E86AA423153615341B361C364E
:102890001D361E36A437175015A05AEF14F01B5ED4
:1028A00018501C5A19501D5A1A501E5AE86AA45B37
:1028B00063EF14F01B2618501C2219501D221A50C9
:1028C0001E22E86AA423153615341B361C361D3625
:1028D0001E36A437175015A079EF14F01B5E185060
:1028E0001C5A19501D5A1A501E5AE86AA45B82EFEE
:1028F00014F01B2618501C2219501D221A501E229B
:10290000E86AA423153615341B361C361D361E36D0
:10291000A437175015A098EF14F01B5E18501C5ADE
:1029200019501D5A1A501E5AE86AA45BA1EF14F000
:102930001B2618501C2219501D221A501E22E86A0C
:10294000A423153615341B361C361D361E36A43707
:10295000175015A0B7EF14F01B5E18501C5A1950F1
:102960001D5A1A501E5AE86AA45BC0EF14F01B26C9
:1029700018501C2219501D221A501E22E86AA42346
:10298000153615341B361C361D361E36A437175027
:1029900015A0D6EF14F01B5E18501C5A19501D5A82
:1029A0001A501E5AE86AA45BDFEF14F01B26185079
:1029B0001C2219501D221A501E22E86AA423153623
:1029C00015341B361C361D361E36A437175015A07D
:1029D000F5EF14F01B5E18501C5A19501D5A1A506E
:1029E0001E5AE86AA45BFEEF14F01B2618501C2246
:1029F00019501D221A501E22E86AA42315361434D9
:102A00001B361C361D361E36A437175015A014EF82
:102A100015F01B5E18501C5A19501D5A1A501E5A98
:102A2000E86AA45B1DEF15F01B2618501C221950F4
:102A30001D221A501E22E86AA423143614341B36B1
:102A40001C361D361E36A437175014A033EF15F070
:102A50001B5E18501C5A19501D5A1A501E5AE86A0B
:102A6000A45B3CEF15F01B2618501C2219501D22A8
:102A70001A501E22E86AA423143614341B361C365E
:102A80001D361E36A437175014A052EF15F01B5EEA
:102A900018501C5A19501D5A1A501E5AE86AA45B45
:102AA0005BEF15F01B2618501C2219501D221A50DE
:102AB0001E22E86AA423143614341B361C361D3635
:102AC0001E36A437175014A071EF15F01B5E185076
:102AD0001C5A19501D5A1A501E5AE86AA45B7AEF04
:102AE00015F01B2618501C2219501D221A501E22A8
:102AF000E86AA423143614341B361C361D361E36E1
:102B0000A437175014A090EF15F01B5E18501C5AF4
:102B100019501D5A1A501E5AE86AA45B99EF15F015
:102B20001B2618501C2219501D221A501E22E86A1A
:102B3000A423143614341B361C361D361E36A43717
:102B4000175014A0AFEF15F01B5E18501C5A195007
:102B50001D5A1A501E5AE86AA45BB8EF15F01B26DE
:102B600018501C2219501D221A501E22E86AA42354
:102B7000143614341B361C361D361E36A437175037
:102B800014A0CEEF15F01B5E18501C5A19501D5A98
:102B90001A501E5AE86AA45BD7EF15F01B2618508E
:102BA0001C2219501D221A501E22E86AA423143632
:102BB00014341B361C361D361E36A437175014A08D
:102BC000EDEF15F01B5E18501C5A19501D5A1A5083
:102BD0001E5AE86AA45BF6EF15F01B2618501C225B
:102BE00019501D221A501E22E86AA42314361334E9
:102BF0001B361C361D361E36A437175014A00CEF9A
:102C000016F01B5E18501C5A19501D5A1A501E5AA5
:102C1000E86AA45B15EF16F01B2618501C22195009
:102C20001D221A501E22E86AA423133613341B36C1
:102C30001C361D361E36A437175013A02BEF16F086
:102C40001B5E18501C5A19501D5A1A501E5AE86A19
:102C5000A45B34EF16F01B2618501C2219501D22BD
:102C60001A501E22E86AA423133613341B361C366E
:102C70001D361E36A437175013A04AEF16F01B5E00
:102C800018501C5A19501D5A1A501E5AE86AA45B53
:102C900053EF16F01B2618501C2219501D221A50F3
:102CA0001E22E86AA423133613341B361C361D3645
:102CB0001E36A437175013A069EF16F01B5E18508C
:102CC0001C5A19501D5A1A501E5AE86AA45B72EF1A
:102CD00016F01B2618501C2219501D221A501E22B5
:102CE000E86AA423133613341B361C361D361E36F1
:102CF000A437175013A088EF16F01B5E18501C5A0B
:102D000019501D5A1A501E5AE86AA45B91EF16F02A
:102D10001B2618501C2219501D221A501E22E86A28
:102D2000A423133613341B361C361D361E36A43727
:102D3000175013A0A7EF16F01B5E18501C5A19501D
:102D40001D5A1A501E5AE86AA45BB0EF16F01B26F3
:102D500018501C2219501D221A501E22E86AA42362
:102D6000133613341B361C361D361E36A437175047
:102D700013A0C6EF16F01B5E18501C5A19501D5AAE
:102D80001A501E5AE86AA45BCFEF16F01B261850A3
:102D90001C2219501D221A501E22E86AA423133641
:102DA00013341B361C361D361E36A437175013A09D
:102DB000E5EF16F01B5E18501C5A19501D5A1A5098
:102DC0001E5AE86AA45BEEEF16F01B2618501C2270
:102DD00019501D221A501E22E86AA423133613B07C
:102DE000FAEF16F017501B2618501C2219501D22FE
:102DF0001A501E22000C0F01D89083B6D880D8B08C
:102E000007EF17F00A0E9BEC0BF00F01D89083B67A
:102E1000D880D8B07DEF17F00F01D89084B2D88059
:102E2000D8B018EF17F00A0E9BEC0BF00F01D890FA
:102E300084B2D880D8B07DEF17F00001CC673FEFA7
:102E400017F00001CC69030132C30DF033C30EF05B
:102E50000001E80E0F6E030E106E33EC10F014C07C
:102E60001CF115C01DF10301345101011C270301A0
:102E7000355101011D2334C31AF135C31BF186EC12
:102E800029F0D8B050EF17F0D8A457EF17F0010190
:102E90001A07D8A01B071A07D8A01B0757EF17F06F
:102EA00001011A2BD8B41B2B1A2BD8B41B2B1CC115
:102EB0000DF01DC10EF001011A5100010D5E01015E
:102EC0001B5100010E5A0001000E0F6E010E106E14
:102ED00033EC10F00001E80E176E030E186E37EC9D
:102EE00011F013C032F314C033F31AC134F31BC111
:102EF00035F3DDEC19F0D88412000001CC6783EFC4
:102F000017F0D8941200CC6B50EC1FF0D89412003C
:102F100000016951E8CF0DF06A51E8CF0EF06D5114
:102F20000D5E6E510E5AD8A0A5EF17F06B51E8CF89
:102F30000FF06C51E8CF10F033EC10F01450E8CFE4
:102F400071F01550E8CF72F012006F51E8CF0FF01A
:102F50007051E8CF10F033EC10F01450E8CF71F05E
:102F60001550E8CF72F0120069C00DF06AC00EF083
:102F70006D510D5E6E510E5A6BC00FF06CC010F0AB
:102F800033EC10F01450E8CF71F01550E8CF72F028
:102F90001200040E91EC08F0040EB9EC08F015C212
:102FA0006BF016C26CF017C26DF018C26EF019C249
:102FB0006FF01AC270F088EC17F071C034F172C073
:102FC00035F171C073F072C074F0050E91EC08F029
:102FD000050EB9EC08F01BC26BF01CC26CF01DC2F0
:102FE0006DF01EC26EF01FC26FF020C270F088EC50
:102FF00017F071C036F172C037F171C075F072C050
:1030000076F0060E91EC08F0060EB9EC08F021C23D
:103010006BF022C26CF023C26DF024C26EF025C2A8
:103020006FF026C270F088EC17F071C038F172C0F2
:1030300039F171C077F072C078F0070E91EC08F0AA
:10304000070E91EC08F027C26BF028C26CF029C281
:103050006DF02AC26EF0B4EC17F071C03AF172C094
:103060003BF171C079F072C07AF0030E91EC08F078
:1030700000010F01C3CFE8FFE8CF8BF0C4CFE8FF1A
:10308000E8CF8CF0080E91EC08F02DC26DF02EC246
:103090006EF02BC26BF02CC26CF0B4EC17F071C068
:1030A00083F072C084F0090E91EC08F031C26DF02B
:1030B00032C26EF02FC26BF030C26CF0B4EC17F07D
:1030C00071C085F072C086F00A0E91EC08F035C22E
:1030D0006DF036C26EF033C26BF034C26CF0B4ECFB
:1030E00017F071C087F072C088F00B0E91EC08F0F9
:1030F00039C26DF03AC26EF037C26BF038C26CF074
:10310000B4EC17F071C089F072C08AF00301B551B8
:103110005DEC24F0D8A093EF18F0030E7C6FE80E5E
:103120007B6F95EF18F07B6B7C6B000E91EC08F0D9
:103130003BC26BF03CC26CF03DC26DF03EC26EF023
:10314000B4EC17F071C07DF072C07EF0010E91EC0E
:1031500008F03FC26BF040C26CF041C26DF042C259
:103160006EF0B4EC17F071C07FF072C080F0030114
:10317000B7515DEC24F0D8A0C4EF18F0030E826FB5
:10318000E80E816FDAEF18F00301B9515DEC24F01D
:10319000D8A0CFEF18F0816B826BDAEF18F0030143
:1031A000B8515DEC24F0D8A0DAEF18F0010E826F70
:1031B000F40E816F12000001106A0FBE101E33EC76
:1031C00010F00001640E176E000E186E37EC11F04F
:1031D00013C011F014C012F013C00FF014C010F09F
:1031E0000EAEF8EF18F00F1E101E0F2AD8B0102ADE
:1031F00033EC10F000010A0E176E000E186E37EC5B
:1032000011F00B50E8CF17F0186A17BE181E37ECF4
:1032100011F011500D5E12500E5A13500D2614501D
:103220000E2212000301AE515DEC24F073C00DF0CC
:1032300074C00EF0D8A028EF19F003011B51000153
:10324000E8CF0FF003011751E8CF0BF030EF19F082
:1032500003011A510001E8CF0FF0640EE8CF0BF024
:10326000DBEC18F00DC073F00EC074F00301AF5129
:103270005DEC24F075C00DF076C00EF0D8A04CEFD8
:1032800019F0030126510001E8CF0FF0030122518C
:10329000E8CF0BF054EF19F0030125510001E8CFFE
:1032A0000FF0640EE8CF0BF0DBEC18F00DC075F0FA
:1032B0000EC076F00301B0515DEC24F077C00DF044
:1032C00078C00EF0D8A070EF19F003013151000161
:1032D000E8CF0FF003012D51E8CF0BF078EF19F094
:1032E000030130510001E8CF0FF0640EE8CF0BF07E
:1032F000DBEC18F00DC077F00EC078F0120003017F
:10330000AE515DEC24F0D8A09EEF19F073C00FF021
:1033100074C010F017C30DF018C30EF00E6A0DBE86
:103320000E1E33EC10F00001640E176E000E186EC6
:1033300037EC11F013C073F014C074F00301AF51F7
:103340005DEC24F0D8A0BDEF19F075C00FF076C089
:1033500010F022C30DF023C30EF00E6A0DBE0E1E38
:1033600033EC10F00001640E176E000E186E37EC8F
:1033700011F013C075F014C076F00301B0515DEC8C
:1033800024F0D8A0DCEF19F077C00FF078C010F06F
:103390002DC30DF02EC30EF00E6A0DBE0E1E33ECC3
:1033A00010F00001640E176E000E186E37EC11F06D
:1033B00013C077F014C078F012000201B2519BECF8
:1033C00001F00301A75100010F260301A8510001DC
:1033D000102218C30DF019C30EF000010E6AFF0E83
:1033E0000DBE0E6E33EC10F00001640E176E186AFD
:1033F000196A1A6A37EC11F0000103011951000132
:103400000D6E0E6A0DBE0E1E0D360E360D501326B5
:103410000E50142213507327145074230201B35119
:103420009BEC01F00301A95100010F260301AA51F1
:103430000001102223C30DF024C30EF000010E6A18
:10344000FF0E0DBE0E6E33EC10F00001640E176E11
:10345000186A196A1A6A37EC11F000010301245145
:1034600000010D6E0E6A0DBE0E1E0D360E360D508D
:1034700013260E5014221350752714507623020180
:10348000B4519BEC01F00301AB5100010F26030185
:10349000AC51000110222EC30DF02FC30EF000011D
:1034A0000E6AFF0E0DBE0E6E33EC10F00001640EBE
:1034B000176E186A196A1A6A37EC11F000010301D5
:1034C0002F5100010D6E0E6A0DBE0E1E0D360E360A
:1034D0000D5013260E5014221350772714507823C2
:1034E0000201B5519BEC01F036C30DF037C30EF06D
:1034F00000010E6AFF0E0DBE0E6E33EC10F00001DF
:10350000640E176E186A196A1A6A37EC11F0030113
:10351000010E3763A3EF1AF00001030E0E6E186E52
:10352000E80E0D6E176E79510D5E7A510E5A196ABA
:103530001A6A13C00FF014C010F033EC10F037EC1F
:1035400011F0BDEF1AF0020E3763BDEF1AF0000163
:1035500079510D6E7A510E6E13C00FF014C010F039
:1035600033EC10F00001030EE8CF18F0E80EE8CFBE
:1035700017F0196A1A6A37EC11F000011350792715
:1035800014507A23120000010E6A08C40DF00DBE1B
:103590000E6800010A0E0F6E000E106E33EC10F074
:1035A000135073271450742300010E6A09C40DF0E0
:1035B0000DBE0E6800010A0E0F6E000E106E33EC89
:1035C00010F0135075271450762300010E6A0AC4B8
:1035D0000DF00DBE0E6800010A0E0F6E000E106E8B
:1035E00033EC10F0135077271450782300010E6A43
:1035F0000BC40DF00DBE0E6800010A0E0F6E000E1A
:10360000106E33EC10F01350792714507A23000118
:103610000E6A0CC40DF00DBE0E6800010A0E0F6E8E
:10362000000E106E33EC10F013507B2714507C23E7
:1036300000010E6A0DC40DF00DBE0E6800010A0EE9
:103640000F6E000E106E33EC10F013507D271450E7
:103650007E2300010E6A0EC40DF00DBE0E6800013F
:103660000A0E0F6E000E106E33EC10F013507F2711
:103670001450802300010E6A0FC40DF00DBE0E68B9
:1036800000010A0E0F6E000E106E33EC10F0135096
:10369000812714508223120000010A0E0D6E000EC5
:1036A0000E6E0301BB515DEC24F0D8A094EF1BF02B
:1036B00003014DAF67EF1BF04CC30FF0106A0FBE54
:1036C000106833EC10F013C073F014C074F00301F1
:1036D0004FAF76EF1BF04EC30FF0106A0FBE1068AD
:1036E00033EC10F013C075F014C076F0030151AF45
:1036F00085EF1BF050C30FF0106A0FBE106833EC5B
:1037000010F013C077F014C078F0030153AF94EFBA
:103710001BF052C30FF0106A0FBE106833EC10F0AC
:1037200013C079F014C07AF00301BC515DEC24F0B1
:10373000D8A0D7EF1BF0030155AFAAEF1BF054C37D
:103740000FF0106A0FBE106833EC10F013C073F066
:1037500014C074F0030157AFB9EF1BF056C30FF05C
:10376000106A0FBE106833EC10F013C075F014C06F
:1037700076F0030159AFC8EF1BF058C30FF0106A81
:103780000FBE106833EC10F013C077F014C078F05F
:1037900003015BAFD7EF1BF05AC30FF0106A0FBEE7
:1037A000106833EC10F013C079F014C07AF0000107
:1037B0007AAF1200E86A796F7A6F12000201A1B144
:1037C00012000301B6515DEC24F0D8A012000001F4
:1037D0006067120002019F510001606F0201010E3B
:1037E000B663FCEF1BF0010E00015D6E050E35ECBB
:1037F0000AF0280E0001606F73C00DF074C00EF067
:103800009FEC1CF0D8A432EF1CF00201B6670BEF5E
:103810001CF002019E51000174BF19EF1CF003015E
:10382000192719AF23EF1CF0D8A623EF1CF026EFC1
:103830001CF00301195F19BF23EF1CF0D8A623EF7A
:103840001CF02BEF1CF019BF2BEF1CF0640E19615C
:10385000196F30EF1CF0640EE81EE82A1965196F25
:1038600050EC1FF075C00DF076C00EF09FEC1CF010
:10387000D8A468EF1CF00201B66741EF1CF002010A
:103880009E51000176BF4FEF1CF00301242724AFA7
:1038900059EF1CF0D8A659EF1CF05CEF1CF00301A7
:1038A000245F24BF59EF1CF0D8A659EF1CF061EF3C
:1038B0001CF024BF61EF1CF0640E2461246F66EFDE
:1038C0001CF0640EE81EE82A2465246F50EC1FF0FB
:1038D00077C00DF078C00EF09FEC1CF0D8A49EEFDE
:1038E0001CF00201B66777EF1CF002019E51000147
:1038F00078BF85EF1CF003012F272FAF8FEF1CF04F
:10390000D8A68FEF1CF092EF1CF003012F5F2FBFA2
:103910008FEF1CF0D8A68FEF1CF097EF1CF02FBF95
:1039200097EF1CF0640E2F612F6F9CEF1CF0640E5C
:10393000E81EE82A2F652F6F50EC1FF012000001DF
:103940000EAEA8EF1CF00D1E0E1E0D2AD8B00E2ACA
:10395000D8900E320D320E66B2EF1CF0640E0D647C
:10396000B7EF1CF00001640E0D6E000E0E6E0D50D0
:10397000E832E8321F0BD8740DC0E8FF12000001D6
:10398000BD6B000174BFD1EF1CF011C30DF012C369
:103990000EF073C00FF074C010F033EC10F0DBEFDA
:1039A0001CF015C30DF016C30EF073C00FF074C0F9
:1039B00010F033EC10F013C30DF014C30EF000013F
:1039C00014500D2615500E2230EC1EF00DC03CF0A8
:1039D0000EC03DF0000176BFFAEF1CF01CC30DF0E5
:1039E0001DC30EF075C00FF076C010F033EC10F070
:1039F00004EF1DF020C30DF021C30EF075C00FF0D1
:103A000076C010F033EC10F01EC30DF01FC30EF0A3
:103A1000000114500D2615500E2230EC1EF00DC082
:103A20003AF00EC03BF0000178BF23EF1DF027C332
:103A30000DF028C30EF077C00FF078C010F033EC13
:103A400010F02DEF1DF02BC30DF02CC30EF077C03E
:103A50000FF078C010F033EC10F029C30DF02AC33A
:103A60000EF0000114500D2615500E2230EC1EF001
:103A70000DC03EF00EC03FF032C30DF033C30EF068
:103A800079C00FF07AC010F033EC10F034C30DF0B1
:103A900035C30EF0000114500D2615500E2230ECE7
:103AA0001EF00DC040F00EC041F03AC30DF03BC314
:103AB0000EF07BC00FF07CC010F033EC10F03CC374
:103AC0000DF03DC30EF0000114500D2615500E22CE
:103AD00030EC1EF00DC042F00EC043F0040117A1FF
:103AE00097EF1DF000017EBF82EF1DF01CC30DF0AB
:103AF0001DC30EF07DC00FF07EC010F033EC10F04F
:103B00008CEF1DF020C30DF021C30EF07DC00FF02F
:103B10007EC010F033EC10F01EC30DF01FC30EF08A
:103B2000000114500D2615500E22AAEF1DF03EC3C1
:103B30000DF03FC30EF07DC00FF07EC010F033ECEF
:103B400010F040C30DF041C30EF0000114500D26DB
:103B500015500E2230EC1EF00DC044F00EC045F0A2
:103B600003019AA1D9EF1DF0000180BFC4EF1DF041
:103B700011C30DF012C30EF07FC00FF080C010F023
:103B800033EC10F0CEEF1DF015C30DF016C30EF0A0
:103B90007FC00FF080C010F033EC10F013C30DF0B5
:103BA00014C30EF0000114500D2615500E22ECEF38
:103BB0001DF042C30DF043C30EF07FC00FF080C074
:103BC00010F033EC10F044C30DF045C30EF00001CB
:103BD00014500D2615500E2230EC1EF00DC046F08C
:103BE0000EC047F081C00DF082C00EF0F40E0D5EE5
:103BF000010E0E5AD8900D360E360EBE08EF1EF08E
:103C000046C30FF047C310F033EC10F00EEF1EF078
:103C10004AC30FF04BC310F033EC10F048C30DF063
:103C200049C30EF00D5014260E50152214C00DF08D
:103C300015C00EF030EC1EF00DC048F00EC049F07B
:103C40000001CC672FEF1EF00301B1515DEC24F0B1
:103C5000D8A02FEF1EF038C340F039C341F0120056
:103C60000201AE5100010D5C0201AF5100010E587E
:103C7000E8AE40EF1EF0AEC20DF0AFC20EF0120083
:103C80000201B05100010D5C0201B15100010E585A
:103C9000E8BE1200B0C20DF0B1C20EF01200000179
:103CA00033B45EEF1EF035A45EEF1EF03594010EC6
:103CB0005D6E050E35EC0AF0D8801200D890120027
:103CC0000001000E0D6E020E0E6E0001000E136E4E
:103CD000000E146E010E156EE86A0A6E0EEC0CF002
:103CE000020100510001A56F12000001000E0D6ECF
:103CF000020E0E6E0001000E136E000E146E010E09
:103D0000156E040E0A6E42EC0CF01200E846E8064E
:103D10000B6E0001000E0D6E030E0E6E0001000E04
:103D2000136E000E146E010E156E0B501426E86A09
:103D30001522100E0A6E0EEC0CF01200E846E80692
:103D40000B6E0001000E0D6E080E0E6E0001000ECF
:103D5000136E000E146E010E156E0B501426E86AD9
:103D60001522400E0A6E0EEC0CF00001000EB56F2D
:103D7000030EB66F0001000EB36F030EB46F0001A7
:103D8000080EB46F100EB76F35EC23F00001000E73
:103D90000D6E080E0E6E0001000E136E000E146EF6
:103DA000010E156E0B501426E86A1522010E0A6EDC
:103DB00042EC0CF01200E846E8060B6E0001000E23
:103DC0000D6E030E0E6E0001000E136E000E146ECB
:103DD000010E156E0B501426E86A15220A6E0EECC1
:103DE0000CF00001000E0D6E040E0E6E0001000EB0
:103DF000136E000E146E010E156E0B50E82A142679
:103E0000E86A15220A6E0EEC0CF01200E846E8068D
:103E10000C6E0001000E0D6E030E0E6E0001000E02
:103E2000136E000E146E010E156E0C501426E86A07
:103E30001522040E0A6E42EC0CF00001000E0D6E0D
:103E4000040E0E6E0001000E136E000E146E010EB5
:103E5000156E0C50E82A1426E86A1522040E0A6E24
:103E600042EC0CF012000001000EB56F030EB66FAD
:103E70000001000EB36F060EB46F000EB76F35EC85
:103E800023F00001000EB56F040EB66F0001000EA6
:103E9000B36F070EB46F000EB76F35EC23F012004E
:103EA00002010051E846E8060A6E0001000E0D6EA0
:103EB000030E0E6E0001000E136E000E146E010E46
:103EC000156E0A501426E86A1522010E0A6E42EC9D
:103ED0000CF0120073C08DF074C08EF075C08FF0BE
:103EE00076C090F077C091F078C092F079C093F0EE
:103EF0007AC094F07BC095F07CC096F07DC097F0BE
:103F00007EC098F07FC099F080C09AF081C09BF08D
:103F100082C09CF012006AEC1FF00301B2515DEC0C
:103F200024F0D8B0A6EF1FF0030EE26E5C0EE16E37
:103F300055EC22F0610EE16E55EC22F0660EE16E5A
:103F400055EC22F06B0EE16E55EC22F06AEC1FF09E
:103F50000301B3515DEC24F0D8B0C7EF1FF0030E9E
:103F6000E26E700EE16E55EC22F06AEC1FF0750EF9
:103F7000E16E55EC22F06AEC1FF07A0EE16E55EC22
:103F800022F06AEC1FF07F0EE16E55EC22F06AEC35
:103F90001FF00301B4515DEC24F0D8B0E2EF1FF044
:103FA000030EE26E840EE16E55EC22F0890EE16E96
:103FB00055EC22F08E0EE16E55EC22F0930EE16E80
:103FC00055EC22F012008DC00DF08EC00EF010C422
:103FD0000FF000010EBE11C40FF0106A0FBE106882
:103FE00033EC10F00001640E176E000E186E37EC03
:103FF00011F0000113C0E8FF912714C0E8FF9223DD
:1040000091C00DF092C00EF012C40FF000010EBE70
:1040100013C40FF0106A0FBE106833EC10F00001EB
:10402000640E176E000E186E37EC11F0000113C00D
:10403000E8FF8D2714C0E8FF8E2391C00DF092C0D9
:104040000EF014C40FF000010EBE15C40FF0106A7C
:104050000FBE106833EC10F00001640E176E000EF6
:10406000186E37EC11F0000113C0E8FF8F2714C061
:10407000E8FF902393C00DF094C00EF016C40FF02B
:1040800000010EBE106A0FBE106833EC10F0000184
:10409000640E176E000E186E37EC11F0000113C09D
:1040A000E8FF8F2714C0E8FF90238DC073F08EC007
:1040B00074F08FC075F090C076F091C077F092C028
:1040C00078F093C079F094C07AF0040117A177EFEB
:1040D00020F08FC07DF090C07EF0040118A177EF32
:1040E00020F000017D1F7E1F7D2BD8B07E2B0301A9
:1040F00098A19DEF20F08FC00DF090C00EF091C000
:104100000FF092C010F0D8900EBED8800E320D3253
:10411000D89010BED88010320F320DC075F00EC08E
:1041200076F00DC077F00EC078F00F507727105062
:1041300078230F50755F1050765B030199A1C3EF90
:1041400020F08FC00DF090C00EF08DC00FF08EC02B
:1041500010F0D8900EBED8800E320D32D89010BE1E
:10416000D88010320F320DC075F00EC076F00DC041
:1041700073F00EC074F00F507327105074230F505B
:10418000755F1050765B03019AA17DEF21F08DC021
:104190000DF08EC00EF00DC073F00EC074F00DC0A7
:1041A0007FF00EC080F00001640E176E000E186ED6
:1041B00003019C51E812D8B429EF21F0E8BE06EFC4
:1041C00021F0640800010F6E106A74BFF4EF20F054
:1041D00073C00DF074C00EF033EC10F037EC11F03A
:1041E00013C073F014C074F0000180AF29EF21F008
:1041F0007FC00DF080C00EF033EC10F037EC11F002
:1042000013C07FF014C080F029EF21F0640F00018B
:104210000F6E106A74AF19EF21F073C00DF074C007
:104220000EF033EC10F037EC11F013C073F014C043
:1042300074F0000180BF29EF21F07FC00DF080C035
:104240000EF033EC10F037EC11F013C07FF014C017
:1042500080F003019BA133EF21F000017F1F801F3D
:104260007F2BD8B0802B0001640E176E000E186EE5
:1042700003019D51E812D8B47DEF21F00301C6512E
:10428000E812D8B456EF21F00301C5515DEC24F0DB
:10429000D8B07DEF21F00001E80E0D6E030E0E6E1A
:1042A00093510D5E94510E5A5FEF21F00001E80E1C
:1042B0000D6E030E0E6E99510D5E9A510E5A9DC3EE
:1042C0000FF09EC310F0106AE8BE101E33EC10F021
:1042D00037EC11F0135073271450742303019BB172
:1042E00078EF21F00001131E141E132AD8B0142AEF
:1042F000000113507F271450802312000301A4A152
:1043000012006AEC1FF0E3EC1FF012000301A4B1ED
:104310008EEF21F06AEC1FF0E3EC1FF003019EA189
:10432000A9EF21F00301C2515DEC24F0D8A0A9EF60
:1043300021F003019F5100010D6E0E6A00010A0E6B
:104340000F6E000E106E33EC10F013C079F014C035
:104350007AF00301A0A1D6EF21F00301C3515DEC77
:1043600024F0D8A0B8EF21F00301A151C1EF21F052
:104370000301C4515DEC24F0D8A0D6EF21F0030175
:10438000A25100010D6E0E6A00010A0E0F6E000EA2
:10439000106E33EC10F01350795D14507A59E8AE7A
:1043A000D6EF21F013C079F014C07AF012000BC0E0
:1043B000E8FFF00BD8B412000DC069F00EC06AF02F
:1043C0000EAEE8EF21F00D1E0E1E0D2AD8B00E2AFB
:1043D0000DC013F00EC014F0640E176E66EC10F0F2
:1043E00000011C6A090E136000EF22F00BC0E8FF09
:1043F000E83AE8060F0BE8B61DEF22F012EF22F0C4
:10440000136E0DC01BF00EC01CF0840E00011B5E6D
:10441000030E1C5A0BC0E8FFE83AE8060F0BE8B69B
:104420001DEF22F00B0DF350460F1324E8CFD9FFF8
:10443000020EE8CFDAFF27EF22F0E8960B0DF350DB
:10444000DA0F1324E8CFD9FF030EE8CFDAFFDECF6F
:104450000AF0DFCF0BF000010BC00DF00AC0E8FF3F
:104460000D5E0E6A0DBE0E681BC00FF01CC010F072
:1044700033EC10F00A0E176E66EC10F00AC0E8FF7D
:104480000A0DF3CFE8FF1326F4CFE8FF142213C080
:104490000DF014C00EF000016AAF120000010D1EF5
:1044A0000E1E0D2AD8B00E2A1200E650E8CF0BF0EF
:1044B000E812D8B4120080EC02F0D7EC21F00DC065
:1044C00011F00EC012F0E6CF0AF0E6CFE8FF0001CF
:1044D000E8CF0DF00E6A0DBE0E1E00010A0E0F6E23
:1044E000000E106E33EC10F011C00DF012C00EF083
:1044F00013500D5E14500E5A0EBEB4EF22F0E6CFEC
:10450000E8FF00010AAC9DEF22F0E8CF13F0E9CFFD
:1045100014F00DC011F00EC012F0135080EC02F038
:104520000DC013F00EC014F00A0E176E66EC10F0FA
:1045300011C00DF012C00EF013500F6E106A0FBEB6
:10454000101E33EC10F00001640E176E000E186E92
:10455000196A1A6A37EC11F013C00DF014C00EF08E
:104560000A5000EC03F01200E6CFE8FFE6CFE8FFC8
:1045700000010AAAD2EF22F0E8CF13F00DC011F02B
:104580000EC012F0135080EC02F00DC013F00EC0FC
:1045900014F00A0E176E66EC10F011C00DF012C088
:1045A0000EF013500F6E106A0FBE101E33EC10F099
:1045B0000001640E176E000E186E196A1A6A37EC45
:1045C00011F013C00DF014C00EF00A5000EC03F00F
:1045D00012000001BD0EB56F030EB66F0001120E82
:1045E000B36F010EB46F050EB76F35EC23F0D90E23
:1045F000E8CFD9FF060EE8CFDAFF060EE8CF0CF0C1
:10460000DDCFE8FFE812D8B40DEF23F0DFCFE8FFED
:104610005DEC24F0D8B019EF23F0DDCFE8FF0C2ECD
:1046200000EF23F0A5C0E8FF0201006322EF23F0B2
:104630001200DECFE8FFDECFE8FF0201006322EFC9
:1046400023F01200E8CF00F2DBEC1EF00001120EA6
:10465000B56F010EB66F0001BD0EB36F030EB46FE0
:10466000050EB76F35EC23F012000001B551E16E75
:10467000B651E26E0001B351D96EB451DA6EE6CF95
:10468000E8FFE8CFDEFF0001B72F3FEF23F0120075
:104690000001BF6B0301AE515DEC24F00001D8B006
:1046A000BF810301AF515DEC24F00001D8B0BF839E
:1046B0000301B0515DEC24F00001D8B0BF850301C7
:1046C000B1515DEC24F00001D8B0BF870301B651B1
:1046D0005DEC24F00001D8B0BF890301BB515DEC53
:1046E00024F00001D8B0BF8B0301BC515DEC24F075
:1046F0000001D8B0BF8D1200C00E0DEC0DF003010B
:10470000AE515DEC24F00001E86AE880BF15D8A046
:1047100098EF23F0D8A4A9EF23F0BF71000EF86E34
:10472000640EF76ED40EF66E53EC0DF05AEF24F0D3
:10473000D8B0A9EF23F0D8B4A9EF23F0BF71000ED1
:10474000F86E640EF76EC20EF66E53EC0DF05AEF73
:1047500024F00301AF515DEC24F00001E86AE88227
:10476000BF15D8A0C2EF23F0D8A4D3EF23F0BF73B6
:10477000000EF86E640EF76EF80EF66E53EC0DF048
:104780005AEF24F0D8B0D3EF23F0D8B4D3EF23F00E
:10479000BF73000EF86E640EF76EE60EF66E53EC05
:1047A0000DF05AEF24F00301B0515DEC24F000014C
:1047B000E86AE884BF15D8A0ECEF23F0D8A4FDEF99
:1047C00023F0BF75000EF86E650EF76E1C0EF66EC8
:1047D00053EC0DF05AEF24F0D8B0FDEF23F0D8B42D
:1047E000FDEF23F0BF75000EF86E650EF76E0A0E32
:1047F000F66E53EC0DF05AEF24F00301B1515DEC6D
:1048000024F00001D8A013EF24F0BFB714EF24F078
:10481000BF77000EF86E650EF76E640EF66E53EC01
:104820000DF05AEF24F0BF970301B6515DEC24F070
:104830000001D8A02AEF24F0BFB92BEF24F0BF79F4
:10484000000EF86E650EF76E520EF66E53EC0DF01C
:104850005AEF24F0BF990301BB515DEC24F0000135
:10486000D8A041EF24F0BFBB42EF24F0BF7B000E85
:10487000F86E650EF76E2E0EF66E53EC0DF05AEFD5
:1048800024F0BF9B0301BC515DEC24F00001D8A0D3
:1048900058EF24F0BFBD59EF24F0BF7D000EF86E35
:1048A000650EF76E400EF66E53EC0DF05AEF24F0E5
:1048B000BF9D1200500EA36F1200E8AA89EF24F0EA
:1048C000E8A889EF24F00A6E070BC90FE16E030E0A
:1048D000E26EE65000010D6E0E6AE8BE0E68000141
:1048E0000A0E0F6E000E106E33EC10F00A50070B1C
:1048F000E846340FE16E010EE252E650E6CF0BF0CF
:104900000001135E0B501458E8360ABE1200D8702E
:104910001200D890E8BA1200D880E8B8120000015E
:104920001F6E206AE8BC2080070BE82AD88020365A
:10493000E82E97EF24F030501FB633502014D88063
:104940002062D8901FBED8701200040ED56E1200DF
:10495000D59E1200D89087B21200D880D5BE120022
:10496000C3C00DF0C4C00EF000013C0E0F6E000E6F
:10497000106E44EC10F013C00DF014C00EF00001E6
:10498000240E0F6EF40E106E44EC10F0C1C017F040
:10499000C2C018F00001000E196E000E1A6E1AEC5B
:1049A00013F0A5C317F0A6C318F00001186A37EC7E
:1049B00011F0C00E0DEC0DF0000EF86E640EF76EE7
:1049C000320EF66E53EC0DF0CB0E0DEC0DF0B7EC95
:1049D0000DF0A5C313F0A6C314F0146AC00E0DECBD
:1049E0000DF0B3EC0DF00001000EC36F000EC46FAC
:1049F000D88012000001020E36621200000133A0BE
:104A00001200FC6A08EF05F013EC25F0D8A01200A4
:104A1000FC6A75EC1EF000C2E8FF06EC1FF033ECF8
:104A20001FF008EF05F0000130B61DEF25F032A6AB
:104A30001DEF25F03296D8801200D89012000001A8
:104A4000650E0E6E880E0D6E5EEC25F032EC0DF0EC
:104A50000001115080EC01F012001EC10DF01FC1C9
:104A60000EF032EC0DF012000001EF51D8B412003C
:104A7000C9EC17F00001000E736F000E746F000197
:104A8000000E756F000E766F7FEC19F012EC19F0C6
:104A90004CEC1BF0DEEC1BF0DDEC19F07EEC21F0B1
:104AA0008BEC1FF086EC21F0C3EC1AF0BFEC1CF08D
:104AB0002AEC0EF012000001EF691200FAEC24F06B
:104AC0000001CD6BDB6BEA6BEB6BC00E0DEC0DF0F8
:104AD0000DC0F6FF0EC0F7FFF86A0DC00FF00EC054
:104AE00010F053EC0DF0FA0E9BEC0BF060EC29F09B
:104AF000D8A481EF25F0110E0D26D8B00E2A88EF2C
:104B000025F0D8A095EF25F0130E0D26D8B00E2A6B
:104B10000DC0F6FF0EC0F7FFF86A0900F5CF0DF0E3
:104B20000900F5CF0EF065EF25F004EC25F04FEC11
:104B30001EF0D8A065EF25F0150E0D26D8B00E2A70
:104B40000DC0F6FF0EC0F7FFF86A0900F5CF11F0AF
:104B50000900F5CF12F00FC00DF010C00EF00900E3
:104B6000F5CF0FF00900F5CF10F00900F5CFCEF02A
:104B70000900F5CFCFF00001B96BBA6BBB697F0EAE
:104B8000E8CFBCF012ACD1EF25F00900F5CFB9F0B9
:104B90000900F5CFBAF00900F5CFBBF00900F5CF59
:104BA000BCF012A4DAEF25F00900F5CFEAF0090015
:104BB000F5CFEBF012A2E3EF25F00900F5CFECF012
:104BC0000900F5CFEDF012AEE8EF25F032EC0DF074
:104BD00012A6EDEF25F048EC0DF012A21200000134
:104BE000E86AE8CFFBFFEDC0E8FFE8CFFAFFECC0D2
:104BF000E8FFF96EE8CF0AF00FC01BF010C01CF000
:104C00000FC0F6FF10C0F7FFF86A150EF626D8B0F1
:104C1000F72A0900F5CFE8FF0A6210EF26F012002C
:104C20000FC0F6FF10C0F7FF110EF626D8B0F72A16
:104C30000900F5CF0FF00900F5CF10F00FC0E8FF25
:104C40001B6200EF26F010C0E8FF1C6200EF26F0A8
:104C50001200000110500F10D8B41200E86AFB6E69
:104C60001050E8CFFAFF0F50F96E00010F50E16EBF
:104C70001050E26E0001000E116253EF26F00FC0DB
:104C8000F6FF10C0F7FFF86A160EF626D8B0F72A1E
:104C9000CEC0E1FFCFC0E2FFE7CFE8FFFAEC25F09E
:104CA000CDEC28F01200010E11625AEF26F0FCEC58
:104CB00027F01200020E116284EF26F0000112A00C
:104CC00065EF26F0CE510001B86FE6CF0AF0E5CFD0
:104CD0000BF000010AC011F00BC012F0129E129CE2
:104CE00052EC28F000010FC0E1FF10C0E2FF11C03C
:104CF0000AF012C00BF00AC0E6FFE7CFE8FFC00BD6
:104D00000B120BC0E5FF1200030E116299EF26F0A3
:104D1000E7CFE8FFE83655EC27F0000ED8B0E81EE4
:104D20000A6E00010FC0E1FF10C0E2FF0AC0E7FFFA
:104D30001200040E1162AAEF26F0E7CFE8FF14EC90
:104D400029F00A6E00010FC0E1FF10C0E2FF0AC0A7
:104D5000E7FF1200050E1162BCEF26F0E7CFE8FF77
:104D6000AAEC27F0E8CF0AF000010FC0E1FF10C065
:104D7000E2FF0AC0E7FF1200060E1162D2EF26F032
:104D8000E7CF0AF00FC0CEF010C0CFF000013C0E0C
:104D90000F6E790E106E0AC0E8FFFAEC25F0CDEC2C
:104DA00028F01200070E1162D9EF26F029EC26F048
:104DB0001200080E1162EAEF26F0E7CFE8FFA4EC3C
:104DC00027F0E8CF0AF000010FC0E1FF10C0E2FFBA
:104DD0000AC0E7FF0A0E11620BEF27F0E7CFE8FFEA
:104DE0000001CE15D890D8B4D88055EC27F000013A
:104DF000CEC00AF000010FC0E1FF10C0E2FFD8B042
:104E000006EF27F00AC0E8FFE71212000AC0E8FF29
:104E1000E81EE716120012000B6AD8B00B1EC00E77
:104E20000DEC0DF0000EF86E630EF76EE00EF66EF0
:104E300053EC0DF00BA031EF27F0C80E0DEC0DF088
:104E4000280EFEEC0CF0CC0E0DEC0DF0290EFEEC55
:104E50000CF0CF0E0DEC0DF0200EFEEC0CF043EF3D
:104E600027F0C80E0DEC0DF0200EFEEC0CF0CC0E71
:104E70000DEC0DF0280EFEEC0CF0CF0E0DEC0DF04D
:104E8000290EFEEC0CF060EC29F0D8B40B6AFF0E92
:104E9000D8B00B6E04EC25F04FEC1EF0D8A01AEF42
:104EA00027F0D8900BB0D88012000B6AD8B00B1E38
:104EB000C80E0DEC0DF0000EF86E640EF76E160EB7
:104EC000F66E53EC0DF00BA07AEF27F0C80E0DEC48
:104ED0000DF0280EFEEC0CF0CC0E0DEC0DF0290EB2
:104EE000FEEC0CF0CF0E0DEC0DF0200EFEEC0CF0F5
:104EF0008CEF27F0C80E0DEC0DF0200EFEEC0CF040
:104F0000CC0E0DEC0DF0280EFEEC0CF0CF0E0DECDF
:104F10000DF0290EFEEC0CF060EC29F0D8B40B6A11
:104F2000FF0ED8B00B6E04EC25F04FEC1EF0D8A0AD
:104F300063EF27F0D8900BB0D88012000001BB655A
:104F4000BB51B961B95112000001E86900019D6FC0
:104F5000AEEF27F000019D6F0001E86BC80E9BECDF
:104F60000BF09DC0E8FF0001136E146A156A166A03
:104F7000E1EC0DF00001E867CCEF27F0CD0E0DEC71
:104F80000DF02750FEEC0CF02850FEEC0CF02950F0
:104F9000FEEC0CF0DBEF27F0CC0E0DEC0DF0275003
:104FA000FEEC0CF02850FEEC0CF02E0EFEEC0CF09B
:104FB0002950FEEC0CF086EC29F00001D8A4E7EFB4
:104FC00027F09D2BBB519D619D6FF2EF27F0D8A07C
:104FD000F2EF27F09D51B961F2EF27F09D07B9512B
:104FE0009D659D6F04EC25F04FEC1EF0D8A0AEEF50
:104FF00027F000019D51120034EC25F0FA0E9BECD5
:105000000BF0E7CFE8FFE7BEE81EE7BEE82A0001A5
:10501000136E146A156A166AE1EC0DF0CB0E0DECF6
:105020000DF0200EE7BE2D0EFEEC0CF02750FEEC2E
:105030000CF02850FEEC0CF02950FEEC0CF0250E84
:10504000FEEC0CF086EC29F00001D8A42BEF28F040
:10505000E72A2FEF28F0D8A02FEF28F0E70604EC7E
:1050600025F04FEC1EF0D8A0FCEF27F00001EF6B0D
:10507000120000011150BB5D1250BC59D8B046EF70
:1050800028F0BB51116EBC51126E1200B951115C67
:10509000BA511258D8B051EF28F0B951116EBA5127
:1050A000126E120039EC28F00001BE6B0001B851FD
:1050B000E812D8B464EF28F0B851E16E000EE26E49
:1050C00011C0E6FF12C0E7FF320E9BEC0BF011C0DF
:1050D00013F012C014F0D89014321332156A166A05
:1050E000E1EC0DF0C90E0DEC0DF02650FEEC0CF0CD
:1050F0002E0EFEEC0CF02750FEEC0CF02850FEECCF
:105100000CF02950FEEC0CF06D0EFEEC0CF0530E82
:10511000FEEC0CF086EC29F00001D8A49FEF28F0FB
:10512000112AD8B4122A112AD8B4122ABC511262F8
:1051300052EF28F0BB511160116E52EF28F0D8A049
:10514000B1EF28F01106D8A012061106D8A0120659
:10515000BA51126252EF28F0B9511164116E52EF38
:1051600028F0000133A2BE6933BCBCEF28F0000177
:10517000A00E116E0F0E126E000133BEC5EF28F0A7
:105180000001D00E116E070E126E04EC25F04FECEC
:105190001EF0D8A056EF28F01200C00E0DEC0DF056
:1051A0000FC0F6FF10C0F7FF53EC0DF0FA0E9BECAA
:1051B0000BF086EC29F0D8A4E4EF28F0110E0F26AE
:1051C000D8B0102AEBEF28F0D8A0F8EF28F0130E93
:1051D0000F26D8B0102A0FC0F6FF10C0F7FFF86AEC
:1051E0000900F5CF0FF00900F5CF10F0CDEF28F052
:1051F00004EC25F04FEC1EF0D8A0CDEF28F0150EF2
:105200000F26D8B0102A0FC0F6FF10C0F7FFF86ABB
:105210000900F5CF0AF00900F550CEC0E1FFCFC07C
:10522000E2FF0AC0E7FF12000F0BE8B6080B0C0DF7
:10523000F3CF13F0F4CF14F00001700E13266F0EAD
:105240001422CC0E0DEC0DF013C0F6FF14C0F7FFC6
:1052500053EC0DF0FA0E9BEC0BF086EC29F0D8A481
:1052600038EF29F0050E1326D8B0142A3FEF29F0A5
:10527000D8A04CEF29F0070E1326D8B0142A13C07B
:10528000F6FF14C0F7FFF86A0900F5CF13F0090024
:10529000F5CF14F021EF29F004EC25F04FEC1EF0CF
:1052A000D8A021EF29F0090E1326D8B0142A13C074
:1052B000F6FF14C0F7FFF86A0900F5CFE8FF120007
:1052C000040E91EC08F0040E91EC08F0C5C0E8FF64
:1052D000C35EC6C0E8FFC45AC4BE79EF29F0640EAD
:1052E000C35E000EC45AC4BE83EF29F0D884D890A0
:1052F0001200640EC326000EC422C4AE83EF29F050
:10530000D894D8801200D894D8901200050E91EC51
:1053100008F0050E91EC08F0C7C0E8FFC35EC8C0F6
:10532000E8FFC45AC4BE9FEF29F0640EC35E000EAE
:10533000C45AC4BEA9EF29F0D884D8901200640ED4
:10534000C326000EC422C4AEA9EF29F0D894D88099
:105350001200D894D8901200A6EF2AF0800E0DEC1F
:105360000DF0000EF86E650EF76EA00EF66E53ECA3
:105370000DF0F3EF2AF00101B80E1E6F650E1F6FDE
:105380000101A40E206F670E216F36EC2AF075EC38
:105390001EF000C2E8FF06EC1FF033EC1FF0120015
:1053A0000101D00E1E6F650E1F6F0101960E206F5A
:1053B000680E216F36EC2AF0C7EF29F00101E80EE4
:1053C0001E6F650E1F6F0101800E206F6A0E216F28
:1053D00036EC2AF0C7EF29F00101000E1E6F660EB1
:1053E0001F6F0101DC0E206F6F0E216F36EC2AF06B
:1053F000C7EF29F00101180E1E6F660E1F6F010125
:10540000AA0E206F760E216F36EC2AF0C7EF29F036
:105410000001DD6B0101300E1E6F660E1F6F010172
:10542000B40E206F7C0E216F36EC2AF0C7EF29F006
:105430000101480E1E6F660E1F6F0101FC0E206FEA
:10544000800E216F36EC2AF0C7EF29F00101600EC3
:105450001E6F660E1F6F0101760E206F840E216F86
:1054600036EC2AF0C7EF29F023EF31F02DEC25F0D0
:1054700020C10DF021C10EF05EEC25F00DC020F131
:105480000EC021F1EAC026F1EBC027F10001115056
:10549000090AD8A498EF2AF00FC00DF010C00EF042
:1054A0005EEC25F00DC022F10EC023F1EAC028F118
:1054B000EBC029F100011150090AD8A480EF2AF0AD
:1054C0000FC00DF010C00EF05EEC25F00DC024F101
:1054D0000EC025F1EAC02AF1EBC02BF135EC26F025
:1054E0000001CDB186EF2AF02AC10FF02BC110F0D8
:1054F00029EC26F024C10DF025C10EF064EF2AF04E
:1055000035EC26F00001CDB19DEF2AF028C10FF057
:1055100029C110F029EC26F020C10DF021C10EF0B8
:1055200032EC0DF022C10DF023C10EF050EF2AF045
:1055300035EC26F00001CDB1120026C10FF027C1D5
:1055400010F029EC26F036EF2AF0120000C2E8FF36
:1055500086EC1EF0800E0DEC0DF0000EF86E630E62
:10556000F76EAA0EF66E53EC0DF08D0E0DEC0DF0ED
:10557000020100510001136E146A156A166AAFEC3D
:105580000DF0CBEC05F0FA0E9BEC0BF086EC29F05D
:10559000D8A4D5EF2AF0610E0201002B0063A6EF1C
:1055A0002AF0010E006FA6EF2AF0D8A0E3EF2AF050
:1055B00002010007000E0063A6EF2AF0600E020150
:1055C000006FA6EF2AF04FEC1EF0D8A0C6EF2AF02D
:1055D00000C2E8FFDBEC1EF000C2E8FFE8CFA5F058
:1055E00075EC1EF01200C00E0DEC0DF0CBEC05F0CA
:1055F000000EE16E030EE26E960E9BEC0BF0C00EF9
:10560000E1240DEC0DF0E750FEEC0CF0C00EE124AF
:105610000DEC0DF00E0E0DEC0DF060EC29F0D8A4A1
:105620001BEF2BF0E12A0F0EE164FCEF2AF0000ED5
:10563000E16EFCEF2AF0D8A027EF2BF0E106FF0E79
:10564000E162FCEF2AF00F0EE16EFCEF2AF086EC2F
:1056500029F0D8A432EF2BF0E72A7A0EE760E76E44
:10566000FCEF2AF0D8A03BEF2BF0E706200EE76412
:10567000E76EFCEF2AF04FEC1EF0D8A00DEF2BF0F8
:105680000C0E0DEC0DF000C2E8FF06EC1FF012004E
:105690000DC02CF10EC02DF10FC02EF110C02FF156
:1056A000D0C00DF0D1C00EF00001E80E0F6E030E59
:1056B000106E33EC10F00001000E176E010E186E24
:1056C00037EC11F013C0D0F014C0D1F00001D2516A
:1056D000D027D351D123D4C00DF0D5C00EF0000196
:1056E000E80E0F6E030E106E33EC10F00001000E8A
:1056F000176E010E186E37EC11F0D2C0D4F0D3C083
:10570000D5F01350D45F1450D55B2CC10DF02DC1D2
:105710000EF02EC10FF02FC110F012000DC02CF1B1
:105720000EC02DF10FC02EF110C02FF1D0C00DF022
:10573000D1C00EF0D2510D5ED3510E5A0001000EB1
:105740000F6E010E106E33EC10F00001E80E176EB4
:10575000030E186E37EC11F013C0D0F014C0D1F066
:10576000D2C00DF0D3C00EF0D4510D5ED5510E5AFB
:105770000001000E0F6E010E106E33EC10F00001F0
:10578000E80E176E030E186E37EC11F013C0D4F04C
:1057900014C0D5F02CC10DF02DC10EF02EC10FF0AC
:1057A0002FC110F012000DC02CF10EC02DF10FC052
:1057B0002EF110C02FF10001BEA10BEF2CF0000E56
:1057C00000010F18D8B4F6EF2BF0D2C013F0D3C0FD
:1057D00014F0D89013361436D051135ED151145AA8
:1057E00013C0D4F014C0D5F00BEF2CF0000E000164
:1057F0000F18D8B40BEF2CF0D2C013F0D3C014F0B4
:10580000D89013361436D451135ED551145A13C0A0
:10581000D0F014C0D1F02CC10DF02DC10EF02EC16E
:105820000FF02FC110F012003C0E0001B86F000104
:10583000110EB56F030EB66F0001D00EB36F000EE0
:10584000B46F0B0EB76F35EC23F0DB6B48EC2BF02D
:1058500012003A0E0001B86F00011C0EB56F030E66
:10586000B66F1CEF2CF03E0E0001B86F0001270E42
:10587000B56F030EB66F1CEF2CF00001110EB36F65
:10588000030EB46FD3EC2BF0DBA1D86B8EEC2BF0B6
:105890000001D00EB56F000EB66F0B0EB76F35EC72
:1058A00023F00001B86B120000011C0EB36F030E51
:1058B000B46F42EF2CF00001270EB36F030EB46FEC
:1058C00042EF2CF00DC02CF10EC02DF10FC02EF1C7
:1058D00010C02FF1030132C30DF033C30EF00001ED
:1058E000E80E0F6E030E106E33EC10F00001000E88
:1058F000176E010E186E37EC11F013C032F314C09E
:1059000033F3030134513227355133232CC10DF0C9
:105910002DC10EF02EC10FF02FC110F012000DC0DE
:105920002CF10EC02DF10FC02EF110C02FF132C39B
:105930000DF033C30EF00301345100010D5E03017D
:10594000355100010E5A0001000E0F6E010E106E4F
:1059500033EC10F00001E80E176E030E186E37ECF2
:1059600011F013C032F314C033F32CC10DF02DC16C
:105970000EF02EC10FF02FC110F00001B86B120015
:10598000420E0001B86F00013A0EB56F030EB66FFC
:105990000001D00EB36F000EB46F040EB76F35EC7C
:1059A00023F048EC2BF01200440E0001B86F000108
:1059B0003E0EB56F030EB66FC8EF2CF0460E000119
:1059C000B86F0001420EB56F030EB66FC8EF2CF032
:1059D00000013A0EB36F030EB46F8EEC2BF0000192
:1059E000D00EB56F000EB66F040EB76F35EC23F016
:1059F0000001B86B120000013E0EB36F030EB46FCE
:105A0000EDEF2CF00001420EB36F030EB46FEDEF1B
:105A10002CF00001460EB56F030EB66F0001D00EDC
:105A2000B36F000EB46F060EB76F35EC23F048EC81
:105A30002BF012008EEC2BF00001D00EB56F000E93
:105A4000B66F0001460EB36F030EB46F060EB76F4C
:105A500035EC23F00001B86B1200AEC2B9F0AFC252
:105A6000BAF0B0C2BBF0B1C2BCF01200CEC0B5F00B
:105A7000CFC0B6F00001DC0EB36F000EB46F050EA0
:105A8000B76F35EC23F0CEC0B3F0CFC0B4F0000157
:105A9000DC51E83A0F0BE46FE36BDDBFE31FE16B12
:105AA000DF51DDBDE16FE26BE051DDBBE26F0F0E58
:105AB000E117E217DD17DC1712000001E451E83AA4
:105AC000F00BDC13E3BFDD8FE151E812D8B46CEFCB
:105AD0002DF0E151DF6FDD8DE251E812D8B474EFA3
:105AE0002DF0E251E06FDD8B0001DC0EB56F000E92
:105AF000B66F050EB76F35EC23F0120010C4DFF05F
:105B000011C4E0F01200DFC010F4E0C011F4120084
:105B100012C4DFF013C4E0F01200DFC012F4E0C0E2
:105B200013F4120014C4DFF015C4E0F01200DFC05B
:105B300014F4E0C015F412000001DBAF1200030101
:105B4000196B246B2F6B12000001DBAF1200A7C38F
:105B500013F0A8C314F0835113268451142213C0E8
:105B6000A7F314C0A8F3A9C313F0AAC314F0855176
:105B700013268651142213C0A9F314C0AAF3ABC391
:105B800013F0ACC314F0875113268851142213C0AC
:105B9000ABF314C0ACF312000001DBAF1200030141
:105BA000A76BA86BA96BAA6BAB6BAC6B1200000167
:105BB000B96B600E0001BB6F12000001DD51DD67A3
:105BC000E3EF2DF01200020100C20AF0006F0001A5
:105BD0000AC0DDF006EC1FF00001DDC00AF0020192
:105BE0000AC000F212000001DBAF120003011951DC
:105BF000196B18C30AF000010D6E0E6AE8BE0E683C
:105C00000D360E360001640E0F6E000E106E33EC72
:105C100010F00AC017F0186A37EC11F013500301A6
:105C2000A727000114500301A82303012451246B6A
:105C300023C30AF000010D6E0E6AE8BE0E680D3631
:105C40000E360001640E0F6E000E106E33EC10F075
:105C50000AC017F0186A37EC11F013500301A92796
:105C6000000114500301AA2303012F512F6B2EC3EF
:105C70000AF000010D6E0E6AE8BE0E680D360E3693
:105C80000001640E0F6E000E106E33EC10F00AC0AF
:105C900017F0186A37EC11F013500301AB2700011D
:105CA00014500301AC2312000001DBAF120084EC9E
:105CB00031F0120035EC23F012000001D00EB36F6A
:105CC000000EB46FCEC0B5F0CFC0B6F00B0EB76FFC
:105CD00035EC23F00001D00EB56F000EB66FCEC0CC
:105CE000B3F0CFC0B4F00B0EB76F12000201D89022
:105CF000A23712000201D890A23312000001E9AFCE
:105D00001200DDEC0FF0120013C20FF014C210F0FD
:105D1000030E0001A06F33EC30F00FC013F210C07F
:105D200014F21200A9C20FF0AAC210F00D0E000169
:105D3000A06F33EC30F00FC0A9F210C0AAF212002D
:105D40000001DBAF12000501006B016B1200C7EC14
:105D50000BF012000001CE51B36F020EB46FCF51A1
:105D600000011F6E030E7CEC08F014C08BF015C010
:105D70008CF0C00E0DEC0DF0000EF86E8A0EF76E72
:105D80008E0EF66E53EC0DF04FEC1EF0D8A0C4EF63
:105D90002EF000011F507CEC08F014C06DF015C00F
:105DA0006EF014C06FF015C070F0FA0E9BEC0BF0A3
:105DB000C00E0DEC0DF0000EF86E8A0EF76EA00E00
:105DC000F66E53EC0DF04FEC1EF0D8A0E3EF2EF082
:105DD00000011F507CEC08F014C06BF015C06CF093
:105DE000FA0E9BEC0BF000016B516D276C516E238A
:105DF0006E336D336E9F6FC017F070C018F00001E6
:105E0000E80E146E030E156E136A166A6B51175E58
:105E10006C51185A18321732189E196A1A6A37ECE0
:105E200011F013C06BF014C06CF000016B0EB56F75
:105E3000000EB66F040E0001B76F35EC23F01200B0
:105E40000001CE51B36F020EB46FCF5100011F6E2F
:105E5000C00E0DEC0DF0000EF86E8A0EF76E8E0E71
:105E6000F66E53EC0DF04FEC1EF0D8A033EF2FF090
:105E700000011F507CEC08F014C06BF015C06CF0F2
