:020000040000FA
:100000000CD0D9D0E3D001D0FFD0040EA66EDED83C
:10001000A6B2FED71200FFFFFFD004008450030BEE
:1000200006E0A66AA968AA68A680A83CE9D0949CC4
:10003000900EAB6E260EAC6E0F0ED56ED76AD66ADA
:10004000BFD8D58EBDD8D59ED6CF03F0D7CF02F07E
:10005000050E02320332E82EFCD7D8A0030603C0F7
:10006000AFFFA1D80F0AFDE19ED80F0AFAE100EE1A
:1000700008F0006A016A97D80F0AF6E00450040AF3
:100080000AE00450050A01E18ED804500026EE6E05
:10009000014EE7D7F0D70052E4E10A50F66EA96EA0
:1000A0000B50F76EAA6E0CC0F8FF00EE0DF0095071
:1000B000016ED8B4FF0008500708D3E3FA6AFB6A60
:1000C0000844F92607D00CD013D022D02CD036D03B
:1000D00007D03CD0040E0A6E000E0B6E030E40D00B
:1000E0000900F5CFEEFF012EFBD70950050F38D0E0
:1000F000F80EF616080EEECFF5FF0D00E82EFBD732
:100100000A00840EA66E62D80900012EF1D727D00E
:10011000940EA66E5BD8400EF626E86AF722F82207
:10012000012EF6D71CD0A66AA680A8CFEEFFA94A5A
:10013000AA2A012EF8D70950050F12D0EECFA8FF3A
:1001400064DFA94AAA2A012EF9D709D0C40EA66EE7
:10015000EECFF5FF0D003AD8012EF8D700D0010EF2
:10016000016E0F0E1BD81AD8006A00EE08F0EE5090
:10017000002608D8012EFBD7006C005003D8040ECF
:100180000DD86FD7056E0F0A06E00550040A03E08C
:100190000550050A02E1050E01D8055004009EA88D
:1001A000FED7AD6E12000400ABB2FF009EAAFED7D0
:1001B000AE50046E1200A968AA68A86826DFFF0086
:1001C00082BEFED7040082AEFED712000400550E98
:1001D000A76EAA0EA76EA68200001200FFFFFFFF07
:1001E000FFFFFFFFFFFFFFFFFFFFFFFFFFFFFFFF1F
:1001F000FFFFFFFFFFFFFFFFFFFFFFFFFFFFFFFF0F
:100200006BEF03F0FFFFFFFF0EEF01F0FFFFFFFFBB
:10021000FFFFFFFFFFFFFFFF2DEF01F0D8CF01F041
:10022000E0CF02F0006EF3CF03F0F4CF04F0F0ACB7
:100230001DEF01F0F0B0D8EC0BF0A2A023EF01F01D
:10024000A1B080EC09F003C0F3FF04C0F4FF00503C
:1002500002C0E0FF01C0D8FF1000D8CF06F0E8CF01
:1002600005F0E0CF07F0F3CF08F0F4CF09F0F0BCD1
:100270003DEF01F0F0B0D8EC0BF0A2B043EF01F08D
:10028000A1B080EC09F0A2B04CEF01F0AECFE8FFD6
:100290006ECFE8FF52EF01F09EBA53EC10F0A4BA13
:1002A000BEEC10F008C0F3FF09C0F4FF07C0E0FF88
:1002B00005C0E8FF06C0D8FF1000FFFFFFFFFFFFEB
:1002C000FFFFFFFFFFFFFFFFFFFFFFFFFFFFFFFF3E
:1002D000FFFFFFFFFFFFFFFFFFFFFFFFFFFFFFFF2E
:1002E000FFFFFFFFFFFFFFFFFFFFFFFFFFFFFFFF1E
:1002F000FFFFFFFFFFFFFFFFFFFFFFFFFFFFFFFF0E
:10030000F95000011150F9267FEF2DF081EF2DF00B
:100310008EEF2DF0A3EF2DF0B1EF2DF0BFEF2DF00C
:10032000CDEF2DF0DBEF2DF0EBEF2DF0F9EF2DF011
:1003300007EF2EF009EF2EF012000F0B0009D8A4E2
:10034000A3EF01F01200E806030B0A0DF9CFE8FF56
:10035000F350F92685C00FF086C010F0120087C058
:100360000FF088C010F0120089C00FF08AC010F0A2
:1003700012008BC00FF08CC010F01200FFFFFFFFC7
:10038000FFFFFFFFFFFFFFFFFFFFFFFFFFFFFFFF7D
:10039000FFFFFFFFFFFFFFFFFFFFFFFFFFFFFFFF6D
:1003A000FFFFFFFFFFFFFFFFFFFFFFFFFFFFFFFF5D
:1003B000FFFFFFFFFFFFFFFFFFFFFFFFFFFFFFFF4D
:1003C000FFFFFFFFFFFFFFFFFFFFFFFFFFFFFFFF3D
:1003D000FFFFFFFFFFFFFFFFFFFFFFFFFFFFFFFF2D
:1003E000FFFFFFFFFFFFFFFFFFFFFFFFFFFFFFFF1D
:1003F000FFFFFFFFFFFFFFFFFFFFFFFFFFFFFFFF0D
:10040000EFCFE8FFE806070B0A0DF9CFE8FFF3503E
:10041000F9263EC050F03FC051F012003CC050F0F1
:100420003DC051F0120040C050F041C051F01200E8
:1004300042C050F043C051F0120044C050F045C0DB
:1004400051F0120046C050F047C051F0120048C0B1
:1004500050F049C051F012004AC050F04BC051F06A
:1004600012000F0B060DF9CFE8FFF350F926BBC2BF
:10047000E8FF1200BCC2E8FF1200BDC2E8FF120094
:10048000BEC2E8FF1200BFC2E8FF1200C0C2E8FF10
:100490001200C1C2E8FF1200C2C2E8FF1200C3C2CC
:1004A000E8FF1200C4C2E8FF1200C5C2E8FF120054
:1004B000C6C2E8FF1200C7C2E8FF1200C8C2E8FFC8
:1004C0001200C9C2E8FF1200CAC2E8FF1200FFFF13
:1004D000FFFFFFFFFFFFFFFFFFFFFFFFFFFFFFFF2C
:1004E000FFFFFFFFFFFFFFFFFFFFFFFFFFFFFFFF1C
:1004F000FFFFFFFFFFFFFFFFFFFFFFFFFFFFFFFF0C
:100500000001E806070B0A0DF9CFE8FFF350F926C2
:100510009A510D6E9B510E6E12009C510D6E9D51A5
:100520000E6E12009E510D6E9F510E6E1200A05164
:100530000D6EA1510E6E1200A2510D6EA3510E6EE2
:100540001200A4510D6EA5510E6E1200A6510D6E33
:10055000A7510E6E1200A8510D6EA9510E6E120019
:10056000FFFFFFFFFFFFFFFFFFFFFFFFFFFFFFFF9B
:10057000FFFFFFFFFFFFFFFFFFFFFFFFFFFFFFFF8B
:10058000FFFFFFFFFFFFFFFFFFFFFFFFFFFFFFFF7B
:10059000FFFFFFFFFFFFFFFFFFFFFFFFFFFFFFFF6B
:1005A000FFFFFFFFFFFFFFFFFFFFFFFFFFFFFFFF5B
:1005B000FFFFFFFFFFFFFFFFFFFFFFFFFFFFFFFF4B
:1005C000FFFFFFFFFFFFFFFFFFFFFFFFFFFFFFFF3B
:1005D000FFFFFFFFFFFFFFFFFFFFFFFFFFFFFFFF2B
:1005E000FFFFFFFFFFFFFFFFFFFFFFFFFFFFFFFF1B
:1005F000FFFFFFFFFFFFFFFFFFFFFFFFFFFFFFFF0B
:100600000001E8BE33EF03F0E806070B0A0DF9CF4F
:10061000E8FFF350F9260D5075270E50762312008F
:100620000D5077270E50782312000D5079270E5069
:100630007A2312000D507B270E507C2312000D50A0
:100640007D270E507E2312000D507F270E508023F1
:1006500012000D5081270E50822312000D50832767
:100660000E5084231200E806070B0A0DF9CFE8FFAD
:10067000F350F9260D50756F0E50766F12000D5025
:10068000776F0E50786F12000D50796F0E507A6FA1
:1006900012000D507B6F0E507C6F12000D507D6F5D
:1006A0000E507E6F12000D507F6F0E50806F120043
:1006B0000D50816F0E50826F12000D50836F0E50DF
:1006C000846F1200F2AE12000001010EAE6FAE6731
:1006D00067EF03F012001AEC0CF0928802C5E8FFF5
:1006E000E81EE86676EF03F092988098939C819CD0
:1006F00000015D6A5E6A0001566A640E0FEC0CF040
:10070000280EE8CFD4F20001500E386EC30E396EB9
:100710000F018350306E316E326E0F018450336E94
:10072000346E356E0F0199908780949693948296DB
:1007300081940001000E176E000E186E0001000E6D
:10074000196E000E1A6E0001000E1B6E000E1C6E5C
:100750000001000E1D6E000E1E6E0001000E136ED5
:10076000000E146E0001000E156E000E166E0001D4
:10077000000EB86F000EB96F0001000EBA6F000EC8
:10078000BB6F0001000EBC6F000EBD6F0001000EBC
:10079000BE6F000EBF6F0001606B616B626BAE6B72
:1007A000AF6BB06BF469F66B0201BA6B0101116BB0
:1007B0000001D96BEEEC36F0020100510001B26F7E
:1007C000040EFAEC08F0040EFAEC08F00001C35035
:1007D000D26FC450D36F050EFAEC08F0050EFAEC98
:1007E00008F00001C350D46FC450D56F84EC0DF0F5
:1007F000FA0E0FEC0CF0FA0E0FEC0CF0FA0E0FECF8
:100800000CF0FA0E0FEC0CF02FEC09F0DBEC27F0FB
:10081000E8EC0FF0FCEC0FF03DEC4CF0F28EF28CBB
:10082000D08E0F01D89083B6D880D8B01DEF04F0D9
:100830000A0E0FEC0CF00F01D89083B6D880D8B018
:1008400033EF04F00F01D89084B2D880D8B02EEFE7
:1008500004F00A0E0FEC0CF00F01D89084B2D8808F
:10086000D8A055EF04F049EC21F00201A50EA763D2
:1008700040EF04F0E70EA86340EF04F044EF04F00B
:10088000EEEC36F08DEC0CF000C2E8FFC4EC21F089
:100890000301AD510201A56F63EC0BF0DEEC0AF031
:1008A0000101F20E066F1BEC0BF00F01D89084B221
:1008B000D880D8A055EF04F00A0E0FEC0CF00F0111
:1008C000D89084B2D880D8A055EF04F0809802C5A3
:1008D000E8FFE8668078D2C2E8FFE86675EF04F0CA
:1008E000808802C5E8FFE866807892981E0EE8CFFF
:1008F00015F0840EE8CF14F0800EE8CF13F0D4C2C8
:1009000017F0E86AE8CF18F015EC13F0D5C2E8FF4D
:1009100000011326E86A142213C038F014C039F01D
:10092000040EFAEC08F0040EFAEC08F00001C350D3
:10093000D26FC450D36F050EFAEC08F0050EFAEC36
:1009400008F00001C350D46FC450D56F0F01D89088
:1009500084B4D880D8B0B2EF04F00A0E0FEC0CF0DB
:100960000F01D89084B4D880D8B0C8EF04F00F013C
:10097000D89083B6D880D8B0C3EF04F00A0E0FEC3D
:100980000CF00F01D89083B6D880D8A022EF08F0E1
:100990000201A0C20AF00201FF0E0AB0A56FA56114
:1009A00035EF05F00301A6A115EF05F00F0183BE99
:1009B00015EF05F0800E28EC0EF0000EF86E6F0EAD
:1009C000F76E520EF66ED5EC0EF0C00E28EC0EF05F
:1009D000000EF86E6E0EF76EF20EF66ED5EC0EF09F
:1009E0000F01D89084B4D880D8B0FCEF04F00A0E80
:1009F0000FEC0CF00F01D89084B4D880D8B0F0EF91
:100A000004F00F01D89084B4D880D8A001EF05F08D
:100A10000A0E0FEC0CF00F01D89084B4D880D8A047
:100A200001EF05F0C80E0FEC0CF00201D1B11CEF84
:100A300005F0D1A335EF05F0800E0001AA6F93EC0D
:100A400035F0D89074EC2AF0D8B02CEF05F0020104
:100A5000FF0EA56F35EF05F063EC0BF0DEEC0AF04E
:100A60001BEC0BF00A0E0FEC0CF00001010E366EC1
:100A7000A3C254F0A4C255F00201A25100014F6E6E
:100A800073EC26F01CEC22F0C00EE8CF90F0E8CF1B
:100A900092F0FCAE4FEF05F00F01939481940001AA
:100AA00033B06FEF05F0010E3662DFEF05F00001A5
:100AB000050EE8CF5FF0070EA2EC0AF0020E366ECC
:100AC0000001B2510201006368EF05F0DFEF05F0AD
:100AD000006FC4EC21F01CEC22F0DFEF05F0010EFA
:100AE000366E14EC26F0A8EC19F0A7EC07F0020122
:100AF000A1A1A0EF05F00301B65188EC27F0D8A022
:100B0000A0EF05F00201B76798EF05F0B8C075F0E7
:100B1000B9C076F0BAC077F0BBC078F0BCC079F04D
:100B2000BDC07AF0BEC07BF0BFC07CF0A0EF05F086
:100B3000F08CF086A290E868E8CFFBF0A6EF05F015
:100B4000F09CF086A280E86AE8CFFBF00201A0B139
:100B5000CDEF05F0DAEC18F0D8B4CDEF05F069EC84
:100B60001BF0FCEC1AF0C2EC1DF0D2EC1EF0C7EC4E
:100B70001BF043EC1CF056EC24F074EC22F05EEC1D
:100B800024F0AFEC24F039EC1DF05DEC1EF055ECD8
:100B90004CF00001F667E6EC11F062EC03F0B3EC08
:100BA0001FF058EC11F0A1EC0FF00001AF67DDEF82
:100BB00005F00A0EAF6F2DEC06F049EF05F0800E40
:100BC00028EC0EF0000EF86E700EF76E840EF66EC6
:100BD000D5EC0EF0C00E28EC0EF0000EF86E6E0E86
:100BE000F76EF20EF66ED5EC0EF038EC21F0D8A0D0
:100BF000FCEF05F055EC28F0A8EC19F069EC1BF0BF
:100C0000FCEC1AF0C2EC1DF0D2EC1EF0C7EC1BF0AD
:100C100043EC1CF056EC24F074EC22F05EEC24F073
:100C2000AFEC24F039EC1DF05DEC1EF0B3EC1FF0DE
:100C3000A1EC0FF049EF05F00001100E0B6EC00E95
:100C400028EC0EF0000EE16E030EE26EE65019EC99
:100C50000EF00B2E26EF06F012004AC1E8FFE86600
:100C6000C9EF4DF00001840E28EC0EF0200E19ECB7
:100C70000EF00201520EA5BF200E000119EC0EF07D
:100C80000601CE5188EC27F0410ED8A0200E19ECB9
:100C90000EF00301B25188EC27F04D0ED8B02D0EA6
:100CA00019EC0EF00301B35188EC27F04D0ED8B0CB
:100CB0002D0E19EC0EF00301B45188EC27F04D0E07
:100CC000D8B02D0E19EC0EF0200E19EC0EF0800E9F
:100CD00028EC0EF0B9C20DF0BAC20EF00E6A000197
:100CE000640E0F6E000E106E11EC12F013C011F0B6
:100CF00014C012F08DC00DF08EC00EF013C20FF0B4
:100D000014C210F011EC12F01450E8CF13F015508B
:100D1000E8CF14F0156A010111B19FEF06F0000150
:100D20001150135C12501458E8AE9FEF06F0C90E34
:100D300000015F6E050EA2EC0AF0010111690001CD
:100D400058EC0FF0200EE8CF0AF0300E25640AC0F0
:100D500025F0255019EC0EF0265019EC0EF02E0E51
:100D600019EC0EF0275019EC0EF00301B65188EC87
:100D700027F0D8A0D8EF06F0A1C2E8FFE81EE86689
:100D8000CFEF06F0800E28EC0EF0000EF86E6F0E1E
:100D9000F76E280EF66ED5EC0EF0D8EF06F0800E4A
:100DA00028EC0EF000C513F001C514F02EEC0FF086
:100DB0000201B8AFF1EF06F0B86B000EE8CF0DF00E
:100DC000E86AE8CF0EF000C5E8FF49EC0CF0010E30
:100DD000E8CF0DF0E86AE8CF0EF001C5E8FF49EC76
:100DE0000CF0D0EC07F0D8B01BEF07F0E1EC07F007
:100DF000D8B01BEF07F0E0EC27F0D8B01BEF07F0FE
:100E0000A7EC26F00001B051E812D8A41BEF07F0C0
:100E10000201A0A119EF07F0C00E28EC0EF0000EA1
:100E2000F86E6F0EF76E0C0EF66ED5EC0EF01BEF33
:100E300007F01CEC06F0000133B436EF07F035A4E0
:100E400036EF07F03594010E5F6E050EA2EC0AF046
:100E50000001566635EF07F0562ABEC35AF0BFC3ED
:100E60005BF0D76BD86B36EF07F05606000156A043
:100E700069EF07F05B6669EF07F03B0E5C6248EFD5
:100E800007F0050E5F6E0A0EA2EC0AF069EF07F09C
:100E90001E0E5C6253EF07F0030E5F6E0A0EA2ECAB
:100EA0000AF069EF07F00A0E5C625EEF07F0010ED0
:100EB0005F6E0A0EA2EC0AF069EF07F0060E5C60A6
:100EC00069EF07F0010E5F6E0A0EA2EC0AF069EFFF
:100ED00007F07F0E5C6E5850DB6F5950DC6F010ECF
:100EE000566292EF07F05A505B10D8B481EF07F0CA
:100EF0005A50DB6F5B50DC6F000E0301BD6392EF55
:100F000007F0020E0301BD5DD8B48EEF07F00001BB
:100F1000D751DB6FD851DC6F92EF07F0E86A000120
:100F2000DB6FDC6F00018B0E28EC0EF0DC51E8CF9C
:100F300013F0146A156A166A26EC0FF03A0E19ECD3
:100F40000EF0DB51E8CF13F026EC0FF01200030196
:100F5000C05188EC27F0D8A0CDEF07F00301000EB8
:100F6000C165CAEF07F000017CBFCDEF07F00301B8
:100F7000C15100010D6E0E6A00010A0E0F6E000EC7
:100F8000106E11EC12F07B51135E7C511458D8B0E6
:100F9000CDEF07F00001F46912000001F46B1200BC
:100FA000D8900001D9AF1200C00E28EC0EF0000E50
:100FB000F86E6F0EF76EBE0EF66ED5EC0EF0D880A2
:100FC00012000D0EFAEC08F00D0EFAEC08F06BC0F2
:100FD0000DF06CC00EF0A9C20FF0AAC210F011EC17
:100FE00012F000011450136E1550146E1650156E49
:100FF000166A58EC0FF00001255026100F0BD89000
:10100000D8B41200C00E28EC0EF0000EF86E6F0E71
:10101000F76EAC0EF66ED5EC0EF0CB0E28EC0EF0A3
:101020000001255019EC0EF0265019EC0EF02E0E92
:1010300019EC0EF0275019EC0EF0285019EC0EF0B8
:10104000D88012000F01D89084B4D880D8A022EFA5
:1010500008F00A0E0FEC0CF00F01D89084B4D88081
:10106000D8A022EF08F00F01D89083B6D880D8A07E
:1010700033EF08F00A0E0FEC0CF00F01D89083B696
:10108000D880D8A033EF08F0800E28EC0EF00F01C6
:101090008350E5EC0EF00F018450E5EC0EF0C00E2D
:1010A00028EC0EF00F018650E5EC0EF00F01815098
:1010B000E5EC0EF00F01835082868184E8B08296C1
:1010C000E8B281948098E8B48088320E0FEC0CF07E
:1010D0000F01D89084B4D880D8B074EF08F00A0E0D
:1010E0000FEC0CF00F01D89084B4D880D8B044EF46
:1010F00008F00F01D89084B4D880D8A079EF08F018
:101100000A0E0FEC0CF00F01D89084B4D880D8A050
:1011100079EF08F0C00E28EC0EF0000EF86E6E0E9F
:10112000F76E620EF66ED5EC0EF000010D6A800EC1
:1011300028EC0EF0000EF86E6E0EF76E980EF66E3E
:10114000D5EC0EF0870E28EC0EF000010D50F2ECFD
:101150000EF0FAEC08F08C0E28EC0EF00F01C4CF64
:10116000E8FFF2EC0EF00F01C3CFE8FFF2EC0EF057
:10117000320E0FEC0CF00F01D89084B4D880D8B0A8
:10118000C7EF08F00A0E0FEC0CF00F01D89084B4F2
:10119000D880D8B097EF08F00F01D89084B4D880E9
:1011A000D8A0CCEF08F00A0E0FEC0CF00F01D8908D
:1011B00084B4D880D8A0CCEF08F000010D2A0C0E22
:1011C0000D6497EF08F044EF08F00001136A146A09
:1011D000156A166A0A6E0B6A0A50FAEC08F00001EA
:1011E000C3501326C4501422D8B0152A0B2EECEF8E
:1011F00008F012000A6EA10EC06E000EC16E0AC089
:10120000E8FF31EC02F0E8AEC188E89EE844E8442B
:10121000C26EC2800000C282C2B20CEF09F00001AF
:10122000C3CF6BF0C4CF6CF00AC0E8FF12000F010F
:10123000C282C2B219EF09F00001C3506B27C4503B
:101240006C231200FAEC08F017EC09F017EC09F027
:1012500017EC09F000016C336C9F6B331200000136
:101260004E6A586A596AD4C2E8FFE8CF57F00001C5
:10127000900E546E010E556E0001900E506E010ED0
:10128000516E526A536A100E0001E8CF4FF03A6A6D
:101290003C6A3E6A406A426A446A466A486A4A6AE6
:1012A0004C6A080EE8CF3BF0E8CF3DF0E8CF3FF0C6
:1012B000E8CF41F0E8CF43F0E8CF45F0E8CF47F082
:1012C000E8CF49F0E8CF4BF0E8CF4DF0979E858E00
:1012D000000154500F01E8CFBBFF010155500F0131
:1012E000E8CFBCFF0A0E0F01E8CFBAFF0F01A080C4
:1012F0000F019E900F01080EE8CFB1FFB1801200E0
:101300000001FBA1857E0201BAAF8AEF09F0877068
:1013100092EF09F00001F2B191EF09F0878092EFAE
:1013200009F087900001BBCFE8FF5026BCCFE8FF53
:10133000512250C0E8FFE8CFBBFF51C0E8FFE8CF23
:10134000BCFF0001E86A4E640BEC0AF000014E2A73
:101350004EC0E8FFFE0B4F60C1EF09F04E6A38C087
:10136000E8FFE8CF50F052C0E8FF505E39C0E8FF18
:10137000E8CF51F053C0E8FF515A526A536A08EF60
:101380000AF04EA0D6EF09F054C0E8FFE8CF50F0C5
:1013900055C0E8FFE8CF51F0BAC2E8FF0001F28182
:1013A0004E6202EF0AF0F29102EF0AF0120E4E6264
:1013B000EEEF09F052C0E8FFE8CF50F053C0E8FF6D
:1013C000E8CF51F051325032513250325132503216
:1013D000513250320F0E511602EF0AF0040EE8CFD0
:1013E000EAFF000EE8CFE9FF4EC0E8FFE830E89ED4
:1013F000E804E92600EC02F054C0E8FF505E55C056
:10140000E8FF515A50C0E8FF522651C0E8FF53226E
:101410000F01A1901200D6EC0FF0E0EC0FF00001EC
:10142000010E36621AEF0AF000018286CAB1829676
:10143000FF0ECA6F87900301CDBF22EF0AF0859E91
:1014400023EF0AF0858E0001572E6AEF0AF0DEECDA
:1014500027F0000156A059EF0AF00001FF0EF463D7
:1014600059EF0AF05AC0E8FF5B10D8B451EF0AF008
:101470005A663EEF0AF03C0E5A6E5B065A065A5008
:101480005C6E0301E86ABD11D8B451EF0AF00001A7
:101490005A505B10D8B451EF0AF0D76BD86B59EFA4
:1014A0000AF00001D72B3C0ED76359EF0AF0D76B37
:1014B000D82BD4C2E8FFE8CF57F0582A3C0E586228
:1014C0006AEF0AF0586A592A0501002BD8B4012B9B
:1014D0000201B8690201A1A173EF0AF0530E0CECEE
:1014E00010F00001B56B000183CFE8FF311AD8A4DA
:1014F000306E316E30C0E8FF3212000184CFE8FF59
:10150000341AD8A4336E346E33C0E8FF35120001AC
:10151000606760076167610762676207AE67AE0771
:10152000AF67AF07B067B0075E6698EF0AF01200CA
:101530005E2E120080785F4E12005DC0E8FFE8CF9B
:101540005EF01200E8CF5DF0E8CF5EF0D2C2E8FFB7
:10155000E866B1EF0AF0809802C5E8FFE866807897
:101560001200808802C5E8FFE8668078120000015A
:101570000ABEBEEF0AF0819EBFEF0AF0818E828A1A
:10158000829A0A460B2EB7EF0AF012000201AD5103
:101590000A6E080E0B6EB7EC0AF00201AC510A6E2F
:1015A000080E0B6EB7EC0AF00201AB510A6E080E82
:1015B0000B6EB7EC0AF08686869612000BC113F00C
:1015C0000CC114F00DC115F009C117F00AC118F0D3
:1015D00015EC13F00201A55101010F03F3500001B6
:1015E0001326D8B0142AD8B0152A0101006B016B5C
:1015F000026B00011350E846E846E880E8921F0BB2
:1016000013B6E88E0101006F00011336143615364B
:10161000133614361536133614361536133614367B
:10162000153614500101016F000115501F0B010107
:101630001009026F1200DEEC0AF0010108510A6E77
:10164000080E0B6EB7EC0AF0010107510A6E080E86
:101650000B6EB7EC0AF0010106510A6E080E0B6E14
:10166000B7EC0AF086868696010105510A6E080ECF
:101670000B6EB7EC0AF0010104510A6E080E0B6EF6
:10168000B7EC0AF0010103510A6E080E0B6EB7ECBD
:101690000AF086868696010102510A6E080E0B6ECC
:1016A000B7EC0AF0010101510A6E080E0B6EB7EC9F
:1016B0000AF0010100510A6E080E0B6EB7EC0AF039
:1016C0008686869612000F01939E949A939C819C25
:1016D000819E829A989686960201010ED16390EFC0
:1016E0000BF004C206F105C207F106C208F101C2FF
:1016F00003F102C204F103C205F10101700E0B6F88
:10170000C60E0C6F000E0D6F0101140E096F000E56
:101710000A6F01010E6B0A0E106F010E0F6F12009F
:10172000020ED163B3EF0BF00AC206F10BC207F150
:101730000CC208F107C203F108C204F109C205F1A5
:1017400001016C0E0B6FCF0E0C6F000E0D6F0101BF
:10175000140E096F000E0A6F01010E6B080E106F58
:10176000050E0F6F1200030ED163D7EF0BF010C2FE
:1017700006F111C207F112C208F10DC203F10EC247
:1017800004F10FC205F101014A0E0B6F190E0C6F27
:10179000010E0D6F01010A0E096F000E0A6F0101A3
:1017A0000B0E0E6F320E106F020E0F6F1200120032
:1017B00087B2F6EF0BF0D5AEE8EF0BF0D6CFCEF058
:1017C000D7CFCFF00001D02BD8B4D12BF09012009E
:1017D0000001D051D111F090D8A41200E86AE8CFEE
:1017E000D7FFE8CFD6FFD58EF0901200F17AF0AC9B
:1017F00008EF0CF00301CDA104EF0CF0F1AA859ED7
:10180000F1BA858E08EF0CF0F1AA858EF1BA859EAB
:10181000F09012000000E82E0AEF0CF012000A6EA1
:10182000FA0E0AEC0CF0FA0E0AEC0CF00A2E10EF8D
:101830000CF01200050EE26EE86AE16EE86AAA6E2C
:10184000E86AA96EA69EA69CA680A850E66EA92A64
:10185000F9E112000EC0E8FFE26E0DC0E8FFE16E94
:10186000E86AAA6E0DC0E8FFA96EA69EA69CA68097
:10187000A850E66EA92A0A06F8E112000EC0E8FF99
:10188000AA6E0DC0E8FFA96EA69EA69CA680A850D1
:101890001200A198A86E0EC0E8FFAA6E0DC0E8FF66
:1018A000A96EA69EA69CA684F29E550EA76EAA0EB1
:1018B000A76EA682F28EA1A85BEF0CF0A198120091
:1018C0000FC0E8FF49EC0CF000010D2AD8B40E2A35
:1018D00010C0E8FF49EC0CF012000EC0E8FFE26E09
:1018E0000DC0E8FFE16EE86AAA6E0DC0E8FFA96EC0
:1018F000A198E650A86EA69EA69CA684F29E550EC0
:10190000A76EAA0EA76EA682F28EA1A885EF0CF094
:10191000A198A92A0A06EDE11200800E28EC0EF02B
:10192000000EF86E6F0EF76E640EF66ED5EC0EF0CC
:10193000C00E28EC0EF0000EF86E6E0EF76EE00E84
:10194000F66ED5EC0EF0BDEC2AF0D8A0CDEF0CF081
:10195000C00E28EC0EF0000EF86E6F0EF76E760ECD
:10196000F66ED5EC0EF0EEEC36F05EEC21F00001F8
:10197000600EAB6F00C2E8FFEFEC21F00201002B1C
:101980000301072B3A0E0763C9EF0CF0062B300E4C
:10199000076F0001AB2FBAEF0CF049EC21F000C249
:1019A000E8FFC4EC21F0120000011550F86E14504D
:1019B000F76E1350F66E00010E50E26E0D50E16EA0
:1019C0000900F550E66E0A060900F550E66E0A2E8B
:1019D000E0EF0CF0120000011550F86E1450F76E95
:1019E0001350F66EA68EA69CA684A688F29E550E6F
:1019F000A76EAA0EA76EA6820000F28E0001400E0E
:101A00001326000E142215220A2EEBEF0CF0120002
:101A100062EC03F000011550F86E1450F76E13508D
:101A2000F66EA68EA69CA684A688F29E550EA76E7C
:101A3000AA0EA76EA682F28E0A0000010E50E26E78
:101A40000D50E16E400E0B6EE6CFE8FFF56E0F0015
:101A50000B2EFAD7A68EA69CA684F29E550EA76ED4
:101A6000AA0EA76EA682F28EA6940001400E13263F
:101A7000000E142215220001400E0D26000E0E222B
:101A80000A2E08EF0DF0120000011550F86E1450E8
:101A9000F76E1350F66EA68EA69CA684A688F29EBC
:101AA000550EA76EAA0EA76EA6820000F28E0A003F
:101AB000080E0B6E00010E50E26E0D50E16E080E26
:101AC0000C6EE6CFE8FFF56E0F000C2EFAD7A68E4F
:101AD000A69CA684F29E550EA76EAA0EA76EA6829D
:101AE0000000F28E0B2EEBD7A6940001400E1326B9
:101AF000000E142215220001400E0D26000E0E22AB
:101B00000A2E44EF0DF012000F019A6A886A93962C
:101B1000939A93988186818A8188140E0FEC0CF039
:101B200003C5E8FFE81EE866D5EF0DF0390E28EC96
:101B30000EF0050E0FEC0CF0390E28EC0EF0010E35
:101B40000FEC0CF0390E28EC0EF0010E0FEC0CF03F
:101B5000390E28EC0EF01C0E28EC0EF0520E28EC7C
:101B60000EF0690E28EC0EF0740E28EC0EF00C0E40
:101B700028EC0EF0010E28EC0EF0060E28EC0EF00C
:101B8000380E28EC0EF0400E28EC0EF0400EE8CF98
:101B90000AF0000EF86E1D0EF76E280EF66E0AC0E3
:101BA000E8FFD8EC0EF006EF0EF0380E28EC0EF041
:101BB000050E0FEC0CF0380E28EC0EF0010E0FECB9
:101BC0000CF0380E28EC0EF0010E0FEC0CF0380E75
:101BD00028EC0EF0060E28EC0EF00C0E28EC0EF0A1
:101BE000010E28EC0EF0800E28EC0EF0400E28ECD2
:101BF0000EF0400EE8CF0AF0000EF86E1C0EF76EE5
:101C0000E80EF66E0AC0E8FFD8EC0EF0800E28EC65
:101C10000EF06E0EF76E740EF66ED5EC0EF0C00E72
:101C200028EC0EF06E0EF76E860EF66ED5EC0EF00A
:101C3000120037EC0EF05AEC0EF0818A8198000009
:101C40000000818600000000819600000000120064
:101C500037EC0EF05AEC0EF0819A819800000000EB
:101C600081860000000081960000000012003EEC1A
:101C70000EF0D8B037EF0EF09A6A12009A68818899
:101C8000819A00000000818600000000D890E8CF13
:101C900041F102C5E8FFE86654EF0EF088BED88037
:101CA000819641C1E8FF120088B0D880819641C179
:101CB000E8FF1200886E02C5E8FFE81EE866120021
:101CC00088CFE8FF886AE8B08888E8B2888AE8B4F4
:101CD000888CE8B6888EE8B88886E8BA8884E8BC3C
:101CE0008882E8BE888012001010101010101010AA
:101CF00018181818181818181C1C1C1C1C1C1C1C44
:101D00001E1E1E1E1E1E1E1E0101010101010101DB
:101D10000303030303030303070707070707070773
:101D20000F0F0F0F0F0F0F0F10000000000000002B
:101D300018000000000000001C000000000000006F
:101D40001E00000000000000010000000000000074
:101D50000300000000000000070000000000000079
:101D60000F00000000000000800E28EC0EF00DC0F7
:101D7000F6FF0EC0F7FFF86AD5EC0EF01200C00EA9
:101D800028EC0EF00DC0F6FF0EC0F7FFF86AD5EC98
:101D90000EF01200C00E28EC0EF0DBC0F6FFDCC027
:101DA000F7FFF86AD5EC0EF01200100ED8EF0EF027
:101DB0000A6E0900F5CFE8FFE812D8B4120019EC5A
:101DC0000EF00A4E1200D9EF0EF00A6E080E0B6EDE
:101DD000300E0ABE310E19EC0EF00A360B2EE8EF6B
:101DE0000EF012000A6E3A0E0B6E0AC0E8FFF00BFE
:101DF000E842E842E842E84230090B64070F19EC78
:101E00000EF00AC0E8FF0F0B30090B64070F19EC46
:101E10000EF00AC0E8FF120058EC0FF0255019EC44
:101E20000EF0265019EC0EF0275019EC0EF0285049
:101E300019EC0EF0295019EC0EF0120058EC0FF0CE
:101E400011EF0FF058EC0FF014EF0FF058EC0FF00B
:101E500017EF0FF058EC0FF01AEF0FF058EC0FF0EF
:101E600042EC0FF0255019EC0EF0265019EC0EF054
:101E7000275019EC0EF0285019EC0EF0295019ECEF
:101E80000EF012000001300E25621200200E256EA9
:101E9000300E26621200200E266E300E27621200CF
:101EA000200E276E300E28621200200E286E1200BF
:101EB0000001196A1A6A100E176E270E186E15ECBB
:101EC00013F0300E1310256E1BC013F01CC014F05D
:101ED0001DC015F01EC016F0196A1A6AE80E176EBA
:101EE000030E186E15EC13F0300E1310266E1BC087
:101EF00013F01CC014F01DC015F01EC016F0196AB6
:101F00001A6A640E176E000E186E15EC13F0300E80
:101F10001310276E1BC013F01CC014F01DC015F069
:101F20001EC016F0196A1A6A0A0E176E000E186E95
:101F300015EC13F0300E1310286E300E1B10296EA6
:101F400012000001310E3762AAEF0FF049EC21F0C8
:101F5000D4EF0FF0320E3762B4EF0FF000C2E8FF9B
:101F6000C4EC21F0D4EF0FF0330E3762BCEF0FF06A
:101F70005EEC21F0D4EF0FF0340E3762C4EF0FF0B7
:101F800000C2E8FFEFEC21F0350E3762D4EF0FF01E
:101F90000001FF0E0D6E030E0E6EE8CF0EF0FF0E69
:101FA00049EC0CF0D4EF0FF0376A12000F01ABA22E
:101FB0001200AB98AB880F01AE500001636B1200AA
:101FC0000F016BA212006B986B880F016E5012000C
:101FD0000C0EE8CFAFFF220EE8CFACFF900EE8CF9B
:101FE000ABFF0001636B9F9A9D8A1200ACA2F6EFD3
:101FF0000FF0E8CFADFF1200D6C2E8FFE8660C0E86
:10200000E8CF6FFF7C96260EE8CF6CFF900EE8CFEE
:102010006BFFA59AA38A12006CA20CEF10F0E8CF18
:102020006DFF1200E1CF21F0E2CF22F0000167C086
:10203000E1FF000166C0E2FF6A6BACA21DEF10F089
:10204000E6CFE8FF00016A27E8CFADFF0001682F67
:102050001DEF10F021C0E1FF22C0E2FF1200E1CF2E
:1020600021F0E2CF22F0000167C0E1FF000166C06D
:10207000E2FF6A6B0001050E606FE86A60654EEF73
:1020800010F09EAA3EEF10F0AECFE8FFE8CFE6FFDB
:1020900000016A270001682F3AEF10F021C0E1FF2C
:1020A00022C0E2FF12009EAA12000001000E63632C
:1020B00066EF10F0AECFE8FFE8CF64F0550E646332
:1020C0001200280EE8CF61F0632B1200010E63634B
:1020D00070EF10F0AECFE8FFE8CF65F0632B120091
:1020E000020E63637AEF10F0AECFE8FFE8CF66F040
:1020F000632B1200030E636384EF10F0AECFE8FF92
:10210000E8CF67F0632B1200040E63638DEF10F0CD
:10211000AECFE8FFE8CF68F0632B050E636399EF5D
:1021200010F0010E656397EF10F02FEC10F0632BA9
:102130001200060E6363BCEF10F0AECFE8FFE8CFED
:1021400069F0020E6563ADEF10F012EC10F06AC09A
:10215000E8FFF6EC0FF0636B12006AC0E8FF6963FA
:10216000B7EF10F00C0EF6EC0FF0636B12000D0ED3
:10217000F6EC0FF0636B1200636B1200A4AA12005E
:102180006ECFE8FF0201A1B1F2EF10F0530AD8A41C
:1021900012000201A0A1120000010F0E7615100915
:1021A0000CEC10F075C0E8FF0CEC10F000010F0E05
:1021B000781520090CEC10F077510CEC10F00001B0
:1021C0000F0E7A1530090CEC10F079510CEC10F070
:1021D00000010F0E7C1540090CEC10F07B510CEC4B
:1021E00010F012000001B5B1F9EF10F0B76FB52B88
:1021F0001200B66FB52B020EB56312EF11F0B75196
:10220000F00B100AD8A457EF11F00F0EB717B7A7AD
:102210000CEF11F0F00EB713B6C0B8F0B7C0B9F0BC
:1022200057EF11F0040EB56329EF11F0B751F00B21
:10223000200AD8A457EF11F00F0EB717B7A723EF56
:1022400011F0F00EB713B6C0BAF0B7C0BBF057EF3D
:1022500011F0060EB56340EF11F0B751F00B300AE4
:10226000D8A457EF11F00F0EB717B7A73AEF11F038
:10227000F00EB713B6C0BCF0B7C0BDF057EF11F009
:10228000080EB56357EF11F0B751F00B400AD8A410
:1022900057EF11F00F0EB717B7A751EF11F0F00E6F
:1022A000B713B6C0BEF0B7C0BFF057EF11F01200C1
:1022B000D6C2E8FFE81EE8661200AA0E0CEC10F089
:1022C000AA0E0CEC10F00A6A0B6A040EE26E000E05
:1022D000E16E0AC0E8FFE3CF0DF0000EE26E3A0EA9
:1022E000E16E0DC0E8FFE806D890E836E3CF0DF0C8
:1022F000E82AE3CF0EF000010E3AF00E0E160AC0E7
:10230000E8FFE82A0E120E3A0BC0E8FF0D240E2457
:10231000E8CF0BF00DC0E8FF0CEC10F00EC0E8FFAA
:102320000CEC10F00A2A080E0A609EEF11F0A2C20F
:10233000E8FFD890E8320A6465EF11F00BC0E8FFBF
:102340000CEC10F0ED0E0CEC10F0ED0E0CEC10F0AF
:1023500012007C960C0E0F016F6E220E6C6E900EAA
:10236000E8CF6BFF12000001E80E0D26030E0E22CF
:102370000EAEC0EF11F0E86AE8CF0DF0E8CF0EF036
:10238000780E0D5C070E0E58D8A0CAEF11F0EF0EB4
:10239000D1EF11F00E320D320E320D320E320D32FF
:1023A0000D500CEF10F000010EAEDCEF11F0E86AFA
:1023B000E8CF0DF0E8CF0EF0BC0E0D5C030E0E580A
:1023C000D8A0CCEF11F0EF0ED1EF11F0F00E0CEC25
:1023D00010F0800E0CEC10F075C00DF076C00EF011
:1023E000B3EC11F077C00DF078C00EF0B3EC11F043
:1023F00079C00DF07AC00EF0B3EC11F07BC00DF097
:102400007CC00EF0D3EC11F07DC00DF07EC00EF05C
:10241000B3EC11F07FC00DF080C00EF0B3EC11F002
:10242000120022EC12F010AE1AEF12F00D50155EF1
:102430000E50165A0EAE21EF12F00F50155E1050CE
:10244000165A12000001136A146A156A166A0F50B0
:102450000D02F3CF13F0F4CF14F00F500E02F3502F
:102460001426F4501522D8B0162A10500D02F3503D
:102470001426F4501522D8B0162A10500E02F3502C
:102480001526F450162212000001246A1B6A14500B
:102490001310D8B4000C14501718E8BE241EB16BEA
:1024A000000E17AE56EF12F0171E172A14AE5DEF8E
:1024B00012F0131E141E132A142214501710E8BE13
:1024C000E9EF12F017501B5E143614341B36175008
:1024D0001B26143614341B36175014B01B5E14A080
:1024E0001B26143614341B36175014B01B5E14A070
:1024F0001B26143614341B36175014B01B5E14A060
:102500001B26143614341B36175014B01B5E14A04F
:102510001B26143614341B36175014B01B5E14A03F
:102520001B26143614341B36175014B01B5E14A02F
:102530001B26143613341B36175014B01B5E14A020
:102540001B26133613341B36175013B01B5E13A013
:102550001B26133613341B36175013B01B5E13A003
:102560001B26133613341B36175013B01B5E13A0F3
:102570001B26133613341B36175013B01B5E13A0E3
:102580001B26133613341B36175013B01B5E13A0D3
:102590001B26133613341B36175013B01B5E13A0C3
:1025A0001B26133613341B36175013B01B5E13A0B3
:1025B0001B26133613A01B26B1B107EF13F024AE70
:1025C000000C131E141EE86A132A14221B1E1B2A59
:1025D000000C17AE02EF13F014BEFEEF12F0E8CFBE
:1025E000AAF01350E8CF1BF01B9E1336143614507C
:1025F000E8CF13F0AA51146ADFEF12F0136A132A1E
:10260000146A000C141E131EB12B62EF12F01B2A69
:1026100017501B62DFEF12F01B6A000E132A142200
:1026200014AEDFEF12F02388FF0C0001246A1C6A4D
:102630001B6A155014101310D8B4000C155018183C
:10264000E8BE241EB16B000E18AE2BEF13F0171E60
:10265000181E172A182215AE34EF13F0131E141E7D
:10266000151E132A1422152215501810E8BEBEEFAD
:1026700014F017501B5E18501C5A153615341B36B3
:102680001C3617501B2618501C22153615341B36C5
:102690001C36175015A052EF13F01B5E18501C5A31
:1026A00055EF13F01B2618501C22153615341B3617
:1026B0001C36175015A062EF13F01B5E18501C5A01
:1026C00065EF13F01B2618501C22153615341B36E7
:1026D0001C36175015A072EF13F01B5E18501C5AD1
:1026E00075EF13F01B2618501C22153615341B36B7
:1026F0001C36175015A082EF13F01B5E18501C5AA1
:1027000085EF13F01B2618501C22153615341B3686
:102710001C36175015A092EF13F01B5E18501C5A70
:1027200095EF13F01B2618501C22153615341B3656
:102730001C36175015A0A2EF13F01B5E18501C5A40
:10274000A5EF13F01B2618501C22153614341B3627
:102750001C36175015A0B2EF13F01B5E18501C5A10
:10276000B5EF13F01B2618501C22143614341B36F8
:102770001C36175014A0C2EF13F01B5E18501C5AE1
:10278000C5EF13F01B2618501C22143614341B36C8
:102790001C36175014A0D2EF13F01B5E18501C5AB1
:1027A000D5EF13F01B2618501C22143614341B3698
:1027B0001C36175014A0E2EF13F01B5E18501C5A81
:1027C000E5EF13F01B2618501C22143614341B3668
:1027D0001C36175014A0F2EF13F01B5E18501C5A51
:1027E000F5EF13F01B2618501C22143614341B3638
:1027F0001C36175014A002EF14F01B5E18501C5A20
:1028000005EF14F01B2618501C22143614341B3606
:102810001C36175014A012EF14F01B5E18501C5AEF
:1028200015EF14F01B2618501C22143614341B36D6
:102830001C36175014A022EF14F01B5E18501C5ABF
:1028400025EF14F01B2618501C22143613341B36A7
:102850001C36175014A032EF14F01B5E18501C5A8F
:1028600035EF14F01B2618501C22133613341B3678
:102870001C36175013A042EF14F01B5E18501C5A60
:1028800045EF14F01B2618501C22133613341B3648
:102890001C36175013A052EF14F01B5E18501C5A30
:1028A00055EF14F01B2618501C22133613341B3618
:1028B0001C36175013A062EF14F01B5E18501C5A00
:1028C00065EF14F01B2618501C22133613341B36E8
:1028D0001C36175013A072EF14F01B5E18501C5AD0
:1028E00075EF14F01B2618501C22133613341B36B8
:1028F0001C36175013A082EF14F01B5E18501C5AA0
:1029000085EF14F01B2618501C22133613341B3687
:102910001C36175013A092EF14F01B5E18501C5A6F
:1029200095EF14F01B2618501C22133613341B3657
:102930001C36175013A0A2EF14F01B5E18501C5A3F
:10294000A5EF14F01B2618501C22133613B0ADEF60
:1029500014F017501B2618501C22B1B1E2EF14F0EE
:1029600024AE000C131E141E151E000E132A142272
:1029700015221B1E1C1E1B2A1C22000C18AEDCEF8D
:1029800014F015BED7EF14F0E8CFAAF01450E8CF3A
:102990001CF01350E8CF1BF01C9E14361536155052
:1029A000E8CF13F0AA51156A146AB0EF14F0136A55
:1029B000132A146A156A000C151E141E131EB12B5F
:1029C00039EF13F01B2AE86A1C2217501B62B0EF84
:1029D00014F018501C62B0EF14F01C6A1B6A000E51
:1029E000132A1422152215AEB0EF14F02388FF0C21
:1029F00000011E6A1D6A1C6A1B6A16341B361C36CF
:102A00001D361E3617501B5E18501C5A19501D5A81
:102A10001A501E5AB16BB15B163616341B361C3673
:102A20001D361E36B137175016A022EF15F01B5E6B
:102A300018501C5A19501D5A1A501E5AE86AB15B98
:102A40002BEF15F01B2618501C2219501D221A506E
:102A50001E22E86AB123163616341B361C361D3684
:102A60001E36B137175016A041EF15F01B5E1850F7
:102A70001C5A19501D5A1A501E5AE86AB15B4AEF87
:102A800015F01B2618501C2219501D221A501E2208
:102A9000E86AB123163616341B361C361D361E3630
:102AA000B137175016A060EF15F01B5E18501C5A76
:102AB00019501D5A1A501E5AE86AB15B69EF15F099
:102AC0001B2618501C2219501D221A501E22E86A7B
:102AD000B123163616341B361C361D361E36B1375A
:102AE000175016A07FEF15F01B5E18501C5A195096
:102AF0001D5A1A501E5AE86AB15B88EF15F01B2662
:102B000018501C2219501D221A501E22E86AB123A7
:102B1000163616341B361C361D361E36B137175086
:102B200016A09EEF15F01B5E18501C5A19501D5A26
:102B30001A501E5AE86AB15BA7EF15F01B26185011
:102B40001C2219501D221A501E22E86AB123163683
:102B500016341B361C361D361E36B137175016A0DC
:102B6000BDEF15F01B5E18501C5A19501D5A1A5013
:102B70001E5AE86AB15BC6EF15F01B2618501C22DE
:102B800019501D221A501E22E86AB1231636163437
:102B90001B361C361D361E36B137175016A0DCEF1B
:102BA00015F01B5E18501C5A19501D5A1A501E5A07
:102BB000E86AB15BE5EF15F01B2618501C2219508E
:102BC0001D221A501E22E86AB123163615341B3610
:102BD0001C361D361E36B137175016A0FBEF15F008
:102BE0001B5E18501C5A19501D5A1A501E5AE86A7A
:102BF000B15B04EF16F01B2618501C2219501D2241
:102C00001A501E22E86AB123153615341B361C36BD
:102C10001D361E36B137175015A01AEF16F01B5E81
:102C200018501C5A19501D5A1A501E5AE86AB15BA6
:102C300023EF16F01B2618501C2219501D221A5083
:102C40001E22E86AB123153615341B361C361D3694
:102C50001E36B137175015A039EF16F01B5E18500D
:102C60001C5A19501D5A1A501E5AE86AB15B42EF9D
:102C700016F01B2618501C2219501D221A501E2215
:102C8000E86AB123153615341B361C361D361E3640
:102C9000B137175015A058EF16F01B5E18501C5A8C
:102CA00019501D5A1A501E5AE86AB15B61EF16F0AE
:102CB0001B2618501C2219501D221A501E22E86A89
:102CC000B123153615341B361C361D361E36B1376A
:102CD000175015A077EF16F01B5E18501C5A1950AC
:102CE0001D5A1A501E5AE86AB15B80EF16F01B2677
:102CF00018501C2219501D221A501E22E86AB123B6
:102D0000153615341B361C361D361E36B137175096
:102D100015A096EF16F01B5E18501C5A19501D5A3C
:102D20001A501E5AE86AB15B9FEF16F01B26185026
:102D30001C2219501D221A501E22E86AB123153692
:102D400015341B361C361D361E36B137175015A0EC
:102D5000B5EF16F01B5E18501C5A19501D5A1A5028
:102D60001E5AE86AB15BBEEF16F01B2618501C22F3
:102D700019501D221A501E22E86AB1231536153447
:102D80001B361C361D361E36B137175015A0D4EF32
:102D900016F01B5E18501C5A19501D5A1A501E5A14
:102DA000E86AB15BDDEF16F01B2618501C221950A3
:102DB0001D221A501E22E86AB123153614341B3620
:102DC0001C361D361E36B137175015A0F3EF16F01E
:102DD0001B5E18501C5A19501D5A1A501E5AE86A88
:102DE000B15BFCEF16F01B2618501C2219501D2257
:102DF0001A501E22E86AB123143614341B361C36CE
:102E00001D361E36B137175014A012EF17F01B5E97
:102E100018501C5A19501D5A1A501E5AE86AB15BB4
:102E20001BEF17F01B2618501C2219501D221A5098
:102E30001E22E86AB123143614341B361C361D36A4
:102E40001E36B137175014A031EF17F01B5E185023
:102E50001C5A19501D5A1A501E5AE86AB15B3AEFB3
:102E600017F01B2618501C2219501D221A501E2222
:102E7000E86AB123143614341B361C361D361E3650
:102E8000B137175014A050EF17F01B5E18501C5AA2
:102E900019501D5A1A501E5AE86AB15B59EF17F0C3
:102EA0001B2618501C2219501D221A501E22E86A97
:102EB000B123143614341B361C361D361E36B1377A
:102EC000175014A06FEF17F01B5E18501C5A1950C2
:102ED0001D5A1A501E5AE86AB15B78EF17F01B268C
:102EE00018501C2219501D221A501E22E86AB123C4
:102EF000143614341B361C361D361E36B1371750A7
:102F000014A08EEF17F01B5E18501C5A19501D5A52
:102F10001A501E5AE86AB15B97EF17F01B2618503B
:102F20001C2219501D221A501E22E86AB1231436A1
:102F300014341B361C361D361E36B137175014A0FC
:102F4000ADEF17F01B5E18501C5A19501D5A1A503D
:102F50001E5AE86AB15BB6EF17F01B2618501C2208
:102F600019501D221A501E22E86AB1231436143457
:102F70001B361C361D361E36B137175014A0CCEF49
:102F800017F01B5E18501C5A19501D5A1A501E5A21
:102F9000E86AB15BD5EF17F01B2618501C221950B8
:102FA0001D221A501E22E86AB123143613341B3630
:102FB0001C361D361E36B137175014A0EBEF17F034
:102FC0001B5E18501C5A19501D5A1A501E5AE86A96
:102FD000B15BF4EF17F01B2618501C2219501D226C
:102FE0001A501E22E86AB123133613341B361C36DE
:102FF0001D361E36B137175013A00AEF18F01B5EAE
:1030000018501C5A19501D5A1A501E5AE86AB15BC2
:1030100013EF18F01B2618501C2219501D221A50AD
:103020001E22E86AB123133613341B361C361D36B4
:103030001E36B137175013A029EF18F01B5E185039
:103040001C5A19501D5A1A501E5AE86AB15B32EFC9
:1030500018F01B2618501C2219501D221A501E222F
:10306000E86AB123133613341B361C361D361E3660
:10307000B137175013A048EF18F01B5E18501C5AB8
:1030800019501D5A1A501E5AE86AB15B51EF18F0D8
:103090001B2618501C2219501D221A501E22E86AA5
:1030A000B123133613341B361C361D361E36B1378A
:1030B000175013A067EF18F01B5E18501C5A1950D8
:1030C0001D5A1A501E5AE86AB15B70EF18F01B26A1
:1030D00018501C2219501D221A501E22E86AB123D2
:1030E000133613341B361C361D361E36B1371750B7
:1030F00013A086EF18F01B5E18501C5A19501D5A69
:103100001A501E5AE86AB15B8FEF18F01B26185050
:103110001C2219501D221A501E22E86AB1231336B0
:1031200013341B361C361D361E36B137175013A00C
:10313000A5EF18F01B5E18501C5A19501D5A1A5052
:103140001E5AE86AB15BAEEF18F01B2618501C221D
:1031500019501D221A501E22E86AB1231336133467
:103160001B361C361D361E36B137175013A0C4EF60
:1031700018F01B5E18501C5A19501D5A1A501E5A2E
:10318000E86AB15BCDEF18F01B2618501C221950CD
:103190001D221A501E22E86AB123133613B0D9EF4C
:1031A00018F017501B2618501C2219501D221A50B7
:1031B0001E22000C0F01D89083B6D880D8B0E6EF5D
:1031C00018F00A0E0FEC0CF00F01D89083B6D880DF
:1031D000D8B05CEF19F00F01D89084B2D880D8B085
:1031E000F7EF18F00A0E0FEC0CF00F01D89084B234
:1031F000D880D8B05CEF19F00001D9671EEF19F044
:103200000001D969030132C30DF033C30EF0000190
:10321000E80E0F6E030E106E11EC12F014C01CF1CC
:1032200015C01DF10301345101011C270301355163
:1032300001011D2334C31AF135C31BF14FEC2DF0EE
:10324000D8B02FEF19F0D8A436EF19F001011A0702
:10325000D8A01B071A07D8A01B0736EF19F00101E9
:103260001A2BD8B41B2B1A2BD8B41B2B1CC10DF056
:103270001DC10EF001011A5100010D5E01011B512B
:1032800000010E5A0001000E0F6E010E106E11ECBF
:1032900012F00001E80E176E030E186E15EC13F015
:1032A00013C032F314C033F31AC134F31BC135F326
:1032B00043EC1CF0D88412000001D96762EF19F0CA
:1032C000D8941200D96B39EC22F0D8941200000186
:1032D0006B51E8CF0DF06C51E8CF0EF06F510D5EE1
:1032E00070510E5AD8A084EF19F06D51E8CF0FF04D
:1032F0006E51E8CF10F011EC12F01450E8CF73F0DB
:103300001550E8CF74F012007151E8CF0FF07251F0
:10331000E8CF10F011EC12F01450E8CF73F0155014
:10332000E8CF74F012006BC00DF06CC00EF06F515E
:103330000D5E70510E5A6DC00FF06EC010F011ECA2
:1033400012F01450E8CF73F01550E8CF74F012006B
:10335000DBEC1BF0040EFAEC08F0040E22EC09F092
:1033600015C26DF016C26EF017C26FF018C270F081
:1033700019C271F01AC272F067EC19F073C034F11F
:1033800074C035F173C075F074C076F0050EFAECB8
:1033900008F0050E22EC09F01BC26DF01CC26EF0A5
:1033A0001DC26FF01EC270F01FC271F020C272F019
:1033B00067EC19F073C036F174C037F173C077F061
:1033C00074C078F0060EFAEC08F0060E22EC09F054
:1033D00021C26DF022C26EF023C26FF024C270F0E1
:1033E00025C271F026C272F067EC19F073C038F193
:1033F00074C039F173C079F074C07AF0070EFAEC3A
:1034000008F0070EFAEC08F027C26DF028C26EF043
:1034100029C26FF02AC270F093EC19F073C03AF130
:1034200074C03BF173C07BF074C07CF0030EFAEC07
:1034300008F000010F01C3CFE8FFE8CF8DF0C4CF43
:10344000E8FFE8CF8EF0080EFAEC08F02DC26FF01E
:103450002EC270F02BC26DF02CC26EF093EC19F0FE
:1034600073C085F074C086F0090EFAEC08F031C222
:103470006FF032C270F02FC26DF030C26EF093EC7C
:1034800019F073C087F074C088F00A0EFAEC08F0E7
:1034900035C26FF036C270F033C26DF034C26EF0D8
:1034A00093EC19F073C089F074C08AF00B0EFAEC3B
:1034B00008F039C26FF03AC270F037C26DF038C20E
:1034C0006EF093EC19F073C08BF074C08CF00301B4
:1034D000B55188EC27F0D8A075EF1AF00001E80E7E
:1034E0007D6F030E7E6F7AEF1AF00001180E7D6F6C
:1034F000FC0E7E6F000EFAEC08F03BC26DF03CC291
:103500006EF03DC26FF03EC270F093EC19F073C0E4
:103510007FF074C080F0010EFAEC08F03FC26DF04D
:1035200040C26EF041C26FF042C270F093EC19F0ED
:1035300073C081F074C082F00301B75188EC27F0AA
:10354000D8A0AAEF1AF00001E80E836F030E846F73
:10355000C4EF1AF00301B95188EC27F0D8A0B8EFF6
:103560001AF00001180E836FFC0E846FC4EF1AF07E
:103570000301B85188EC27F0D8A0C4EF1AF000017D
:10358000000E836F000E846F12000001106A0FBEE0
:10359000101E11EC12F00001640E176E000E186E72
:1035A00015EC13F013C011F014C012F013C00FF09B
:1035B00014C010F00EAEE2EF1AF00F1E101E0F2A0C
:1035C000D8B0102A11EC12F000010A0E176E000E8E
:1035D000186E15EC13F00B50E8CF17F0186A17BEF1
:1035E000181E15EC13F011500D5E12500E5A1350A8
:1035F0000D2614500E2212000301AE5188EC27F064
:1036000075C00DF076C00EF0D8A012EF1BF00301CC
:103610001B510001E8CF0FF003011751E8CF0BF069
:103620001AEF1BF003011A510001E8CF0FF0640EEE
:10363000E8CF0BF0C5EC1AF00DC075F00EC076F0B7
:103640000301AF5188EC27F077C00DF078C00EF081
:10365000D8A036EF1BF0030126510001E8CF0FF090
:1036600003012251E8CF0BF03EEF1BF0030125517F
:103670000001E8CF0FF0640EE8CF0BF0C5EC1AF0B4
:103680000DC077F00EC078F00301B05188EC27F040
:1036900079C00DF07AC00EF0D8A05AEF1BF00301EC
:1036A00031510001E8CF0FF003012D51E8CF0BF0AD
:1036B00062EF1BF0030130510001E8CF0FF0640E00
:1036C000E8CF0BF0C5EC1AF00DC079F00EC07AF01F
:1036D00012000301AE5188EC27F0D8A088EF1BF050
:1036E00075C00FF076C010F017C30DF018C30EF0C0
:1036F0000E6A0DBE0E1E11EC12F00001640E176E64
:10370000000E186E15EC13F013C075F014C076F0AF
:103710000301AF5188EC27F0D8A0A7EF1BF077C0CA
:103720000FF078C010F022C30DF023C30EF00E6A24
:103730000DBE0E1E11EC12F00001640E176E000E8D
:10374000186E15EC13F013C077F014C078F0030175
:10375000B05188EC27F0D8A0C6EF1BF079C00FF06D
:103760007AC010F02DC30DF02EC30EF00E6A0DBE00
:103770000E1E11EC12F00001640E176E000E186E92
:1037800015EC13F013C079F014C07AF01200D3C214
:10379000E8FFE81EE866120099C0E8FFE81EE86648
:1037A0001200E86AE8CF99F0030E00015F6E030E85
:1037B000A2EC0AF0120085C00DF086C00EF093C096
:1037C0000FF094C010F012EC1CF0E868D8B0E8CF0D
:1037D00099F00FC093F010C094F087C00DF088C02E
:1037E0000EF095C00FF096C010F012EC1CF0E868D7
:1037F000D8B0E8CF99F00FC095F010C096F089C00E
:103800000DF08AC00EF097C00FF098C010F012ECC7
:103810001CF0E868D8B0E8CF99F00FC097F010C05E
:1038200098F012000DC011F00EC012F000010FC090
:10383000E8FF115E10C0E8FF125A12AE25EF1CF02F
:10384000111E121E112AD8B4122AD8901232113227
:10385000D89012321132D89012321132D8901232DE
:103860001132D8901232113211C0E8FF1212D890E2
:10387000D8B412000EC0E8FF1018E8360DC00FF0E3
:103880000EC010F0120080C50FF081C510F00201CB
:10389000B2519DEC01F00301A75100010F26030175
:1038A000A8510001102218C30DF019C30EF0000139
:1038B0000E6AFF0E0DBE0E6E11EC12F00001640ECA
:1038C000176E186A196A1A6A15EC13F000010301E1
:1038D000195100010D6E0E6A0DBE0E1E0D360E360C
:1038E0000D5013260E5014221350752714507623B2
:1038F00082C50FF083C510F00201B3519DEC01F0B9
:103900000301A95100010F260301AA510001102251
:1039100023C30DF024C30EF000010E6AFF0E0DBE8E
:103920000E6E11EC12F00001640E176E186A196A1F
:103930001A6A15EC13F000010301245100010D6E09
:103940000E6A0DBE0E1E0D360E360D5013260E508D
:103950001422135077271450782384C50FF085C59F
:1039600010F00201B4519DEC01F00301AB510001D4
:103970000F260301AC51000110222EC30DF02FC3FE
:103980000EF000010E6AFF0E0DBE0E6E11EC12F06D
:103990000001640E176E186A196A1A6A15EC13F0A2
:1039A000000103012F5100010D6E0E6A0DBE0E1EA7
:1039B0000D360E360D5013260E5014221350792753
:1039C00014507A2386C50FF087C510F00201B55157
:1039D0009DEC01F036C30DF037C30EF000010E6A06
:1039E000FF0E0DBE0E6E11EC12F00001640E176E8C
:1039F000186A196A1A6A15EC13F00301010E37638D
:103A000019EF1DF00001030E0E6E186EE80E0D6E1C
:103A1000176E7B510D5E7C510E5A196A1A6A13C0DB
:103A20000FF014C010F011EC12F015EC13F033EF9E
:103A30001DF0020E376333EF1DF000017B510D6E58
:103A40007C510E6E13C00FF014C010F011EC12F088
:103A50000001030EE8CF18F0E80EE8CF17F0196A5E
:103A60001A6A15EC13F0000113507B2714507C23C5
:103A7000120000010E6A08C40DF00DBE0E680001B0
:103A80000A0E0F6E000E106E11EC12F01350752717
:103A90001450762300010E6A09C40DF00DBE0E68A5
:103AA00000010A0E0F6E000E106E11EC12F0135092
:103AB00077271450782300010E6A0AC40DF00DBE5A
:103AC0000E6800010A0E0F6E000E106E11EC12F05F
:103AD0001350792714507A2300010E6A0BC40DF09D
:103AE0000DBE0E6800010A0E0F6E000E106E11EC76
:103AF00012F013507B2714507C2300010E6A0CC473
:103B00000DF00DBE0E6800010A0E0F6E000E106E55
:103B100011EC12F013507D2714507E2300010E6A21
:103B20000DC40DF00DBE0E6800010A0E0F6E000EE2
:103B3000106E11EC12F013507F27145080230001F7
:103B40000E6A0EC40DF00DBE0E6800010A0E0F6E57
:103B5000000E106E11EC12F01350812714508223C6
:103B600000010E6A0FC40DF00DBE0E6800010A0EB2
:103B70000F6E000E106E11EC12F0135083271450CC
:103B80008423120000010A0E0D6E000E0E6E03015A
:103B9000BB5188EC27F0D8A013EF1EF003014DAF06
:103BA000E0EF1DF04CC30FF0106A0FBE106811EC6F
:103BB00012F0000113C0E8FF752714C0E8FF762358
:103BC00003014FAFF2EF1DF04EC30FF0106A0FBEAE
:103BD000106811EC12F0000113C0E8FF772714C041
:103BE000E8FF7823030151AF04EF1EF050C30FF03C
:103BF000106A0FBE106811EC12F0000113C0E8FF4C
:103C0000792714C0E8FF7A23030153AF13EF1EF0A6
:103C100052C30FF0106A0FBE106811EC12F013C0FF
:103C20007BF014C07CF00301BC5188EC27F0D8A0D5
:103C300056EF1EF0030155AF29EF1EF054C30FF0ED
:103C4000106A0FBE106811EC12F013C075F014C0AA
:103C500076F0030157AF38EF1EF056C30FF0106A2D
:103C60000FBE106811EC12F013C077F014C078F09A
:103C7000030159AF47EF1EF058C30FF0106A0FBE93
:103C8000106811EC12F013C079F014C07AF003013F
:103C90005BAF56EF1EF05AC30FF0106A0FBE1068EC
:103CA00011EC12F013C07BF014C07CF000017CAF6B
:103CB0001200E86A7B6F7C6F120090C0E8FFC00AB8
:103CC00032E07DC00DF07EC00EF000018FC0E8FF35
:103CD0000D5E90C0E8FF0E5A0EBE81EF1EF019C4B3
:103CE000E8FF0D5E1AC4E8FF0E5A0EBE93EF1EF0F9
:103CF000000119C4E8FF8F271AC4E8FF902397EF4B
:103D00001EF019C4E8FF0D261AC4E8FF0E220EAEFD
:103D100093EF1EF0000119C4E8FF8F5F1AC4E8FF9B
:103D2000905B97EF1EF07DC08FF07EC090F092C048
:103D3000E8FFC00A32E083C00DF084C00EF000013D
:103D400091C0E8FF0D5E92C0E8FF0E5A0EBEBBEFB9
:103D50001EF01BC4E8FF0D5E1CC4E8FF0E5A0EBE29
:103D6000CDEF1EF000011BC4E8FF91271CC4E8FF43
:103D70009223D1EF1EF01BC4E8FF0D261CC4E8FF00
:103D80000E220EAECDEF1EF000011BC4E8FF915FC6
:103D90001CC4E8FF925BD1EF1EF083C091F084C099
:103DA00092F012000201A1B112000301B65188EC99
:103DB00027F0D8A0120000016267120002019F5193
:103DC0000001626F0201010EB663F0EF1EF0010EFA
:103DD00000015F6E050EA2EC0AF0280E0001626F72
:103DE00075C00DF076C00EF093EC1FF0D8A426EF4E
:103DF0001FF00201B667FFEF1EF002019E510001A5
:103E000076BF0DEF1FF00301192719AF17EF1FF051
:103E1000D8A617EF1FF01AEF1FF00301195F19BFA3
:103E200017EF1FF0D8A617EF1FF01FEF1FF019BFF5
:103E30001FEF1FF0640E1961196F24EF1FF0640E5D
:103E4000E81EE82A1965196F39EC22F077C00DF0E9
:103E500078C00EF093EC1FF0D8A45CEF1FF00201C5
:103E6000B66735EF1FF002019E51000178BF43EFA6
:103E70001FF00301242724AF4DEF1FF0D8A64DEF0C
:103E80001FF050EF1FF00301245F24BF4DEF1FF020
:103E9000D8A64DEF1FF055EF1FF024BF55EF1FF0D0
:103EA000640E2461246F5AEF1FF0640EE81EE82AA6
:103EB0002465246F39EC22F079C00DF07AC00EF041
:103EC00093EC1FF0D8A492EF1FF00201B6676BEFDE
:103ED0001FF002019E5100017ABF79EF1FF003012C
:103EE0002F272FAF83EF1FF0D8A683EF1FF086EFA9
:103EF0001FF003012F5F2FBF83EF1FF0D8A683EFC2
:103F00001FF08BEF1FF02FBF8BEF1FF0640E2F61A0
:103F10002F6F90EF1FF0640EE81EE82A2F652F6FB9
:103F200039EC22F0120000010EAE9CEF1FF00D1EC6
:103F30000E1E0D2AD8B00E2AD8900E320D320E6603
:103F4000A6EF1FF0640E0D64ABEF1FF00001640ECE
:103F50000D6E000E0E6E0D50E832E8321F0BD87455
:103F60000DC0E8FF12000001CA6B000176BFC5EF6B
:103F70001FF011C30DF012C30EF075C00FF076C024
:103F800010F011EC12F0CFEF1FF015C30DF016C3B7
:103F90000EF075C00FF076C010F011EC12F013C3E4
:103FA0000DF014C30EF0000114500D2615500E2212
:103FB00019EC21F00DC03EF00EC03FF0000178BFBB
:103FC000EEEF1FF01CC30DF01DC30EF077C00FF015
:103FD00078C010F011EC12F0F8EF1FF020C30DF0D4
:103FE00021C30EF077C00FF078C010F011EC12F082
:103FF0001EC30DF01FC30EF0000114500D26155006
:104000000E2219EC21F00DC03CF00EC03DF0000175
:104010007ABF17EF20F027C30DF028C30EF079C048
:104020000FF07AC010F011EC12F021EF20F02BC34A
:104030000DF02CC30EF079C00FF07AC010F011EC27
:1040400012F029C30DF02AC30EF0000114500D2602
:1040500015500E2219EC21F00DC040F00EC041F0B9
:1040600032C30DF033C30EF07BC00FF07CC010F0F4
:1040700011EC12F034C30DF035C30EF000011450F2
:104080000D2615500E2219EC21F00DC042F00EC085
:1040900043F03AC30DF03BC30EF08FC00FF090C059
:1040A00010F011EC12F03CC30DF03DC30EF0000116
:1040B00014500D2615500E2219EC21F00DC044F0BD
:1040C0000EC045F089EF20F0000180BF74EF20F0B2
:1040D0001CC30DF01DC30EF07FC00FF080C010F0A8
:1040E00011EC12F07EEF20F020C30DF021C30EF092
:1040F0007FC00FF080C010F011EC12F01EC30DF065
:104100001FC30EF0000114500D2615500E229CEF17
:1041100020F03EC30DF03FC30EF07FC00FF080C013
:1041200010F011EC12F040C30DF041C30EF000018D
:1041300014500D2615500E2219EC21F00DC046F03A
:104140000EC047F0C9EF20F0000182BFB4EF20F0AD
:1041500011C30DF012C30EF081C00FF082C010F039
:1041600011EC12F0BEEF20F015C30DF016C30EF0E7
:1041700081C00FF082C010F011EC12F013C30DF0EB
:1041800014C30EF0000114500D2615500E22DCEF62
:1041900020F042C30DF043C30EF081C00FF082C087
:1041A00010F011EC12F044C30DF045C30EF0000105
:1041B00014500D2615500E2219EC21F00DC048F0B8
:1041C0000EC049F091C00DF092C00EF00EBEF1EF9E
:1041D00020F046C30FF047C310F011EC12F0F7EFD8
:1041E00020F04AC30FF04BC310F011EC12F048C39B
:1041F0000DF049C30EF00D5014260E50152214C0B8
:104200000DF015C00EF019EC21F00DC04AF00EC0F3
:104210004BF00001D96718EF21F00301B15188EC90
:1042200027F0D8A018EF21F038C342F039C343F08B
:1042300012000201AE5100010D5C0201AF510001FC
:104240000E58E8AE29EF21F0AEC20DF0AFC20EF06D
:1042500012000201B05100010D5C0201B1510001D8
:104260000E58E8BE1200B0C20DF0B1C20EF012003E
:10427000000133B447EF21F035A447EF21F0359426
:10428000010E5F6E050EA2EC0AF0D8801200D890E5
:1042900012000001000E0D6E020E0E6E0001000EE7
:1042A000136E000E146E010E156EE86A0A6ED4ECE1
:1042B0000CF0020100510001B26F12000001000E6B
:1042C0000D6E020E0E6E0001000E136E000E146EC7
:1042D000010E156E040E0A6E08EC0DF01200E84691
:1042E000E8060B6E0001000E0D6E030E0E6E00014F
:1042F000000E136E000E146E010E156E0B50142678
:10430000E86A1522100E0A6ED4EC0CF01200E84692
:10431000E8060B6E0001000E0D6E080E0E6E000119
:10432000000E136E000E146E010E156E0B50142647
:10433000E86A1522400E0A6ED4EC0CF00001000E63
:10434000C26F030EC36F0001000EC06F030EC16F7A
:104350000001080EC16F100EC46F60EC26F0000162
:10436000000E0D6E080E0E6E0001000E136E000E94
:10437000146E010E156E0B501426E86A1522010EFC
:104380000A6E08EC0DF01200E846E8060B6E00011C
:10439000000E0D6E030E0E6E0001000E136E000E69
:1043A000146E010E156E0B501426E86A15220A6E63
:1043B000D4EC0CF00001000E0D6E040E0E6E000128
:1043C000000E136E000E146E010E156E0B50E82ACF
:1043D0001426E86A15220A6ED4EC0CF01200E846A6
:1043E000E8060C6E0001000E0D6E030E0E6E00014D
:1043F000000E136E000E146E010E156E0C50142676
:10440000E86A1522040E0A6E08EC0DF00001000E99
:104410000D6E040E0E6E0001000E136E000E146E73
:10442000010E156E0C50E82A1426E86A1522040EB7
:104430000A6E08EC0DF012000001000EC26F030EB0
:10444000C36F0001000EC06F060EC16F000EC46F77
:1044500060EC26F00001000EC26F040EC36F000175
:10446000000EC06F070EC16F000EC46F60EC26F027
:10447000120002010051E846E8060A6E0001000E33
:104480000D6E030E0E6E0001000E136E000E146E04
:10449000010E156E0A501426E86A1522010E0A6EE6
:1044A00008EC0DF0120075C09AF076C09BF077C052
:1044B0009CF078C09DF079C09EF07AC09FF07BC0E0
:1044C000A0F07CC0A1F07DC0A2F07EC0A3F07FC0B0
:1044D000A4F080C0A5F081C0A6F082C0A7F083C080
:1044E000A8F084C0A9F0120053EC22F00301B251ED
:1044F00088EC27F0D8B08FEF22F0030EE26E5C0E4E
:10450000E16E80EC25F0610EE16E80EC25F0660E28
:10451000E16E80EC25F06B0EE16E80EC25F053EC43
:1045200022F00301B35188EC27F0D8B0B0EF22F0AD
:10453000030EE26E700EE16E80EC25F053EC22F07B
:10454000750EE16E80EC25F053EC22F07A0EE16EF0
:1045500080EC25F053EC22F07F0EE16E80EC25F02C
:1045600053EC22F00301B45188EC27F0D8B0CBEF24
:1045700022F0030EE26E840EE16E80EC25F0890ECF
:10458000E16E80EC25F08E0EE16E80EC25F0930E4E
:10459000E16E80EC25F012009AC00DF09BC00EF089
:1045A00010C40FF000010EBE11C40FF0106A0FBE50
:1045B000106811EC12F00001640E176E000E186EF8
:1045C00015EC13F0000113C0E8FF9E2714C0E8FFAC
:1045D0009F239EC00DF09FC00EF012C40FF000018B
:1045E0000EBE13C40FF0106A0FBE106811EC12F06B
:1045F0000001640E176E000E186E15EC13F000012A
:1046000013C0E8FF9A2714C0E8FF9B239EC00DF05B
:104610009FC00EF014C40FF000010EBE15C40FF0C1
:10462000106A0FBE106811EC12F00001640E176ED4
:10463000000E186E15EC13F0000113C0E8FF9C2764
:1046400014C0E8FF9D23A0C00DF0A1C00EF016C459
:104650000FF000010EBE106A0FBE106811EC12F0D0
:104660000001640E176E000E186E15EC13F00001B9
:1046700013C0E8FF9C2714C0E8FF9D239AC075F083
:104680009BC076F09CC077F09DC078F09EC079F01A
:104690009FC07AF0A0C07BF0A1C07CF0040117A1FC
:1046A00060EF23F09CC07FF09DC080F0040118A152
:1046B00060EF23F000017F1F801F7F2BD8B0802B7D
:1046C000030198A17DEF23F09CC00DF09DC00EF07A
:1046D0009EC00FF09FC010F000010DC077F00EC01B
:1046E00078F00DC079F00EC07AF00F507927105095
:1046F0007A230F50775F1050785B030199A19AEFEE
:1047000023F09CC00DF09DC00EF09AC00FF09BC02E
:1047100010F000010DC077F00EC078F00DC075F0FC
:104720000EC076F00F507527105076230F50775F2C
:104730001050785B03019AA155EF24F09AC00DF058
:104740009BC00EF00DC075F00EC076F00DC081F06C
:104750000EC082F00001640E176E000E186E030189
:104760009C51E812D8B4FEEF23F0E8BEDCEF23F052
:10477000640800010F6E106A76BFCDEF23F075C09C
:104780000DF076C00EF011EC12F015EC13F013C022
:1047900075F014C076F0FEEF23F0000181C00DF03B
:1047A00082C00EF011EC12F015EC13F013C081F082
:1047B00014C082F0FEEF23F0640F00010F6E106A48
:1047C00076AFF1EF23F075C00DF076C00EF011EC6E
:1047D00012F015EC13F013C075F014C076F0FEEF74
:1047E00023F0000181C00DF082C00EF011EC12F038
:1047F00015EC13F013C081F014C082F003019BA1EB
:1048000008EF24F00001811F821F812BD8B0822B7A
:104810000001640E176E000E186E03019D51E81220
:10482000D8B455EF24F00301C651E812D8B42BEFE9
:1048300024F00301C55188EC27F0D8B055EF24F0DF
:104840000001E80E0D6E030E0E6EA0510D5EA1511B
:104850000E5A37EF24F00001E80E0D6E030E0E6EB7
:10486000A6510D26A7510E22D8900E320D329DC3AF
:104870000FF09EC310F0106A0FBE101E11EC12F064
:1048800015EC13F0135075271450762303019BB1D8
:1048900050EF24F00001131E141E132AD8B0142A5E
:1048A0000001135081271450822312000301A4A198
:1048B000120053EC22F0CCEC22F012000301A4B160
:1048C00066EF24F053EC22F0CCEC22F003019EA121
:1048D00081EF24F00301C25188EC27F0D8A081EFCA
:1048E00024F003019F5100010D6E0E6A00010A0EB3
:1048F0000F6E000E106E11EC12F013C07BF014C09E
:104900007CF00301A0A1AEEF24F00301C35188ECB9
:1049100027F0D8A090EF24F00301A15199EF24F0E3
:104920000301C45188EC27F0D8A0AEEF24F00301B6
:10493000A25100010D6E0E6A00010A0E0F6E000EEC
:10494000106E11EC12F013507B5D14507C59E8AEE0
:10495000AEEF24F013C07BF014C07CF012001DC435
:10496000E8FFE812D8B4120075C00DF076C00EF062
:1049700077C00FF078C010F07FC075F080C076F07F
:104980007FC077F080C078F000010DC0E8FF752788
:104990000EC0E8FF76230DC0E8FF7F5F0EC0E8FF82
:1049A000805B0FC0E8FF772710C0E8FF78231DC4A5
:1049B000E8FF0308D8B412000001D89010BED880D8
:1049C00010320F3200010FC0E8FF7F5F10C0E8FF18
:1049D000805B0FC0E8FF755F10C0E8FF765B1DC409
:1049E000E8FF0108D8B4120000010FC0E8FF7F5FA4
:1049F00010C0E8FF805B0FC0E8FF755F10C0E8FFE4
:104A0000765B12000BC0E8FFF00BD8B412000DC0AB
:104A10006BF00EC06CF00EAE13EF25F00D1E0E1EE7
:104A20000D2AD8B00E2A0DC013F00EC014F0640E7B
:104A3000176E44EC12F000011C6A090E13602BEF94
:104A400025F00BC0E8FFE83AE8060F0BE8B648EFA0
:104A500025F03DEF25F0136E0DC01BF00EC01CF0CD
:104A6000840E00011B5E030E1C5A0BC0E8FFE83ADF
:104A7000E8060F0BE8B648EF25F00B0DF350460F94
:104A80001324E8CFD9FF020EE8CFDAFF52EF25F06A
:104A9000E8960B0DF350DA0F1324E8CFD9FF030E7D
:104AA000E8CFDAFFDECF0AF0DFCF0BF000010BC05A
:104AB0000DF00AC0E8FF0D5E0E6A0DBE0E681BC049
:104AC0000FF01CC010F011EC12F00A0E176E44EC3F
:104AD00012F00AC0E8FF0A0DF3CFE8FF1326F4CF67
:104AE000E8FF142213C00DF014C00EF000016CAFEB
:104AF000120000010D1E0E1E0D2AD8B00E2A120043
:104B0000E650E8CF0BF0E812D8B4120080EC02F0C7
:104B100002EC25F00DC011F00EC012F0E6CF0AF045
:104B2000E6CFE8FF0001E8CF0DF00E6A0DBE0E1EC5
:104B300000010A0E0F6E000E106E11EC12F011C083
:104B40000DF012C00EF013500D5E14500E5A0EBE32
:104B5000DFEF25F0E6CFE8FF00010AACC8EF25F053
:104B6000E8CF13F0E9CF14F00DC011F00EC012F031
:104B7000135080EC02F00DC013F00EC014F00A0EBA
:104B8000176E44EC12F011C00DF012C00EF013506D
:104B90000F6E106A0FBE101E11EC12F00001640EB1
:104BA000176E000E186E196A1A6A15EC13F013C00E
:104BB0000DF014C00EF00A5000EC03F01200E6CF26
:104BC000E8FFE6CFE8FF00010AAAFDEF25F0E8CFF5
:104BD00013F00DC011F00EC012F0135080EC02F073
:104BE0000DC013F00EC014F00A0E176E44EC12F054
:104BF00011C00DF012C00EF013500F6E106A0FBEF0
:104C0000101E11EC12F00001640E176E000E186EEB
:104C1000196A1A6A15EC13F013C00DF014C00EF0E7
:104C20000A5000EC03F012000001BD0EC26F030E2B
:104C3000C36F0001120EC06F010EC16F050EC46F6D
:104C400060EC26F0D90EE8CFD9FF060EE8CFDAFFE8
:104C5000060EE8CF0CF0DDCFE8FFE812D8B438EF4D
:104C600026F0DFCFE8FF88EC27F0D8B044EF26F03D
:104C7000DDCFE8FF0C2E2BEF26F0B2C0E8FF0201DB
:104C800000634DEF26F01200DECFE8FFDECFE8FF35
:104C9000020100634DEF26F01200E8CF00F2C4ECF1
:104CA00021F00001120EC26F010EC36F0001BD0E94
:104CB000C06F030EC16F050EC46F60EC26F01200CA
:104CC0000001C251E16EC351E26E0001C051D96EC4
:104CD000C151DA6EE6CFE8FFE8CFDEFF0001C42F56
:104CE0006AEF26F012000001CC6B0301AE5188EC94
:104CF00027F00001D8B0CC810301AF5188EC27F038
:104D00000001D8B0CC830301B05188EC27F000013A
:104D1000D8B0CC850301B15188EC27F00001D8B0A0
:104D2000CC870301B65188EC27F00001D8B0CC89BC
:104D30000301BB5188EC27F00001D8B0CC8B0301F4
:104D4000BC5188EC27F00001D8B0CC8D1200C00E09
:104D500028EC0EF00301AE5188EC27F00001E86A60
:104D6000E880CC15D8A0C3EF26F0D8A4D4EF26F065
:104D7000CC71000EF86E6F0EF76EE20EF66ED5EC8B
:104D80000EF085EF27F0D8B0D4EF26F0D8B4D4EFEA
:104D900026F0CC71000EF86E6F0EF76ED00EF66E28
:104DA000D5EC0EF085EF27F00301AF5188EC27F02A
:104DB0000001E86AE882CC15D8A0EDEF26F0D8A46F
:104DC000FEEF26F0CC73000EF86E700EF76E060E36
:104DD000F66ED5EC0EF085EF27F0D8B0FEEF26F09A
:104DE000D8B4FEEF26F0CC73000EF86E6F0EF76E9F
:104DF000F40EF66ED5EC0EF085EF27F00301B051FE
:104E000088EC27F00001E86AE884CC15D8A017EFF9
:104E100027F0D8A428EF27F0CC75000EF86E700E9E
:104E2000F76E2A0EF66ED5EC0EF085EF27F0D8B0AF
:104E300028EF27F0D8B428EF27F0CC75000EF86ED5
:104E4000700EF76E180EF66ED5EC0EF085EF27F0AB
:104E50000301B15188EC27F00001D8A03EEF27F004
:104E6000CCB73FEF27F0CC77000EF86E700EF76EE0
:104E7000720EF66ED5EC0EF085EF27F0CC9703019D
:104E8000B65188EC27F00001D8A055EF27F0CCB937
:104E900056EF27F0CC79000EF86E700EF76E600EAC
:104EA000F66ED5EC0EF085EF27F0CC990301BB51DF
:104EB00088EC27F00001D8A06CEF27F0CCBB6DEF99
:104EC00027F0CC7B000EF86E700EF76E3C0EF66E7F
:104ED000D5EC0EF085EF27F0CC9B0301BC5188EC9C
:104EE00027F00001D8A083EF27F0CCBD84EF27F096
:104EF000CC7D000EF86E700EF76E4E0EF66ED5EC91
:104F00000EF085EF27F0CC9D1200500EB06F12000E
:104F1000E8AABFEF27F0E8A8BFEF27F00A6E070B5B
:104F2000C90FE16E030EE26EE65000010D6E0E6ACF
:104F3000E8BE0E6800010A0E0F6E000E106E11EC36
:104F400012F00A50070BE846340FE16E010EE26ED4
:104F5000E6CF0DF0E6CF0EF000010EAEB4EF27F075
:104F60000D1E0E1E0D4A0E2A0DC0E8FF135E0EC068
:104F7000E8FF1458E8360ABE1200D8701200D89024
:104F8000E8BA1200D880E8B8120000011F6E206A4B
:104F9000E8BC2080070BE82AD8802036E82ECDEF29
:104FA00027F030501FB633502014D8802062D8909C
:104FB0001FBED8701200040ED56E1200D59E1200CE
:104FC000D89087B21200D880D5BE1200D0C00DF0A4
:104FD000D1C00EF000013C0E0F6E000E106E22ECE0
:104FE00012F013C00DF014C00EF00001240E0F6E6D
:104FF000F40E106E22EC12F0CEC017F0CFC018F0F5
:105000000001000E196E000E1A6EF8EC14F0A5C324
:1050100017F0A6C318F00001186A15EC13F0C00EC3
:1050200028EC0EF0000EF86E6F0EF76E400EF66E66
:10503000D5EC0EF0CB0E28EC0EF02EEC0FF0A5C345
:1050400013F0A6C314F0146AC00E28EC0EF02AEC7C
:105050000FF00001000ED06F000ED16FD88012004B
:105060000001020E36621200000133A01200FC6A39
:1050700049EF05F049EC28F0D8A01200FC6A5EEC7C
:1050800021F000C2E8FFEFEC21F01CEC22F049EF28
:1050900005F0000130B653EF28F032A653EF28F0A8
:1050A0003296D8801200D89012000001700E0E6E59
:1050B000960E0D6E9CEC28F0B4EC0EF00001115031
:1050C00080EC01F012001EC10DF01FC10EF0B4EC17
:1050D0000EF012000001FC51D8B41200E1CF3EF1F5
:1050E000E2CF3FF1A8EC19F00001000E756F000E41
:1050F000766F0001000E776F000E786F69EC1BF081
:10510000FCEC1AF0C2EC1DF0D2EC1EF043EC1CF0EB
:1051100056EC24F074EC22F05EEC24F039EC1DF037
:10512000B3EC1FF0A1EC0FF03EC1E1FF3FC1E2FF85
:1051300012000001FC69120030EC28F00001DA6B6B
:10514000E86BF76BF86BC00E28EC0EF00DC0F6FFA5
:105150000EC0F7FFF86A0DC00FF00EC010F0D5ECCE
:105160000EF0FA0E0FEC0CF029EC2DF0D8A4BFEFE6
:1051700028F0110E0D26D8B00E2AC6EF28F0D8A0C0
:10518000D3EF28F0130E0D26D8B00E2A0DC0F6FF6F
:105190000EC0F7FFF86A0900F5CF0DF00900F5CF52
:1051A0000EF0A3EF28F03AEC28F038EC21F0D8A06C
:1051B000A3EF28F0150E0D26D8B00E2A0DC0F6FF6D
:1051C0000EC0F7FFF86A0900F5CF11F00900F5CF1E
:1051D00012F00FC00DF010C00EF00900F5CF0FF067
:1051E0000900F5CF10F00900F5CFDBF00900F5CF8D
:1051F000DCF00001C66BC76BC8697F0EE8CFC9F051
:1052000012AC0FEF29F00900F5CFC6F00900F5CF79
:10521000C7F00900F5CFC8F00900F5CFC9F012A416
:1052200018EF29F00900F5CFF7F00900F5CFF8F0F5
:1052300012A221EF29F00900F5CFF9F00900F5CF0E
:10524000FAF012AE26EF29F0B4EC0EF012A62BEF16
:1052500029F0CAEC0EF012A212000001E86AE8CFB1
:10526000FBFFFAC0E8FFE8CFFAFFF9C0E8FFF96EEC
:10527000E8CF0AF00FC01BF010C01CF00FC0F6FF03
:1052800010C0F7FFF86A150EF626D8B0F72A090005
:10529000F5CFE8FF0A624EEF29F012000FC0F6FFCB
:1052A00010C0F7FF110EF626D8B0F72A0900F5CF87
:1052B0000FF00900F5CF10F00FC0E8FF1B623EEFC2
:1052C00029F010C0E8FF1C623EEF29F01200000137
:1052D00010500F10D8B41200E86AFB6E1050E8CFDF
:1052E000FAFF0F50F96E00010F50E16E1050E26EA0
:1052F0000001000E116291EF29F00FC0F6FF10C0FF
:10530000F7FFF86A160EF626D8B0F72ADBC0E1FFE1
:10531000DCC0E2FFE7CFE8FF38EC29F096EC2CF098
:105320001200010E11629BEF29F0250EE8CF40F12B
:105330006CEC2BF01200020E1162C5EF29F0000197
:1053400012A0A6EF29F0DB510001C56FE6CF0AF0ED
:10535000E5CF0BF000010AC011F00BC012F0129E55
:10536000129CC9EC2BF000010FC0E1FF10C0E2FF5E
:1053700011C00AF012C00BF00AC0E6FFE7CFE8FF49
:10538000C00B0B120BC0E5FF1200030E1162DAEF27
:1053900029F0E7CFE8FFE836BDEC2AF0000ED8B0E0
:1053A000E81E0A6E00010FC0E1FF10C0E2FF0AC054
:1053B000E7FF1200040E1162EBEF29F0E7CFE8FFE0
:1053C000DDEC2CF00A6E00010FC0E1FF10C0E2FF1F
:1053D0000AC0E7FF1200050E1162FDEF29F0E7CFCA
:1053E000E8FF12EC2BF0E8CF0AF000010FC0E1FF5C
:1053F00010C0E2FF0AC0E7FF1200060E116213EFB1
:105400002AF0E7CF0AF00FC0DBF010C0DCF000019B
:10541000CE0E0F6E850E106E0AC0E8FF38EC29F034
:1054200096EC2CF01200070E11621AEF2AF067ECCE
:1054300029F01200080E11622BEF2AF0E7CFE8FFE7
:105440000CEC2BF0E8CF0AF000010FC0E1FF10C018
:10545000E2FF0AC0E7FF0A0E11624CEF2AF0E7CF25
:10546000E8FF0001DB15D890D8B4D880BDEC2AF055
:105470000001DBC00AF000010FC0E1FF10C0E2FF35
:10548000D8B047EF2AF00AC0E8FFE71212000AC0BE
:10549000E8FFE81EE71612000B0E116256EF2AF025
:1054A000200EE8CF40F16CEC2BF012000C0E1162D4
:1054B00073EF2AF0E6CF0AF0E5CF0BF000010AC047
:1054C00011F00BC012F04AEC2CF000010FC0E1FF0C
:1054D00010C0E2FF11C00AF012C00BF00AC0E6FFD4
:1054E0000BC0E5FF120012000B6AD8B00B1EC00EF5
:1054F00028EC0EF0000EF86E6E0EF76EE00EF66EF3
:10550000D5EC0EF00BA099EF2AF0C80E28EC0EF0A7
:10551000280E19EC0EF0CC0E28EC0EF0290E19EC2A
:105520000EF0CF0E28EC0EF0200E19EC0EF0ABEFC3
:105530002AF0C80E28EC0EF0200E19EC0EF0CC0E5E
:1055400028EC0EF0280E19EC0EF0CF0E28EC0EF021
:10555000290E19EC0EF029EC2DF0D8B40B6AFF0ED1
:10556000D8B00B6E3AEC28F038EC21F0D8A082EFDE
:105570002AF0D8900BB0D88012000B6AD8B00B1E5E
:10558000C80E28EC0EF0000EF86E6F0EF76E1E0EB1
:10559000F66ED5EC0EF00BA0E2EF2AF0C80E28EC68
:1055A0000EF0280E19EC0EF0CC0E28EC0EF0290EA1
:1055B00019EC0EF0CF0E28EC0EF0200E19EC0EF0C8
:1055C000F4EF2AF0C80E28EC0EF0200E19EC0EF0C5
:1055D000CC0E28EC0EF0280E19EC0EF0CF0E28ECB5
:1055E0000EF0290E19EC0EF029EC2DF0D8B40B6A50
:1055F000FF0ED8B00B6E3AEC28F038EC21F0D8A0B2
:10560000CBEF2AF0D8900BB0D88012000001C8650B
:10561000C851C661C65112000001F5690001AA6FA8
:1056200016EF2BF00001AA6F0001F56B960E0FEC40
:105630000CF0AAC0E8FF0001136E146A156A166A1E
:1056400058EC0FF00001F56734EF2BF0CD0E28EC8D
:105650000EF0275019EC0EF0285019EC0EF02950DE
:1056600019EC0EF043EF2BF0CC0E28EC0EF0275087
:1056700019EC0EF0285019EC0EF02E0E19EC0EF06D
:10568000295019EC0EF04FEC2DF00001D8A454EF86
:105690002BF0AA2BC8C0E8FFAA61AA6FAA6761EF26
:1056A0002BF0AA6F61EF2BF0D8A061EF2BF0AAC00E
:1056B000E8FFC66161EF2BF0AA07C6C0E8FFAA6544
:1056C000AA6F3AEC28F038EC21F0D8A016EF2BF0B6
:1056D0000001AAC0E8FF12006AEC28F0FDC0E8FF54
:1056E0007F08E8BEE86AE846E8660FEC0CF0E7CF12
:1056F000E8FFE7BEE81EE7BEE82A0001136E146A61
:10570000156A166A58EC0FF0CB0E28EC0EF0200E3E
:10571000E7BE2D0E19EC0EF0275019EC0EF02850B4
:1057200019EC0EF0295019EC0EF040C1E8FF19EC0D
:105730000EF04FEC2DF00001D8A4A2EF2BF0E72AD9
:10574000A6EF2BF0D8A0A6EF2BF0E7063AEC28F056
:1057500038EC21F0D8A06CEF2BF00001FC6B1200AC
:1057600000011150C85D1250C959D8B0BDEF2BF0DF
:10577000C851116EC951126E1200C651115CC75149
:105780001258D8B0C8EF2BF0C651116EC751126E27
:105790001200B0EC2BF00001CB6B0001C551E812F8
:1057A000D8B4DBEF2BF0C551E16E000EE26E11C0F4
:1057B000E6FF12C0E7FFFDC0E8FF7F08E8BEE86A29
:1057C000E846E8660FEC0CF011C013F012C014F0BC
:1057D000D89014321332156A166A58EC0FF0C90EBD
:1057E00028EC0EF0265019EC0EF02E0E19EC0EF0EF
:1057F000275019EC0EF0285019EC0EF0295019EC36
:105800000EF06D0E19EC0EF0530E19EC0EF04FEC7D
:105810002DF00001D8A41CEF2CF0112AD8B4122AC4
:10582000112AD8B4122AC9511262C9EF2BF0C851FB
:105830001160116EC9EF2BF0D8A02EEF2CF01106DD
:10584000D8A012061106D8A01206C7511262C9EFDD
:105850002BF0C6511164116EC9EF2BF0000133A279
:10586000CB6933BC39EF2CF00001A00E116E0F0E86
:10587000126E000133BE42EF2CF00001D00E116E0B
:10588000070E126E3AEC28F038EC21F0D8A0CDEFDC
:105890002BF01200FDC0E8FF7F08E8BEE86AE8468A
:1058A000E8660FEC0CF011C013F012C014F0156A8A
:1058B000166A58EC0FF0CB0E28EC0EF0255019ECC0
:1058C0000EF0265019EC0EF0275019EC0EF028506F
:1058D00019EC0EF0295019EC0EF04FEC2DF00001F0
:1058E000D8A47FEF2CF0112AD8B4122AC951126221
:1058F0004AEF2CF0C8511160116E4AEF2CF0D8A07D
:105900008EEF2CF01106D8A01206C75112624AEF92
:105910002CF0C6511164116E4AEF2CF03AEC28F0CD
:1059200038EC21F0D8A04AEF2CF01200C00E28EC81
:105930000EF00FC0F6FF10C0F7FFD5EC0EF0FA0E18
:105940000FEC0CF04FEC2DF0D8A4ADEF2CF0110EB5
:105950000F26D8B0102AB4EF2CF0D8A0C1EF2CF04D
:10596000130E0F26D8B0102A0FC0F6FF10C0F7FF95
:10597000F86A0900F5CF0FF00900F5CF10F096EFA7
:105980002CF03AEC28F038EC21F0D8A096EF2CF06F
:10599000150E0F26D8B0102A0FC0F6FF10C0F7FF63
:1059A000F86A0900F5CF0AF00900F550DBC0E1FF05
:1059B000DCC0E2FF0AC0E7FF12000F0BE8B6080BDD
:1059C0000C0DF3CF13F0F4CF14F00001860E132664
:1059D0007B0E1422CC0E28EC0EF013C0F6FF14C080
:1059E000F7FFD5EC0EF0FA0E0FEC0CF04FEC2DF0AB
:1059F000D8A401EF2DF0050E1326D8B0142A08EF15
:105A00002DF0D8A015EF2DF0070E1326D8B0142ACC
:105A100013C0F6FF14C0F7FFF86A0900F5CF13F0C2
:105A20000900F5CF14F0EAEF2CF03AEC28F038EC4E
:105A300021F0D8A0EAEF2CF0090E1326D8B0142AD2
:105A400013C0F6FF14C0F7FFF86A0900F5CFE8FFAE
:105A50001200040EFAEC08F0040EFAEC08F0D2C0C2
:105A6000E8FFC35ED3C0E8FFC45AC4BE42EF2DF0C6
:105A7000640EC35E000EC45AC4BE4CEF2DF0D88431
:105A8000D8901200640EC326000EC422C4AE4CEFA0
:105A90002DF0D894D8801200D894D8901200050E1A
:105AA000FAEC08F0050EFAEC08F0D4C0E8FFC35E8B
:105AB000D5C0E8FFC45AC4BE6CEF2DF0640EC35EBF
:105AC000000EC45AC4BE7CEF2DF0C466C368C3CFB9
:105AD000FDF0D884D8901200640EC326000EC422B4
