:020000040000FA
:040200006BEF03F0AD
:040208000EEF01F004
:080218002DEF01F0D8CF01F039
:10022000E0CF02F0006EF3CF03F0F4CF04F0F0ACB7
:100230001DEF01F0F0B029EC0DF0A2A023EF01F0CA
:10024000A1B0ADEC0AF003C0F3FF04C0F4FF00500E
:1002500002C0E0FF01C0D8FF1000D8CF06F0E8CF01
:1002600005F0E0CF07F0F3CF08F0F4CF09F0F0BCD1
:100270003DEF01F0F0B029EC0DF0A2B043EF01F03A
:10028000A1B0ADEC0AF0A2B04CEF01F0AECFE8FFA8
:100290006ECFE8FF52EF01F09EBA35EC12F0A4BA2F
:1002A000A0EC12F0A4B600EC0FF008C0F3FF09C0F8
:1002B000F4FF07C0E0FF05C0E8FF06C0D8FF10004C
:10030000F95000011150F9265AEF33F05CEF33F049
:1003100069EF33F07EEF33F08CEF33F09AEF33F088
:10032000A8EF33F0B6EF33F0C6EF33F0D4EF33F08D
:10033000D6EF33F0E4EF33F01200E8B81200E8BA79
:100340001200E8BC1200E8BE12000F0BD8A4AFEFF9
:1003500001F00001000E0F6E000E106E1200E80694
:10036000030B0A0DF9CFE8FFF350F92685C00FF013
:1003700086C010F0120087C00FF088C010F0120085
:1003800089C00FF08AC010F012008BC00FF08CC033
:0403900010F0120057
:10040000EFCFE8FFE806070B0A0DF9CFE8FFF3503E
:10041000F9263EC050F03FC051F012003CC050F0F1
:100420003DC051F0120040C050F041C051F01200E8
:1004300042C050F043C051F0120044C050F045C0DB
:1004400051F0120046C050F047C051F0120048C0B1
:1004500050F049C051F012004AC050F04BC051F06A
:1004600012000F0B060DF9CFE8FFF350F926BBC2BF
:10047000E8FF1200BCC2E8FF1200BDC2E8FF120094
:10048000BEC2E8FF1200BFC2E8FF1200C0C2E8FF10
:100490001200C1C2E8FF1200C2C2E8FF1200C3C2CC
:1004A000E8FF1200C4C2E8FF1200C5C2E8FF120054
:1004B000C6C2E8FF1200C7C2E8FF1200C8C2E8FFC8
:0E04C0001200C9C2E8FF1200CAC2E8FF120013
:100500000001E806070B0A0DF9CFE8FFF350F926C2
:1005100093510D6E94510E6E120095510D6E9651C1
:100520000E6E120097510D6E98510E6E1200995179
:100530000D6E9A510E6E12009B510D6E9C510E6EF7
:1005400012009D510D6E9E510E6E12009F510D6E48
:10055000A0510E6E1200A1510D6EA2510E6E12002E
:100600000001E8BE33EF03F0E806070B0A0DF9CF4F
:10061000E8FFF350F9260D5075270E50762312008F
:100620000D5077270E50782312000D5079270E5069
:100630007A2312000D507B270E507C2312000D50A0
:100640007D270E507E2312000D507F270E508023F1
:1006500012000D5081270E50822312000D50832767
:100660000E5084231200E806070B0A0DF9CFE8FFAD
:10067000F350F9260D50756F0E50766F12000D5025
:10068000776F0E50786F12000D50796F0E507A6FA1
:1006900012000D507B6F0E507C6F12000D507D6F5D
:1006A0000E507E6F12000D507F6F0E50806F120043
:1006B0000D50816F0E50826F12000D50836F0E50DF
:1006C000846F1200F2AE12000001010EA76FA7673F
:1006D00067EF03F012006BEC0DF0928802C5E8FFA3
:1006E000E81EE86676EF03F092988098939C819CD0
:1006F00000015D6A5E6A62EC09F00001566A640EF0
:1007000060EC0DF01EEC0FF0280EE8CFD4F20001E3
:10071000500E386EC30E396E51EC0FF00001306E82
:10072000316E326EE81EF96F68EC0FF00001336E27
:10073000346E356EE81EFA6F0F01999087800001C4
:10074000000E176E000E186E000E196E000E1A6E57
:100750000001000E1B6E000E1C6E000E1D6E000EC2
:100760001E6E0001000E136E000E146E000E156E4C
:10077000000E166E0001000EB16F000EB26F000188
:10078000000EB36F000EB46F0001000EB56F000EC7
:10079000B66F0001000EB76F000EB86F0101000EBA
:1007A0005D6F000E5E6F02010F0EDC6F000EDD6FDD
:1007B0000001606B616B626BA76BA86BA96BED6945
:1007C000EF6BF06BFB6BFE6BE86AE8CFDBF2E8CF18
:1007D000D2F0E8CF11F1E8CFBAF2E8CF60F1E8CF7C
:1007E000F6F0000EF86E7C0EF76EB00EF66E090095
:1007F000F5CF58F109000900F5CF59F10900F5CFFF
:100800005AF1FEEC3DF0020100510001AB6F040E05
:1008100087EC09F0040E87EC09F00001C350CB6FA0
:10082000C450CC6F050E87EC09F0050E87EC09F07B
:100830000001C350CD6FC450CE6F88EC0FF0FA0E9C
:1008400060EC0DF0FA0E60EC0DF07EEC10F0E86854
:10085000E8CFDBF2FA0E60EC0DF0FA0E60EC0DF072
:100860005DEC0AF0AAEC2DF0C1EC11F0D5EC11F022
:10087000A8EC56F0F28EF28CD08E51EC0FF0D8909E
:10088000E8B6D880D8B04DEF04F00A0E60EC0DF059
:1008900051EC0FF0D890E8B6D880D8B063EF04F0F0
:1008A00068EC0FF0D890E8B2D880D8B060EF04F0D0
:1008B0000A0E60EC0DF068EC0FF0D890E8B2D8802A
:1008C000D8A07DEF04F019EC25F00201A50EA76376
:1008D00070EF04F0E70EA86370EF04F075EF04F01A
:1008E0008088FEEC3DF0DEEC0DF000C2E8FFA4ECE9
:1008F00025F00301AD510201A56F68EC0FF0D8900F
:10090000E8B2D880D8A07DEF04F00A0E60EC0DF0BC
:1009100068EC0FF0D890E8B2D880D8A07DEF04F052
:10092000809802C5E8FFE8668078D2C2E8FFE866F2
:100930009FEF04F0808802C5E8FFE866807892980F
:100940001E0EE8CF15F0840EE8CF14F0800EE8CF2D
:1009500013F0D4C217F0E86AE8CF18F018EC15F0DD
:10096000D5C2E8FF00011326E86A142213C038F04C
:1009700014C039F0040E87EC09F0040E87EC09F07E
:100980000001C350CB6FC450CC6F050E87EC09F04B
:10099000050E87EC09F00001C350CD6FC450CE6F37
:1009A00068EC0FF0D890E8B4D880D8B0E0EF04F04D
:1009B0000A0E60EC0DF068EC0FF0D890E8B4D88027
:1009C000D8B0F6EF04F051EC0FF0D890E8B6D8802C
:1009D000D8B0F3EF04F00A0E60EC0DF051EC0FF01C
:1009E000D890E8B6D880D8A001EF08F0E86AE8CF40
:1009F000DBF268EC0FF0D890E8B4D880D8B009EFFB
:100A000005F00A0E60EC0DF068EC0FF0D890E8B439
:100A1000D8800101D8B05D690201A0C20AF00201CC
:100A2000FF0E0AB0A56FA5617DEF05F00301A6A139
:100A30005DEF05F00F0183BE5DEF05F0800EF0EC79
:100A40000FF0000EF86E7D0EF76E720EF66EAEECC5
:100A500010F0880EF0EC0FF0000EF86E7D0EF76EC1
:100A6000120EF66EAEEC10F068EC0FF0D890E8B411
:100A7000D880D8B044EF05F00A0E60EC0DF068ECB9
:100A80000FF0D890E8B4D880D8B034EF05F068EC17
:100A90000FF0D890E8B4D880D8A047EF05F00A0E40
:100AA00060EC0DF068EC0FF0D890E8B4D880D8A0D6
:100AB00047EF05F0C80E60EC0DF00201D1B164EF14
:100AC00005F0D1A37DEF05F0800E0001A36FA3EC2C
:100AD0003CF0D89043EC30F0D8B074EF05F0020150
:100AE000FF0EA56F7DEF05F0B4EC0CF02FEC0CF0D1
:100AF0006CEC0CF00A0E60EC0DF00001010E366E8D
:100B0000A3C254F0A4C255F00401495100014F6E34
:100B100076EC2AF0FCEC25F0C00EE8CF90F0E8CFA0
:100B200092F0E8CFFDF0979EFCAE9AEF05F00F0132
:100B300093948194000133B0C0EF05F0010E36624A
:100B40003AEF06F00001050EE8CF5FF0070EEFEC7C
:100B50000BF0020E366EA3967EEC10F0E868E8CF3C
:100B6000DBF20001AB5102010063B9EF05F03AEF8F
:100B700006F0006FA4EC25F0FCEC25F03AEF06F04F
:100B8000A386A496010E366E17EC2AF0D6EC1CF064
:100B900044EC1FF0C7EC07F00201A1A1F5EF05F04E
:100BA0000301B6518CEC2BF0D8A0F5EF05F0020153
:100BB000B767EDEF05F0B1C075F0B2C076F0B3C025
:100BC00077F0B4C078F0B5C079F0B6C07AF0B7C0AD
:100BD0007BF0B8C07CF0F5EF05F0F08CF086A290C9
:100BE000E868E8CFF5F0FBEF05F0F09CF086A28016
:100BF000E86AE8CFF5F00201A0B128EF06F004ECB6
:100C00001CF0D8B428EF06F0D7EC1EF06AEC1EF00A
:100C100092EC21F0EAEC22F035EC1FF013EC20F01E
:100C2000E0EC2BF052EC28F095EC26F05AEC28F092
:100C300090EC28F036EC22F009EC21F0C0EC56F0F4
:100C40000001EF67E9EC13F00001F067E9EC13F045
:100C500062EC03F0D0EC23F049EC13F07AEC11F0E5
:100C60000001A86738EF06F00A0EA86F93EC06F0B3
:100C700093EF05F0800EF0EC0FF0000EF86E7E0E94
:100C8000F76EA40EF66EAEEC10F0880EF0EC0FF0DE
:100C9000000EF86E7D0EF76E120EF66EAEEC10F0D2
:100CA0000D0E87EC09F06BC05BF16CC05CF107ECDA
:100CB00025F0D8A05EEF06F024EC2EF0D6EC1CF068
:100CC00044EC1FF0D7EC1EF06AEC1EF092EC21F021
:100CD000EAEC22F035EC1FF013EC20F0E0EC2BF006
:100CE00052EC28F095EC26F05AEC28F090EC28F025
:100CF00036EC22F009EC21F0D0EC23F07AEC11F084
:100D000093EF05F00001100E0B6E880EF0EC0FF063
:100D1000000EE16E030EE26EE650DBEC0FF00B2EE0
:100D20008CEF06F01200000133B29DEF06F035A201
:100D30009DEF06F035920201DB1F5DC1E8FFE81E62
:100D4000E8665DEF1BF04AC1E8FFE86633EF58F054
:100D50000001840EF0EC0FF0200EDBEC0FF002012E
:100D6000520EA5BF200E0001DBEC0FF00601CE51A4
:100D70008CEC2BF0410ED8A0200EDBEC0FF0030121
:100D8000B2518CEC2BF04D0ED8A02D0EDBEC0FF0F9
:100D90000301B3518CEC2BF04D0ED8A02D0EDBECE3
:100DA0000FF00301B4518CEC2BF04D0ED8A02D0E9A
:100DB000DBEC0FF0200EDBEC0FF0CEEC08F00301C3
:100DC000B6518CEC2BF0D8A002EF07F0A1C2E8FFDF
:100DD000E81EE866F9EF06F0800EF0EC0FF0000E6A
:100DE000F86E7D0EF76E480EF66EAEEC10F002EF68
:100DF00007F0800EF0EC0FF000C513F001C514F001
:100E000007EC11F00201B8AF1BEF07F0B86B000E52
:100E1000E8CF0DF0E86AE8CF0EF000C5E8FF9AECE5
:100E20000DF0010EE8CF0DF0E86AE8CF0EF001C535
:100E3000E8FF9AEC0DF0F0EC07F0D8B03DEF07F0CA
:100E4000AAEC2AF00001A951E812D8A43DEF07F05E
:100E50000201A0A139EF07F0880EF0EC0FF0000EB0
:100E6000F86E7D0EF76E2C0EF66EAEEC10F03DEFC8
:100E700007F082EC06F04AEC2DF007EC25F0D8A044
:100E800055EF07F0FCEC2CF0D8B055EF07F000015F
:100E9000566654EF07F0562ABEC35AF0BFC35BF044
:100EA000D06BD16B55EF07F05606000156A088EFC6
:100EB00007F05B6688EF07F03B0E5C6267EF07F0B8
:100EC000050E5F6E0A0EEFEC0BF088EF07F01E0EBA
:100ED0005C6272EF07F0030E5F6E0A0EEFEC0BF030
:100EE00088EF07F00A0E5C627DEF07F0010E5F6E7F
:100EF0000A0EEFEC0BF088EF07F0060E5C6088EF4F
:100F000007F0010E5F6E0A0EEFEC0BF088EF07F0B2
:100F10007F0E5C6E5850D46F5950D56F010E5662DB
:100F2000B1EF07F05A505B10D8B4A0EF07F05A5059
:100F3000D46F5B50D56F000E0301BD63B1EF07F0B6
:100F4000020E0301BD5DD8B4ADEF07F00001D05132
:100F5000D46FD151D56FB1EF07F0E86A0001D46FBB
:100F6000D56F0001C30EF0EC0FF0D551E8CF13F0B0
:100F7000146A156A166AFFEC10F03A0EDBEC0FF0FB
:100F8000D4C0E8FFE8CF13F0FFEC10F0120003012B
:100F9000C0518CEC2BF0D8A0EDEF07F00301000E50
:100FA000C165EAEF07F000017CBFEDEF07F0030138
:100FB000C15100010D6E0E6A00010A0E0F6E000E87
:100FC000106E14EC14F07B51135E7C511458D8B0A1
:100FD000EDEF07F00001ED6912000001ED6B12006A
:100FE000D8900001D2AF1200880EF0EC0FF0000E86
:100FF000F86E7D0EF76EDE0EF66EAEEC10F0D88059
:101000001200979EA396A2EC10F0E86AE8CFDBF2FC
:1010100068EC0FF0D890E8B4D880D8A008EF08F0BA
:101020000A0E60EC0DF068EC0FF0D890E8B4D880B0
:10103000D8A008EF08F051EC0FF0D890E8B6D880AF
:10104000D8A01BEF08F00A0E60EC0DF051EC0FF089
:10105000D890E8B6D880D8A01BEF08F0800EF0EC4E
:101060000FF051EC0FF0BEEC10F0C00EF0EC0FF0F2
:1010700068EC0FF0BEEC10F051EC0FF0E8B0858E8C
:10108000E8A0859E8098E8A480887FEC0FF0320E5F
:1010900060EC0DF068EC0FF0D890E8B4D880D8B0D0
:1010A0005AEF08F00A0E60EC0DF068EC0FF0D890E3
:1010B000E8B4D880D8B02EEF08F068EC0FF0D890E4
:1010C000E8B4D880D8A05DEF08F00A0E60EC0DF00F
:1010D00068EC0FF0D890E8B4D880D8A05DEF08F0A5
:1010E0000001116A800EF0EC0FF0000EF86E7C0E1D
:1010F000F76EB80EF66EAEEC10F0870EF0EC0FF057
:1011000000011150CBEC10F087EC09F0F8C0E8FFBB
:10111000E86691EF08F0D890C432C332D890C43258
:10112000C332C40EF0EC0FF0C3CF13F0C4CF14F0F1
:101130000001156A166AF7EC10F0320E60EC0DF043
:1011400068EC0FF0D890E8B4D880D8B0B0EF08F0D1
:101150000A0E60EC0DF068EC0FF0D890E8B4D8807F
:10116000D8B072EF08F068EC0FF0D890E8B4D880EF
:10117000D8A0B3EF08F00A0E60EC0DF068EC0FF0A9
:10118000D890E8B4D880D8A0B3EF08F00001112AB5
:101190000C0E116472EF08F02EEF08F0800EF0ECE8
:1011A0000FF0B9C20DF0BAC20EF00E6A0001640E63
:1011B0000F6E000E106E14EC14F013C011F014C07A
:1011C00012F08DC00DF08EC00EF013C20FF014C2DD
:1011D00010F014EC14F01450E8CF13F01550E8CFD1
:1011E00014F0156A500E1326000E1422010111B1DD
:1011F0000AEF09F000011150135C12501458E8AEC8
:101200000AEF09F0C90E00015F6E050EEFEC0BF05E
:1012100001011169000131EC11F0200EE8CF0AF054
:10122000300E25640AC025F02550DBEC0FF0265067
:10123000DBEC0FF02E0EDBEC0FF02750DBEC0FF0A9
:1012400012000D0E87EC09F00D0E87EC09F06BC053
:101250000DF06CC00EF0A9C20FF0AAC210F014EC91
:1012600014F000011450136E1550146E1650156EC4
:10127000166A31EC11F00001255026100F0BD890A2
:10128000D8B41200880EF0EC0FF0000EF86E7D0E50
:10129000F76ECC0EF66EAEEC10F0CB0EF0EC0FF05D
:1012A00000012550DBEC0FF02650DBEC0FF02E0E8A
:1012B000DBEC0FF02750DBEC0FF02850DBEC0FF0ED
:1012C000D8801200E86AE8CFF8F03F0EF86EFF0E03
:1012D000F76EFF0EF66E0800F5504A0AFF0ED8B4FE
:1012E000E8CFF8F012000101616B626B636B0A6E6C
:1012F0000B6A0A5087EC09F00101C3506127C45002
:101300006223D8B0632B0B2E79EF09F012000A6E1E
:1013100031EC02F0E8A895EF09F0D5EC09F0D8B06F
:10132000D5EC09F00AC0E8FF12009AEC09F00AC0F7
:10133000E8FF1200C16AE8AEC188E89EE8BCC18A35
:10134000E8ACC19AE8BA818AE8AA819A0F0BE8440E
:10135000E844C26EA10EC06E040EE8CF0CF000018E
:10136000000E6B6F000E6C6FC2800000000000006A
:10137000C282C2B2B9EF09F00001C3506B27C4505A
:101380006C2300010C06F0E1F8C0E8FFE81EE866F7
:10139000D0EF09F0D8906C336B33D8906C336B334B
:1013A0006BC0C3FF6CC0C4FF12000DC064F10EC05F
:1013B00065F10FC066F110C067F113C068F114C089
:1013C00069F115C06AF116C06BF1030E31EC02F041
:1013D0009AEC09F06BC017F06CC018F00AC0E8FF77
:1013E00031EC02F0E8989AEC09F06BC00DF06CC09B
:1013F0000EF0030E31EC02F09AEC09F0000117C078
:10140000E8FF6B5F18C0E8FF6C5B6CAF0DEF0AF094
:101410006B1F6C1F6B2BD8B46C2B6C51D8A43AEF9C
:101420000AF06B510201DC5DD8A03AEF0AF000012E
:10143000000E0F6E080E106E14EC14F018EC15F080
:1014400013C06BF014C06CF06BC0C3FF6CC0C4FF62
:1014500064C10DF065C10EF066C10FF067C110F0F8
:1014600068C113F069C114F06AC115F06BC116F0C0
:10147000D89012000001000E0F6E080E106E14ECD2
:1014800014F018EC15F013C06BF014C06CF06BC0C6
:10149000C3FF6CC0C4FF64C10DF065C10EF066C12E
:1014A0000FF067C110F068C113F069C114F06AC190
:1014B00015F06BC116F0D880120000014E6A586A10
:1014C000596AD4C2E8FFE8CF57F00001900E546E7D
:1014D000010E556E0001900E506E010E516E526A53
:1014E000536A100E0001E8CF4FF03A6A3C6A3E6A38
:1014F000406A426A446A466A486A4A6A4C6A080E06
:10150000E8CF3BF0E8CF3DF0E8CF3FF0E8CF41F047
:10151000E8CF43F0E8CF45F0E8CF47F0E8CF49F017
:10152000E8CF4BF0E8CF4DF0858E000154500F010D
:10153000E8CFBBFF000155500F01E8CFBCFF0A0EFA
:101540000F01E8CFBAFF0F01A0800F019E900F019D
:10155000080EE8CFB1FFB18012000001F5A1857E31
:101560000201BAAFB7EF0AF08770BFEF0AF00001CF
:10157000EBB1BEEF0AF08780BFEF0AF08790000161
:10158000BBCFE8FF5026BCCFE8FF512250C0E8FF98
:10159000E8CFBBFF51C0E8FFE8CFBCFF0001E86A1D
:1015A0004E6438EC0BF000014E2A4EC0E8FFFE0BF3
:1015B0004F60EEEF0AF04E6A38C0E8FFE8CF50F017
:1015C00052C0E8FF505E39C0E8FFE8CF51F053C089
:1015D000E8FF515A526A536A35EF0BF04EA003EF01
:1015E0000BF054C0E8FFE8CF50F055C0E8FFE8CF5B
:1015F00051F0BAC2E8FF0001EB814E622FEF0BF011
:10160000EB912FEF0BF0120E4E621BEF0BF052C05E
:10161000E8FFE8CF50F053C0E8FFE8CF51F0513277
:1016200050325132503251325032513250320F0E0C
:1016300051162FEF0BF0040EE8CFEAFF000EE8CFB3
:10164000E9FF4EC0E8FFE830E89EE804E92600EC38
:1016500002F054C0E8FF505E55C0E8FF515A50C038
:10166000E8FF522651C0E8FF53220F01A19012005B
:10167000ECEC0EF0AFEC11F0B9EC11F00001010E42
:10168000366246EF0BF00001FF0EC36F0301CDBFC2
:101690004FEF0BF00001F5A1859E52EF0BF000011A
:1016A000F5A1858E0201BAAF5EEF0BF00301CDBF4D
:1016B0005DEF0BF087905EEF0BF087800001572EF7
:1016C000A5EF0BF0ADEC2DF0000156A094EF0BF060
:1016D0000001FF0EED6394EF0BF05AC0E8FF5B10C2
:1016E000D8B48CEF0BF05A6679EF0BF03C0E5A6EC3
:1016F0005B065A065A505C6E0301E86ABD11D8B405
:101700008CEF0BF000015A505B10D8B48CEF0BF04B
:10171000D06BD16B94EF0BF00001D02B3C0ED0635B
:1017200094EF0BF0D06BD12BD4C2E8FFE8CF57F089
:10173000582A3C0E5862A5EF0BF0586A592A050149
:10174000002BD8B4012B0201B8690201A1A1AEEFB0
:101750000BF0530EEEEC11F00001AE6BD8908FB889
:10176000D880D8B0D4EF0BF07FEC0FF051EC0FF035
:101770000001311AD8A4306E316E30C0E8FF321249
:10178000E81EF91332C0E8FFF91768EC0FF000010A
:10179000341AD8A4336E346E33C0E8FF3512E81E15
:1017A000FA1335C0E8FFFA17000160676007616748
:1017B000610762676207A767A707A867A807A96705
:1017C000A9075E66E5EF0BF012005E2E120080782E
:1017D0005F4E12005DC0E8FFE8CF5EF01200E8CF78
:1017E0005DF0E8CF5EF0D2C2E8FFE86600EF0CF0F3
:1017F000809802C5E8FFE86680787FEC0FF0120061
:10180000808802C5E8FFE86680787FEC0FF0120060
:1018100000010ABE0FEF0CF0819E10EF0CF0818EDC
:10182000828A829A0A460B2E08EF0CF012000201FF
:10183000AD510A6E080E0B6E08EC0CF00201AC51B3
:101840000A6E080E0B6E08EC0CF00201AB510A6E2A
:10185000080E0B6E08EC0CF08686869612000BC103
:1018600013F00CC114F00DC115F009C117F00AC135
:1018700018F018EC15F00201A55101010F03F35007
:1018800000011326D8B0142AD8B0152A0101006B24
:10189000016B026B00011350E846E846E880E892CD
:1018A0001F0B13B6E88E0101006F000113361436CA
:1018B00015361336143615361336143615361336D8
:1018C0001436153614500101016F000115501F0B1D
:1018D00001011009026F12002FEC0CF001010851F8
:1018E0000A6E080E0B6E08EC0CF0010107510A6E2F
:1018F000080E0B6E08EC0CF0010106510A6E080E82
:101900000B6E08EC0CF086868696010105510A6E76
:10191000080E0B6E08EC0CF0010104510A6E080E63
:101920000B6E08EC0CF0010103510A6E080E0B6EF1
:1019300008EC0CF086868696010102510A6E080EAC
:101940000B6E08EC0CF0010101510A6E080E0B6ED3
:1019500008EC0CF0010100510A6E080E0B6E08EC49
:101960000CF08686869612000F01939E949A939CA3
:10197000819C819E829A989686960201010ED1637F
:10198000E1EF0CF004C206F105C207F106C208F14E
:1019900001C203F102C204F103C205F10101700E9C
:1019A0000B6FC60E0C6F000E0D6F0101140E096F48
:1019B000000E0A6F01010E6B0A0E106F010E0F6F01
:1019C0001200020ED16304EF0DF00AC206F10BC241
:1019D00007F10CC208F107C203F108C204F109C201
:1019E00005F101016C0E0B6FCF0E0C6F000E0D6F29
:1019F0000101140E096F000E0A6F01010E6B080E33
:101A0000106F050E0F6F1200030ED16328EF0DF05B
:101A100010C206F111C207F112C208F10DC203F1A2
:101A20000EC204F10FC205F101014A0E0B6F190E2F
:101A30000C6F010E0D6F01010A0E096F000E0A6F87
:101A400001010B0E0E6F320E106F020E0F6F12009F
:101A5000120087B247EF0DF0D5AE39EF0DF0D6CFBB
:101A6000C7F0D7CFC8F00001C92BD8B4CA2BF0906B
:101A700012000001C951CA11F090D8A41200E86AFE
:101A8000E8CFD7FFE8CFD6FFD58EF0901200F17ADD
:101A9000F0AC59EF0DF00301CDA155EF0DF0F1AA17
:101AA000858EF1BA859E59EF0DF0F1AA859EF1BAA7
:101AB000858EF09012000000E82E5BEF0DF0120012
:101AC0000A6EFA0E5BEC0DF0FA0E5BEC0DF00A2ECE
:101AD00061EF0DF01200050EE26EE86AE16EE86A51
:101AE000AA6EE86AA96EA69EA69CA680A850E66E7D
:101AF000A92AF9E112000EC0E8FFE26E0DC0E8FF6E
:101B0000E16EE86AAA6E0DC0E8FFA96EA69EA69CCB
:101B1000A680A850E66EA92A0A06F8E112000EC0B7
:101B2000E8FFAA6E0DC0E8FFA96EA69EA69CA6803F
:101B3000A8501200A198A86E0EC0E8FFAA6E0DC0B2
:101B4000E8FFA96EA69EA69CA684F29E550EA76EDF
:101B5000AA0EA76EA682F28EA1A8ACEF0DF0A198F6
:101B600012000FC0E8FF9AEC0DF000010D2AD8B466
:101B70000E2A10C0E8FF9AEC0DF012000EC0E8FF2C
:101B8000E26E0DC0E8FFE16EE86AAA6E0DC0E8FFE4
:101B9000A96EA198E650A86EA69EA69CA684F29E69
:101BA000550EA76EAA0EA76EA682F28EA1A8D6EF3A
:101BB0000DF0A198A92A0A06EDE11200A396A2EC65
:101BC00010F0800EF0EC0FF0000EF86E7D0EF76E48
:101BD000840EF66EAEEC10F0FA0E60EC0DF07EECBA
:101BE00010F0E868E8CFDBF2880EF0EC0FF0000EA2
:101BF000F86E7D0EF76E000EF66EAEEC10F08CEC0B
:101C000030F0D8A01200880EF0EC0FF0000EF86E45
:101C10007D0EF76E960EF66EAEEC10F0800EF0ECC8
:101C20000FF0000EF86E7D0EF76E960EF66EAEECAF
:101C300010F0FEEC3DF03EEC25F00001600EA46FCC
:101C400000C2E8FFCFEC25F00201002B0301072BB7
:101C50003A0E07632FEF0EF0062B300E076F0001D0
:101C6000A42F20EF0EF019EC25F000C2E8FFA4EC41
:101C700025F0A2EC10F0120000011550F86E14507F
:101C8000F76E1350F66E00010E50E26E0D50E16ECD
:101C90000900F550E66E0A060900F550E66E0A2EB8
:101CA00048EF0EF0120000011550F86E1450F76E58
:101CB0001350F66EA68EA69CA684A688F29E550E9C
:101CC000A76EAA0EA76EA6820000F28E0001400E3B
:101CD0001326000E142215220A2E53EF0EF01200C6
:101CE00062EC03F000011550F86E1450F76E1350BB
:101CF000F66EA68EA69CA684A688F29E550EA76EAA
:101D0000AA0EA76EA682F28E0A0000010E50E26EA5
:101D10000D50E16E400E0B6EE6CFE8FFF56E0F0042
:101D20000B2EFAD7A68EA69CA684F29E550EA76E01
:101D3000AA0EA76EA682F28EA6940001400E13266C
:101D4000000E142215220001400E0D26000E0E2258
:101D50000A2E70EF0EF0120000011550F86E1450AC
:101D6000F76E1350F66EA68EA69CA684A688F29EE9
:101D7000550EA76EAA0EA76EA6820000F28E0A006C
:101D8000080E0B6E00010E50E26E0D50E16E080E53
:101D90000C6EE6CFE8FFF56E0F000C2EFAD7A68E7C
:101DA000A69CA684F29E550EA76EAA0EA76EA682CA
:101DB0000000F28E0B2EEBD7A6940001400E1326E6
:101DC000000E142215220001400E0D26000E0E22D8
:101DD0000A2EACEF0EF012000201DA51D8B4120054
:101DE000D8908FB8D880D8B01200DBC2E8FFE86680
:101DF000FDEF0EF0A2EC10F012007EEC10F01200DD
:101E0000A3A612000201DA51D8A41CEF0FF0D8905B
:101E10008FB8D880D8B01CEF0FF00001FF2B190E3F
:101E2000FF6315EF0FF07EEC10F0320EFF631CEF36
:101E30000FF0A2EC10F0FF6BA49612000F0194902B
:101E400094929494948694880F01829082828284E2
:101E50000F018880888288848886888AE8680F01D4
:101E6000966EE86A0F01956E0F01836EE86AE8CFFF
:101E7000FFF07F0E766EE868776EA396A496A5961F
:101E80001200836E96688280000084508290E8CFB2
:101E90008DFF1200E8CF83FF966A82808290966859
:101EA00012008F88280E41EC0FF0E86A8DB6E888A2
:101EB0008DB8E88A8DBAE88C8DB0E8828DB2E88062
:101EC0008DB4E88488B0E88E88BAE8868F981200CE
:101ED0008F88280E41EC0FF0E86A8DBEE88C8DBC2F
:101EE000E88E82B6E88682B8E88888B6E88088B24C
:101EF000E88488B4E88A88BEE8828F9812008F88C8
:101F0000200E846A89A884804AEC0FF08F98120012
:101F10009396939A93988186818A8188140E60ECB7
:101F20000DF03F0EF3EC0FF0050E60EC0DF03F0EE0
:101F3000F3EC0FF0010E60EC0DF03F0EF3EC0FF040
:101F4000010E60EC0DF03F0EF0EC0FF00C0EF0EC1B
:101F50000FF0060EF0EC0FF0800EF0EC0FF0010E1B
:101F6000F0EC0FF0E868E8CF5FF1400EF0EC0FF016
:101F7000400EE8CF0AF0000EF86E200EF76E720EDB
:101F8000F66E0AC0E8FFB1EC10F0E86AE8CF5FF146
:101F9000800EF0EC0FF07C0EF76E940EF66EAEEC49
:101FA00010F0880EF0EC0FF07C0EF76EA60EF66EB9
:101FB000AEEC10F012008F880EEC10F0380E41C11C
:101FC00084FF4AEC0FF0818A81988186000000002E
:101FD00081968188819A00001CEC10F08F98120085
:101FE0008F880EEC10F08F88E8CF41F1380E41C198
:101FF00084FF4AEC0FF0819A8198818600000000EE
:10200000819681888F9812008188819A8186E8CF95
:1020100041F1300E41EC0FF08196120014EC10F0FB
:10202000D8B00EEF10F0120004EC10F0D890E8BE1B
:10203000D88041C1E8FF120001015F6712000EEC79
:1020400010F004EC10F07F0BE8CF41F10101400EDD
:1020500041611200100E416332EF10F0C80EF0EC37
:102060000FF01200080E41631200C00EF0EC0FF0EA
:10207000120010101010101010101818181818183E
:1020800018181C1C1C1C1C1C1C1C1E1E1E1E1E1E8C
:102090001E1E0101010101010101030303030303EA
:1020A000030307070707070707070F0F0F0F0F0F98
:1020B0000F0F1F1F1F1F1F1F1F1F800EF0EC0FF0A1
:1020C0000DC0F6FF0EC0F7FFF86AAEEC10F012007C
:1020D000880EF0EC0FF00DC0F6FF0EC0F7FFF86AA7
:1020E000AEEC10F01200880EF0EC0FF0D4C0F6FF4A
:1020F000D5C0F7FFF86AAEEC10F0120060C1E8FF3F
:10210000020AD8B41200020EF0EC0FF0180EF0EC38
:102110000FF0180EF0EC0FF0180EF0EC0FF0180E98
:10212000F0EC0FF0180EF0EC0FF0180EF0EC0FF0D2
:10213000180EF0EC0FF0180EF0EC0FF0020EE8CFD6
:1021400060F1120060C1E8FF010AD8B41200020E6B
:10215000F0EC0FF0010EE8CF60F11200100EB1EFBD
:1021600010F00A6E0900F5CFE8FFE812D8B41200AB
:10217000DBEC0FF00A4E1200B2EF10F00A6E080E00
:102180000B6E300E0ABE310EDBEC0FF00A360B2E52
:10219000C1EF10F012000A6E3A0E0B6E0AC0E8FF93
:1021A000F00BE842E842E842E84230090B64070FCE
:1021B000DBEC0FF00AC0E8FF0F0B30090B64070FD0
:1021C000DBEC0FF00AC0E8FF120031EC11F02550F3
:1021D000DBEC0FF02650DBEC0FF02750DBEC0FF0C0
:1021E0002850DBEC0FF02950DBEC0FF0120031EC43
:1021F00011F0EAEF10F031EC11F0EDEF10F031ECEE
:1022000011F0F0EF10F031EC11F0F3EF10F031ECD1
:1022100011F01BEC11F02550DBEC0FF02650DBEC3D
:102220000FF02750DBEC0FF02850DBEC0FF02950BB
:10223000DBEC0FF012000001300E25621200200EC0
:10224000256E300E26621200200E266E300E27629A
:102250001200200E276E300E28621200200E286E0B
:1022600012000001196A1A6A100E176E270E186EF6
:1022700018EC15F0300E1310256E1BC013F01CC0A7
:1022800014F01DC015F01EC016F0196A1A6AE80E87
:10229000176E030E186E18EC15F0300E1310266E24
:1022A0001BC013F01CC014F01DC015F01EC016F0AA
:1022B000196A1A6A640E176E000E186E18EC15F083
:1022C000300E1310276E1BC013F01CC014F01DC07D
:1022D00015F01EC016F0196A1A6A0A0E176E000E63
:1022E000186E18EC15F0300E1310286E300E1B10FF
:1022F000296E12000001310E376283EF11F019ECE4
:1023000025F0ADEF11F0320E37628DEF11F000C203
:10231000E8FFA4EC25F0ADEF11F0330E376295EF36
:1023200011F03EEC25F0ADEF11F0340E37629DEF69
:1023300011F000C2E8FFCFEC25F0350E3762ADEFAB
:1023400011F00001FF0E0D6E030E0E6EE8CF0EF0C1
:10235000FF0E9AEC0DF0ADEF11F0376A12000F018D
:10236000ABA21200AB98AB880F01AE500001636BBB
:1023700012000F016BA212006B986B880F016E5058
:1023800012000C0EE8CFAFFF220EE8CFACFF900E8C
:10239000E8CFABFF0001636B9F9A9D8A1200ACA24D
:1023A000CFEF11F0E8CFADFF12000C0EE8CF6FFFBA
:1023B000D6C2E8FFE866E0EF11F0030EE8CF6FFF4A
:1023C0007C96260EE8CF6CFF900EE8CF6BFFA59AA7
:1023D000A38A12006CA2EAEF11F012006CA2EEEFD9
:1023E00011F0E8CF6DFF1200E1CF21F0E2CF22F033
:1023F000000167C0E1FF000166C0E2FF6A6BACA2AA
:10240000FFEF11F0E6CFE8FF00016A27E8CFADFF4C
:102410000001682FFFEF11F021C0E1FF22C0E2FFB1
:102420001200E1CF21F0E2CF22F0000167C0E1FF0E
:10243000000166C0E2FF6A6B0001050E606FE86A8A
:10244000606530EF12F09EAA20EF12F0AECFE8FFE9
:10245000E8CFE6FF00016A270001682F1CEF12F0A9
:1024600021C0E1FF22C0E2FF12009EAA120000017B
:10247000000E636348EF12F0AECFE8FFE8CF64F0E0
:10248000550E64631200280EE8CF61F0632B120032
:10249000010E636352EF12F0AECFE8FFE8CF65F0B4
:1024A000632B1200020E63635CEF12F0AECFE8FF05
:1024B000E8CF66F0632B1200030E636366EF12F041
:1024C000AECFE8FFE8CF67F0632B1200040E636322
:1024D0006FEF12F0AECFE8FFE8CF68F0632B050E88
:1024E00063637BEF12F0010E656379EF12F011EC7C
:1024F00012F0632B1200060E63639EEF12F0AECF54
:10250000E8FFE8CF69F0020E65638FEF12F0F4EC9C
:1025100011F06AC0E8FFCFEC11F0636B12006AC0E3
:10252000E8FF696399EF12F00C0ECFEC11F0636BCA
:1025300012000D0ECFEC11F0636B1200636B1200F2
:10254000A4AA12006ECFE8FF0201A1B1E3EF12F0DE
:10255000530AD8A412000201A0A1120000010F0E1C
:1025600076151009EEEC11F075C0E8FFEEEC11F0F5
:10257000EAEC11F0050E5BEC0DF000010F0E781582
:102580002009EEEC11F07751EEEC11F0EAEC11F0CD
:10259000050E5BEC0DF000010F0E7A153009EEEC24
:1025A00011F07951EEEC11F0EAEC11F0050E5BEC54
:1025B0000DF000010F0E7C154009EEEC11F07B517F
:1025C000EEEC11F012000001AEB1EAEF12F0B06FC4
:1025D000AE2B1200AF6FAE2B020EAE6303EF13F003
:1025E000B051F00B100AD8A448EF13F00F0EB0173B
:1025F000B0A7FDEF12F0F00EB013AFC0B1F0B0C055
:10260000B2F048EF13F0040EAE631AEF13F0B051BE
:10261000F00B200AD8A448EF13F00F0EB017B0A7A4
:1026200014EF13F0F00EB013AFC0B3F0B0C0B4F0BD
:1026300048EF13F0060EAE6331EF13F0B051F00B1C
:10264000300AD8A448EF13F00F0EB017B0A72BEF45
:1026500013F0F00EB013AFC0B5F0B0C0B6F048EF55
:1026600013F0080EAE6348EF13F0B051F00B400AC0
:10267000D8A448EF13F00F0EB017B0A742EF13F035
:10268000F00EB013AFC0B7F0B0C0B8F048EF13F021
:102690001200D6C2E8FFE81EE8661200AA0EEEECB1
:1026A00011F0AA0EEEEC11F00A6A0B6A040EE26E4B
:1026B000000EE16E0AC0E8FFE3CF0DF0000EE26EFF
:1026C0003A0EE16E0DC0E8FFE806D890E836E3CF99
:1026D0000DF0E82AE3CF0EF000010E3AF00E0E16D0
:1026E0000AC0E8FFE82A0E120E3A0BC0E8FF0D24DC
:1026F0000E24E8CF0BF00DC0E8FFEEEC11F00EC099
:10270000E8FFEEEC11F00A2A080E0A608FEF13F0D2
:1027100049C4E8FFD890E8320A6456EF13F00BC0C2
:10272000E8FFEEEC11F0ED0EEEEC11F0ED0EEEEC3C
:1027300011F012000001EF67A8EF13F07E960C0E67
:102740000F01AF6E220EAC6E900EE8CFABFF120001
:102750007C960C0E0F016F6E220E6C6E900EE8CF01
:102760006BFF12000001E80E0D26030E0E220EAEC6
:10277000BFEF13F0E86AE8CF0DF0E8CF0EF0780E67
:102780000D5C070E0E58D8A0C9EF13F0EF0ED0EF76
:1027900013F00E320D320E320D320E320D320D505C
:1027A0000001EF67EEEF11F0CFEF11F000010EAE78
:1027B000DFEF13F0E86AE8CF0DF0E8CF0EF0BC0EC3
:1027C0000D5C030E0E58D8A0CBEF13F0EF0ED0EF38
:1027D00013F0F00ED0EC13F0800ED0EC13F075C0B7
:1027E0000DF076C00EF0B2EC13F077C00DF078C0AB
:1027F0000EF0B2EC13F079C00DF07AC00EF0B2EC2E
:1028000013F07BC00DF07CC00EF0D6EC13F07DC051
:102810000DF07EC00EF0B2EC13F07FC00DF080C062
:102820000EF0B2EC13F0120025EC14F010AE1DEF18
:1028300014F00D50155E0E50165A0EAE24EF14F023
:102840000F50155E1050165A12000001136A146AD8
:10285000156A166A0F500D02F3CF13F0F4CF14F07F
:102860000F500E02F3501426F4501522D8B0162A39
:1028700010500D02F3501426F4501522D8B0162A29
:1028800010500E02F3501526F450162212000001CB
:10289000246A1B6A14501310D8B4000C1450171873
:1028A000E8BE241EAA6B000E17AE59EF14F0171ED7
:1028B000172A14AE60EF14F0131E141E132A1422EC
:1028C00014501710E8BEECEF14F017501B5E1436CE
:1028D00014341B3617501B26143614341B3617506D
:1028E00014B01B5E14A01B26143614341B3617506C
:1028F00014B01B5E14A01B26143614341B3617505C
:1029000014B01B5E14A01B26143614341B3617504B
:1029100014B01B5E14A01B26143614341B3617503B
:1029200014B01B5E14A01B26143614341B3617502B
:1029300014B01B5E14A01B26143613341B3617501C
:1029400014B01B5E14A01B26133613341B3617500D
:1029500013B01B5E13A01B26133613341B361750FF
:1029600013B01B5E13A01B26133613341B361750EF
:1029700013B01B5E13A01B26133613341B361750DF
:1029800013B01B5E13A01B26133613341B361750CF
:1029900013B01B5E13A01B26133613341B361750BF
:1029A00013B01B5E13A01B26133613341B361750AF
:1029B00013B01B5E13A01B26133613A01B26AAB14F
:1029C0000AEF15F024AE000C131E141EE86A132A39
:1029D00014221B1E1B2A000C17AE05EF15F014BEA7
:1029E00001EF15F0E8CFA3F01350E8CF1BF01B9ECA
:1029F000133614361450E8CF13F0A351146AE2EFE3
:102A000014F0136A132A146A000C141E131EAA2B46
:102A100065EF14F01B2A17501B62E2EF14F01B6ADB
:102A2000000E132A142214AEE2EF14F02388FF0CD8
:102A30000001246A1C6A1B6A155014101310D8B4C4
:102A4000000C15501818E8BE241EAA6B000E18AE14
:102A50002EEF15F0171E181E172A182215AE37EF85
:102A600015F0131E141E151E132A142215221550BC
:102A70001810E8BEC1EF16F017501B5E18501C5A14
:102A8000153615341B361C3617501B2618501C22C1
:102A9000153615341B361C36175015A055EF15F09A
:102AA0001B5E18501C5A58EF15F01B2618501C229C
:102AB000153615341B361C36175015A065EF15F06A
:102AC0001B5E18501C5A68EF15F01B2618501C226C
:102AD000153615341B361C36175015A075EF15F03A
:102AE0001B5E18501C5A78EF15F01B2618501C223C
:102AF000153615341B361C36175015A085EF15F00A
:102B00001B5E18501C5A88EF15F01B2618501C220B
:102B1000153615341B361C36175015A095EF15F0D9
:102B20001B5E18501C5A98EF15F01B2618501C22DB
:102B3000153615341B361C36175015A0A5EF15F0A9
:102B40001B5E18501C5AA8EF15F01B2618501C22AB
:102B5000153614341B361C36175015A0B5EF15F07A
:102B60001B5E18501C5AB8EF15F01B2618501C227B
:102B7000143614341B361C36175014A0C5EF15F04C
:102B80001B5E18501C5AC8EF15F01B2618501C224B
:102B9000143614341B361C36175014A0D5EF15F01C
:102BA0001B5E18501C5AD8EF15F01B2618501C221B
:102BB000143614341B361C36175014A0E5EF15F0EC
:102BC0001B5E18501C5AE8EF15F01B2618501C22EB
:102BD000143614341B361C36175014A0F5EF15F0BC
:102BE0001B5E18501C5AF8EF15F01B2618501C22BB
:102BF000143614341B361C36175014A005EF16F08B
:102C00001B5E18501C5A08EF16F01B2618501C2289
:102C1000143614341B361C36175014A015EF16F05A
:102C20001B5E18501C5A18EF16F01B2618501C2259
:102C3000143614341B361C36175014A025EF16F02A
:102C40001B5E18501C5A28EF16F01B2618501C2229
:102C5000143613341B361C36175014A035EF16F0FB
:102C60001B5E18501C5A38EF16F01B2618501C22F9
:102C7000133613341B361C36175013A045EF16F0CD
:102C80001B5E18501C5A48EF16F01B2618501C22C9
:102C9000133613341B361C36175013A055EF16F09D
:102CA0001B5E18501C5A58EF16F01B2618501C2299
:102CB000133613341B361C36175013A065EF16F06D
:102CC0001B5E18501C5A68EF16F01B2618501C2269
:102CD000133613341B361C36175013A075EF16F03D
:102CE0001B5E18501C5A78EF16F01B2618501C2239
:102CF000133613341B361C36175013A085EF16F00D
:102D00001B5E18501C5A88EF16F01B2618501C2208
:102D1000133613341B361C36175013A095EF16F0DC
:102D20001B5E18501C5A98EF16F01B2618501C22D8
:102D3000133613341B361C36175013A0A5EF16F0AC
:102D40001B5E18501C5AA8EF16F01B2618501C22A8
:102D5000133613B0B0EF16F017501B2618501C2274
:102D6000AAB1E5EF16F024AE000C131E141E151EBA
:102D7000000E132A142215221B1E1C1E1B2A1C22A5
:102D8000000C18AEDFEF16F015BEDAEF16F0E8CF44
:102D9000A3F01450E8CF1CF01350E8CF1BF01C9E9A
:102DA000143615361550E8CF13F0A351156A146A7E
:102DB000B3EF16F0136A132A146A156A000C151E75
:102DC000141E131EAA2B3CEF15F01B2AE86A1C22C6
:102DD00017501B62B3EF16F018501C62B3EF16F0D9
:102DE0001C6A1B6A000E132A1422152215AEB3EFBB
:102DF00016F02388FF0C00011E6A1D6A1C6A1B6AFC
:102E000016341B361C361D361E3617501B5E1850E6
:102E10001C5A19501D5A1A501E5AAA6BAA5B163614
:102E200016341B361C361D361E36AA37175016A010
:102E300025EF17F01B5E18501C5A19501D5A1A50D6
:102E40001E5AE86AAA5B2EEF17F01B2618501C22A8
:102E500019501D221A501E22E86AAA23163616346B
:102E60001B361C361D361E36AA37175016A044EFE7
:102E700017F01B5E18501C5A19501D5A1A501E5A32
:102E8000E86AAA5B4DEF17F01B2618501C22195058
:102E90001D221A501E22E86AAA23163616341B3643
:102EA0001C361D361E36AA37175016A063EF17F0D2
:102EB0001B5E18501C5A19501D5A1A501E5AE86AA7
:102EC000AA5B6CEF17F01B2618501C2219501D220C
:102ED0001A501E22E86AAA23163616341B361C36F0
:102EE0001D361E36AA37175016A082EF17F01B5E4C
:102EF00018501C5A19501D5A1A501E5AE86AAA5BDB
:102F00008BEF17F01B2618501C2219501D221A5047
:102F10001E22E86AAA23163616341B361C361D36C6
:102F20001E36AA37175016A0A1EF17F01B5E1850D7
:102F30001C5A19501D5A1A501E5AE86AAA5BAAEF69
:102F400017F01B2618501C2219501D221A501E2241
:102F5000E86AAA23163616341B361C361D361E3672
:102F6000AA37175016A0C0EF17F01B5E18501C5A56
:102F700019501D5A1A501E5AE86AAA5BC9EF17F079
:102F80001B2618501C2219501D221A501E22E86AB6
:102F9000AA23163616341B361C361D361E36AA37A3
:102FA000175016A0DFEF17F01B5E18501C5A19506F
:102FB0001D5A1A501E5AE86AAA5BE8EF17F01B2642
:102FC00018501C2219501D221A501E22E86AAA23EA
:102FD000163615341B361C361D361E36AA371750CA
:102FE00016A0FEEF17F01B5E18501C5A19501D5A00
:102FF0001A501E5AE86AAA5B07EF18F01B261850F1
:103000001C2219501D221A501E22E86AAA231536C6
:1030100015341B361C361D361E36AA37175015A020
:103020001DEF18F01B5E18501C5A19501D5A1A50EB
:103030001E5AE86AAA5B26EF18F01B2618501C22BD
:1030400019501D221A501E22E86AAA23153615347B
:103050001B361C361D361E36AA37175015A03CEFFE
:1030600018F01B5E18501C5A19501D5A1A501E5A3F
:10307000E86AAA5B45EF18F01B2618501C2219506D
:103080001D221A501E22E86AAA23153615341B3653
:103090001C361D361E36AA37175015A05BEF18F0E8
:1030A0001B5E18501C5A19501D5A1A501E5AE86AB5
:1030B000AA5B64EF18F01B2618501C2219501D2221
:1030C0001A501E22E86AAA23153615341B361C3600
:1030D0001D361E36AA37175015A07AEF18F01B5E62
:1030E00018501C5A19501D5A1A501E5AE86AAA5BE9
:1030F00083EF18F01B2618501C2219501D221A505D
:103100001E22E86AAA23153615341B361C361D36D6
:103110001E36AA37175015A099EF18F01B5E1850ED
:103120001C5A19501D5A1A501E5AE86AAA5BA2EF7F
:1031300018F01B2618501C2219501D221A501E224E
:10314000E86AAA23153615341B361C361D361E3682
:10315000AA37175015A0B8EF18F01B5E18501C5A6C
:1031600019501D5A1A501E5AE86AAA5BC1EF18F08E
:103170001B2618501C2219501D221A501E22E86AC4
:10318000AA23153615341B361C361D361E36AA37B3
:10319000175015A0D7EF18F01B5E18501C5A195085
:1031A0001D5A1A501E5AE86AAA5BE0EF18F01B2657
:1031B00018501C2219501D221A501E22E86AAA23F8
:1031C000153614341B361C361D361E36AA371750DA
:1031D00015A0F6EF18F01B5E18501C5A19501D5A16
:1031E0001A501E5AE86AAA5BFFEF18F01B26185007
:1031F0001C2219501D221A501E22E86AAA231436D6
:1032000014341B361C361D361E36AA37175014A030
:1032100015EF19F01B5E18501C5A19501D5A1A5000
:103220001E5AE86AAA5B1EEF19F01B2618501C22D2
:1032300019501D221A501E22E86AAA23143614348B
:103240001B361C361D361E36AA37175014A034EF15
:1032500019F01B5E18501C5A19501D5A1A501E5A4C
:10326000E86AAA5B3DEF19F01B2618501C22195082
:103270001D221A501E22E86AAA23143614341B3663
:103280001C361D361E36AA37175014A053EF19F0FE
:103290001B5E18501C5A19501D5A1A501E5AE86AC3
:1032A000AA5B5CEF19F01B2618501C2219501D2236
:1032B0001A501E22E86AAA23143614341B361C3610
:1032C0001D361E36AA37175014A072EF19F01B5E78
:1032D00018501C5A19501D5A1A501E5AE86AAA5BF7
:1032E0007BEF19F01B2618501C2219501D221A5072
:1032F0001E22E86AAA23143614341B361C361D36E7
:103300001E36AA37175014A091EF19F01B5E185003
:103310001C5A19501D5A1A501E5AE86AAA5B9AEF95
:1033200019F01B2618501C2219501D221A501E225B
:10333000E86AAA23143614341B361C361D361E3692
:10334000AA37175014A0B0EF19F01B5E18501C5A82
:1033500019501D5A1A501E5AE86AAA5BB9EF19F0A3
:103360001B2618501C2219501D221A501E22E86AD2
:10337000AA23143614341B361C361D361E36AA37C3
:10338000175014A0CFEF19F01B5E18501C5A19509B
:103390001D5A1A501E5AE86AAA5BD8EF19F01B266C
:1033A00018501C2219501D221A501E22E86AAA2306
:1033B000143613341B361C361D361E36AA371750EA
:1033C00014A0EEEF19F01B5E18501C5A19501D5A2C
:1033D0001A501E5AE86AAA5BF7EF19F01B2618501C
:1033E0001C2219501D221A501E22E86AAA231336E5
:1033F00013341B361C361D361E36AA37175013A041
:103400000DEF1AF01B5E18501C5A19501D5A1A5015
:103410001E5AE86AAA5B16EF1AF01B2618501C22E7
:1034200019501D221A501E22E86AAA23133613349B
:103430001B361C361D361E36AA37175013A02CEF2C
:103440001AF01B5E18501C5A19501D5A1A501E5A59
:10345000E86AAA5B35EF1AF01B2618501C22195097
:103460001D221A501E22E86AAA23133613341B3673
:103470001C361D361E36AA37175013A04BEF1AF014
:103480001B5E18501C5A19501D5A1A501E5AE86AD1
:10349000AA5B54EF1AF01B2618501C2219501D224B
:1034A0001A501E22E86AAA23133613341B361C3620
:1034B0001D361E36AA37175013A06AEF1AF01B5E8E
:1034C00018501C5A19501D5A1A501E5AE86AAA5B05
:1034D00073EF1AF01B2618501C2219501D221A5087
:1034E0001E22E86AAA23133613341B361C361D36F7
:1034F0001E36AA37175013A089EF1AF01B5E18501A
:103500001C5A19501D5A1A501E5AE86AAA5B92EFAB
:103510001AF01B2618501C2219501D221A501E2268
:10352000E86AAA23133613341B361C361D361E36A2
:10353000AA37175013A0A8EF1AF01B5E18501C5A98
:1035400019501D5A1A501E5AE86AAA5BB1EF1AF0B8
:103550001B2618501C2219501D221A501E22E86AE0
:10356000AA23133613341B361C361D361E36AA37D3
:10357000175013A0C7EF1AF01B5E18501C5A1950B1
:103580001D5A1A501E5AE86AAA5BD0EF1AF01B2681
:1035900018501C2219501D221A501E22E86AAA2314
:1035A000133613B0DCEF1AF017501B2618501C22EC
:1035B00019501D221A501E22000C4C202020416957
:1035C0006C65726F6E202020205255202020456CA3
:1035D000657661746F72202020444C202020205298
:1035E000756464657220202020524C20202054688D
:1035F000726F74746C6520202048412020202020A8
:103600004348203520202020204255202020202003
:1036100043482036202020202044552020202020F0
:1036200043482037202020202044432020202020F1
:1036300043482038202020202041456C6576617465
:103640006F72202020202020202041696C65726F3D
:103650006E20202020202020202052756464657276
:10366000202020202020202020205468726F747495
:103670006C65202020202020202043483520202059
:1036800020202020202020202020434836202020D9
:1036900020202020202020202020434837202020C8
:1036A00020202020202020202020434838202020B7
:1036B00020202020202020202020A3960001BA0EC8
:1036C0000D6E350E0E6E5EC1E8FFE83A00010D2664
:1036D000D8B00E2A5DEC10F09BEC1BF0D8B091EF47
:1036E0001BF00F01750EE16E000EE26E5EC1E8FF89
:1036F000070BE846E126D8B0E22AE650E8CF0DF005
:10370000E650E8CF0EF0E1CFE8FF7D0AD8A48DEFB8
:103710001BF046EC59F091EF1BF059EC58F0C4EC5B
:1037200058F007EC25F00101D8B05E2B0F0E5E17A4
:10373000A386A4961200D8905EC1E8FFE8A6120006
:103740000F013C0EE16E000EE26E5EC1E8FF070B5A
:10375000E846E126D8B0E22AE650E8CF13F0E5507B
:10376000E8CF14F0C10EF0EC0FF0E6EC1BF0E650E1
:10377000E8CF0DF0E550E8CF0EF0C1EC1BF0D8809B
:1037800012000001AEC2E8FF0D5EAFC2E8FF0E5AA4
:103790000001E80E0F6E030E106E14EC14F0B0C2B0
:1037A00017F0B1C218F00001AEC2E8FF175EAFC259
:1037B000E8FF185A18EC15F0880EF0EC0FF013C063
:1037C0000DF014C00EF046EC59F012000001D89034
:1037D00014321332156A166A31EC11F02650DBEC04
:1037E0000FF02E0EDBEC0FF02750DBEC0FF0285023
:1037F000DBEC0FF02950DBEC0FF06D0EDBEC0FF083
:10380000530EDBEC0FF0120051EC0FF0D890E8B63D
:10381000D880D8B014EF1CF00A0E60EC0DF051EC1B
:103820000FF0D890E8B6D880D8B08AEF1CF068ECDA
:103830000FF0D890E8B2D880D8B027EF1CF00A0E6D
:1038400060EC0DF068EC0FF0D890E8B2D880D8B0FA
:103850008AEF1CF00001D2674CEF1CF00001D26926
:10386000030132C30DF033C30EF00001E80E0F6EFA
:10387000030E106E14EC14F014C01CF115C01DF1F1
:103880000301345101011C270301355101011D239E
:1038900034C31AF135C31BF11EEC33F0D8B05DEF21
:1038A0001CF0D8A464EF1CF001011A07D8A01B0774
:1038B0001A07D8A01B0764EF1CF001011A2BD8B41B
:1038C0001B2B1A2BD8B41B2B1CC10DF01DC10EF0E5
:1038D00001011A5100010D5E01011B5100010E5A38
:1038E0000001000E0F6E010E106E14EC14F00001BA
:1038F000E80E176E030E186E18EC15F013C032F3B5
:1039000014C033F31AC134F31BC135F313EC20F0A8
:10391000D88412000001D26790EF1CF0D8941200F6
:10392000D26B19EC26F0D894120000016B51E8CF4D
:103930000DF06C51E8CF0EF06F510D5E70510E5AC4
:10394000D8A0B2EF1CF06D51E8CF0FF06E51E8CF68
:1039500010F014EC14F01450E8CF73F01550E8CFC9
:1039600074F012007151E8CF0FF07251E8CF10F0EF
:1039700014EC14F01450E8CF73F01550E8CF74F045
:1039800012006BC00DF06CC00EF06F510D5E7051E7
:103990000E5A6DC00FF06EC010F014EC14F01450FD
:1039A000E8CF73F01550E8CF74F012000001750EE7
:1039B000BB6F000EBC6F0001750EB96F000EBA6FC1
:1039C000080EE8CFBAF0260EBD6F63EC2AF0040EA5
:1039D00087EC09F015C26DF016C26EF017C26FF0D9
:1039E00018C270F019C271F01AC272F095EC1CF096
:1039F00073C00DF074C00EF043C40BF00B3AE6EC4C
:103A000028F00DC034F10EC035F10DC075F00EC0B8
:103A100076F0050E87EC09F01BC26DF01CC26EF04B
:103A20001DC26FF01EC270F01FC271F020C272F092
:103A300095EC1CF073C00DF074C00EF044C40BF094
:103A40000B3AE6EC28F00DC036F10EC037F10DC090
:103A500077F00EC078F0060E87EC09F021C26DF009
:103A600022C26EF023C26FF024C270F025C271F042
:103A700026C272F095EC1CF073C00DF074C00EF00D
:103A800045C40BF00B3AE6EC28F00DC038F10EC03F
:103A900039F10DC079F00EC07AF0070E87EC09F00D
:103AA000070E87EC09F027C26DF028C26EF029C21C
:103AB0006FF02AC270F0C1EC1CF073C00DF074C03E
:103AC0000EF046C40BF00B3AE6EC28F00DC03AF1CC
:103AD0000EC03BF10DC07BF00EC07CF00DC027F492
:103AE0000EC028F4030E87EC09F000010F01C3CFCC
:103AF000E8FFE8CF8DF0C4CFE8FFE8CF8EF0080EE6
:103B000087EC09F02DC26FF02EC270F02BC26DF061
:103B10002CC26EF0C1EC1CF073C085F074C086F04E
:103B2000090E87EC09F031C26FF032C270F02FC27B
:103B30006DF030C26EF0C1EC1CF073C087F074C041
:103B400088F00A0E87EC09F035C26FF036C270F0CB
:103B500033C26DF034C26EF0C1EC1CF073C089F05A
:103B600074C08AF00B0E87EC09F039C26FF03AC2CC
:103B700070F037C26DF038C26EF0C1EC1CF073C04B
:103B80008BF074C08CF00301B5518CEC2BF0D8A0F5
:103B9000D1EF1DF00001E80E7D6F030E7E6FD6EFB2
:103BA0001DF00001180E7D6FFC0E7E6F000E87EC7D
:103BB00009F03BC26DF03CC26EF03DC26FF03EC2F8
:103BC00070F0C1EC1CF073C00DF074C00EF047C46F
:103BD0000BF00B3AE6EC28F00DC07FF00EC080F041
:103BE000010E87EC09F03FC26DF040C26EF041C299
:103BF0006FF042C270F0C1EC1CF073C00DF074C0E5
:103C00000EF048C40BF00B3AE6EC28F00DC081F042
:103C10000EC082F00301B7518CEC2BF0D8A018EF46
:103C20001EF00001E80E836F030E846F32EF1EF06A
:103C30000301B9518CEC2BF0D8A026EF1EF0000147
:103C4000180E836FFC0E846F32EF1EF00301B85123
:103C50008CEC2BF0D8A032EF1EF00001000E836F29
:103C6000000E846F12000001106A0FBE101E14ECCB
:103C700014F00001640E176E000E186E18EC15F0AB
:103C800013C011F014C012F013C00FF014C010F0E4
:103C90000EAE50EF1EF00F1E101E0F2AD8B0102AC5
:103CA00014EC14F000010A0E176E000E186E18ECDA
:103CB00015F00B50E8CF17F0186A17BE181E18EC55
:103CC00015F011500D5E12500E5A13500D2614505F
:103CD0000E2212000301AE518CEC2BF075C00DF0DA
:103CE00076C00EF0D8A080EF1EF003011B5100013A
:103CF000E8CF0FF003011751E8CF0BF088EF1EF06B
:103D000003011A510001E8CF0FF0640EE8CF0BF069
:103D100033EC1EF00DC075F00EC076F00301AF510C
:103D20008CEC2BF077C00DF078C00EF0D8A0A4EF8B
:103D30001EF0030126510001E8CF0FF003012251CC
:103D4000E8CF0BF0ACEF1EF0030125510001E8CFE6
:103D50000FF0640EE8CF0BF033EC1EF00DC077F0DF
:103D60000EC078F00301B0518CEC2BF079C00DF04F
:103D70007AC00EF0D8A0C8EF1EF003013151000147
:103D8000E8CF0FF003012D51E8CF0BF0D0EF1EF07C
:103D9000030130510001E8CF0FF0640EE8CF0BF0C3
:103DA00033EC1EF00DC079F00EC07AF01200030162
:103DB000AE518CEC2BF0D8A0F6EF1EF075C00FF0D2
:103DC00076C010F017C30DF018C30EF00E6A0DBECA
:103DD0000E1E14EC14F00001640E176E000E186E27
:103DE00018EC15F013C075F014C076F00301AF5154
:103DF0008CEC2BF0D8A015EF1FF077C00FF078C037
:103E000010F022C30DF023C30EF00E6A0DBE0E1E7D
:103E100014EC14F00001640E176E000E186E18EC0E
:103E200015F013C077F014C078F00301B0518CEC9A
:103E30002BF0D8A034EF1FF079C00FF07AC010F04B
:103E40002DC30DF02EC30EF00E6A0DBE0E1E14EC27
:103E500014F00001640E176E000E186E18EC15F0C9
:103E600013C079F014C07AF0120057C1E8FFE81EC1
:103E7000E8661200E86AE8CF57F1030E00015F6EB2
:103E8000030EEFEC0BF01200D3C2E8FFE81EE86669
:103E900098EF1FF080C50FF081C510F00201B251FC
:103EA0009DEC01F00FC00DF010C00EF04BC10FF0F3
:103EB0004CC110F0E2EC1FF0E868D8B0E8CF57F141
:103EC0000FC04BF110C04CF182C50FF083C510F04C
:103ED0000201B3519DEC01F00FC00DF010C00EF0C7
:103EE0004DC10FF04EC110F0E2EC1FF0E868D8B001
:103EF000E8CF57F10FC04DF110C04EF184C50FF05F
:103F000085C510F00201B4519DEC01F00FC00DF019
:103F100010C00EF04FC10FF050C110F0E2EC1FF0D6
:103F2000E868D8B0E8CF57F10FC04FF110C050F19A
:103F3000D7C2E8FFE81EE866B8EF1FF086C50FF0AD
:103F400087C510F00201B5519DEC01F00FC00DF0D6
:103F500010C00EF051C10FF052C110F0E2EC1FF092
:103F6000E868D8B0E8CF57F10FC051F110C052F156
:103F7000D8C2E8FFE81EE86612007FC00DF080C0DE
:103F80000EF053C10FF054C110F0E2EC1FF0E868DE
:103F9000D8B0E8CF57F10FC053F110C054F181C031
:103FA0000DF082C00EF055C10FF056C110F0E2ECDA
:103FB0001FF0E868D8B0E8CF57F10FC055F110C036
:103FC00056F112000DC011F00EC012F000010FC02A
:103FD000E8FF115E10C0E8FF125A12AEF5EF1FF0B5
:103FE000111E121E112AD8B4122AD8901232113280
:103FF000D89012321132D89012321132D890123237
:104000001132D8901232113211C0E8FF1212D8903A
:10401000D8B412000EC0E8FF1018E8360DC00FF03B
:104020000EC010F0120080C50FF081C510F0020123
:10403000B2519DEC01F00301A75100010F260301CD
:10404000A8510001102218C30DF019C30EF0000191
:104050000E6AFF0E0DBE0E6E14EC14F00001640E1D
:10406000176E186A196A1A6A18EC15F00001030134
:10407000195100010D6E0E6A0DBE0E1E0D360E3664
:104080000D5013260E50142213507527145076230A
:1040900082C50FF083C510F00201B3519DEC01F011
:1040A0000301A95100010F260301AA5100011022AA
:1040B00023C30DF024C30EF000010E6AFF0E0DBEE7
:1040C0000E6E14EC14F00001640E176E186A196A73
:1040D0001A6A18EC15F000010301245100010D6E5D
:1040E0000E6A0DBE0E1E0D360E360D5013260E50E6
:1040F0001422135077271450782384C50FF085C5F8
:1041000010F00201B4519DEC01F00301AB5100012C
:104110000F260301AC51000110222EC30DF02FC356
:104120000EF000010E6AFF0E0DBE0E6E14EC14F0C0
:104130000001640E176E186A196A1A6A18EC15F0F5
:10414000000103012F5100010D6E0E6A0DBE0E1EFF
:104150000D360E360D5013260E50142213507927AB
:1041600014507A2386C50FF087C510F00201B551AF
:104170009DEC01F036C30DF037C30EF000010E6A5E
:10418000FF0E0DBE0E6E14EC14F00001640E176EDF
:10419000186A196A1A6A18EC15F00301010E3763E0
:1041A000E9EF20F00001030E0E6E186EE80E0D6EA2
:1041B000176E7B510D5E7C510E5A196A1A6A13C034
:1041C0000FF014C010F014EC14F018EC15F003EF1D
:1041D00021F0020E376303EF21F000017B510D6ED9
:1041E0007C510E6E13C00FF014C010F014EC14F0DC
:1041F0000001030EE8CF18F0E80EE8CF17F0196AB7
:104200001A6A18EC15F0000113507B2714507C2318
:10421000120000010E6A08C40DF00DBE0E68000108
:104220000A0E0F6E000E106E14EC14F0135075276A
:104230001450762300010E6A09C40DF00DBE0E68FD
:1042400000010A0E0F6E000E106E14EC14F01350E5
:1042500077271450782300010E6A0AC40DF00DBEB2
:104260000E6800010A0E0F6E000E106E14EC14F0B2
:104270001350792714507A2300010E6A0BC40DF0F5
:104280000DBE0E6800010A0E0F6E000E106E14ECCB
:1042900014F013507B2714507C2300010E6A0CC4C9
:1042A0000DF00DBE0E6800010A0E0F6E000E106EAE
:1042B00014EC14F013507D2714507E2300010E6A75
:1042C0000DC40DF00DBE0E6800010A0E0F6E000E3B
:1042D000106E14EC14F013507F271450802300014B
:1042E0000E6A0EC40DF00DBE0E6800010A0E0F6EB0
:1042F000000E106E14EC14F013508127145082231A
:1043000000010E6A0FC40DF00DBE0E6800010A0E0A
:104310000F6E000E106E14EC14F01350832714501F
:104320008423120000010A0E0D6E000E0E6E0301B2
:10433000BB518CEC2BF0D8A0E3EF21F003014DAF83
:10434000B0EF21F04CC30FF0106A0FBE106814ECF0
:1043500014F0000113C0E8FF752714C0E8FF7623AE
:1043600003014FAFC2EF21F04EC30FF0106A0FBE32
:10437000106814EC14F0000113C0E8FF772714C094
:10438000E8FF7823030151AFD4EF21F050C30FF0C1
:10439000106A0FBE106814EC14F0000113C0E8FF9F
:1043A000792714C0E8FF7A23030153AFE3EF21F02C
:1043B00052C30FF0106A0FBE106814EC14F013C053
:1043C0007BF014C07CF00301BC518CEC2BF0D8A026
:1043D0002FEF22F0030155AFFCEF21F054C30FF093
:1043E000106A0FBE106814EC14F0000113C0E8FF4F
:1043F000752714C0E8FF7623030157AF0EEF22F0B4
:1044000056C30FF0106A0FBE106814EC14F00001D0
:1044100013C0E8FF772714C0E8FF7823030159AFE2
:1044200020EF22F058C30FF0106A0FBE106814EC92
:1044300014F0000113C0E8FF792714C0E8FF7A23C5
:1044400003015BAF2FEF22F05AC30FF0106A0FBECB
:10445000106814EC14F013C07BF014C07CF0000161
:104460007CAF1200E86A7B6F7C6F120090C0E8FF9F
:10447000C00A32E07DC00DF07EC00EF000018FC09A
:10448000E8FF0D5E90C0E8FF0E5A0EBE5AEF22F014
:1044900019C4E8FF0D5E1AC4E8FF0E5A0EBE6CEF99
:1044A00022F0000119C4E8FF8F271AC4E8FF902307
:1044B00070EF22F019C4E8FF0D261AC4E8FF0E229F
:1044C0000EAE6CEF22F0000119C4E8FF8F5F1AC432
:1044D000E8FF905B70EF22F07DC08FF07EC090F01F
:1044E00092C0E8FFC00A32E083C00DF084C00EF035
:1044F000000191C0E8FF0D5E92C0E8FF0E5A0EBEAB
:1045000094EF22F01BC4E8FF0D5E1CC4E8FF0E5AB6
:104510000EBEA6EF22F000011BC4E8FF91271CC4C9
:10452000E8FF9223AAEF22F01BC4E8FF0D261CC46B
:10453000E8FF0E220EAEA6EF22F000011BC4E8FF3A
:10454000915F1CC4E8FF925BAAEF22F083C091F058
:1045500084C092F0FDC0E8FFC00A32E07BC00DF0DD
:104560007CC00EF00001FCC0E8FF0D5EFDC0E8FF5E
:104570000E5A0EBECEEF22F03FC4E8FF0D5E40C4DF
:10458000E8FF0E5A0EBEE0EF22F000013FC4E8FF44
:10459000FC2740C4E8FFFD23E9EF22F03FC4E8FF19
:1045A0000D2640C4E8FF0E220EAEE0EF22F000011F
:1045B0003FC4E8FFFC5F40C4E8FFFD5BE9EF22F089
:1045C0007BC0FCF07CC0FDF00401D00E3F6F070EF5
:1045D000406F12000201B6B312000201A1B1120035
:1045E0000301B6518CEC2BF0D8A0120000016267D9
:1045F000120002019F510001626F0201010EB663B9
:104600000BEF23F0010E00015F6E050EEFEC0BF0D7
:10461000280E0001626F75C00DF076C00EF0AEEC92
:1046200023F0D8A441EF23F00201B6671AEF23F07C
:1046300002019E51000176BF28EF23F003011927E4
:1046400019AF32EF23F0D8A632EF23F035EF23F085
:104650000301195F19BF32EF23F0D8A632EF23F020
:104660003AEF23F019BF3AEF23F0640E1961196F86
:104670003FEF23F0640EE81EE82A1965196F19EC64
:1046800026F077C00DF078C00EF0AEEC23F0D8A481
:1046900077EF23F00201B66750EF23F002019E513D
:1046A000000178BF5EEF23F00301242724AF68EFF9
:1046B00023F0D8A668EF23F06BEF23F00301245F0B
:1046C00024BF68EF23F0D8A668EF23F070EF23F043
:1046D00024BF70EF23F0640E2461246F75EF23F084
:1046E000640EE81EE82A2465246F19EC26F079C0D0
:1046F0000DF07AC00EF0AEEC23F0D8A4ADEF23F0AD
:104700000201B66786EF23F002019E5100017ABFD5
:1047100094EF23F003012F272FAF9EEF23F0D8A6AD
:104720009EEF23F0A1EF23F003012F5F2FBF9EEF39
:1047300023F0D8A69EEF23F0A6EF23F02FBFA6EF1D
:1047400023F0640E2F612F6FABEF23F0640EE81E91
:10475000E82A2F652F6F19EC26F0120000010EAE2B
:10476000B7EF23F00D1E0E1E0D2AD8B00E2AD890DA
:104770000E320D320E66C1EF23F0640E0D64C6EFEB
:1047800023F00001640E0D6E000E0E6E0DC0E8FFEA
:10479000E8460201E05D0001D894D8A0D884120058
:1047A0000001C36B000176BFE2EF23F011C30DF0EF
:1047B00012C30EF075C00FF076C010F014EC14F0B8
:1047C000ECEF23F015C30DF016C30EF075C00FF01B
:1047D00076C010F014EC14F013C30DF014C30EF0F7
:1047E000000114500D2615500E22E8EC24F00DC0E7
:1047F0003EF00EC03FF0000178BF0BEF24F01CC369
:104800000DF01DC30EF077C00FF078C010F014EC5F
:1048100014F015EF24F020C30DF021C30EF077C083
:104820000FF078C010F014EC14F01EC30DF01FC38D
:104830000EF0000114500D2615500E22E8EC24F065
:104840000DC03CF00EC03DF000017ABF34EF24F003
:1048500027C30DF028C30EF079C00FF07AC010F016
:1048600014EC14F03EEF24F02BC30DF02CC30EF02B
:1048700079C00FF07AC010F014EC14F029C30DF0D9
:104880002AC30EF0000114500D2615500E22E8EC3C
:1048900024F00DC040F00EC041F032C30DF033C320
:1048A0000EF0FCC00FF0FDC010F014EC14F034C397
:1048B0000DF035C30EF0000114500D2615500E22D8
:1048C000E8EC24F00DC042F00EC043F03AC30DF006
:1048D0003BC30EF08FC00FF090C010F014EC14F03A
:1048E0003CC30DF03DC30EF0000114500D261550D1
:1048F0000E22E8EC24F00DC044F00EC045F03EC39B
:104900000DF03FC30EF07FC00FF080C010F014EC2C
:1049100014F040C30DF041C30EF0000114500D26F9
:1049200015500E22E8EC24F00DC046F00EC047F002
:1049300042C30DF043C30EF081C00FF082C010F0EF
:1049400014EC14F044C30DF045C30EF000011450F4
:104950000D2615500E22E8EC24F00DC048F00EC0D4
:1049600049F091C00DF092C00EF00EBEC0EF24F0E1
:1049700046C30FF047C310F014EC14F0C6EF24F058
:104980004AC30FF04BC310F014EC14F048C30DF001
:1049900049C30EF00D5014260E50152214C00DF010
:1049A00015C00EF0E8EC24F00DC04AF00EC04BF03C
:1049B0000001D267E7EF24F00301B1518CEC2BF03A
:1049C000D8A0E7EF24F038C342F039C343F0120017
:1049D0000201AE5100010D5C0201AF5100010E5801
:1049E000E8AEF8EF24F0AEC20DF0AFC20EF0120048
:1049F0000201B05100010D5C0201B15100010E58DD
:104A0000E8BE1200B0C20DF0B1C20EF012000001FB
:104A1000FAA517EF25F0FA9535A417EF25F0359490
:104A2000010E5F6E050EEFEC0BF0D8801200D890EF
:104A300012000001000E0D6E020E0E6E0001000E3F
:104A4000136E000E146E010E156EE86A0A6E3CECD1
:104A50000EF0020100510001AB6F000EF86E7C0EEB
:104A6000F76EB00EF66E0900F5CFDDF20900090011
:104A7000F5CFDEF20900F5CFDFF212000001000EE3
:104A80000D6E020E0E6E0001000E136E000E146EFF
:104A9000010E156E040E0A6E70EC0EF01200E84660
:104AA000E8060B6E0001000E0D6E030E0E6E000187
:104AB000000E136E000E146E010E156E0B501426B0
:104AC000E86A1522100E0A6E3CEC0EF01200E84661
:104AD000E8060B6E0001000E0D6E080E0E6E000152
:104AE000000E136E000E146E010E156E0B50142680
:104AF000E86A1522400E0A6E3CEC0EF00001000E32
:104B0000BB6F030EBC6F0001000EB96F030EBA6FCE
:104B10000001080EBA6F100EBD6F63EC2AF00001A1
:104B2000000E0D6E080E0E6E0001000E136E000ECC
:104B3000146E010E156E0B501426E86A1522010E34
:104B40000A6E70EC0EF01200E846E8060B6E0001EB
:104B5000000E0D6E030E0E6E0001000E136E000EA1
:104B6000146E010E156E0B501426E86A15220A6E9B
:104B70003CEC0EF00001000E0D6E040E0E6E0001F6
:104B8000000E136E000E146E010E156E0B50E82A07
:104B90001426E86A15220A6E3CEC0EF01200E84674
:104BA000E8060C6E0001000E0D6E030E0E6E000185
:104BB000000E136E000E146E010E156E0C501426AE
:104BC000E86A1522040E0A6E70EC0EF00001000E69
:104BD0000D6E040E0E6E0001000E136E000E146EAC
:104BE000010E156E0C50E82A1426E86A1522040EF0
:104BF0000A6E70EC0EF012000001000EBB6F030E87
:104C0000BC6F0001000EB96F060EBA6F000EBD6FCB
:104C100063EC2AF00001000EBB6F040EBC6F0001B4
:104C2000000EB96F070EBA6F000EBD6F63EC2AF06D
:104C3000120002010051E846E8060A6E0001000E6B
:104C40000D6E030E0E6E0001000E136E000E146E3C
:104C5000010E156E0A501426E86A1522010E0A6E1E
:104C600070EC0EF0120075C093F076C094F077C02F
:104C700095F078C096F079C097F07AC098F07BC034
:104C800099F07CC09AF0FCC099F0FDC09AF08FC0FA
:104C90009BF090C09CF07FC09DF080C09EF081C0D2
:104CA0009FF082C0A0F091C0A1F092C0A2F0030ECC
:104CB000E26E5C0EE16E0C0EE8CF0AF0E6CFE8FF84
:104CC0000F0BD8B48EEF26F0E7180F0BD8A48EEF99
:104CD00026F0E7CFE8FFF00B0409E76276EF26F055
:104CE0007BC099F07CC09AF08EEF26F0E7CFE8FF0A
:104CF000F00B0509E76283EF26F08FC09BF090C0B0
:104D00009CF08EEF26F0E7CFE8FFF00B0809E76292
:104D10008EEF26F091C0A1F092C0A2F0050EE12620
:104D20000A06D8A45EEF26F0120033EC26F0030149
:104D3000B2518CEC2BF0D8A0B0EF26F0030EE26E4F
:104D40005C0EE16E81EC29F0610EE16E81EC29F0E0
:104D5000660EE16E81EC29F06B0EE16E81EC29F0BC
:104D600033EC26F00301B3518CEC2BF0D8A0D1EF3B
:104D700026F0030EE26E700EE16E81EC29F033EC4A
:104D800026F0750EE16E81EC29F033EC26F07A0EF8
:104D9000E16E81EC29F033EC26F07F0EE16E81ECC0
:104DA00029F033EC26F00301B4518CEC2BF0D8A0A1
:104DB000ECEF26F0030EE26E840EE16E81EC29F03A
:104DC000890EE16E81EC29F08E0EE16E81EC29F006
:104DD000930EE16E81EC29F0120093C00DF094C0A7
:104DE0000EF010C40FF000010EBE11C40FF0106AD7
:104DF0000FBE106814EC14F00001640E176E000E64
:104E0000186E18EC15F0000113C0E8FF972714C0C6
:104E1000E8FF982397C00DF098C00EF012C40FF071
:104E200000010EBE13C40FF0106A0FBE106814EC20
:104E300014F00001640E176E000E186E18EC15F0D9
:104E4000000113C0E8FF932714C0E8FF942397C024
:104E50000DF098C00EF014C40FF000010EBE15C482
:104E60000FF0106A0FBE106814EC14F00001640E0D
:104E7000176E000E186E18EC15F0000113C0E8FF55
:104E8000952714C0E8FF962399C00DF09AC00EF044
:104E900016C40FF000010EBE106A0FBE106814ECAD
:104EA00014F00001640E176E000E186E18EC15F069
:104EB000000113C0E8FF952714C0E8FF962393C0B4
:104EC00075F094C076F095C077F096C078F097C0F2
:104ED00079F098C07AF099C0FCF09AC0FDF0040116
:104EE00017A177EF27F095C07FF096C080F00301FF
:104EF00098A194EF27F095C00DF096C00EF097C0E2
:104F00000FF098C010F000010DC077F00EC078F0DF
:104F10000DC079F00EC07AF00F50792710507A2327
:104F20000F50775F1050785B030199A1B1EF27F024
:104F300095C00DF096C00EF093C00FF094C010F025
:104F400000010DC077F00EC078F00DC075F00EC0F6
:104F500076F00F507527105076230F50775F105062
:104F6000785B03019AA151EF28F093C00DF094C033
:104F70000EF00DC075F00EC076F00DC081F00EC0C1
:104F800082F00001811F821F814B822B0001640E81
:104F9000176E000E186E03019C51E812D8B41AEF78
:104FA00028F0E8BEF8EF27F0640800010F6E106AE1
:104FB00076BFE9EF27F075C00DF076C00EF014EC67
:104FC00014F018EC15F013C075F014C076F01AEF59
:104FD00028F0000181C00DF082C00EF014EC14F036
:104FE00018EC15F013C081F014C082F01AEF28F00D
:104FF000640F00010F6E106A76AF0DEF28F075C0D8
:105000000DF076C00EF014EC14F018EC15F013C08F
:1050100075F014C076F01AEF28F0000181C00DF091
:1050200082C00EF014EC14F018EC15F013C081F0EF
:1050300014C082F00001640E176E000E186E03019A
:10504000C651E812D8B437EF28F00301C5518CECF3
:105050002BF0D8A051EF28F00001E80E0D6E030EE2
:105060000E6E99510D5E9A510E5A3BEF28F09FC07B
:105070000DF0A0C00EF09DC30FF000010EBE9BC34B
:105080000FF0106A0FBE101E14EC14F018EC15F09F
:1050900013507527145076230001135081271450A4
:1050A000822312000301A4A1120033EC26F0EDECE0
:1050B00026F012000301A4B162EF28F033EC26F0D1
:1050C000EDEC26F00301A0A18FEF28F00301C351FE
:1050D0008CEC2BF0D8A071EF28F00301A1517AEFEE
:1050E00028F00301C4518CEC2BF0D8A08FEF28F0EE
:1050F0000301A25100010D6E0E6A00010A0E0F6E2F
:10510000000E106E14EC14F013507B5D14507C599B
:10511000E8AE8FEF28F013C07BF014C07CF01200D3
:10512000040126A112001DC4E8FFE812D8B4120041
:1051300075C00DF076C00EF077C00FF078C010F09B
:105140007FC075F080C076F07FC077F080C078F0C7
:1051500000010DC0E8FF75270EC0E8FF76230DC0E3
:10516000E8FF7F5F0EC0E8FF805B0FC0E8FF772796
:1051700010C0E8FF78231DC4E8FF0308D8B412006C
:105180000001D89010BED88010320F3200010FC03D
:10519000E8FF7F5F10C0E8FF805B0FC0E8FF755F2E
:1051A00010C0E8FF765B1DC4E8FF0108D8B4120008
:1051B00000010FC0E8FF7F5F10C0E8FF805B0FC0F9
:1051C000E8FF755F10C0E8FF765B12000BC0E8FFD8
:1051D000F00BD8B412000DC06BF00EC06CF00EAE28
:1051E000F7EF28F00D1E0E1E0D2AD8B00E2A0DC0A6
:1051F00013F00EC014F0640E176E47EC14F00001AB
:105200001C6A090E136011EF29F00BC0E8FFE83AA1
:10521000E8060F0BE8CF0BF0E8B62FEF29F025EFEB
:1052200029F0136E0DC01BF00EC01CF0840E00019F
:105230001B5E030E1C5A0BC0E8FFE83AE8060F0B92
:10524000E8CF0BF0E8B62FEF29F0020EE8CFDAFF37
:105250000BC0E8FF0B0DF350460F38EF29F0030E9B
:10526000E8CFDAFF0BC0E8FFE8960B0DF350DA0F3A
:10527000E8CFD9FFDFCF0CF013C0E8FFD926DECF8F
:105280000AF0DFCF0BF000010BC00DF00E6A0BBE71
:105290000E680AC0E8FF0D5E000E0ABEFF0E0E5A31
:1052A0001BC00FF01CC010F014EC14F000010A0E2B
:1052B000176E000E186E18EC15F00A500A0D0A0E43
:1052C0000ABEF45EF3CFE8FF1326F4CFE8FF142202
:1052D00013C00DF014C00EF000016CAF12000CC032
:1052E000E8FF140D140E0CBEF45EF3CF0DF0F4CFF6
:1052F0000EF0000113C0E8FF0D5E14C0E8FF0E5A67
:105300001200E650E8CF0BF00F0BD8B412000BC020
:10531000E8FF80EC02F0E6EC28F00DC011F00EC0C2
:1053200012F0E6CF0AF0E6CFE8FF0001E8CF0DF07B
:105330000E6A0DBE0E1E00010A0E0F6E000E106EDC
:1053400014EC14F011C00DF012C00EF013500D5EED
:1053500014500E5A0EBEE2EF29F0E6CFE8FF00012E
:105360000AACCBEF29F0E8CF13F0E9CF14F00DC071
:1053700011F00EC012F0135080EC02F00DC013F0CB
:105380000EC014F00A0E176E47EC14F011C00DF0A9
:1053900012C00EF013500F6E106A0FBE101E14ECE8
:1053A00014F00001640E176E000E186E196A1A6A66
:1053B00018EC15F013C00DF014C00EF00A5000ECFC
:1053C00003F01200E6CFE8FFE6CFE8FF00010AAAEB
:1053D00000EF2AF0E8CF13F00DC011F00EC012F06C
:1053E000135080EC02F00DC013F00EC014F00A0E42
:1053F000176E47EC14F011C00DF012C00EF01350F0
:105400000F6E106A0FBE101E14EC14F00001640E33
:10541000176E000E186E196A1A6A18EC15F013C090
:105420000DF014C00EF00A5000EC03F01200000161
:10543000BD0EBB6F030EBC6F0001120EB96F010EE3
:10544000BA6F050EBD6F63EC2AF0D90EE8CFD9FF15
:10545000060EE8CFDAFF060EE8CF0CF0DDCFE8FF4E
:10546000E812D8B43BEF2AF0DFCFE8FF8CEC2BF04A
:10547000D8B047EF2AF0DDCFE8FF0C2E2EEF2AF050
:10548000ABC0E8FF0201006350EF2AF01200DECF4C
:10549000E8FFDECFE8FF0201006350EF2AF01200C0
:1054A000E8CF00F2A4EC25F00001120EBB6F010E54
:1054B000BC6F0001BD0EB96F030EBA6F050EBD6F54
:1054C00063EC2AF012000001BB51E16EBC51E26EA8
:1054D0000001B951D96EBA51DA6EE6CFE8FFE8CFD4
:1054E000DEFF0001BD2F6DEF2AF012000001C56B39
:1054F0000301AE518CEC2BF00001D8B0C581030143
:10550000AF518CEC2BF00001D8B0C5830301B05132
:105510008CEC2BF00001D8B0C5850301B1518CECA7
:105520002BF00001D8B0C5870301B6518CEC2BF0ED
:105530000001D8B0C5890301BB518CEC2BF00001F0
:10554000D8B0C58B0301BC518CEC2BF00001D8B056
:10555000C58D1200880EF0EC0FF00301AE518CECFB
:105560002BF00001E86AE880C515D8A0C6EF2AF044
:10557000D8A4D7EF2AF0C571000EF86E7E0EF76E34
:10558000020EF66EAEEC10F088EF2BF0D8B0D7EF2D
:105590002AF0D8B4D7EF2AF0C571000EF86E7D0E50
:1055A000F76EF00EF66EAEEC10F088EF2BF0030104
:1055B000AF518CEC2BF00001E86AE882C515D8A049
:1055C000F0EF2AF0D8A401EF2BF0C573000EF86EAF
:1055D0007E0EF76E260EF66EAEEC10F088EF2BF016
:1055E000D8B001EF2BF0D8B401EF2BF0C573000E4B
:1055F000F86E7E0EF76E140EF66EAEEC10F088EFBD
:105600002BF00301B0518CEC2BF00001E86AE88428
:10561000C515D8A01AEF2BF0D8A42BEF2BF0C57529
:10562000000EF86E7E0EF76E4A0EF66EAEEC10F0BF
:1056300088EF2BF0D8B02BEF2BF0D8B42BEF2BF05A
:10564000C575000EF86E7E0EF76E380EF66EAEEC77
:1056500010F088EF2BF00301B1518CEC2BF000011E
:10566000D8A041EF2BF0C5B742EF2BF0C577000E65
:10567000F86E7E0EF76E920EF66EAEEC10F088EFBE
:105680002BF0C5970301B6518CEC2BF00001D8A08C
:1056900058EF2BF0C5B959EF2BF0C579000EF86E15
:1056A0007E0EF76E800EF66EAEEC10F088EF2BF0EB
:1056B000C5990301BB518CEC2BF00001D8A06FEF12
:1056C0002BF0C5BB70EF2BF0C57B000EF86E7E0E85
:1056D000F76E5C0EF66EAEEC10F088EF2BF0C59B0B
:1056E0000301BC518CEC2BF00001D8A086EF2BF00D
:1056F000C5BD87EF2BF0C57D000EF86E7E0EF76EF0
:105700006E0EF66EAEEC10F088EF2BF0C59D120019
:10571000500EE8CFA9F01200E8AAC4EF2BF0E8A8D9
:10572000C4EF2BF00A6E070BC90FE16E030EE26E99
:10573000E65000010D6E0E6AE8BE0E6800010A0E0A
:105740000F6E000E106E14EC14F00A50070BE846B2
:10575000340FE16E010EE26EE6CF0DF0E6CF0EF0F3
:1057600000010EAEB8EF2BF00D1E0E1E0D4A0E2AD4
:105770000DC0E8FF135E0EC0E8FF1458E836D8707D
:105780000ABE1200D8701200D890E8BA1200D88071
:10579000E8B8120000011F6E206AE8BC2080070BE9
:1057A000E82AD8802036E82ED2EF2BF030501FB6F2
:1057B00033502014D8802062D8901FBED8701200B9
:1057C000040126A1120044EC2CF0D8A0A7EC2CF088
:1057D00004012F518CEC2BF0D8A00BEF2CF004011E
:1057E000305100010D6E0E6A00010A0E0F6E000EA0
:1057F000106E14EC14F013C07BF014C07CF00001A8
:10580000FE51D8A415EF2CF0FE6941C43FF442C408
:1058100040F415EF2CF00001FE51D8B415EF2CF038
:10582000FE6B41C43FF442C440F4040129A11FEFC0
:105830002CF000017F1F801F7F2BD8B4802B36C334
:105840000DF000010E6AFF0E0DBE0E6E7FC00FF050
:1058500080C010F014EC14F00001640E176E186A8A
:10586000196A1A6A18EC15F013C07FF014C080F0A2
:105870007FEC2CF000010DC0E8FF7F270EC0E8FF91
:105880008023C8EC2CF0120039C4E8FF8CEC2BF01C
:10589000D8A055EF2CF03DC4E8FF8CEC2BF0D8A03D
:1058A00012003EC40BF06EEF2CF033C4E8FF8CEC1A
:1058B0002BF0D8A066EF2CF037C4E8FF8CEC2BF06F
:1058C000D8A0120038C40BF06EEF2CF02DC4E8FF06
:1058D0008CEC2BF0D8A012002EC40BF000010BC0F2
:1058E0000DF00E6A00010A0E0F6E000E106E14EC21
:1058F00014F013C07BF014C07CF0D88012002CC4CC
:105900000BF033C4E8FF8CEC2BF0D8B036C40BF0AE
:1059100039C4E8FF8CEC2BF0D8B03CC40BF02FC49A
:10592000E8FF8CEC2BF0D8B032C40BF027C40DF09C
:1059300028C40EF0E6EC28F0040129A1A6EF2CF013
:1059400000010D1E0E1E0D2AD8B40E2A12002BC403
:105950000BF033C4E8FF8CEC2BF0D8B035C40BF05F
:1059600039C4E8FF8CEC2BF0D8B03BC40BF02FC44B
:10597000E8FF8CEC2BF0D8B00B6A7BC00DF07CC03C
:105980000EF0E6EC28F00DC07BF00EC07CF01200AB
:1059900081C07DF082C07EF00001FB51D8A41200CE
:1059A0002AC40BF033C4E8FF8CEC2BF0D8B034C41D
:1059B0000BF039C4E8FF8CEC2BF0D8B03AC40BF0F4
:1059C0002FC4E8FF8CEC2BF0D8B031C40BF00BC027
:1059D000E8FFCE0FE8CF0DF000010E6A0DBE0E6895
:1059E0000001140E0F6E000E106E14EC14F013C0B4
:1059F0007DF014C07EF01200D890040126A11200A0
:105A00000001FB51D8B41200030EE8CF5FF0020E84
:105A1000EFEC0BF081C013F082C014F00001E80E2F
:105A20001326030E1422156A140EE8CF17F047EC64
:105A300014F02FC4E8FF8CEC2BF0D8A024EF2DF04D
:105A400013C031F43DEF2DF039C4E8FF8CEC2BF09E
:105A5000D8A02FEF2DF013C03AF43DEF2DF033C452
:105A6000E8FF8CEC2BF0D8A03AEF2DF013C034F403
:105A70003DEF2DF013C02AF4D88000C2E8FF0001EA
:105A8000AB19D880D8A4120000C2E8FFCFEC25F0F3
:105A9000D8801200040126A11200960EF0EC0FF03F
:105AA0002FC4E8FF8CEC2BF0D8B066EF2DF039C492
:105AB000E8FF8CEC2BF0D8B078EF2DF033C4E8FF82
:105AC0008CEC2BF0D8B06FEF2DF01200000EF86EBA
:105AD0005B0EF76E020EF66EAEEC10F01200000ECA
:105AE000F86E5B0EF76E060EF66EAEEC10F012005E
:105AF000000EF86E5B0EF76E0A0EF66EAEEC10F04E
:105B00001200544800005331000053320000E86A8C
:105B1000E8CF15F00001F40E136E010E146E41C4AF
:105B200017F042C418F018EC15F013C041F414C07B
:105B300042F4E86AE8CF42F441C4E8FF120041C4ED
:105B4000E8FFE86687EF2DF00401D00E416F070EE5
:105B5000426F1200040ED56E1200D59E1200D8902E
:105B600087B21200D880D5BE1200C9C00DF0CAC0DD
:105B70000EF000013C0E0F6E000E106E25EC14F0BE
:105B800013C00DF014C00EF00001240E0F6EF40EC1
:105B9000106E25EC14F0C7C017F0C8C018F0000153
:105BA000000E196E000E1A6EFBEC16F0A5C317F06E
:105BB000A6C318F00001186A18EC15F0880EF0EC76
:105BC0000FF0000EF86E7D0EF76E600EF66EAEEC06
:105BD00010F0CB0EF0EC0FF007EC11F0A5C313F0B2
:105BE000A6C314F0146A880EF0EC0FF003EC11F069
:105BF0000001000EC96F000ECA6FD88012000001AC
:105C0000020E36621200000133A01200FC6A93EF0C
:105C100005F018EC2EF0D8A01200FC6A3EEC25F03E
:105C200000C2E8FFCFEC25F0FCEC25F093EF05F087
:105C3000000130B622EF2EF032A622EF2EF032967F
:105C4000D8801200D890120000017E0E0E6EB60EA3
:105C50000D6E6BEC2EF05DEC10F00001115080EC3D
:105C600001F012001EC10DF01FC10EF05DEC10F02E
:105C700012000001F651D8B41200E1CF3EF1E2CF9C
:105C80003FF1D6EC1CF00001000E756F000E766F30
:105C90000001000E776F000E786FD7EC1EF06AECF3
:105CA0001EF092EC21F0EAEC22F013EC20F052EC22
:105CB00028F095EC26F05AEC28F009EC21F0D0EC15
:105CC00023F07AEC11F03EC1E1FF3FC1E2FF120088
:105CD0000001F6691200FFEC2DF00001D36BE16BBF
:105CE000F16BF26B880EF0EC0FF00DC0F6FF0EC0FA
:105CF000F7FFF86A0DC00FF00EC010F0AEEC10F018
:105D0000FA0E60EC0DF0F8EC32F0D8A48EEF2EF025
:105D1000110E0D26D8B00E2A95EF2EF0D8A0A2EFC6
:105D20002EF0130E0D26D8B00E2A0DC0F6FF0EC0B1
:105D3000F7FFF86A0900F5CF0DF00900F5CF0EF076
:105D400072EF2EF009EC2EF007EC25F0D8A072EFE0
:105D50002EF0150E0D26D8B00E2A0DC0F6FF0EC07F
:105D6000F7FFF86A0900F5CF11F00900F5CF12F03E
:105D70000FC00DF010C00EF00900F5CF0FF00900B4
:105D8000F5CF10F00900F5CFD4F00900F5CFD5F02C
:105D90000001BF6BC06BC1697F0EE8CFC2F012ACCF
:105DA000DEEF2EF00900F5CFBFF00900F5CFC0F00F
:105DB0000900F5CFC1F00900F5CFC2F012A4E7EF5A
:105DC0002EF00900F5CFF1F00900F5CFF2F012A2A4
:105DD000F0EF2EF00900F5CFF3F00900F5CFF4F065
:105DE00012AEF5EF2EF05DEC10F012A6FAEF2EF0E9
:105DF00073EC10F012A212000001E86AE8CFFBFF7A
:105E0000F4C0E8FFE8CFFAFFF3C0E8FFF96EE8CF8F
:105E10000AF00FC01BF010C01CF00FC0F6FF10C03E
:105E2000F7FFF86A150EF626D8B0F72A0900F5CF65
:105E3000E8FF0A621DEF2FF012000FC0F6FF10C03E
:105E4000F7FF110EF626D8B0F72A0900F5CF0FF0AC
:105E50000900F5CF10F00FC0E8FF1B620DEF2FF027
