:020000040000FA
:040200006BEF03F0AD
:040208000EEF01F004
:080218002DEF01F0D8CF01F039
:10022000E0CF02F0006EF3CF03F0F4CF04F0F0ACB7
:100230001DEF01F0F0B0D8EC0BF0A2A023EF01F01D
:10024000A1B080EC09F003C0F3FF04C0F4FF00503C
:1002500002C0E0FF01C0D8FF1000D8CF06F0E8CF01
:1002600005F0E0CF07F0F3CF08F0F4CF09F0F0BCD1
:100270003DEF01F0F0B0D8EC0BF0A2B043EF01F08D
:10028000A1B080EC09F0A2B04CEF01F0AECFE8FFD6
:100290006ECFE8FF52EF01F09EBA53EC10F0A4BA13
:1002A000BEEC10F008C0F3FF09C0F4FF07C0E0FF88
:0A02B00005C0E8FF06C0D8FF1000EB
:10030000F95000011150F9267EEF2DF080EF2DF00D
:100310008DEF2DF0A2EF2DF0B0EF2DF0BEEF2DF010
:10032000CCEF2DF0DAEF2DF0EAEF2DF0F8EF2DF015
:1003300006EF2EF008EF2EF012000F0B0009D8A4E4
:10034000A3EF01F01200E806030B0A0DF9CFE8FF56
:10035000F350F92685C00FF086C010F0120087C058
:100360000FF088C010F0120089C00FF08AC010F0A2
:0C03700012008BC00FF08CC010F01200C7
:10040000EFCFE8FFE806070B0A0DF9CFE8FFF3503E
:10041000F9263EC050F03FC051F012003CC050F0F1
:100420003DC051F0120040C050F041C051F01200E8
:1004300042C050F043C051F0120044C050F045C0DB
:1004400051F0120046C050F047C051F0120048C0B1
:1004500050F049C051F012004AC050F04BC051F06A
:1004600012000F0B060DF9CFE8FFF350F926BBC2BF
:10047000E8FF1200BCC2E8FF1200BDC2E8FF120094
:10048000BEC2E8FF1200BFC2E8FF1200C0C2E8FF10
:100490001200C1C2E8FF1200C2C2E8FF1200C3C2CC
:1004A000E8FF1200C4C2E8FF1200C5C2E8FF120054
:1004B000C6C2E8FF1200C7C2E8FF1200C8C2E8FFC8
:0E04C0001200C9C2E8FF1200CAC2E8FF120013
:100500000001E806070B0A0DF9CFE8FFF350F926C2
:100510009A510D6E9B510E6E12009C510D6E9D51A5
:100520000E6E12009E510D6E9F510E6E1200A05164
:100530000D6EA1510E6E1200A2510D6EA3510E6EE2
:100540001200A4510D6EA5510E6E1200A6510D6E33
:10055000A7510E6E1200A8510D6EA9510E6E120019
:100600000001E8BE33EF03F0E806070B0A0DF9CF4F
:10061000E8FFF350F9260D5075270E50762312008F
:100620000D5077270E50782312000D5079270E5069
:100630007A2312000D507B270E507C2312000D50A0
:100640007D270E507E2312000D507F270E508023F1
:1006500012000D5081270E50822312000D50832767
:100660000E5084231200E806070B0A0DF9CFE8FFAD
:10067000F350F9260D50756F0E50766F12000D5025
:10068000776F0E50786F12000D50796F0E507A6FA1
:1006900012000D507B6F0E507C6F12000D507D6F5D
:1006A0000E507E6F12000D507F6F0E50806F120043
:1006B0000D50816F0E50826F12000D50836F0E50DF
:1006C000846F1200F2AE12000001010EAE6FAE6731
:1006D00067EF03F012001AEC0CF0928802C5E8FFF5
:1006E000E81EE86676EF03F092988098939C819CD0
:1006F00000015D6A5E6A0001566A640E0FEC0CF040
:10070000280EE8CFD4F20001500E386EC30E396EB9
:100710000F018350306E316E326E0F018450336E94
:10072000346E356E0F0199908780949693948296DB
:1007300081940001000E176E000E186E0001000E6D
:10074000196E000E1A6E0001000E1B6E000E1C6E5C
:100750000001000E1D6E000E1E6E0001000E136ED5
:10076000000E146E0001000E156E000E166E0001D4
:10077000000EB86F000EB96F0001000EBA6F000EC8
:10078000BB6F0001000EBC6F000EBD6F0001000EBC
:10079000BE6F000EBF6F0001606B616B626BAE6B72
:1007A000AF6BB06BF469F66B0201BA6B0101116BB0
:1007B0000001D96BEDEC36F0020100510001B26F7F
:1007C000040EFAEC08F0040EFAEC08F00001C35035
:1007D000D26FC450D36F050EFAEC08F0050EFAEC98
:1007E00008F00001C350D46FC450D56F84EC0DF0F5
:1007F000FA0E0FEC0CF0FA0E0FEC0CF0FA0E0FECF8
:100800000CF0FA0E0FEC0CF02FEC09F0DAEC27F0FC
:10081000E8EC0FF0FCEC0FF03CEC4CF0F28EF28CBC
:10082000D08E0F01D89083B6D880D8B01DEF04F0D9
:100830000A0E0FEC0CF00F01D89083B6D880D8B018
:1008400033EF04F00F01D89084B2D880D8B02EEFE7
:1008500004F00A0E0FEC0CF00F01D89084B2D8808F
:10086000D8A055EF04F048EC21F00201A50EA763D3
:1008700040EF04F0E70EA86340EF04F044EF04F00B
:10088000EDEC36F08DEC0CF000C2E8FFC3EC21F08B
:100890000301AD510201A56F63EC0BF0DEEC0AF031
:1008A0000101F20E066F1BEC0BF00F01D89084B221
:1008B000D880D8A055EF04F00A0E0FEC0CF00F0111
:1008C000D89084B2D880D8A055EF04F0809802C5A3
:1008D000E8FFE8668078D2C2E8FFE86675EF04F0CA
:1008E000808802C5E8FFE866807892981E0EE8CFFF
:1008F00015F0840EE8CF14F0800EE8CF13F0D4C2C8
:1009000017F0E86AE8CF18F015EC13F0D5C2E8FF4D
:1009100000011326E86A142213C038F014C039F01D
:10092000040EFAEC08F0040EFAEC08F00001C350D3
:10093000D26FC450D36F050EFAEC08F0050EFAEC36
:1009400008F00001C350D46FC450D56F0F01D89088
:1009500084B4D880D8B0B2EF04F00A0E0FEC0CF0DB
:100960000F01D89084B4D880D8B0C8EF04F00F013C
:10097000D89083B6D880D8B0C3EF04F00A0E0FEC3D
:100980000CF00F01D89083B6D880D8A022EF08F0E1
:100990000201A0C20AF00201FF0E0AB0A56FA56114
:1009A00035EF05F00301A6A115EF05F00F0183BE99
:1009B00015EF05F0800E28EC0EF0000EF86E6F0EAD
:1009C000F76E500EF66ED5EC0EF0C00E28EC0EF061
:1009D000000EF86E6E0EF76EF00EF66ED5EC0EF0A1
:1009E0000F01D89084B4D880D8B0FCEF04F00A0E80
:1009F0000FEC0CF00F01D89084B4D880D8B0F0EF91
:100A000004F00F01D89084B4D880D8A001EF05F08D
:100A10000A0E0FEC0CF00F01D89084B4D880D8A047
:100A200001EF05F0C80E0FEC0CF00201D1B11CEF84
:100A300005F0D1A335EF05F0800E0001AA6F92EC0E
:100A400035F0D89073EC2AF0D8B02CEF05F0020105
:100A5000FF0EA56F35EF05F063EC0BF0DEEC0AF04E
:100A60001BEC0BF00A0E0FEC0CF00001010E366EC1
:100A7000A3C254F0A4C255F00201A25100014F6E6E
:100A800072EC26F01BEC22F0C00EE8CF90F0E8CF1D
:100A900092F0FCAE4FEF05F00F01939481940001AA
:100AA00033B06FEF05F0010E3662DFEF05F00001A5
:100AB000050EE8CF5FF0070EA2EC0AF0020E366ECC
:100AC0000001B2510201006368EF05F0DFEF05F0AD
:100AD000006FC3EC21F01BEC22F0DFEF05F0010EFC
:100AE000366E13EC26F0A7EC19F0A7EC07F0020124
:100AF000A1A1A0EF05F00301B65187EC27F0D8A023
:100B0000A0EF05F00201B76798EF05F0B8C075F0E7
:100B1000B9C076F0BAC077F0BBC078F0BCC079F04D
:100B2000BDC07AF0BEC07BF0BFC07CF0A0EF05F086
:100B3000F08CF086A290E868E8CFFBF0A6EF05F015
:100B4000F09CF086A280E86AE8CFFBF00201A0B139
:100B5000CDEF05F0D9EC18F0D8B4CDEF05F068EC86
:100B60001BF0FBEC1AF0C1EC1DF0D1EC1EF0C6EC52
:100B70001BF042EC1CF055EC24F073EC22F05DEC21
:100B800024F0AEEC24F038EC1DF05CEC1EF054ECDC
:100B90004CF00001F667E6EC11F062EC03F0B2EC09
:100BA0001FF058EC11F0A1EC0FF00001AF67DDEF82
:100BB00005F00A0EAF6F2DEC06F049EF05F0800E40
:100BC00028EC0EF0000EF86E700EF76E820EF66EC8
:100BD000D5EC0EF0C00E28EC0EF0000EF86E6E0E86
:100BE000F76EF00EF66ED5EC0EF037EC21F0D8A0D3
:100BF000FCEF05F054EC28F0A7EC19F068EC1BF0C2
:100C0000FBEC1AF0C1EC1DF0D1EC1EF0C6EC1BF0B1
:100C100042EC1CF055EC24F073EC22F05DEC24F077
:100C2000AEEC24F038EC1DF05CEC1EF0B2EC1FF0E2
:100C3000A1EC0FF049EF05F00001100E0B6EC00E95
:100C400028EC0EF0000EE16E030EE26EE65019EC99
:100C50000EF00B2E26EF06F012004AC1E8FFE86600
:100C6000C8EF4DF00001840E28EC0EF0200E19ECB8
:100C70000EF00201520EA5BF200E000119EC0EF07D
:100C80000601CE5187EC27F0410ED8A0200E19ECBA
:100C90000EF00301B25187EC27F04D0ED8B02D0EA7
:100CA00019EC0EF00301B35187EC27F04D0ED8B0CC
:100CB0002D0E19EC0EF00301B45187EC27F04D0E08
:100CC000D8B02D0E19EC0EF0200E19EC0EF0800E9F
:100CD00028EC0EF0B9C20DF0BAC20EF00E6A000197
:100CE000640E0F6E000E106E11EC12F013C011F0B6
:100CF00014C012F08DC00DF08EC00EF013C20FF0B4
:100D000014C210F011EC12F01450E8CF13F015508B
:100D1000E8CF14F0156A010111B19FEF06F0000150
:100D20001150135C12501458E8AE9FEF06F0C90E34
:100D300000015F6E050EA2EC0AF0010111690001CD
:100D400058EC0FF0200EE8CF0AF0300E25640AC0F0
:100D500025F0255019EC0EF0265019EC0EF02E0E51
:100D600019EC0EF0275019EC0EF00301B65187EC88
:100D700027F0D8A0D8EF06F0A1C2E8FFE81EE86689
:100D8000CFEF06F0800E28EC0EF0000EF86E6F0E1E
:100D9000F76E260EF66ED5EC0EF0D8EF06F0800E4C
:100DA00028EC0EF000C513F001C514F02EEC0FF086
:100DB0000201B8AFF1EF06F0B86B000EE8CF0DF00E
:100DC000E86AE8CF0EF000C5E8FF49EC0CF0010E30
:100DD000E8CF0DF0E86AE8CF0EF001C5E8FF49EC76
:100DE0000CF0D0EC07F0D8B01BEF07F0E1EC07F007
:100DF000D8B01BEF07F0DFEC27F0D8B01BEF07F0FF
:100E0000A6EC26F00001B051E812D8A41BEF07F0C1
:100E10000201A0A119EF07F0C00E28EC0EF0000EA1
:100E2000F86E6F0EF76E0A0EF66ED5EC0EF01BEF35
:100E300007F01CEC06F0000133B436EF07F035A4E0
:100E400036EF07F03594010E5F6E050EA2EC0AF046
:100E50000001566635EF07F0562ABEC35AF0BFC3ED
:100E60005BF0D76BD86B36EF07F05606000156A043
:100E700069EF07F05B6669EF07F03B0E5C6248EFD5
:100E800007F0050E5F6E0A0EA2EC0AF069EF07F09C
:100E90001E0E5C6253EF07F0030E5F6E0A0EA2ECAB
:100EA0000AF069EF07F00A0E5C625EEF07F0010ED0
:100EB0005F6E0A0EA2EC0AF069EF07F0060E5C60A6
:100EC00069EF07F0010E5F6E0A0EA2EC0AF069EFFF
:100ED00007F07F0E5C6E5850DB6F5950DC6F010ECF
:100EE000566292EF07F05A505B10D8B481EF07F0CA
:100EF0005A50DB6F5B50DC6F000E0301BD6392EF55
:100F000007F0020E0301BD5DD8B48EEF07F00001BB
:100F1000D751DB6FD851DC6F92EF07F0E86A000120
:100F2000DB6FDC6F00018B0E28EC0EF0DC51E8CF9C
:100F300013F0146A156A166A26EC0FF03A0E19ECD3
:100F40000EF0DB51E8CF13F026EC0FF01200030196
:100F5000C05187EC27F0D8A0CDEF07F00301000EB9
:100F6000C165CAEF07F000017CBFCDEF07F00301B8
:100F7000C15100010D6E0E6A00010A0E0F6E000EC7
:100F8000106E11EC12F07B51135E7C511458D8B0E6
:100F9000CDEF07F00001F46912000001F46B1200BC
:100FA000D8900001D9AF1200C00E28EC0EF0000E50
:100FB000F86E6F0EF76EBC0EF66ED5EC0EF0D880A4
:100FC00012000D0EFAEC08F00D0EFAEC08F06BC0F2
:100FD0000DF06CC00EF0A9C20FF0AAC210F011EC17
:100FE00012F000011450136E1550146E1650156E49
:100FF000166A58EC0FF00001255026100F0BD89000
:10100000D8B41200C00E28EC0EF0000EF86E6F0E71
:10101000F76EAA0EF66ED5EC0EF0CB0E28EC0EF0A5
:101020000001255019EC0EF0265019EC0EF02E0E92
:1010300019EC0EF0275019EC0EF0285019EC0EF0B8
:10104000D88012000F01D89084B4D880D8A022EFA5
:1010500008F00A0E0FEC0CF00F01D89084B4D88081
:10106000D8A022EF08F00F01D89083B6D880D8A07E
:1010700033EF08F00A0E0FEC0CF00F01D89083B696
:10108000D880D8A033EF08F0800E28EC0EF00F01C6
:101090008350E5EC0EF00F018450E5EC0EF0C00E2D
:1010A00028EC0EF00F018650E5EC0EF00F01815098
:1010B000E5EC0EF00F01835082868184E8B08296C1
:1010C000E8B281948098E8B48088320E0FEC0CF07E
:1010D0000F01D89084B4D880D8B074EF08F00A0E0D
:1010E0000FEC0CF00F01D89084B4D880D8B044EF46
:1010F00008F00F01D89084B4D880D8A079EF08F018
:101100000A0E0FEC0CF00F01D89084B4D880D8A050
:1011100079EF08F0C00E28EC0EF0000EF86E6E0E9F
:10112000F76E600EF66ED5EC0EF000010D6A800EC3
:1011300028EC0EF0000EF86E6E0EF76E960EF66E40
:10114000D5EC0EF0870E28EC0EF000010D50F2ECFD
:101150000EF0FAEC08F08C0E28EC0EF00F01C4CF64
:10116000E8FFF2EC0EF00F01C3CFE8FFF2EC0EF057
:10117000320E0FEC0CF00F01D89084B4D880D8B0A8
:10118000C7EF08F00A0E0FEC0CF00F01D89084B4F2
:10119000D880D8B097EF08F00F01D89084B4D880E9
:1011A000D8A0CCEF08F00A0E0FEC0CF00F01D8908D
:1011B00084B4D880D8A0CCEF08F000010D2A0C0E22
:1011C0000D6497EF08F044EF08F00001136A146A09
:1011D000156A166A0A6E0B6A0A50FAEC08F00001EA
:1011E000C3501326C4501422D8B0152A0B2EECEF8E
:1011F00008F012000A6EA10EC06E000EC16E0AC089
:10120000E8FF31EC02F0E8AEC188E89EE844E8442B
:10121000C26EC2800000C282C2B20CEF09F00001AF
:10122000C3CF6BF0C4CF6CF00AC0E8FF12000F010F
:10123000C282C2B219EF09F00001C3506B27C4503B
:101240006C231200FAEC08F017EC09F017EC09F027
:1012500017EC09F000016C336C9F6B331200000136
:101260004E6A586A596AD4C2E8FFE8CF57F00001C5
:10127000900E546E010E556E0001900E506E010ED0
:10128000516E526A536A100E0001E8CF4FF03A6A6D
:101290003C6A3E6A406A426A446A466A486A4A6AE6
:1012A0004C6A080EE8CF3BF0E8CF3DF0E8CF3FF0C6
:1012B000E8CF41F0E8CF43F0E8CF45F0E8CF47F082
:1012C000E8CF49F0E8CF4BF0E8CF4DF0979E858E00
:1012D000000154500F01E8CFBBFF010155500F0131
:1012E000E8CFBCFF0A0E0F01E8CFBAFF0F01A080C4
:1012F0000F019E900F01080EE8CFB1FFB1801200E0
:101300000001FBA1857E0201BAAF8AEF09F0877068
:1013100092EF09F00001F2B191EF09F0878092EFAE
:1013200009F087900001BBCFE8FF5026BCCFE8FF53
:10133000512250C0E8FFE8CFBBFF51C0E8FFE8CF23
:10134000BCFF0001E86A4E640BEC0AF000014E2A73
:101350004EC0E8FFFE0B4F60C1EF09F04E6A38C087
:10136000E8FFE8CF50F052C0E8FF505E39C0E8FF18
:10137000E8CF51F053C0E8FF515A526A536A08EF60
:101380000AF04EA0D6EF09F054C0E8FFE8CF50F0C5
:1013900055C0E8FFE8CF51F0BAC2E8FF0001F28182
:1013A0004E6202EF0AF0F29102EF0AF0120E4E6264
:1013B000EEEF09F052C0E8FFE8CF50F053C0E8FF6D
:1013C000E8CF51F051325032513250325132503216
:1013D000513250320F0E511602EF0AF0040EE8CFD0
:1013E000EAFF000EE8CFE9FF4EC0E8FFE830E89ED4
:1013F000E804E92600EC02F054C0E8FF505E55C056
:10140000E8FF515A50C0E8FF522651C0E8FF53226E
:101410000F01A1901200D6EC0FF0E0EC0FF00001EC
:10142000010E36621AEF0AF000018286CAB1829676
:10143000FF0ECA6F87900301CDBF22EF0AF0859E91
:1014400023EF0AF0858E0001572E6AEF0AF0DDECDB
:1014500027F0000156A059EF0AF00001FF0EF463D7
:1014600059EF0AF05AC0E8FF5B10D8B451EF0AF008
:101470005A663EEF0AF03C0E5A6E5B065A065A5008
:101480005C6E0301E86ABD11D8B451EF0AF00001A7
:101490005A505B10D8B451EF0AF0D76BD86B59EFA4
:1014A0000AF00001D72B3C0ED76359EF0AF0D76B37
:1014B000D82BD4C2E8FFE8CF57F0582A3C0E586228
:1014C0006AEF0AF0586A592A0501002BD8B4012B9B
:1014D0000201B8690201A1A173EF0AF0530E0CECEE
:1014E00010F00001B56B000183CFE8FF311AD8A4DA
:1014F000306E316E30C0E8FF3212000184CFE8FF59
:10150000341AD8A4336E346E33C0E8FF35120001AC
:10151000606760076167610762676207AE67AE0771
:10152000AF67AF07B067B0075E6698EF0AF01200CA
:101530005E2E120080785F4E12005DC0E8FFE8CF9B
:101540005EF01200E8CF5DF0E8CF5EF0D2C2E8FFB7
:10155000E866B1EF0AF0809802C5E8FFE866807897
:101560001200808802C5E8FFE8668078120000015A
:101570000ABEBEEF0AF0819EBFEF0AF0818E828A1A
:10158000829A0A460B2EB7EF0AF012000201AD5103
:101590000A6E080E0B6EB7EC0AF00201AC510A6E2F
:1015A000080E0B6EB7EC0AF00201AB510A6E080E82
:1015B0000B6EB7EC0AF08686869612000BC113F00C
:1015C0000CC114F00DC115F009C117F00AC118F0D3
:1015D00015EC13F00201A55101010F03F3500001B6
:1015E0001326D8B0142AD8B0152A0101006B016B5C
:1015F000026B00011350E846E846E880E8921F0BB2
:1016000013B6E88E0101006F00011336143615364B
:10161000133614361536133614361536133614367B
:10162000153614500101016F000115501F0B010107
:101630001009026F1200DEEC0AF0010108510A6E77
:10164000080E0B6EB7EC0AF0010107510A6E080E86
:101650000B6EB7EC0AF0010106510A6E080E0B6E14
:10166000B7EC0AF086868696010105510A6E080ECF
:101670000B6EB7EC0AF0010104510A6E080E0B6EF6
:10168000B7EC0AF0010103510A6E080E0B6EB7ECBD
:101690000AF086868696010102510A6E080E0B6ECC
:1016A000B7EC0AF0010101510A6E080E0B6EB7EC9F
:1016B0000AF0010100510A6E080E0B6EB7EC0AF039
:1016C0008686869612000F01939E949A939C819C25
:1016D000819E829A989686960201010ED16390EFC0
:1016E0000BF004C206F105C207F106C208F101C2FF
:1016F00003F102C204F103C205F10101700E0B6F88
:10170000C60E0C6F000E0D6F0101140E096F000E56
:101710000A6F01010E6B0A0E106F010E0F6F12009F
:10172000020ED163B3EF0BF00AC206F10BC207F150
:101730000CC208F107C203F108C204F109C205F1A5
:1017400001016C0E0B6FCF0E0C6F000E0D6F0101BF
:10175000140E096F000E0A6F01010E6B080E106F58
:10176000050E0F6F1200030ED163D7EF0BF010C2FE
:1017700006F111C207F112C208F10DC203F10EC247
:1017800004F10FC205F101014A0E0B6F190E0C6F27
:10179000010E0D6F01010A0E096F000E0A6F0101A3
:1017A0000B0E0E6F320E106F020E0F6F1200120032
:1017B00087B2F6EF0BF0D5AEE8EF0BF0D6CFCEF058
:1017C000D7CFCFF00001D02BD8B4D12BF09012009E
:1017D0000001D051D111F090D8A41200E86AE8CFEE
:1017E000D7FFE8CFD6FFD58EF0901200F17AF0AC9B
:1017F00008EF0CF00301CDA104EF0CF0F1AA859ED7
:10180000F1BA858E08EF0CF0F1AA858EF1BA859EAB
:10181000F09012000000E82E0AEF0CF012000A6EA1
:10182000FA0E0AEC0CF0FA0E0AEC0CF00A2E10EF8D
:101830000CF01200050EE26EE86AE16EE86AAA6E2C
:10184000E86AA96EA69EA69CA680A850E66EA92A64
:10185000F9E112000EC0E8FFE26E0DC0E8FFE16E94
:10186000E86AAA6E0DC0E8FFA96EA69EA69CA68097
:10187000A850E66EA92A0A06F8E112000EC0E8FF99
:10188000AA6E0DC0E8FFA96EA69EA69CA680A850D1
:101890001200A198A86E0EC0E8FFAA6E0DC0E8FF66
:1018A000A96EA69EA69CA684F29E550EA76EAA0EB1
:1018B000A76EA682F28EA1A85BEF0CF0A198120091
:1018C0000FC0E8FF49EC0CF000010D2AD8B40E2A35
:1018D00010C0E8FF49EC0CF012000EC0E8FFE26E09
:1018E0000DC0E8FFE16EE86AAA6E0DC0E8FFA96EC0
:1018F000A198E650A86EA69EA69CA684F29E550EC0
:10190000A76EAA0EA76EA682F28EA1A885EF0CF094
:10191000A198A92A0A06EDE11200800E28EC0EF02B
:10192000000EF86E6F0EF76E620EF66ED5EC0EF0CE
:10193000C00E28EC0EF0000EF86E6E0EF76EDE0E86
:10194000F66ED5EC0EF0BCEC2AF0D8A0CDEF0CF082
:10195000C00E28EC0EF0000EF86E6F0EF76E740ECF
:10196000F66ED5EC0EF0EDEC36F05DEC21F00001FA
:10197000600EAB6F00C2E8FFEEEC21F00201002B1D
:101980000301072B3A0E0763C9EF0CF0062B300E4C
:10199000076F0001AB2FBAEF0CF048EC21F000C24A
:1019A000E8FFC3EC21F0120000011550F86E14504E
:1019B000F76E1350F66E00010E50E26E0D50E16EA0
:1019C0000900F550E66E0A060900F550E66E0A2E8B
:1019D000E0EF0CF0120000011550F86E1450F76E95
:1019E0001350F66EA68EA69CA684A688F29E550E6F
:1019F000A76EAA0EA76EA6820000F28E0001400E0E
:101A00001326000E142215220A2EEBEF0CF0120002
:101A100062EC03F000011550F86E1450F76E13508D
:101A2000F66EA68EA69CA684A688F29E550EA76E7C
:101A3000AA0EA76EA682F28E0A0000010E50E26E78
:101A40000D50E16E400E0B6EE6CFE8FFF56E0F0015
:101A50000B2EFAD7A68EA69CA684F29E550EA76ED4
:101A6000AA0EA76EA682F28EA6940001400E13263F
:101A7000000E142215220001400E0D26000E0E222B
:101A80000A2E08EF0DF0120000011550F86E1450E8
:101A9000F76E1350F66EA68EA69CA684A688F29EBC
:101AA000550EA76EAA0EA76EA6820000F28E0A003F
:101AB000080E0B6E00010E50E26E0D50E16E080E26
:101AC0000C6EE6CFE8FFF56E0F000C2EFAD7A68E4F
:101AD000A69CA684F29E550EA76EAA0EA76EA6829D
:101AE0000000F28E0B2EEBD7A6940001400E1326B9
:101AF000000E142215220001400E0D26000E0E22AB
:101B00000A2E44EF0DF012000F019A6A886A93962C
:101B1000939A93988186818A8188140E0FEC0CF039
:101B200003C5E8FFE81EE866D5EF0DF0390E28EC96
:101B30000EF0050E0FEC0CF0390E28EC0EF0010E35
:101B40000FEC0CF0390E28EC0EF0010E0FEC0CF03F
:101B5000390E28EC0EF01C0E28EC0EF0520E28EC7C
:101B60000EF0690E28EC0EF0740E28EC0EF00C0E40
:101B700028EC0EF0010E28EC0EF0060E28EC0EF00C
:101B8000380E28EC0EF0400E28EC0EF0400EE8CF98
:101B90000AF0000EF86E1D0EF76E280EF66E0AC0E3
:101BA000E8FFD8EC0EF006EF0EF0380E28EC0EF041
:101BB000050E0FEC0CF0380E28EC0EF0010E0FECB9
:101BC0000CF0380E28EC0EF0010E0FEC0CF0380E75
:101BD00028EC0EF0060E28EC0EF00C0E28EC0EF0A1
:101BE000010E28EC0EF0800E28EC0EF0400E28ECD2
:101BF0000EF0400EE8CF0AF0000EF86E1C0EF76EE5
:101C0000E80EF66E0AC0E8FFD8EC0EF0800E28EC65
:101C10000EF06E0EF76E720EF66ED5EC0EF0C00E74
:101C200028EC0EF06E0EF76E840EF66ED5EC0EF00C
:101C3000120037EC0EF05AEC0EF0818A8198000009
:101C40000000818600000000819600000000120064
:101C500037EC0EF05AEC0EF0819A819800000000EB
:101C600081860000000081960000000012003EEC1A
:101C70000EF0D8B037EF0EF09A6A12009A68818899
:101C8000819A00000000818600000000D890E8CF13
:101C900041F102C5E8FFE86654EF0EF088BED88037
:101CA000819641C1E8FF120088B0D880819641C179
:101CB000E8FF1200886E02C5E8FFE81EE866120021
:101CC00088CFE8FF886AE8B08888E8B2888AE8B4F4
:101CD000888CE8B6888EE8B88886E8BA8884E8BC3C
:101CE0008882E8BE888012001010101010101010AA
:101CF00018181818181818181C1C1C1C1C1C1C1C44
:101D00001E1E1E1E1E1E1E1E0101010101010101DB
:101D10000303030303030303070707070707070773
:101D20000F0F0F0F0F0F0F0F10000000000000002B
:101D300018000000000000001C000000000000006F
:101D40001E00000000000000010000000000000074
:101D50000300000000000000070000000000000079
:101D60000F00000000000000800E28EC0EF00DC0F7
:101D7000F6FF0EC0F7FFF86AD5EC0EF01200C00EA9
:101D800028EC0EF00DC0F6FF0EC0F7FFF86AD5EC98
:101D90000EF01200C00E28EC0EF0DBC0F6FFDCC027
:101DA000F7FFF86AD5EC0EF01200100ED8EF0EF027
:101DB0000A6E0900F5CFE8FFE812D8B4120019EC5A
:101DC0000EF00A4E1200D9EF0EF00A6E080E0B6EDE
:101DD000300E0ABE310E19EC0EF00A360B2EE8EF6B
:101DE0000EF012000A6E3A0E0B6E0AC0E8FFF00BFE
:101DF000E842E842E842E84230090B64070F19EC78
:101E00000EF00AC0E8FF0F0B30090B64070F19EC46
:101E10000EF00AC0E8FF120058EC0FF0255019EC44
:101E20000EF0265019EC0EF0275019EC0EF0285049
:101E300019EC0EF0295019EC0EF0120058EC0FF0CE
:101E400011EF0FF058EC0FF014EF0FF058EC0FF00B
:101E500017EF0FF058EC0FF01AEF0FF058EC0FF0EF
:101E600042EC0FF0255019EC0EF0265019EC0EF054
:101E7000275019EC0EF0285019EC0EF0295019ECEF
:101E80000EF012000001300E25621200200E256EA9
:101E9000300E26621200200E266E300E27621200CF
:101EA000200E276E300E28621200200E286E1200BF
:101EB0000001196A1A6A100E176E270E186E15ECBB
:101EC00013F0300E1310256E1BC013F01CC014F05D
:101ED0001DC015F01EC016F0196A1A6AE80E176EBA
:101EE000030E186E15EC13F0300E1310266E1BC087
:101EF00013F01CC014F01DC015F01EC016F0196AB6
:101F00001A6A640E176E000E186E15EC13F0300E80
:101F10001310276E1BC013F01CC014F01DC015F069
:101F20001EC016F0196A1A6A0A0E176E000E186E95
:101F300015EC13F0300E1310286E300E1B10296EA6
:101F400012000001310E3762AAEF0FF048EC21F0C9
:101F5000D4EF0FF0320E3762B4EF0FF000C2E8FF9B
:101F6000C3EC21F0D4EF0FF0330E3762BCEF0FF06B
:101F70005DEC21F0D4EF0FF0340E3762C4EF0FF0B8
:101F800000C2E8FFEEEC21F0350E3762D4EF0FF01F
:101F90000001FF0E0D6E030E0E6EE8CF0EF0FF0E69
:101FA00049EC0CF0D4EF0FF0376A12000F01ABA22E
:101FB0001200AB98AB880F01AE500001636B1200AA
:101FC0000F016BA212006B986B880F016E5012000C
:101FD0000C0EE8CFAFFF220EE8CFACFF900EE8CF9B
:101FE000ABFF0001636B9F9A9D8A1200ACA2F6EFD3
:101FF0000FF0E8CFADFF1200D6C2E8FFE8660C0E86
:10200000E8CF6FFF7C96260EE8CF6CFF900EE8CFEE
:102010006BFFA59AA38A12006CA20CEF10F0E8CF18
:102020006DFF1200E1CF21F0E2CF22F0000167C086
:10203000E1FF000166C0E2FF6A6BACA21DEF10F089
:10204000E6CFE8FF00016A27E8CFADFF0001682F67
:102050001DEF10F021C0E1FF22C0E2FF1200E1CF2E
:1020600021F0E2CF22F0000167C0E1FF000166C06D
:10207000E2FF6A6B0001050E606FE86A60654EEF73
:1020800010F09EAA3EEF10F0AECFE8FFE8CFE6FFDB
:1020900000016A270001682F3AEF10F021C0E1FF2C
:1020A00022C0E2FF12009EAA12000001000E63632C
:1020B00066EF10F0AECFE8FFE8CF64F0550E646332
:1020C0001200280EE8CF61F0632B1200010E63634B
:1020D00070EF10F0AECFE8FFE8CF65F0632B120091
:1020E000020E63637AEF10F0AECFE8FFE8CF66F040
:1020F000632B1200030E636384EF10F0AECFE8FF92
:10210000E8CF67F0632B1200040E63638DEF10F0CD
:10211000AECFE8FFE8CF68F0632B050E636399EF5D
:1021200010F0010E656397EF10F02FEC10F0632BA9
:102130001200060E6363BCEF10F0AECFE8FFE8CFED
:1021400069F0020E6563ADEF10F012EC10F06AC09A
:10215000E8FFF6EC0FF0636B12006AC0E8FF6963FA
:10216000B7EF10F00C0EF6EC0FF0636B12000D0ED3
:10217000F6EC0FF0636B1200636B1200A4AA12005E
:102180006ECFE8FF0201A1B1F2EF10F0530AD8A41C
:1021900012000201A0A1120000010F0E7615100915
:1021A0000CEC10F075C0E8FF0CEC10F000010F0E05
:1021B000781520090CEC10F077510CEC10F00001B0
:1021C0000F0E7A1530090CEC10F079510CEC10F070
:1021D00000010F0E7C1540090CEC10F07B510CEC4B
:1021E00010F012000001B5B1F9EF10F0B76FB52B88
:1021F0001200B66FB52B020EB56312EF11F0B75196
:10220000F00B100AD8A457EF11F00F0EB717B7A7AD
:102210000CEF11F0F00EB713B6C0B8F0B7C0B9F0BC
:1022200057EF11F0040EB56329EF11F0B751F00B21
:10223000200AD8A457EF11F00F0EB717B7A723EF56
:1022400011F0F00EB713B6C0BAF0B7C0BBF057EF3D
:1022500011F0060EB56340EF11F0B751F00B300AE4
:10226000D8A457EF11F00F0EB717B7A73AEF11F038
:10227000F00EB713B6C0BCF0B7C0BDF057EF11F009
:10228000080EB56357EF11F0B751F00B400AD8A410
:1022900057EF11F00F0EB717B7A751EF11F0F00E6F
:1022A000B713B6C0BEF0B7C0BFF057EF11F01200C1
:1022B000D6C2E8FFE81EE8661200AA0E0CEC10F089
:1022C000AA0E0CEC10F00A6A0B6A040EE26E000E05
:1022D000E16E0AC0E8FFE3CF0DF0000EE26E3A0EA9
:1022E000E16E0DC0E8FFE806D890E836E3CF0DF0C8
:1022F000E82AE3CF0EF000010E3AF00E0E160AC0E7
:10230000E8FFE82A0E120E3A0BC0E8FF0D240E2457
:10231000E8CF0BF00DC0E8FF0CEC10F00EC0E8FFAA
:102320000CEC10F00A2A080E0A609EEF11F0A2C20F
:10233000E8FFD890E8320A6465EF11F00BC0E8FFBF
:102340000CEC10F0ED0E0CEC10F0ED0E0CEC10F0AF
:1023500012007C960C0E0F016F6E220E6C6E900EAA
:10236000E8CF6BFF12000001E80E0D26030E0E22CF
:102370000EAEC0EF11F0E86AE8CF0DF0E8CF0EF036
:10238000780E0D5C070E0E58D8A0CAEF11F0EF0EB4
:10239000D1EF11F00E320D320E320D320E320D32FF
:1023A0000D500CEF10F000010EAEDCEF11F0E86AFA
:1023B000E8CF0DF0E8CF0EF0BC0E0D5C030E0E580A
:1023C000D8A0CCEF11F0EF0ED1EF11F0F00E0CEC25
:1023D00010F0800E0CEC10F075C00DF076C00EF011
:1023E000B3EC11F077C00DF078C00EF0B3EC11F043
:1023F00079C00DF07AC00EF0B3EC11F07BC00DF097
:102400007CC00EF0D3EC11F07DC00DF07EC00EF05C
:10241000B3EC11F07FC00DF080C00EF0B3EC11F002
:10242000120022EC12F010AE1AEF12F00D50155EF1
:102430000E50165A0EAE21EF12F00F50155E1050CE
:10244000165A12000001136A146A156A166A0F50B0
:102450000D02F3CF13F0F4CF14F00F500E02F3502F
:102460001426F4501522D8B0162A10500D02F3503D
:102470001426F4501522D8B0162A10500E02F3502C
:102480001526F450162212000001246A1B6A14500B
:102490001310D8B4000C14501718E8BE241EB16BEA
:1024A000000E17AE56EF12F0171E172A14AE5DEF8E
:1024B00012F0131E141E132A142214501710E8BE13
:1024C000E9EF12F017501B5E143614341B36175008
:1024D0001B26143614341B36175014B01B5E14A080
:1024E0001B26143614341B36175014B01B5E14A070
:1024F0001B26143614341B36175014B01B5E14A060
:102500001B26143614341B36175014B01B5E14A04F
:102510001B26143614341B36175014B01B5E14A03F
:102520001B26143614341B36175014B01B5E14A02F
:102530001B26143613341B36175014B01B5E14A020
:102540001B26133613341B36175013B01B5E13A013
:102550001B26133613341B36175013B01B5E13A003
:102560001B26133613341B36175013B01B5E13A0F3
:102570001B26133613341B36175013B01B5E13A0E3
:102580001B26133613341B36175013B01B5E13A0D3
:102590001B26133613341B36175013B01B5E13A0C3
:1025A0001B26133613341B36175013B01B5E13A0B3
:1025B0001B26133613A01B26B1B107EF13F024AE70
:1025C000000C131E141EE86A132A14221B1E1B2A59
:1025D000000C17AE02EF13F014BEFEEF12F0E8CFBE
:1025E000AAF01350E8CF1BF01B9E1336143614507C
:1025F000E8CF13F0AA51146ADFEF12F0136A132A1E
:10260000146A000C141E131EB12B62EF12F01B2A69
:1026100017501B62DFEF12F01B6A000E132A142200
:1026200014AEDFEF12F02388FF0C0001246A1C6A4D
:102630001B6A155014101310D8B4000C155018183C
:10264000E8BE241EB16B000E18AE2BEF13F0171E60
:10265000181E172A182215AE34EF13F0131E141E7D
:10266000151E132A1422152215501810E8BEBEEFAD
:1026700014F017501B5E18501C5A153615341B36B3
:102680001C3617501B2618501C22153615341B36C5
:102690001C36175015A052EF13F01B5E18501C5A31
:1026A00055EF13F01B2618501C22153615341B3617
:1026B0001C36175015A062EF13F01B5E18501C5A01
:1026C00065EF13F01B2618501C22153615341B36E7
:1026D0001C36175015A072EF13F01B5E18501C5AD1
:1026E00075EF13F01B2618501C22153615341B36B7
:1026F0001C36175015A082EF13F01B5E18501C5AA1
:1027000085EF13F01B2618501C22153615341B3686
:102710001C36175015A092EF13F01B5E18501C5A70
:1027200095EF13F01B2618501C22153615341B3656
:102730001C36175015A0A2EF13F01B5E18501C5A40
:10274000A5EF13F01B2618501C22153614341B3627
:102750001C36175015A0B2EF13F01B5E18501C5A10
:10276000B5EF13F01B2618501C22143614341B36F8
:102770001C36175014A0C2EF13F01B5E18501C5AE1
:10278000C5EF13F01B2618501C22143614341B36C8
:102790001C36175014A0D2EF13F01B5E18501C5AB1
:1027A000D5EF13F01B2618501C22143614341B3698
:1027B0001C36175014A0E2EF13F01B5E18501C5A81
:1027C000E5EF13F01B2618501C22143614341B3668
:1027D0001C36175014A0F2EF13F01B5E18501C5A51
:1027E000F5EF13F01B2618501C22143614341B3638
:1027F0001C36175014A002EF14F01B5E18501C5A20
:1028000005EF14F01B2618501C22143614341B3606
:102810001C36175014A012EF14F01B5E18501C5AEF
:1028200015EF14F01B2618501C22143614341B36D6
:102830001C36175014A022EF14F01B5E18501C5ABF
:1028400025EF14F01B2618501C22143613341B36A7
:102850001C36175014A032EF14F01B5E18501C5A8F
:1028600035EF14F01B2618501C22133613341B3678
:102870001C36175013A042EF14F01B5E18501C5A60
:1028800045EF14F01B2618501C22133613341B3648
:102890001C36175013A052EF14F01B5E18501C5A30
:1028A00055EF14F01B2618501C22133613341B3618
:1028B0001C36175013A062EF14F01B5E18501C5A00
:1028C00065EF14F01B2618501C22133613341B36E8
:1028D0001C36175013A072EF14F01B5E18501C5AD0
:1028E00075EF14F01B2618501C22133613341B36B8
:1028F0001C36175013A082EF14F01B5E18501C5AA0
:1029000085EF14F01B2618501C22133613341B3687
:102910001C36175013A092EF14F01B5E18501C5A6F
:1029200095EF14F01B2618501C22133613341B3657
:102930001C36175013A0A2EF14F01B5E18501C5A3F
:10294000A5EF14F01B2618501C22133613B0ADEF60
:1029500014F017501B2618501C22B1B1E2EF14F0EE
:1029600024AE000C131E141E151E000E132A142272
:1029700015221B1E1C1E1B2A1C22000C18AEDCEF8D
:1029800014F015BED7EF14F0E8CFAAF01450E8CF3A
:102990001CF01350E8CF1BF01C9E14361536155052
:1029A000E8CF13F0AA51156A146AB0EF14F0136A55
:1029B000132A146A156A000C151E141E131EB12B5F
:1029C00039EF13F01B2AE86A1C2217501B62B0EF84
:1029D00014F018501C62B0EF14F01C6A1B6A000E51
:1029E000132A1422152215AEB0EF14F02388FF0C21
:1029F0001E6A1D6A1C6A1B6A16341B361C361D367D
:102A00001E3617501B5E18501C5A19501D5A1A506A
:102A10001E5AB16AB15B163616341B361C361D368B
:102A20001E36B137175016A021EF15F01B5E185057
:102A30001C5A19501D5A1A501E5AE86AB15B2AEFE7
:102A400015F01B2618501C2219501D221A501E2248
:102A5000E86AB123163616341B361C361D361E3670
:102A6000B137175016A040EF15F01B5E18501C5AD6
:102A700019501D5A1A501E5AE86AB15B49EF15F0F9
:102A80001B2618501C2219501D221A501E22E86ABB
:102A9000B123163616341B361C361D361E36B1379A
:102AA000175016A05FEF15F01B5E18501C5A1950F6
:102AB0001D5A1A501E5AE86AB15B68EF15F01B26C2
:102AC00018501C2219501D221A501E22E86AB123E8
:102AD000163616341B361C361D361E36B1371750C7
:102AE00016A07EEF15F01B5E18501C5A19501D5A87
:102AF0001A501E5AE86AB15B87EF15F01B26185072
:102B00001C2219501D221A501E22E86AB1231636C3
:102B100016341B361C361D361E36B137175016A01C
:102B20009DEF15F01B5E18501C5A19501D5A1A5073
:102B30001E5AE86AB15BA6EF15F01B2618501C223E
:102B400019501D221A501E22E86AB1231636163477
:102B50001B361C361D361E36B137175016A0BCEF7B
:102B600015F01B5E18501C5A19501D5A1A501E5A47
:102B7000E86AB15BC5EF15F01B2618501C221950EE
:102B80001D221A501E22E86AB123163616341B364F
:102B90001C361D361E36B137175016A0DBEF15F068
:102BA0001B5E18501C5A19501D5A1A501E5AE86ABA
:102BB000B15BE4EF15F01B2618501C2219501D22A2
:102BC0001A501E22E86AB123163615341B361C36FD
:102BD0001D361E36B137175016A0FAEF15F01B5EE2
:102BE00018501C5A19501D5A1A501E5AE86AB15BE7
:102BF00003EF16F01B2618501C2219501D221A50E4
:102C00001E22E86AB123153615341B361C361D36D4
:102C10001E36B137175015A019EF16F01B5E18506D
:102C20001C5A19501D5A1A501E5AE86AB15B22EFFD
:102C300016F01B2618501C2219501D221A501E2255
:102C4000E86AB123153615341B361C361D361E3680
:102C5000B137175015A038EF16F01B5E18501C5AEC
:102C600019501D5A1A501E5AE86AB15B41EF16F00E
:102C70001B2618501C2219501D221A501E22E86AC9
:102C8000B123153615341B361C361D361E36B137AA
:102C9000175015A057EF16F01B5E18501C5A19500C
:102CA0001D5A1A501E5AE86AB15B60EF16F01B26D7
:102CB00018501C2219501D221A501E22E86AB123F6
:102CC000153615341B361C361D361E36B1371750D7
:102CD00015A076EF16F01B5E18501C5A19501D5A9D
:102CE0001A501E5AE86AB15B7FEF16F01B26185087
:102CF0001C2219501D221A501E22E86AB1231536D3
:102D000015341B361C361D361E36B137175015A02C
:102D100095EF16F01B5E18501C5A19501D5A1A5088
:102D20001E5AE86AB15B9EEF16F01B2618501C2253
:102D300019501D221A501E22E86AB1231536153487
:102D40001B361C361D361E36B137175015A0B4EF92
:102D500016F01B5E18501C5A19501D5A1A501E5A54
:102D6000E86AB15BBDEF16F01B2618501C22195003
:102D70001D221A501E22E86AB123153615341B365F
:102D80001C361D361E36B137175015A0D3EF16F07E
:102D90001B5E18501C5A19501D5A1A501E5AE86AC8
:102DA000B15BDCEF16F01B2618501C2219501D22B7
:102DB0001A501E22E86AB123153614341B361C360D
:102DC0001D361E36B137175015A0F2EF16F01B5EF8
:102DD00018501C5A19501D5A1A501E5AE86AB15BF5
:102DE000FBEF16F01B2618501C2219501D221A50FA
:102DF0001E22E86AB123143614341B361C361D36E5
:102E00001E36B137175014A011EF17F01B5E185083
:102E10001C5A19501D5A1A501E5AE86AB15B1AEF13
:102E200017F01B2618501C2219501D221A501E2262
:102E3000E86AB123143614341B361C361D361E3690
:102E4000B137175014A030EF17F01B5E18501C5A02
:102E500019501D5A1A501E5AE86AB15B39EF17F023
:102E60001B2618501C2219501D221A501E22E86AD7
:102E7000B123143614341B361C361D361E36B137BA
:102E8000175014A04FEF17F01B5E18501C5A195022
:102E90001D5A1A501E5AE86AB15B58EF17F01B26EC
:102EA00018501C2219501D221A501E22E86AB12304
:102EB000143614341B361C361D361E36B1371750E7
:102EC00014A06EEF17F01B5E18501C5A19501D5AB3
:102ED0001A501E5AE86AB15B77EF17F01B2618509C
:102EE0001C2219501D221A501E22E86AB1231436E2
:102EF00014341B361C361D361E36B137175014A03D
:102F00008DEF17F01B5E18501C5A19501D5A1A509D
:102F10001E5AE86AB15B96EF17F01B2618501C2268
:102F200019501D221A501E22E86AB1231436143497
:102F30001B361C361D361E36B137175014A0ACEFA9
:102F400017F01B5E18501C5A19501D5A1A501E5A61
:102F5000E86AB15BB5EF17F01B2618501C22195018
:102F60001D221A501E22E86AB123143614341B366F
:102F70001C361D361E36B137175014A0CBEF17F094
:102F80001B5E18501C5A19501D5A1A501E5AE86AD6
:102F9000B15BD4EF17F01B2618501C2219501D22CC
:102FA0001A501E22E86AB123143613341B361C361D
:102FB0001D361E36B137175014A0EAEF17F01B5E0E
:102FC00018501C5A19501D5A1A501E5AE86AB15B03
:102FD000F3EF17F01B2618501C2219501D221A500F
:102FE0001E22E86AB123133613341B361C361D36F5
:102FF0001E36B137175013A009EF18F01B5E18509A
:103000001C5A19501D5A1A501E5AE86AB15B12EF29
:1030100018F01B2618501C2219501D221A501E226F
:10302000E86AB123133613341B361C361D361E36A0
:10303000B137175013A028EF18F01B5E18501C5A18
:1030400019501D5A1A501E5AE86AB15B31EF18F038
:103050001B2618501C2219501D221A501E22E86AE5
:10306000B123133613341B361C361D361E36B137CA
:10307000175013A047EF18F01B5E18501C5A195038
:103080001D5A1A501E5AE86AB15B50EF18F01B2601
:1030900018501C2219501D221A501E22E86AB12312
:1030A000133613341B361C361D361E36B1371750F7
:1030B00013A066EF18F01B5E18501C5A19501D5AC9
:1030C0001A501E5AE86AB15B6FEF18F01B261850B1
:1030D0001C2219501D221A501E22E86AB1231336F1
:1030E00013341B361C361D361E36B137175013A04D
:1030F00085EF18F01B5E18501C5A19501D5A1A50B3
:103100001E5AE86AB15B8EEF18F01B2618501C227D
:1031100019501D221A501E22E86AB12313361334A7
:103120001B361C361D361E36B137175013A0A4EFC0
:1031300018F01B5E18501C5A19501D5A1A501E5A6E
:10314000E86AB15BADEF18F01B2618501C2219502D
:103150001D221A501E22E86AB123133613341B367F
:103160001C361D361E36B137175013A0C3EF18F0AA
:103170001B5E18501C5A19501D5A1A501E5AE86AE4
:10318000B15BCCEF18F01B2618501C2219501D22E1
:103190001A501E22E86AB123133613B0D8EF18F084
:1031A00017501B2618501C2219501D221A501E227F
:1031B000000C0F01D89083B6D880D8B0E5EF18F096
:1031C0000A0E0FEC0CF00F01D89083B6D880D8B05F
:1031D0005BEF19F00F01D89084B2D880D8B0F6EF29
:1031E00018F00A0E0FEC0CF00F01D89084B2D880C2
:1031F000D8B05BEF19F00001D9671DEF19F000019D
:10320000D969030132C30DF033C30EF00001E80E9B
:103210000F6E030E106E11EC12F014C01CF115C0ED
:103220001DF10301345101011C2703013551010136
:103230001D2334C31AF135C31BF14EEC2DF0D8B069
:103240002EEF19F0D8A435EF19F001011A07D8A014
:103250001B071A07D8A01B0735EF19F001011A2B1D
:10326000D8B41B2B1A2BD8B41B2B1CC10DF01DC1BD
:103270000EF001011A5100010D5E01011B51000108
:103280000E5A0001000E0F6E010E106E11EC12F0BE
:103290000001E80E176E030E186E15EC13F013C044
:1032A00032F314C033F31AC134F31BC135F342ECCB
:1032B0001CF0D88412000001D96761EF19F0D8948E
:1032C0001200D96B38EC22F0D894120000016B5137
:1032D000E8CF0DF06C51E8CF0EF06F510D5E7051DC
:1032E0000E5AD8A083EF19F06D51E8CF0FF06E5150
:1032F000E8CF10F011EC12F01450E8CF73F0155035
:10330000E8CF74F012007151E8CF0FF07251E8CF9E
:1033100010F011EC12F01450E8CF73F01550E8CF14
:1033200074F012006BC00DF06CC00EF06F510D5EAA
:1033300070510E5A6DC00FF06EC010F011EC12F00B
:103340001450E8CF73F01550E8CF74F01200DAECA7
:103350001BF0040EFAEC08F0040E22EC09F015C282
:103360006DF016C26EF017C26FF018C270F019C27D
:1033700071F01AC272F066EC19F073C034F174C0C7
:1033800035F173C075F074C076F0050EFAEC08F0F4
:10339000050E22EC09F01BC26DF01CC26EF01DC2BE
:1033A0006FF01EC270F01FC271F020C272F066ECA6
:1033B00019F073C036F174C037F173C077F074C080
:1033C00078F0060EFAEC08F0060E22EC09F021C2A5
:1033D0006DF022C26EF023C26FF024C270F025C2DD
:1033E00071F026C272F066EC19F073C038F174C047
:1033F00039F173C079F074C07AF0070EFAEC08F076
:10340000070EFAEC08F027C26DF028C26EF029C250
:103410006FF02AC270F092EC19F073C03AF174C0E8
:103420003BF173C07BF074C07CF0030EFAEC08F043
:1034300000010F01C3CFE8FFE8CF8DF0C4CFE8FF54
:10344000E8CF8EF0080EFAEC08F02DC26FF02EC215
:1034500070F02BC26DF02CC26EF092EC19F073C0BC
:1034600085F074C086F0090EFAEC08F031C26FF0F6
:1034700032C270F02FC26DF030C26EF092EC19F0D3
:1034800073C087F074C088F00A0EFAEC08F035C2F9
:103490006FF036C270F033C26DF034C26EF092EC51
:1034A00019F073C089F074C08AF00B0EFAEC08F0C2
:1034B00039C26FF03AC270F037C26DF038C26EF0A8
:1034C00092EC19F073C08BF074C08CF00301B5510D
:1034D00087EC27F0D8A074EF1AF00001E80E7D6F9A
:1034E000030E7E6F79EF1AF00001180E7D6FFC0E4F
:1034F0007E6F000EFAEC08F03BC26DF03CC26EF03D
:103500003DC26FF03EC270F092EC19F073C07FF0D4
:1035100074C080F0010EFAEC08F03FC26DF040C2BA
:103520006EF041C26FF042C270F092EC19F073C0BD
:1035300081F074C082F00301B75187EC27F0D8A066
:10354000A9EF1AF00001E80E836F030E846FC3EF3A
:103550001AF00301B95187EC27F0D8A0B7EF1AF0A1
:103560000001180E836FFC0E846FC3EF1AF0030185
:10357000B85187EC27F0D8A0C3EF1AF00001000E75
:10358000836F000E846F12000001106A0FBE101EC0
:1035900011EC12F00001640E176E000E186E15EC9F
:1035A00013F013C011F014C012F013C00FF014C0C8
:1035B00010F00EAEE1EF1AF00F1E101E0F2AD8B059
:1035C000102A11EC12F000010A0E176E000E186E90
:1035D00015EC13F00B50E8CF17F0186A17BE181E41
:1035E00015EC13F011500D5E12500E5A13500D26AB
:1035F00014500E2212000301AE5187EC27F075C063
:103600000DF076C00EF0D8A011EF1BF003011B5196
:103610000001E8CF0FF003011751E8CF0BF019EFCD
:103620001BF003011A510001E8CF0FF0640EE8CF40
:103630000BF0C4EC1AF00DC075F00EC076F003016B
:10364000AF5187EC27F077C00DF078C00EF0D8A00E
:1036500035EF1BF0030126510001E8CF0FF0030105
:103660002251E8CF0BF03DEF1BF003012551000183
:10367000E8CF0FF0640EE8CF0BF0C4EC1AF00DC0E9
:1036800077F00EC078F00301B05187EC27F079C0D5
:103690000DF07AC00EF0D8A059EF1BF003013151A4
:1036A0000001E8CF0FF003012D51E8CF0BF061EFDF
:1036B0001BF0030130510001E8CF0FF0640EE8CF9A
:1036C0000BF0C4EC1AF00DC079F00EC07AF01200C5
:1036D0000301AE5187EC27F0D8A087EF1BF075C02F
:1036E0000FF076C010F017C30DF018C30EF00E6A7D
:1036F0000DBE0E1E11EC12F00001640E176E000ECE
:10370000186E15EC13F013C075F014C076F00301B9
:10371000AF5187EC27F0D8A0A6EF1BF077C00FF0D1
:1037200078C010F022C30DF023C30EF00E6A0DBE58
:103730000E1E11EC12F00001640E176E000E186ED2
:1037400015EC13F013C077F014C078F00301B051FA
:1037500087EC27F0D8A0C5EF1BF079C00FF07AC036
:1037600010F02DC30DF02EC30EF00E6A0DBE0E1E0E
:1037700011EC12F00001640E176E000E186E15ECBD
:1037800013F013C079F014C07AF01200D3C2E8FF2E
:10379000E81EE866120099C0E8FFE81EE86612001D
:1037A000E86AE8CF99F0030E00015F6E030EA2EC09
:1037B0000AF0120085C00DF086C00EF093C00FF025
:1037C00094C010F011EC1CF0E868D8B0E8CF99F084
:1037D0000FC093F010C094F087C00DF088C00EF0B9
:1037E00095C00FF096C010F011EC1CF0E868D8B04E
:1037F000E8CF99F00FC095F010C096F089C00DF099
:103800008AC00EF097C00FF098C010F011EC1CF0B9
:10381000E868D8B0E8CF99F00FC097F010C098F0E2
:1038200012000DC011F00EC012F000010FC0E8FF31
:10383000115E10C0E8FF125A12AE24EF1CF0111EE8
:10384000121E112AD8B4122AD89012321132D890EE
:1038500012321132D89012321132D8901232113203
:10386000D8901232113211C0E8FF1212D890D8B499
:1038700012000EC0E8FF1018E8360DC00FF00EC0A1
:1038800010F0120080C50FF081C510F00201B25196
:103890009DEC01F00301A75100010F260301A8517F
:1038A0000001102218C30DF019C30EF000010E6ABA
:1038B000FF0E0DBE0E6E11EC12F00001640E176EBD
:1038C000186A196A1A6A15EC13F0000103011951FC
:1038D00000010D6E0E6A0DBE0E1E0D360E360D5019
:1038E00013260E501422135075271450762382C5C8
:1038F0000FF083C510F00201B3519DEC01F00301FC
:10390000A95100010F260301AA510001102223C36F
:103910000DF024C30EF000010E6AFF0E0DBE0E6EF8
:1039200011EC12F00001640E176E186A196A1A6A17
:1039300015EC13F000010301245100010D6E0E6A15
:103940000DBE0E1E0D360E360D5013260E501422CF
:10395000135077271450782384C50FF085C510F0D5
:103960000201B4519DEC01F00301AB5100010F269F
:103970000301AC51000110222EC30DF02FC30EF035
:1039800000010E6AFF0E0DBE0E6E11EC12F000016A
:10399000640E176E186A196A1A6A15EC13F00001A2
:1039A00003012F5100010D6E0E6A0DBE0E1E0D3665
:1039B0000E360D5013260E50142213507927145032
:1039C0007A2386C50FF087C510F00201B5519DEC32
:1039D00001F036C30DF037C30EF000010E6AFF0E82
:1039E0000DBE0E6E11EC12F00001640E176E186A17
:1039F000196A1A6A15EC13F00301010E376318EF08
:103A00001DF00001030E0E6E186EE80E0D6E176E9F
:103A10007B510D5E7C510E5A196A1A6A13C00FF061
:103A200014C010F011EC12F015EC13F032EF1DF091
:103A3000020E376332EF1DF000017B510D6E7C5199
:103A40000E6E13C00FF014C010F011EC12F0000154
:103A5000030EE8CF18F0E80EE8CF17F0196A1A6ADB
:103A600015EC13F0000113507B2714507C23120037
:103A700000010E6A08C40DF00DBE0E6800010A0EAA
:103A80000F6E000E106E11EC12F0135075271450CB
:103A9000762300010E6A09C40DF00DBE0E68000108
:103AA0000A0E0F6E000E106E11EC12F013507727F5
:103AB0001450782300010E6A0AC40DF00DBE0E6882
:103AC00000010A0E0F6E000E106E11EC12F0135072
:103AD000792714507A2300010E6A0BC40DF00DBE35
:103AE0000E6800010A0E0F6E000E106E11EC12F03F
:103AF00013507B2714507C2300010E6A0CC40DF078
:103B00000DBE0E6800010A0E0F6E000E106E11EC55
:103B100012F013507D2714507E2300010E6A0DC44D
:103B20000DF00DBE0E6800010A0E0F6E000E106E35
:103B300011EC12F013507F271450802300010E6AFD
:103B40000EC40DF00DBE0E6800010A0E0F6E000EC1
:103B5000106E11EC12F013508127145082230001D3
:103B60000E6A0FC40DF00DBE0E6800010A0E0F6E36
:103B7000000E106E11EC12F01350832714508423A2
:103B8000120000010A0E0D6E000E0E6E0301BB51F5
:103B900087EC27F0D8A012EF1EF003014DAFDFEF46
:103BA0001DF04CC30FF0106A0FBE106811EC12F03C
:103BB000000113C0E8FF752714C0E8FF7623030156
:103BC0004FAFF1EF1DF04EC30FF0106A0FBE10683B
:103BD00011EC12F0000113C0E8FF772714C0E8FFD2
:103BE0007823030151AF03EF1EF050C30FF0106AAA
:103BF0000FBE106811EC12F0000113C0E8FF792726
:103C000014C0E8FF7A23030153AF12EF1EF052C332
:103C10000FF0106A0FBE106811EC12F013C07BF0A9
:103C200014C07CF00301BC5187EC27F0D8A055EFFD
:103C30001EF0030155AF28EF1EF054C30FF0106AB9
:103C40000FBE106811EC12F013C075F014C076F0BE
:103C5000030157AF37EF1EF056C30FF0106A0FBEC7
:103C6000106811EC12F013C077F014C078F0030163
:103C700059AF46EF1EF058C30FF0106A0FBE106820
:103C800011EC12F013C079F014C07AF003015BAFAD
:103C900055EF1EF05AC30FF0106A0FBE106811ECFA
:103CA00012F013C07BF014C07CF000017CAF120056
:103CB000E86A7B6F7C6F120090C0E8FFC00A32E0B8
:103CC0007DC00DF07EC00EF000018FC0E8FF0D5EDC
:103CD00090C0E8FF0E5A0EBE80EF1EF019C4E8FF38
:103CE0000D5E1AC4E8FF0E5A0EBE92EF1EF00001E0
:103CF00019C4E8FF8F271AC4E8FF902396EF1EF03F
:103D000019C4E8FF0D261AC4E8FF0E220EAE92EF8A
:103D10001EF0000119C4E8FF8F5F1AC4E8FF905B32
:103D200096EF1EF07DC08FF07EC090F092C0E8FF4D
:103D3000C00A32E083C00DF084C00EF0000191C0D3
:103D4000E8FF0D5E92C0E8FF0E5A0EBEBAEF1EF0FD
:103D50001BC4E8FF0D5E1CC4E8FF0E5A0EBECCEF7C
:103D60001EF000011BC4E8FF91271CC4E8FF92234A
:103D7000D0EF1EF01BC4E8FF0D261CC4E8FF0E2286
:103D80000EAECCEF1EF000011BC4E8FF915F1CC417
:103D9000E8FF925BD0EF1EF083C091F084C092F0F8
:103DA00012000201A1B112000301B65187EC27F005
:103DB000D8A0120000016267120002019F510001A9
:103DC000626F0201010EB663EFEF1EF0010E0001FB
:103DD0005F6E050EA2EC0AF0280E0001626F75C03E
:103DE0000DF076C00EF092EC1FF0D8A425EF1FF076
:103DF0000201B667FEEF1EF002019E51000176BF80
:103E00000CEF1FF00301192719AF16EF1FF0D8A60A
:103E100016EF1FF019EF1FF00301195F19BF16EF1E
:103E20001FF0D8A616EF1FF01EEF1FF019BF1EEFF0
:103E30001FF0640E1961196F23EF1FF0640EE81E66
:103E4000E82A1965196F38EC22F077C00DF078C0B8
:103E50000EF092EC1FF0D8A45BEF1FF00201B667E2
:103E600034EF1FF002019E51000178BF42EF1FF0B6
:103E70000301242724AF4CEF1FF0D8A64CEF1FF00E
:103E80004FEF1FF00301245F24BF4CEF1FF0D8A6B3
:103E90004CEF1FF054EF1FF024BF54EF1FF0640EDF
:103EA0002461246F59EF1FF0640EE81EE82A246590
:103EB000246F38EC22F079C00DF07AC00EF092EC4D
:103EC0001FF0D8A491EF1FF00201B6676AEF1FF050
:103ED00002019E5100017ABF78EF1FF003012F27E6
:103EE0002FAF82EF1FF0D8A682EF1FF085EF1FF0F3
:103EF00003012F5F2FBF82EF1FF0D8A682EF1FF0C4
:103F00008AEF1FF02FBF8AEF1FF0640E2F612F6F13
:103F10008FEF1FF0640EE81EE82A2F652F6F38EC34
:103F200022F0120000010EAE9BEF1FF00D1E0E1EC0
:103F30000D2AD8B00E2AD8900E320D320E66A5EF9B
:103F40001FF0640E0D64AAEF1FF00001640E0D6EE9
:103F5000000E0E6E0D50E832E8321F0BD8740DC003
:103F6000E8FF12000001CA6B000176BFC4EF1FF02A
:103F700011C30DF012C30EF075C00FF076C010F033
:103F800011EC12F0CEEF1FF015C30DF016C30EF0BA
:103F900075C00FF076C010F011EC12F013C30DF0E5
:103FA00014C30EF0000114500D2615500E2218EC0B
:103FB00021F00DC03EF00EC03FF0000178BFEDEFE4
:103FC0001FF01CC30DF01DC30EF077C00FF078C0BA
:103FD00010F011EC12F0F7EF1FF020C30DF021C329
:103FE0000EF077C00FF078C010F011EC12F01EC385
:103FF0000DF01FC30EF0000114500D2615500E22B7
:1040000018EC21F00DC03CF00EC03DF000017ABF6D
:1040100016EF20F027C30DF028C30EF079C00FF083
:104020007AC010F011EC12F020EF20F02BC30DF04D
:104030002CC30EF079C00FF07AC010F011EC12F022
:1040400029C30DF02AC30EF0000114500D2615509F
:104050000E2218EC21F00DC040F00EC041F032C32A
:104060000DF033C30EF07BC00FF07CC010F011ECEC
:1040700012F034C30DF035C30EF0000114500D26BC
:1040800015500E2218EC21F00DC042F00EC043F086
:104090003AC30DF03BC30EF08FC00FF090C010F08C
:1040A00011EC12F03CC30DF03DC30EF000011450B2
:1040B0000D2615500E2218EC21F00DC044F00EC054
:1040C00045F088EF20F0000180BF73EF20F01CC3A3
:1040D0000DF01DC30EF07FC00FF080C010F011EC8A
:1040E00012F07DEF20F020C30DF021C30EF07FC051
:1040F0000FF080C010F011EC12F01EC30DF01FC3C2
:104100000EF0000114500D2615500E229BEF20F0EA
:104110003EC30DF03FC30EF07FC00FF080C010F023
:1041200011EC12F040C30DF041C30EF00001145029
:104130000D2615500E2218EC21F00DC046F00EC0D1
:1041400047F0C8EF20F0000182BFB3EF20F011C3A9
:104150000DF012C30EF081C00FF082C010F011EC10
:1041600012F0BDEF20F015C30DF016C30EF081C0A4
:104170000FF082C010F011EC12F013C30DF014C355
:104180000EF0000114500D2615500E22DBEF20F02A
:1041900042C30DF043C30EF081C00FF082C010F097
:1041A00011EC12F044C30DF045C30EF000011450A1
:1041B0000D2615500E2218EC21F00DC048F00EC04F
:1041C00049F091C00DF092C00EF00EBEF0EF20F05D
:1041D00046C30FF047C310F011EC12F0F6EF20F0D9
:1041E0004AC30FF04BC310F011EC12F048C30DF0AE
:1041F00049C30EF00D5014260E50152214C00DF0B8
:1042000015C00EF018EC21F00DC04AF00EC04BF0B6
:104210000001D96717EF21F00301B15187EC27F0B6
:10422000D8A017EF21F038C342F039C343F0120091
:104230000201AE5100010D5C0201AF5100010E58A8
:10424000E8AE28EF21F0AEC20DF0AFC20EF01200C2
:104250000201B05100010D5C0201B15100010E5884
:10426000E8BE1200B0C20DF0B1C20EF012000001A3
:1042700033B446EF21F035A446EF21F03594010E1A
:104280005F6E050EA2EC0AF0D8801200D8901200E2
:104290000001000E0D6E020E0E6E0001000E136E78
:1042A000000E146E010E156EE86A0A6ED4EC0CF066
:1042B000020100510001B26F12000001000E0D6EEC
:1042C000020E0E6E0001000E136E000E146E010E33
:1042D000156E040E0A6E08EC0DF01200E846E806B2
:1042E0000B6E0001000E0D6E030E0E6E0001000E2F
:1042F000136E000E146E010E156E0B501426E86A34
:104300001522100E0A6ED4EC0CF01200E846E806F6
:104310000B6E0001000E0D6E080E0E6E0001000EF9
:10432000136E000E146E010E156E0B501426E86A03
:104330001522400E0A6ED4EC0CF00001000EC26F84
:10434000030EC36F0001000EC06F030EC16F0001AA
:10435000080EC16F100EC46F5FEC26F00001000E56
:104360000D6E080E0E6E0001000E136E000E146E20
:10437000010E156E0B501426E86A1522010E0A6E06
:1043800008EC0DF01200E846E8060B6E0001000E86
:104390000D6E030E0E6E0001000E136E000E146EF5
:1043A000010E156E0B501426E86A15220A6ED4EC25
:1043B0000CF00001000E0D6E040E0E6E0001000EDA
:1043C000136E000E146E010E156E0B50E82A1426A3
:1043D000E86A15220A6ED4EC0CF01200E846E806F2
:1043E0000C6E0001000E0D6E030E0E6E0001000E2D
:1043F000136E000E146E010E156E0C501426E86A32
:104400001522040E0A6E08EC0DF00001000E0D6E70
:10441000040E0E6E0001000E136E000E146E010EDF
:10442000156E0C50E82A1426E86A1522040E0A6E4E
:1044300008EC0DF012000001000EC26F030EC36FF6
:104440000001000EC06F060EC16F000EC46F5FEC5E
:1044500026F00001000EC26F040EC36F0001000EB3
:10446000C06F070EC16F000EC46F5FEC26F0120024
:1044700002010051E846E8060A6E0001000E0D6ECA
:10448000030E0E6E0001000E136E000E146E010E70
:10449000156E0A501426E86A1522010E0A6E08EC01
:1044A0000DF0120075C09AF076C09BF077C09CF0BA
:1044B00078C09DF079C09EF07AC09FF07BC0A0F0DC
:1044C0007CC0A1F07DC0A2F07EC0A3F07FC0A4F0AC
:1044D00080C0A5F081C0A6F082C0A7F083C0A8F07C
:1044E00084C0A9F0120052EC22F00301B25187EC13
:1044F00027F0D8B08EEF22F0030EE26E5C0EE16E74
:104500007FEC25F0610EE16E7FEC25F0660EE16E2A
:104510007FEC25F06B0EE16E7FEC25F052EC22F083
:104520000301B35187EC27F0D8B0AFEF22F0030EB0
:10453000E26E700EE16E7FEC25F052EC22F0750E0B
:10454000E16E7FEC25F052EC22F07A0EE16E7FEC0A
:1045500025F052EC22F07F0EE16E7FEC25F052EC5C
:1045600022F00301B45187EC27F0D8B0CAEF22F053
:10457000030EE26E840EE16E7FEC25F0890EE16E93
:104580007FEC25F08E0EE16E7FEC25F0930EE16E50
:104590007FEC25F012009AC00DF09BC00EF010C405
:1045A0000FF000010EBE11C40FF0106A0FBE1068AC
:1045B00011EC12F00001640E176E000E186E15EC6F
:1045C00013F0000113C0E8FF9E2714C0E8FF9F23EB
:1045D0009EC00DF09FC00EF012C40FF000010EBE81
:1045E00013C40FF0106A0FBE106811EC12F0000136
:1045F000640E176E000E186E15EC13F0000113C058
:10460000E8FF9A2714C0E8FF9B239EC00DF09FC0CF
:104610000EF014C40FF000010EBE15C40FF0106AA6
:104620000FBE106811EC12F00001640E176E000E40
:10463000186E15EC13F0000113C0E8FF9C2714C09E
:10464000E8FF9D23A0C00DF0A1C00EF016C40FF02E
:1046500000010EBE106A0FBE106811EC12F00001CE
:10466000640E176E000E186E15EC13F0000113C0E7
:10467000E8FF9C2714C0E8FF9D239AC075F09BC0FB
:1046800076F09CC077F09DC078F09EC079F09FC016
:104690007AF0A0C07BF0A1C07CF0040117A15FEF0D
:1046A00023F09CC07FF09DC080F0040118A15FEF53
:1046B00023F000017F1F801F7F2BD8B0802B0301C8
:1046C00098A17CEF23F09CC00DF09DC00EF09EC021
:1046D0000FF09FC010F000010DC077F00EC078F011
:1046E0000DC079F00EC07AF00F50792710507A2360
:1046F0000F50775F1050785B030199A199EF23F079
:104700009CC00DF09DC00EF09AC00FF09BC010F041
:1047100000010DC077F00EC078F00DC075F00EC02E
:1047200076F00F507527105076230F50775F10509A
:10473000785B03019AA154EF24F09AC00DF09BC05E
:104740000EF00DC075F00EC076F00DC081F00EC0F9
:1047500082F00001640E176E000E186E03019C516A
:10476000E812D8B4FDEF23F0E8BEDBEF23F06408D5
:1047700000010F6E106A76BFCCEF23F075C00DF00C
:1047800076C00EF011EC12F015EC13F013C075F0BA
:1047900014C076F0FDEF23F0000181C00DF082C05F
:1047A0000EF011EC12F015EC13F013C081F014C0F0
:1047B00082F0FDEF23F0640F00010F6E106A76AFF8
:1047C000F0EF23F075C00DF076C00EF011EC12F092
:1047D00015EC13F013C075F014C076F0FDEF23F064
:1047E000000181C00DF082C00EF011EC12F015EC4A
:1047F00013F013C081F014C082F003019BA107EFF6
:1048000024F00001811F821F812BD8B0822B000170
:10481000640E176E000E186E03019D51E812D8B495
:1048200054EF24F00301C651E812D8B42AEF24F063
:104830000301C55187EC27F0D8B054EF24F00001F4
:10484000E80E0D6E030E0E6EA0510D5EA1510E5AB4
:1048500036EF24F00001E80E0D6E030E0E6EA65129
:104860000D26A7510E22D8900E320D329DC30FF0A7
:104870009EC310F0106A0FBE101E11EC12F015EC62
:1048800013F0135075271450762303019BB14FEF9B
:1048900024F00001131E141E132AD8B0142A00019C
:1048A000135081271450822312000301A4A1120087
:1048B00052EC22F0CBEC22F012000301A4B165EF20
:1048C00024F052EC22F0CBEC22F003019EA180EF09
:1048D00024F00301C25187EC27F0D8A080EF24F028
:1048E00003019F5100010D6E0E6A00010A0E0F6E4A
:1048F000000E106E11EC12F013C07BF014C07CF0AF
:104900000301A0A1ADEF24F00301C35187EC27F010
:10491000D8A08FEF24F00301A15198EF24F00301F8
:10492000C45187EC27F0D8A0ADEF24F00301A251C9
:1049300000010D6E0E6A00010A0E0F6E000E106E61
:1049400011EC12F013507B5D14507C59E8AEADEFC2
:1049500024F013C07BF014C07CF012001DC4E8FFEB
:10496000E812D8B4120075C00DF076C00EF077C012
:104970000FF078C010F07FC075F080C076F07FC077
:1049800077F080C078F000010DC0E8FF75270EC0F9
:10499000E8FF76230DC0E8FF7F5F0EC0E8FF805B75
:1049A0000FC0E8FF772710C0E8FF78231DC4E8FF99
:1049B0000308D8B412000001D89010BED88010327D
:1049C0000F3200010FC0E8FF7F5F10C0E8FF805B7F
:1049D0000FC0E8FF755F10C0E8FF765B1DC4E8FFFD
:1049E0000108D8B4120000010FC0E8FF7F5F10C0BB
:1049F000E8FF805B0FC0E8FF755F10C0E8FF765BE3
:104A000012000BC0E8FFF00BD8B412000DC06BF021
:104A10000EC06CF00EAE12EF25F00D1E0E1E0D2A0C
:104A2000D8B00E2A0DC013F00EC014F0640E176E2D
:104A300044EC12F000011C6A090E13602AEF25F005
:104A40000BC0E8FFE83AE8060F0BE8B647EF25F0A1
:104A50003CEF25F0136E0DC01BF00EC01CF0840E51
:104A600000011B5E030E1C5A0BC0E8FFE83AE80683
:104A70000F0BE8B647EF25F00B0DF350460F13244C
:104A8000E8CFD9FF020EE8CFDAFF51EF25F0E89624
:104A90000B0DF350DA0F1324E8CFD9FF030EE8CF44
:104AA000DAFFDECF0AF0DFCF0BF000010BC00DF014
:104AB0000AC0E8FF0D5E0E6A0DBE0E681BC00FF047
:104AC0001CC010F011EC12F00A0E176E44EC12F03C
:104AD0000AC0E8FF0A0DF3CFE8FF1326F4CFE8FF82
:104AE000142213C00DF014C00EF000016CAF1200C0
:104AF00000010D1E0E1E0D2AD8B00E2A1200E6501F
:104B0000E8CF0BF0E812D8B4120080EC02F001EC10
:104B100025F00DC011F00EC012F0E6CF0AF0E6CF7E
:104B2000E8FF0001E8CF0DF00E6A0DBE0E1E000179
:104B30000A0E0F6E000E106E11EC12F011C00DF087
:104B400012C00EF013500D5E14500E5A0EBEDEEF62
:104B500025F0E6CFE8FF00010AACC7EF25F0E8CF6B
:104B600013F0E9CF14F00DC011F00EC012F0135085
:104B700080EC02F00DC013F00EC014F00A0E176E98
:104B800044EC12F011C00DF012C00EF013500F6E75
:104B9000106A0FBE101E11EC12F00001640E176EA9
:104BA000000E186E196A1A6A15EC13F013C00DF096
:104BB00014C00EF00A5000EC03F01200E6CFE8FF3C
:104BC000E6CFE8FF00010AAAFCEF25F0E8CF13F0DA
:104BD0000DC011F00EC012F0135080EC02F00DC0A9
:104BE00013F00EC014F00A0E176E44EC12F011C050
:104BF0000DF012C00EF013500F6E106A0FBE101E93
:104C000011EC12F00001640E176E000E186E196A96
:104C10001A6A15EC13F013C00DF014C00EF00A5010
:104C200000EC03F012000001BD0EC26F030EC36F53
:104C30000001120EC06F010EC16F050EC46F5FEC54
:104C400026F0D90EE8CFD9FF060EE8CFDAFF060E20
:104C5000E8CF0CF0DDCFE8FFE812D8B437EF26F04C
:104C6000DFCFE8FF87EC27F0D8B043EF26F0DDCFA9
:104C7000E8FF0C2E2AEF26F0B2C0E8FF0201006325
:104C80004CEF26F01200DECFE8FFDECFE8FF020196
:104C900000634CEF26F01200E8CF00F2C3EC21F0E5
:104CA0000001120EC26F010EC36F0001BD0EC06F76
:104CB000030EC16F050EC46F5FEC26F012000001F9
:104CC000C251E16EC351E26E0001C051D96EC151B3
:104CD000DA6EE6CFE8FFE8CFDEFF0001C42F69EF10
:104CE00026F012000001CC6B0301AE5187EC27F0D7
:104CF0000001D8B0CC810301AF5187EC27F000014F
:104D0000D8B0CC830301B05187EC27F00001D8B0B4
:104D1000CC850301B15187EC27F00001D8B0CC87D6
:104D20000301B65187EC27F00001D8B0CC8903010C
:104D3000BB5187EC27F00001D8B0CC8B0301BC51EC
:104D400087EC27F00001D8B0CC8D1200C00E28EC03
:104D50000EF00301AE5187EC27F00001E86AE8800D
:104D6000CC15D8A0C2EF26F0D8A4D3EF26F0CC7192
:104D7000000EF86E6F0EF76EE00EF66ED5EC0EF0CC
:104D800084EF27F0D8B0D3EF26F0D8B4D3EF26F0D5
:104D9000CC71000EF86E6F0EF76ECE0EF66ED5EC7F
:104DA0000EF084EF27F00301AF5187EC27F00001EC
:104DB000E86AE882CC15D8A0ECEF26F0D8A4FDEF85
:104DC00026F0CC73000EF86E700EF76E040EF66EC1
:104DD000D5EC0EF084EF27F0D8B0FDEF26F0D8B474
:104DE000FDEF26F0CC73000EF86E6F0EF76EF20E2C
:104DF000F66ED5EC0EF084EF27F00301B05187EC8E
:104E000027F00001E86AE884CC15D8A016EF27F057
:104E1000D8A427EF27F0CC75000EF86E700EF76E51
:104E2000280EF66ED5EC0EF084EF27F0D8B027EF01
:104E300027F0D8B427EF27F0CC75000EF86E700E6F
:104E4000F76E160EF66ED5EC0EF084EF27F0030128
:104E5000B15187EC27F00001D8A03DEF27F0CCB787
:104E60003EEF27F0CC77000EF86E700EF76E700EE6
:104E7000F66ED5EC0EF084EF27F0CC970301B65117
:104E800087EC27F00001D8A054EF27F0CCB955EFFC
:104E900027F0CC79000EF86E700EF76E5E0EF66E8F
:104EA000D5EC0EF084EF27F0CC990301BB5187ECD1
:104EB00027F00001D8A06BEF27F0CCBB6CEF27F0F8
:104EC000CC7B000EF86E700EF76E3A0EF66ED5ECD7
:104ED0000EF084EF27F0CC9B0301BC5187EC27F048
:104EE0000001D8A082EF27F0CCBD83EF27F0CC7D66
:104EF000000EF86E700EF76E4C0EF66ED5EC0EF0DE
:104F000084EF27F0CC9D1200500EB06F1200E8AA7B
:104F1000BEEF27F0E8A8BEEF27F00A6E070BC90F17
:104F2000E16E030EE26EE65000010D6E0E6AE8BE01
:104F30000E6800010A0E0F6E000E106E11EC12F0DA
:104F40000A50070BE846340FE16E010EE26EE6CF21
:104F50000DF0E6CF0EF000010EAEB3EF27F00D1E00
:104F60000E1E0D4A0E2A0DC0E8FF135E0EC0E8FFAC
:104F70001458E8360ABE1200D8701200D890E8BA69
:104F80001200D880E8B8120000011F6E206AE8BC49
:104F90002080070BE82AD8802036E82ECCEF27F0B7
:104FA00030501FB633502014D8802062D8901FBED6
:104FB000D8701200040ED56E1200D59E1200D89043
:104FC00087B21200D880D5BE1200D0C00DF0D1C07B
:104FD0000EF000013C0E0F6E000E106E22EC12F06F
:104FE00013C00DF014C00EF00001240E0F6EF40E6D
:104FF000106E22EC12F0CEC017F0CFC018F00001F6
:10500000000E196E000E1A6EF8EC14F0A5C317F01E
:10501000A6C318F00001186A15EC13F0C00E28ECB6
:105020000EF0000EF86E6F0EF76E3E0EF66ED5ECBB
:105030000EF0CB0E28EC0EF02EEC0FF0A5C313F003
:10504000A6C314F0146AC00E28EC0EF02AEC0FF080
:105050000001000ED06F000ED16FD8801200000149
:10506000020E36621200000133A01200FC6A49EF02
:1050700005F048EC28F0D8A01200FC6A5DEC21F0A5
:1050800000C2E8FFEEEC21F01BEC22F049EF05F046
:10509000000130B652EF28F032A652EF28F03296D7
:1050A000D8801200D89012000001700E0E6E940E7F
:1050B0000D6E9BEC28F0B4EC0EF00001115080EC6A
:1050C00001F012001EC10DF01FC10EF0B4EC0EF085
:1050D00012000001FC51D8B41200E1CF3EF1E2CF42
:1050E0003FF1A7EC19F00001000E756F000E766F0E
:1050F0000001000E776F000E786F68EC1BF0FBEC80
:105100001AF0C1EC1DF0D1EC1EF042EC1CF055EC95
:1051100024F073EC22F05DEC24F038EC1DF0B2ECDE
:105120001FF0A1EC0FF03EC1E1FF3FC1E2FF120012
:105130000001FC6912002FEC28F00001DA6BE86B2B
:10514000F76BF86BC00E28EC0EF00DC0F6FF0EC02A
:10515000F7FFF86A0DC00FF00EC010F0D5EC0EF09E
:10516000FA0E0FEC0CF028EC2DF0D8A4BEEF28F0CE
:10517000110E0D26D8B00E2AC5EF28F0D8A0D2EF18
:1051800028F0130E0D26D8B00E2A0DC0F6FF0EC063
:10519000F7FFF86A0900F5CF0DF00900F5CF0EF022
:1051A000A2EF28F039EC28F037EC21F0D8A0A2EFDC
:1051B00028F0150E0D26D8B00E2A0DC0F6FF0EC031
:1051C000F7FFF86A0900F5CF11F00900F5CF12F0EA
:1051D0000FC00DF010C00EF00900F5CF0FF0090060
:1051E000F5CF10F00900F5CFDBF00900F5CFDCF0CA
:1051F0000001C66BC76BC8697F0EE8CFC9F012AC5F
:105200000EEF29F00900F5CFC6F00900F5CFC7F081
:105210000900F5CFC8F00900F5CFC9F012A417EFC7
:1052200029F00900F5CFF7F00900F5CFF8F012A248
:1052300020EF29F00900F5CFF9F00900F5CFFAF0D9
:1052400012AE25EF29F0B4EC0EF012A62AEF29F0E9
:10525000CAEC0EF012A212000001E86AE8CFFBFFD0
:10526000FAC0E8FFE8CFFAFFF9C0E8FFF96EE8CF2F
:105270000AF00FC01BF010C01CF00FC0F6FF10C0EA
:10528000F7FFF86A150EF626D8B0F72A0900F5CF11
:10529000E8FF0A624DEF29F012000FC0F6FF10C0C0
:1052A000F7FF110EF626D8B0F72A0900F5CF0FF058
:1052B0000900F5CF10F00FC0E8FF1B623DEF29F0A9
:1052C00010C0E8FF1C623DEF29F0120000011050F1
:1052D0000F10D8B41200E86AFB6E1050E8CFFAFF46
:1052E0000F50F96E00010F50E16E1050E26E000198
:1052F000000E116290EF29F00FC0F6FF10C0F7FF0B
:10530000F86A160EF626D8B0F72ADBC0E1FFDCC03B
:10531000E2FFE7CFE8FF37EC29F095EC2CF0120024
:10532000010E11629AEF29F0250EE8CF40F16BECE7
:105330002BF01200020E1162C4EF29F0000112A03E
:10534000A5EF29F0DB510001C56FE6CF0AF0E5CFEC
:105350000BF000010AC011F00BC012F0129E129C5B
:10536000C8EC2BF000010FC0E1FF10C0E2FF11C03C
:105370000AF012C00BF00AC0E6FFE7CFE8FFC00B4F
:105380000B120BC0E5FF1200030E1162D9EF29F0DA
:10539000E7CFE8FFE836BCEC2AF0000ED8B0E81EF4
:1053A0000A6E00010FC0E1FF10C0E2FF0AC0E7FF74
:1053B0001200040E1162EAEF29F0E7CFE8FFDCECFF
:1053C0002CF00A6E00010FC0E1FF10C0E2FF0AC01E
:1053D000E7FF1200050E1162FCEF29F0E7CFE8FFAE
:1053E00011EC2BF0E8CF0AF000010FC0E1FF10C074
:1053F000E2FF0AC0E7FF1200060E116212EF2AF068
:10540000E7CF0AF00FC0DBF010C0DCF00001CC0EDB
:105410000F6E850E106E0AC0E8FF37EC29F095EC90
:105420002CF01200070E116219EF2AF066EC29F039
:105430001200080E11622AEF2AF0E7CFE8FF0BEC0A
:105440002BF0E8CF0AF000010FC0E1FF10C0E2FF2F
:105450000AC0E7FF0A0E11624BEF2AF0E7CFE8FF20
:105460000001DB15D890D8B4D880BCEC2AF000013C
:10547000DBC00AF000010FC0E1FF10C0E2FFD8B0AE
:1054800046EF2AF00AC0E8FFE71212000AC0E8FF60
:10549000E81EE71612000B0E116255EF2AF0200EDF
:1054A000E8CF40F16BEC2BF012000C0E116272EFA2
:1054B0002AF0E6CF0AF0E5CF0BF000010AC011F0A8
:1054C0000BC012F049EC2CF000010FC0E1FF10C03E
:1054D000E2FF11C00AF012C00BF00AC0E6FF0BC0D9
:1054E000E5FF120012000B6AD8B00B1EC00E28ECAC
:1054F0000EF0000EF86E6E0EF76EDE0EF66ED5EC48
:105500000EF00BA098EF2AF0C80E28EC0EF0280E33
:1055100019EC0EF0CC0E28EC0EF0290E19EC0EF062
:10552000CF0E28EC0EF0200E19EC0EF0AAEF2AF0A8
:10553000C80E28EC0EF0200E19EC0EF0CC0E28EC64
:105540000EF0280E19EC0EF0CF0E28EC0EF0290EFE
:1055500019EC0EF028EC2DF0D8B40B6AFF0ED8B081
:105560000B6E39EC28F037EC21F0D8A081EF2AF04F
:10557000D8900BB0D88012000B6AD8B00B1EC80EA2
:1055800028EC0EF0000EF86E6F0EF76E1C0EF66E25
:10559000D5EC0EF00BA0E1EF2AF0C80E28EC0EF0CF
:1055A000280E19EC0EF0CC0E28EC0EF0290E19EC9A
:1055B0000EF0CF0E28EC0EF0200E19EC0EF0F3EFEB
:1055C0002AF0C80E28EC0EF0200E19EC0EF0CC0ECE
:1055D00028EC0EF0280E19EC0EF0CF0E28EC0EF091
:1055E000290E19EC0EF028EC2DF0D8B40B6AFF0E42
:1055F000D8B00B6E39EC28F037EC21F0D8A0CAEF08
:105600002AF0D8900BB0D88012000001C865C851AC
:10561000C661C65112000001F5690001AA6F15EFBD
:105620002BF00001AA6F0001F56B960E0FEC0CF049
:10563000AAC0E8FF0001136E146A156A166A58ECD6
:105640000FF00001F56733EF2BF0CD0E28EC0EF0D4
:10565000275019EC0EF0285019EC0EF0295019ECD7
:105660000EF042EF2BF0CC0E28EC0EF0275019EC88
:105670000EF0285019EC0EF02E0E19EC0EF02950F9
:1056800019EC0EF04EEC2DF00001D8A453EF2BF0E6
:10569000AA2BC8C0E8FFAA61AA6FAA6760EF2BF027
:1056A000AA6F60EF2BF0D8A060EF2BF0AAC0E8FF44
:1056B000C66160EF2BF0AA07C6C0E8FFAA65AA6F13
:1056C00039EC28F037EC21F0D8A015EF2BF00001D1
:1056D000AAC0E8FF120069EC28F0FDC0E8FF7F08CF
:1056E000E8BEE86AE846E8660FEC0CF0E7CFE8FFB2
:1056F000E7BEE81EE7BEE82A0001136E146A156AC9
:10570000166A58EC0FF0CB0E28EC0EF0200EE7BE18
:105710002D0E19EC0EF0275019EC0EF0285019EC54
:105720000EF0295019EC0EF040C1E8FF19EC0EF014
:105730004EEC2DF00001D8A4A1EF2BF0E72AA5EF45
:105740002BF0D8A0A5EF2BF0E70639EC28F037ECCA
:1057500021F0D8A06BEF2BF00001FC6B12000001D0
:105760001150C85D1250C959D8B0BCEF2BF0C851C8
:10577000116EC951126E1200C651115CC7511258F8
:10578000D8B0C7EF2BF0C651116EC751126E120080
:10579000AFEC2BF00001CB6B0001C551E812D8B47F
:1057A000DAEF2BF0C551E16E000EE26E11C0E6FF9C
:1057B00012C0E7FFFDC0E8FF7F08E8BEE86AE846E0
:1057C000E8660FEC0CF011C013F012C014F0D89082
:1057D00014321332156A166A58EC0FF0C90E28EC11
:1057E0000EF0265019EC0EF02E0E19EC0EF027508C
:1057F00019EC0EF0285019EC0EF0295019EC0EF0AF
:105800006D0E19EC0EF0530E19EC0EF04EEC2DF05F
:105810000001D8A41BEF2CF0112AD8B4122A112AA7
:10582000D8B4122AC9511262C8EF2BF0C8511160C6
:10583000116EC8EF2BF0D8A02DEF2CF01106D8A0D8
:1058400012061106D8A01206C7511262C8EF2BF03B
:10585000C6511164116EC8EF2BF0000133A2CB6961
:1058600033BC38EF2CF00001A00E116E0F0E126E3B
:10587000000133BE41EF2CF00001D00E116E070E77
:10588000126E39EC28F037EC21F0D8A0CCEF2BF0D9
:105890001200FDC0E8FF7F08E8BEE86AE846E86657
:1058A0000FEC0CF011C013F012C014F0156A166A58
:1058B00058EC0FF0CB0E28EC0EF0255019EC0EF042
:1058C000265019EC0EF0275019EC0EF0285019EC68
:1058D0000EF0295019EC0EF04EEC2DF00001D8A47A
:1058E0007EEF2CF0112AD8B4122AC951126249EF66
:1058F0002CF0C8511160116E49EF2CF0D8A08DEF3B
:105900002CF01106D8A01206C751126249EF2CF0F4
:10591000C6511164116E49EF2CF039EC28F037ECC8
:1059200021F0D8A049EF2CF01200C00E28EC0EF0A8
:105930000FC0F6FF10C0F7FFD5EC0EF0FA0E0FEC1B
:105940000CF04EEC2DF0D8A4ACEF2CF0110E0F267D
:10595000D8B0102AB3EF2CF0D8A0C0EF2CF0130E63
:105960000F26D8B0102A0FC0F6FF10C0F7FFF86A54
:105970000900F5CF0FF00900F5CF10F095EF2CF0EE
:1059800039EC28F037EC21F0D8A095EF2CF0150E6B
:105990000F26D8B0102A0FC0F6FF10C0F7FFF86A24
:1059A0000900F5CF0AF00900F550DBC0E1FFDCC0CB
:1059B000E2FF0AC0E7FF12000F0BE8B6080B0C0D60
:1059C000F3CF13F0F4CF14F00001840E13267B0EF6
:1059D0001422CC0E28EC0EF013C0F6FF14C0F7FF13
:1059E000D5EC0EF0FA0E0FEC0CF04EEC2DF0D8A426
:1059F00000EF2DF0050E1326D8B0142A07EF2DF076
:105A0000D8A014EF2DF0070E1326D8B0142A13C017
:105A1000F6FF14C0F7FFF86A0900F5CF13F009008C
:105A2000F5CF14F0E9EF2CF039EC28F037EC21F049
:105A3000D8A0E9EF2CF0090E1326D8B0142A13C011
:105A4000F6FF14C0F7FFF86A0900F5CFE8FF12006F
:105A5000040EFAEC08F0040EFAEC08F0D2C0E8FFED
:105A6000C35ED3C0E8FFC45AC4BE41EF2DF0640E3C
:105A7000C35E000EC45AC4BE4BEF2DF0D884D8903C
:105A80001200640EC326000EC422C4AE4BEF2DF0EC
:105A9000D894D8801200D894D8901200050EFAEC51
:105AA00008F0050EFAEC08F0D4C0E8FFC35ED5C0DC
:105AB000E8FFC45AC4BE6BEF2DF0640EC35E000E47
:105AC000C45AC4BE7BEF2DF0C466C368C3CFFDF0DB
:105AD000D884D8901200640EC326000EC422C4AE2F
:105AE0007BEF2DF0C31EC41EC466C368C3CFFDF098
:105AF000D894D8801200D894D890120086EF2EF057
:105B0000800E28EC0EF0000EF86E700EF76EAC0EE4
:105B1000F66ED5EC0EF00CEF2FF00101C40E1E6FE7
:105B2000700E1F6F0101220E206F730E216F16EC95
:105B30002EF05DEC21F000C2E8FFEEEC21F01BEC52
:105B400022F012000101DC0E1E6F700E1F6F0101AA
:105B5000140E206F740E216F16EC2EF099EF2DF0BD
:105B60000101F40E1E6F700E1F6F0101FE0E206FFB
:105B7000750E216F16EC2EF099EF2DF001010C0E31
:105B80001E6F710E1F6F0101F00E206F7B0E216FD3
:105B900016EC2EF099EF2DF00101240E1E6F710E00
:105BA0001F6F01013A0E206F830E216F16EC2EF04D
:105BB00099EF2DF00001EA6B01013C0E1E6F710E92
:105BC0001F6F0101440E206F890E216F16EC2EF01D
:105BD00099EF2DF00101540E1E6F710E1F6F010120
:105BE0008C0E206F8D0E216F16EC2EF099EF2DF09C
:105BF00001016C0E1E6F710E1F6F0101060E206FEA
:105C0000910E216F16EC2EF099EF2DF030EF36F05B
:105C100001019C0E1E6F710E1F6F0101E40E206FBB
:105C2000970E216F16EC2EF099EF2DF062EC28F014
:105C300020C10DF021C10EF09BEC28F00DC020F129
:105C40000EC021F1F7C026F1F8C027F10001115074
:105C5000090AD8A478EF2EF00FC00DF010C00EF096
:105C60009BEC28F00DC022F10EC023F1F7C028F103
:105C7000F8C029F100011150090AD8A460EF2EF0F4
:105C80000FC00DF010C00EF09BEC28F00DC024F1F9
:105C90000EC025F1F7C02AF1F8C02BF172EC29F003
:105CA0000001DAB166EF2EF02AC10FF02BC110F01F
:105CB00066EC29F024C10DF025C10EF044EF2EF062
:105CC00072EC29F00001DAB17DEF2EF028C10FF05F
:105CD00029C110F066EC29F020C10DF021C10EF0B1
:105CE000B4EC0EF022C10DF023C10EF030EF2EF017
:105CF00072EC29F00001DAB1120026C10FF027C1C1
:105D000010F066EC29F016EF2EF0120080C51EF49C
:105D100081C51FF482C520F483C521F484C522F413
:105D200085C523F486C524F487C525F400C2E8FFA1
:105D3000EEEC21F000C2E8FF6EEC21F0800E28ECC2
:105D40000EF0000EF86E6E0EF76EA80EF66ED5EC25
:105D50000EF08D0E28EC0EF0020100510001136EC2
:105D6000146A156A166A26EC0FF01CEC06F0FDC0EA
:105D7000E8FF7F08E8BEE86AE846E8660FEC0CF04A
:105D80004EEC2DF0D8A4CFEF2EF0610E0201002BC7
:105D900000639AEF2EF0010E006F9AEF2EF0D8A05C
:105DA000DDEF2EF002010007000E00639AEF2EF0E7
:105DB000600E0201006F9AEF2EF037EC21F0D8A0B0
:105DC000C0EF2EF000C2E8FFC3EC21F01EC480F546
:105DD0001FC481F520C482F521C483F522C484F553
:105DE00023C485F524C486F525C487F50001800EFB
:105DF0000D6E050E0E6E080EE8CF0AF00001800E43
:105E00000D6E050E0E6E6DEC0CF000C2E8FFE8CFD3
:105E1000B2F05DEC21F01200C00E28EC0EF01CEC8C
:105E200006F0000EE16E030EE26E960E0FEC0CF023
:105E3000C00EE12428EC0EF0E75019EC0EF0C00E75
:105E4000E12428EC0EF00E0E28EC0EF028EC2DF0DC
:105E5000D8A434EF2FF0E12A0F0EE16415EF2FF0F4
:105E6000000EE16E15EF2FF0D8A040EF2FF0E10605
:105E7000FF0EE16215EF2FF00F0EE16E15EF2FF020
