:020000040000FA
:040200006BEF03F0AD
:020204000000F8
:040208000EEF01F004
:080218002DEF01F0D8CF01F039
:10022000E0CF02F0006EF3CF03F0F4CF04F0F0ACB7
:100230001DEF01F0F0B059EC0DF0A2A023EF01F09A
:10024000A1B0E5EC0AF003C0F3FF04C0F4FF0050D6
:1002500002C0E0FF01C0D8FF1000D8CF06F0E8CF01
:1002600005F0E0CF07F0F3CF08F0F4CF09F0F0BCD1
:100270003DEF01F0F0B059EC0DF0A2B043EF01F00A
:10028000A1B0E5EC0AF0A2B04CEF01F0AECFE8FF70
:100290006ECFE8FF52EF01F09EBA73EC12F0A4BAF1
:1002A000DEEC12F008C0F3FF09C0F4FF07C0E0FF66
:0A02B00005C0E8FF06C0D8FF1000EB
:10030000F95000011150F9262DEF34F02FEF34F0A1
:100310003CEF34F051EF34F05FEF34F06DEF34F038
:100320007BEF34F089EF34F099EF34F0A7EF34F03D
:10033000A9EF34F0B7EF34F01200E8B81200E8BAD1
:100340001200E8BC1200E8BE12000F0BD8A4AFEFF9
:1003500001F00001000E0F6E000E106E1200E80694
:10036000030B0A0DF9CFE8FFF350F92685C00FF013
:1003700086C010F0120087C00FF088C010F0120085
:1003800089C00FF08AC010F012008BC00FF08CC033
:0403900010F0120057
:10040000EFCFE8FFE806070B0A0DF9CFE8FFF3503E
:10041000F9263EC050F03FC051F012003CC050F0F1
:100420003DC051F0120040C050F041C051F01200E8
:1004300042C050F043C051F0120044C050F045C0DB
:1004400051F0120046C050F047C051F0120048C0B1
:1004500050F049C051F012004AC050F04BC051F06A
:1004600012000F0B060DF9CFE8FFF350F926BBC2BF
:10047000E8FF1200BCC2E8FF1200BDC2E8FF120094
:10048000BEC2E8FF1200BFC2E8FF1200C0C2E8FF10
:100490001200C1C2E8FF1200C2C2E8FF1200C3C2CC
:1004A000E8FF1200C4C2E8FF1200C5C2E8FF120054
:1004B000C6C2E8FF1200C7C2E8FF1200C8C2E8FFC8
:0E04C0001200C9C2E8FF1200CAC2E8FF120013
:100500000001E806070B0A0DF9CFE8FFF350F926C2
:1005100093510D6E94510E6E120095510D6E9651C1
:100520000E6E120097510D6E98510E6E1200995179
:100530000D6E9A510E6E12009B510D6E9C510E6EF7
:1005400012009D510D6E9E510E6E12009F510D6E48
:10055000A0510E6E1200A1510D6EA2510E6E12002E
:100600000001E8BE33EF03F0E806070B0A0DF9CF4F
:10061000E8FFF350F9260D5075270E50762312008F
:100620000D5077270E50782312000D5079270E5069
:100630007A2312000D507B270E507C2312000D50A0
:100640007D270E507E2312000D507F270E508023F1
:1006500012000D5081270E50822312000D50832767
:100660000E5084231200E806070B0A0DF9CFE8FFAD
:10067000F350F9260D50756F0E50766F12000D5025
:10068000776F0E50786F12000D50796F0E507A6FA1
:1006900012000D507B6F0E507C6F12000D507D6F5D
:1006A0000E507E6F12000D507F6F0E50806F120043
:1006B0000D50816F0E50826F12000D50836F0E50DF
:0406C000846F120031
:0C06C400F2AE12000001010EA76FA76744
:1006D00067EF03F012009BEC0DF0928802C5E8FF73
:1006E000E81EE86676EF03F092988098939C819CD0
:1006F00000015D6A5E6AA3EC09F00001566A640EAF
:1007000090EC0DF0280EE8CFD4F20001500E386EB8
:10071000C30E396E83CFE8FF0001306E316E326E4A
:10072000E81EF96F84CFE8FFE89484B4E884000100
:10073000336E346E356EE81EFA6F0F019990878024
:1007400094969394829681940001000E176E000E89
:10075000186E000E196E000E1A6E0001000E1B6E50
:10076000000E1C6E000E1D6E000E1E6E0001000EAF
:10077000136E000E146E000E156E000E166E000144
:10078000000EB16F000EB26F0001000EB36F000ECD
:10079000B46F0001000EB56F000EB66F0001000EC1
:1007A000B76F000EB86F0101000E5D6F000E5E6F37
:1007B00002010F0EDC6F000EDD6F0001606B616BDC
:1007C000626BA76BA86BA96BED69EF6BF06BFB6BB2
:1007D000FE6BE86AE8CFDBF2E8CFD2F0E8CF11F1A8
:1007E000E8CFBAF2E8CF60F1E8CFF6F0000EF86E8D
:1007F000850EF76E6E0EF66E0900F5CF58F1090002
:100800000900F5CF59F10900F5CF5AF169EC3FF035
:10081000020100510001AB6F040EC8EC09F0040E98
:10082000C8EC09F00001C350CB6FC450CC6F050E6B
:10083000C8EC09F0050EC8EC09F00001C350CD6FFB
:10084000C450CE6F030EC8EC09F06BC06DF16CC0E4
:100850006EF153EC0FF0FA0E90EC0DF0FA0E90ECF6
:100860000DF0FA0E90EC0DF0FA0E90EC0DF095EC08
:100870000AF047EC2EF0FFEC11F013EC12F0ACECA8
:100880003FF0F28EF28CD08E0F01D89083B6D880D4
:10089000D8B050EF04F00A0E90EC0DF00F01D89094
:1008A00083B6D880D8B079EF04F00F01D89084B225
:1008B000D880D8B061EF04F00A0E90EC0DF00F0173
:1008C000D89084B2D880D8B079EF04F00F01D890D6
:1008D00084B2D880D8A066EF04F00A0E90EC0DF038
:1008E0000F01D89084B2D880D8A066EF04F09BEFB7
:1008F00004F0A2EC25F00201A50EA76386EF04F038
:10090000E70EA86386EF04F08AEF04F069EC3FF08D
:100910000EEC0EF000C2E8FF2DEC26F00301AD5105
:100920000201A56FE4EC0CF05EEC0CF00101F20E9C
:10093000066F9CEC0CF0809802C5E8FFE8668078B2
:10094000D2C2E8FFE866AAEF04F0808802C5E8FF9B
:10095000E866807892989FEC11F01E0EE8CF15F0B3
:10096000840EE8CF14F0800EE8CF13F0D4C217F055
:10097000E86AE8CF18F056EC15F0D5C2E8FF0001A0
:100980001326E86A142213C038F014C039F0040E9C
:10099000C8EC09F0040EC8EC09F00001C350CB6F9D
:1009A000C450CC6F050EC8EC09F0050EC8EC09F078
:1009B0000001C350CD6FC450CE6F0F01D89084B4E6
:1009C000D880D8B0E9EF04F00A0E90EC0DF00F01DA
:1009D000D89084B4D880D8B0FFEF04F00F01D8903D
:1009E00083B6D880D8B0FAEF04F00A0E90EC0DF080
:1009F0000F01D89083B6D880D8A019EF08F0E86A24
:100A0000E8CFDBF20F01D89084B4D880D8B00EEFD5
:100A100005F00A0E90EC0DF00F01D89084B4D88048
:100A20000101D8A05D810F01D89084B2D880D8B0E0
:100A30001FEF05F00A0E90EC0DF00F01D89084B274
:100A4000D8800101D8A05D830201A0C20AF0020192
:100A5000FF0E0AB0A56FA56191EF05F00301A6A1F5
:100A600071EF05F00F0183BE71EF05F0800E2EECE3
:100A700010F0000EF86E860EF76E300EF66EBFECBC
:100A800010F0C00E2EEC10F0000EF86E850EF76E12
:100A9000D00EF66EBFEC10F00F01D89084B4D88061
:100AA000D8B058EF05F00A0E90EC0DF00F01D89079
:100AB00084B4D880D8B04CEF05F00F01D89084B43E
:100AC000D880D8A05DEF05F00A0E90EC0DF00F0174
:100AD000D89084B4D880D8A05DEF05F0C80E90EC13
:100AE0000DF00201D1B178EF05F0D1A391EF05F03F
:100AF000800E0001A36F0AEC3EF0D890EBEC30F0D2
:100B0000D8B088EF05F00201FF0EA56F91EF05F058
:100B1000E4EC0CF05EEC0CF09CEC0CF00A0E90ECAB
:100B20000DF00001010E366EA3C254F0A4C255F0C0
:100B30000401495100014F6E13EC2BF085EC26F0B7
:100B4000C00EE8CF90F0E8CF92F0E8CFFDF0979E8E
:100B5000FCAEAEEF05F00F0193948194000133B029
:100B6000CEEF05F0010E366246EF06F00001050EED
:100B7000E8CF5FF0070E22EC0CF0020E366E00019B
:100B8000AB5102010063C7EF05F046EF06F0006FBE
:100B90002DEC26F085EC26F046EF06F0010E366EC1
:100BA000B3EC2AF05FEC1DF0CDEC1FF0DFEC07F0AA
:100BB0000201A1A101EF06F00301B65129EC2CF0CE
:100BC000D8A001EF06F00201B767F9EF05F0B1C058
:100BD00075F0B2C076F0B3C077F0B4C078F0B5C0AD
:100BE00079F0B6C07AF0B7C07BF0B8C07CF001EF06
:100BF00006F0F08CF086A290E868E8CFF5F007EFF9
:100C000006F0F09CF086A280E86AE8CFF5F00201D9
:100C1000A0B134EF06F091EC1CF0D8B434EF06F03C
:100C200060EC1FF0F3EC1EF01BEC22F073EC23F0F1
:100C3000BEEC1FF09CEC20F07DEC2CF0DAEC28F000
:100C40001EEC27F0E2EC28F018EC29F0BFEC22F0C3
:100C500092EC21F0C4EC3FF00001EF6727EC14F0B8
:100C60000001F06727EC14F062EC03F059EC24F07B
:100C700087EC13F0B8EC11F00001A86744EF06F020
:100C80000A0EA86F9FEC06F0A7EF05F0800E2EEC81
:100C900010F0000EF86E870EF76ECE0EF66EBFECFB
:100CA00010F0C00E2EEC10F0000EF86E850EF76EF0
:100CB000D00EF66EBFEC10F00D0EC8EC09F06BC054
:100CC0005BF16CC05CF190EC25F0D8A06AEF06F007
:100CD000C5EC2EF05FEC1DF0CDEC1FF060EC1FF0CA
:100CE000F3EC1EF01BEC22F073EC23F0BEEC1FF0D3
:100CF0009CEC20F07DEC2CF0DAEC28F01EEC27F0D8
:100D0000E2EC28F018EC29F0BFEC22F092EC21F094
:100D100059EC24F0B8EC11F0A7EF05F00001100E2B
:100D20000B6EC00E2EEC10F0000EE16E030EE26EA4
:100D3000E6501FEC10F00B2E98EF06F012000001A9
:100D400033B2A9EF06F035A2A9EF06F03592020101
:100D5000DB1F5DC1E8FFE8B09BEF1BF0E8B24EEF90
:100D60001CF04AC1E8FFE86637EF41F00001840E4D
:100D70002EEC10F0200E1FEC10F00201520EA5BF59
:100D8000200E00011FEC10F00601CE5129EC2CF0D2
:100D9000410ED8A0200E1FEC10F00301B25129EC37
:100DA0002CF04D0ED8A02D0E1FEC10F00301B35106
:100DB00029EC2CF04D0ED8A02D0E1FEC10F00301E5
:100DC000B45129EC2CF04D0ED8A02D0E1FEC10F0D4
:100DD000200E1FEC10F0E6EC08F00301B65129ECF0
:100DE0002CF0D8A010EF07F0A1C2E8FFE81EE866DB
:100DF00007EF07F0800E2EEC10F0000EF86E860E56
:100E0000F76E060EF66EBFEC10F010EF07F0800ED6
:100E10002EEC10F000C513F001C514F02CEC11F00D
:100E20000201B8AF29EF07F0B86B000EE8CF0DF064
:100E3000E86AE8CF0EF000C5E8FFCAEC0DF0010E3D
:100E4000E8CF0DF0E86AE8CF0EF001C5E8FFCAEC84
:100E50000DF008EC08F0D8B055EF07F062EC09F09F
:100E6000D8B055EF07F04CEC2EF0D8B055EF07F0A6
:100E700047EC2BF00001A951E812D8A455EF07F078
:100E80000201A0A151EF07F0C00E2EEC10F0000EF1
:100E9000F86E850EF76EEA0EF66EBFEC10F055EFA9
:100EA00007F08EEC06F0E7EC2DF090EC25F0D8A0E2
:100EB0006DEF07F099EC2DF0D8B06DEF07F0000161
:100EC00056666CEF07F0562ABEC35AF0BFC35BF0FC
:100ED000D06BD16B6DEF07F05606000156A0A0EF66
:100EE00007F05B66A0EF07F03B0E5C627FEF07F058
:100EF000050E5F6E0A0E22EC0CF0A0EF07F01E0E3E
:100F00005C628AEF07F0030E5F6E0A0E22EC0CF0B3
:100F1000A0EF07F00A0E5C6295EF07F0010E5F6E1E
:100F20000A0E22EC0CF0A0EF07F0060E5C60A0EFBA
:100F300007F0010E5F6E0A0E22EC0CF0A0EF07F036
:100F40007F0E5C6E5850D46F5950D56F010E5662AB
:100F5000C9EF07F05A505B10D8B4B8EF07F05A50F9
:100F6000D46F5B50D56F000E0301BD63C9EF07F06E
:100F7000020E0301BD5DD8B4C5EF07F00001D051EA
:100F8000D46FD151D56FC9EF07F0E86A0001D46F73
:100F9000D56F00018B0E2EEC10F0D551E8CF13F079
:100FA000146A156A166A24EC11F03A0E1FEC10F060
:100FB000D4C0E8FFE8CF13F024EC11F012000301D5
:100FC000C05129EC2CF0D8A005EF08F00301000E69
:100FD000C16502EF08F000017CBF05EF08F00301D6
:100FE000C15100010D6E0E6A00010A0E0F6E000E57
:100FF000106E52EC14F07B51135E7C511458D8B033
:1010000005EF08F00001ED6912000001ED6B120020
:10101000D8900001D2AF1200C00E2EEC10F0000EDE
:10102000F86E860EF76E9C0EF66EBFEC10F0D88050
:1010300012000F01D89084B4D880D8A019EF08F01E
:101040000A0E90EC0DF00F01D89084B4D880D8A08F
:1010500019EF08F00F01D89083B6D880D8A02AEFF6
:1010600008F00A0E90EC0DF00F01D89083B6D880EE
:10107000D8A02AEF08F0800E2EEC10F00F0183505C
:10108000CFEC10F00F018450CFEC10F0C00E2EEC1E
:1010900010F00F018650CFEC10F00F018150CFEC13
:1010A00010F00F01835082868184E8B08296E8B206
:1010B00081948098E8B48088320E90EC0DF00F0196
:1010C000D89084B4D880D8B06BEF08F00A0E90ECBA
:1010D0000DF00F01D89084B4D880D8B03BEF08F061
:1010E0000F01D89084B4D880D8A070EF08F00A0E11
:1010F00090EC0DF00F01D89084B4D880D8A070EF98
:1011000008F0C00E2EEC10F0000EF86E850EF76E93
:10111000400EF66EBFEC10F00001116A800E2EEC4E
:1011200010F0000EF86E850EF76E760EF66EBFECC0
:1011300010F0870E2EEC10F000011150DCEC10F0D6
:10114000C8EC09F0F8C0E8FFE866ADEF08F0D89009
:10115000C432C332D890C432C3328C0E2EEC10F09D
:10116000C3CF13F0C4CF14F00001156A166A1CEC4B
:1011700011F0320E90EC0DF00F01D89084B4D880AD
:10118000D8B0C8EF08F00A0E90EC0DF00F01D8901F
:1011900084B4D880D8B08EEF08F00F01D89084B412
:1011A000D880D8A0CDEF08F00A0E90EC0DF00F011A
:1011B000D89084B4D880D8A0CDEF08F00001112ACF
:1011C0000C0E11648EEF08F03BEF08F0800E2EEC51
:1011D00010F0B9C20DF0BAC20EF00E6A0001640E32
:1011E0000F6E000E106E52EC14F013C011F014C00C
:1011F00012F033EC09F013C20FF014C210F052ECED
:1012000014F01450E8CF13F01550E8CF14F0156A1D
:10121000010111B11CEF09F000011150135C1250D3
:101220001458E8AE1CEF09F0C90E00015F6E050E00
:1012300022EC0CF001011169000156EC11F0200EB6
:10124000E8CF0AF0300E25640AC025F025501FECC7
:1012500010F026501FEC10F02E0E1FEC10F027504F
:101260001FEC10F012006DC10DF06EC10EF0000108
:10127000300E0F6E000E106E52EC14F0010113C010
:10128000E8FF6C5F14C0E8FF6D5B15C0E8FF6E5BA4
:101290008DC00DF08EC00EF00001300E0F6E000EEE
:1012A000106E52EC14F0010113C0E8FF6C2714C05B
:1012B000E8FF6D2315C0E8FF6E236DC10DF06EC110
:1012C0000EF012000D0EC8EC09F00D0EC8EC09F07E
:1012D0006BC00DF06CC00EF0A9C20FF0AAC210F0E6
:1012E00052EC14F000011450136E1550146E165089
:1012F000156E166A56EC11F00001255026100F0BE2
:10130000D890D8B41200C00E2EEC10F0000EF86E7B
:10131000860EF76E8A0EF66EBFEC10F0CB0E2EEC3A
:1013200010F0000125501FEC10F026501FEC10F0BB
:101330002E0E1FEC10F027501FEC10F028501FEC61
:1013400010F0D8801200E86AE8CFF8F03F0EF86E8F
:10135000FF0EF76EFF0EF66E0800F5504A0AFF0EFC
:10136000D8B4E8CFF8F012000101616B626B636BD7
:101370000A6E0B6A0A50C8EC09F00101C3506127DC
:10138000C4506223D8B0632B0B2EBAEF09F01200C1
:101390000A6E31EC02F0E8A8D6EF09F00DEC0AF085
:1013A000D8B00DEC0AF00AC0E8FF1200DBEC09F03F
:1013B0000AC0E8FF1200C16AE8AEC188E89EE844AE
:1013C000E844C26EA10EC06E040EE8CF0CF000011E
:1013D000000E6B6F000E6C6FC280000000000000FA
:1013E000C282C2B2F1EF09F00001C3506B27C450B2
:1013F0006C2300010C06F0E1F8C0E8FFE81EE86687
:1014000008EF0AF0D8906C336B33D8906C336B33A1
:101410006BC0C3FF6CC0C4FF12000DC064F10EC0EE
:1014200065F10FC066F110C067F113C068F114C018
:1014300069F115C06AF116C06BF1030E31EC02F0D0
:10144000DBEC09F06BC017F06CC018F00AC0E8FFC5
:1014500031EC02F0E898DBEC09F06BC00DF06CC0E9
:101460000EF0030E31EC02F0DBEC09F0000117C0C6
:10147000E8FF6B5F18C0E8FF6C5B6CAF45EF0AF0EC
:101480006B1F6C1F6B2BD8B46C2B6C51D8A472EFF4
:101490000AF06B510201DC5DD8A072EF0AF0000186
:1014A000000E0F6E080E106E52EC14F056EC15F094
:1014B00013C06BF014C06CF06BC0C3FF6CC0C4FFF2
:1014C00064C10DF065C10EF066C10FF067C110F088
:1014D00068C113F069C114F06AC115F06BC116F050
:1014E000D89012000001000E0F6E080E106E52EC24
:1014F00014F056EC15F013C06BF014C06CF06BC018
:10150000C3FF6CC0C4FF64C10DF065C10EF066C1BD
:101510000FF067C110F068C113F069C114F06AC11F
:1015200015F06BC116F0D880120000014E6A586A9F
:10153000596AD4C2E8FFE8CF57F00001900E546E0C
:10154000010E556E0001900E506E010E516E526AE2
:10155000536A100E0001E8CF4FF03A6A3C6A3E6AC7
:10156000406A426A446A466A486A4A6A4C6A080E95
:10157000E8CF3BF0E8CF3DF0E8CF3FF0E8CF41F0D7
:10158000E8CF43F0E8CF45F0E8CF47F0E8CF49F0A7
:10159000E8CF4BF0E8CF4DF0858E000154500F019D
:1015A000E8CFBBFF000155500F01E8CFBCFF0A0E8A
:1015B0000F01E8CFBAFF0F01A0800F019E900F012D
:1015C000080EE8CFB1FFB18012000001F5A1857EC1
:1015D0000201BAAFEFEF0AF08770F7EF0AF00001EF
:1015E000EBB1F6EF0AF08780F7EF0AF08790000181
:1015F000BBCFE8FF5026BCCFE8FF512250C0E8FF28
:10160000E8CFBBFF51C0E8FFE8CFBCFF0001E86AAC
:101610004E6470EC0BF000014E2A4EC0E8FFFE0B4A
:101620004F6026EF0BF04E6A38C0E8FFE8CF50F06D
:1016300052C0E8FF505E39C0E8FFE8CF51F053C018
:10164000E8FF515A526A536A6DEF0BF04EA03BEF20
:101650000BF054C0E8FFE8CF50F055C0E8FFE8CFEA
:1016600051F0BAC2E8FF0001EB814E6267EF0BF068
:10167000EB9167EF0BF0120E4E6253EF0BF052C07E
:10168000E8FFE8CF50F053C0E8FFE8CF51F0513207
:1016900050325132503251325032513250320F0E9C
:1016A000511667EF0BF0040EE8CFEAFF000EE8CF0B
:1016B000E9FF4EC0E8FFE830E89EE804E92600ECC8
:1016C00002F054C0E8FF505E55C0E8FF515A50C0C8
:1016D000E8FF522651C0E8FF53220F01A1901200EB
:1016E000EDEC11F0F7EC11F00001010E36627FEF26
:1016F0000BF000018286C3B18296FF0EC36F030117
:10170000CDBF88EF0BF00001F5A1859E8BEF0BF0AC
:101710000001F5A1858E0201BAAF96EF0BF0BAB1C8
:1017200095EF0BF0879096EF0BF087800001572E16
:10173000DDEF0BF04AEC2EF0000156A0CCEF0BF0E1
:101740000001FF0EED63CCEF0BF05AC0E8FF5B1019
:10175000D8B4C4EF0BF05A66B1EF0BF03C0E5A6EE2
:101760005B065A065A505C6E0301E86ABD11D8B494
:10177000C4EF0BF000015A505B10D8B4C4EF0BF06B
:10178000D06BD16BCCEF0BF00001D02B3C0ED063B3
:10179000CCEF0BF0D06BD12BD4C2E8FFE8CF57F0E1
:1017A000582A3C0E5862DDEF0BF0586A592A0501A1
:1017B000002BD8B4012B0201B8690201A1A1E6EF08
:1017C0000BF0530E2CEC12F00001AE6B83CFE8FF50
:1017D0000001311AD8A4306E316E30C0E8FF3212E9
:1017E000E81EF91332C0E8FFF91784CFE8FFE89448
:1017F00084B4E8840001341AD8A4336E346E33C044
:10180000E8FF3512E81EFA1335C0E8FFFA170001A9
:10181000606760076167610762676207A767A7077C
:10182000A867A807A967A9075E6618EF0CF0120061
:101830005E2E120080785F4E12005DC0E8FFE8CF98
:101840005EF01200E8CF5DF0E8CF5EF0D2C2E8FFB4
:10185000E86631EF0CF0809802C5E8FFE866807812
:101860001200808802C5E8FFE86680781200000157
:101870000ABE3EEF0CF0819E3FEF0CF0818E828A13
:10188000829A0A460B2E37EF0CF012000201AD517E
:101890000A6E080E0B6E37EC0CF00201AC510A6EAA
:1018A000080E0B6E37EC0CF00201AB510A6E080EFD
:1018B0000B6E37EC0CF08686869612000BC113F087
:1018C0000CC114F00DC115F009C117F00AC118F0D0
:1018D00056EC15F00201A55101010F03F350000170
:1018E0001326F4CFE8FF1422D8B0152A0101006BAB
:1018F000016B026B00011350E846E846E880E8926D
:101900001F0B13B6E88E0101006F00011336143669
:101910001536133614361536133614361536133677
:101920001436153614500101016F000115501F0BBC
:1019300001011009026F12005EEC0CF00101085168
:101940000A6E080E0B6E37EC0CF0010107510A6E9F
:10195000080E0B6E37EC0CF0010106510A6E080EF2
:101960000B6E37EC0CF086868696010105510A6EE7
:10197000080E0B6E37EC0CF0010104510A6E080ED4
:101980000B6E37EC0CF0010103510A6E080E0B6E62
:1019900037EC0CF086868696010102510A6E080E1D
:1019A0000B6E37EC0CF0010101510A6E080E0B6E44
:1019B00037EC0CF0010100510A6E080E0B6E37EC8B
:1019C0000CF08686869612000F01939E949A939C43
:1019D000819C819E829A989686960201010ED1631F
:1019E00011EF0DF004C206F105C207F106C208F1BD
:1019F00001C203F102C204F103C205F10101700E3C
:101A00000B6FC60E0C6F000E0D6F0101140E096FE7
:101A1000000E0A6F01010E6B0A0E106F010E0F6FA0
:101A20001200020ED16334EF0DF00AC206F10BC2B0
:101A300007F10CC208F107C203F108C204F109C2A0
:101A400005F101016C0E0B6FCF0E0C6F000E0D6FC8
:101A50000101140E096F000E0A6F01010E6B080ED2
:101A6000106F050E0F6F1200030ED16358EF0DF0CB
:101A700010C206F111C207F112C208F10DC203F142
:101A80000EC204F10FC205F101014A0E0B6F190ECF
:101A90000C6F010E0D6F01010A0E096F000E0A6F27
:101AA00001010B0E0E6F320E106F020E0F6F12003F
:101AB000120087B277EF0DF0D5AE69EF0DF0D6CFFB
:101AC000C7F0D7CFC8F00001C92BD8B4CA2BF0900B
:101AD00012000001C951CA11F090D8A41200E86A9E
:101AE000E8CFD7FFE8CFD6FFD58EF0901200F17A7D
:101AF000F0AC89EF0DF00301CDA185EF0DF0F1AA57
:101B0000858EF1BA859E89EF0DF0F1AA859EF1BA16
:101B1000858EF09012000000E82E8BEF0DF0120081
:101B20000A6EFA0E8BEC0DF0FA0E8BEC0DF00A2E0D
:101B300091EF0DF01200050EE26EE86AE16EE86AC0
:101B4000AA6EE86AA96EA69EA69CA680A850E66E1C
:101B5000A92AF9E112000EC0E8FFE26E0DC0E8FF0D
:101B6000E16EE86AAA6E0DC0E8FFA96EA69EA69C6B
:101B7000A680A850E66EA92A0A06F8E112000EC057
:101B8000E8FFAA6E0DC0E8FFA96EA69EA69CA680DF
:101B9000A8501200A198A86E0EC0E8FFAA6E0DC052
:101BA000E8FFA96EA69EA69CA684F29E550EA76E7F
:101BB000AA0EA76EA682F28EA1A8DCEF0DF0A19866
:101BC00012000FC0E8FFCAEC0DF000010D2AD8B4D6
:101BD0000E2A10C0E8FFCAEC0DF012000EC0E8FF9C
:101BE000E26E0DC0E8FFE16EE86AAA6E0DC0E8FF84
:101BF000A96EA198E650A86EA69EA69CA684F29E09
:101C0000550EA76EAA0EA76EA682F28EA1A806EFA9
:101C10000EF0A198A92A0A06EDE11200800E2EEC22
:101C200010F0000EF86E860EF76E420EF66EBFECE8
:101C300010F0FA0E90EC0DF0C00E2EEC10F0000E2D
:101C4000F86E850EF76EBE0EF66EBFEC10F034EC3B
:101C500031F0D8A01200C00E2EEC10F0000EF86E7D
:101C6000860EF76E540EF66EBFEC10F069EC3FF086
:101C7000C7EC25F00001600EA46F00C2E8FF58EC2D
:101C800026F00201002B0301072B3A0E07634CEFED
:101C90000EF0062B300E076F0001A42F3DEF0EF063
:101CA000A2EC25F000C2E8FF2DEC26F012000001A6
:101CB000030EBC19D8B461EF0EF0040EBC19D8A401
:101CC0001200600EE8CF0CF00001BA6BBB513F0B65
:101CD000880FB96F050EBA23BBC013F0BCC014F057
:101CE000156AC00E1316030E145E000E1326010EA5
:101CF0001422010E15220001880E0D6E050E0E6EC7
:101D0000400EE8CF0AF0A3EC0EF0010EE8CF0AF087
:101D1000BAEC0EF0BDC00AF000EC2BF00AC0BDF02A
:101D20000001880E0D6E050E0E6E010EE8CF0AF052
:101D3000D7EC0EF00001020E1426D8B4152A0C2E92
:101D40007BEF0EF0120000011550F86E1450F76E84
:101D50001350F66E00010E50E26E0D50E16E090058
:101D6000F550E66E0A060900F550E66E0A2EAFEF52
:101D70000EF0120000011550F86E1450F76E13505B
:101D8000F66EA68EA69CA684A688F29E550EA76E19
:101D9000AA0EA76EA6820000F28E0A4E1200000163
:101DA000400E1326000E14221522BAEF0EF062EC3C
:101DB00003F000011550F86E1450F76E1350F66ED4
:101DC000A68EA69CA684A688F29E550EA76EAA0E85
:101DD000A76EA682F28E0A0000010E50E26E0D5030
:101DE000E16E400E0B6EE6CFE8FFF56E0F000B2E96
:101DF000FAD7A68EA69CA684F29E550EA76EAA0EB2
:101E0000A76EA682F28EA6940A4E12000001400E22
:101E10001326000E142215220001400E0D26000E7E
:101E20000E22D7EF0EF000011550F86E1450F76E29
:101E30001350F66EA68EA69CA684A688F29E550E1A
:101E4000A76EAA0EA76EA6820000F28E0A00080EE8
:101E50000B6E00010E50E26E0D50E16E080E0C6E1E
:101E6000E6CFE8FFF56E0F000C2EFAD7A68EA69CE3
:101E7000A684F29E550EA76EAA0EA76EA68200003B
:101E8000F28E0B2EEBD7A6940001400E1326000E07
:101E9000142215220001400E0D26000E0E220A2EDD
:101EA00013EF0FF012000F019A6A886A9396939AC3
:101EB00093988186818A8188140E90EC0DF003C579
:101EC000E8FFE81EE866A4EF0FF0390E2EEC10F0E4
:101ED000050E90EC0DF0390E2EEC10F0010E90EC8A
:101EE0000DF0390E2EEC10F0010E90EC0DF0390EC5
:101EF0002EEC10F01C0E2EEC10F0520E2EEC10F00A
:101F0000690E2EEC10F0740E2EEC10F00C0E2EEC70
:101F100010F0010E2EEC10F0060E2EEC10F0380E24
:101F20002EEC10F0400E2EEC10F0400EE8CF0AF030
:101F3000000EF86E200EF76EF40EF66E0AC0E8FF83
:101F4000C2EC10F0D5EF0FF0380E2EEC10F0050EAD
:101F500090EC0DF0380E2EEC10F0010E90EC0DF020
:101F6000380E2EEC10F0010E90EC0DF0380E2EEC29
:101F700010F0060E2EEC10F00C0E2EEC10F0010EF0
:101F80002EEC10F0800E2EEC10F0400E2EEC10F027
:101F9000400EE8CF0AF0000EF86E200EF76EF40E39
:101FA000F66E0AC0E8FFC2EC10F0800E2EEC10F0C6
:101FB000850EF76E520EF66EBFEC10F0C00E2EECD2
:101FC00010F0850EF76E640EF66EBFEC10F0120086
:101FD0000101F30E4163F0EF0FF06F0E416F12003D
:101FE000F20E4163F6EF0FF0EDEF0FF0E00E4163FC
:101FF000FDEF0FF0610E416F1200E90E416304EF37
:1020000010F0650E416F1200E70E41630BEF10F008
:10201000630E416F1200ED0E416312EF10F0690E76
:10202000416F1200E80E416319EF10F0650E416F29
:102030001200FA0E41631200750E416F12003DEC62
:1020400010F060EC10F0818A819800000000818619
:102050000000000081960000000012003DEC10F02E
:1020600060EC10F0819A81980000000081860000E9
:102070000000819600000000120044EC10F0D8B07F
:102080003DEF10F09A6A12009A688188819A0000E8
:102090000000818600000000D890E8CF41F102C521
:1020A000E8FFE8665AEF10F088BED880819641C1FB
:1020B000E8FF120088B0D880819641C1E8FF120085
:1020C000886E02C5E8FFE81EE866120088CFE8FFC8
:1020D000886AE8B08888E8B2888AE8B4888CE8B66C
:1020E000888EE8B88886E8BA8884E8BC8882E8BE2A
:1020F00088801200101010101010101018181818E6
:10210000181818181C1C1C1C1C1C1C1C1E1E1E1E17
:102110001E1E1E1E01010101010101010303030333
:102120000303030307070707070707070F0F0F0F2F
:102130000F0F0F0F1F1F1F1F1F1F1F1F800E2EECC3
:1021400010F00DC0F6FF0EC0F7FFF86ABFEC10F0FC
:102150001200C00E2EEC10F00DC0F6FF0EC0F7FFFF
:10216000F86ABFEC10F01200C00E2EEC10F0D4C0D4
:10217000F6FFD5C0F7FFF86ABFEC10F01200100EA2
:10218000C2EF10F00A6E0900F5CFE8FFE812D8B4EC
:1021900012001FEC10F00A4E1200C3EF10F00A6E8E
:1021A000080E0B6E300E0ABE310E1FEC10F00A3610
:1021B0000B2ED2EF10F012000A6E3A0E0B6E0AC010
:1021C000E8FFF00BE842E842E842E84230090B64DD
:1021D000070F1FEC10F00AC0E8FF0F0B30090B646B
:1021E000070F1FEC10F00AC0E8FF1200000EE8CF46
:1021F00015F0E8CF16F00001200E14BE2D0E1FECD6
:1022000010F0000114AE1200131E141E132AD8B4CD
:10221000142A120056EC11F025501FEC10F0265035
:102220001FEC10F027501FEC10F028501FEC10F09E
:1022300029501FEC10F0120056EC11F00FEF11F0C6
:1022400056EC11F012EF11F056EC11F015EF11F001
:1022500056EC11F018EF11F056EC11F040EC11F0C3
:1022600025501FEC10F026501FEC10F027501FECEB
:1022700010F028501FEC10F029501FEC10F0120045
:102280000001300E25621200200E256E300E2662EF
:102290001200200E266E300E27621200200E276ECE
:1022A000300E28621200200E286E12000001196AFA
:1022B0001A6A100E176E270E186E56EC15F0300EB7
:1022C0001310256E1BC013F01CC014F01DC015F0B8
:1022D0001EC016F0196A1A6AE80E176E030E186E01
:1022E00056EC15F0300E1310266E1BC013F01CC0F8
:1022F00014F01DC015F01EC016F0196A1A6A640E9B
:10230000176E000E186E56EC15F0300E1310276E77
:102310001BC013F01CC014F01DC015F01EC016F039
:10232000196A1A6A0A0E176E000E186E56EC15F02E
:10233000300E1310286E300E1B10296E120003C5CC
:10234000E8FFE81EE8661200390E2EEC10F0E1C23C
:10235000E8FFE83A030B50092EEC10F0E1C2E8FF69
:102360000F0B70092EEC10F0380E2EEC10F012004E
:102370000001310E3762C1EF11F0A2EC25F0EBEF56
:1023800011F0320E3762CBEF11F000C2E8FF2DECF6
:1023900026F0EBEF11F0330E3762D3EF11F0C7ECFC
:1023A00025F0EBEF11F0340E3762DBEF11F000C2D5
:1023B000E8FF58EC26F0350E3762EBEF11F0000124
:1023C000FF0E0D6E030E0E6EE8CF0EF0FF0ECAEC80
:1023D0000DF0EBEF11F0376A12000F01ABA2120003
:1023E000AB98AB880F01AE500001636B12000F0178
:1023F0006BA212006B986B880F016E5012000C0ECE
:10240000E8CFAFFF220EE8CFACFF900EE8CFABFFD6
:102410000001636B9F9A9D8A1200ACA20DEF12F02F
:10242000E8CFADFF12000C0EE8CF6FFFD6C2E8FF79
:10243000E8661EEF12F0030EE8CF6FFF7C96260EC3
:10244000E8CF6CFF900EE8CF6BFFA59AA38A12002D
:102450006CA228EF12F012006CA22CEF12F0E8CF61
:102460006DFF1200E1CF21F0E2CF22F0000167C042
:10247000E1FF000166C0E2FF6A6BACA23DEF12F023
:10248000E6CFE8FF00016A27E8CFADFF0001682F23
:102490003DEF12F021C0E1FF22C0E2FF1200E1CFC8
:1024A00021F0E2CF22F0000167C0E1FF000166C029
:1024B000E2FF6A6B0001050E606FE86A60656EEF0F
:1024C00012F09EAA5EEF12F0AECFE8FFE8CFE6FF73
:1024D00000016A270001682F5AEF12F021C0E1FFC6
:1024E00022C0E2FF12009EAA12000001000E6363E8
:1024F00086EF12F0AECFE8FFE8CF64F0550E6463CC
:102500001200280EE8CF61F0632B1200010E636306
:1025100090EF12F0AECFE8FFE8CF65F0632B12002A
:10252000020E63639AEF12F0AECFE8FFE8CF66F0D9
:10253000632B1200030E6363A4EF12F0AECFE8FF2B
:10254000E8CF67F0632B1200040E6363ADEF12F067
:10255000AECFE8FFE8CF68F0632B050E6363B9EFF9
:1025600012F0010E6563B7EF12F04FEC12F0632B1F
:102570001200060E6363DCEF12F0AECFE8FFE8CF87
:1025800069F0020E6563CDEF12F032EC12F06AC012
:10259000E8FF0DEC12F0636B12006AC0E8FF69639C
:1025A000D7EF12F00C0E0DEC12F0636B12000D0E53
:1025B0000DEC12F0636B1200636B1200A4AA120000
:1025C0006ECFE8FF0201A1B121EF13F0530AD8A4A6
:1025D00012000201A0A1120000010F0E76151009D1
:1025E0002CEC12F075C0E8FF2CEC12F028EC12F085
:1025F000050E8BEC0DF000010F0E781520092CEC68
:1026000012F077512CEC12F028EC12F0050E8BEC46
:102610000DF000010F0E7A1530092CEC12F07951F3
:102620002CEC12F028EC12F0050E8BEC0DF00001F2
:102630000F0E7C1540092CEC12F07B512CEC12F0A3
:1026400012000001AEB128EF13F0B06FAE2B1200F4
:10265000AF6FAE2B020EAE6341EF13F0B051F00B33
:10266000100AD8A486EF13F00F0EB017B0A73BEFF7
:1026700013F0F00EB013AFC0B1F0B0C0B2F086EFFF
:1026800013F0040EAE6358EF13F0B051F00B200AB4
:10269000D8A486EF13F00F0EB017B0A752EF13F0C7
:1026A000F00EB013AFC0B3F0B0C0B4F086EF13F0CB
:1026B000060EAE636FEF13F0B051F00B300AD8A4E2
:1026C00086EF13F00F0EB017B0A769EF13F0F00EFE
:1026D000B013AFC0B5F0B0C0B6F086EF13F0080E7F
:1026E000AE6386EF13F0B051F00B400AD8A486EF2A
:1026F00013F00F0EB017B0A780EF13F0F00EB01369
:10270000AFC0B7F0B0C0B8F086EF13F01200D6C279
:10271000E8FFE81EE8661200AA0E2CEC12F0AA0EE2
:102720002CEC12F00A6A0B6A040EE26E000EE16EE7
:102730000AC0E8FFE3CF0DF0000EE26E3C0EE16E42
:102740000DC0E8FFE806D890E836E3CF0DF0E82AA0
:10275000E3CF0EF000010E3AF00E0E160AC0E8FFAD
:10276000E82A0E120E3A0BC0E8FF0D240E24E8CF23
:102770000BF00DC0E8FF2CEC12F00EC0E8FF2CECC3
:1027800012F00A2A080E0A60CDEF13F049C4E8FFE0
:10279000D890E8320A6494EF13F00BC0E8FF2CECF9
:1027A00012F0ED0E2CEC12F0ED0E2CEC12F01200EB
:1027B0000001EF67E6EF13F07E960C0E0F01AF6E8F
:1027C000220EAC6E900EE8CFABFF12007C960C0E82
:1027D0000F016F6E220E6C6E900EE8CF6BFF120031
:1027E0000001E80E0D26030E0E220EAEFDEF13F0D3
:1027F000E86AE8CF0DF0E8CF0EF0780E0D5C070E1A
:102800000E58D8A007EF14F0EF0E0EEF14F00E32B2
:102810000D320E320D320E320D320D500001EF67C7
:102820002CEF12F00DEF12F000010EAE1DEF14F0C0
:10283000E86AE8CF0DF0E8CF0EF0BC0E0D5C030E99
:102840000E58D8A009EF14F0EF0E0EEF14F0F00EB2
:102850000EEC14F0800E0EEC14F075C00DF076C086
:102860000EF0F0EC13F077C00DF078C00EF0F0EC45
:1028700013F079C00DF07AC00EF0F0EC13F07BC0CD
:102880000DF07CC00EF014EC14F07DC00DF07EC095
:102890000EF0F0EC13F07FC00DF080C00EF0F0EC05
:1028A00013F0120063EC14F010AE5BEF14F00D5057
:1028B000155E0E50165A0EAE62EF14F00F50155EF4
:1028C0001050165A12000001136A146A156A166A2B
:1028D0000F500D02F3CF13F0F4CF14F00F500E028F
:1028E000F3501426F4501522D8B0162A10500D02B9
:1028F000F3501426F4501522D8B0162A10500E02A8
:10290000F3501526F450162212000001246A1B6AA7
:1029100014501310D8B4000C14501718E8BE241E1D
:10292000AA6B000E17AE97EF14F0171E172A14AEFD
:102930009EEF14F0131E141E132A142214501710A5
:10294000E8BE2AEF15F017501B5E143614341B3600
:1029500017501B26143614341B36175014B01B5E48
:1029600014A01B26143614341B36175014B01B5EEB
:1029700014A01B26143614341B36175014B01B5EDB
:1029800014A01B26143614341B36175014B01B5ECB
:1029900014A01B26143614341B36175014B01B5EBB
:1029A00014A01B26143614341B36175014B01B5EAB
:1029B00014A01B26143613341B36175014B01B5E9C
:1029C00014A01B26133613341B36175013B01B5E8E
:1029D00013A01B26133613341B36175013B01B5E7F
:1029E00013A01B26133613341B36175013B01B5E6F
:1029F00013A01B26133613341B36175013B01B5E5F
:102A000013A01B26133613341B36175013B01B5E4E
:102A100013A01B26133613341B36175013B01B5E3E
:102A200013A01B26133613341B36175013B01B5E2E
:102A300013A01B26133613A01B26AAB148EF15F0CE
:102A400024AE000C131E141EE86A132A14221B1E47
:102A50001B2A000C17AE43EF15F014BE3FEF15F024
:102A6000E8CFA3F01350E8CF1BF01B9E13361436AB
:102A70001450E8CF13F0A351146A20EF15F0136A35
:102A8000132A146A000C141E131EAA2BA3EF14F0B1
:102A90001B2A17501B6220EF15F01B6A000E132A29
:102AA000142214AE20EF15F02388FF0C0001246AD5
:102AB0001C6A1B6A155014101310D8B4000C155062
:102AC0001818E8BE241EAA6B000E18AE6CEF15F0A5
:102AD000171E181E172A182215AE75EF15F0131EB3
:102AE000141E151E132A1422152215501810E8BEA4
:102AF000FFEF16F017501B5E18501C5A1536153490
:102B00001B361C3617501B2618501C221536153440
:102B10001B361C36175015A093EF15F01B5E18508E
:102B20001C5A96EF15F01B2618501C22153615342A
:102B30001B361C36175015A0A3EF15F01B5E18505E
:102B40001C5AA6EF15F01B2618501C2215361534FA
:102B50001B361C36175015A0B3EF15F01B5E18502E
:102B60001C5AB6EF15F01B2618501C2215361534CA
:102B70001B361C36175015A0C3EF15F01B5E1850FE
:102B80001C5AC6EF15F01B2618501C22153615349A
:102B90001B361C36175015A0D3EF15F01B5E1850CE
:102BA0001C5AD6EF15F01B2618501C22153615346A
:102BB0001B361C36175015A0E3EF15F01B5E18509E
:102BC0001C5AE6EF15F01B2618501C22153614343B
:102BD0001B361C36175015A0F3EF15F01B5E18506E
:102BE0001C5AF6EF15F01B2618501C22143614340C
:102BF0001B361C36175014A003EF16F01B5E18503E
:102C00001C5A06EF16F01B2618501C2214361434DA
:102C10001B361C36175014A013EF16F01B5E18500D
:102C20001C5A16EF16F01B2618501C2214361434AA
:102C30001B361C36175014A023EF16F01B5E1850DD
:102C40001C5A26EF16F01B2618501C22143614347A
:102C50001B361C36175014A033EF16F01B5E1850AD
:102C60001C5A36EF16F01B2618501C22143614344A
:102C70001B361C36175014A043EF16F01B5E18507D
:102C80001C5A46EF16F01B2618501C22143614341A
:102C90001B361C36175014A053EF16F01B5E18504D
:102CA0001C5A56EF16F01B2618501C2214361434EA
:102CB0001B361C36175014A063EF16F01B5E18501D
:102CC0001C5A66EF16F01B2618501C2214361334BB
:102CD0001B361C36175014A073EF16F01B5E1850ED
:102CE0001C5A76EF16F01B2618501C22133613348C
:102CF0001B361C36175013A083EF16F01B5E1850BE
:102D00001C5A86EF16F01B2618501C22133613345B
:102D10001B361C36175013A093EF16F01B5E18508D
:102D20001C5A96EF16F01B2618501C22133613342B
:102D30001B361C36175013A0A3EF16F01B5E18505D
:102D40001C5AA6EF16F01B2618501C2213361334FB
:102D50001B361C36175013A0B3EF16F01B5E18502D
:102D60001C5AB6EF16F01B2618501C2213361334CB
:102D70001B361C36175013A0C3EF16F01B5E1850FD
:102D80001C5AC6EF16F01B2618501C22133613349B
:102D90001B361C36175013A0D3EF16F01B5E1850CD
:102DA0001C5AD6EF16F01B2618501C22133613346B
:102DB0001B361C36175013A0E3EF16F01B5E18509D
:102DC0001C5AE6EF16F01B2618501C22133613B0BF
:102DD000EEEF16F017501B2618501C22AAB123EF55
:102DE00017F024AE000C131E141E151E000E132A1D
:102DF000142215221B1E1C1E1B2A1C22000C18AE9E
:102E00001DEF17F015BE18EF17F0E8CFA3F0145020
:102E1000E8CF1CF01350E8CF1BF01C9E143615367B
:102E20001550E8CF13F0A351156A146AF1EF16F0AC
:102E3000136A132A146A156A000C151E141E131E39
:102E4000AA2B7AEF15F01B2AE86A1C2217501B6286
:102E5000F1EF16F018501C62F1EF16F01C6A1B6AB5
:102E6000000E132A1422152215AEF1EF16F0238856
:102E7000FF0C00011E6A1D6A1C6A1B6A16341B3691
:102E80001C361D361E3617501B5E18501C5A195022
:102E90001D5A1A501E5AAA6BAA5B163616341B36D8
:102EA0001C361D361E36AA37175016A063EF17F0D2
:102EB0001B5E18501C5A19501D5A1A501E5AE86AA7
:102EC000AA5B6CEF17F01B2618501C2219501D220C
:102ED0001A501E22E86AAA23163616341B361C36F0
:102EE0001D361E36AA37175016A082EF17F01B5E4C
:102EF00018501C5A19501D5A1A501E5AE86AAA5BDB
:102F00008BEF17F01B2618501C2219501D221A5047
:102F10001E22E86AAA23163616341B361C361D36C6
:102F20001E36AA37175016A0A1EF17F01B5E1850D7
:102F30001C5A19501D5A1A501E5AE86AAA5BAAEF69
:102F400017F01B2618501C2219501D221A501E2241
:102F5000E86AAA23163616341B361C361D361E3672
:102F6000AA37175016A0C0EF17F01B5E18501C5A56
:102F700019501D5A1A501E5AE86AAA5BC9EF17F079
:102F80001B2618501C2219501D221A501E22E86AB6
:102F9000AA23163616341B361C361D361E36AA37A3
:102FA000175016A0DFEF17F01B5E18501C5A19506F
:102FB0001D5A1A501E5AE86AAA5BE8EF17F01B2642
:102FC00018501C2219501D221A501E22E86AAA23EA
:102FD000163616341B361C361D361E36AA371750C9
:102FE00016A0FEEF17F01B5E18501C5A19501D5A00
:102FF0001A501E5AE86AAA5B07EF18F01B261850F1
:103000001C2219501D221A501E22E86AAA231636C5
:1030100016341B361C361D361E36AA37175016A01E
:103020001DEF18F01B5E18501C5A19501D5A1A50EB
:103030001E5AE86AAA5B26EF18F01B2618501C22BD
:1030400019501D221A501E22E86AAA23163615347A
:103050001B361C361D361E36AA37175016A03CEFFD
:1030600018F01B5E18501C5A19501D5A1A501E5A3F
:10307000E86AAA5B45EF18F01B2618501C2219506D
:103080001D221A501E22E86AAA23153615341B3653
:103090001C361D361E36AA37175015A05BEF18F0E8
:1030A0001B5E18501C5A19501D5A1A501E5AE86AB5
:1030B000AA5B64EF18F01B2618501C2219501D2221
:1030C0001A501E22E86AAA23153615341B361C3600
:1030D0001D361E36AA37175015A07AEF18F01B5E62
:1030E00018501C5A19501D5A1A501E5AE86AAA5BE9
:1030F00083EF18F01B2618501C2219501D221A505D
:103100001E22E86AAA23153615341B361C361D36D6
:103110001E36AA37175015A099EF18F01B5E1850ED
:103120001C5A19501D5A1A501E5AE86AAA5BA2EF7F
:1031300018F01B2618501C2219501D221A501E224E
:10314000E86AAA23153615341B361C361D361E3682
:10315000AA37175015A0B8EF18F01B5E18501C5A6C
:1031600019501D5A1A501E5AE86AAA5BC1EF18F08E
:103170001B2618501C2219501D221A501E22E86AC4
:10318000AA23153615341B361C361D361E36AA37B3
:10319000175015A0D7EF18F01B5E18501C5A195085
:1031A0001D5A1A501E5AE86AAA5BE0EF18F01B2657
:1031B00018501C2219501D221A501E22E86AAA23F8
:1031C000153615341B361C361D361E36AA371750D9
:1031D00015A0F6EF18F01B5E18501C5A19501D5A16
:1031E0001A501E5AE86AAA5BFFEF18F01B26185007
:1031F0001C2219501D221A501E22E86AAA231536D5
:1032000015341B361C361D361E36AA37175015A02E
:1032100015EF19F01B5E18501C5A19501D5A1A5000
:103220001E5AE86AAA5B1EEF19F01B2618501C22D2
:1032300019501D221A501E22E86AAA23153614348A
:103240001B361C361D361E36AA37175015A034EF14
:1032500019F01B5E18501C5A19501D5A1A501E5A4C
:10326000E86AAA5B3DEF19F01B2618501C22195082
:103270001D221A501E22E86AAA23143614341B3663
:103280001C361D361E36AA37175014A053EF19F0FE
:103290001B5E18501C5A19501D5A1A501E5AE86AC3
:1032A000AA5B5CEF19F01B2618501C2219501D2236
:1032B0001A501E22E86AAA23143614341B361C3610
:1032C0001D361E36AA37175014A072EF19F01B5E78
:1032D00018501C5A19501D5A1A501E5AE86AAA5BF7
:1032E0007BEF19F01B2618501C2219501D221A5072
:1032F0001E22E86AAA23143614341B361C361D36E7
:103300001E36AA37175014A091EF19F01B5E185003
:103310001C5A19501D5A1A501E5AE86AAA5B9AEF95
:1033200019F01B2618501C2219501D221A501E225B
:10333000E86AAA23143614341B361C361D361E3692
:10334000AA37175014A0B0EF19F01B5E18501C5A82
:1033500019501D5A1A501E5AE86AAA5BB9EF19F0A3
:103360001B2618501C2219501D221A501E22E86AD2
:10337000AA23143614341B361C361D361E36AA37C3
:10338000175014A0CFEF19F01B5E18501C5A19509B
:103390001D5A1A501E5AE86AAA5BD8EF19F01B266C
:1033A00018501C2219501D221A501E22E86AAA2306
:1033B000143614341B361C361D361E36AA371750E9
:1033C00014A0EEEF19F01B5E18501C5A19501D5A2C
:1033D0001A501E5AE86AAA5BF7EF19F01B2618501C
:1033E0001C2219501D221A501E22E86AAA231436E4
:1033F00014341B361C361D361E36AA37175014A03F
:103400000DEF1AF01B5E18501C5A19501D5A1A5015
:103410001E5AE86AAA5B16EF1AF01B2618501C22E7
:1034200019501D221A501E22E86AAA23143613349A
:103430001B361C361D361E36AA37175014A02CEF2B
:103440001AF01B5E18501C5A19501D5A1A501E5A59
:10345000E86AAA5B35EF1AF01B2618501C22195097
:103460001D221A501E22E86AAA23133613341B3673
:103470001C361D361E36AA37175013A04BEF1AF014
:103480001B5E18501C5A19501D5A1A501E5AE86AD1
:10349000AA5B54EF1AF01B2618501C2219501D224B
:1034A0001A501E22E86AAA23133613341B361C3620
:1034B0001D361E36AA37175013A06AEF1AF01B5E8E
:1034C00018501C5A19501D5A1A501E5AE86AAA5B05
:1034D00073EF1AF01B2618501C2219501D221A5087
:1034E0001E22E86AAA23133613341B361C361D36F7
:1034F0001E36AA37175013A089EF1AF01B5E18501A
:103500001C5A19501D5A1A501E5AE86AAA5B92EFAB
:103510001AF01B2618501C2219501D221A501E2268
:10352000E86AAA23133613341B361C361D361E36A2
:10353000AA37175013A0A8EF1AF01B5E18501C5A98
:1035400019501D5A1A501E5AE86AAA5BB1EF1AF0B8
:103550001B2618501C2219501D221A501E22E86AE0
:10356000AA23133613341B361C361D361E36AA37D3
:10357000175013A0C7EF1AF01B5E18501C5A1950B1
:103580001D5A1A501E5AE86AAA5BD0EF1AF01B2681
:1035900018501C2219501D221A501E22E86AAA2314
:1035A000133613341B361C361D361E36AA371750F9
:1035B00013A0E6EF1AF01B5E18501C5A19501D5A42
:1035C0001A501E5AE86AAA5BEFEF1AF01B26185031
:1035D0001C2219501D221A501E22E86AAA231336F3
:1035E00013341B361C361D361E36AA37175013A04F
:1035F00005EF1BF01B5E18501C5A19501D5A1A502B
:103600001E5AE86AAA5B0EEF1BF01B2618501C22FC
:1036100019501D221A501E22E86AAA23133613B02D
:103620001AEF1BF017501B2618501C2219501D2290
:103630001A501E22000C4C202041696C2020787802
:10364000782520202052552020456C652020787850
:103650007825202020444C20205275642020787842
:103660007825202020524C2020546874202078781F
:103670007825202020484120204348352020787894
:103680007825202020425520204348362020787875
:103690007825202020445520204348372020787862
:1036A0007825202020444320204348382020787863
:1036B000782520202041456C657661746F7220204A
:1036C00020202020202041696C65726F6E20202010
:1036D0002020202020205275646465722020202044
:1036E0002020202020205468726F74746C65202084
:1036F000202020202020434835202020202020206A
:103700002020202020204348362020202020202058
:103710002020202020204348372020202020202047
:103720002020202020204348382020202020202036
:103730002020202020200001360E0D6E360E0E6E49
:103740005EC1E8FFE83A00010D26D8B00E2A9EECD3
:1037500010F0E5EC1BF0D8B0DDEF1BF00F01750E9B
:10376000E16E000EE26E5EC1E8FF070BE846E1265F
:10377000D8B0E22AE650E8CF0DF0E650E8CF0EF0E0
:103780000DC013F00EC014F00A0E176E85EC14F085
:10379000870E2EEC10F0F6EC10F020EC11F0E1CFDB
:1037A000E8FF7D0AD8A4D9EF1BF03BEC42F0DDEF37
:1037B0001BF05DEC41F0C2EC41F090EC25F0010112
:1037C000D8B05E2B0F0E5E171200D8905EC1E8FFD6
:1037D000E8A612000F013C0EE16E000EE26E5EC123
:1037E000E8FF070BE846E126D8B0E22AE650E8CF2A
:1037F00013F0E550E8CF14F0890E2EEC10F030EC09
:103800001CF0E650E8CF0DF0E550E8CF0EF00BECE1
:103810001CF0D88012000001AEC2E8FF0D5EAFC2FE
:10382000E8FF0E5A0001E80E0F6E030E106E52EC08
:1038300014F0B0C217F0B1C218F00001AEC2E8FF38
:10384000175EAFC2E8FF185A56EC15F0C00E2EEC0A
:1038500010F013C00DF014C00EF03BEC42F012005B
:103860000001D89014321332156A166A56EC11F022
:1038700026501FEC10F02E0E1FEC10F027501FECFE
:1038800010F028501FEC10F029501FEC10F06D0EB6
:103890001FEC10F0530E1FEC10F012000001360E5A
:1038A0000D6E360E0E6E5EC1E8FFE83A00010D2681
:1038B000D8B00E2A9EEC10F00101E86AE8CF0EF0B5
:1038C0005E6119C30DF0E82A5E6124C30DF0E82A99
:1038D0005E612FC30DF000010DBE0E680DC013F028
:1038E0000EC014F0870E2EEC10F0F6EC10F020EC69
:1038F00011F000010A0E0F6E000E106E52EC14F063
:1039000013C00DF014C00EF05DEC41F0C2EC41F0BC
:1039100090EC25F00101D8B05E2B030E5E615E6B6A
:1039200012000F01D89083B6D880D8B09DEF1CF05C
:103930000A0E90EC0DF00F01D89083B6D880D8B065
:1039400013EF1DF00F01D89084B2D880D8B0AEEF3D
:103950001CF00A0E90EC0DF00F01D89084B2D880C4
:10396000D8B013EF1DF00001D267D5EF1CF00001B5
:10397000D269030132C30DF033C30EF00001E80E2B
:103980000F6E030E106E52EC14F014C01CF115C033
:103990001DF10301345101011C27030135510101BF
:1039A0001D2334C31AF135C31BF1C6EC33F0D8B074
:1039B000E6EF1CF0D8A4EDEF1CF001011A07D8A027
:1039C0001B071A07D8A01B07EDEF1CF001011A2BEB
:1039D000D8B41B2B1A2BD8B41B2B1CC10DF01DC146
:1039E0000EF001011A5100010D5E01011B51000191
:1039F0000E5A0001000E0F6E010E106E52EC14F004
:103A00000001E80E176E030E186E56EC15F013C089
:103A100032F314C033F31AC134F31BC135F39CECF9
:103A200020F0D88412000001D26719EF1DF0D8945D
:103A30001200D26BA2EC26F0D894120000016B5158
:103A4000E8CF0DF06C51E8CF0EF06F510D5E705164
:103A50000E5AD8A03BEF1DF06D51E8CF0FF06E511C
:103A6000E8CF10F052EC14F01450E8CF73F015507A
:103A7000E8CF74F012007151E8CF0FF07251E8CF27
:103A800010F052EC14F01450E8CF73F01550E8CF5A
:103A900074F012006BC00DF06CC00EF06F510D5E33
:103AA00070510E5A6DC00FF06EC010F052EC14F051
:103AB0001450E8CF73F01550E8CF74F012000001F5
:103AC000750EBB6F000EBC6F0001750EB96F000E56
:103AD000BA6F080EE8CFBAF0260EBD6F00EC2BF0DF
:103AE000040EC8EC09F015C26DF016C26EF017C2D4
:103AF0006FF018C270F019C271F01AC272F01EECA9
:103B00001DF073C00DF074C00EF043C40BF00B3AFF
:103B100082EC29F00DC034F10EC035F10DC075F006
:103B20000EC076F0050EC8EC09F01BC26DF01CC289
:103B30006EF01DC26FF01EC270F01FC271F020C285
:103B400072F01EEC1DF073C00DF074C00EF044C492
:103B50000BF00B3A82EC29F00DC036F10EC037F1B4
:103B60000DC077F00EC078F0060EC8EC09F021C247
:103B70006DF022C26EF023C26FF024C270F025C235
:103B800071F026C272F01EEC1DF073C00DF074C00F
:103B90000EF045C40BF00B3A82EC29F00DC038F161
:103BA0000EC039F10DC079F00EC07AF0070EC8ECE6
:103BB00009F0070EC8EC09F027C26DF028C26EF0BC
:103BC00029C26FF02AC270F04AEC1DF073C00DF0EC
:103BD00074C00EF046C40BF00B3A82EC29F00DC015
:103BE0003AF10EC03BF10DC07BF00EC07CF00DC071
:103BF00027F40EC028F4030EC8EC09F000010F01F1
:103C0000C3CFE8FFE8CF8DF0C4CFE8FFE8CF8EF058
:103C1000080EC8EC09F02DC26FF02EC270F02BC256
:103C20006DF02CC26EF04AEC1DF073C085F074C0CC
:103C300086F0090EC8EC09F031C26FF032C270F0A4
:103C40002FC26DF030C26EF04AEC1DF073C087F0E9
:103C500074C088F00A0EC8EC09F035C26FF036C2A5
:103C600070F033C26DF034C26EF04AEC1DF073C0D8
:103C700089F074C08AF00B0EC8EC09F039C26FF0FD
:103C80003AC270F037C26DF038C26EF04AEC1DF0E7
:103C900073C08BF074C08CF00301B55129EC2CF08B
:103CA000D8A05AEF1EF00001E80E7D6F030E7E6F64
:103CB0005FEF1EF00001180E7D6FFC0E7E6F000E90
:103CC000C8EC09F03BC26DF03CC26EF03DC26FF033
:103CD0003EC270F04AEC1DF073C00DF074C00EF0DF
:103CE00047C40BF00B3A82EC29F00DC07FF00EC0F8
:103CF00080F0010EC8EC09F03FC26DF040C26EF0DA
:103D000041C26FF042C270F04AEC1DF073C00DF07A
:103D100074C00EF048C40BF00B3A82EC29F00DC0D1
:103D200081F00EC082F00301B75129EC2CF0D8A02D
:103D3000A1EF1EF00001E80E836F030E846FBBEF4E
:103D40001EF00301B95129EC2CF0D8A0AFEF1EF002
:103D50000001180E836FFC0E846FBBEF1EF0030191
:103D6000B85129EC2CF0D8A0BBEF1EF00001000EDA
:103D7000836F000E846F12000001106A0FBE101EC8
:103D800052EC14F00001640E176E000E186E56EC23
:103D900015F013C011F014C012F013C00FF014C0CE
:103DA00010F00EAED9EF1EF00F1E101E0F2AD8B065
:103DB000102A52EC14F000010A0E176E000E186E55
:103DC00056EC15F00B50E8CF17F0186A17BE181E06
:103DD00056EC15F011500D5E12500E5A13500D2670
:103DE00014500E2212000301AE5129EC2CF075C0C4
:103DF0000DF076C00EF0D8A009EF1FF003011B51A3
:103E00000001E8CF0FF003011751E8CF0BF011EFDD
:103E10001FF003011A510001E8CF0FF0640EE8CF44
:103E20000BF0BCEC1EF00DC075F00EC076F0030177
:103E3000AF5129EC2CF077C00DF078C00EF0D8A06F
:103E40002DEF1FF0030126510001E8CF0FF0030111
:103E50002251E8CF0BF035EF1FF00301255100018F
:103E6000E8CF0FF0640EE8CF0BF0BCEC1EF00DC0F5
:103E700077F00EC078F00301B05129EC2CF079C036
:103E80000DF07AC00EF0D8A051EF1FF003013151B0
:103E90000001E8CF0FF003012D51E8CF0BF059EFEF
:103EA0001FF0030130510001E8CF0FF0640EE8CF9E
:103EB0000BF0BCEC1EF00DC079F00EC07AF01200D1
:103EC0000301AE5129EC2CF0D8A07FEF1FF075C094
:103ED0000FF076C010F017C30DF018C30EF00E6A85
:103EE0000DBE0E1E52EC14F00001640E176E000E93
:103EF000186E56EC15F013C075F014C076F003017F
:103F0000AF5129EC2CF0D8A09EEF1FF077C00FF036
:103F100078C010F022C30DF023C30EF00E6A0DBE60
:103F20000E1E52EC14F00001640E176E000E186E97
:103F300056EC15F013C077F014C078F00301B051BF
:103F400029EC2CF0D8A0BDEF1FF079C00FF07AC09B
:103F500010F02DC30DF02EC30EF00E6A0DBE0E1E16
:103F600052EC14F00001640E176E000E186E56EC41
:103F700015F013C079F014C07AF0120057C1E8FFB1
:103F8000E81EE8661200E86AE8CF57F1030E000168
:103F90005F6E030E22EC0CF01200D3C2E8FFE81EA5
:103FA000E86621EF20F080C50FF081C510F0020116
:103FB000B2519DEC01F00FC00DF010C00EF04BC1DE
:103FC0000FF04CC110F06BEC20F0E868D8B0E8CFEF
:103FD00057F10FC04BF110C04CF182C50FF083C5F3
:103FE00010F00201B3519DEC01F00FC00DF010C0B4
:103FF0000EF04DC10FF04EC110F06BEC20F0E868F0
:10400000D8B0E8CF57F10FC04DF110C04EF184C5C4
:104010000FF085C510F00201B4519DEC01F00FC006
:104020000DF010C00EF04FC10FF050C110F06BEC4E
:1040300020F0E868D8B0E8CF57F10FC04FF110C0BA
:1040400050F1D7C2E8FFE81EE86641EF20F086C5D0
:104050000FF087C510F00201B5519DEC01F00FC0C3
:104060000DF010C00EF051C10FF052C110F06BEC0A
:1040700020F0E868D8B0E8CF57F10FC051F110C078
:1040800052F1D8C2E8FFE81EE86612007FC00DF0CA
:1040900080C00EF053C10FF054C110F06BEC20F053
:1040A000E868D8B0E8CF57F10FC053F110C054F111
:1040B00081C00DF082C00EF055C10FF056C110F056
:1040C0006BEC20F0E868D8B0E8CF57F10FC055F19D
:1040D00010C056F112000DC011F00EC012F0000118
:1040E0000FC0E8FF115E10C0E8FF125A12AE7EEF5B
:1040F00020F0111E121E112AD8B4122AD8901232A2
:104100001132D89012321132D89012321132D89026
:1041100012321132D8901232113211C0E8FF12124D
:10412000D890D8B412000EC0E8FF1018E8360DC0C1
:104130000FF00EC010F0120080C50FF081C510F016
:104140000201B2519DEC01F00301A75100010F26BD
:104150000301A8510001102218C30DF019C30EF07D
:1041600000010E6AFF0E0DBE0E6E52EC14F000013F
:10417000640E176E186A196A1A6A56EC15F0000177
:104180000301195100010D6E0E6A0DBE0E1E0D3693
:104190000E360D5013260E5014221350752714504E
:1041A000762382C50FF083C510F00201B3519DEC58
:1041B00001F00301A95100010F260301AA510001DA
:1041C000102223C30DF024C30EF000010E6AFF0E6F
:1041D0000DBE0E6E52EC14F00001640E176E186ADC
:1041E000196A1A6A56EC15F0000103012451000106
:1041F0000D6E0E6A0DBE0E1E0D360E360D501326B8
:104200000E501422135077271450782384C50FF0D2
:1042100085C510F00201B4519DEC01F00301AB51D2
:1042200000010F260301AC51000110222EC30DF036
:104230002FC30EF000010E6AFF0E0DBE0E6E52EC83
:1042400014F00001640E176E186A196A1A6A56ECA7
:1042500015F0000103012F5100010D6E0E6A0DBE15
:104260000E1E0D360E360D5013260E50142213500E
:10427000792714507A2386C50FF087C510F0020104
:10428000B5519DEC01F036C30DF037C30EF00001BF
:104290000E6AFF0E0DBE0E6E52EC14F00001640E9D
:1042A000176E186A196A1A6A56EC15F00301010EA6
:1042B000376372EF21F00001030E0E6E186EE80EE8
:1042C0000D6E176E7B510D5E7C510E5A196A1A6A7B
:1042D00013C00FF014C010F052EC14F056EC15F0AF
:1042E0008CEF21F0020E37638CEF21F000017B513F
:1042F0000D6E7C510E6E13C00FF014C010F052EC16
:1043000014F00001030EE8CF18F0E80EE8CF17F024
:10431000196A1A6A56EC15F0000113507B271450E5
:104320007C23120000010E6A08C40DF00DBE0E6859
:1043300000010A0E0F6E000E106E52EC14F01350B6
:1043400075271450762300010E6A09C40DF00DBEC6
:104350000E6800010A0E0F6E000E106E52EC14F083
:10436000135077271450782300010E6A0AC40DF009
:104370000DBE0E6800010A0E0F6E000E106E52EC9C
:1043800014F01350792714507A2300010E6A0BC4DD
:104390000DF00DBE0E6800010A0E0F6E000E106EBD
:1043A00052EC14F013507B2714507C2300010E6A4A
:1043B0000CC40DF00DBE0E6800010A0E0F6E000E4B
:1043C000106E52EC14F013507D2714507E23000120
:1043D0000E6A0DC40DF00DBE0E6800010A0E0F6EC0
:1043E000000E106E52EC14F013507F2714508023EF
:1043F00000010E6A0EC40DF00DBE0E6800010A0E1B
:104400000F6E000E106E52EC14F0135081271450F2
:10441000822300010E6A0FC40DF00DBE0E6800016C
:104420000A0E0F6E000E106E52EC14F0135083271C
:1044300014508423120000010A0E0D6E000E0E6E41
:104440000301BB5129EC2CF0D8A06CEF22F0030142
:104450004DAF39EF22F04CC30FF0106A0FBE106859
:1044600052EC14F0000113C0E8FF752714C0E8FFF8
:10447000762303014FAF4BEF22F04EC30FF0106ACB
:104480000FBE106852EC14F0000113C0E8FF77274C
:1044900014C0E8FF7823030151AF5DEF22F050C351
:1044A0000FF0106A0FBE106852EC14F0000113C038
:1044B000E8FF792714C0E8FF7A23030153AF6CEFBC
:1044C00022F052C30FF0106A0FBE106852EC14F0C5
:1044D00013C07BF014C07CF00301BC5129EC2CF01C
:1044E000D8A0B8EF22F0030155AF85EF22F054C3F6
:1044F0000FF0106A0FBE106852EC14F0000113C0E8
:10450000E8FF752714C0E8FF7623030157AF97EF44
:1045100022F056C30FF0106A0FBE106852EC14F070
:10452000000113C0E8FF772714C0E8FF78230301D8
:1045300059AFA9EF22F058C30FF0106A0FBE1068F0
:1045400052EC14F0000113C0E8FF792714C0E8FF13
:104550007A2303015BAFB8EF22F05AC30FF0106A61
:104560000FBE106852EC14F013C07BF014C07CF046
:1045700000017CAF1200E86A7B6F7C6F120090C074
:10458000E8FFC00A32E07DC00DF07EC00EF00001F1
:104590008FC0E8FF0D5E90C0E8FF0E5A0EBEE3EF3D
:1045A00022F019C4E8FF0D5E1AC4E8FF0E5A0EBED1
:1045B000F5EF22F0000119C4E8FF8F271AC4E8FFC5
:1045C0009023F9EF22F019C4E8FF0D261AC4E8FF82
:1045D0000E220EAEF5EF22F0000119C4E8FF8F5F46
:1045E0001AC4E8FF905BF9EF22F07DC08FF07EC027
:1045F00090F092C0E8FFC00A32E083C00DF084C0A2
:104600000EF0000191C0E8FF0D5E92C0E8FF0E5A67
:104610000EBE1DEF23F01BC4E8FF0D5E1CC4E8FFB7
:104620000E5A0EBE2FEF23F000011BC4E8FF9127A6
:104630001CC4E8FF922333EF23F01BC4E8FF0D26D0
:104640001CC4E8FF0E220EAE2FEF23F000011BC4A6
:10465000E8FF915F1CC4E8FF925B33EF23F083C057
:1046600091F084C092F0FDC0E8FFC00A32E07BC048
:104670000DF07CC00EF00001FCC0E8FF0D5EFDC037
:10468000E8FF0E5A0EBE57EF23F03FC4E8FF0D5E61
:1046900040C4E8FF0E5A0EBE69EF23F000013FC48C
:1046A000E8FFFC2740C4E8FFFD2372EF23F03FC47E
:1046B000E8FF0D2640C4E8FF0E220EAE69EF23F09E
:1046C00000013FC4E8FFFC5F40C4E8FFFD5B72EF00
:1046D00023F07BC0FCF07CC0FDF00401D00E3F6FE6
:1046E000070E406F12000201B6B312000201A1B121
:1046F00012000301B65129EC2CF0D8A012000001E1
:104700006267120002019F510001626F0201010EF7
:10471000B66394EF23F0010E00015F6E050E22ECEC
:104720000CF0280E0001626F75C00DF076C00EF01F
:1047300037EC24F0D8A4CAEF23F00201B667A3EF48
:1047400023F002019E51000176BFB1EF23F0030177
:10475000192719AFBBEF23F0D8A6BBEF23F0BEEFAC
:1047600023F00301195F19BFBBEF23F0D8A6BBEFFD
:1047700023F0C3EF23F019BFC3EF23F0640E1961D8
:10478000196FC8EF23F0640EE81EE82A1965196F47
:10479000A2EC26F077C00DF078C00EF037EC24F0D4
:1047A000D8A400EF24F00201B667D9EF23F002018C
:1047B0009E51000178BFE7EF23F00301242724AFC7
:1047C000F1EF23F0D8A6F1EF23F0F4EF23F003018B
:1047D000245F24BFF1EF23F0D8A6F1EF23F0F9EF27
:1047E00023F024BFF9EF23F0640E2461246FFEEF61
:1047F00023F0640EE81EE82A2465246FA2EC26F05C
:1048000079C00DF07AC00EF037EC24F0D8A436EF62
:1048100024F00201B6670FEF24F002019E5100015F
:104820007ABF1DEF24F003012F272FAF27EF24F0CD
:10483000D8A627EF24F02AEF24F003012F5F2FBF23
:1048400027EF24F0D8A627EF24F02FEF24F02FBF76
:104850002FEF24F0640E2F612F6F34EF24F0640EDD
:10486000E81EE82A2F652F6FA2EC26F01200000147
:104870000EAE40EF24F00D1E0E1E0D2AD8B00E2AEB
:10488000D8900E320D320E664AEF24F0640E0D649D
:104890004FEF24F00001640E0D6E000E0E6E0DC081
:1048A000E8FFE8460201E05D0001D894D8A0D88472
:1048B00012000001C36B000176BF6BEF24F011C33F
:1048C0000DF012C30EF075C00FF076C010F052EC70
:1048D00014F075EF24F015C30DF016C30EF075C07B
:1048E0000FF076C010F052EC14F013C30DF014C3A7
:1048F0000EF0000114500D2615500E2271EC25F01B
:104900000DC03EF00EC03FF0000178BF94EF24F0E0
:104910001CC30DF01DC30EF077C00FF078C010F06F
:1049200052EC14F09EEF24F020C30DF021C30EF0E2
:1049300077C00FF078C010F052EC14F01EC30DF0E9
:104940001FC30EF0000114500D2615500E2271ECFD
:1049500025F00DC03CF00EC03DF000017ABFBDEF68
:1049600024F027C30DF028C30EF079C00FF07AC0F1
:1049700010F052EC14F0C7EF24F02BC30DF02CC351
:104980000EF079C00FF07AC010F052EC14F029C389
:104990000DF02AC30EF0000114500D2615500E2202
:1049A00071EC25F00DC040F00EC041F032C30DF0A7
:1049B00033C30EF0FCC00FF0FDC010F052EC14F049
:1049C00034C30DF035C30EF0000114500D26155000
:1049D0000E2271EC25F00DC042F00EC043F03AC338
:1049E0000DF03BC30EF08FC00FF090C010F052ECF2
:1049F00014F03CC30DF03DC30EF0000114500D2621
:104A000015500E2271EC25F00DC044F00EC045F09B
:104A10003EC30DF03FC30EF07FC00FF080C010F01A
:104A200052EC14F040C30DF041C30EF000011450DD
:104A30000D2615500E2271EC25F00DC046F00EC06B
:104A400047F042C30DF043C30EF081C00FF082C0A7
:104A500010F052EC14F044C30DF045C30EF0000109
:104A600014500D2615500E2271EC25F00DC048F0A3
:104A70000EC049F091C00DF092C00EF00EBE49EF8D
:104A800025F046C30FF047C310F052EC14F04FEF7F
:104A900025F04AC30FF04BC310F052EC14F048C39A
:104AA0000DF049C30EF00D5014260E50152214C0FF
:104AB0000DF015C00EF071EC25F00DC04AF00EC0DF
:104AC0004BF00001D26770EF25F00301B15129ECE2
:104AD0002CF0D8A070EF25F038C342F039C343F072
:104AE00012000201AE5100010D5C0201AF51000144
:104AF0000E58E8AE81EF25F0AEC20DF0AFC20EF059
:104B000012000201B05100010D5C0201B15100011F
:104B10000E58E8BE1200B0C20DF0B1C20EF0120085
:104B20000001FAA5A0EF25F0FA9535A4A0EF25F035
:104B30003594010E5F6E050E22EC0CF0D880120049
:104B4000D89012000001000E0D6E020E0E6E0001D4
:104B5000000E136E000E146E010E156EE86A0A6EDA
:104B6000A3EC0EF0020100510001AB6F000EF86ED5
:104B7000850EF76E6E0EF66E0900F5CFDDF20900B8
:104B80000900F5CFDEF20900F5CFDFF212000001D7
:104B9000000E0D6E020E0E6E0001000E136E000E62
:104BA000146E010E156E040E0A6ED7EC0EF0120094
:104BB000E846E8060B6E0001000E0D6E030E0E6E49
:104BC0000001000E136E000E146E010E156E0B50D8
:104BD0001426E86A1522100E0A6EA3EC0EF01200DD
:104BE000E846E8060B6E0001000E0D6E080E0E6E14
:104BF0000001000E136E000E146E010E156E0B50A8
:104C00001426E86A1522400E0A6EA3EC0EF000018D
:104C1000000EBB6F030EBC6F0001000EB96F030ED8
:104C2000BA6F0001080EBA6F100EBD6F00EC2BF0CA
:104C30000001000E0D6E080E0E6E0001000E136EC8
:104C4000000E146E010E156E0B501426E86A152224
:104C5000010E0A6ED7EC0EF01200E846E8060B6E65
:104C60000001000E0D6E030E0E6E0001000E136E9D
:104C7000000E146E010E156E0B501426E86A1522F4
:104C80000A6EA3EC0EF00001000E0D6E040E0E6E07
:104C90000001000E136E000E146E010E156E0B5007
:104CA000E82A1426E86A15220A6EA3EC0EF0120018
:104CB000E846E8060C6E0001000E0D6E030E0E6E47
:104CC0000001000E136E000E146E010E156E0C50D6
:104CD0001426E86A1522040E0A6ED7EC0EF00001C5
:104CE000000E0D6E040E0E6E0001000E136E000E0F
:104CF000146E010E156E0C50E82A1426E86A15226F
:104D0000040E0A6ED7EC0EF012000001000EBB6F0D
:104D1000030EBC6F0001000EB96F060EBA6F000ED5
:104D2000BD6F00EC2BF00001000EBB6F040EBC6FDA
:104D30000001000EB96F070EBA6F000EBD6F00ECD8
:104D40002BF0120002010051E846E8060A6E00014D
:104D5000000E0D6E030E0E6E0001000E136E000E9F
:104D6000146E010E156E0A501426E86A1522010E03
:104D70000A6ED7EC0EF0120075C093F076C094F076
:104D800077C095F078C096F079C097F07AC098F027
:104D90007BC099F07CC09AF0FCC099F0FDC09AF0FD
:104DA0008FC09BF090C09CF07FC09DF080C09EF0B3
:104DB00081C09FF082C0A0F091C0A1F092C0A2F08B
:104DC000030EE26E5C0EE16E0C0EE8CF0AF0E6CF49
:104DD000E8FF0F0BD8B417EF27F0E7180F0BD8A494
:104DE00017EF27F0E7CFE8FFF00B0409E762FFEFCA
:104DF00026F07BC099F07CC09AF017EF27F0E7CF40
:104E0000E8FFF00B0509E7620CEF27F08FC09BF07D
:104E100090C09CF017EF27F0E7CFE8FFF00B0809F0
:104E2000E76217EF27F091C0A1F092C0A2F0040E44
:104E3000E1260A06D8A4E7EF26F01200BCEC26F023
:104E40000301B25129EC2CF0D8A039EF27F0030E62
:104E5000E26E5C0EE16E1DEC2AF0610EE16E1DEC5F
:104E60002AF0660EE16E1DEC2AF06B0EE16E1DEC71
:104E70002AF0BCEC26F00301B35129EC2CF0D8A0A9
:104E80005AEF27F0030EE26E700EE16E1DEC2AF071
:104E9000BCEC26F0750EE16E1DEC2AF0BCEC26F0A1
:104EA0007A0EE16E1DEC2AF0BCEC26F07F0EE16E6E
:104EB0001DEC2AF0BCEC26F00301B45129EC2CF0D7
:104EC000D8A075EF27F0030EE26E840EE16E1DECA4
:104ED0002AF0890EE16E1DEC2AF08E0EE16E1DECBB
:104EE0002AF0930EE16E1DEC2AF0120093C00DF033
:104EF00094C00EF010C40FF000010EBE11C40FF0EC
:104F0000106A0FBE106852EC14F00001640E176EA8
:104F1000000E186E56EC15F0000113C0E8FF97273D
:104F200014C0E8FF982397C00DF098C00EF012C48B
:104F30000FF000010EBE13C40FF0106A0FBE106810
:104F400052EC14F00001640E176E000E186E56EC51
:104F500015F0000113C0E8FF932714C0E8FF942365
:104F600097C00DF098C00EF014C40FF000010EBEF3
:104F700015C40FF0106A0FBE106852EC14F0000157
:104F8000640E176E000E186E56EC15F0000113C07B
:104F9000E8FF952714C0E8FF962399C00DF09AC04A
:104FA0000EF016C40FF00001106A0FBE106852EC2C
:104FB00014F00001640E176E000E186E56EC15F01A
:104FC000000113C0E8FF952714C0E8FF962393C0A3
:104FD00075F094C076F095C077F096C078F097C0E1
:104FE00079F098C07AF099C0FCF09AC0FDF0040105
:104FF00017A1FFEF27F095C07FF096C080F0030166
:1050000098A11CEF28F095C00DF096C00EF097C047
:105010000FF098C010F000010DC077F00EC078F0CE
:105020000DC079F00EC07AF00F50792710507A2316
:105030000F50775F1050785B030199A139EF28F08A
:1050400095C00DF096C00EF093C00FF094C010F014
:1050500000010DC077F00EC078F00DC075F00EC0E5
:1050600076F00F507527105076230F50775F105051
:10507000785B03019AA1D9EF28F093C00DF094C09A
:105080000EF00DC075F00EC076F00DC081F00EC0B0
:1050900082F00001811F821F814B822B0001640E70
:1050A000176E000E186E03019C51E812D8B4A2EFDF
:1050B00028F0E8BE80EF28F0640800010F6E106A47
:1050C00076BF71EF28F075C00DF076C00EF052EC8F
:1050D00014F056EC15F013C075F014C076F0A2EF82
:1050E00028F0000181C00DF082C00EF052EC14F0E7
:1050F00056EC15F013C081F014C082F0A2EF28F036
:10510000640F00010F6E106A76AF95EF28F075C03E
:105110000DF076C00EF052EC14F056EC15F013C002
:1051200075F014C076F0A2EF28F0000181C00DF0F8
:1051300082C00EF052EC14F056EC15F013C081F062
:1051400014C082F00001640E176E000E186E030189
:10515000C651E812D8B4BFEF28F00301C55129ECBD
:105160002CF0D8A0D9EF28F00001E80E0D6E030E48
:105170000E6E99510D5E9A510E5AC3EF28F09FC0E2
:105180000DF0A0C00EF09DC30FF000010EBE9BC33A
:105190000FF0106A0FBE101E52EC14F056EC15F012
:1051A0001350752714507623000113508127145093
:1051B000822312000301A4A11200BCEC26F076ECBD
:1051C00027F012000301A4B1EAEF28F0BCEC26F0AE
:1051D00076EC27F00301A0A117EF29F00301C351DA
:1051E00029EC2CF0D8A0F9EF28F00301A15102EF2F
:1051F00029F00301C45129EC2CF0D8A017EF29F0B5
:105200000301A25100010D6E0E6A00010A0E0F6E1D
:10521000000E106E52EC14F013507B5D14507C594C
:10522000E8AE17EF29F013C07BF014C07CF0120039
:10523000040126A112001DC4E8FFE812D8B4120030
:1052400004014AA12AEF29F00001751F761F752B72
:10525000D8B4762B04014BA134EF29F00001771F5D
:10526000781F772BD8B4782B75C00DF076C00EF070
:1052700077C00FF078C010F07FC075F080C076F076
:105280007FC077F080C078F000010DC0E8FF75277F
:105290000EC0E8FF76230DC0E8FF7F5F0EC0E8FF79
:1052A000805B0FC0E8FF772710C0E8FF78231DC49C
:1052B000E8FF0308D8B412000001D89010BED880CF
:1052C00010320F3200010FC0E8FF7F5F10C0E8FF0F
:1052D000805B0FC0E8FF755F10C0E8FF765B1DC400
:1052E000E8FF0108D8B4120000010FC0E8FF7F5F9B
:1052F00010C0E8FF805B0FC0E8FF755F10C0E8FFDB
:10530000765B12000BC0E8FFF00BD8B412000DC0A2
:105310006BF00EC06CF00EAE93EF29F00D1E0E1E5A
:105320000D2AD8B00E2A0DC013F00EC014F0640E72
:10533000176E85EC14F000011C6A090E1360ADEFC6
:1053400029F00BC0E8FFE83AE8060F0BE8CF0BF0B6
:10535000E8B6CBEF29F0C1EF29F0136E0DC01BF0BA
:105360000EC01CF0840E00011B5E030E1C5A0BC005
:10537000E8FFE83AE8060F0BE8CF0BF0E8B6CBEF12
:1053800029F0020EE8CFDAFF0BC0E8FF0B0DF35057
:10539000460FD4EF29F0030EE8CFDAFF0BC0E8FF89
:1053A000E8960B0DF350DA0FE8CFD9FFDFCF0CF002
:1053B00013C0E8FFD926DECF0AF0DFCF0BF00001E3
:1053C0000BC00DF00E6A0BBE0E680AC0E8FF0D5E42
:1053D000000E0ABEFF0E0E5A1BC00FF01CC010F0CC
:1053E00052EC14F000010A0E176E000E186E56EC07
:1053F00015F00A500A0D0A0E0ABEF45EF3CFE8FF5C
:105400001326F4CFE8FF142213C00DF014C00EF0E1
:1054100000016CAF12000CC0E8FF140D140E0CBE9E
:10542000F45EF3CF0DF0F4CF0EF0000113C0E8FFEF
:105430000D5E14C0E8FF0E5A1200E650E8CF0BF0E4
:105440000F0BD8B412000BC0E8FF80EC02F082EC26
:1054500029F00DC011F00EC012F0E6CF0AF0E6CF31
:10546000E8FF0001E8CF0DF00E6A0DBE0E1E000130
:105470000A0E0F6E000E106E52EC14F011C00DF0FB
:1054800012C00EF013500D5E14500E5A0EBE7EEF79
:105490002AF0E6CFE8FF00010AAC67EF2AF0E8CF78
:1054A00013F0E9CF14F00DC011F00EC012F013503C
:1054B00080EC02F00DC013F00EC014F00A0E176E4F
:1054C00085EC14F011C00DF012C00EF013500F6EE9
:1054D000106A0FBE101E52EC14F00001640E176E1D
:1054E000000E186E196A1A6A56EC15F013C00DF00A
:1054F00014C00EF00A5000EC03F01200E6CFE8FFF3
:10550000E6CFE8FF00010AAA9CEF2AF0E8CF13F0EB
:105510000DC011F00EC012F0135080EC02F00DC05F
:1055200013F00EC014F00A0E176E85EC14F011C0C3
:105530000DF012C00EF013500F6E106A0FBE101E49
:1055400052EC14F00001640E176E000E186E196A0A
:105550001A6A56EC15F013C00DF014C00EF00A5084
:1055600000EC03F012000001BD0EBB6F030EBC6F18
:105570000001120EB96F010EBA6F050EBD6F00EC7F
:105580002BF0CE0E0B0FE8CFD9FF060EE8CFDAFFD7
:10559000060EE8CF0CF0DDCFE8FFE812D8B4D8EF64
:1055A0002AF0DFCFE8FF29EC2CF0D8B0E4EF2AF0A6
:1055B000DDCFE8FF0C2ECBEF2AF0ABC0E8FF0201F5
:1055C0000063EDEF2AF01200DECFE8FFDECFE8FF48
:1055D00002010063EDEF2AF01200E8CF00F22DEC9B
:1055E00026F00001120EBB6F010EBC6F0001BD0E54
:1055F000B96F030EBA6F050EBD6F00EC2BF01200F1
:105600000001BB51E16EBC51E26E0001B951D96E8F
:10561000BA51DA6EE6CFE8FFE8CFDEFF0001BD2F1A
:105620000AEF2BF012000001C56B0301AE5129EC0B
:105630002CF00001D8B0C5810301AF5129EC2CF04A
:105640000001D8B0C5830301B05129EC2CF0000152
:10565000D8B0C5850301B15129EC2CF00001D8B0B8
:10566000C5870301B65129EC2CF00001D8B0C589DB
:105670000301BB5129EC2CF00001D8B0C58B03010C
:10568000BC5129EC2CF00001D8B0C58D1200C00E21
:105690002EEC10F00301AE5129EC2CF00001E86A69
:1056A000E880C515D8A063EF2BF0D8A474EF2BF0D9
:1056B000C571000EF86E870EF76E2C0EF66EBFECFD
:1056C00010F025EF2CF0D8B074EF2BF0D8B474EFB5
:1056D0002BF0C571000EF86E870EF76E1A0EF66E7F
:1056E000BFEC10F025EF2CF00301AF5129EC2CF0AA
:1056F0000001E86AE882C515D8A08DEF2BF0D8A488
:105700009EEF2BF0C573000EF86E870EF76E500EED
:10571000F66EBFEC10F025EF2CF0D8B09EEF2BF01A
:10572000D8B49EEF2BF0C573000EF86E870EF76E9F
:105730003E0EF66EBFEC10F025EF2CF00301B051D9
:1057400029EC2CF00001E86AE884C515D8A0B7EF71
:105750002BF0D8A4C8EF2BF0C575000EF86E870E9D
:10576000F76E740EF66EBFEC10F025EF2CF0D8B08B
:10577000C8EF2BF0D8B4C8EF2BF0C575000EF86E4B
:10578000870EF76E620EF66EBFEC10F025EF2CF070
:105790000301B15129EC2CF00001D8A0DEEF2BF071
:1057A000C5B7DFEF2BF0C577000EF86E870EF76EEA
:1057B000BC0EF66EBFEC10F025EF2CF0C597030180
:1057C000B65129EC2CF00001D8A0F5EF2BF0C5B9AB
:1057D000F6EF2BF0C579000EF86E870EF76EAA0E65
:1057E000F66EBFEC10F025EF2CF0C5990301BB510C
:1057F00029EC2CF00001D8A00CEF2CF0C5BB0DEF6C
:105800002CF0C57B000EF86E870EF76E860EF66ED6
:10581000BFEC10F025EF2CF0C59B0301BC5129EC27
:105820002CF00001D8A023EF2CF0C5BD24EF2CF004
:10583000C57D000EF86E870EF76E980EF66EBFEC03
:1058400010F025EF2CF0C59D1200500EE8CFA9F006
:105850001200E8AA61EF2CF0E8A861EF2CF00A6EC4
:10586000070BC90FE16E030EE26EE65000010D6EEC
:105870000E6AE8BE0E6800010A0E0F6E000E106E72
:1058800052EC14F00A50070BE846340FE16E010E9B
:10589000E26EE6CF0DF0E6CF0EF000010EAE55EF52
:1058A0002CF00D1E0E1E0D4A0E2A0DC0E8FF135ED1
:1058B0000EC0E8FF1458E836D8700ABE1200D8703F
:1058C0001200D890E8BA1200D880E8B8120000019F
:1058D0001F6E206AE8BC2080070BE82AD88020369B
:1058E000E82E6FEF2CF030501FB633502014D880C4
:1058F0002062D8901FBED8701200040126A11200A9
:10590000E1EC2CF0D8A044EC2DF004012F5129EC4F
:105910002CF0D8A0A8EF2CF00401305100010D6E3E
:105920000E6A00010A0E0F6E000E106E52EC14F09B
:1059300013C07BF014C07CF00001FE51D8A4B2EF7C
:105940002CF0FE6941C43FF442C440F4B2EF2CF0A5
:105950000001FE51D8B4B2EF2CF0FE6B41C43FF40D
:1059600042C440F4040129A1BCEF2CF000017F1FC8
:10597000801F7F2BD8B4802B36C30DF000010E6A38
:10598000FF0E0DBE0E6E7FC00FF080C010F052EC07
:1059900014F00001640E176E186A196A1A6A56EC40
:1059A00015F013C07FF014C080F01CEC2DF0000146
:1059B0000DC0E8FF7F270EC0E8FF802365EC2DF0C7
:1059C000120039C4E8FF29EC2CF0D8A0F2EF2CF03B
:1059D0003DC4E8FF29EC2CF0D8A012003EC40BF027
:1059E0000BEF2DF033C4E8FF29EC2CF0D8A003EF27
:1059F0002DF037C4E8FF29EC2CF0D8A0120038C4F1
:105A00000BF00BEF2DF02DC4E8FF29EC2CF0D8A003
:105A100012002EC40BF000010BC00DF00E6A000145
:105A20000A0E0F6E000E106E52EC14F013C07BF0D5
:105A300014C07CF0D88012002CC40BF033C4E8FFF3
:105A400029EC2CF0D8B036C40BF039C4E8FF29ECAF
:105A50002CF0D8B03CC40BF02FC4E8FF29EC2CF09C
:105A6000D8B032C40BF027C40DF028C40EF082EC7D
:105A700029F0040129A143EF2DF000010D1E0E1E97
:105A80000D2AD8B40E2A12002BC40BF033C4E8FF41
:105A900029EC2CF0D8B035C40BF039C4E8FF29EC60
:105AA0002CF0D8B03BC40BF02FC4E8FF29EC2CF04D
:105AB000D8B00B6A7BC00DF07CC00EF082EC29F0F0
:105AC0000DC07BF00EC07CF0120081C07DF082C062
:105AD0007EF00001FB51D8A412002AC40BF033C49D
:105AE000E8FF29EC2CF0D8B034C40BF039C4E8FF3F
:105AF00029EC2CF0D8B03AC40BF02FC4E8FF29EC05
:105B00002CF0D8B031C40BF00BC0E8FFCE0FE8CFBB
:105B10000DF000010E6A0DBE0E680001140E0F6E2E
:105B2000000E106E52EC14F013C07DF014C07EF025
:105B30001200D890040126A112000001FB51D8B434
:105B40001200030EE8CF5FF0020E22EC0CF081C0D1
:105B500013F082C014F00001E80E1326030E142285
:105B6000156A140EE8CF17F085EC14F02FC4E8FF87
:105B700029EC2CF0D8A0C1EF2DF013C031F4DAEFEE
:105B80002DF039C4E8FF29EC2CF0D8A0CCEF2DF093
:105B900013C03AF4DAEF2DF033C4E8FF29EC2CF00F
:105BA000D8A0D7EF2DF013C034F4DAEF2DF013C0E6
:105BB0002AF4D88000C2E8FF0001AB19D880D8A42D
:105BC000120000C2E8FF58EC26F0D8801200040151
:105BD00026A11200CE0E2EEC10F02FC4E8FF29EC07
:105BE0002CF0D8B003EF2EF039C4E8FF29EC2CF0EC
:105BF000D8B015EF2EF033C4E8FF29EC2CF0D8B064
:105C00000CEF2EF01200000EF86E5C0EF76E3C0EDC
:105C1000F66EBFEC10F01200000EF86E5C0EF76E20
:105C2000400EF66EBFEC10F01200000EF86E5C0E27
:105C3000F76E440EF66EBFEC10F0120054480000F0
:105C40005331000053320000E86AE8CF15F000013C
:105C5000F40E136E010E146E41C417F042C418F016
:105C600056EC15F013C041F414C042F4E86AE8CFD2
:105C700042F441C4E8FF120041C4E8FFE86624EFA3
:105C80002EF00401D00E416F070E426F1200040E79
:105C9000D56E1200D59E1200D89087B21200D8801F
:105CA000D5BE1200C9C00DF0CAC00EF000013C0EF6
:105CB0000F6E000E106E63EC14F013C00DF014C0E4
:105CC0000EF00001240E0F6EF40E106E63EC14F053
:105CD0000001000E176E000E186E000E196E000EF9
:105CE0001A6EC7C017F0C8C018F039EC17F0A5C37A
:105CF00017F0A6C318F00001186A56EC15F0C00E94
:105D00002EEC10F0000EF86E860EF76E1E0EF66E7C
:105D1000BFEC10F0CB0E2EEC10F02CEC11F0A5C364
:105D200013F0A6C314F0146AC00E2EEC10F028EC89
:105D300011F00001000EC96F000ECA6FD88012006A
:105D40000001020E36621200000133A01200FC6A4C
:105D5000A7EF05F0B9EC2EF0D8A01200FC6AC7EC52
:105D600025F000C2E8FF58EC26F085EC26F0A7EFFE
:105D700005F0000130B6C3EF2EF032A6C3EF2EF0CF
:105D80003296D8801200D89012000001870E0E6E55
:105D9000E00E0D6E0CEC2FF09EEC10F00001115097
:105DA00080EC01F012001EC10DF01FC10EF09EEC40
:105DB00010F012000001F651D8B41200E1CF3EF10C
:105DC000E2CF3FF15FEC1DF00001000E756F000E99
:105DD000766F0001000E776F000E786F60EC1FF099
:105DE000F3EC1EF01BEC22F073EC23F09CEC20F0A3
:105DF000DAEC28F01EEC27F0E2EC28F092EC21F02F
:105E000059EC24F0B8EC11F03EC1E1FF3FC1E2FFD4
:105E100012000001F6691200A0EC2EF00001D36B15
:105E2000E16BF16BF26BC00E2EEC10F00DC0F6FFC3
:105E30000EC0F7FFF86A0DC00FF00EC010F0BFECF7
:105E400010F0FA0E90EC0DF0A0EC33F0D8A42FEF88
